:1080000074250020058200001782000019820000FC
:108010001B8200001D8200001F8200000000000083
:1080200000000000000000000000000021820000AD
:10803000238200000000000025820000278200004B
:10804000495201008DEA00002D82000031FE00003F
:1080500045FE00009191010035820000FD8F000077
:10806000398200003B8200005D930000F5EA0000C9
:108070004182000043820000A10F010059FE000070
:1080800069FE00004B8200004D8200004F8200001C
:108090005182000053820000558200005782000088
:1080A000598200005B8200005D8200005F82000058
:1080B0006182000063820000359D0000678200003D
:1080C000698200006B8200006D8200006F820000F8
:0880D0007182000073820000C0
:1080D8002F49072291438D462E492F480A1A06D068
:1080E8000722914381F30988022282F314882B48DE
:1080F8002B492C4A00F039F82B482C492C4A00F01F
:1081080034F82C482C492D4A00F02FF82C482D49DA
:108118002D4A00F02AF82D482D492E4A00F025F85E
:108128002D482E492E4A00F020F82E482E490022CC
:1081380000F026F82D482E49091A082903DB0022E9
:108148000260043001601F481F49884205D0026858
:10815800043003B4904703BCF7E700208646EC469A
:1081680000200021234A9047FEE7884207D0521A90
:1081780005D0037801300B700131013AF9D170470D
:10818800884202D002700130FAE770471A487047F7
:10819800742500207425002074250020ECD30100EC
:1081A800C40400200C0500208482000084820000A2
:1081B80078C2010028D0010000010020C40400207A
:1081C80078C2010078C2010078C2010078C20100BB
:1081D80078C2010078C2010078C2010078C20100AB
:1081E80028D001000C05002074150020741500200B
:1081F800741500204D890000FFFFFFFFDFF86CD0E9
:108208001B4880471B481C490160FFF761BFFEE718
:10821800FEE7FEE7FEE7FEE7FEE7FEE7FEE7FEE72E
:10822800FEE7FEE7FEE7FEE7FEE7FEE7FEE7FEE71E
:10823800FEE7FEE7FEE7FEE7FEE7FEE7FEE7FEE70E
:10824800FEE7FEE7FEE7FEE7FEE7FEE7FEE7FEE7FE
:10825800FEE7FEE7FEE7FEE7FEE7FEE7FEE7FEE7EE
:10826800FEE7FEE7FEE7FEE7FEE7FEE70080002008
:0C827800E93F010008ED00E0008000007C
:1082840080B400AF72B641F22443C2F200031B680B
:10829400B3F1FF3F0BD041F22443C2F200031B6849
:1082A40003F1010241F22443C2F200031A6041F2D5
:1082B4002443C2F200031B681846BD4680BC7047C5
:1082C40080B483B000AF41F22443C2F200031B68C0
:1082D400002B17D041F22443C2F200031B6803F1C0
:1082E400FF3241F22443C2F200031A6041F22443F4
:1082F400C2F200031B687B607B68002B00D162B66E
:108304007B6801E04FF00003184607F10C07BD46F7
:1083140080BC704780B500AFFFF7B2FF80BD00BFDF
:1083240080B500AFFFF7CCFF80BD00BF80B582B041
:1083340002AF4FF45240C0F202004FF001010CF0C2
:10834400EFFA4FF000004FF000014FF000024FF041
:1083540000030DF06BF94FF000004FF005014FF0F2
:1083640000024FF000030DF061F94FF000004FF0F0
:1083740006014FF000024FF000030DF057F94FF0E3
:1083840002004FF002014FF000024FF000030DF025
:108394004DF94FF002004FF003014FF000024FF08F
:1083A40000030DF043F94FF002004FF004014FF0C9
:1083B40000024FF000030DF039F94FF002004FF0C6
:1083C40005014FF000024FF000030DF02FF94FF0BC
:1083D40004004FF008014FF000024FF000030DF0CD
:1083E40025F94FF004004FF00D014FF000024FF05B
:1083F40000030DF01BF94FF004004FF00E014FF095
:1084040000024FF000030DF011F94FF004004FF09B
:108414000F014FF000024FF000030DF007F94FF089
:1084240005004FF00C014FF000024FF000030DF077
:10843400FDF84FF005004FF002014FF004024FF039
:1084440000030DF0F3F84FF003004FF006014FF076
:1084540001024FF000030DF0E9F84FF002004FF075
:1084640001014FF004024FF001030DF0DFF84FF06B
:1084740002004FF000014FF004024FF001030DF031
:10848400D5F84FF004004FF009014FF004024FF00B
:1084940001030DF0CBF84FF000004FF00F014FF047
:1084A40004024FF001030DF0C1F84FF000004FF04B
:1084B40008014FF004024FF000030DF0B7F84FF03D
:1084C40002004FF006014FF004024FF000030DF0DC
:1084D400ADF84FF002004FF007014FF004024FF0E7
:1084E40000030DF0A3F84FF002004FF008014FF025
:1084F40002024FF000030DF099F84FF000004FF026
:108504000A014FF002024FF000030DF08FF84FF014
:10851400010300934FF000004FF00A014FF00102F5
:108524004FF001030DF00EF84FF003004FF0080177
:108534004FF004024FF001030DF078F84FF0000003
:108544004FF004014FF001024FF000030DF06EF8FC
:108554004FF0010300934FF000004FF004014FF07F
:1085640001024FF001030CF0EDFF4FF000004FF05B
:1085740002014FF004024FF000030DF057F84FF0E2
:1085840000004FF003014FF004024FF000030DF020
:108594004DF84FF004004FF00B014FF001024FF083
:1085A40000030DF043F84FF004004FF00A014FF0C0
:1085B40004024FF000030DF039F84FF004004FF0BF
:1085C4000C014FF004024FF000030DF02FF84FF0B0
:1085D40005004FF000014FF000024FF000030DF0D2
:1085E40025F84FF005004FF001014FF000024FF065
:1085F40000030DF01BF84FF002004FF009014FF09B
:1086040001024FF000030DF011F84FF00103009345
:108614004FF002004FF009014FF001024FF0010347
:108624000CF090FF4FF003004FF007014FF00002F1
:108634004FF000030CF0FAFF4FF002004FF00A0174
:108644004FF004024FF000030CF0F0FF4FF0020073
:108654004FF00B014FF004024FF000030CF0E6FF63
:108664004FF005004FF005014FF004024FF00003F6
:108674000CF0DCFF4FF005004FF00A014FF001024F
:108684004FF000030CF0D2FF4FF005004FF00B0148
:108694004FF001024FF000030CF0C8FF4FF003004D
:1086A4004FF001014FF002024FF001030CF0BEFF46
:1086B4004FF003004FF000014FF004024FF00103AC
:1086C4000CF0B4FF4FF003004FF002014FF004022E
:1086D4004FF001030CF0AAFF4FF000004FF001012E
:1086E4004FF004024FF000030CF0A0FF4FF0030022
:1086F4004FF005014FF004024FF000030CF096FF19
:108704004FF003004FF003014FF004024FF0010358
:108714000CF08CFF4FF003004FF004014FF0020205
:108724004FF001030CF082FF4FF0010300934FF070
:1087340003004FF004014FF001024FF001030CF06D
:1087440001FF4FF000004FF009014FF004024FF019
:1087540000030CF06BFF4FF001004FF00B014FF0E2
:1087640004024FF000030CF061FF4FF001004FF0E2
:108774000C014FF004024FF000030CF057FFBD460C
:1087840080BD00BF01387FF4FDAF704780B582B073
:1087940000AF78607A684FF4D843C0F2DC2303FB5F
:1087A40002F249F68173C1F25E63A3FB02134FEA3E
:1087B40093431846FFF7E6FF07F10807BD4680BD5F
:1087C40080B582B000AF786003E04FF47A50FFF7D1
:1087D400D9FF7B68002B0CBF00230123DBB27A682E
:1087E40002F1FF327A60002BEFD107F10807BD4692
:1087F40080BD00BF80B483B000AF03463960FB7115
:108804004FF4C042C4F20002F9793B684FF0010012
:1088140000FA03F318460B464FEAC3035B184FEA0A
:108824008303D31803F11003586007F10C07BD4606
:1088340080BC704780B500AF06F0E0FB08F06AFB2F
:1088440001F07EFB00F07CFB01F0D0F900F002FFA8
:1088540001F0CEF84FF0010007F0D0F900F022FD4E
:108864004FF48043C4F20C034FF003021A6180BD3D
:1088740080B500AF00F04AFD00F02EFD4FF001007E
:1088840007F0D6F901F052FB00F060FB01F0B8F9F3
:1088940000F0F0FE06F0DAFE06F05EFB80BD00BFDD
:1088A40080B500AF40F20C53C2F200034FF0010256
:1088B4001A7040F20D53C2F200034FF001021A7015
:1088C40003F094FD80BD00BF80B500AF40F20C53AF
:1088D400C2F200034FF000021A7040F20D53C2F2CC
:1088E40000034FF000021A70FFF7C2FF03F09CFD73
:1088F40080BD00BF80B582B000AF0346FB7140F27B
:108904000C53C2F200031B78FA799A420BD0FB791C
:10891400012B02D1FFF7C4FF06E0FB79002B03D142
:10892400FFF7D2FF00E000BF07F10807BD4680BD96
:1089340080B400AF40F20C53C2F200031B78184617
:10894400BD4680BC704700BF80B584B000AF0BF05B
:1089540037F9FFF7EBFC4FF48640C0F204004FF008
:1089640001010BF0DDFF4CF27822C0F2010207F1A5
:1089740004031068516803C3127A1A704FF00C0391
:108984003B7307F1040318460DF0B8FE40F20C5394
:10899400C2F200034FF000021A7040F20D53C2F20B
:1089A40000034FF000021A7004F010FC05F09CFF65
:1089B4000AF028FC0BF0BCF904F042FF4FF002006F
:1089C4004FF00101FFF716FF4FF002004FF00001D6
:1089D400FFF710FF4FF004004FF00901FFF70AFF03
:1089E4004FF000004FF00F01FFF704FF01F090F883
:1089F40000F028FA01F010FA00F01CFC00F086FCEC
:108A040006F01EFE06F022FE00F0C8FF06F058FF36
:108A14004FF0010007F08CF84FF0010007F008F95F
:108A240000F0B2FD00F026FE00F034FE02F038FF44
:108A340002F078FE0AF04AFF03F02CFD06F082FBF8
:108A44004FF0010004F0D6FB07F004FE07F064FFCA
:108A54004FF0FF004FF0000108F022F84FF0000043
:108A640008F060F84FF000004FF000014FF00002F2
:108A740008F07CF84FF000004FF000014FF00002C6
:108A840008F0B0F84FF000004FF000014FF0000282
:108A940008F0E4F84FF0000008F01CF94FF0FA0079
:108AA400FFF78EFE0DF012FE4FF0FF004FF00001B5
:108AB40007F0F6FF4FF0FA00FFF782FE0DF006FE16
:108AC4004FF000004FF0FF0107F0EAFF4FF0FA000B
:108AD400FFF776FE0DF0FAFD4FF000004FF00001B5
:108AE40007F0DEFF4FF0FF0008F01CF84FF0FA002B
:108AF400FFF766FE0DF0EAFD4FF0000008F012F8F3
:108B04004FF0FF004FF000014FF0000208F02EF884
:108B14004FF0FA00FFF754FE0DF0D8FD4FF00000BF
:108B24004FF0FF014FF0000208F020F84FF0FA0078
:108B3400FFF746FE0DF0CAFD4FF000004FF00001B4
:108B44004FF0FF0208F012F84FF0FA00FFF738FE7A
:108B54000DF0BCFD4FF000004FF000014FF000029B
:108B640008F004F84FF0FF004FF000014FF000024E
:108B740008F038F84FF0FA00FFF722FE0DF0A6FDDA
:108B84004FF000004FF0FF014FF0000208F02AF808
:108B94004FF0FA00FFF714FE0DF098FD4FF00000BF
:108BA4004FF000014FF0FF0208F01CF84FF0FA00FC
:108BB400FFF706FE0DF08AFD4FF000004FF00001B4
:108BC4004FF0000208F00EF84FF0FF004FF00001E4
:108BD4004FF0000208F042F84FF0FA00FFF7F0FD02
:108BE4000DF074FD4FF000004FF0FF014FF0000254
:108BF40008F034F84FF0FA00FFF7E2FD0DF066FDDF
:108C04004FF000004FF000014FF0FF0208F026F88B
:108C14004FF0FA00FFF7D4FD0DF058FD4FF00000BF
:108C24004FF000014FF0000208F018F84FF0FF0079
:108C340008F050F84FF0FA00FFF7C2FD0DF046FDC2
:108C44004FF0000008F046F84FF0FA00FFF7B8FDC7
:108C54000DF03CFD06F056FA05F0A4FC05F0D0FF3B
:108C640006F050F906F078F901F060F900E000BF71
:108C740005F058FF40F20D53C2F200031B78002B9D
:108C84000DD003F0A7FB0346002B08D040F20D5390
:108C9400C2F200034FF000021A70FFF7CBFD40F25E
:108CA4000C53C2F200031B78012BE0D14FF4804334
:108CB400C4F20C039B6803F00303002BD7D04FF0DE
:108CC4000000FFF717FED2E780B483B000AF03467D
:108CD400FB714FF46143CEF2000397F907204FEA8A
:108CE4005212F97901F01F014FF0010000FA01F16D
:108CF40043F8221007F10C07BD4680BC704700BF43
:108D040080B483B000AF0346FB714FF46143CEF2ED
:108D1400000397F907204FEA5212F97901F01F0175
:108D24004FF0010000FA01F102F1600243F8221051
:108D340007F10C07BD4680BC704700BF80B483B008
:108D440000AF78607B685B6A184607F10C07BD4684
:108D540080BC704780B483B000AF786039607B68B2
:108D64003A681A6207F10C07BD4680BC704700BF21
:108D740080B483B000AF786039607B685A693B681F
:108D84001A437B685A6107F10C07BD4680BC7047E3
:108D940080B483B000AF78607B689B69184607F1A4
:108DA4000C07BD4680BC704780B483B000AF7860C8
:108DB4000B46FB70FA787B685A6007F10C07BD46D6
:108DC40080BC704780B483B000AF03463960FB7148
:108DD4004FF4C042C4F20002F9793B684FF001003D
:108DE40000FA03F318460B464FEAC3035B184FEA35
:108DF4008303D31803F11003586007F10C07BD4631
:108E040080BC704780B483B000AF03463960FB7107
:108E14004FF4C042C4F20002F9793B684FF00100FC
:108E240000FA03F318460B464FEAC3035B184FEAF4
:108E34008303D31803F11003186007F10C07BD4630
:108E440080BC704780B500AF4FF000004FF00001C8
:108E540000F0E0F84FF001004FF0000100F0DAF804
:108E64004FF002004FF0000100F0D4F880BD00BFC5
:108E740090B583B000AF48F2B213C0F6E0731B782C
:108E8400FB7148F2BE13C0F6E0731B884FEA13135C
:108E94009BB23B60FB79184612F0F0F9044640F2AD
:108EA4001053C2F200031B683A68D31A184612F032
:108EB400E5F90346184648F62821C3F6226112F064
:108EC400F5FA03462046194612F056FA03461846A8
:108ED40007F10C07BD4690BD80B500AF40F21453B6
:108EE400C2F200031B68184612F0E0F90346184664
:108EF4004DF29A51C3F68C2112F0D8FA0346184663
:108F040080BD00BF80B500AF40F21853C2F2000329
:108F14001B68184612F0CAF9034618464DF29A51D6
:108F2400C3F60C2112F0C2FA0346184642F2C551A8
:108F3400C4F2832112F0BAFA0346184680BD00BF7A
:108F440080B400AFBD4680BC704700BF80B400AFA2
:108F5400BD4680BC704700BF80B582B000AF4FF4FF
:108F64000050C4F20000FFF7E9FE786040F21D53A0
:108F7400C2F200031B78DBB2012B0AD0022B15D0FE
:108F8400002B1AD140F21053C2F200037A681A601F
:108F940013E04FF005004FF00201FFF713FF40F21A
:108FA4001453C2F200037A681A6006E040F21853C0
:108FB400C2F200037A681A6000BF40F21C53C2F286
:108FC40000034FF001021A704FF40050C4F2000085
:108FD4004FF00101FFF7BEFE4FF00700FFF790FED0
:108FE4004FF40070C0F203004FF000010BF098FC46
:108FF40007F10807BD4680BD80B500AFFFF7ACFFA1
:1090040040F22053C2F200031B68184605F0F8FC36
:1090140080BD00BF80B588B000AF02460B46FA7130
:10902400BB714FF40070C0F203004FF001010BF06C
:1090340077FC4FF000033B764FF000037B764FF054
:109044000003BB764FF01F03FB764FF000033B7722
:109054004FF000037B774FF000000BF063F90346F9
:10906400FB764CF6C070C0F26A004FF000010BF0C2
:109074001DF903463B774FF000033B734FF00003A9
:109084007B734FF00003BB734FF00003FB734FF08F
:1090940000033B744FF000037B744FF00003BB7478
:1090A4004FF00003FB744FF000033B754FF00203D5
:1090B400BB734FF008037B73FB79012B11D0022B98
:1090C40020D0002B29D14FF00003BB734FF00803CD
:1090D4003B7440F22053C2F200034FF020021A60A6
:1090E4001BE04FF005004FF00201FFF78BFE4FF03D
:1090F40006033B7440F22053C2F200034FF04002D7
:109104001A600AE04FF007033B7440F22053C2F2A6
:1091140000034FF080021A6000BF07F118034FF4F8
:109124000050C4F2000019460BF03CF807F10C03A0
:109134004FF40050C4F2000019460BF067F84FF4E6
:109144000050C4F200004FF00101FFF711FEBB799B
:10915400002B03D04FF00700FFF7B6FD40F21D537C
:10916400C2F20003FA791A7040F21C53C2F20003EF
:109174004FF000021A704FF40050C4F200004FF098
:109184000101FFF711FEBB7983F00103DBB2002B71
:109194000DD000BF4FF40050C4F20000FFF7F8FDFB
:1091A400034603F00103002BF4D0FFF7D5FE07F1CB
:1091B4002007BD4680BD00BF80B483B000AF034626
:1091C400FB714FF46143CEF2000397F907204FEA95
:1091D4005212F97901F01F014FF0010000FA01F178
:1091E40002F1600243F8221007F10C07BD4680BC6F
:1091F400704700BF80B483B000AF03463960FB7191
:109204004FF4C042C4F20002F9793B684FF0010008
:1092140000FA03F318460B464FEAC3035B184FEA00
:109224008303D31803F11003186007F10C07BD463C
:1092340080BC704790B585B000AF4FF44240C0F297
:1092440002004FF001010BF06BFB4CF28423C0F2DF
:1092540001033C460FCB84E80F004FF4D843C0F21F
:10926400DC237B6046F63C53C0F20103BB603B4603
:109274004FF42440C4F2000019460CF029FB4FF4CB
:109284002443C4F2000340F203129A634FF42440CF
:10929400C4F200004FF001010CF008FB07F11407C1
:1092A400BD4690BD80B500AF4FF42443C4F2000323
:1092B4004FF000029A634FF42440C4F200004FF0D0
:1092C40000010CF0F3FA4FF44240C0F202004FF0F8
:1092D40000010BF025FB80BD80B500AF4FF4424088
:1092E400C0F202004FF001010BF01AFB4FF42443CB
:1092F400C4F2000340F203129A634FF42440C4F210
:1093040000004FF001010CF0D1FA80BD80B500AF30
:109314004FF001004FF00B014FF008024FF0010332
:109324000CF084F94FF001004FF00C014FF00802EB
:109334004FF001030CF07AF94FF000004FF00901EF
:10934400FFF758FF4FF06400FFF73AFA4FF00A00B6
:10935400FFF732FF80BD00BF80B500AF4FF424405B
:10936400C4F200000CF0E4FA03461A4640F2245317
:10937400C2F200031A7080BD80B584B000AF78607B
:109384004FF00003FB605BE04FF42440C4F20000A4
:1093940079680CF01BFD03461A4640F22453C2F2CE
:1093A40000031A704FF00003BB6019E04FF424402F
:1093B400C4F200000CF0BCFA03461A4640F22453EF
:1093C400C2F200031A7040F22453C2F200031B7865
:1093D400DBB25BB2012B09D1BB6803F10103BB60B3
:1093E400BA6842F20F739A42E0D900E000BF40F23B
:1093F4002453C2F200031B78DBB25BB2B3F1FF3F2C
:1094040004D1FB6803F10103FB6019E040F224532B
:10941400C2F200031B78DBB2002B0ED04CF2942076
:10942400C0F201004FF04A014CF2D822C0F201020E
:1094340003F000FF4FF0000313E04FF0010310E0CE
:10944400FB68042BA0D94CF29420C0F201004FF029
:109454004F014CF2D822C0F2010203F0EBFE4FF0B0
:109464000003184607F11007BD4680BD80B588B0DB
:1094740000AF0B463A600246FA71BB71FB799BB2AE
:10948400BB814FF00403FB8107F106033B614FF0FE
:109494000103BB823B68BB614FF00103BB8307F14F
:1094A4000C031846FFF768FF0346184607F1200728
:1094B400BD4680BD80B588B000AF13460246FA7140
:1094C4000A46BA717B71FB799BB2BB814FF00803EA
:1094D400FB8107F106033B614FF00103BB8207F1F7
:1094E4000503BB614FF00103BB8307F10C0318466E
:1094F400FFF742FF0346184607F12007BD4680BD2B
:1095040080B586B002AF4FF480304FF0AF0106F063
:109514006BFE0346BB73BB7B03F01F03FB7323E0AB
:109524004FF0E8033B7307F10C0207F104034FF01B
:10953400060100914FF4803011464FF0010206F00D
:1095440009FE40F22853C2F200031B68002B0BD023
:1095540040F22853C2F200031B68B888F9883A899C
:1095640000B209B212B29847FB7B002B0CBF002358
:109574000123DBB2FA7B02F1FF32FA73002BCFD165
:1095840007F11007BD4680BD80B582B000AF40F240
:109594002853C2F200034FF000021A604FF48030E7
:1095A4004FF08F0106F020FE0346FB71FB79332B4D
:1095B4000CD04CF2DC20C0F201004FF07A014CF2E6
:1095C4002032C0F2010203F035FE2FE04FF4803068
:1095D4004FF023014FF0A80206F06EFD4FF48030E7
:1095E4004FF02E014FF0000206F066FD4FF480307C
:1095F4004FF02E014FF0900206F05EFD4FF48030E4
:109604004FF022014FF0060206F056FD4FF4803071
:109614004FF024014FF0400206F04EFD4FF00400DD
:1096240049F20551C0F2000105F0B8F907F1080745
:10963400BD4680BD80B483B000AF786040F228534B
:10964400C2F200037A681A6007F10C07BD4680BCB9
:10965400704700BF80B500AF4FF0040005F0E6F995
:109664004FF480304FF020014FF0000206F024FD4B
:1096740080BD00BF80B500AF4FF0040005F0ECF9E9
:109684004FF480304FF020014FF0370206F014FD04
:1096940080BD00BF80B483B000AF40F22C53C2F24F
:1096A40000034FF000021A6040F23053C2F200038C
:1096B4004FF000021A6040F25453C2F200034FF01C
:1096C40000021A604FF000037B600CE040F2345358
:1096D400C2F200037A689B184FF000021A707B688C
:1096E40003F101037B607B681F2BEFDD07F10C079F
:1096F400BD4680BC704700BF80B400AF40F22C531D
:10970400C2F200031B68002B0CBF00230123DBB251
:109714001846BD4680BC704780B582B000AF786003
:1097240040F22C53C2F200037A681A6002F0A8F8DF
:1097340007F10807BD4680BD80B582B000AF7860F0
:1097440040F22C53C2F200031A687B68D21840F22C
:109754002C53C2F200031A6040F22C53C2F20003ED
:109764001B68012B08D902F07BF840F22C53C2F29B
:1097740000034FF001021A6002F082F807F10807B3
:10978400BD4680BD80B582B000AF786040F22C53F6
:10979400C2F200031B687A689A4209D902F060F8A1
:1097A40040F22C53C2F200034FF000021A600DE0A5
:1097B40040F22C53C2F200031A687B68D21A40F2BA
:1097C4002C53C2F200031A6002F05AF807F108079A
:1097D400BD4680BD80B400AF40F23053C2F20003F6
:1097E4001B68002B0CBF00230123DBB21846BD46C7
:1097F40080BC704780B582B000AF786040F23053CF
:10980400C2F200037A681A6002F042F807F108070E
:10981400BD4680BD80B582B000AF786040F2305361
:10982400C2F200031A687B68D21840F23053C2F2C5
:1098340000031A6040F23053C2F200031B68022B8B
:1098440008D902F00DF840F23053C2F200034FF091
:1098540002021A6002F01CF807F10807BD4680BD39
:1098640080B582B000AF786040F23053C2F200039A
:109874001B687A689A4209D901F0F2FF40F230532A
:10988400C2F200034FF000021A600DE040F23053C0
:10989400C2F200031A687B68D21A40F23053C2F253
:1098A40000031A6001F0F4FF07F10807BD4680BD0C
:1098B40080B400AF40F25453C2F200034FF00002F0
:1098C4001A60BD4680BC704780B582B000AF786036
:1098D400396040F25453C2F200031A683B68D3184B
:1098E400202B02D901F0BCFF1AE040F25453C2F21B
:1098F40000031A6840F23453C2F20003D318184626
:1099040079683A6812F0BEF940F25453C2F2000387
:109914001A683B68D21840F25453C2F200031A602A
:1099240007F10807BD4680BD80B582B000AF7860FE
:10993400396040F25453C2F200031B68002B01D07B
:1099440001F08EFFFFF7B4FF78683968FFF7BCFFBA
:1099540002F01EF807F10807BD4680BD80B584B04B
:1099640000AFF860B9607A603B6040F25453C2F2D1
:1099740000031B68002B01D001F072FFFFF798FF72
:10998400F868B968FFF7A0FF78683968FFF79CFFAB
:1099940001F0FEFF07F11007BD4680BD80B582B01F
:1099A40000AF07F106034FF01C004FF007011A4601
:1099B400FFF75CFD0346FB71FB7983F00103DBB227
:1099C400002B11D1BB79C42B0CD04CF22430C0F243
:1099D40001004FF02D014CF26C32C0F2010203F091
:1099E40029FC01E000F004F807F10807BD4680BD3A
:1099F40080B582B000AF4FF01C004FF011014FF062
:109A04000002FFF757FD0346FB71FB7983F0010366
:109A1400DBB2002B0CD04CF22430C0F201004FF02A
:109A24004C014CF26C32C0F2010203F003FC1CE066
:109A34004FF01C004FF010014FF00002FFF73AFD09
:109A44000346FB71FB7983F00103DBB2002B0CD0DE
:109A54004CF22430C0F201004FF051014CF26C3250
:109A6400C0F2010203F0E6FB00BF07F10807BD46A0
:109A740080BD00BF80B483B000AF0346FB714FF4D8
:109A84006143CEF2000397F907204FEA5212F979A5
:109A940001F01F014FF0010000FA01F143F8221018
:109AA40007F10C07BD4680BC704700BF80B400AF0F
:109AB4004FF00003C4F208035B681846BD4680BC3F
:109AC400704700BF80B483B000AF78604FF00003EC
:109AD400C4F208037A689A6107F10C07BD4680BC9A
:109AE400704700BF80B483B000AF78604FF00003CC
:109AF400C4F208034FF00002C4F20802D1697A6884
:109B04000A43DA6107F10C07BD4680BC704700BF09
:109B140080B582B000AF40F25853C2F200034FF058
:109B240000021A604FF48640C0F204004FF00101B5
:109B34000AF0F6FE4FF000004FF001014FF0010271
:109B44000BF00CFB4FF00200C0F206004FF00201D4
:109B54000BF03EF94FF00300C0F212004FF0020187
:109B64000BF036F941F23040C0F208004FF0010129
:109B74000AF0D6FE4FF48640C0F204004FF0010113
:109B84000AF0CEFE4FF40043C4F20C034FF400423B
:109B9400C4F20C02126822F0607242F400021A60ED
:109BA4004FF40043C4F20C034FF00202C3F88020C8
:109BB40000F026F84FF00200FFF794FF4FF01E006C
:109BC400FFF758FF4CF27033C0F2010307F10402AF
:109BD40019889B781180937007F1040318460CF0E0
:109BE40051FB07F10807BD4680BD00BF80B500AF3B
:109BF4004FF000004FF6FF710CF010FB80BD00BF6A
:109C040080B500AF4FF0000040F2FF310CF006FBCE
:109C14000CF062FB80BD00BF80B582B000AF3B4654
:109C240083E80300FEF776FB4FF000533A685A606E
:109C34004FF0005279684DF68363C4F21B33A3FBE3
:109C440001034FEA533347F6122101FB03F39360F8
:109C5400FEF766FB07F10807BD4680BD80B584B0FA
:109C640000AF7860FEF756FB4FF000539B68FB6033
:109C74004FF000535B68BB60FEF752FB7B6807F153
:109C8400080292E8030083E80300786807F11007EC
:109C9400BD4680BD80B586B000AF786000E000BFEF
:109CA4004FF000539B68FB604FF000535B68BB6050
:109CB400FFF7FCFE78614FF000539B683B61FA6844
:109CC4003B699A42EBD100BFFA687B6947F61221DF
:109CD40001FB03F34FEA9323D318FB607B6807F17E
:109CE400080292E8030083E80300786807F1180784
:109CF400BD4680BD80B582B000AF7860FEF70AFB38
:109D040040F25853C2F200037A681A60FEF708FB67
:109D140007F10807BD4680BD80B400AF40F2585338
:109D2400C2F200031B681846BD4680BC704700BFE2
:109D340080B582B000AF4FF00200FFF7C3FE4FF0D2
:109D440000533B604FF00003C4F208039A6840F2EA
:109D5400FF339A4237D13B689B6803F5F44303F120
:109D640012037B607A6844F23F23C0F20F039A42E5
:109D74000BD97B68A3F57423A3F510737B603B6850
:109D84005B6803F101023B685A603B687A689A6039
:109D940040F25853C2F200031B68002B19D040F262
:109DA4005853C2F200031B6803F1FF331A4640F212
:109DB4005853C2F200031A60002A0AD14FF480708B
:109DC40004F01EFE05E03B685B6803F102023B6899
:109DD4005A6007F10807BD4680BD00BF90B400AFCC
:109DE40048F2B013C0F6E0735C6C22464FF00003F7
:109DF40011464FF0000048F2B013C0F6E0731C6C3B
:109E040022464FF0000342EA000243EA01031046EF
:109E14001946BD4690BC704780B586B002AF40F28B
:109E24005C63C2F200034FF000021A7040F2D0707B
:109E3400C2F2000040F2A461C2F200014FF4967233
:109E440003F0B4FA4FF4A573009340F62800C2F26D
:109E5400000044F22021C5F253514FF0400240F675
:109E64003C03C2F2000303F04BFC4AF29100C0F23F
:109E7400000004F069FD4FF400604AF2D911C0F209
:109E8400000104F08BFDFFF7A9FFC7E902014FF0C1
:109E940000037B602BE03B7A03F00F03FB70FB783D
:109EA400092B04D8FB7803F13003FB7003E0FB7843
:109EB40003F13703FB70FB7899B240F2C442C2F25B
:109EC40000027B684FEA4303D3180A465A80FB68B2
:109ED4004FEA0373BA684FEA12121343BB60FB687C
:109EE4004FEA1313FB607B6803F101037B607B681B
:109EF4000F2BD0D907F11007BD4680BD80B500AF48
:109F04000DF034F80346002B0CBF00230123DBB211
:109F1400184680BD80B500AF0DF028F80346052B28
:109F240014BF00230123DBB2184680BD80B500AF07
:109F34004CF24840C0F201000DF024F880BD00BF8F
:109F440080B500AF0DF0AAFB80BD00BF80B483B024
:109F540000AF0346FB7140F25C63C2F200031A785F
:109F6400114640F25C53C2F20003F879585402F1EE
:109F74000103DAB240F25C63C2F200031A704FF0DC
:109F84000003184607F10C07BD4680BC704700BFAC
:109F940080B588B000AF78606FF00203FB617B6826
:109FA4001B7803F06003DBB2002B66D17B681B785F
:109FB40023F07F03DBB2002B5FD07B681B7803F0B8
:109FC4001F03DBB2012B58D17B685B78062B54D17D
:109FD4007B685B889BB24FEA13239BB2222B1DD173
:109FE4004FF02003BB617B689A79DB794FEA032346
:109FF4001343FB82FA8ABB699A4238BF13464FF077
:10A0040000004CF28831C0F201011A464FF00003FF
:10A014000DF062FB4FF00003FB612DE07B685B8871
:10A024009BB24FEA13239BB2212B25D140F6881013
:10A03400C2F2000014494FF0090211F023FE4FF060
:10A0440009033B617B689A79DB794FEA0323134365
:10A05400FB81FA893B699A42B8BF13464FF000006E
:10A0640040F68811C2F200011A464FF000030DF0C9
:10A0740033FB4FF00003FB6100BFFB69184607F197
:10A084002007BD4680BD00BFBAC3010080B500AF44
:10A094000DF0AAFA0346184680BD00BF80B582B011
:10A0A40000AF02460B46FA71BB7144F22050C4F271
:10A0B4004C2009F059FEBB79052B05D140F2D07034
:10A0C400C2F2000003F094F94FF4406004F098FCED
:10A0D40007F10807BD4680BD80B584B000AF0346D4
:10A0E400B9607A60FB734FF4006004F089FC97F95F
:10A0F4000F30002B0ED04CF26440C0F2010003F08C
:10A1040045F940F2D070C2F2000003F071F94FF04B
:10A11400000347E040F2D070C2F2000040F26461F4
:10A12400C2F20001BA6803F00DFA40F2D070C2F234
:10A13400000003F077F90346032B31D801A252F84B
:10A1440023F000BFA5A10000A5A1000059A10000B3
:10A154008BA1000040F2D073C2F200031A6840F2EF
:10A16400D073C2F20003DB6840F62800C2F200009C
:10A1740011461A4604F050F940F2D070C2F20000C1
:10A1840003F036F90CE04CF26440C0F2010003F035
:10A19400FDF840F2D070C2F2000003F029F900BFCC
:10A1A4004FF00003184607F11007BD4680BD00BFFD
:10A1B40080B584B000AF0346B9607A60FB734FF496
:10A1C400006004F01DFC4FF00003184607F110076F
:10A1D400BD4680BD80B582B000AF0CF0C7FE03461B
:10A1E400052B57D14FF001000CF09AFE034683F083
:10A1F4000103DBB2002B1ED04FF0010040F264617A
:10A20400C2F200014FF040024AF2DD03C0F2000343
:10A214000DF03CF978607B68002B10D040F260634D
:10A22400C2F200031B6803F1010240F26063C2F250
:10A2340000031A6003E04FF4006004F0E1FB4FF008
:10A2440081000CF06DFE034683F00103DBB2002BAA
:10A254001BD040F62800C2F2000040F2E871C2F2BE
:10A26400000103F0A3FA0346002B14D04FF0810041
:10A2740040F2E871C2F200014FF040024AF2B51315
:10A28400C0F200030DF028FA05E04FF4006004F07A
:10A29400B7FB00E000BF07F10807BD4680BD00BF63
:10A2A40080B584B000AF0346B9607A60FB73FB7B72
:10A2B400184600F01DFE07F11007BD4680BD00BF23
:10A2C40080B586B000AF0346B9607A60FB73FB7B50
:10A2D400002B04D0FB7B184600F016FE21E07B68BF
:10A2E400022B02D001F0BCFA1BE0BB681B784FEADA
:10A2F40003239AB2BB6803F101031B7813439BB297
:10A30400FB82FB8A1BB2002B07DBFB8A03F00103F1
:10A31400002B02D000F004FE03E0FB8A184601F093
:10A32400E9FF07F11807BD4680BD00BF80B584B0C2
:10A3340000AF0346B9607A60FB73FB7B002B04D04B
:10A34400FB7B184600F0F2FD01E000F0FBFD07F195
:10A354001007BD4680BD00BF80B584B000AF034682
:10A36400B9607A60FB73FB7B012B02D0022B03D014
:10A3740005E001F031FE07E001F066FE04E0FB7B3E
:10A38400184600F0E5FD00BF07F11007BD4680BD8B
:10A3940080B588B000AF0346B9607A60FB73FB7B7D
:10A3A400012B02D0022B12D014E0BB681B78FB7780
:10A3B400BB6803F10103BB617B6803F1FF337B617D
:10A3C400FB7F1846B9697A6900F0DAFD07E000F00E
:10A3D400E3FD04E0FB7B184600F0C6FD00BF07F177
:10A3E4002007BD4680BD00BF80B584B000AF0346E2
:10A3F400B9607A60FB73FB7B012B02D0022B03D084
:10A4040005E000F0DBFD07E000F0DEFD04E0FB7B8F
:10A41400184600F0C7FD00BF07F11007BD4680BD18
:10A4240080B58AB002AF0346B9607A60FB73FB7BE8
:10A43400002B04D0FB7B184600F0CCFD1FE0B8686D
:10A4440002F0BCFB0346FB83BB689B787B77BB684D
:10A45400DB783B77BB6803F10403184602F0C4FBC6
:10A46400B861BB681B7AFB75F98B7A7F3B7FF87DFB
:10A474000090084611461A46BB6900F0B7FD07F183
:10A484002007BD4680BD00BF80B586B000AF03463F
:10A49400B9607A60FB73FB7B002B04D0FB7B18460E
:10A4A40000F0B4FD09E0BB687B61BB689B79FB7479
:10A4B400FB7C7869194600F0B5FD07F11807BD4625
:10A4C40080BD00BF80B586B000AF0346B9607A6036
:10A4D400FB73FB7B002B04D0FB7B184600F0AEFD26
:10A4E40015E0B86802F06AFB0346FB82FB8A184653
:10A4F40010F0C4FE0346184644F2AE71C4F2610182
:10A5040010F0D4FF03463B61386900F0A3FD07F166
:10A514001807BD4680BD00BF80B586B000AF0346B6
:10A52400B9607A60FB73FB7B002B04D0FB7B18467D
:10A5340000F09AFD14E0B86802F040FB0346FB8289
:10A54400B7F91630184610F099FE034618464FF036
:10A554007A5110F0ABFF03463B61386900F090FD7F
:10A5640007F11807BD4680BD80B584B000AF03462F
:10A57400B9607A60FB73FB7B002B04D0FB7B18462D
:10A5840000F088FD01E000F091FD07F11007BD46E1
:10A5940080BD00BF80B584B000AF0346B9607A6067
:10A5A400FB73FB7B002B04D0FB7B184600F084FD7F
:10A5B40001E000F08DFD07F11007BD4680BD00BF2E
:10A5C40080B584B000AF0346B9607A60FB73FB7B4F
:10A5D400002B04D0FB7B184600F080FD01E000F066
:10A5E40089FD07F11007BD4680BD00BF80B584B06A
:10A5F40000AF0346B9607A60FB73FB7B002B04D089
:10A60400FB7B184600F07CFD01E000F085FD07F1BE
:10A614001007BD4680BD00BF80B584B000AF0346BF
:10A62400B9607A60FB73FB7B002B04D0FB7B18467C
:10A6340000F078FD01E000F081FD07F11007BD4650
:10A6440080BD00BF80B584B000AF0346B9607A60B6
:10A65400FB73FB7B002B04D0FB7B184600F074FDDE
:10A6640001E000F07DFD07F11007BD4680BD00BF8D
:10A6740080B584B000AF0346B9607A60FB73FB7B9E
:10A68400002B04D0FB7B184600F070FD01E000F0C5
:10A6940079FD07F11007BD4680BD00BF80B584B0C9
:10A6A40000AF0346B9607A60FB73FB7B002B04D0D8
:10A6B400FB7B184600F06CFD01E000F075FD07F12E
:10A6C4001007BD4680BD00BF80B584B000AF03460F
:10A6D400B9607A60FB73FB7B002B04D0FB7B1846CC
:10A6E40000F068FD01E000F071FD07F11007BD46C0
:10A6F40080BD00BF80B584B000AF0346B9607A6006
:10A70400FB73FB7B002B04D0FB7B184600F064FD3D
:10A7140001E000F06DFD07F11007BD4680BD00BFEC
:10A7240080B584B000AF0346B9607A60FB73FB7BED
:10A73400002B04D0FB7B184600F060FD01E000F024
:10A7440069FD07F11007BD4680BD00BF80B584B028
:10A7540000AF0346B9607A60FB73FB7B002B04D027
:10A76400FB7B184600F05CFD01E000F065FD07F19D
:10A774001007BD4680BD00BF80B584B000AF03465E
:10A78400B9607A60FB73FB7B002B04D0FB7B18461B
:10A7940000F058FD01E000F061FD07F11007BD462F
:10A7A40080BD00BF80B584B000AF0346B9607A6055
:10A7B400FB73FB7B002B04D0FB7B184600F054FD9D
:10A7C40001E000F05DFD07F11007BD4680BD00BF4C
:10A7D40080B584B000AF0346B9607A60FB73FB7B3D
:10A7E400002B04D0FB7B184600F050FD01E000F084
:10A7F40059FD07F11007BD4680BD00BF80B584B088
:10A8040000AFBA607B600346FB730B46BB73FB7BF4
:10A81400052B03D04FF00100FEF78EFFFB7B03F105
:10A82400FF331E2B00F2F18001A252F823F000BF87
:10A83400B1A800000FAA0000BFA800000FAA0000E2
:10A84400CDA80000DBA80000E9A80000F7A80000DC
:10A8540005A9000013A9000021A900002FA90000E8
:10A8640001AA00003DA900004BA9000059A900005D
:10A8740067A9000075A9000083A9000091A9000040
:10A884000FAA00000FAA00000FAA00000FAA0000E0
:10A894009FA90000ADA90000BBA90000C9A9000040
:10A8A400D7A90000E5A90000F3A90000BB7B184666
:10A8B400B9687A68FFF7F4FCAAE0BB7B1846B9686C
:10A8C4007A68FFF7FDFCA3E0BB7B1846B9687A6899
:10A8D400FFF72CFD9CE0BB7B1846B9687A68FFF74C
:10A8E4003BFD95E0BB7B1846B9687A68FFF750FDDD
:10A8F4008EE0BB7B1846B9687A68FFF775FD87E080
:10A90400BB7B1846B9687A68FFF78AFD80E0BB7B99
:10A914001846B9687A68FFF7B7FD79E0BB7B18463B
:10A92400B9687A68FFF7CEFD72E0BB7B1846B96858
:10A934007A68FFF7F1FD6BE0BB7B1846B9687A686B
:10A94400FFF712FE64E0BB7B1846B9687A68FFF72C
:10A9540021FE5DE0BB7B1846B9687A68FFF730FEDC
:10A9640056E0BB7B1846B9687A68FFF73FFE4FE0B4
:10A97400BB7B1846B9687A68FFF74EFE48E0BB7B9C
:10A984001846B9687A68FFF75DFE41E0BB7B18465C
:10A99400B9687A68FFF76CFE3AE0BB7B1846B96881
:10A9A4007A68FFF77BFE33E0BB7B1846B9687A68A8
:10A9B400FFF78AFE2CE0BB7B1846B9687A68FFF77C
:10A9C40099FE25E0BB7B1846B9687A68FFF7A8FEB4
:10A9D4001EE0BB7B1846B9687A68FFF7B7FE17E03C
:10A9E400BB7B1846B9687A68FFF7C6FE10E0BB7BEC
:10A9F4001846B9687A68FFF7D5FE09E0BB7B1846AC
:10AA0400B9687A68FFF7E4FE02E000F029FF00BFAE
:10AA140007F11007BD4680BD80B584B000AF7860F3
:10AA240039603B68042B02D000F01AFF10E07B6809
:10AA34005B78FB737B689B78BB737B68DB787B7389
:10AA4400F97BBA7B7B7B084611461A4601F072FA01
:10AA540007F11007BD4680BD80B582B000AF7860B5
:10AA640039607B6803F101023B6803F1FF33104650
:10AA7400194600F01DFC07F10807BD4680BD00BF64
:10AA840080B584B000AF786039607B6803F101035E
:10AA9400184602F093F80346FB817B6803F1030335
:10AAA400BB60FB891846B96800F00CFC07F110077D
:10AAB400BD4680BD80B586B000AF786039603B6824
:10AAC400022B02D800F0CCFE15E07B685B78FB75A6
:10AAD4007B689B78BB757B6803F103033B613B6830
:10AAE400A3F10303FB60FA7DBB7D104619463A6966
:10AAF400FB68FFF783FE07F11807BD4680BD00BF62
:10AB040080B588B002AF786039603B680F2B02D003
:10AB140000F0A6FE2CE07B685B78FB757B6803F194
:10AB240002033B617B6803F10803184602F046F810
:10AB34000346FB817B6803F10A03184602F03EF8E2
:10AB44000346BB817B6803F10C03184602F036F818
:10AB540003467B817B689B7B7B72F97DFA89BB8989
:10AB640078890090787A01900846396901F07AFA78
:10AB740007F11807BD4680BD80B584B000AF78608A
:10AB840039603B68032B02D000F06AFE0BE07B685F
:10AB94005B78FB737B689B78BB73FA7BBB7B10464B
:10ABA400194601F089FA07F11007BD4680BD00BFC0
:10ABB40090B587B002AF786039603B68072B02D04C
:10ABC40000F04EFE1BE07B685B78FB737B689B7830
:10ABD400BB737B68DB787B737B681B793B737B6817
:10ABE4005B79FB727B689B79BB72F87BB97B7A7B60
:10ABF4003B7BFC7A0094BC7A019400F06FFB07F174
:10AC04001407BD4690BD00BF80B586B000AF786024
:10AC140039603B68112B02D000F022FE15E07B68FE
:10AC240003F10103184602F001F8C7E904017B6847
:10AC340003F10903184601F0F9FFC7E90201D7E956
:10AC44000401D7E9022301F0AFFA07F11807BD4662
:10AC540080BD00BF80B584B000AF786039603B68C8
:10AC6400072B02D000F0FCFD1FE07B6803F1010319
:10AC7400184601F0A3FF0346FB817B6803F103033D
:10AC8400184601F09BFF0346BB817B6803F1050373
:10AC9400184601F093FF03467B81F989BA897B89C1
:10ACA400084611461A4600F025FB07F11007BD4679
:10ACB40080BD00BF80B584B000AF786039603B6868
:10ACC400072B02D000F0CCFD06E07B6803F1010302
:10ACD400FB60F86800F01CFB07F11007BD4680BD5F
:10ACE40080B584B000AF786039603B68022B02D035
:10ACF40000F0B6FD06E07B685B78FB73FB7B1846CF
:10AD040000F010FB07F11007BD4680BD80B584B08C
:10AD140000AF786039603B68022B02D000F0A0FDE0
:10AD240006E07B685B78FB73FB7B184601F02EFA28
:10AD340007F11007BD4680BD80B586B000AF7860CE
:10AD440039603B68022B02D800F08AFD15E07B686D
:10AD54005B78FB757B689B78BB757B6803F10303A9
:10AD64003B613B68A3F10303FB60FA7DBB7D1046A6
:10AD740019463A69FB6801F021F907F11807BD4645
:10AD840080BD00BF80B586B000AF786039603B6895
:10AD9400012B02D800F064FD10E07B685B78FB7542
:10ADA4007B6803F102033B613B68A3F10203FB6090
:10ADB400FB7D18463969FA6801F076FA07F118073D
:10ADC400BD4680BD80B584B000AF786039603B6813
:10ADD400022B02D000F044FD06E07B685B78FB7335
:10ADE400FB7B184600F0A8FA07F11007BD4680BDAA
:10ADF40080B584B000AF786039607B681B78FB73E2
:10AE0400FB7BA3F181030E2B6BD801A252F823F034
:10AE140051AE00005BAE000065AE00006FAE0000F6
:10AE240079AE000083AE00008DAE000097AE000046
:10AE3400A1AE0000BFAE0000DDAE0000D3AE000046
:10AE4400C9AE0000ABAE0000B5AE0000786839684A
:10AE5400FFF7E2FD48E078683968FFF7FDFD43E05D
:10AE640078683968FFF70CFE3EE078683968FFF7C8
:10AE740021FE39E078683968FFF742FE34E07868EB
:10AE84003968FFF779FE2FE078683968FFF790FE9C
:10AE94002AE078683968FFF7B7FE25E078683968F2
:10AEA400FFF7D8FE20E078683968FFF703FF1BE05E
:10AEB40078683968FFF714FF16E078683968FFF797
:10AEC40025FF11E078683968FFF736FF0CE07868F1
:10AED4003968FFF757FF07E078683968FFF772FFB2
:10AEE40002E000F0BDFC00BF07F11007BD4680BDC5
:10AEF40080B582B000AF0346FB7100F0B1FC07F1EE
:10AF04000807BD4680BD00BF80B582B000AF0346D0
:10AF1400FB7100F0A5FC07F10807BD4680BD00BF2A
:10AF240080B500AF00F09CFC80BD00BF80B582B04E
:10AF340000AF0346FB7100F093FC07F10807BD4620
:10AF440080BD00BF80B400AFBD4680BC704700BF69
:10AF540080B582B000AF0346FB7100F081FC07F1BD
:10AF64000807BD4680BD00BF80B582B000AF034670
:10AF7400FB7100F075FC07F10807BD4680BD00BFFA
:10AF840080B485B000AFF860B9607A6007F1140747
:10AF9400BD4680BC704700BF80B400AFBD4680BCD6
:10AFA400704700BF80B582B000AF0346FB7100F06C
:10AFB40057FC07F10807BD4680BD00BF80B400AF51
:10AFC400BD4680BC704700BF80B400AFBD4680BCA6
:10AFD400704700BF80B582B000AF0346FB7100F03C
:10AFE4003FFC07F10807BD4680BD00BF80B483B0B5
:10AFF40000AF3B600346FB800B467B7113463B71FD
:10B0040007F10C07BD4680BC704700BF80B582B015
:10B0140000AF0346FB7100F023FC07F10807BD46AF
:10B0240080BD00BF80B483B000AF78600B46FB7076
:10B0340007F10C07BD4680BC704700BF80B582B0E5
:10B0440000AF0346FB7100F00BFC07F10807BD4697
:10B0540080BD00BF80B483B000AF786007F10C07F7
:10B06400BD4680BC704700BF80B582B000AF0346C8
:10B07400FB7100F0F5FB07F10807BD4680BD00BF7A
:10B0840080B483B000AF786007F10C07BD4680BC84
:10B09400704700BF80B582B000AF0346FB7100F07B
:10B0A400DFFB07F10807BD4680BD00BF80B400AFD9
:10B0B400BD4680BC704700BF80B582B000AF034678
:10B0C400FB7100F0CDFB07F10807BD4680BD00BF52
:10B0D40080B400AFBD4680BC704700BF80B582B06D
:10B0E40000AF0346FB7100F0BBFB07F10807BD4648
:10B0F40080BD00BF80B400AFBD4680BC704700BFB8
:10B1040080B582B000AF0346FB7100F0A9FB07F1E4
:10B114000807BD4680BD00BF80B400AFBD4680BCFB
:10B12400704700BF80B582B000AF0346FB7100F0EA
:10B1340097FB07F10807BD4680BD00BF80B400AF90
:10B14400BD4680BC704700BF80B582B000AF0346E7
:10B15400FB7100F085FB07F10807BD4680BD00BF09
:10B1640080B400AFBD4680BC704700BF80B582B0DC
:10B1740000AF0346FB7100F073FB07F10807BD46FF
:10B1840080BD00BF80B400AFBD4680BC704700BF27
:10B1940080B582B000AF0346FB7100F061FB07F19C
:10B1A4000807BD4680BD00BF80B400AFBD4680BC6B
:10B1B400704700BF80B582B000AF0346FB7100F05A
:10B1C4004FFB07F10807BD4680BD00BF80B400AF48
:10B1D400BD4680BC704700BF80B582B000AF034657
:10B1E400FB7100F03DFB07F10807BD4680BD00BFC1
:10B1F40080B400AFBD4680BC704700BF80B582B04C
:10B2040000AF0346FB7100F02BFB07F10807BD46B6
:10B2140080BD00BF80B400AFBD4680BC704700BF96
:10B2240080B582B000AF0346FB7100F019FB07F153
:10B234000807BD4680BD00BF80B400AFBD4680BCDA
:10B24400704700BF80B582B000AF0346FB7100F0C9
:10B2540007FB07F10807BD4680BD00BF80B400AFFF
:10B26400BD4680BC704700BF80B582B000AF0346C6
:10B27400FB7100F0F5FA07F10807BD4680BD00BF79
:10B2840080B400AFBD4680BC704700BF80B582B0BB
:10B2940000AF0346FB7100F0E3FA07F10807BD466F
:10B2A40080BD00BF80B400AFBD4680BC704700BF06
:10B2B40080B483B000AF7860396007F10C07BD46F5
:10B2C40080BC704780B582B000AF03463960FB8014
:10B2D40000F0C6FA07F10807BD4680BD80B483B00C
:10B2E40000AFF871B9717A713B7107F10C07BD4673
:10B2F40080BC704780B483B000AF13460246FA8026
:10B304000A46BA807B8007F10C07BD4680BC7047B3
:10B3140080B483B000AF786007F10C07BD4680BCF1
:10B32400704700BF80B483B000AF0346FB7107F1E0
:10B334000C07BD4680BC704780B483B000AF0346A1
:10B34400FB7107F10C07BD4680BC704780B582B025
:10B3540000AF786039604FF00100FEF713FA7868A7
:10B364003968FEF7E1FA07F10807BD4680BD00BF62
:10B3740080B582B000AF786039604FF00100FEF70D
:10B384006FFA78683968FEF7CFFA07F10807BD4607
:10B3940080BD00BF80B584B000AFF860B9607A604A
:10B3A4003B604FF00100FEF75BFAF868B9687A6811
:10B3B4003B68FEF7D3FA07F11007BD4680BD00BF16
:10B3C40080B584B000AF0346FB714FF002033B73BA
:10B3D4004FF001037B73FB79BB7307F10C03184631
:10B3E4004FF00301FFF7B2FF07F11007BD4680BD20
:10B3F40080B584B000AF0346FB804FF003033B737A
:10B404004FF003037B73FB884FEA13239BB2DBB239
:10B41400BB73FB88DBB2FB7307F10C0318464FF0D8
:10B424000401FFF793FF07F11007BD4680BD00BF7D
:10B4340080B582B000AF4CF26843C0F2010307F15B
:10B4440004021B88138007F1040318464FF002011D
:10B45400FFF77CFF07F10807BD4680BD80B582B0C9
:10B4640000AF4CF26C43C0F2010307F104021B88E5
:10B47400138007F1040318464FF00201FFF766FF3B
:10B4840007F10807BD4680BD80B584B000AF024611
:10B494000B46FA80BB804FF005033B724FF00F035D
:10B4A4007B72FB88DBB2BB72FB884FEA13239BB22F
:10B4B400DBB2FB72BB88DBB23B73BB884FEA13235E
:10B4C4009BB2DBB27B7307F1080318464FF0060109
:10B4D400FFF73CFF07F11007BD4680BD80B584B07F
:10B4E40000AF0346FB714FF002033B734FF01103AF
:10B4F4007B73FB79BB7307F10C0318464FF0030110
:10B50400FFF724FF07F11007BD4680BD80B584B066
:10B5140000AF0346FB714FF002033B734FF012037D
:10B524007B73FB79BB7307F10C0318464FF00301DF
:10B53400FFF70CFF07F11007BD4680BD80B586B04C
:10B5440000AFF880B9807A803B804FF009033B73E9
:10B554004FF013037B73FB88DBB2BB73FB884FEAAA
:10B5640013239BB2DBB2FB73BB88DBB23B74BB8897
:10B574004FEA13239BB2DBB27B747B88DBB2BB74D0
:10B584007B884FEA13239BB2DBB2FB743B88DBB2AC
:10B594003B753B884FEA13239BB2DBB27B7507F103
:10B5A4000C0318464FF00A01FFF7D0FE07F1180705
:10B5B400BD4680BD80B584B000AF0346FB714FF03B
:10B5C40002033B734FF01F037B73FB79BB7307F1DB
:10B5D4000C0318464FF00301FFF7B8FE07F11007FC
:10B5E400BD4680BD80B586B000AF0346B9607A60C1
:10B5F400FB737B68DBB203F10203DBB23B754FF0F4
:10B6040015037B75FB7BBB7507F1140318464FF0DC
:10B614000301BA687B68FFF7BDFE07F11807BD4652
:10B6240080BD00BF80B584B000AF0346FB714FF00E
:10B6340002033B734FF016037B73FB79BB7307F173
:10B644000C0318464FF00301FFF792FE07F11007B1
:10B65400BD4680BD80B483B000AF03463960FB7142
:10B664004FF4C042C4F20002F9790B464FEAC30317
:10B674005B184FEA8303D31803F118035A683B6835
:10B6840022FA03F303F00103184607F10C07BD4641
:10B6940080BC704780B483B000AF03463960FB714F
:10B6A4004FF4C042C4F20002F9793B684FF0010044
:10B6B40000FA03F318460B464FEAC3035B184FEA3C
:10B6C4008303D31803F11003586007F10C07BD4638
:10B6D40080BC704780B483B000AF03463960FB710F
:10B6E4004FF4C042C4F20002F9793B684FF0010004
:10B6F40000FA03F318460B464FEAC3035B184FEAFC
:10B704008303D31803F11003186007F10C07BD4637
:10B7140080BC704780B500AF00F0DAF800F000FCA0
:10B7240080BD00BF80B582B002AF40F69413C2F270
:10B7340000034FF000021A6040F69813C2F20003AF
:10B744004FF000021A6040F69C13C2F200034FF05F
:10B7540000021A6040F6A013C2F200034FF0000288
:10B764001A6040F6A813C2F200034FF000004FF035
:10B774000001C3E9000140F6B013C2F200034FF028
:10B7840000004FF00001C3E9000140F6B813C2F213
:10B7940000034FF000021A7040F6BA13C2F200031D
:10B7A4004FF000021A8040F6BC13C2F200034FF0BF
:10B7B40000021A8040F6EC20C2F2000040F6C011EC
:10B7C400C2F200014FF4967201F0F0FD4FF4A5733C
:10B7D400009340F61830C2F2000044F22051C4F243
:10B7E4004C214FF0140240F62C33C2F2000301F056
:10B7F40087FF40F67843C2F200034FF000021A704C
:10B8040040F68843C2F200034FF000021A7040F67B
:10B814008943C2F200034FF000021A7040F68A43D3
:10B82400C2F200034FF000021A7040F68B43C2F2DA
:10B8340000034FF000021A704EF201004BF219712E
:10B84400C0F2000103F0AAF840F67C40C2F2000006
:10B854004CF21931C0F2000107F0F6FCBD4680BD80
:10B8640080B500AF4CF2CC60C0F201004FF0E401AF
:10B874004CF21472C0F2010201F0DCFC80BD00BF86
:10B8840080B500AF4FF4804003F0BAF880BD00BF2C
:10B8940080B500AF4FF4005003F0B2F880BD00BF94
:10B8A40080B500AF4FF003004FF00501FFF7F2FE43
:10B8B4004FF06400FCF784FF4FF003004FF00501E4
:10B8C400FFF708FF4FF06400FCF77AFF80BD00BF6C
:10B8D40080B594B000AF4FF003004FF00401FFF7C0
:10B8E400B9FE0346002B02D04FF000034BE040F2B8
:10B8F4005453C2F200031B68002B02D04FF0030321
:10B9040001E04FF001033B7440F23453C2F20003F0
:10B914007B614FF02003BB6140F25453C2F2000339
:10B924001B68FB6107F12C033B624FF020037B6231
:10B934004FF00203BB624FF002033B6007F11003B8
:10B944007B604FF00103BB604FF00003FB603B469C
:10B954004FF00110194604F047FB4FF0010004F0CA
:10B9640089FBFDF7A5FF97F82D30FB64FB6C002BDA
:10B9740007D007F12C0303F102031846F96CFFF713
:10B9840037FA4FF00103184607F15007BD4680BD52
:10B9940080B582B000AF4FF0011004F0E7FA4FF029
:10B9A40003004FF00301FFF775FE00BF4FF00300E3
:10B9B4004FF00401FFF74EFE0346002BF6D1FFF7CC
:10B9C40087FF0346FB71FB7983F00103DBB2002B95
:10B9D4000BD04CF2CC60C0F2010040F221114CF2C9
:10B9E4001872C0F2010201F025FC07F10807BD46F8
:10B9F40080BD00BF80B582B000AF786040F694137C
:10BA0400C2F200031A687B681A4340F69413C2F228
:10BA140000031A604FF4004002F0F2FF07F1080738
:10BA2400BD4680BD80B483B000AF78607B686FEAA8
:10BA3400030240F69413C2F200031B681A4040F656
:10BA44009413C2F200031A6007F10C07BD4680BCD0
:10BA5400704700BF80B582B000AF786040F698139D
:10BA6400C2F200031A687B681A4340F69813C2F2C4
:10BA740000031A604FF4004002F0C2FF07F1080708
:10BA8400BD4680BD80B483B000AF78607B686FEA48
:10BA9400030240F69813C2F200031B681A4040F6F2
:10BAA4009813C2F200031A6007F10C07BD4680BC6C
:10BAB400704700BF90B58BB000AFB5E140F694136A
:10BAC400C2F200031B6803F04003002B11D0FFF700
:10BAD400AFFC4FF04000FFF7A5FF40F6B813C2F2E9
:10BAE40000034FF001021A704FF2010002F09EFFB2
:10BAF4009AE140F69413C2F200031B6803F080033A
:10BB0400002B06D0FFF7AAFC4FF08000FFF78AFF56
:10BB14008AE140F69413C2F200031B6803F00103A8
:10BB2400002B02D000F058FA7EE140F69413C2F2E2
:10BB340000031B6803F00203002B10D04FF0000336
:10BB4400FB834FF4C863BB83FA8BBB8B1046194647
:10BB5400FFF79AFC4FF00200FFF764FF64E140F640
:10BB64009413C2F200031B6803F00403002B16D0E5
:10BB74004FF010037B834FF020033B834FF000030F
:10BB8400FB824FF41673BB82788B398BFA8ABB8A9B
:10BB9400FFF7D4FC4FF00400FFF744FF44E140F604
:10BBA4009413C2F200031B6803F00803002B60D057
:10BBB4004FF001037B624AE07B6AA3F120034FF05C
:10BBC400010202FA03F2796AC1F120014FF0010087
:10BBD40020FA01F14FF00004786A04FA00F00143FE
:10BBE400F960F968002BB4BF0B461346FB604FF0B5
:10BBF40001027B6A02FA03F3BB6040F6B013C2F29F
:10BC04000003D3E90001D7E9022302EA000203EAB0
:10BC1400010352EA030116D0D7E902236FEA0200B6
:10BC24006FEA030140F6B013C2F20003D3E9002324
:10BC340000EA020001EA030140F6B013C2F2000375
:10BC4400C3E9000106E07B6A03F101037B627B6ABE
:10BC54003E2BB1DD40F6B013C2F20003D3E900235A
:10BC640052EA030140F0E0804FF00800FFF7DAFEEB
:10BC7400DAE040F69413C2F200031B6803F01003E9
:10BC8400002B64D04FF001033B624FE03B6AA3F109
:10BC940020034FF0010202FA03F2396AC1F12001D4
:10BCA4004FF0010020FA01F14FF00004386A04FA61
:10BCB40000F0014379607968002BB4BF0B4613464A
:10BCC4007B604FF001023B6A02FA03F33B6040F6EB
:10BCD400A813C2F20003D3E90001D7E9002302EA62
:10BCE400000203EA010352EA03011BD03B6ADBB200
:10BCF4001846FFF75FFCD7E900236FEA02006FEAFA
:10BD0400030140F6A813C2F20003D3E9002300EABA
:10BD1400020001EA030140F6A813C2F20003C3E9DA
:10BD2400000106E03B6A03F101033B623B6A3E2BE0
:10BD3400ACDD40F6A813C2F20003D3E9002352EAB3
:10BD4400030171D14FF01000FFF76CFE6CE040F678
:10BD54009413C2F200031B6803F02003002B08D0E5
:10BD64004FF00100FFF7BAFB4FF02000FFF75AFE37
:10BD74005AE040F69413C2F200031B6803F4807384
:10BD8400002B08D04FF00200FFF71AFB4FF480702D
:10BD9400FFF748FE48E040F69413C2F200031B6824
:10BDA40003F40073002B18D040F6BA13C2F2000358
:10BDB4001B881846FFF71CFB4FF40070FFF732FE98
:10BDC40040F6BA13C2F200031B88B3F5404F2BD1DF
:10BDD4004FF48060FFF70EFE26E040F69413C2F2A3
:10BDE40000031B6803F48063002B08D04FF0FF00AE
:10BDF400FFF7E6FA4FF48060FFF714FE14E040F614
:10BE04009413C2F200031B6803F40063002B0BD0ED
:10BE140040F6BE13C2F200031B781846FFF776FB08
:10BE24004FF40060FFF7FEFD40F69413C2F20003E6
:10BE34001B68002B05D0FDF75FFC0346002B7FF445
:10BE44003DAE07F12C07BD4690BD00BF80B500AFE5
:10BE540010E040F69813C2F200031B6803F00103DC
:10BE6400002B07D04FF00200FFF7DCFB4FF001007E
:10BE7400FFF708FE40F69813C2F200031B68002B7C
:10BE840004D0FDF7A7FC0346002BE2D180BD00BF20
:10BE940080B483B000AF78607B684FF0010202FA8F
:10BEA40003F10A464FEAE27340F6A811C2F2000118
:10BEB400D1E9000102EA000203EA01031343002B63
:10BEC4000CBF00230123DBB2184607F10C07BD4663
:10BED40080BC704780B500AFFDF77CFC0346002BA7
:10BEE4001DD04FF00100FFF7D3FF0346002B16D0FF
:10BEF40040F61830C2F2000040F60431C2F20001EC
:10BF040001F054FC0346002B09D04FF0010040F629
:10BF14000431C2F200014FF01402FFF763FB80BD4D
:10BF240080B500AFFFF7C6FDFFF790FFFFF7D2FF24
:10BF340080BD00BF80B582B000AF13460246FA71DF
:10BF44000A46BA717B717A7940F69C13C2F20003F7
:10BF54001A60FB79022B1CD0032B0AD0012B28D1A9
:10BF64004FF00100FDF7D8FB4FF40070FFF742FDDE
:10BF74001FE04FF00100FDF7CFFB40F67843C2F21B
:10BF840000034FF000021A704FF00200FFF732FD79
:10BF94000FE04FF00100FDF7BFFB40F6A013C2F223
:10BFA40000034FF000021A604FF00100FFF722FD7A
:10BFB40000BF07F10807BD4680BD00BF80B485B04F
:10BFC40000AFBA607B600346FB730B46BB7307F19B
:10BFD4001407BD4680BC704780B584B000AF40F6FE
:10BFE400A013C2F200031B68102B27D84FF00100E6
:10BFF400FDF7C8FB40F6A013C2F200031A6813460B
:10C004004FEA43139B184CF29841C0F201015B18AC
:10C01400FB6002F1010240F6A013C2F200031A60B1
:10C02400FB6803F10103BB60BB681B7803F10103E8
:10C034007B60B8687968FDF777FC00E000BF07F122
:10C044001007BD4680BD00BF80B500AF40F68843F1
:10C05400C2F200034FF001021A704FF00100FFF723
:10C06400E1FC80BD80B584B000AFB9600146F973CE
:10C07400BA81FB8040F68943C2F200034FF001020B
:10C084001A704FF4805002F0BBFC40F69C13C2F2CD
:10C0940000031B681846FDF7ADFB40F6EC20C2F226
:10C0A400000001F0A5F94FF00400FFF7A3FC07F12D
:10C0B4001007BD4680BD00BF80B582B000AF024608
:10C0C4000B46FA71BB7144F22050C4F24C2007F0C5
:10C0D4004BFE40F69413C2F200034FF000021A60C4
:10C0E40040F69813C2F200034FF000021A6040F6C3
:10C0F400A813C2F200034FF000004FF00001C3E99F
:10C10400000140F6B013C2F200034FF000004FF0FC
:10C114000001C3E9000140F68943C2F200034FF075
:10C1240000021A7040F68A43C2F200034FF0000284
:10C134001A7040F68B43C2F200034FF000021A70EB
:10C144004FF4805002F05CFC4FF00000FDF752FB0E
:10C1540040F67843C2F200031B78012B08D0022B6F
:10C164000BD0002B0ED14FF00200FFF743FC09E087
:10C174004FF04000FFF73EFC04E04FF48070FFF7FF
:10C1840039FC00BF07F10807BD4680BD80B582B009
:10C1940000AF0346FB71FB791846FDF73BFB07F143
:10C1A4000807BD4680BD00BF80B584B000AFC7E9B5
:10C1B4000201C7E9002340F6A813C2F20003D7E93D
:10C1C4000201C3E9000140F6B013C2F20003D7E94B
:10C1D4000001C3E9000140F6B013C2F20003D3E941
:10C1E400002352EA030104D04FF00800FFF702FCD9
:10C1F40006E040F68A43C2F200034FF001021A70CF
:10C2040007F11007BD4680BD80B582B000AF7860ED
:10C21400396040F6EC20C2F2000079683A6801F017
:10C2240091F940F6EC20C2F2000001F0FBF803465D
:10C23400032B31D801A252F823F000BF9DC20000A5
:10C244009DC2000051C2000083C2000040F6EC23EE
:10C25400C2F200031A6840F6EC23C2F20003DB6862
:10C2640040F61830C2F2000011461A4602F0D4F823
:10C2740040F6EC20C2F2000001F0BAF80CE04CF2F7
:10C284001470C0F2010001F081F840F6EC20C2F213
:10C29400000001F0ADF800BF4FF00100FFF7DAFB3A
:10C2A40007F10807BD4680BD80B584B000AF0346E2
:10C2B400B9607A60FB7340F68B43C2F200034FF01F
:10C2C40001021A70FB7B022B04D1B8687968FFF76E
:10C2D4009BFF00BF07F11007BD4680BD80B400AFCF
:10C2E40040F6BC13C2F200031B881846BD4680BC4E
:10C2F400704700BF80B483B000AF0346FB8040F6B4
:10C30400BC13C2F20003FA881A8007F10C07BD4679
:10C3140080BC704780B500AF40F67C40C2F200009C
:10C3240007F0DEF840F6BA13C2F200034FF44042BD
:10C334001A804FF40070FFF75DFB80BD80B584B0B8
:10C3440000AF034607F1040080E80600FB8140F6D5
:10C35400BA13C2F20003FA891A8040F67843C2F293
:10C3640000034FF002021A704FF02000FFF742FB67
:10C374007B68002B09D040F67C40C2F2000007F134
:10C38400040393E8060007F04BF807F11007BD46D5
:10C3940080BD00BF80B582B000AF0346FB7140F69C
:10C3A400BE13C2F20003FA791A704FF40060FFF76B
:10C3B40021FB07F10807BD4680BD00BF80B400AF74
:10C3C40040F6BE13C2F200031B781846BD4680BC7B
:10C3D400704700BF80B400AF40F6B813C2F2000348
:10C3E4001B781846BD4680BC704700BF80B500AFBF
:10C3F40040F68943C2F200031B78002B0BD040F6B1
:10C404007843C2F200034FF001021A704FF020008B
:10C41400FFF7F0FA06E040F69413C2F200034FF07F
:10C4240040021A6080BD00BF80B500AF4FF201002A
:10C4340002F012FB4FF00100FDF76EF940F6B8135D
:10C44400C2F200034FF000021A704FF08000FFF7B1
:10C45400D1FA80BD80B584B000AF78607B6803F109
:10C46400FF1303F57F434FEA0323FB6007F10B033C
:10C47400F86819464FF0010207F018FBFB7AFE2B0F
:10C4840014BF00230123DBB2184607F11007BD4691
:10C4940080BD00BF80B584B000AF40F68C43C2F2CB
:10C4A40000034FF480621A6040F69043C2F2000326
:10C4B4004FF400521A6007F0E5F940F69443C2F2D3
:10C4C40000034FF0FF321A6040F69843C2F20003B3
:10C4D4004FF0FF321A6040F69443C2F200031B6827
:10C4E4001846FFF7B7FF0346002B0FD040F69043E2
:10C4F400C2F200031B6803F1FF331846FFF7AAFFDB
:10C504000346002B02D04FF0010301E04FF000037B
:10C51400FB71FB7903F00103FB71FB79002B43D022
:10C5240040F68C43C2F200031B68FB6033E0F868FA
:10C53400FFF790FF034683F00103DBB2002B0ED01C
:10C5440040F69843C2F200031B68B3F1FF3F1ED1CB
:10C5540040F69843C2F20003FA681A6017E040F606
:10C564009443C2F200031B68B3F1FF3F0FD140F6BE
:10C574009843C2F200031B68B3F1FF3F07D040F6B3
:10C584009443C2F20003FA681A6000BF4BE0FB68F0
:10C5940003F10103FB6040F69043C2F200031B6801
:10C5A400FA689A42C3D33EE040F68C43C2F20003D9
:10C5B4001B68BB602FE0B868FFF74CFF0346002BF5
:10C5C4000ED040F69443C2F200031B68B3F1FF3F60
:10C5D4001DD140F69443C2F20003BA681A6016E013
:10C5E40040F69843C2F200031B68B3F1FF3F0ED13B
:10C5F40040F69443C2F200031B68B3F1FF3F06D038
:10C6040040F69843C2F20003BA681A600BE0BB68B4
:10C6140003F10103BB6040F69043C2F200031B68C0
:10C62400BA689A42C7D340F69443C2F200031B6827
:10C63400B3F1FF3F13D140F68C43C2F200031A68F2
:10C6440040F69443C2F200031A6040F69443C2F2E7
:10C6540000031A6840F69843C2F200031A6007F018
:10C66400A7F907F11007BD4680BD00BF80B400AF35
:10C6740040F69443C2F200031A6840F69843C2F2AB
:10C6840000031B689A420BD840F69843C2F2000399
:10C694001A6840F69443C2F200031B68D31A16E0EA
:10C6A40040F69043C2F200031A6840F69443C2F283
:10C6B40000031B68D21A40F69843C2F200031968BB
:10C6C40040F69443C2F200031B68CB1AD3181846F1
:10C6D400BD4680BC704700BF80B582B000AF40F655
:10C6E4009443C2F200031B684FEA03237B6007F004
:10C6F400C9F807F067F94FF0FC03FB7007F1030377
:10C70400786819464FF0010207F08AF907F050F9EA
:10C7140040F69443C2F200031B6803F1010240F6A1
:10C724009443C2F200031A6040F69443C2F2000339
:10C734001A6840F69043C2F200031B689A4209D378
:10C7440040F68C43C2F200031A6840F69443C2F2E6
:10C7540000031A6007F10807BD4680BD80B5C8B064
:10C7640000AF07F10C03186007F10803196007F123
:10C7740004031A6007F104031B68F82B10D94CF268
:10C784002070C0F201004FF06A014CF26872C0F2EE
:10C79400010200F04FFD07F104034FF0F8021A60A4
:10C7A40007F070F840F69843C2F200031B684FEAA2
:10C7B4000323C7F81C3140F69843C2F200031B68F8
:10C7C40003F00F03002B53D107F11703D7F81C0113
:10C7D40019464FF0010207F069F907F117031B78B6
:10C7E400FF2B05D007F0EEF8D7F81C0107F0F4F89A
:10C7F40040F69843C2F200031A6840F69443C2F22A
:10C8040000031B689A4233D240F69843C2F20003F5
:10C814001B6803F1100240F69443C2F200031B6844
:10C824009A4225D940F69443C2F200031B6803F1EF
:10C8340010034FEA13134FEA031240F69443C2F273
:10C8440000031A6040F69443C2F200031A6840F6EB
:10C854009043C2F200031B689A4209D340F68C430A
:10C86400C2F200031A6840F69443C2F200031A604D
:10C8740007F118031A464FF4807310464FF0000175
:10C884001A460FF023FA07F118034FF0FE021A704C
:10C8940007F104031B68DAB207F118035A7007F1B1
:10C8A4000C031B68DAB207F118031A7107F10C03C1
:10C8B4001B684FEA1323DAB207F118035A7107F120
:10C8C4000C031B684FEA1343DAB207F118039A7199
:10C8D40007F10C031B684FEA1363DAB207F118037C
:10C8E400DA7107F1180303F1080107F1080207F1EF
:10C8F4000403084611681A680FF0C4F907F1040329
:10C904001B6803F1040307F1180202F104024FF655
:10C91400FF7011461A4600F0FBF80346A7F81A31D7
:10C92400B7F81A31DAB207F118039A70B7F81A3166
:10C934004FEA13239BB2DAB207F11803DA7007F057
:10C9440041F807F104031B6803F1080307F1180217
:10C95400D7F81C0111461A4607F062F807F028F8C8
:10C9640040F69843C2F200031B6803F1010240F64B
:10C974009843C2F200031A6040F69843C2F20003DF
:10C984001A6840F69043C2F200031B689A4209D326
:10C9940040F68C43C2F200031A6840F69843C2F290
:10C9A40000031A6040F69843C2F200031A6840F686
:10C9B4009443C2F200031B689A4201D1FFF78CFE34
:10C9C40007F59077BD4680BD80B5C6B000AF07F1CE
:10C9D4000C03186007F10803196007F104031A60D7
:10C9E40040F69443C2F200031A6840F69843C2F238
:10C9F40000031B689A4202D14FF000036CE007F178
:10CA040004031B68F82B04D907F104034FF0F80260
:10CA14001A6040F69443C2F200031A6807F10C034B
:10CA24001B681A6040F69443C2F200031B684FEA85
:10CA34000323C7F8143106F025FF07F11403D7F8D0
:10CA4400140119464FF4807207F030F806F0B0FF75
:10CA540007F114035B781A4607F10C031B689A80EC
:10CA640007F10C031B689B881A4607F104031B6833
:10CA74009A4207D907F104031B689AB207F10C0321
:10CA84001B689A8007F1140303F10203184600F0AF
:10CA940095F803461A4607F10C031B68DA8007F180
:10CAA400140303F10403184600F09EF8024607F14C
:10CAB4000C031B689A6007F10C031B689B8807F141
:10CAC400080107F1140202F10802086811461A4627
:10CAD4000FF0D8F84FF00103184607F58C77BD46E0
:10CAE40080BD00BF80B582B000AF78607B681A68F3
:10CAF40040F69443C2F200031B689A4202D1FFF746
:10CB0400EBFD00E000BF07F10807BD4680BD00BF94
:10CB140080B487B000AF0346B9607A60FB81FB89BB
:10CB2400FB82BA687B68D3183B612FE0FB8A4FEA2B
:10CB340013239BB29AB2FB8A4FEA03239BB213439B
:10CB44009BB2FB82BB681B781A46FB8A5340FB826C
:10CB5400FB8ADBB24FEA23139AB2FB8A53409BB29F
:10CB6400FB82FB8A4FEA03339AB2FB8A53409BB29F
:10CB7400FB82FB8ADBB24FEA43139AB2FB8A53402F
:10CB84009BB2FB82BB6803F10103BB60BA683B69DB
:10CB94009A42CBD3FB8A184607F11C07BD4680BCDA
:10CBA400704700BF80B483B000AF78607B681B78A7
:10CBB400184607F10C07BD4680BC704780B483B0AB
:10CBC40000AF78607B6803F101031B784FEA03230D
:10CBD4009AB27B681B7813439BB29BB2184607F149
:10CBE4000C07BD4680BC704780B483B000AF78604A
:10CBF4007B6803F103031B784FEA03627B6803F14C
:10CC040002031B784FEA03431A437B6803F10103D1
:10CC14001B784FEA03231A437B681B781343184697
:10CC240007F10C07BD4680BC704700BFB0B586B0A5
:10CC340000AF78607868FFF7D7FF01460A464FF0E7
:10CC44000003C7E904237B6803F108031846FFF7D0
:10CC5400CBFF01460A464FF00003C7E90223BB6835
:10CC64001D464FF00004D7E9042342EA040243EAD4
:10CC740005031046194607F11807BD46B0BD00BFAD
:10CC840080B584B000AF78607868FFF7ADFF0346E5
:10CC9400FB60FB68184607F11007BD4680BD00BF66
:10CCA40080B584B000AF786039603868FFF79CFFC6
:10CCB4000346BB603B6803F104031846FFF794FF87
:10CCC4000346FB607B6807F1080292E8030083E8EF
:10CCD4000300786807F11007BD4680BD80B483B0B7
:10CCE40000AF78600B46FB707B68FA781A7007F126
:10CCF4000C07BD4680BC704780B483B000AF786039
:10CD04000B467B807B88DAB27B681A707B6803F100
:10CD140001037A884FEA122292B2D2B21A7007F152
:10CD24000C07BD4680BC704780B483B000AF786008
:10CD340039603B68DAB27B681A707B6803F10103DF
:10CD44003A684FEA1222D2B21A707B6803F10203E6
:10CD54003A684FEA1242D2B21A707B6803F10303B5
:10CD64003A684FEA1262D2B21A7007F10C07BD4654
:10CD740080BC7047B0B584B000AFF860C7E9002349
:10CD84003B68F8681946FFF7CFFFFB6803F104021C
:10CD94007B681C464FF00005234610461946FFF7F2
:10CDA400C3FF07F11007BD46B0BD00BF80B584B016
:10CDB40000AF786039603B68FB60FB6878681946AF
:10CDC400FFF7B2FF07F11007BD4680BD80B584B000
:10CDD40000AFF86007F1040383E806007B68F86895
:10CDE4001946FFF7A1FFFB6803F10402BB68104674
:10CDF4001946FFF799FF07F11007BD4680BD00BF34
:10CE040080B485B000AFF860B9607A60FB68BA6836
:10CE14001A60FB687A685A60FB684FF000029A60F7
:10CE2400FB684FF00002DA6007F11407BD4680BCCE
:10CE3400704700BF80B483B000AF78607B685A68E5
:10CE44007B689B68D31A184607F10C07BD4680BC63
:10CE5400704700BF80B584B000AFF860B9607A60F5
:10CE6400FB681A68FB68DB68D318B86819467A68E7
:10CE74000EF008FFFB68DA687B68D218FB68DA609A
:10CE840007F11007BD4680BD80B584B000AF78605F
:10CE94007B681A687B68DB68D318FB607B68DB6897
:10CEA40003F101027B68DA60F868FFF77BFE034652
:10CEB400184607F11007BD4680BD00BF80B584B099
:10CEC40000AF78607B681A687B68DB68D318FB6006
:10CED4007B68DB6803F102027B68DA60F868FFF7BD
:10CEE4006DFE0346184607F11007BD4680BD00BF1E
:10CEF40080B584B000AF78607B681A687B68DB68B3
:10CF0400D318FB607B68DB6803F104027B68DA609A
:10CF1400F868FFF769FE0346184607F11007BD4697
:10CF240080BD00BF80B584B000AF78607B681A68AC
:10CF34007B68DB68D318FB607B68DB6803F1040261
:10CF44007B68DA60F868FFF79BFE0346184607F132
:10CF54001007BD4680BD00BF80B584B000AF7860C7
:10CF640039603B681A683B68DB68D318FB603B6830
:10CF7400DB6803F108023B68DA607B681846F968ED
:10CF8400FFF78EFE786807F11007BD4680BD00BF2D
:10CF940080B582B000AF786039607B689A683B687E
:10CFA400D2187B685B689A4202D84FF001030DE007
:10CFB4004CF26C70C0F201004FF082014CF2B0727E
:10CFC400C0F2010200F036F94FF00003184607F1F1
:10CFD4000807BD4680BD00BF80B584B000AFF860CF
:10CFE400B9607A60F8687968FFF7D2FF0346002BCE
:10CFF4000FD0FB681A68FB689B68D3181846B96899
:10D004007A680EF03FFEFB689A687B68D218FB686A
:10D014009A6007F11007BD4680BD00BF80B584B09B
:10D0240000AF78600B46FB7078684FF00101FFF7A2
:10D03400AFFF0346002B10D07B681A687B689B689F
:10D04400D318FB607B689B6803F101027B689A60DC
:10D05400FB78F8681946FFF741FE07F11007BD4653
:10D0640080BD00BF80B584B000AF78600B467B8084
:10D0740078684FF00201FFF78BFF0346002B10D0B6
:10D084007B681A687B689B68D318FB607B689B6825
:10D0940003F102027B689A607B88F8681946FFF7FF
:10D0A4002BFE07F11007BD4680BD00BF80B584B0DC
:10D0B40000AF7860396078684FF00401FFF768FFCB
:10D0C4000346002B0FD07B681A687B689B68D318D3
:10D0D400FB607B689B6803F104027B689A60F868D4
:10D0E4003968FFF721FE07F11007BD4680BD00BF78
:10D0F40080B586B000AFF860C7E90023F8684FF048
:10D104000801FFF745FF0346002B10D0FB681A689F
:10D11400FB689B68D3187B61FB689B6803F108027A
:10D12400FB689A607869D7E90023FFF723FE07F1CB
:10D134001807BD4680BD00BF80B584B000AF7860DD
:10D14400396078684FF00401FFF722FF0346002B93
:10D154000FD07B681A687B689B68D318FB607B6878
:10D164009B6803F104027B689A60F8683968FFF7EA
:10D174001DFE07F11007BD4680BD00BF80B586B017
:10D1840000AFF86007F1040383E80600F8684FF085
:10D194000801FFF7FDFE0346002B12D0FB681A6856
:10D1A400FB689B68D3187B61FB689B6803F10802EA
:10D1B400FB689A60786907F1040393E80600FFF7B7
:10D1C40005FE07F11807BD4680BD00BF80B400AF5F
:10D1D40040F69C43C2F200034FF000021A7040F67E
:10D1E4009D43C2F200034FF000021A70BD4680BC9A
:10D1F400704700BF80B483B000AF0346FB7140F6B4
:10D204009D43C2F20003FA791A7007F10C07BD4678
:10D2140080BC704780B483B000AF786040F69C4314
:10D22400C2F200034FF001021A7007F10C07BD4669
:10D2340080BC704780B5CCB000AF07F10C03186018
:10D2440007F10803196007F104031A6040F69D43CF
:10D25400C2F200031B7883F00103DBB2002B05D07C
:10D2640007F104031868FFF7D5FF8AE040F69C43F2
:10D27400C2F200034FF001021A7007F1180207F11D
:10D284002803104619464FF0F802FFF7B9FD07F5D9
:10D2940090731846FCF7FEFC07F11803184607F5CF
:10D2A400907393E80600FFF769FF07F10C031B680E
:10D2B400002B37D007F10C0318680EF03FFD03462E
:10D2C40007F1180107F10C02084611681A46FFF726
:10D2D40083FE07F1180318464FF02001FFF79EFE66
:10D2E40007F1100207F1080310464CF2B471C0F2C2
:10D2F40001011A680EF0B0FC07F1100318460EF095
:10D304001DFD034607F1180107F1100208461146F6
:10D314001A46FFF761FE07F1180318464FF0200183
:10D32400FFF77CFE07F1040318680EF007FDC7F849
:10D334002C0107F118031846FFF77CFDC7F82801F4
:10D34400D7F82C21D7F828319A4203D9D7F82831B5
:10D35400C7F82C3107F1180207F1040310461968C5
:10D36400D7F82C21FFF738FE07F118039B6807F163
:10D37400280244F24640C4F64C7011461A46FFF7A0
:10D38400EDF907F59877BD4680BD00BF80B582B042
:10D3940000AF78604FF000004FF000017A68FFF7AB
:10D3A40049FF07F10807BD4680BD00BF80B485B0C2
:10D3B40000AFF860B9607A60FB68BA681A60FB680D
:10D3C4007A685A60FB684FF000021A72FB684FF0EB
:10D3D4000002DA60FB684FF000021A61FB684FF04C
:10D3E40000025A6107F11407BD4680BC704700BFB4
:10D3F40080B483B000AF78607B684FF000021A728B
:10D404007B684FF00002DA607B684FF000021A611B
:10D414007B684FF000025A6107F10C07BD4680BCDF
:10D42400704700BF80B483B000AF78607B681B7A1C
:10D43400184607F10C07BD4680BC704780B483B022
:10D4440000AF78607B684FF003021A7207F10C0793
:10D45400BD4680BC704700BF80B586B000AFF860A1
:10D46400B9607A60FB685A697B68D3187B61FB6892
:10D47400DA687B699A4205D2FB68DA68FB685B6903
:10D48400D31A7B60FB681A68FB685B69D31818467B
:10D49400B9687A680EF0F6FBFB685A697B68D218A3
:10D4A400FB685A61FB685A69FB68DB689A4204D1DD
:10D4B400FB684FF002021A7205E0FB681B6903F176
:10D4C4000102FB681A6107F11807BD4680BD00BF61
:10D4D40080B584B000AFF860B9607A607B68012BD6
:10D4E40003D8F868FFF7AAFF27E0FB684FF00102B2
:10D4F4001A72B868FFF762FB03461A46FB68DA60E3
:10D50400FB684FF000021A61FB684FF000025A6199
:10D51400FB68DA68FB685B689A4203D9F868FFF72E
:10D524008DFF0AE0BB6803F102027B68A3F10203EA
:10D53400F86811461A46FFF78FFF07F11007BD463A
:10D5440080BD00BF80B586B000AFF860B9607A6076
:10D554007B68002B03D1F868FFF770FF2CE0BB68F1
:10D564001B78FB75FB7D002B12D1FB681B69002B1C
:10D5740002D0F868FFF762FFBB6803F101027B6821
:10D5840003F1FF33F86811461A46FFF7A1FF13E0D1
:10D59400FA7DFB681B699A4203D0F868FFF74EFFD7
:10D5A4000AE0BB6803F101027B6803F1FF33F8680A
:10D5B40011461A46FFF750FF07F11807BD4680BD14
:10D5C40080B483B000AF78607B684FF000021A60CB
:10D5D4007B684FF000021A717B684FF000029A607A
:10D5E4007B684FF00002DA607B684FF000021A613A
:10D5F40007F10C07BD4680BC704700BF80B485B0FE
:10D6040000AFF860B9607A60FB68BA681A60FB68BA
:10D614004FF001021A71FB687A689A60FB684FF058
:10D624000002DA60FB684FF000021A6107F1140788
:10D63400BD4680BC704700BF80B586B000AFF860BF
:10D64400B9607A60FB681B79012B02D04FF00003AC
:10D6540051E0FB68DB68DAB2BB681A704FF0010373
:10D664007B61FB68DB68002B12D1BB6803F101030B
:10D67400FA689268D2B21A70BB6803F10203FA68BE
:10D6840092684FEA1222D2B21A704FF003037B6100
:10D69400FB689A68FB681B69D31A3B617A687B69EB
:10D6A400D21A3B699A4203D27A687B69D31A3B61E6
:10D6B400FB681B68FA681169B8687A6982180846B9
:10D6C40011463A699847FB681A693B69D218FB68A6
:10D6D4001A61FB68DB6803F10102FB68DA60FB682E
:10D6E4009A68FB681B699A4203D1FB684FF00202F7
:10D6F4001A714FF00103184607F11807BD4680BDA3
:10D7040080B485B000AFF860B9607A603B60FB68B4
:10D71400BA681A60FB687A685A60FB683A689A606B
:10D72400FB68BA69DA60FB684FF000021A6107F11E
:10D734001407BD4680BC704780B582B000AF7860E6
:10D7440039607B681A697B685B68D2187B68DB6820
:10D754009A420CD94CF2B870C0F201004FF08B0120
:10D764004CF2FC72C0F20102FFF764FD1AE07B6820
:10D774009A687B681B69D2187B685B6838681146B5
:10D784001A46FFF759FF034683F00103DBB2002B6F
:10D7940007D17B681A697B685B68D2187B681A6159
:10D7A400CFE700BF07F10807BD4680BD80B582B052
:10D7B40000AF786039607B681B69002B02D14FF0A1
:10D7C40000031FE07B689A687B685B6838681146D1
:10D7D4001A460EF057FA7B681A697B685B68D21A9E
:10D7E4007B681A617B6899687B689A687B685B6868
:10D7F400D2187B681B69084611461A460EF042FA95
:10D804004FF00103184607F10807BD4680BD00BF6D
:10D8140080B400AFBFF34F8F4FF46D42CEF20002DD
:10D824004FF46D43CEF20003DB6803F4E0614FF084
:10D834000403C0F2FA530B43D360BFF34F8FFEE7E8
:10D8440080B500AF40F6A040C2F20000FFF7B8FE7A
:10D8540080BD00BF80B584B000AFF860B9607A6065
:10D86400FA6840F6B443C2F20003D318B868194604
:10D874007A680EF007FA07F11007BD4680BD00BFB5
:10D8840080B582B000AF78600B46FB7040F6E05084
:10D89400C2F2000040F6B441C2F200014FF49672A5
:10D8A400FFF7AEFAFB7840F6E050C2F200001946EA
:10D8B400FFF7B4FB40F6E053C2F20003184607F149
:10D8C4000807BD4680BD00BF80B582B000AF786058
:10D8D40040F6E053C2F200039B6840F6A040C2F257
:10D8E40000004DF65901C0F200011A46FFF786FE0A
:10D8F400786840F6A041C2F20001FFF71DFF07F16E
:10D904000807BD4680BD00BF80B58CB000AFF8608D
:10D91400B9607A6007F114031846B9687A68FFF7AA
:10D924006FFA07F114031846FFF7C8FA0346FB859C
:10D934007A693B6AD318BB62F8684FF00101FFF7BC
:10D944009FFF7862FB8D786A1946FFF78BFBFB8D8E
:10D95400786AB96A1A46FFF73FFBF868FFF7B4FF25
:10D9640007F13007BD4680BD80B483B000AF44F2F8
:10D974007F03C0F6E0737B607B681B683B603B6899
:10D9840003F00F030F2B0CBF00230123DBB2184657
:10D9940007F10C07BD4680BC704700BF80B582B05C
:10D9A40000AFFFF7E1FF034683F00103DBB2002B76
:10D9B40015D06FF00F037B60FAF7ACFC08F07CFA2B
:10D9C40007F1040344F27F00C0F6E07019464FF0FB
:10D9D40004020EF03FFC08F0F3FAFAF7A1FC07F199
:10D9E4000807BD4680BD00BF80B58EB000AFF860AB
:10D9F400B9607A6007F114031846B9687A68FFF7CA
:10DA0400FFF907F114031846FFF772FA786307F178
:10DA140014031846FFF752FA03463B637A693B6ADC
:10DA2400D318FB624FF07E63BB623B6B03F10303CD
:10DA340023F003037B62FAF76DFC08F03DFAB86A41
:10DA44000EF010FC7B6AB86AF96A1A460EF002FC02
:10DA540008F0B6FAFAF764FC7B6B03F00103002BC1
:10DA640001D0FFF79BFF7B6B03F00203002B01D077
:10DA7400FFF7CEFE07F13807BD4680BD80B58AB0FA
:10DA840000AFF860B9607A6007F114031846B9680A
:10DA94007A68FFF7B5F907F114031846FFF7F4F9AC
:10DAA400034687F8273097F82730184606F014F90C
:10DAB40007F12807BD4680BD80B582B000AF78600D
:10DAC40078684FF00101FFF7CDFA78684FF0000154
:10DAD400FFF7C8FA78684FF00C01FFF7C3FA7868CB
