:10800000D03200202D8200003F820000418200001B
:10801000438200004582000047820000000000000B
:108020000000000000000000000000004982000085
:108030004B820000000000004D8200004F820000D3
:108040001D660100ED41010055820000E1F50000D0
:10805000F1F50000519D01005D820000E5880000FF
:108060006182000063820000958B00003D420100A8
:10807000698200006B8200008D3E010001F6000065
:1080800011F6000073820000758200007782000004
:10809000798200007B8200007D8200007F820000E8
:1080A00081820000838200008582000087820000B8
:1080B000898200008B820000794B01008F820000D2
:1080C0009182000093820000958200009782000058
:0880D000998200009B82000070
:1080D8003449072291438D46334934480A1A06D059
:1080E8000722914381F30988022282F314883048D9
:1080F8003049314A00F043F830483149314A00F0FC
:108108003EF831483149324A00F039F831483249AD
:10811800324A00F034F832483249334A00F02FF836
:1081280032483349334A00F02AF833483349344A4D
:1081380000F025F833483449002200F02BF8334882
:108148003349002200F026F832483349091A082931
:1081580003DB00220260043001601F481F49884287
:1081680005D00268043003B4904703BCF7E7002049
:108178008646EC4600200021284A9047FEE78842C0
:1081880007D0521A05D0037801300B700131013A3B
:10819800F9D17047884202D002700130FAE770477F
:1081A8001F487047D0320020D0320020D032002043
:1081B800D4E701003C040020CC040020AC8200007D
:1081C800AC82000040DB010098E4010000010020BF
:1081D8003C04002040DB010040DB010040DB0100E3
:1081E80040DB010040DB010040DB010040DB010017
:1081F80040DB010098E4010064E80100CC040020A1
:10820800CC040020CC040020CC220020CC2200206A
:10821800D0220020D0220020D02200200984000093
:10822800FFFFFFFFDFF86CD01B4880471B481C4945
:108238000160FFF74DBFFEE7FEE7FEE7FEE7FEE75A
:10824800FEE7FEE7FEE7FEE7FEE7FEE7FEE7FEE7FE
:10825800FEE7FEE7FEE7FEE7FEE7FEE7FEE7FEE7EE
:10826800FEE7FEE7FEE7FEE7FEE7FEE7FEE7FEE7DE
:10827800FEE7FEE7FEE7FEE7FEE7FEE7FEE7FEE7CE
:10828800FEE7FEE7FEE7FEE7FEE7FEE7FEE7FEE7BE
:10829800FEE7FEE700800020C157010008ED00E07E
:0482A8000080000052
:1082AC0080B483B000AF03463960FB71FB79052BBA
:1082BC0003D83B680F2B00D800BF0948FA793B68FC
:1082CC00012101FA03F319461346DB0013449B000A
:1082DC000344103359600C37BD465DF8047B70477E
:1082EC000060004080B500AF06F0ECFA0DF098F895
:1082FC0001F028F80B4B0B4A126C42F00C021A647A
:10830C0000F092FA0CF08AFB00F0A0FD00F03CFFAC
:10831C00012007F057F800F0F7FB034B03221A611A
:10832C0080BD00BF00800C4000400C4080B500AF09
:10833C0000F010FC00F0FAFB012007F059F800F0F7
:10834C00F3FF00F077FA0CF071FB00F08DFD06F0F6
:10835C007BFA0DF06DF880BD80B500AF054B0122A6
:10836C001A70054B01221A70044B00221A7003F08C
:10837C00B5F980BDCC040020CD040020CE04002033
:10838C0080B500AF064B00221A70064B00221A7003
:10839C00054B00221A70FFF7C9FF03F0B5F980BD39
:1083AC00CC040020CD040020CE04002080B582B087
:1083BC0000AF0346FB710A4B1B78FA799A4200D145
:1083CC000AE0FB79012B02D1FFF7C6FF04E0FB7931
:1083DC00002B01D1FFF7D4FF0837BD4680BD00BF8D
:1083EC00CC04002080B400AF034B1B781846BD466C
:1083FC005DF8047B704700BFCC04002080B582B0D0
:10840C0000AF0CF055FC0CF013F80CF0CDFC604BED
:10841C0000221A705F4B00221A705F4B00221A70F8
:10842C0004F0A8F805F048FE0BF0CAFE0AF05CFB5D
:10843C000AF0BEFF04F0A0FB02200121FFF730FF81
:10844C0002200021FFF72CFF04200921FFF728FF51
:10845C0000200F21FFF724FF0CF0C2FC0CF090FA67
:10846C0000F058F900F0DAFE0CF0F4FD0CF0B8FC5A
:10847C0000F020FB00F06EFB06F0F0FC06F0F4FCC4
:10848C0000F05EFE0CF0ACFC06F02AFE012006F0BB
:10849C003BFF012006F0ACFF00F080FC00F0E4FC98
:1084AC0000F0EEFC02F0F6FB02F066FA3B461846D2
:1084BC0004F0AEFE78607B68002B04D03B68184655
:1084CC00796803F031F90AF08DFE03F075F906F0C6
:1084DC0013FA0CF085FC0CF0B1FF05F0CFFC05F0A5
:1084EC00C1FE06F04FF906F0AFF90BF03FFD0CF0B2
:1084FC0077FC00F019FF07F0DDFB05F05FFE254B64
:10850C001B78002B19D003F0C5F80346002B14D0B0
:10851C00204B00221A7000F0EFFE0346002B0CBF1C
:10852C0000230123DBB283F00103DBB203F0010370
:10853C00DAB2194B1A70FFF7D5FE154B1B78012BCD
:10854C0024D1144B1B7883F00103DBB2002B1DD01C
:10855C00114B1B7883F00103DBB2002B08D00F4BBF
:10856C009B6803F00203002B02D00B4B01221A7004
:10857C00094B1B78002B09D0084B9B6803F00103B7
:10858C00002B03D00020FFF711FFB6E7B5E700BFC3
:10859C00CC040020CD040020CE04002000400C4070
:1085AC0080B483B000AF0346FB71084B97F90720EA
:1085BC005209F97901F01F01012000FA01F143F889
:1085CC0022100C37BD465DF8047B704700E100E0DB
:1085DC0080B483B000AF0346FB71094B97F90720B9
:1085EC005209F97901F01F01012000FA01F1603202
:1085FC0043F822100C37BD465DF8047B704700BF72
:10860C0000E100E080B483B000AF78607B685B6A07
:10861C0018460C37BD465DF8047B704780B483B0B8
:10862C0000AF786039607B683A681A620C37BD46D7
:10863C005DF8047B704700BF80B483B000AF7860F6
:10864C0039607B685A693B681A437B685A610C37FE
:10865C00BD465DF8047B704780B483B000AF786092
:10866C007B689B6918460C37BD465DF8047B7047E8
:10867C0080B483B000AF78600B46FB70FA787B68EF
:10868C005A600C37BD465DF8047B704780B483B0EC
:10869C0000AF03463960FB71FB79052B03D83B68AF
:1086AC000F2B00D800BF0948FA793B68012101FA69
:1086BC0003F319461346DB0013449B0003441033A9
:1086CC0059600C37BD465DF8047B70470060004074
:1086DC0080B483B000AF03463960FB71FB79052B86
:1086EC0003D83B680F2B00D800BF0948FA793B68C8
:1086FC00012101FA03F319461346DB0013449B00D6
:10870C000344103319600C37BD465DF8047B704789
:10871C000060004080B500AF074B084A1A6000208B
:10872C00002100F0E5F80120002100F0E1F8022022
:10873C00002100F0DDF880BDE404002000002040A2
:10874C0090B583B000AF114B1B78FB71104B1B889D
:10875C001B099BB23B60FB79184612F0FFFF0446E5
:10876C000C4B1B683A68D31A184612F0F7FF0346F5
:10877C001846094913F0A0F903462046194613F090
:10878C0005F9034618460C37BD4690BDB281E00F83
:10879C00BE81E00FD0040020288A223E80B582B032
:1087AC0000AF104B1B68184612F0F0FF02460E4B40
:1087BC001B681046194613F07FF9034618460B49FF
:1087CC0013F07AF903467B607868094913F0E6FAEE
:1087DC000346002B01D0064B7B607B68184608379C
:1087EC00BD4680BDD4040020E40400208697023AE4
:1087FC006666864080B500AF084B1B68184612F0C1
:10880C00C5FF03461846064913F056F903461846A9
:10881C00044913F051F90346184680BDD8040020D2
:10882C00010AA0398A4B863D80B400AFBD465DF885
:10883C00047B704780B400AFBD465DF8047B704785
:10884C0080B582B000AF1D48FFF7DCFE78601C4B92
:10885C001B78DBB2012B07D0022B0DD0002B0FD1D4
:10886C00184B7A681A600BE005200221FFF70EFF07
:10887C00154B7A681A6003E0144B7A681A6000BFD3
:10888C0003200621002200230EF0B0F8032007215C
:10889C00002200230EF0AAF80D4B01221A70074893
:1088AC000121FFF7BBFE0720FFF792FE09480021CC
:1088BC000DF01EFB0837BD4680BD00BF00200040F8
:1088CC00DD040020D0040020D4040020D8040020B3
:1088DC00DC0400200002030080B500AFFFF7B0FFFE
:1088EC00024B1B68184605F057FC80BDE0040020C5
:1088FC0080B588B000AF02460B46FA71BB7149488F
:10890C0001210DF0F5FA00233B7600237B76002342
:10891C00BB761F23FB7600233B7700237B7700205D
:10892C000DF0B6F80346FB763F4800210DF07EF8BB
:10893C0003463B7700233B7300237B730023BB73FD
:10894C000023FB7300233B7400237B740023BB7454
:10895C000023FB7400233B7508237B73FB79012BED
:10896C000BD0022B1BD0002B27D10023BB73082369
:10897C003B742E4B20221A601FE00320062101229B
:10898C0000230EF033F805200221FFF7A1FE02238D
:10899C00BB7306233B74254B40221A600DE0032069
:1089AC000721012200230EF021F80023BB730723BB
:1089BC003B741E4B80221A6000BF07F118031C4841
:1089CC0019460CF0BBFF07F10C03194819460CF0C3
:1089DC00E5FF17480121FFF72FFEBB79002B02D0D2
:1089EC000720FFF7DDFD134BFA791A70124B0022AA
:1089FC001A700F480121FFF73BFEBB7983F001038E
:108A0C00DBB2002B0AD000BF0948FFF725FE034656
:108A1C0003F00103002BF7D0FFF712FF2037BD4600
:108A2C0080BD00BF00020300C0CF6A00E00400203C
:108A3C0000200040DD040020DC04002080B483B062
:108A4C0000AF0346FB71094B97F907205209F979DE
:108A5C0001F01F01012000FA01F1603243F82210ED
:108A6C000C37BD465DF8047B704700BF00E100E0A9
:108A7C0080B483B000AF03463960FB71FB79052BE2
:108A8C0003D83B680F2B00D800BF0948FA793B6824
:108A9C00012101FA03F319461346DB0013449B0032
:108AAC000344103319600C37BD465DF8047B7047E6
:108ABC000060004090B585B000AF0E4801210DF06C
:108ACC0017FA0D4B3C460FCB84E80F000B4B7B6029
:108ADC000B4BBB603B460B4819460EF0A1F8094BFB
:108AEC0040F203129A63074801210EF07BF8143709
:108AFC00BD4690BD00C2020040DB0100006CDC02F0
:108B0C003C6D010000A4004080B500AF054B002275
:108B1C009A63044800210EF065F8034800210DF01B
:108B2C00E7F980BD00A4004000C2020080B500AF90
:108B3C00064801210DF0DCF9054B40F203129A6353
:108B4C00034801210EF04EF880BD00BF00C20200A8
:108B5C0000A4004080B500AF01200B2108220123A6
:108B6C000DF044FF01200C21082201230DF03EFFE3
:108B7C0000200921FFF77CFF64200BF0C5FD0A20C3
:108B8C00FFF75CFF80BD00BF80B500AF03480EF05F
:108B9C0083F803461A46024B1A7080BD00A40040AD
:108BAC00E804002080B584B000AF78600023FB603F
:108BBC0039E0214879680EF095FA03461A461F4BA6
:108BCC001A700023BB6010E01B480EF065F80346DA
:108BDC001A461A4B1A70194B1B78DBB25BB2012B7D
:108BEC0000D007E0BB680133BB60BA6842F20F7378
:108BFC009A42E9D9114B1B78DBB25BB2B3F1FF3F60
:108C0C0003D1FB680133FB600DE00C4B1B78DBB22E
:108C1C00002B06D00A484B210A4A03F005FD00231D
:108C2C0005E0012303E0FB68042BC2D9002318469E
:108C3C001037BD4680BD00BF00A40040E8040020F2
:108C4C0050DB010094DB010080B588B000AF0B460F
:108C5C003A600246FA71BB71FB799BB2BB8104236B
:108C6C00FB81BB1D3B610123BB823B68BB610123C4
:108C7C00BB8307F10C031846FFF794FF0346184615
:108C8C002037BD4680BD00BF80B588B000AF13460D
:108C9C000246FA710A46BA717B71FB799BB2BB81B1
:108CAC000823FB81BB1D3B610123BB827B1DBB6188
:108CBC000123BB8307F10C031846FFF773FF034630
:108CCC0018462037BD4680BD80B58AB000AFBA606B
:108CDC007B600346FB730B46BB73FB7B9BB2BB8277
:108CEC000823FB8207F10E03BB610123BB83BB6826
:108CFC003B627B689BB2BB8407F114031846FFF7F9
:108D0C0051FF034618462837BD4680BD80B582B05A
:108D1C0000AF01233B6000237B6004483B4693E893
:108D2C00060009F0BFFF0837BD4680BDF0040020E7
:108D3C0080B586B002AF4FF48030AF2106F0F2FD63
:108D4C000346BB73BB7B03F01F03FB7319E0E823E3
:108D5C003B7307F10C023B1D062100914FF4803050
:108D6C001146012206F0A0FD0B4B1B68002B08D00E
:108D7C00094B1B68B888F9883A8900B209B212B25B
:108D8C009847FB7B5A1EFA73002BE0D1FFF7BEFF0E
:108D9C001037BD4680BD00BFEC04002080B582B00A
:108DAC0000AF1E4B00221A604FF480308F2106F06A
:108DBC00B9FD0346FB71FB79332B05D018488C2188
:108DCC00184A03F031FC25E04FF480302321A8220F
:108DDC0006F026FD4FF480302E21002206F020FDF7
:108DEC004FF480302E21902206F01AFD4FF4803083
:108DFC002221062206F014FD4FF48030242140225B
:108E0C0006F00EFD0420084905F08EF907480649C6
:108E1C0009F084FE0837BD4680BD00BFEC0400207D
:108E2C0098DB0100DCDB01003D8D0000F00400202C
:108E3C0080B483B000AF7860034B7A681A600C374B
:108E4C00BD465DF8047B7047EC04002080B500AF94
:108E5C00044809F079FF4FF480302021002206F0FD
:108E6C00DFFC80BDF004002080B500AFFFF74EFFA3
:108E7C004FF480302021372206F0D2FC80BD00BF99
:108E8C0080B483B000AF0E4B00221A600D4B002251
:108E9C001A600D4B00221A6000237B6007E00B4A1E
:108EAC007B68134400221A707B6801337B607B68FB
:108EBC001F2BF4DD0C37BD465DF8047B704700BFFB
:108ECC00FC040020000500202405002004050020DF
:108EDC0080B400AF034B1B681846BD465DF8047B9D
:108EEC00704700BFFC04002080B400AF054B1B682A
:108EFC00002B0CBF00230123DBB21846BD465DF8E6
:108F0C00047B7047FC04002080B582B000AF786011
:108F1C00034B7A681A6001F0ADFE0837BD4680BD80
:108F2C00FC04002080B582B000AF7860094B1A6851
:108F3C007B681A44074B1A60064B1B68012B04D93B
:108F4C0001F08CFE034B01221A6001F093FE0837EE
:108F5C00BD4680BDFC04002080B582B000AF7860B7
:108F6C000A4B1B687A689A4205D901F077FE074BC9
:108F7C0000221A6007E0054B1A687B68D21A034B73
:108F8C001A6001F077FE0837BD4680BDFC04002056
:108F9C0080B400AF034B1B681846BD465DF8047BDC
:108FAC00704700BF0005002080B400AF054B1B6864
:108FBC00002B0CBF00230123DBB21846BD465DF825
:108FCC00047B70470005002080B582B000AF78604C
:108FDC00034B7A681A6001F055FE0837BD4680BD18
:108FEC000005002080B582B000AF7860094B1A688C
:108FFC007B681A44074B1A60064B1B68022B04D97A
:10900C0001F02CFE034B02221A6001F03BFE0837E4
:10901C00BD4680BD0005002080B582B000AF7860F1
:10902C000A4B1B687A689A4205D901F017FE074B68
:10903C0000221A6007E0054B1A687B68D21A034BB2
:10904C001A6001F01FFE0837BD4680BD00050020E8
:10905C0080B483B000AF0B4B00221A6000237B60FE
:10906C0007E0094A7B68134400221A707B680133BD
:10907C007B607B681F2BF4DD0C37BD465DF8047BF1
:10908C00704700BF240500200405002080B582B085
:10909C0000AF786039600D4B1A683B681344202B85
:1090AC0002D901F0DBFD0EE0084B1A68084B1344A3
:1090BC00184679683A6813F031FB044B1A683B6820
:1090CC001A44024B1A600837BD4680BD24050020A7
:1090DC000405002080B582B000AF78603960084B81
:1090EC001B68002B01D001F0B9FDFFF7B1FF7868C8
:1090FC003968FFF7CBFF01F033FE0837BD4680BD62
:10910C002405002080B584B000AFF860B9607A60A7
:10911C003B600A4B1B68002B01D001F09FFDFFF751
:10912C0097FFF868B968FFF7B1FF78683968FFF7FF
:10913C00ADFF01F015FE1037BD4680BD24050020A3
:10914C0080B582B000AFBB1D1C2007211A46FFF76B
:10915C007BFD0346FB71FB7983F00103DBB2002B33
:10916C0000D00AE0BB79C42B05D005482D21054A57
:10917C0003F05AFA01E000F007F80837BD4680BD4D
:10918C00E0DB010028DC010080B582B000AF1C20C0
:10919C0011210022FFF778FD0346FB71FB7983F068
:1091AC000103DBB2002B05D00D484C210D4A03F016
:1091BC003BFA12E01C2010210022FFF765FD03464C
:1091CC00FB71FB7983F00103DBB2002B05D0044863
:1091DC005121044A03F028FA00BF0837BD4680BD70
:1091EC00E0DB010028DC010080B400AF0A49496CC7
:1091FC0008464FF00001030000220749096C08469D
:10920C004FF0000142EA000243EA010310461946FE
:10921C00BD465DF8047B7047B081E00FB0B586B0F9
:10922C0002AF234B00221A70224823494FF4C87214
:10923C0003F0A2FA4FF4C87300932048204940224F
:10924C00204B03F017FC204804F04CFF4FF48050E7
:10925C001E4904F069FFFFF7C7FFC7E902010023AD
:10926C007B601FE03B7A03F00F03FB70FB78092B4C
:10927C0003D8FB783033FB7002E0FB783733FB709C
:10928C00FB789AB212497B685B000B445A80D7E991
:10929C000223140944EA03741D09C7E902457B68DB
:1092AC0001337B607B680F2BDCD91037BD46B0BD1A
:1092BC00280500200007002070050020580700201A
:1092CC00204253556C0700203D940000719500001E
:1092DC003C04002080B400AF42F233331846BD4644
:1092EC005DF8047B704700BF80B400AF02231846C2
:1092FC00BD465DF8047B704780B500AF0EF0B8FE3C
:10930C000346002B0CBF00230123DBB2184680BDA3
:10931C0080B500AF0EF0ACFE0346052B14BF002346
:10932C000123DBB2184680BD80B500AF034B002291
:10933C001A7003480EF0AAFE80BD00BF6422002004
:10934C00FCDC010080B500AF0FF060F9014B01228D
:10935C001A7080BD6422002080B588B000AF7860A0
:10936C006FF00203FB617B681B78C3F34113DBB224
:10937C00002B51D17B681B78C3F3C013DBB2012BDC
:10938C004AD17B681B78C3F30403DBB2012B43D1B6
:10939C007B685B78062B3FD17B685B889BB21B0A92
:1093AC009BB2222B15D12023BB617B689A79DB7988
:1093BC001B021343FB82FA8ABB699A4238BF1346DD
:1093CC00002018491A4600230FF03AF90023FB61DC
:1093DC0021E07B685B889BB21B0A9BB2212B1AD1C4
:1093EC0011481249092213F099F909233B617B6852
:1093FC009A79DB791B021343FB81FA893B699A4208
:10940C00B8BF1346002008491A4600230FF018F97C
:10941C000023FB61FFE700BFFB6918462037BD4600
:10942C0080BD00BF40DC0100FC08002072DC0100A4
:10943C0080B500AF0FF0A0F80346184680BD00BF02
:10944C0080B582B000AF02460B46FA71BB7108487A
:10945C0009F0D8FFBB79052B02D1064803F0AAF915
:10946C004FF4C05004F098FE0837BD4680BD00BFD5
:10947C00204253550007002080B584B000AF03464E
:10948C00B9607A60FB734FF4805004F085FE97F955
:10949C000F3013F10B0F04D097F90F3013F10A0FA3
:1094AC0004D1234803F086F900233DE097F90F30EF
:1094BC00002B0AD01F4840F29B111F4A03F0B4F84E
:1094CC001B4803F077F900232EE019481B49BA68B2
:1094DC0003F00AFA164803F083F90346032B22D84B
:1094EC0001A252F823F000BF339500003395000021
:1094FC00059500001F9500000D4B1A680C4BDB689E
:10950C000F4811461A4603F05BFB094803F052F969
:10951C0009E008484FF4D571074A03F085F8044870
:10952C0003F048F900BF002318461037BD4680BD34
:10953C000007002018DD01005CDD01003005002073
:10954C005807002080B584B000AF0346B9607A603C
:10955C00FB734FF4805004F01FFE002318461037A5
:10956C00BD4680BD80B582B000AF0EF081FD0346D4
:10957C00052B00D038E001200EF05EFD034683F091
:10958C000103DBB2002B10D0012019494022194BEA
:10959C000EF078FF78607B68002B05D0164B1B68AB
:1095AC005A1C154B1A6004E003E04FF4805004F091
:1095BC00E5FD81200EF040FD034683F00103DBB294
:1095CC00002B0DD00D480E4903F0A8FA0346002BD2
:1095DC000AD081200A4940220A4B0FF031F803E0EF
:1095EC004FF4805004F0CAFD0837BD4680BD00BF63
:1095FC0030050020859400002C0500205807002021
:10960C00180700205195000080B584B000AF0346C8
:10961C00B9607A60FB73FB7B184600F0C9FD10370C
:10962C00BD4680BD80B586B000AF0346B9607A6098
:10963C00FB73FB7B002B04D0FB7B184600F0C2FDB8
:10964C001FE07B68022B02D001F008FB19E0BB681D
:10965C001B781B029AB2BB6801331B7813439BB275
:10966C00FB82FB8A1BB2002B07DBFB8A03F0010396
:10967C00002B02D000F0B0FD03E0FB8A184601F08D
:10968C00A5FF1837BD4680BD80B584B000AF03463A
:10969C00B9607A60FB73FB7B002B04D0FB7B184614
:1096AC0000F0A0FD01E000F0A7FD1037BD4680BD25
:1096BC0080B584B000AF0346B9607A60FB73FB7B66
:1096CC00012B02D0022B03D005E001F00BFE07E0CA
:1096DC0001F032FE04E0FB7B184600F093FD00BF66
:1096EC001037BD4680BD00BF80B588B000AF0346C3
:1096FC00B9607A60FB73FB7B012B02D0022B10D07C
:10970C0012E0BB681B78FB77BB680133BB617B68DD
:10971C00013B7B61FB7F1846B9697A6900F086FDD5
:10972C0007E000F08FFD04E0FB7B184600F074FDB1
:10973C0000BF2037BD4680BD80B584B000AF034666
:10974C00B9607A60FB73FB7B012B02D0022B03D038
:10975C0005E000F087FD07E000F08AFD04E0FB7BEC
:10976C00184600F075FD00BF1037BD4680BD00BF28
:10977C0080B58AB002AF0346B9607A60FB73FB7B9D
:10978C00002B04D0FB7B184600F078FD1EE0B86877
:10979C0002F0FEFB0346FB83BB689B787B77BB68C0
:1097AC00DB783B77BB680433184602F005FCB861E4
:1097BC00BB681B7AFB75F98B7A7F3B7FF87D009039
:1097CC00084611461A46BB6900F062FD2037BD46BB
:1097DC0080BD00BF80B586B000AF0346B9607A602B
:1097EC00FB73FB7B002B04D0FB7B184600F060FD69
:1097FC0009E0BB687B61BB689B79FB74FB7C786977
:10980C00194600F05FFD1837BD4680BD80B586B0A7
:10981C0000AF0346B9607A60FB73FB7B002B04D06E
:10982C00FB7B184600F05AFD12E0B86802F0B0FB62
:10983C000346FB82FB8A184611F090FF034618463C
:10984C00054912F039F903463B61386900F050FDC7
:10985C001837BD4680BD00BFAE47614080B586B0AD
:10986C0000AF0346B9607A60FB73FB7B002B04D01E
:10987C00FB7B184600F046FD14E0B86802F088FB4C
:10988C000346FB82B7F91630184611F067FF034602
:10989C0018464FF07A5112F00FF903463B613869C4
:1098AC0000F03AFD1837BD4680BD00BF80B584B0CE
:1098BC0000AF0346B9607A60FB73FB7B002B04D0CE
:1098CC00FB7B184601F0F2FE01E001F001FF1037BE
:1098DC00BD4680BD80B584B000AF0346B9607A60E8
:1098EC00FB73FB7B002B04D0FB7B184600F01EFDAA
:1098FC0001E000F025FD1037BD4680BD80B584B079
:10990C0000AF0346B9607A60FB73FB7B002B04D07D
:10991C00FB7B184600F01AFD01E000F021FD10372A
:10992C00BD4680BD80B584B000AF0346B9607A6097
:10993C00FB73FB7B002B04D0FB7B184600F016FD61
:10994C0001E000F01DFD1037BD4680BD80B584B030
:10995C0000AF0346B9607A60FB73FB7B002B04D02D
:10996C00FB7B184600F012FD01E000F019FD1037EA
:10997C00BD4680BD80B584B000AF0346B9607A6047
:10998C00FB73FB7B002B04D0FB7B184600F00EFD19
:10999C0001E000F015FD1037BD4680BD80B584B0E8
:1099AC0000AF0346B9607A60FB73FB7B002B04D0DD
:1099BC00FB7B184600F00AFD01E000F011FD1037AA
:1099CC00BD4680BD80B584B000AF0346B9607A60F7
:1099DC00FB73FB7B002B04D0FB7B184600F006FDD1
:1099EC0001E000F00DFD1037BD4680BD80B584B0A0
:1099FC0000AF0346B9607A60FB73FB7B002B04D08D
:109A0C00FB7B184600F002FD01E000F009FD103769
:109A1C00BD4680BD80B584B000AF0346B9607A60A6
:109A2C00FB73FB7B002B04D0FB7B184600F0FEFC89
:109A3C0001E000F005FD1037BD4680BD80B584B057
:109A4C0000AF0346B9607A60FB73FB7B002B04D03C
:109A5C00FB7B184600F0FAFC01E000F001FD10372A
:109A6C00BD4680BD80B584B000AF0346B9607A6056
:109A7C00FB73FB7B002B04D0FB7B184600F0F6FC41
:109A8C0001E000F0FDFC1037BD4680BD80B584B010
:109A9C0000AF0346B9607A60FB73FB7B002B04D0EC
:109AAC00FB7B184600F0F2FC01E000F0F9FC1037EB
:109ABC00BD4680BD80B584B000AF0346B9607A6006
:109ACC00FB73FB7B002B04D0FB7B184600F0EEFCF9
:109ADC0001E000F0F5FC1037BD4680BD80B584B0C8
:109AEC0000AF0346B9607A60FB73FB7B002B04D09C
:109AFC00FB7B184600F0EAFC01E000F0F1FC1037AB
:109B0C00BD4680BD80B584B000AFBA607B600346B3
:109B1C00FB730B46BB73FB7B052B02D00120FFF7BD
:109B2C0001FAFB7B013B1E2B00F2F18001A252F8E3
:109B3C0023F000BFBD9B00001B9D0000CB9B0000D1
:109B4C001B9D0000D99B0000E79B0000F59B0000CB
:109B5C00039C0000119C00001F9C00002D9C000029
:109B6C003B9C00000D9D0000499C0000579C000090
:109B7C00659C0000739C0000819C00008F9C000081
:109B8C009D9C00001B9D00001B9D00001B9D000068
:109B9C001B9D0000AB9C0000B99C0000C79C000002
:109BAC00D59C0000E39C0000F19C0000FF9C000091
:109BBC00BB7B1846B9687A68FFF726FDAAE0BB7B29
:109BCC001846B9687A68FFF72DFDA3E0BB7B1846F1
:109BDC00B9687A68FFF758FD9CE0BB7B1846B968FA
:109BEC007A68FFF765FD95E0BB7B1846B9687A6823
:109BFC00FFF77AFD8EE0BB7B1846B9687A68FFF7F1
:109C0C009BFD87E0BB7B1846B9687A68FFF7B0FD0F
:109C1C0080E0BB7B1846B9687A68FFF7DBFD79E01A
:109C2C00BB7B1846B9687A68FFF7F0FD72E0BB7B26
:109C3C001846B9687A68FFF711FE6BE0BB7B1846D3
:109C4C00B9687A68FFF732FE64E0BB7B1846B968E6
:109C5C007A68FFF73FFE5DE0BB7B1846B9687A680F
:109C6C00FFF74CFE56E0BB7B1846B9687A68FFF7E5
:109C7C0059FE4FE0BB7B1846B9687A68FFF766FE61
:109C8C0048E0BB7B1846B9687A68FFF773FE41E081
:109C9C00BB7B1846B9687A68FFF780FE3AE0BB7B5D
:109CAC001846B9687A68FFF78DFE33E0BB7B18461F
:109CBC00B9687A68FFF79AFE2CE0BB7B1846B96846
:109CCC007A68FFF7A7FE25E0BB7B1846B9687A686F
:109CDC00FFF7B4FE1EE0BB7B1846B9687A68FFF745
:109CEC00C1FE17E0BB7B1846B9687A68FFF7CEFE59
:109CFC0010E0BB7B1846B9687A68FFF7DBFE09E019
:109D0C00BB7B1846B9687A68FFF7E8FE02E000F002
:109D1C00A5FF00BF1037BD4680BD00BF80B584B025
:109D2C0000AF786039603B68042B02D000F096FFDE
:109D3C0010E07B685B78FB737B689B78BB737B68FC
:109D4C00DB787B73F97BBA7B7B7B084611461A4622
:109D5C0001F07CFA1037BD4680BD00BF80B582B0E3
:109D6C0000AF786039607B685A1C3B68013B104639
:109D7C00194600F0BBFB0837BD4680BD80B584B0EA
:109D8C0000AF786039607B680133184602F000F947
:109D9C000346FB817B680333BB60FB891846B968BB
:109DAC0000F0AEFB1037BD4680BD00BF80B586B05D
:109DBC0000AF786039603B68022B02D800F04EFF90
:109DCC0013E07B685B78FB757B689B78BB757B6865
:109DDC0003333B613B68033BFB60FA7DBB7D104664
:109DEC0019463A69FB68FFF78DFE1837BD4680BDF2
:109DFC0080B588B002AF786039603B680F2B02D019
:109E0C0000F02CFF28E07B685B78FB757B680233E5
:109E1C003B617B680833184602F0BAF80346FB81B5
:109E2C007B680A33184602F0B3F80346BB817B68A3
:109E3C000C33184602F0ACF803467B817B689B7BA5
:109E4C007B72F97DFA89BB8978890090787A0190C8
:109E5C000846396901F080FA1837BD4680BD00BF4D
:109E6C0080B584B000AF786039603B68032B02D0BA
:109E7C0000F0F4FE0BE07B685B78FB737B689B78EF
:109E8C00BB73FA7BBB7B1046194601F0A7FA10375F
:109E9C00BD4680BD90B587B002AF786039603B6835
:109EAC00072B02D000F0DAFE1BE07B685B78FB73BB
:109EBC007B689B78BB737B68DB787B737B681B79D7
:109ECC003B737B685B79FB727B689B79BB72F87B1D
:109EDC00B97B7A7B3B7BFC7A0094BC7A019400F0D2
:109EEC001BFB1437BD4690BD80B586B000AF7860C3
:109EFC0039603B68112B02D000F0B0FE13E07B6898
:109F0C000133184602F074F8C7E904017B68093381
:109F1C00184602F06DF8C7E90201D7E90401D7E948
:109F2C00022301F0C5FA1837BD4680BD80B584B058
:109F3C0000AF786039603B68072B02D000F08EFED2
:109F4C001CE07B680133184602F022F80346FB81C3
:109F5C007B680333184602F01BF80346BB817B6811
:109F6C000533184602F014F803467B81F989BA8947
:109F7C007B89084611461A4601F012FA1037BD4685
:109F8C0080BD00BF80B584B000AF786039603B689D
:109F9C00072B02D000F062FE05E07B680133FB600A
:109FAC00F86800F0C5FA1037BD4680BD80B584B0A6
:109FBC0000AF786039603B68022B02D000F04EFE97
:109FCC0006E07B685B78FB73FB7B184600F0BAFA03
:109FDC001037BD4680BD00BF80B584B000AF78603F
:109FEC0039603B68022B02D000F038FE06E07B683B
:109FFC005B78FB73FB7B184601F04EFA1037BD46BD
:10A00C0080BD00BF80B586B000AF786039603B681A
:10A01C00022B02D800F022FE13E07B685B78FB7504
:10A02C007B689B78BB757B6803333B613B68033B68
:10A03C00FB60FA7DBB7D104619463A69FB6801F05E
:10A04C0043F91837BD4680BD80B586B000AF786047
:10A05C0039603B68012B02D800F000FE0EE07B68F3
:10A06C005B78FB757B6802333B613B68023BFB60B2
:10A07C00FB7D18463969FA6801F084FA1837BD4639
:10A08C0080BD00BF80B584B000AF786039603B689C
:10A09C00022B02D000F0E2FD06E07B685B78FB73DC
:10A0AC00FB7B184600F058FA1037BD4680BD00BF48
:10A0BC0080B584B000AF786039607B681B78FB7327
:10A0CC00FB7B813B0E2B6CD801A252F823F000BF16
:10A0DC0019A1000023A100002DA1000037A1000050
:10A0EC0041A100004BA1000055A100005FA10000A0
:10A0FC0069A1000087A10000A5A100009BA10000A0
:10A10C0091A1000073A100007DA10000786839685E
:10A11C00FFF704FE48E078683968FFF71FFE43E05C
:10A12C0078683968FFF72AFE3EE078683968FFF7EF
:10A13C003DFE39E078683968FFF75AFE34E07868FC
:10A14C003968FFF78DFE2FE078683968FFF7A2FEBB
:10A15C002AE078683968FFF7C7FE25E07868396827
:10A16C00FFF7E4FE20E078683968FFF70BFF1BE08F
:10A17C0078683968FFF71AFF16E078683968FFF7D6
:10A18C002BFF11E078683968FFF73CFF0CE078682A
:10A19C003968FFF759FF07E078683968FFF772FFF5
:10A1AC0002E000F05BFD00BF1037BD4680BD00BF74
:10A1BC0080B582B000AF0346FB7100F04FFD08374D
:10A1CC00BD4680BD80B582B000AF0346FB7100F088
:10A1DC0045FD0837BD4680BD80B500AF00F03EFDA3
:10A1EC0080BD00BF80B582B000AF0346FB7100F0AC
:10A1FC0035FD0837BD4680BD80B400AFBD465DF867
:10A20C00047B704780B582B000AF0346FB7100F051
:10A21C0025FD0837BD4680BD80B582B000AF034632
:10A22C00FB7100F01BFD0837BD4680BD80B485B0C6
:10A23C0000AFF860B9607A601437BD465DF8047BF6
:10A24C00704700BF80B400AFBD465DF8047B70471B
:10A25C0080B582B000AF0346FB7100F0FFFC0837FD
:10A26C00BD4680BD80B400AFBD465DF8047B704731
:10A27C0080B400AFBD465DF8047B704780B582B0FA
:10A28C0000AF0346FB7100F0E9FC0837BD4680BD0A
:10A29C0080B483B000AF3B600346FB800B467B7100
:10A2AC0013463B710C37BD465DF8047B704700BF0D
:10A2BC0080B582B000AF0346FB7100F0CFFC0837CD
:10A2CC00BD4680BD80B483B000AF78600B46FB7098
:10A2DC000C37BD465DF8047B704700BF80B582B07B
:10A2EC0000AF0346FB7100F0B9FC0837BD4680BDDA
:10A2FC0080B483B000AF78600C37BD465DF8047B4A
:10A30C00704700BF80B582B000AF0346FB7100F010
:10A31C00A5FC0837BD4680BD80B483B000AF786023
:10A32C000C37BD465DF8047B704700BF80B582B02A
:10A33C0000AF0346FB7100F091FC0837BD4680BDB1
:10A34C0080B400AFBD465DF8047B704780B582B029
:10A35C0000AF0346FB7100F081FC0837BD4680BDA1
:10A36C0080B400AFBD465DF8047B704780B582B009
:10A37C0000AF0346FB7100F071FC0837BD4680BD91
:10A38C0080B400AFBD465DF8047B704780B582B0E9
:10A39C0000AF0346FB7100F061FC0837BD4680BD81
:10A3AC0080B400AFBD465DF8047B704780B582B0C9
:10A3BC0000AF0346FB7100F051FC0837BD4680BD71
:10A3CC0080B400AFBD465DF8047B704780B582B0A9
:10A3DC0000AF0346FB7100F041FC0837BD4680BD61
:10A3EC0080B400AFBD465DF8047B704780B582B089
:10A3FC0000AF0346FB7100F031FC0837BD4680BD51
:10A40C0080B400AFBD465DF8047B704780B582B068
:10A41C0000AF0346FB7100F021FC0837BD4680BD40
:10A42C0080B400AFBD465DF8047B704780B582B048
:10A43C0000AF0346FB7100F011FC0837BD4680BD30
:10A44C0080B400AFBD465DF8047B704780B582B028
:10A45C0000AF0346FB7100F001FC0837BD4680BD20
:10A46C0080B400AFBD465DF8047B704780B582B008
:10A47C0000AF0346FB7100F0F1FB0837BD4680BD11
:10A48C0080B400AFBD465DF8047B704780B582B0E8
:10A49C0000AF0346FB7100F0E1FB0837BD4680BD01
:10A4AC0080B400AFBD465DF8047B704780B582B0C8
:10A4BC0000AF0346FB7100F0D1FB0837BD4680BDF1
:10A4CC0080B400AFBD465DF8047B704780B582B0A8
:10A4DC0000AF0346FB7100F0C1FB0837BD4680BDE1
:10A4EC0080B400AFBD465DF8047B704780B483B088
:10A4FC0000AF786039600C37BD465DF8047B70475F
:10A50C0080B582B000AF03463960FB8000F0A6FB3B
:10A51C000837BD4680BD00BF80B483B000AFF87172
:10A52C00B9717A713B710C37BD465DF8047B70478D
:10A53C0080B483B000AF78600C37BD465DF8047B07
:10A54C00704700BF80B483B000AF0346FB710C377B
:10A55C00BD465DF8047B704780B483B000AF034602
:10A56C00FB710C37BD465DF8047B704780B582B03B
:10A57C0000AF786039600120FEF7EEFC786839682E
:10A58C00FEF7A8FD0837BD4680BD00BF80B584B07E
:10A59C0000AFF860B9607A603B600120FEF7DCFC2C
:10A5AC00F868B9687A683B68FEF7ACFD1037BD46B1
:10A5BC0080BD00BF80B582B000AF786039600120EB
:10A5CC00FEF72AFD78683968FEF784FD0837BD462A
:10A5DC0080BD00BF80B584B000AFF860B9607A6010
:10A5EC003B600120FEF718FDF868B9687A683B6893
:10A5FC00FEF788FD1037BD4680BD00BF80B584B026
:10A60C0000AF0346FB7102233B7301237B73FB7981
:10A61C00BB7307F10C0318460321FFF7A7FF103794
:10A62C00BD4680BD80B584B000AF0346FB800323DC
:10A63C003B7303237B73FB881B0A9BB2DBB2BB739C
:10A64C00FB88DBB2FB7307F10C0318460421FFF700
:10A65C008DFF1037BD4680BD80B582B000AF064A75
:10A66C003B1D12881A803B1D18460221FFF77EFF06
:10A67C000837BD4680BD00BF60DD010080B582B0EB
:10A68C0000AF064A3B1D12881A803B1D184602215A
:10A69C00FFF76CFF0837BD4680BD00BF64DD0100CD
:10A6AC0080B582B000AF064A3B1D12881A803B1D54
:10A6BC0018460221FFF75AFF0837BD4680BD00BF80
:10A6CC007CDD010080B584B000AF02460B46FA80F9
:10A6DC00BB8005233B720F237B72FB88DBB2BB7202
:10A6EC00FB881B0A9BB2DBB2FB72BB88DBB23B73F1
:10A6FC00BB881B0A9BB2DBB27B7307F108031846BD
:10A70C000621FFF733FF1037BD4680BD80B584B0FE
:10A71C0000AF0346FB7102233B7311237B73FB7960
:10A72C00BB7307F10C0318460321FFF71FFF10370B
:10A73C00BD4680BD80B584B000AF0346FB710223DB
:10A74C003B7312237B73FB79BB7307F10C03184625
:10A75C000321FFF70BFF1037BD4680BD80B586B0D7
:10A76C0000AFF880B9807A803B8009233B731323B8
:10A77C007B73FB88DBB2BB73FB881B0A9BB2DBB21F
:10A78C00FB73BB88DBB23B74BB881B0A9BB2DBB28E
:10A79C007B747B88DBB2BB747B881B0A9BB2DBB2FD
:10A7AC00FB743B88DBB23B753B881B0A9BB2DBB26C
:10A7BC007B7507F10C0318460A21FFF7D7FE1837F3
:10A7CC00BD4680BD80B584B000AF0346FB7102234B
:10A7DC003B731F237B73FB79BB7307F10C03184688
:10A7EC000321FFF7C3FE1037BD4680BD80B586B090
:10A7FC0000AF0346B9607A60FB737B68DBB202334F
:10A80C00DBB23B750D237B75FB7BBB7507F114032A
:10A81C0018460321BA687B68FFF7B8FE1837BD46A7
:10A82C0080BD00BF80B586B000AF0346B9607A60CA
:10A83C00FB737B68DBB20233DBB23B7515237B7594
:10A84C00FB7BBB7507F1140318460321BA687B68C0
:10A85C00FFF7C0FE1837BD4680BD00BF80B584B081
:10A86C0000AF0346FB7102233B7316237B73FB790A
:10A87C00BB7307F10C0318460321FFF79BFE10373F
:10A88C00BD4680BD80B483B000AF03463960FB7118
:10A89C00FB79052B03D83B680F2B00D800BF0A4966
:10A8AC00FA791346DB0013449B000B4418335A68A7
:10A8BC003B6822FA03F303F0010318460C37BD463C
:10A8CC005DF8047B704700BF0060004080B483B02B
:10A8DC0000AF03463960FB71FB79052B03D83B684D
:10A8EC000F2B00D800BF0948FA793B68012101FA07
:10A8FC0003F319461346DB0013449B000344103347
:10A90C0059600C37BD465DF8047B70470060004011
:10A91C0080B483B000AF03463960FB71FB79052B23
:10A92C0003D83B680F2B00D800BF0948FA793B6865
:10A93C00012101FA03F319461346DB0013449B0073
:10A94C000344103319600C37BD465DF8047B704727
:10A95C000060004080B500AF012004F0ADFC034660
:10A96C0083F00103DBB2002B00D003E000F0A4F96C
:10A97C0000F062FC80BD00BF80B582B002AF314BED
:10A98C0000221A60304B00221A60304B00221A60F1
:10A99C002F4B00221A602F494FF000024FF000039A
:10A9AC00C1E900232C494FF000024FF00003C1E92C
:10A9BC0000232A4B00221A70294B00221A80294BA3
:10A9CC0000221A80284829494FF4C87201F0D4FE9D
:10A9DC004FF4C8730093264826491422264B02F0E4
:10A9EC0049F8264B00221A70254B00221A70254B71
:10A9FC0000221A70244B00221A70244B00221A7069
:10AA0C00234B00221A70234B00221A702248234930
:10AA1C00072211F083FE224B07221A70214B0022D1
:10AA2C001A80214B00221A80204B00221A802048C9
:10AA3C00204903F079FB2048204908F06FF8BD4607
:10AA4C0080BD00BF080900200C090020100900205F
:10AA5C0014090020180900202009002028090020D2
:10AA6C002A0900202C090020C00A002030090020EF
:10AA7C00EC0A002020454C42000B0020900C0020DA
:10AA8C00A00C0020A10C0020A20C0020A30C002084
:10AA9C00A40C0020A50C0020A80C0020C4DF010091
:10AAAC00B00C0020B20C0020B40C0020B60C00201E
:10AABC0001C0010061A90000940C0020F9B5000050
:10AACC0080B584B000AF786078682A2101F0B2FCC0
:10AADC007868012101F0AEFC404B1B687868194680
:10AAEC0001F0A8FC3E4B1B687868194601F0A2FCEB
:10AAFC00FEF7EEF903467868194601F09BFCFEF769
:10AB0C0047FA03467868194601F094FC354B1B78DC
:10AB1C007868194601F04EFC334B1B78786819465F
:10AB2C0001F048FC314B1B787868194601F042FC67
:10AB3C002F4B1B797868194601F03CFC0023FB7302
:10AB4C002C4B1B78002B03D0FB7B43F00103FB73D6
:10AB5C00294B1B78002B03D0FB7B43F00203FB73C8
:10AB6C00264B1B78002B03D0FB7B43F00403FB73B9
:10AB7C00234B1B78002B03D0FB7B43F00803FB73A8
:10AB8C00204B1B78002B03D0FB7B43F01003FB7393
:10AB9C00FB7B7868194601F00DFC1B4B1B78786821
:10ABAC00194601F007FC194BD3E90023786801F032
:10ABBC005FFC174B1B887868194601F01BFC154B82
:10ABCC001B887868194601F015FC134B1B697868D3
:10ABDC00194601F02FFC1037BD4680BD0809002036
:10ABEC000C0900202E090020A50C002028090020AB
:10ABFC00940C0020A00C0020A10C0020A20C002022
:10AC0C00A30C0020A40C0020900C0020180900209C
:10AC1C002A0900202C090020EC0A002080B582B003
:10AC2C0000AF78600A4B1B887868194601F0E2FB8C
:10AC3C00084B1B887868194601F0DCFB064B1B8817
:10AC4C007868194601F0D6FB0837BD4680BD00BFB9
:10AC5C00B20C0020B40C0020B60C002080B500AF64
:10AC6C000248CE21024A01F0DFFC80BDCCDF01009E
:10AC7C0014E0010080B500AF4FF4004003F08CFAF3
:10AC8C0080BD00BF80B500AF4FF4804003F084FA64
:10AC9C0080BD00BF80B500AF03200521FFF716FE75
:10ACAC00642009F031FD03200521FFF731FE6420FB
:10ACBC0009F02AFD80BD00BF80B594B000AF032021
:10ACCC000421FFF7DFFD0346002B01D000233CE0FD
:10ACDC0020480AF08BF8204B1B68002B01D0032373
:10ACEC0000E001233B741D4B7B612023BB611A4B9D
:10ACFC001B68FB6107F12C033B6220237B62022360
:10AD0C00BB6202233B6007F110037B600123BB6035
:10AD1C000023FB603B464FF00110194604F024FD64
:10AD2C00012004F061FD0AF085F8FEF791F997F81F
:10AD3C002D30FB64FB6C002B06D007F12C03023387
:10AD4C001846F96CFFF7B4F9012318465037BD4685
:10AD5C0080BD00BF18E00100240500200405002080
:10AD6C0080B582B000AF4FF0011004F0C7FC032097
:10AD7C000321FFF7ABFD00BF03200421FFF782FD89
:10AD8C000346002BF8D1FFF797FF0346FB71FB79C5
:10AD9C0083F00103DBB2002B05D0044840F20F1105
:10ADAC00034A01F041FC0837BD4680BDCCDF0100F1
:10ADBC0020E0010080B582B000AF7860064B1A68C5
:10ADCC007B681A43044B1A604FF4803003F0D6F9B9
:10ADDC000837BD4680BD00BF0809002080B483B091
:10ADEC0000AF78607B68DA43044B1B681A40034B56
:10ADFC001A600C37BD465DF8047B704708090020CB
:10AE0C0080B582B000AF7860064B1A687B681A4335
:10AE1C00044B1A604FF4803003F0B0F90837BD468C
:10AE2C0080BD00BF0C09002080B483B000AF7860F7
:10AE3C007B68DA43044B1B681A40034B1A600C37CF
:10AE4C00BD465DF8047B70470C0900202DE9F043EA
:10AE5C008BB000AF84E1B24B1B6803F08003002B76
:10AE6C000CD0FFF7F9FB8020FFF7B8FFAD4B0122A8
:10AE7C001A704FF4005003F081F971E1A84B1B6874
:10AE8C0003F48073002B06D0FFF7F8FB4FF48070AF
:10AE9C00FFF7A4FF64E1A24B1B6803F00103002B36
:10AEAC0002D000F01FFA5BE19D4B1B6803F002031C
:10AEBC00002B15D09C4B1B7801209C491A46FFF7A0
:10AECC0095FC0220FFF78AFF994B1B7883F0010356
:10AEDC00DBB2002B00F044810420FFF76BFF3FE155
:10AEEC008F4B1B6803F00403002B11D00023FB8352
:10AEFC004FF4C863BB83FA8BBB8B10461946FFF724
:10AF0C00E1FB0420FFF76AFF8A4B01221A7027E14C
:10AF1C00834B1B6803F00803002B11D008237B83A1
:10AF2C0010233B830023FB826423BB82788B398BF9
:10AF3C00FA8ABB8AFFF712FC0820FFF74FFF0FE1DC
:10AF4C00774B1B6803F01003002B45D001237B6269
:10AF5C0034E04FF001024FF00003796AA1F12006B2
:10AF6C00C1F1200003FA01F502FA06F6354322FA84
:10AF7C0000F0054302FA01F4C7E902456E4BD3E930
:10AF8C000001D7E9022302EA000203EA010352EAB4
:10AF9C00030110D0D7E902236FEA02006FEA030124
:10AFAC00654BD3E9002302EA000203EA010362497C
:10AFBC00C1E9002305E07B6A01337B627B6A3E2B8F
:10AFCC00C7DD5D4BD3E9002352EA030140F0C88092
:10AFDC001020FFF703FFC3E0514B1B6803F0200365
:10AFEC00002B4BD001233B623BE04FF001024FF0B2
:10AFFC000003396AA1F12006C1F1200003FA01F91E
:10B00C0002FA06F649EA060922FA00F049EA0009B2
:10B01C0002FA01F8C7E90089484BD3E90001D7E9E6
:10B02C00002302EA000203EA010352EA030115D0ED
:10B03C003B6ADBB21846FFF7C5FBD7E900236FEA82
:10B04C0002006FEA03013D4BD3E9002302EA000240
:10B05C0003EA01033949C1E9002305E03B6A0133E6
:10B06C003B623B6A3E2BC0DD344BD3E9002352EAF2
:10B07C00030175D12020FFF7B1FE71E0284B1B684E
:10B08C0003F04003002B06D00120FFF73FFB4020CC
:10B09C00FFF7A4FE64E0224B1B6803F40073002B43
:10B0AC0007D00220FFF7AAFA4FF40070FFF796FEC4
:10B0BC0056E01B4B1B6803F48063002B12D0204B13
:10B0CC001B881846FFF7AEFA4FF48060FFF786FE38
:10B0DC001B4B1B88B3F5404F42D14FF40060FFF778
:10B0EC0069FE3DE00E4B1B6803F40063002B07D098
:10B0FC00FF20FFF783FA4FF40060FFF76FFE2FE09D
:10B10C00074B1B6803F48053002B1DD00D4B1B7891
:10B11C001846FFF70FFB4FF48050FFF75FFE1FE060
:10B12C000809002028090020B00C0020A80C0020E1
:10B13C00A20C0020A10C00202009002018090020DE
:10B14C002A0900202E0900200C4B1B6803F4005325
:10B15C00002B05D0FFF7A4FA4FF40050FFF73EFE8A
:10B16C00064B1B68002B05D0FDF7BEFE0346002BDB
:10B17C007FF471AE2C37BD46BDE8F0830809002082
:10B18C0080B500AF0BE00B4B1B6803F00103002BE9
:10B19C0005D00320FFF762FB0120FFF745FE054BAE
:10B1AC001B68002B04D0FDF7FFFE0346002BEAD1F1
:10B1BC0080BD00BF0C09002080B483B000AF786064
:10B1CC007B68012202FA03F318464FEAE071094B3F
:10B1DC00D3E9002302EA000203EA01031343002B24
:10B1EC000CBF00230123DBB218460C37BD465DF8BB
:10B1FC00047B70471809002080B500AF04E00220E2
:10B20C000B491422FFF70EFB0220FFF7D5FF034674
:10B21C00002B0BD0FDF7C8FE0346002B06D00548CB
:10B22C00034901F07BFC0346002BE8D180BD00BF35
:10B23C00D80A0020EC0A002080B500AFFFF706FE0C
:10B24C00FFF79EFFFFF7D8FF80BD00BF80B582B02F
:10B25C0000AF13460246FA710A46BA717B717A79CD
:10B26C00154B1A60154BFA791A70FB79022B15D015
:10B27C00032B09D0012B1BD10120FDF745FE4FF408
:10B28C008060FFF797FD13E00120FDF73DFE0C4BAE
:10B29C0000221A700220FFF78DFD09E00120FDF756
:10B2AC0033FE084B00221A600120FFF783FD00BF1C
:10B2BC000837BD4680BD00BF10090020A50C00203A
:10B2CC00900C00201409002080B485B000AFBA6047
:10B2DC007B600346FB730B46BB731437BD465DF8AE
:10B2EC00047B704780B584B000AF114B1B68102BEA
:10B2FC0000D919E00120FDF72FFE0D4B1B681A46F3
:10B30C00511C0B4B196013465B011344094A13443F
:10B31C00FB60FB680133BB60BB681B7801337B604F
:10B32C00B8687968FDF7D6FE1037BD4680BD00BF02
:10B33C001409002090DD010080B500AF044B012200
:10B34C001A70044B03221A700120FFF747FD80BDD1
:10B35C00A00C00202E09002080B584B000AFB9608D
:10B36C000146F973BA81FB800A4B01221A704FF423
:10B37C00005002F011FF084B1B681846FDF724FE25
:10B38C00064801F017FA0820FFF714FD1037BD46E8
:10B39C0080BD00BFA20C002010090020C00A0020B4
:10B3AC0080B483B000AF13460246FA800A46BA80D6
:10B3BC007B80074BFA881A80064BBA881A80064B9A
:10B3CC007A881A800C37BD465DF8047B704700BF45
:10B3DC00B20C0020B40C0020B60C002080B582B05A
:10B3EC0000AF02460B46FA71BB71214808F00AF80F
:10B3FC00204B00221A60204B00221A601F494FF08C
:10B40C0000024FF00003C1E900231D494FF0000278
:10B41C004FF00003C1E900231A4B00221A701A4B9B
:10B42C0000221A70194B00221A70194B00221A7044
:10B43C004FF4005002F0B0FE0020FDF7C5FD154B97
:10B44C001B78012B07D0022B09D0002B0CD1042028
:10B45C00FFF7B0FC08E08020FFF7ACFC04E04FF4F1
:10B46C000070FFF7A7FC00BF0837BD4680BD00BFCA
:10B47C0020454C42080900200C0900201809002026
:10B48C0020090020A10C0020A20C0020A30C0020FD
:10B49C00A40C0020900C002080B582B000AF0346B5
:10B4AC00FB71FB791846FDF79DFD0837BD4680BD45
:10B4BC0080B584B000AFC7E90201C7E900230D498C
:10B4CC00D7E90223C1E900230B49D7E90023C1E9DD
:10B4DC000023094BD3E9002352EA030103D01020C7
:10B4EC00FFF768FC02E0054B01221A701037BD46CD
:10B4FC0080BD00BF1809002020090020A30C0020EB
:10B50C0080B582B000AF786039601A4879683A68C3
:10B51C0001F0EAF9174801F063F90346032B22D82E
:10B52C0001A252F823F000BF73B5000073B5000000
:10B53C0045B500005FB500000E4B1A680D4BDB687B
:10B54C000D4811461A4601F03BFB0A4801F032F94E
:10B55C0009E00A484FF40B71094A01F065F80548F7
:10B56C0001F028F900BF0120FFF74AFC0837BD465F
:10B57C0080BD00BFC00A0020EC0A0020CCDF010017
:10B58C0014E0010080B584B000AF0346B9607A6066
:10B59C00FB73074B01221A70FB7B032B04D1B86899
:10B5AC007968FFF7ADFF00BF1037BD4680BD00BF07
:10B5BC00A40C002080B400AF034B1B881846BD467A
:10B5CC005DF8047B704700BF2C09002080B483B069
:10B5DC0000AF0346FB80044BFA881A800C37BD463B
:10B5EC005DF8047B704700BF2C09002080B500AFCC
:10B5FC00054807F0A9FB054B4FF440421A804FF465
:10B60C008060FFF7D7FB80BD940C00202A09002036
:10B61C0080B584B000AF0346381D80E80600FB817E
:10B62C000A4BFA891A800A4B02221A704020FFF743
:10B63C00C1FB7B68002B05D006483B1D93E8060038
:10B64C0007F030FB1037BD4680BD00BF2A09002033
:10B65C00900C0020940C002080B582B000AF034603
:10B66C00FB71054BFA791A704FF48050FFF7A2FB6F
:10B67C000837BD4680BD00BF2E09002080B400AF46
:10B68C00034B1B781846BD465DF8047B704700BF22
:10B69C002E09002080B400AF034B1B781846BD4622
:10B6AC005DF8047B704700BF2809002080B582B08C
:10B6BC0000AF0346FB71044840F26521034A00F0D9
:10B6CC00B3FF0837BD4680BDCCDF010014E001009C
:10B6DC0080B500AF8020FFF76DFB80BD80B500AF5B
:10B6EC00074B1B78002B06D0064B01221A7040200A
:10B6FC00FFF760FB03E04FF40050FFF75BFB80BDEE
:10B70C00A20C0020900C002080B500AF0120FDF7AA
:10B71C00FBFB044B00221A704FF48070FFF74AFBBE
:10B72C0080BD00BF2809002080B582B000AF7860D2
:10B73C0039603B68082B01D908233B603B68002B20
:10B74C0008D10E480E49072210F0E8FF0D4B0722D6
:10B75C001A7008E0094879683A6810F0DFFF3B6816
:10B76C00DAB2084B1A70084B1B78032B02D102205B
:10B77C00FFF720FB0837BD4680BD00BFA80C00209A
:10B78C00C4DF0100B00C0020A50C002080B582B0F5
:10B79C0000AF7860064B1B78786806491A4610F0A3
:10B7AC00BDFF034B1B7818460837BD4680BD00BF54
:10B7BC00B00C0020A80C002080B400AF044B002279
:10B7CC001A60034B00225A60BD465DF8047B70473B
:10B7DC00B80C002080B485B000AF7860104B1B68AB
:10B7EC00002B0CD10E4B7A681A600D4B7A685A609C
:10B7FC007B6800221A607B6800225A600BE0084BC1
:10B80C005B68FB60064B7A685A607B68FA685A6022
:10B81C00FB687A681A601437BD465DF8047B704784
:10B82C00B80C002080B584B000AF78607B681B0238
:10B83C00FB6007F10B03F8681946012208F062FD62
:10B84C00FB7AFE2B14BF00230123DBB21846103702
:10B85C00BD4680BD80B588B000AFF860B9607A6035
:10B86C00F868FFF7B7FF08F01BFD7861BB687A69D1
:10B87C0002FB03F2FB689A607B6801337A6902FB76
:10B88C0003F2FB68DA6008F019FDFB684FF0FF3239
:10B89C001A61FB684FF0FF325A61FB689B681846CF
:10B8AC00FFF7C0FF0346002B0AD0FB68DB68013BA7
:10B8BC001846FFF7B7FF0346002B01D0012300E029
:10B8CC000023FB74FB7C03F00103FB74FB7C002B5B
:10B8DC002ED0FB689B68FB6124E009F081FAF869C3
:10B8EC00FFF7A0FF034683F00103DBB2002B08D067
:10B8FC00FB685B69B3F1FF3F11D1FB68FA695A61D0
:10B90C000DE0FB681B69B3F1FF3F08D1FB685B6975
:10B91C00B3F1FF3F03D0FB68FA691A6107E0FB69DA
:10B92C000133FB61FB68DA68FB699A42D5D82AE0DF
:10B93C00FB689B68BB6121E009F052FAB869FFF71C
:10B94C0071FF0346002B08D0FB681B69B3F1FF3F66
:10B95C0011D1FB68BA691A610DE0FB685B69B3F140
:10B96C00FF3F08D1FB681B69B3F1FF3F03D0FB68B5
:10B97C00BA695A6107E0BB690133BB61FB68DA68DD
:10B98C00BB699A42D8D8FB681B69B3F1FF3F07D15A
:10B99C00FB689A68FB681A61FB681A69FB685A6154
:10B9AC0008F086FC2037BD4680BD00BF80B483B054
:10B9BC0000AF78607B681A697B685B699A4205D82E
:10B9CC007B685A697B681B69D31A0AE07B68DA6862
:10B9DC007B681B69D21A7B6859697B689B68CB1A98
:10B9EC00134418460C37BD465DF8047B704700BF06
:10B9FC0080B584B000AF78607B681B691B02FB606C
:10BA0C0008F05CFC08F060FCFC23FB7207F10B03F4
:10BA1C00F8681946012208F067FC08F049FC7B68BD
:10BA2C001B695A1C7B681A617B681A697B68DB6826
:10BA3C009A4203D37B689A687B681A611037BD46BB
:10BA4C0080BD00BF80B584B000AF786008F036FCD4
:10BA5C0008F03AFCFC23FB7219E07B681B691B02A3
:10BA6C00FB6007F10B03F8681946012208F03CFC57
:10BA7C007B681B695A1C7B681A617B681A697B6836
:10BA8C00DB689A4203D37B689A687B681A617B688F
:10BA9C001A697B685B699A42DFD108F009FC1037A0
:10BAAC00BD4680BD90B5C9B000AF07F10C04206055
:10BABC0007F108000160391D0A603A4613603B46E5
:10BACC001B68F82B02D93B46F8221A6008F0F6FBEB
:10BADC0007F10C031B685B691B02C7F81C3108F0EB
:10BAEC00DFFBC7F8180107F10C031B685B69D7F87B
:10BAFC001821B3FBF2F2D7F8181101FB02F29B1AD2
:10BB0C00002B4ED107F11303D7F81C011946012263
:10BB1C0008F0F8FB07F113031B78FF2B05D008F096
:10BB2C00D3FBD7F81C0108F0D5FB07F10C031B68FD
:10BB3C005A6907F10C031B681B699A4231D207F151
:10BB4C000C031B681A6907F10C031B685969D7F8B9
:10BB5C0018310B449A4224D207F10C031B681A6962
:10BB6C00D7F818311A44D7F81831B2FBF3F3D7F8D9
:10BB7C00182102FB03F207F10C031B681A6107F191
:10BB8C000C031B681A6907F10C031B68DB689A42EB
:10BB9C0007D307F10C031B689A6807F10C031B68A9
:10BBAC001A6107F114031A464FF4807310460021F2
:10BBBC001A4610F0D7FD07F11403FE221A703B460B
:10BBCC001B68DAB207F114035A7007F108031B68FB
:10BBDC00DAB207F114031A7107F108031B681B0A88
:10BBEC00DAB207F114035A7107F108031B681B0C36
:10BBFC00DAB207F114039A7107F108031B681B0EE4
:10BC0C00DAB207F11403DA7107F1140303F1080136
:10BC1C003A1D3B46084611681A6810F07FFD3B46FA
:10BC2C001B68043307F1140204324FF6FF701146FF
:10BC3C001A4600F05DF90346A7F81631B7F816312D
:10BC4C00DAB207F114039A70B7F816311B0A9BB2DB
:10BC5C00DAB207F11403DA7008F036FB3B461B68C6
:10BC6C00083307F11402D7F81C0111461A4608F0E4
:10BC7C003BFB08F01DFB07F10C031B685B695A1CAE
:10BC8C0007F10C031B685A6107F10C031B685A6916
:10BC9C0007F10C031B68DB689A4207D307F10C030E
:10BCAC001B689A6807F10C031B685A6107F10C03B7
:10BCBC001B685A6907F10C031B681B699A4204D173
:10BCCC0007F10C031868FFF793FE07F59277BD4652
:10BCDC0090BD00BF90B5C7B000AF07F10C04206059
:10BCEC0007F108000160391D0A603A461360D7F865
:10BCFC002831F82B02D9F823C7F8283107F10C03A7
:10BD0C001B681A6907F108031B681A443B1D1B6862
:10BD1C001A603B1D1B681A6807F10C031B68DB6873
:10BD2C009A420FD307F10C031B689A683B1D1B68E2
:10BD3C00196807F10C031B68DB68CB1A1A443B1D0E
:10BD4C001B681A603B1D1B681B681B02C7F814316B
:10BD5C0008F0B4FA07F11403D7F8140119464FF49C
:10BD6C00807208F0CFFA08F0A3FA07F114035B789D
:10BD7C001A463B1D1B689A803B1D1B689B881A4604
:10BD8C00D7F828319A4205D9D7F828319AB23B1DF9
:10BD9C001B689A8007F114030233184600F0F8F878
:10BDAC0003461A463B1D1B68DA8007F11403043363
:10BDBC00184600F001F902463B1D1B689A603B1DBA
:10BDCC001B689B88394607F1140208320868114633
:10BDDC001A4610F0A3FC07F58E77BD4690BD00BF48
:10BDEC0080B582B000AF786039603B681A687B68B8
:10BDFC001B699A4200D002E07868FFF7F9FD08371A
:10BE0C00BD4680BD80B582B000AF00237B600B4B7C
:10BE1C001B683B6009E03868FFF7C8FD03467A6889
:10BE2C0013447B603B681B683B603B68002BF2D182
:10BE3C007B6818460837BD4680BD00BFB80C002093
:10BE4C0080B58AB002AFF860B9607A603B60FB687D
:10BE5C00FB61144B1B68BB6118E0B869FFF7A6FDCA
:10BE6C007861FA697B699A4209D23B680093B86998
:10BE7C00F969BA687B68FFF72DFF00230DE0FA69BA
:10BE8C007B69D31AFB61BB691B68BB61BB69002B67
:10BE9C00E3D1FB6901333B613B6918462037BD4652
:10BEAC0080BD00BFB80C002080B584B000AF7860B6
:10BEBC000E4B1B68FB6013E0FB689A687B681B6881
:10BECC009A420AD87B681A68FB68DB689A4204D2EB
:10BEDC00F8687968FFF784FF05E0FB681B68FB6076
:10BEEC00FB68002BE8D11037BD4680BDB80C002094
:10BEFC0080B487B000AF0346B9607A60FB81FB89E0
:10BF0C00FB82BA687B6813443B6129E0FB8A1B0AFD
:10BF1C009BB29AB2FB8A1B029BB213439BB2FB826D
:10BF2C00BB681B781A46FB8A5340FB82FB8ADBB248
:10BF3C001B119AB2FB8A53409BB2FB82FB8A1B03F8
:10BF4C009AB2FB8A53409BB2FB82FB8ADBB25B0149
:10BF5C009AB2FB8A53409BB2FB82BB680133BB6035
:10BF6C00BA683B699A42D1D3FB8A18461C37BD4646
:10BF7C005DF8047B704700BF80B483B000AF78607D
:10BF8C007B681B7818460C37BD465DF8047B704700
:10BF9C0080B483B000AF78607B6801331B781B02E0
:10BFAC009AB27B681B7813439BB29BB218460C3732
:10BFBC00BD465DF8047B704780B483B000AF7860F9
:10BFCC007B6803331B781A067B6802331B781B04CF
:10BFDC001A437B6801331B781B021A437B681B785E
:10BFEC00134318460C37BD465DF8047B704700BF01
:10BFFC00B0B586B000AF78607868FFF7DDFF034618
:10C00C001A464FF00003C7E904237B68083318462F
:10C01C00FFF7D2FF03461A464FF00003C7E902238D
:10C02C00D7E9022315000024D7E9042342EA0402CD
:10C03C0043EA0503104619461837BD46B0BD00BF8C
:10C04C0080B584B000AF78607868FFF7B5FF034621
:10C05C00FB60FB6818461037BD4680BD80B584B0C8
:10C06C0000AF786039603868FFF7A6FF0346BB6005
:10C07C003B6804331846FFF79FFF0346FB607B6861
:10C08C0007F1080292E8030083E803007868103790
:10C09C00BD4680BD80B483B000AF78600B46FB70AA
:10C0AC007B68FA781A700C37BD465DF8047B7047D4
:10C0BC0080B483B000AF78600B467B807B88DAB2AB
:10C0CC007B681A707B6801337A88120A92B2D2B2FA
:10C0DC001A700C37BD465DF8047B704780B483B092
:10C0EC0000AF786039603B68DAB27B681A707B68A5
:10C0FC0001333A68120AD2B21A707B6802333A687A
:10C10C00120CD2B21A707B6803333A68120ED2B298
:10C11C001A700C37BD465DF8047B7047B0B584B01F
:10C12C0000AFF860C7E900233B68F8681946FFF7D1
:10C13C00D5FFFB68191DD7E900231C0000252346F9
:10C14C0008461946FFF7CAFF1037BD46B0BD00BF01
:10C15C0080B584B000AF78603960386807F0A2FA17
:10C16C000346FB81FB8978681946FFF7A1FF10375E
:10C17C00BD4680BD80B584B000AF786039603B6847
:10C18C00FB60FB6878681946FFF7A8FF1037BD46BF
:10C19C0080BD00BF80B584B000AFF8603B1D83E864
:10C1AC0006007B68F8681946FFF798FFFB681A1DB4
:10C1BC00BB6810461946FFF791FF1037BD4680BD8E
:10C1CC0080B485B000AFF860B9607A60FB68BA687B
:10C1DC001A60FB687A685A60FB6800229A60FB68F8
:10C1EC000022DA601437BD465DF8047B704700BF4F
:10C1FC0080B483B000AF78607B685A687B689B68BA
:10C20C00D31A18460C37BD465DF8047B704700BF47
:10C21C0080B584B000AFF860B9607A60FB681A68CA
:10C22C00FB68DB681344B86819467A6810F076FA34
:10C23C00FB68DA687B681A44FB68DA601037BD4625
:10C24C0080BD00BF80B584B000AF78607B681A6891
:10C25C007B68DB681344FB607B68DB685A1C7B687B
:10C26C00DA60F868FFF788FE034618461037BD46BB
:10C27C0080BD00BF80B584B000AF78607B681A6861
:10C28C007B68DB681344FB607B68DB689A1C7B680B
:10C29C00DA60F868FFF77CFE034618461037BD4697
:10C2AC0080BD00BF80B584B000AF78607B681A6831
:10C2BC007B68DB681344FB607B68DB681A1D7B685A
:10C2CC00DA60F868FFF778FE034618461037BD466B
:10C2DC0080BD00BF80B584B000AF78607B681A6801
:10C2EC007B68DB681344FB607B68DB681A1D7B682A
:10C2FC00DA60F868FFF7A4FE034618461037BD460F
:10C30C0080BD00BF80B584B000AF786039603B68F9
:10C31C001A683B68DB681344FB603B68DB6803F11D
:10C32C0008023B68DA607B681846F968FFF796FEEE
:10C33C0078681037BD4680BD80B582B000AF78609C
:10C34C0039607B689A683B681A447B685B689A42E0
:10C35C0001D8012305E005489321054A00F064F952
:10C36C00002318460837BD4680BD00BF28E00100F9
:10C37C006CE0010080B584B000AFF860B9607A6001
:10C38C00F8687968FFF7D8FF0346002B0FD0FB68DD
:10C39C001A68FB689B6813441846B9687A6810F0F1
:10C3AC00BDF9FB689A687B681A44FB689A60103781
:10C3BC00BD4680BD80B584B000AF78600B46FB7085
:10C3CC0078680121FFF7B8FF0346002B0FD07B687C
:10C3DC001A687B689B681344FB607B689B685A1CDB
:10C3EC007B689A60FB78F8681946FFF753FE1037A4
:10C3FC00BD4680BD80B584B000AF78600B467B80B5
:10C40C0078680221FFF798FF0346002B0FD07B685A
:10C41C001A687B689B681344FB607B689B689A1C5A
:10C42C007B689A607B88F8681946FFF741FE1037E5
:10C43C00BD4680BD80B584B000AF78603960786847
:10C44C000421FFF779FF0346002B0ED07B681A6896
:10C45C007B689B681344FB607B689B681A1D7B6838
:10C46C009A60F8683968FFF739FE1037BD4680BD11
:10C47C0080B586B000AFF860C7E90023F8680821E2
:10C48C00FFF75AFF0346002B10D0FB681A68FB68B5
:10C49C009B6813447B61FB689B6803F10802FB6893
:10C4AC009A607869D7E90023FFF738FE1837BD4644
:10C4BC0080BD00BF80B584B000AF7860396078680B
:10C4CC000221FFF739FF0346002B0ED07B681A6858
:10C4DC007B689B681344FB607B689B689A1C7B6839
:10C4EC009A60F8683968FFF733FE1037BD4680BD97
:10C4FC0080B584B000AF7860396078680421FFF7AC
:10C50C001BFF0346002B0ED07B681A687B689B6868
:10C51C001344FB607B689B681A1D7B689A60F86803
:10C52C003968FFF727FE1037BD4680BD80B586B051
:10C53C0000AFF8603B1D83E80600F8680821FFF7A0
:10C54C00FBFE0346002B11D0FB681A68FB689B6846
:10C55C0013447B61FB689B6803F10802FB689A60DB
:10C56C0078693B1D93E80600FFF714FE1837BD46AB
:10C57C0080BD00BF80B400AF064B00221A70064B82
:10C58C0000221A60054B00221A70BD465DF8047B30
:10C59C00704700BFC00C0020C40C0020C80C002049
:10C5AC0080B483B000AF7860034B7A681A600C37A4
:10C5BC00BD465DF8047B7047C40C002080B400AF0E
:10C5CC00034B1B681846BD465DF8047B704700BFE3
:10C5DC00C40C002080B400AF034B1B781846BD463A
:10C5EC005DF8047B704700BFC80C002080B582B09A
:10C5FC0000AF0346FB71054BFA791A7004483E21D3
:10C60C003F22FFF727F90837BD4680BDC80C002034
:10C61C00CC0C002080B483B000AF78600C37BD46E2
:10C62C005DF8047B704700BF80B5CCB000AF07F15C
:10C63C000C03186007F1080319603B1D1A60484B86
:10C64C0001221A70474B1B685A1C464B1A60464B0A
:10C65C001B7883F00103DBB2002B04D03B1D186860
:10C66C00FFF7D8FF77E007F1180207F1280310460F
:10C67C001946F822FFF7A4FD07F59073184608F049
:10C68C0025FA07F11803184607F5907393E806008E
:10C69C00FFF74CFF07F10C031B68002B32D007F19E
:10C6AC000C03186810F096F8034607F1180107F10F
:10C6BC000C02084611681A46FFF75CFE07F11803D6
:10C6CC0018462021FFF776FE07F1100207F1080348
:10C6DC00104626491A680FF0F7FF07F110031846A9
:10C6EC0010F078F8034607F1180107F1100208461C
:10C6FC0011461A46FFF73EFE07F118031846202193
:10C70C00FFF758FE3B1D186810F064F8C7F82C01B1
:10C71C0007F118031846FFF76BFDC7F82801D7F887
:10C72C002C21D7F828319A4203D9D7F82831C7F8E9
:10C73C002C3107F118023B1D10461968D7F82C2133
:10C74C00FFF718FE07F118039B6807F12802084849
:10C75C000849FFF7A7F907F59877BD4680BD00BFDC
:10C76C00C00C0020C40C0020C80C002070E001009C
:10C77C00CC0C002046444C4F80B485B000AFF86020
:10C78C00B9607A60FB68BA681A60FB687A685A60AC
:10C79C00FB6800221A72FB680022DA60FB68002238
:10C7AC001A61FB6800225A611437BD465DF8047BA0
:10C7BC00704700BF80B483B000AF78607B68002204
:10C7CC001A727B680022DA607B6800221A617B682F
:10C7DC0000225A610C37BD465DF8047B704700BFE0
:10C7EC0080B483B000AF78607B681B7A18460C3736
:10C7FC00BD465DF8047B704780B483B000AF7860B1
:10C80C007B6803221A720C37BD465DF8047B7047B7
:10C81C0080B586B000AFF860B9607A60FB685A6981
:10C82C007B6813447B61FB68DA687B699A4205D2AA
:10C83C00FB68DA68FB685B69D31A7B60FB681A6873
:10C84C00FB685B6913441846B9687A680FF066FF99
:10C85C00FB685A697B681A44FB685A61FB685A6921
:10C86C00FB68DB689A4203D1FB6802221A7204E06F
:10C87C00FB681B695A1CFB681A611837BD4680BDE2
:10C88C0080B584B000AFF860B9607A607B68012B2A
:10C89C0003D8F868FFF7B0FF22E0FB6801221A7298
:10C8AC00B868FFF775FB03461A46FB68DA60FB684D
:10C8BC0000221A61FB6800225A61FB68DA68FB6887
:10C8CC005B689A4203D9F868FFF796FF08E0BB68EB
:10C8DC009A1C7B68023BF86811461A46FFF798FFD2
:10C8EC001037BD4680BD00BF80B586B000AFF86084
:10C8FC00B9607A607B68002B03D1F868FFF77CFF86
:10C90C0028E0BB681B78FB75FB7D002B10D1FB6806
:10C91C001B69002B02D0F868FFF76EFFBB685A1C2E
:10C92C007B68013BF86811461A46FFF7A9FF11E036
:10C93C00FA7DFB681B699A4203D0F868FFF75CFF2D
:10C94C0008E0BB685A1C7B68013BF86811461A4624
:10C95C00FFF75EFF1837BD4680BD00BF80B483B0C3
:10C96C0000AF78607B6800221A607B6800221A7125
:10C97C007B6800229A607B680022DA607B68002268
:10C98C001A610C37BD465DF8047B704780B485B0E6
:10C99C0000AFF860B9607A60FB68BA681A60FB682F
:10C9AC0001221A71FB687A689A60FB680022DA60CF
:10C9BC00FB6800221A611437BD465DF8047B704792
:10C9CC0080B586B000AFF860B9607A60FB681B79FF
:10C9DC00012B01D0002349E0FB68DB68DAB2BB68AD
:10C9EC001A7001237B61FB68DB68002B0ED1BB68DE
:10C9FC000133FA689268D2B21A70BB680233FA68D3
:10CA0C009268120AD2B21A7003237B61FB689A688F
:10CA1C00FB681B69D31A3B617A687B69D21A3B6944
:10CA2C009A4203D27A687B69D31A3B61FB681B6814
:10CA3C00FA681169B8687A690244084611463A697D
:10CA4C009847FB681A693B691A44FB681A61FB68D2
:10CA5C00DB685A1CFB68DA60FB689A68FB681B6928
:10CA6C009A4202D1FB6802221A7101231846183728
:10CA7C00BD4680BD80B485B000AFF860B9607A6007
:10CA8C003B60FB68BA681A60FB687A685A60FB689E
:10CA9C003A689A60FB68BA69DA60FB6800221A612E
:10CAAC001437BD465DF8047B704700BF80B584B079
:10CABC0000AF786039607B681B69FB607B681A6922
:10CACC007B685B681A447B68DB689A4204D97B6894
:10CADC00FA681A6100231CE07B689A687B681B6902
:10CAEC001A447B685B68386811461A46FFF768FF82
:10CAFC00034683F00103DBB2002B02D000BF0123FD
:10CB0C0007E07B681A697B685B681A447B681A616A
:10CB1C00D4E718461037BD4680BD00BF80B582B043
:10CB2C0000AF786039607B681B69002B01D1002352
:10CB3C001EE07B689A687B685B68386811461A4609
:10CB4C000FF0ECFD7B681A697B685B68D21A7B6816
:10CB5C001A617B6899687B689A687B685B681A4481
:10CB6C007B681B69084611461A460FF091FD01239C
:10CB7C0018460837BD4680BD80B500AF0B48FFF79F
:10CB8C00EDFE0B4B00221A600A4B00221A600A4879
:10CB9C0000214FF480620FF0E5FD01F07FF84FF4B7
:10CBAC000030064901F0C0FA80BD00BFF010002033
:10CBBC0068100020EC10002040120020D9DD00008D
:10CBCC0080B586B000AFF860B9607A60194B1B680D
:10CBDC000F2B00D92BE0184B1A687B681344B3F564
:10CBEC00167F00D323E0134B1B68DA00134B13445E
:10CBFC007B617B69FA681A607B697A685A600E4BB4
:10CC0C001A680F4B13441846B9687A680FF086FD02
:10CC1C00094B1A687B681A44074B1A60054B1B6852
:10CC2C005A1C044B1A604FF4003001F0B5FA183757
:10CC3C00BD4680BDEC100020681000206C10002058
:10CC4C00100E002080B584B000AFF860B9607A6037
:10CC5C00FA68054B1344B86819467A680FF05EFD04
:10CC6C001037BD4680BD00BF0411002080B582B0D6
:10CC7C0000AF78600B46FB70074808494FF496727A
:10CC8C00FFF79EFAFB7804481946FFF793FB024B1B
:10CC9C0018460837BD4680BD301200200411002014
:10CCAC0080B584B000AF78600D4B9B680D480E4981
:10CCBC001A46FFF76BFE78680A49FFF7F7FE034642
:10CCCC00FB73FB7B83F00103DBB2002B04D0074822
:10CCDC008421074AFFF7A8FC1037BD4680BD00BF72
:10CCEC0030120020F010002051CC000088E0010030
:10CCFC00D0E0010080B58CB000AFF860B9607A600C
:10CD0C0007F114031846B9687A68FFF759FA07F166
:10CD1C0014031846FFF7AEFA0346FB857A693B6AA3
:10CD2C001344BB62F8680121FFF7A0FF7862FB8D0A
:10CD3C00786A1946FFF75EFBFB8D786AB96A1A466A
:10CD4C00FFF718FBF868FFF7ABFF3037BD4680BD27
:10CD5C0080B58CB000AFF860B9607A6007F114034D
:10CD6C001846B9687A68FFF72BFA07F114031846CE
:10CD7C00FFF798FAF86207F114031846FFF77AFAEE
:10CD8C000346BB627A693B6A13447B62BB6A002B25
:10CD9C0003D0786AB96A07F061FDFB6A03F00403FB
:10CDAC00002B01D001F096FDFB6A03F00103002B70
:10CDBC0001D007F0D3FCFB6A03F00203002B02D076
:10CDCC00012008F053F83037BD4680BD80B58AB0DD
:10CDDC0000AFF860B9607A6007F114031846B968BF
:10CDEC007A68FFF7EDF907F114031846FFF72AFAF2
:10CDFC00034687F8273097F82730184608F036F89E
:10CE0C002837BD4680BD00BF80B582B000AF7860CA
:10CE1C0078680121FFF7EEFA78680021FFF7EAFA4B
:10CE2C0078683121FFF7E6FA786840F6FF71FFF772
:10CE3C0001FB786803491422FFF79CFA0837BD46BA
:10CE4C0080BD00BF74E0010080B582B000AF786097
:10CE5C00786807F0A5FC0837BD4680BD80B586B064
:10CE6C0002AF786007F0F0FC024607F10C0307F103
:10CE7C000A01009110460949012202F069FD7B89E3
:10CE8C0078681946FFF7B6FAFA687B897868114614
:10CE9C001A46FFF76FFA1037BD4680BDD4E001008B
:10CEAC0080B582B000AF7860074B1B687868194674
:10CEBC00FFF7C0FA054B786893E80600FFF736FBDE
:10CECC000837BD4680BD00BF04210020082100208A
:10CEDC0080B582B000AF786007F0BCFF034678687D
:10CEEC001946FFF767FA78682821FFF7A3FA7868E4
:10CEFC0003492822FFF73EFA0837BD4680BD00BF24
:10CF0C001021002080B582B000AF7860FEF77AFF68
:10CF1C00034678681946FFF78DFA0837BD4680BD81
:10CF2C0080B582B000AF786007F000FC03467868EB
:10CF3C001946FFF73FFA0837BD4680BD80B582B071
:10CF4C0000AF786007F00AFC0837BD4680BD00BF13
:10CF5C0080B584B000AF786007F10803184607F07D
:10CF6C0099FD786807F1080393E80600FFF7DEFAED
:10CF7C001037BD4680BD00BF80B584B000AF78606F
:10CF8C0007F1080318467968FFF7BCF907F10803A5
:10CF9C0093E8030007F054FD1037BD4680BD00BF79
:10CFAC0080B588B000AF786007F10C03184602F02A
:10CFBC00B7FEFB6878681946FFF79AFA3B69786800
:10CFCC001946FFF795FA3B7D78681946FFF7F2F999
:10CFDC007B7D78681946FFF7EDF9BB6978681946CF
:10CFEC00FFF786FAFB6978681946FFF781FA203754
:10CFFC00BD4680BD80B584B000AF78607868FFF71F
:10D00C0069F9F860F86802F0C3FE1037BD4680BDC0
:10D01C0080B582B000AF7860FBF7E4F9034678681E
:10D02C001946FFF7C7F90837BD4680BD80B584B0F7
:10D03C0000AF78607868FFF705F90346FB73FB7B5C
:10D04C001846FBF7B3F91037BD4680BD80B582B0EA
:10D05C0000AF7860FEF712FB034678681946FFF7BD
:10D06C00A9F90837BD4680BD80B584B000AF7860A3
:10D07C007868FFF7E7F80346FB73FB7B1846FEF76F
:10D08C00EBFA1037BD4680BDB0B58CB000AF786000
:10D09C0007F0D0FB034607F10C041D460FCD0FC45F
:10D0AC000FCD0FC42B682360FA68154B9A4208D039
:10D0BC0007F10C031846002124220FF053FB012327
:10D0CC007B823B8A78681946FFF794F97B8A7868EB
:10D0DC001946FFF78FF9BB8A78681946FFF78AF96A
:10D0EC00BB6978681946FFF7A5F907F10C031033F3
:10D0FC00786819461422FFF73DF93037BD46B0BDAC
:10D10C001ADA01B080B584B000AF786007F046FF42
:10D11C000346FB73FB7B78681946FFF74BF9103716
:10D12C00BD4680BD80B584B000AF78607868FFF7ED
:10D13C0089F80346002B0CBF00230123FB73FB7BF8
:10D14C00184607F0F7FE1037BD4680BD80B584B099
:10D15C0000AF786001F06CFBF8607868F968FFF755
:10D16C0069F91037BD4680BD80B584B000AF7860DA
:10D17C007868FFF797F8F860F86801F03FFB103714
:10D18C00BD4680BD80B582B000AF78607868032161
:10D19C00FFF750F9FFF71EFA034678681946FFF7B8
:10D1AC0049F9FFF70BFA034678681946FFF742F97D
:10D1BC000837BD4680BD00BF80B586B000AF786033
:10D1CC007868FFF76FF878617B6903F00103002B37
:10D1DC000ED07868FFF766F838613B6903F00103FD
:10D1EC00002B0CBF00230123DBB21846FFF7FEF91E
:10D1FC007B6903F00203002B06D07868FFF752F826
:10D20C00F860F868FFF7CCF91837BD4680BD00BF51
:10D21C0080B586B002AF786007F016FB034607F1C5
:10D22C000E0200921846054901227B6802F090FB21
:10D23C00FB8918461037BD4680BD00BFDCE00100FD
:10D24C0080B588B000AF786007F108031846FEF788
:10D25C009DFA0346FB77FB7F78681946FFF7AAF81F
:10D26C00FB7F07F10802786811461A46FFF782F82F
:10D27C002037BD4680BD00BF80B590B000AF786050
:10D28C0039600123BB810023FB8107F10C030433BC
:10D29C001846002110220FF065FA01233B84042369
:10D2AC0087F82230012387F823303B689BB2BB847C
:10D2BC000023FB8407F10C031C3318460C49042291
:10D2CC000FF02CFA07F10C032033184679683A68F2
:10D2DC000FF024FA07F10C031846342107F0BEFABC
:10D2EC0078683968FEF720FA4037BD4680BD00BF2C
:10D2FC00DCE0010080B588B000AF78607868FEF79C
:10D30C00A1FF0346FB77FB7F142B01D91423FB777A
:10D31C00FB7F07F10802786811461A46FEF778FF82
:10D32C00FB7F07F1080210461946FFF7A5FF2037CF
:10D33C00BD4680BD80B582B000AF786007F03CFE82
:10D34C00034678681946FFF7B5F80837BD4680BD27
:10D35C0080B483B000AF78600C37BD465DF8047BB9
:10D36C00704700BF80B584B000AF78603960386812
:10D37C0007F0D2FE0346FB73FB7B78681946FFF778
:10D38C0019F81037BD4680BD80B584B000AF786009
:10D39C0039607868FEF756FF0346002B0CBF00235C
:10D3AC000123FB73FB7B3868194607F0E1FE10374D
:10D3BC00BD4680BD80B582B000AF786006F0E6FD5A
:10D3CC00034678681946FEF7F5FF0837BD4680BD61
:10D3DC0080B584B000AF78607868FEF733FF034601
:10D3EC00002B0CBF00230123FB73FB7B184606F0BC
:10D3FC00D9FD1037BD4680BD80B58CB000AFF8604C
:10D40C00B9607A6007F114031846B9687A68FEF7B8
:10D41C00D7FE07F114031846FEF744FFB862F8680C
:10D42C000221FFF723FC7862BA6A5B4B1340786ADF
:10D43C001946FEF7FFFF0123FB62A3E0FA6ABB6A01
:10D44C001340002B00F09B80FB6AB3F5007F6BD080
:10D45C00B3F5007F1CD8102B52D0102B0BD8022BFD
:10D46C0042D0022B02D8012B3AD088E0042B3FD0BB
:10D47C00082B41D083E0402B4AD0402B02D8202BE4
:10D48C0042D07CE0802B47D0B3F5807F48D076E04B
:10D49C00B3F5804F5CD0B3F5804F10D8B3F5006F67
:10D4AC004AD0B3F5006F03D8B3F5806F40D066E077
:10D4BC00B3F5805F44D0B3F5005F45D05FE0B3F5C2
:10D4CC00803F4DD0B3F5803F03D8B3F5004F43D028
:10D4DC0055E0B3F5003F47D0B3F5802F4BD04EE06D
:10D4EC00786AFFF791FC4AE0786AFFF7ADFC46E0FA
:10D4FC00786AFFF715FD42E0786AFFF729FD3EE0F8
:10D50C00786AFFF74DFD3AE0786AFFF7A7FC36E042
:10D51C00786AFFF7C5FC32E0786AFFF7F3FC2EE07F
:10D52C00786AFFF775FD2AE0786AFFF78FFD26E031
:10D53C00786AFFF7A9FD22E0786AFFF723FE1EE068
:10D54C00786AFFF77DFE1AE0786AFFF7C1FC16E0F7
:10D55C00786AFFF7EFFE12E0786AFFF7D3FD0EE072
:10D56C00786AFFF7F3FD0AE0FB681B68786A1946D6
:10D57C00FFF7F8FE03E0786AFFF71CFF00BFFB6AB9
:10D58C005B00FB62FB6A002B7FF458AFF868FFF777
:10D59C0087FB3037BD4680BDFFBF070080B58AB022
:10D5AC0000AFF860B9607A6007F110031846B968EB
:10D5BC007A68FEF705FE07F110031846FEF772FEB7
:10D5CC00386201237B6280E07A6A3B6A1340002B4D
:10D5DC0078D07B6AB3F5006F47D0B3F5006F0FD8E6
:10D5EC00102B30D0102B04D8042B20D0082B24D097
:10D5FC0068E0B3F5807F2CD0B3F5007F2FD061E0CD
:10D60C00B3F5004F43D0B3F5004F06D8B3F5805FA8
:10D61C0031D0B3F5804F34D054E0B3F5003F42D055
:10D62C00B3F5802F48D0B3F5803F36D04AE007F1F0
:10D63C0010031846FFF782FC44E007F1100318466C
:10D64C00FFF79AFC3EE007F110031846FFF7D2FCF7
:10D65C0038E007F110031846FFF7E8FC32E007F159
:10D66C0010031846FFF700FD2CE007F110031846D5
:10D67C00FFF7A2FD26E007F110031846FFF73AFE6C
:10D68C0020E007F110031846FFF762FE1AE007F1DD
:10D69C0010031846FFF746FD14E007F11003184677
:10D6AC00FFF762FD0EE0FB681B6807F110021046E5
:10D6BC001946FFF769FE05E007F110031846FFF75E
:10D6CC0087FE00BF7B6A5B007B627B6A002B7FF46A
:10D6DC007BAF2837BD4680BD80B590B000AFF860F9
:10D6EC00B9607A6007F124031846B9687A68FEF7C6
:10D6FC0067FD07F124031846FEF7D4FDF86307F124
:10D70C0024031846FEF7CEFDB86307F11003F86B3F
:10D71C00B96B1A4603F018FBF8681221FFF7A6FA4A
:10D72C00786307F11003786B19461422FEF722FE7A
:10D73C00F868FFF7B5FA4037BD4680BD80B5CAB072
:10D74C0000AF07F10C03186007F1080319603B1DCB
:10D75C001A6007F5887107F108023B1D084611682D
:10D76C001A68FEF72DFD07F588731846FEF79AFD2B
:10D77C00C7F8240107F11003D7F82401194603F068
:10D78C00F9FA07F10C0318681321FFF76FFAC7F8C1
:10D79C00200107F11003D7F8200119464FF48072CD
:10D7AC00FEF7E8FD07F10C031868FFF779FA07F5A7
:10D7BC009477BD4680BD00BF80B592B000AFF860D5
:10D7CC00B9607A6007F128031846B9687A68FEF7E1
:10D7DC00F7FC07F128031846FEF734FD03463B64BB
:10D7EC00F8680621FFF742FAF8633B6CDBB2F86B82
:10D7FC001946FEF7DFFD00237B641CE007F12803CC
:10D80C001846FEF737FD0346BB6307F11403B86BEC
:10D81C00194603F073FABB6B9BB2F86B1946FEF713
:10D82C00E9FD07F11403F86B19461422FEF7A2FD6B
:10D83C007B6C01337B647A6C3B6C9A42DED3F86868
:10D84C00FFF72EFA4837BD4680BD00BF80B58CB0BF
:10D85C0000AFF860B9607A6007F114031846B96834
:10D86C007A68FEF7ADFC07F114031846FEF7EAFCE4
:10D87C000346BB620023FB620CE007F1140318465D
:10D88C00FEF7F8FC03467B62786A03F091FAFB6AB8
:10D89C000133FB62FA6ABB6A9A42EED33037BD465B
:10D8AC0080BD00BF80B58AB000AFF860B9607A6007
:10D8BC0007F110031846B9687A68FEF781FC07F186
:10D8CC0010031846FEF7D6FC03467B623A69FB69E7
:10D8DC0013443B62786A396A03F08EFA2837BD46E6
:10D8EC0080BD00BF80B59AB000AFF860B9607A60B7
:10D8FC0007F150031846B9687A68FEF761FC07F126
:10D90C0050031846FEF7CEFC03463B6107F150036B
:10D91C001846FEF7C7FC03467B6107F1500207F17E
:10D92C0010030833104619461422FEF771FC07F158
:10D93C00500207F110031C33104619461422FEF74F
:10D94C0067FC07F1500207F11003303310461946FB
:10D95C001022FEF75DFC07F11003184603F0A6FA3F
:10D96C00034687F86730F8680921FFF77FF93866B6
:10D97C0097F86730386E1946FEF71CFDF868FFF70C
:10D98C008FF96837BD4680BD80B58CB000AFF860AC
:10D99C00B9607A6007F11C031846B9687A68FEF71B
:10D9AC000FFC07F11C031846FEF764FC0346FB85CD
:10D9BC0007F1140207F11C0310461946FEF7A2FCEE
:10D9CC00FB8D184607F1140393E80600FDF720FEC3
:10D9DC003037BD4680BD00BF80B584B000AFF86065
:10D9EC00B9607A60FDF702FE1037BD4680BD00BFFE
:10D9FC0080B586B000AFF860B9607A60F8680C2129
:10DA0C00FFF734F97861FDF7D5FD034678691946BF
:10DA1C00FEF7F0FCF868FFF743F91837BD4680BDF8
:10DA2C0080B58AB000AFF860B9607A6007F1140372
:10DA3C001846B9687A68FEF7C3FB07F11403184659
:10DA4C00FEF700FC034687F827302837BD4680BD1B
:10DA5C0080B582B000AF786039607868FEF7F2FB71
:10DA6C0003461A463B681A707868FEF7EBFB0346D0
:10DA7C001A463B685A707868FEF7E4FB03461A4670
:10DA8C003B689A700837BD4680BD00BF80B58EB02C
:10DA9C0000AFF860B9607A6007F128031846B968DE
:10DAAC007A68FEF78DFB07F128031846FEF7CAFBD0
:10DABC0003463B7607F128031846FEF7C3FB0346E3
:10DACC007B7607F128031846FEF7BCFB0346BB76B2
