:108000004C25002005820000178200001982000024
:108010001B8200001D8200001F8200000000000083
:1080200000000000000000000000000021820000AD
:10803000238200000000000025820000278200004B
:10804000914E0100D5E800002D820000BDFB00002C
:10805000D1FB0000D98D010035820000F98F0000AE
:10806000398200003B820000599300003DE9000086
:108070004182000043820000210D0100E5FB000069
:10808000F5FB00004B8200004D8200004F82000093
:108090005182000053820000558200005782000088
:1080A000598200005B8200005D8200005F82000058
:1080B0006182000063820000119D00006782000061
:1080C000698200006B8200006D8200006F820000F8
:0880D0007182000073820000C0
:1080D8002F49072291438D462E492F480A1A06D068
:1080E8000722914381F30988022282F314882B48DE
:1080F8002B492C4A00F039F82B482C492C4A00F01F
:1081080034F82C482C492D4A00F02FF82C482D49DA
:108118002D4A00F02AF82D482D492E4A00F025F85E
:108128002D482E492E4A00F020F82E482E490022CC
:1081380000F026F82D482E49091A082903DB0022E9
:108148000260043001601F481F49884205D0026858
:10815800043003B4904703BCF7E700208646EC469A
:1081680000200021234A9047FEE7884207D0521A90
:1081780005D0037801300B700131013AF9D170470D
:10818800884202D002700130FAE770471A487047F7
:108198004C2500204C2500204C25002014D501003A
:1081A800C4040020080500208482000084820000A6
:1081B80058C4010050D1010000010020C40400206F
:1081C80058C4010058C4010058C4010058C4010033
:1081D80058C4010058C4010058C4010058C4010023
:1081E80050D10100080500204C1500204C15002036
:1081F8004C1500204D890000FFFFFFFFDFF86CD011
:108208001B4880471B481C490160FFF761BFFEE718
:10821800FEE7FEE7FEE7FEE7FEE7FEE7FEE7FEE72E
:10822800FEE7FEE7FEE7FEE7FEE7FEE7FEE7FEE71E
:10823800FEE7FEE7FEE7FEE7FEE7FEE7FEE7FEE70E
:10824800FEE7FEE7FEE7FEE7FEE7FEE7FEE7FEE7FE
:10825800FEE7FEE7FEE7FEE7FEE7FEE7FEE7FEE7EE
:10826800FEE7FEE7FEE7FEE7FEE7FEE70080002008
:0C827800313C010008ED00E00080000037
:1082840080B400AF72B641F2F833C2F200031B6847
:10829400B3F1FF3F0BD041F2F833C2F200031B6885
:1082A40003F1010241F2F833C2F200031A6041F211
:1082B400F833C2F200031B681846BD4680BC704701
:1082C40080B483B000AF41F2F833C2F200031B68FC
:1082D400002B17D041F2F833C2F200031B6803F1FC
:1082E400FF3241F2F833C2F200031A6041F2F8336C
:1082F400C2F200031B687B607B68002B00D162B66E
:108304007B6801E04FF00003184607F10C07BD46F7
:1083140080BC704780B500AFFFF7B2FF80BD00BFDF
:1083240080B500AFFFF7CCFF80BD00BF80B582B041
:1083340002AF4FF45240C0F202004FF001010CF0C2
:1083440013F94FF000004FF000014FF000024FF01E
:1083540000030CF08FFF4FF000004FF005014FF0C9
:1083640000024FF000030CF085FF4FF000004FF0C7
:1083740006014FF000024FF000030CF07BFF4FF0BA
:1083840002004FF002014FF000024FF000030CF026
:1083940071FF4FF002004FF003014FF000024FF065
:1083A40000030CF067FF4FF002004FF004014FF0A0
:1083B40000024FF000030CF05DFF4FF002004FF09D
:1083C40005014FF000024FF000030CF053FF4FF093
:1083D40004004FF008014FF000024FF000030CF0CE
:1083E40049FF4FF004004FF00D014FF000024FF031
:1083F40000030CF03FFF4FF004004FF00E014FF06C
:1084040000024FF000030CF035FF4FF004004FF072
:108414000F014FF000024FF000030CF02BFF4FF060
:1084240005004FF00C014FF000024FF000030CF078
:1084340021FF4FF005004FF002014FF004024FF00E
:1084440000030CF017FF4FF003004FF006014FF04C
:1084540001024FF000030CF00DFF4FF002004FF04B
:1084640001014FF004024FF001030CF003FF4FF041
:1084740002004FF000014FF004024FF001030CF032
:10848400F9FE4FF004004FF009014FF004024FF0E1
:1084940001030CF0EFFE4FF000004FF00F014FF01E
:1084A40004024FF001030CF0E5FE4FF000004FF022
:1084B40008014FF004024FF000030CF0DBFE4FF014
:1084C40002004FF006014FF004024FF000030CF0DD
:1084D400D1FE4FF002004FF007014FF004024FF0BD
:1084E40000030CF0C7FE4FF002004FF008014FF0FC
:1084F40002024FF000030CF0BDFE4FF000004FF0FD
:108504000A014FF002024FF000030CF0B3FE4FF0EB
:10851400010300934FF000004FF00A014FF00102F5
:108524004FF001030CF032FE4FF003004FF008014E
:108534004FF004024FF001030CF09CFE4FF00000DA
:108544004FF004014FF001024FF000030CF092FED3
:108554004FF0010300934FF000004FF004014FF07F
:1085640001024FF001030CF011FE4FF000004FF038
:1085740002014FF004024FF000030CF07BFE4FF0B9
:1085840000004FF003014FF004024FF000030CF021
:1085940071FE4FF004004FF00B014FF001024FF059
:1085A40000030CF067FE4FF004004FF00A014FF097
:1085B40004024FF000030CF05DFE4FF004004FF096
:1085C4000C014FF004024FF000030CF053FE4FF087
:1085D40005004FF000014FF000024FF000030CF0D3
:1085E40049FE4FF005004FF001014FF000024FF03B
:1085F40000030CF03FFE4FF002004FF009014FF072
:1086040001024FF000030CF035FE4FF0010300931C
:108614004FF002004FF009014FF001024FF0010347
:108624000CF0B4FD4FF003004FF007014FF00002CF
:108634004FF000030CF01EFE4FF002004FF00A0151
:108644004FF004024FF000030CF014FE4FF0020050
:108654004FF00B014FF004024FF000030CF00AFE40
:108664004FF005004FF005014FF004024FF00003F6
:108674000CF000FE4FF005004FF00A014FF001022C
:108684004FF000030CF0F6FD4FF005004FF00B0126
:108694004FF001024FF000030CF0ECFD4FF003002B
:1086A4004FF001014FF002024FF001030CF0E2FD24
:1086B4004FF003004FF000014FF004024FF00103AC
:1086C4000CF0D8FD4FF003004FF002014FF004020C
:1086D4004FF001030CF0CEFD4FF000004FF001010C
:1086E4004FF004024FF000030CF0C4FD4FF0030000
:1086F4004FF005014FF004024FF000030CF0BAFDF7
:108704004FF003004FF003014FF004024FF0010358
:108714000CF0B0FD4FF003004FF004014FF00202E3
:108724004FF001030CF0A6FD4FF0010300934FF04E
:1087340003004FF004014FF001024FF001030CF06D
:1087440025FD4FF000004FF009014FF004024FF0F7
:1087540000030CF08FFD4FF001004FF00B014FF0C0
:1087640004024FF000030CF085FD4FF001004FF0C0
:108774000C014FF004024FF000030CF07BFDBD46EA
:1087840080BD00BF01387FF4FDAF704780B582B073
:1087940000AF78607A684FF4D843C0F2DC2303FB5F
:1087A40002F249F68173C1F25E63A3FB02134FEA3E
:1087B40093431846FFF7E6FF07F10807BD4680BD5F
:1087C40080B582B000AF786003E04FF47A50FFF7D1
:1087D400D9FF7B68002B0CBF00230123DBB27A682E
:1087E40002F1FF327A60002BEFD107F10807BD4692
:1087F40080BD00BF80B483B000AF03463960FB7115
:108804004FF4C042C4F20002F9793B684FF0010012
:1088140000FA03F318460B464FEAC3035B184FEA0A
:108824008303D31803F11003586007F10C07BD4606
:1088340080BC704780B500AF06F0D6FA08F02AFA7B
:1088440001F068FB00F07AFB01F0BEF900F000FFD4
:1088540001F0BCF84FF0010007F096F800F020FD9D
:108864004FF48043C4F20C034FF003021A6180BD3D
:1088740080B500AF00F048FD00F02CFD4FF0010082
:1088840007F09CF801F03CFB00F05EFB01F0A6F958
:1088940000F0EEFE06F092FD06F054FA80BD00BF33
:1088A40080B500AF40F20853C2F200034FF001025A
:1088B4001A7040F20953C2F200034FF001021A7019
:1088C40003F04EFD80BD00BF80B500AF40F20853F9
:1088D400C2F200034FF000021A7040F20953C2F2D0
:1088E40000034FF000021A70FFF7C2FF03F056FDB9
:1088F40080BD00BF80B582B000AF0346FB7140F27B
:108904000853C2F200031B78FA799A420BD0FB7920
:10891400012B02D1FFF7C4FF06E0FB79002B03D142
:10892400FFF7D2FF00E000BF07F10807BD4680BD96
:1089340080B400AF40F20853C2F200031B7818461B
:10894400BD4680BC704700BF80B584B000AF0AF05C
:10895400F1FFFFF7EBFC4FF48640C0F204004FF048
:1089640001010BF001FE4CF25842C0F2010207F182
:1089740004031068516803C3127A1A704FF00C0391
:108984003B7307F1040318460DF0DCFC40F2085376
:10899400C2F200034FF000021A7040F20953C2F20F
:1089A40000034FF000021A7004F0AAFB05F0C0FEA9
:1089B4000AF0E8FA04F0DCFE4FF002004FF0010187
:1089C400FFF718FF4FF002004FF00001FFF712FF0E
:1089D4004FF004004FF00901FFF70CFF4FF00000C7
:1089E4004FF00F01FFF706FF01F080F800F028FABE
:1089F40001F000FA00F01CFC00F086FC06F0D8FC44
:108A040006F0DCFC00F0B8FF06F02AFE4FF001008F
:108A140006F058FF4FF0010006F0D0FF00F0B2FD61
:108A240000F026FE00F034FE02F018FF02F05EFEB5
:108A34000AF00CFE03F0E8FC06F07AFA4FF00100AD
:108A440004F072FB07F0C6FC07F026FE4FF0FF00AF
:108A54004FF0000107F0E4FE4FF0000007F022FFA2
:108A64004FF000004FF000014FF0000207F03EFF0E
:108A74004FF000004FF000014FF0000207F072FFCA
:108A84004FF000004FF000014FF0000207F0A6FF86
:108A94004FF0000007F0DEFF4FF0FA00FFF790FE02
:108AA4000DF038FC4FF0FF004FF0000107F0B8FE66
:108AB4004FF0FA00FFF784FE0DF02CFC4FF000009D
:108AC4004FF0FF0107F0ACFE4FF0FA00FFF778FE1D
:108AD4000DF020FC4FF000004FF0000107F0A0FE65
:108AE4004FF0FF0007F0DEFE4FF0FA00FFF768FEDC
:108AF4000DF010FC4FF0000007F0D4FE4FF0FF0023
:108B04004FF000014FF0000207F0F0FE4FF0FA00C2
:108B1400FFF756FE0DF0FEFB4FF000004FF0FF0193
:108B24004FF0000207F0E2FE4FF0FA00FFF748FEB4
:108B34000DF0F0FB4FF000004FF000014FF0FF028A
:108B440007F0D4FE4FF0FA00FFF73AFE0DF0E2FB17
:108B54004FF000004FF000014FF0000207F0C6FE96
:108B64004FF0FF004FF000014FF0000207F0FAFE53
:108B74004FF0FA00FFF724FE0DF0CCFB4FF000009D
:108B84004FF0FF014FF0000207F0ECFE4FF0FA0047
:108B9400FFF716FE0DF0BEFB4FF000004FF0000192
:108BA4004FF0FF0207F0DEFE4FF0FA00FFF708FE79
:108BB4000DF0B0FB4FF000004FF000014FF0000249
:108BC40007F0D0FE4FF0FF004FF000014FF000021D
:108BD40007F004FF4FF0FA00FFF7F2FD0DF09AFBE7
:108BE4004FF000004FF0FF014FF0000207F0F6FED7
:108BF4004FF0FA00FFF7E4FD0DF08CFB4FF000009E
:108C04004FF000014FF0FF0207F0E8FE4FF0FA00CA
:108C1400FFF7D6FD0DF07EFB4FF000004FF0000192
:108C24004FF0000207F0DAFE4FF0FF0007F012FFEA
:108C34004FF0FA00FFF7C4FD0DF06CFB4FF000009D
:108C440007F008FF4FF0FA00FFF7BAFD0DF062FBE2
:108C540006F04EF905F0EEFB05F0F6FE06F048F8D6
:108C640006F070F801F04CF900E000BF05F07EFE5C
:108C740040F20953C2F200031B78002B0DD003F01D
:108C840063FB0346002B08D040F20953C2F20003F1
:108C94004FF000021A70FFF7CDFD40F20853C2F204
:108CA40000031B78012BE0D14FF48043C4F20C0382
:108CB4009B6803F00303002BD7D04FF00000FFF7AD
:108CC40019FED2E780B483B000AF0346FB714FF4C2
:108CD4006143CEF2000397F907204FEA5212F97963
:108CE40001F01F014FF0010000FA01F143F82210D6
:108CF40007F10C07BD4680BC704700BF80B483B049
:108D040000AF0346FB714FF46143CEF2000397F9C1
:108D140007204FEA5212F97901F01F014FF00100C8
:108D240000FA01F102F1600243F8221007F10C0786
:108D3400BD4680BC704700BF80B483B000AF78608C
:108D44007B685B6A184607F10C07BD4680BC704718
:108D540080B483B000AF786039607B683A681A6287
:108D640007F10C07BD4680BC704700BF80B483B0D8
:108D740000AF786039607B685A693B681A437B6846
:108D84005A6107F10C07BD4680BC704780B483B0BC
:108D940000AF78607B689B69184607F10C07BD46F5
:108DA40080BC704780B483B000AF78600B46FB7022
:108DB400FA787B685A6007F10C07BD4680BC70479F
:108DC40080B483B000AF03463960FB714FF4C042F6
:108DD400C4F20002F9793B684FF0010000FA03F392
:108DE40018460B464FEAC3035B184FEA8303D318B4
:108DF40003F11003586007F10C07BD4680BC7047AF
:108E040080B483B000AF03463960FB714FF4C042B5
:108E1400C4F20002F9793B684FF0010000FA03F351
:108E240018460B464FEAC3035B184FEA8303D31873
:108E340003F11003186007F10C07BD4680BC7047AE
:108E440080B500AF4FF000004FF0000100F0E0F8F3
:108E54004FF001004FF0000100F0DAF84FF002008B
:108E64004FF0000100F0D4F880BD00BF90B583B08E
:108E740000AF48F2B213C0F6E0731B78FB7148F2FE
:108E8400BE13C0F6E0731B884FEA13139BB23B601A
:108E9400FB79184611F0E0FF044640F20C53C2F28D
:108EA40000031B683A68D31A184611F0D5FF03462D
:108EB400184648F62821C3F6226112F0E5F8034665
:108EC4002046194612F046F80346184607F10C07E7
:108ED400BD4690BD80B500AF40F21053C2F200030E
:108EE4001B68184611F0D0FF034618464DF29A51FC
:108EF400C3F68C2112F0C8F80346184680BD00BFA3
:108F040080B500AF40F21453C2F200031B68184648
:108F140011F0BAFF034618464DF29A51C3F60C21DC
:108F240012F0B2F80346184642F2C551C4F2832146
:108F340012F0AAF80346184680BD00BF80B400AF03
:108F4400BD4680BC704700BF80B400AFBD4680BC46
:108F5400704700BF80B582B000AF4FF40050C4F238
:108F64000000FFF7E9FE786040F21953C2F20003F3
:108F74001B78DBB2012B0AD0022B15D0002B1AD19F
:108F840040F20C53C2F200037A681A6013E04FF007
:108F940005004FF00201FFF713FF40F21053C2F235
:108FA40000037A681A6006E040F21453C2F2000328
:108FB4007A681A6000BF40F21853C2F200034FF0FF
:108FC40001021A704FF40050C4F200004FF0010186
:108FD400FFF7BEFE4FF00700FFF790FE4FF400705E
:108FE400C0F203004FF000010BF0BEFA07F10807CE
:108FF400BD4680BD80B500AFFFF7ACFF40F21C5307
:10900400C2F200031B68184605F01EFC80BD00BFB9
:1090140080B588B000AF02460B46FA71BB714FF4BD
:109024000070C0F203004FF001010BF09DFA4FF005
:1090340000033B764FF000037B764FF00003BB76D2
:109044004FF01F03FB764FF000033B774FF0000314
:109054007B774FF000000AF089FF0346FB764CF65D
:10906400C070C0F26A004FF000010AF043FF0346EB
:109074003B774FF000033B734FF000037B734FF0DB
:109084000003BB734FF00003FB734FF000033B740A
:109094004FF000037B744FF00003BB744FF00003E8
:1090A400FB744FF000033B754FF00203BB734FF0AA
:1090B40008037B73FB79012B11D0022B20D0002BEA
:1090C40029D14FF00003BB734FF008033B7440F207
:1090D4001C53C2F200034FF020021A601BE04FF051
:1090E40005004FF00201FFF78BFE4FF006033B74BF
:1090F40040F21C53C2F200034FF040021A600AE02F
:109104004FF007033B7440F21C53C2F200034FF0CC
:1091140080021A6000BF07F118034FF40050C4F234
:10912400000019460AF062FE07F10C034FF40050E8
:10913400C4F2000019460AF08DFE4FF40050C4F248
:1091440000004FF00101FFF711FEBB79002B03D0A3
:109154004FF00700FFF7B6FD40F21953C2F20003C7
:10916400FA791A7040F21853C2F200034FF0000269
:109174001A704FF40050C4F200004FF00101FFF7E1
:1091840011FEBB7983F00103DBB2002B0DD000BFCD
:109194004FF40050C4F20000FFF7F8FD034603F05B
:1091A4000103002BF4D0FFF7D5FE07F12007BD46DD
:1091B40080BD00BF80B483B000AF0346FB714FF4A1
:1091C4006143CEF2000397F907204FEA5212F9796E
:1091D40001F01F014FF0010000FA01F102F16002F9
:1091E40043F8221007F10C07BD4680BC704700BF4E
:1091F40080B483B000AF03463960FB714FF4C042C2
:10920400C4F20002F9793B684FF0010000FA03F35D
:1092140018460B464FEAC3035B184FEA8303D3187F
:1092240003F11003186007F10C07BD4680BC7047BA
:1092340090B585B000AF4FF44240C0F202004FF049
:1092440001010BF091F94CF26443C0F201033C4676
:109254000FCB84E80F004FF4D843C0F2DC237B60CB
:1092640046F63C53C0F20103BB603B464FF4244036
:10927400C4F2000019460CF04FF94FF42443C4F231
:10928400000340F203129A634FF42440C4F2000036
:109294004FF001010CF02EF907F11407BD4690BD03
:1092A40080B500AF4FF42443C4F200034FF0000232
:1092B4009A634FF42440C4F200004FF000010CF014
:1092C40019F94FF44240C0F202004FF000010BF0D4
:1092D4004BF980BD80B500AF4FF44240C0F20200AC
:1092E4004FF001010BF040F94FF42443C4F20003A2
:1092F40040F203129A634FF42440C4F200004FF08A
:1093040001010CF0F7F880BD80B500AF4FF001000B
:109314004FF00B014FF008024FF001030BF0AAFFCE
:109324004FF001004FF00C014FF008024FF0010321
:109334000BF0A0FF4FF000004FF00901FFF758FFBA
:109344004FF06400FFF73CFA4FF00A00FFF732FFDA
:1093540080BD00BF80B500AF4FF42440C4F20000CC
:109364000CF00AF903461A4640F22053C2F20003F5
:109374001A7080BD80B584B000AF78604FF00003F0
:10938400FB605BE04FF42440C4F2000079680CF009
:1093940041FB03461A4640F22053C2F200031A70FE
:1093A4004FF00003BB6019E04FF42440C4F2000006
:1093B4000CF0E2F803461A4640F22053C2F20003CE
:1093C4001A7040F22053C2F200031B78DBB25BB286
:1093D400012B09D1BB6803F10103BB60BA6842F2F7
:1093E4000F739A42E0D900E000BF40F22053C2F26A
:1093F40000031B78DBB25BB2B3F1FF3F04D1FB681F
:1094040003F10103FB6019E040F22053C2F20003B0
:109414001B78DBB2002B0ED04CF27440C0F201007A
:109424004FF04A014CF2B842C0F2010203F09CFE34
:109434004FF0000313E04FF0010310E0FB68042B2E
:10944400A0D94CF27440C0F201004FF04F014CF22D
:10945400B842C0F2010203F087FE4FF00003184641
:1094640007F11007BD4680BD80B588B000AF0B463C
:109474003A600246FA71BB71FB799BB2BB814FF033
:109484000403FB8107F106033B614FF00103BB8238
:109494003B68BB614FF00103BB8307F10C03184623
:1094A400FFF768FF0346184607F12007BD4680BD55
:1094B40080B588B000AF13460246FA710A46BA7105
:1094C4007B71FB799BB2BB814FF00803FB8107F1F1
:1094D40006033B614FF00103BB8207F10503BB6147
:1094E4004FF00103BB8307F10C031846FFF742FF5B
:1094F4000346184607F12007BD4680BD80B586B0F7
:1095040002AF4FF480304FF0AF0106F02DFD03465B
:10951400BB73BB7B03F01F03FB7323E04FF0E80333
:109524003B7307F10C0207F104034FF006010091AD
:109534004FF4803011464FF0010206F0CBFC40F2AC
:109544002453C2F200031B68002B0BD040F22453B7
:10955400C2F200031B68B888F9883A8900B209B2DC
:1095640012B29847FB7B002B0CBF00230123DBB214
:10957400FA7B02F1FF32FA73002BCFD107F1100707
:10958400BD4680BD80B582B000AF40F22453C2F224
:1095940000034FF000021A604FF480304FF08F0147
:1095A40006F0E2FC0346FB71FB79332B0CD04CF242
:1095B400BC40C0F201004FF07A014CF20052C0F2FC
:1095C400010203F0D1FD2FE04FF480304FF023016E
:1095D4004FF0880206F030FC4FF480304FF02E013B
:1095E4004FF0000206F028FC4FF480304FF02E01BB
:1095F4004FF0900206F020FC4FF480304FF022012F
:109604004FF0060206F018FC4FF480304FF02401AE
:109614004FF0400206F010FC4FF0040049F20151F3
:10962400C0F2000105F0DEF807F10807BD4680BD71
:1096340080B483B000AF786040F22453C2F20003D8
:109644007A681A6007F10C07BD4680BC704700BFFA
:1096540080B500AF4FF0040005F00CF94FF48030F2
:109664004FF020014FF0000206F0E6FB80BD00BF82
:1096740080B500AF4FF0040005F012F94FF48030CC
:109684004FF020014FF03F0206F0D6FB80BD00BF33
:1096940080B483B000AF40F22853C2F200034FF00D
:1096A40000021A6040F22C53C2F200034FF0000291
:1096B4001A6040F25053C2F200034FF000021A60E5
:1096C4004FF000037B600CE040F23053C2F2000321
:1096D4007A689B184FF000021A707B6803F101034B
:1096E4007B607B681F2BEFDD07F10C07BD4680BC58
:1096F400704700BF80B400AF40F22853C2F20003A9
:109704001B68002B0CBF00230123DBB21846BD46A7
:1097140080BC704780B582B000AF786040F22853B7
:10972400C2F200037A681A6002F088F807F10807A9
:10973400BD4680BD80B582B000AF786040F228534A
:10974400C2F200031A687B68D21840F22853C2F2AE
:1097540000031A6040F22853C2F200031B68012B75
:1097640008D902F05BF840F22853C2F200034FF02C
:1097740001021A6002F062F807F10807BD4680BDD5
:1097840080B582B000AF786040F22853C2F2000383
:109794001B687A689A4209D902F040F840F22853CB
:1097A400C2F200034FF000021A600DE040F22853A9
:1097B400C2F200031A687B68D21A40F22853C2F23C
:1097C40000031A6002F03AF807F10807BD4680BDAD
:1097D40080B400AF40F22C53C2F200031B68002B8C
:1097E4000CBF00230123DBB21846BD4680BC704782
:1097F40080B582B000AF786040F22C53C2F200030F
:109804007A681A6002F022F807F10807BD4680BDA5
:1098140080B582B000AF786040F22C53C2F20003EE
:109824001A687B68D21840F22C53C2F200031A6003
:1098340040F22C53C2F200031B68022B08D901F03A
:10984400EDFF40F22C53C2F200034FF002021A6003
:1098540001F0FCFF07F10807BD4680BD80B582B06A
:1098640000AF786040F22C53C2F200031B687A68A0
:109874009A4209D901F0D2FF40F22C53C2F20003FC
:109884004FF000021A600DE040F22C53C2F20003C4
:109894001A687B68D21A40F22C53C2F200031A6091
:1098A40001F0D4FF07F10807BD4680BD80B400AFC6
:1098B40040F25053C2F200034FF000021A60BD465A
:1098C40080BC704780B582B000AF7860396040F2E8
:1098D4005053C2F200031A683B68D318202B02D9F4
:1098E40001F09CFF1AE040F25053C2F200031A68E0
:1098F40040F23053C2F20003D318184679683A682C
:1099040012F0AAFA40F25053C2F200031A683B68FC
:10991400D21840F25053C2F200031A6007F108074C
:10992400BD4680BD80B582B000AF78603960FFF776
:10993400BDFF78683968FFF7C5FF02F001F807F149
:109944000807BD4680BD00BF80B584B000AFF86095
:10995400B9607A603B60FFF7A9FFF868B968FFF760
:10996400B1FF78683968FFF7ADFF01F0E9FF07F14F
:109974001007BD4680BD00BF80B582B000AF07F1BF
:1099840006034FF01C004FF007011A46FFF76CFD69
:109994000346FB71FB7983F00103DBB2002B11D189
:1099A400BB79C42B0CD04CF20450C0F201004FF030
:1099B4002D014CF24C52C0F2010203F0D5FB01E040
:1099C40000F004F807F10807BD4680BD80B582B0F9
:1099D40000AF4FF01C004FF011014FF00002FFF7F1
:1099E40067FD0346FB71FB7983F00103DBB2002BB7
:1099F4000CD04CF20450C0F201004FF04C014CF278
:109A04004C52C0F2010203F0AFFB1CE04FF01C000B
:109A14004FF010014FF00002FFF74AFD0346FB71BF
:109A2400FB7983F00103DBB2002B0CD04CF2045021
:109A3400C0F201004FF051014CF24C52C0F201024D
:109A440003F092FB00BF07F10807BD4680BD00BFCD
:109A540080B483B000AF0346FB714FF46143CEF290
:109A6400000397F907204FEA5212F97901F01F0118
:109A74004FF0010000FA01F143F8221007F10C073E
:109A8400BD4680BC704700BF80B400AF4FF00003F8
:109A9400C4F208035B681846BD4680BC704700BF2B
:109AA40080B483B000AF78604FF00003C4F20803C1
:109AB4007A689A6107F10C07BD4680BC704700BF05
:109AC40080B483B000AF78604FF00003C4F20803A1
:109AD4004FF00002C4F20802D1697A680A43DA61DD
:109AE40007F10C07BD4680BC704700BF80B582B04B
:109AF40000AF40F25453C2F200034FF000021A6068
:109B04004FF48640C0F204004FF001010AF02CFD2E
:109B14004FF000004FF001014FF001020BF042F949
:109B24004FF00200C0F206004FF002010AF074FF89
:109B34004FF00300C0F212004FF002010AF06CFF74
:109B440041F23040C0F208004FF001010AF00CFD70
:109B54004FF48640C0F204004FF001010AF004FD06
:109B64004FF40043C4F20C034FF40042C4F20C025D
:109B7400126822F0607242F400021A604FF400434B
:109B8400C4F20C034FF00202C3F8802000F026F860
:109B94004FF00200FFF794FF4FF01E00FFF758FF4D
:109BA4004CF25053C0F2010307F1040219889B7868
:109BB4001180937007F1040318460CF087F907F13C
:109BC4000807BD4680BD00BF80B500AF4FF0000060
:109BD4004FF6FF710CF046F980BD00BF80B500AFB1
:109BE4004FF0000040F2FF310CF03CF90CF098F912
:109BF40080BD00BF80B582B000AF3B4683E8030060
:109C0400FEF788FB4FF000533A685A604FF0005259
:109C140079684DF68363C4F21B33A3FB01034FEA57
:109C2400533347F6122101FB03F39360FEF778FBED
:109C340007F10807BD4680BD80B584B000AF7860E9
:109C4400FEF768FB4FF000539B68FB604FF0005336
:109C54005B68BB60FEF764FB7B6807F1080292E86F
:109C6400030083E80300786807F11007BD4680BD50
:109C740080B586B000AF786000E000BF4FF00053BD
:109C84009B68FB604FF000535B68BB60FFF7FCFE12
:109C940078614FF000539B683B61FA683B699A42D4
:109CA400EBD100BFFA687B6947F6122101FB03F38D
:109CB4004FEA9323D318FB607B6807F1080292E80C
:109CC400030083E80300786807F11807BD4680BDE8
:109CD40080B582B000AF7860FEF71CFB40F25453AD
:109CE400C2F200037A681A60FEF71AFB07F108074C
:109CF400BD4680BD80B400AF40F25453C2F20003AD
:109D04001B681846BD4680BC704700BF80B582B052
:109D140000AF4FF00200FFF7C3FE4FF000533B606B
:109D24004FF00003C4F208039A6840F2FF339A42EA
:109D340037D13B689B6803F5F44303F112037B605E
:109D44007A6844F23F23C0F20F039A420BD97B682E
:109D5400A3F57423A3F510737B603B685B6803F180
:109D640001023B685A603B687A689A6040F2545337
:109D7400C2F200031B68002B19D040F25453C2F204
:109D840000031B6803F1FF331A4640F25453C2F236
:109D940000031A60002A0AD14FF4807004F054FDC5
:109DA40005E03B685B6803F102023B685A6007F117
:109DB4000807BD4680BD00BF90B400AF48F2B013A1
:109DC400C0F6E0735C6C22464FF0000311464FF07E
:109DD400000048F2B013C0F6E0731C6C22464FF04A
:109DE400000342EA000243EA010310461946BD4655
:109DF40090BC704780B584B000AF40F25863C2F2A3
:109E040000034FF000021A7040F2CC70C2F200005E
:109E140040F2A061C2F200014FF4967203F060FABE
:109E240040F62400C2F200004FF0400140F6340234
:109E3400C2F200024FF4A57303F0FCFB4AF2650082
:109E4400C0F2000004F0A4FC4FF400604AF2A11137
:109E5400C0F2000104F0C6FCFFF7AEFFC7E902013F
:109E64004FF000037B602BE03B7A03F00F03FB70A1
:109E7400FB78092B04D8FB7803F13003FB7003E073
:109E8400FB7803F13703FB70FB7899B240F2C442CC
:109E9400C2F200027B684FEA4303D3180A465A8091
:109EA400FB684FEA0373BA684FEA12121343BB60AC
:109EB400FB684FEA1313FB607B6803F101037B60CB
:109EC4007B680F2BD0D907F11007BD4680BD00BFBA
:109ED40080B500AF0CF06EFE0346002B0CBF0023D0
:109EE4000123DBB2184680BD80B500AF0CF062FEE2
:109EF4000346052B14BF00230123DBB2184680BDA3
:109F040080B500AF4CF22460C0F201000CF05EFE9C
:109F140080BD00BF80B500AF0DF0E4F980BD00BF87
:109F240080B483B000AF0346FB7140F25863C2F2C1
:109F340000031A78114640F25853C2F20003F8792C
:109F4400585402F10103DAB240F25863C2F200033A
:109F54001A704FF00003184607F10C07BD4680BC89
:109F6400704700BF80B588B000AF78606FF002031F
:109F7400FB617B681B7803F06003DBB2002B66D1C6
:109F84007B681B7823F07F03DBB2002B5FD07B68F8
:109F94001B7803F01F03DBB2012B58D17B685B787D
:109FA400062B54D17B685B889BB24FEA13239BB288
:109FB400222B1DD14FF02003BB617B689A79DB799A
:109FC4004FEA03231343FB82FA8ABB699A4238BFE0
:109FD40013464FF000004CF26851C0F201011A46DA
:109FE4004FF000030DF09CF94FF00003FB612DE0EE
:109FF4007B685B889BB24FEA13239BB2212B25D14C
:10A0040040F68010C2F2000014494FF0090211F02A
:10A0140023FF4FF009033B617B689A79DB794FEAB0
:10A0240003231343FB81FA893B699A42B8BF134661
:10A034004FF0000040F68011C2F200011A464FF0C2
:10A0440000030DF06DF94FF00003FB6100BFFB69E5
:10A05400184607F12007BD4680BD00BF9AC5010020
:10A0640080B500AF0DF0E4F80346184680BD00BF8C
:10A0740080B582B000AF02460B46FA71BB71BB7962
:10A08400052B05D140F2CC70C2F2000003F04AF96E
:10A094004FF4406004F0D8FB07F10807BD4680BDCB
:10A0A40080B584B000AF0346B9607A60FB734FF4A7
:10A0B400006004F0C9FB97F90F30002B0ED04CF26E
:10A0C4004060C0F2010003F0FBF840F2CC70C2F231
:10A0D400000003F027F94FF0000347E040F2CC7092
:10A0E400C2F2000040F26061C2F20001BA6803F0FB
:10A0F400C3F940F2CC70C2F2000003F02DF903461C
:10A10400032B31D801A252F823F000BF6DA1000047
:10A114006DA1000021A1000053A1000040F2CC7306
:10A12400C2F200031A6840F2CC73C2F20003DB6887
:10A1340040F62400C2F2000011461A4604F0BCF8AE
:10A1440040F2CC70C2F2000003F0ECF80CE04CF2E8
:10A154004060C0F2010003F0B3F840F2CC70C2F2E8
:10A16400000003F0DFF800BF4FF00003184607F1CA
:10A174001007BD4680BD00BF80B584B000AF034664
:10A18400B9607A60FB734FF4006004F05DFB4FF03C
:10A194000003184607F11007BD4680BD80B582B0A4
:10A1A40000AF0CF007FD0346052B57D14FF001001B
:10A1B4000CF0DAFC034683F00103DBB2002B1ED063
:10A1C4004FF0010040F26061C2F200014FF0400222
:10A1D4004AF2A503C0F200030CF07CFF78607B68B0
:10A1E400002B10D040F25C63C2F200031B6803F141
:10A1F400010240F25C63C2F200031A6003E04FF410
:10A20400006004F021FB4FF081000CF0ADFC03462C
:10A2140083F00103DBB2002B1BD040F62400C2F212
:10A22400000040F2E471C2F2000103F057FA034661
:10A23400002B14D04FF0810040F2E471C2F200010F
:10A244004FF040024AF27D13C0F200030DF068F8AB
:10A2540005E04FF4006004F0F7FA00E000BF07F1F6
:10A264000807BD4680BD00BF80B584B000AF03467B
:10A27400B9607A60FB73FB7B184600F01DFE07F1A2
:10A284001007BD4680BD00BF80B586B000AF034651
:10A29400B9607A60FB73FB7B002B04D0FB7B184610
:10A2A40000F016FE21E07B68022B02D001F0B6FA22
:10A2B4001BE0BB681B784FEA03239AB2BB6803F127
:10A2C40001031B7813439BB2FB82FB8A1BB2002B56
:10A2D40007DBFB8A03F00103002B02D000F004FE2D
:10A2E40003E0FB8A184601F0BFFF07F11807BD46DB
:10A2F40080BD00BF80B584B000AF0346B9607A600A
:10A30400FB73FB7B002B04D0FB7B184600F0F2FDB3
:10A3140001E000F0FBFD07F11007BD4680BD00BF62
:10A3240080B584B000AF0346B9607A60FB73FB7BF1
:10A33400012B02D0022B03D005E001F00DFE07E053
:10A3440001F042FE04E0FB7B184600F0E5FD00BF8F
:10A3540007F11007BD4680BD80B588B000AF034645
:10A36400B9607A60FB73FB7B012B02D0022B12D005
:10A3740014E0BB681B78FB77BB6803F10103BB6186
:10A384007B6803F1FF337B61FB7F1846B9697A6907
:10A3940000F0DAFD07E000F0E3FD04E0FB7B184683
:10A3A40000F0C6FD00BF07F12007BD4680BD00BF19
:10A3B40080B584B000AF0346B9607A60FB73FB7B61
:10A3C400012B02D0022B03D005E000F0DBFD07E0F7
:10A3D40000F0DEFD04E0FB7B184600F0C7FD00BF83
:10A3E40007F11007BD4680BD80B58AB002AF0346B1
:10A3F400B9607A60FB73FB7B002B04D0FB7B1846AF
:10A4040000F0CCFD1FE0B86802F072FB0346FB834A
:10A41400BB689B787B77BB68DB783B77BB6803F1D1
:10A424000403184602F07AFBB861BB681B7AFB751B
:10A43400F98B7A7F3B7FF87D0090084611461A46D7
:10A44400BB6900F0B7FD07F12007BD4680BD00BF22
:10A4540080B586B000AF0346B9607A60FB73FB7BBE
:10A46400002B04D0FB7B184600F0B4FD09E0BB6868
:10A474007B61BB689B79FB74FB7C7869194600F0AF
:10A48400B5FD07F11807BD4680BD00BF80B586B095
:10A4940000AF0346B9607A60FB73FB7B002B04D0EA
:10A4A400FB7B184600F0AEFD15E0B86802F020FB17
:10A4B4000346FB82FB8A184610F0CEFC034618467E
:10A4C40044F2AE71C4F2610110F0DEFD03463B615B
:10A4D400386900F0A3FD07F11807BD4680BD00BF31
:10A4E40080B586B000AF0346B9607A60FB73FB7B2E
:10A4F400002B04D0FB7B184600F09AFD14E0B868EA
:10A5040002F0F6FA0346FB82B7F91630184610F04B
:10A51400A3FC034618464FF07A5110F0B5FD0346EC
:10A524003B61386900F090FD07F11807BD4680BD16
:10A5340080B584B000AF0346B9607A60FB73FB7BDF
:10A54400002B04D0FB7B184600F088FD01E000F0EE
:10A5540091FD07F11007BD4680BD00BF80B584B0F2
:10A5640000AF0346B9607A60FB73FB7B002B04D019
:10A57400FB7B184600F084FD01E000F08DFD07F13F
:10A584001007BD4680BD00BF80B584B000AF034650
:10A59400B9607A60FB73FB7B002B04D0FB7B18460D
:10A5A40000F080FD01E000F089FD07F11007BD46D1
:10A5B40080BD00BF80B584B000AF0346B9607A6047
:10A5C400FB73FB7B002B04D0FB7B184600F07CFD67
:10A5D40001E000F085FD07F11007BD4680BD00BF16
:10A5E40080B584B000AF0346B9607A60FB73FB7B2F
:10A5F400002B04D0FB7B184600F078FD01E000F04E
:10A6040081FD07F11007BD4680BD00BF80B584B051
:10A6140000AF0346B9607A60FB73FB7B002B04D068
:10A62400FB7B184600F074FD01E000F07DFD07F1AE
:10A634001007BD4680BD00BF80B584B000AF03469F
:10A64400B9607A60FB73FB7B002B04D0FB7B18465C
:10A6540000F070FD01E000F079FD07F11007BD4640
:10A6640080BD00BF80B584B000AF0346B9607A6096
:10A67400FB73FB7B002B04D0FB7B184600F06CFDC6
:10A6840001E000F075FD07F11007BD4680BD00BF75
:10A6940080B584B000AF0346B9607A60FB73FB7B7E
:10A6A400002B04D0FB7B184600F068FD01E000F0AD
:10A6B40071FD07F11007BD4680BD00BF80B584B0B1
:10A6C40000AF0346B9607A60FB73FB7B002B04D0B8
:10A6D400FB7B184600F064FD01E000F06DFD07F11E
:10A6E4001007BD4680BD00BF80B584B000AF0346EF
:10A6F400B9607A60FB73FB7B002B04D0FB7B1846AC
:10A7040000F060FD01E000F069FD07F11007BD46AF
:10A7140080BD00BF80B584B000AF0346B9607A60E5
:10A72400FB73FB7B002B04D0FB7B184600F05CFD25
:10A7340001E000F065FD07F11007BD4680BD00BFD4
:10A7440080B584B000AF0346B9607A60FB73FB7BCD
:10A75400002B04D0FB7B184600F058FD01E000F00C
:10A7640061FD07F11007BD4680BD00BF80B584B010
:10A7740000AF0346B9607A60FB73FB7B002B04D007
:10A78400FB7B184600F054FD01E000F05DFD07F18D
:10A794001007BD4680BD00BF80B584B000AF03463E
:10A7A400B9607A60FB73FB7B002B04D0FB7B1846FB
:10A7B40000F050FD01E000F059FD07F11007BD461F
:10A7C40080BD00BF80B584B000AFBA607B60034633
:10A7D400FB730B46BB73FB7B052B03D04FF00100CF
:10A7E400FEF7A8FFFB7B03F1FF331E2B00F2F18081
:10A7F40001A252F823F000BF79A80000D7A90000F5
:10A8040087A80000D7A9000095A80000A3A800000D
:10A81400B1A80000BFA80000CDA80000DBA800007C
:10A82400E9A80000F7A80000C9A9000005A90000D4
:10A8340013A9000021A900002FA900003DA90000D0
:10A844004BA9000059A90000D7A90000D7A900000E
:10A85400D7A90000D7A9000067A9000075A90000C6
:10A8640083A9000091A900009FA90000ADA90000E0
:10A87400BBA90000BB7B1846B9687A68FFF7F4FCF3
:10A88400AAE0BB7B1846B9687A68FFF7FDFCA3E031
:10A89400BB7B1846B9687A68FFF72CFD9CE0BB7B4C
:10A8A4001846B9687A68FFF73BFD95E0BB7B18460C
:10A8B400B9687A68FFF750FD8EE0BB7B1846B9682B
:10A8C4007A68FFF775FD87E0BB7B1846B9687A683C
:10A8D400FFF78AFD80E0BB7B1846B9687A68FFF70A
:10A8E400B7FD79E0BB7B1846B9687A68FFF7CEFDFF
:10A8F40072E0BB7B1846B9687A68FFF7F1FD6BE03C
:10A90400BB7B1846B9687A68FFF712FE64E0BB7B2C
:10A914001846B9687A68FFF721FE5DE0BB7B1846EC
:10A92400B9687A68FFF730FE56E0BB7B1846B96811
:10A934007A68FFF73FFE4FE0BB7B1846B9687A6838
:10A94400FFF74EFE48E0BB7B1846B9687A68FFF70C
:10A954005DFE41E0BB7B1846B9687A68FFF76CFE80
:10A964003AE0BB7B1846B9687A68FFF77BFE33E0B0
:10A97400BB7B1846B9687A68FFF78AFE2CE0BB7B7C
:10A984001846B9687A68FFF799FE25E0BB7B18463C
:10A99400B9687A68FFF7A8FE1EE0BB7B1846B96861
:10A9A4007A68FFF7B7FE17E0BB7B1846B9687A6888
:10A9B400FFF7C6FE10E0BB7B1846B9687A68FFF75C
:10A9C400D5FE09E0BB7B1846B9687A68FFF7E4FE58
:10A9D40002E000F023FF00BF07F11007BD4680BD71
:10A9E40080B584B000AF786039603B68042B02D036
:10A9F40000F014FF10E07B685B78FB737B689B7846
:10AA0400BB737B68DB787B73F97BBA7B7B7B084603
:10AA140011461A4601F04EFA07F11007BD4680BDF3
:10AA240080B582B000AF786039607B6803F10102C1
:10AA34003B6803F1FF331046194600F01DFC07F193
:10AA44000807BD4680BD00BF80B584B000AF786004
:10AA540039607B6803F10103184602F049F80346A4
:10AA6400FB817B6803F10303BB60FB891846B9686B
:10AA740000F00CFC07F11007BD4680BD80B586B020
:10AA840000AF786039603B68022B02D800F0C6FE44
:10AA940015E07B685B78FB757B689B78BB757B688E
:10AAA40003F103033B613B68A3F10303FB60FA7DFD
:10AAB400BB7D104619463A69FB68FFF783FE07F130
:10AAC4001807BD4680BD00BF80B588B002AF78606E
:10AAD40039603B680F2B02D000F0A0FE2CE07B68AD
:10AAE4005B78FB757B6803F102033B617B6803F1D0
:10AAF4000803184601F0FCFF0346FB817B6803F161
:10AB04000A03184601F0F4FF0346BB817B6803F196
:10AB14000C03184601F0ECFF03467B817B689B7BAA
:10AB24007B72F97DFA89BB8978890090787A0190E3
:10AB34000846396901F056FA07F11807BD4680BD89
:10AB440080B584B000AF786039603B68032B02D0D5
:10AB540000F064FE0BE07B685B78FB737B689B789A
:10AB6400BB73FA7BBB7B1046194601F065FA07F10B
:10AB74001007BD4680BD00BF90B587B002AF7860B6
:10AB840039603B68072B02D000F048FE1BE07B686D
:10AB94005B78FB737B689B78BB737B68DB787B7328
:10ABA4007B681B793B737B685B79FB727B689B7961
:10ABB400BB72F87BB97B7A7B3B7BFC7A0094BC7AD2
:10ABC400019400F06FFB07F11407BD4690BD00BF70
:10ABD40080B586B000AF786039603B68112B02D035
:10ABE40000F01CFE15E07B6803F10103184601F038
:10ABF400B7FFC7E904017B6803F10903184601F0B4
:10AC0400AFFFC7E90201D7E90401D7E9022301F044
:10AC140085FA07F11807BD4680BD00BF80B584B032
:10AC240000AF786039603B68072B02D000F0F6FD76
:10AC34001FE07B6803F10103184601F059FF034646
:10AC4400FB817B6803F10303184601F051FF0346BF
:10AC5400BB817B6803F10503184601F049FF0346F5
:10AC64007B81F989BA897B89084611461A4600F026
:10AC740025FB07F11007BD4680BD00BF80B584B039
:10AC840000AF786039603B68072B02D000F0C6FD46
:10AC940006E07B6803F10103FB60F86800F01CFB2D
:10ACA40007F11007BD4680BD80B584B000AF786061
:10ACB40039603B68022B02D000F0B0FD06E07B68EF
:10ACC4005B78FB73FB7B184600F010FB07F1100761
:10ACD400BD4680BD80B584B000AF786039603B6804
:10ACE400022B02D000F09AFD06E07B685B78FB73D0
:10ACF400FB7B184601F004FA07F11007BD4680BD3E
:10AD040080B586B000AF786039603B68022B02D80A
:10AD140000F084FD15E07B685B78FB757B689B78AD
:10AD2400BB757B6803F103033B613B68A3F1030339
:10AD3400FB60FA7DBB7D104619463A69FB6801F059
:10AD4400FDF807F11807BD4680BD00BF80B586B089
:10AD540000AF786039603B68012B02D800F05EFDDB
:10AD640010E07B685B78FB757B6803F102033B6151
:10AD74003B68A3F10203FB60FB7D18463969FA685E
:10AD840001F04CFA07F11807BD4680BD80B584B0C8
:10AD940000AF786039603B68022B02D000F03EFDC2
:10ADA40006E07B685B78FB73FB7B184600F0A8FA2F
:10ADB40007F11007BD4680BD80B584B000AF786050
:10ADC40039607B681B78FB73FB7BA3F181030E2B3B
:10ADD4006BD801A252F823F019AE000023AE000094
:10ADE4002DAE000037AE000041AE00004BAE0000B7
:10ADF40055AE00005FAE000069AE000087AE0000F3
:10AE0400A5AE00009BAE000091AE000073AE000042
:10AE14007DAE000078683968FFF7E2FD48E07868A5
:10AE24003968FFF7FDFD43E078683968FFF70CFEE9
:10AE34003EE078683968FFF721FE39E078683968C0
:10AE4400FFF742FE34E078683968FFF779FE2FE0B7
:10AE540078683968FFF790FE2AE078683968FFF768
:10AE6400B7FE25E078683968FFF7D8FE20E07868F7
:10AE74003968FFF703FF1BE078683968FFF714FFB0
:10AE840016E078683968FFF725FF11E078683968BB
:10AE9400FFF736FF0CE078683968FFF757FF07E0E3
:10AEA40078683968FFF772FF02E000F0B7FC00BF72
:10AEB40007F11007BD4680BD80B582B000AF0346E0
:10AEC400FB7100F0ABFC07F10807BD4680BD00BF75
:10AED40080B582B000AF0346FB7100F09FFC07F120
:10AEE4000807BD4680BD00BF80B500AF00F096FCEA
:10AEF40080BD00BF80B582B000AF0346FB7100F097
:10AF04008DFC07F10807BD4680BD00BF80B400AFCB
:10AF1400BD4680BC704700BF80B582B000AF034619
:10AF2400FB7100F07BFC07F10807BD4680BD00BF44
:10AF340080B582B000AF0346FB7100F06FFC07F1EF
:10AF44000807BD4680BD00BF80B485B000AFF8607F
:10AF5400B9607A6007F11407BD4680BC704700BF32
:10AF640080B400AFBD4680BC704700BF80B582B0DE
:10AF740000AF0346FB7100F051FC07F10807BD4622
:10AF840080BD00BF80B400AFBD4680BC704700BF29
:10AF940080B400AFBD4680BC704700BF80B582B0AE
:10AFA40000AF0346FB7100F039FC07F10807BD460A
:10AFB40080BD00BF80B483B000AF3B600346FB801C
:10AFC4000B467B7113463B7107F10C07BD4680BCF1
:10AFD400704700BF80B582B000AF0346FB7100F03C
:10AFE4001DFC07F10807BD4680BD00BF80B483B0D7
:10AFF40000AF78600B46FB7007F10C07BD4680BCC0
:10B00400704700BF80B582B000AF0346FB7100F00B
:10B0140005FC07F10807BD4680BD00BF80B483B0BE
:10B0240000AF786007F10C07BD4680BC704700BFD5
:10B0340080B582B000AF0346FB7100F0EFFB07F16F
:10B044000807BD4680BD00BF80B483B000AF786000
:10B0540007F10C07BD4680BC704700BF80B582B0C5
:10B0640000AF0346FB7100F0D9FB07F10807BD46AA
:10B0740080BD00BF80B400AFBD4680BC704700BF38
:10B0840080B582B000AF0346FB7100F0C7FB07F147
:10B094000807BD4680BD00BF80B400AFBD4680BC7C
:10B0A400704700BF80B582B000AF0346FB7100F06B
:10B0B400B5FB07F10807BD4680BD00BF80B400AFF3
:10B0C400BD4680BC704700BF80B582B000AF034668
:10B0D400FB7100F0A3FB07F10807BD4680BD00BF6C
:10B0E40080B400AFBD4680BC704700BF80B582B05D
:10B0F40000AF0346FB7100F091FB07F10807BD4662
:10B1040080BD00BF80B400AFBD4680BC704700BFA7
:10B1140080B582B000AF0346FB7100F07FFB07F1FE
:10B124000807BD4680BD00BF80B400AFBD4680BCEB
:10B13400704700BF80B582B000AF0346FB7100F0DA
:10B144006DFB07F10807BD4680BD00BF80B400AFAA
:10B15400BD4680BC704700BF80B582B000AF0346D7
:10B16400FB7100F05BFB07F10807BD4680BD00BF23
:10B1740080B400AFBD4680BC704700BF80B582B0CC
:10B1840000AF0346FB7100F049FB07F10807BD4619
:10B1940080BD00BF80B400AFBD4680BC704700BF17
:10B1A40080B582B000AF0346FB7100F037FB07F1B6
:10B1B4000807BD4680BD00BF80B400AFBD4680BC5B
:10B1C400704700BF80B582B000AF0346FB7100F04A
:10B1D40025FB07F10807BD4680BD00BF80B400AF62
:10B1E400BD4680BC704700BF80B582B000AF034647
:10B1F400FB7100F013FB07F10807BD4680BD00BFDB
:10B2040080B400AFBD4680BC704700BF80B582B03B
:10B2140000AF0346FB7100F001FB07F10807BD46D0
:10B2240080BD00BF80B400AFBD4680BC704700BF86
:10B2340080B582B000AF0346FB7100F0EFFA07F16E
:10B244000807BD4680BD00BF80B400AFBD4680BCCA
:10B25400704700BF80B582B000AF0346FB7100F0B9
:10B26400DDFA07F10807BD4680BD00BF80B400AF1A
:10B27400BD4680BC704700BF80B483B000AF786027
:10B28400396007F10C07BD4680BC704780B582B0B9
:10B2940000AF03463960FB8000F0C0FA07F10807ED
:10B2A400BD4680BD80B483B000AFF871B9717A71C6
:10B2B4003B7107F10C07BD4680BC704780B483B076
:10B2C40000AF13460246FA800A46BA807B8007F133
:10B2D4000C07BD4680BC704780B483B000AF786073
:10B2E40007F10C07BD4680BC704700BF80B483B033
:10B2F40000AF0346FB7107F10C07BD4680BC7047E5
:10B3040080B483B000AF0346FB7107F10C07BD4660
:10B3140080BC704780B582B000AF786039604FF070
:10B324000100FEF72DFA78683968FEF7FBFA07F199
:10B334000807BD4680BD00BF80B582B000AF78600D
:10B3440039604FF00100FEF789FA78683968FEF732
:10B35400E9FA07F10807BD4680BD00BF80B584B097
:10B3640000AFF860B9607A603B604FF00100FEF70F
:10B3740075FAF868B9687A683B68FEF7E5FA07F188
:10B384001007BD4680BD00BF80B584B000AF034642
:10B39400FB714FF002033B734FF001037B73FB79A6
:10B3A400BB7307F10C0318464FF00301FFF7B2FF1C
:10B3B40007F11007BD4680BD80B584B000AF0346D9
:10B3C400FB804FF003033B734FF003037B73FB8855
:10B3D4004FEA13239BB2DBB2BB73FB88DBB2FB7374
:10B3E40007F10C0318464FF00401FFF793FF07F130
:10B3F4001007BD4680BD00BF80B582B000AF4CF2DF
:10B404004463C0F2010307F104021B88138007F1AF
:10B41400040318464FF00201FFF77CFF07F1080709
:10B42400BD4680BD80B582B000AF4CF24863C0F227
:10B43400010307F104021B88138007F10403184673
:10B444004FF00201FFF766FF07F10807BD4680BD14
:10B4540080B584B000AF02460B46FA80BB804FF043
:10B4640005033B724FF00F037B72FB88DBB2BB72A8
:10B47400FB884FEA13239BB2DBB2FB72BB88DBB2BF
:10B484003B73BB884FEA13239BB2DBB27B7307F198
:10B49400080318464FF00601FFF73CFF07F11007B9
:10B4A400BD4680BD80B584B000AF0346FB714FF04C
:10B4B40002033B734FF011037B73FB79BB7307F1FA
:10B4C4000C0318464FF00301FFF724FF07F11007A0
:10B4D400BD4680BD80B584B000AF0346FB714FF01C
:10B4E40002033B734FF012037B73FB79BB7307F1C9
:10B4F4000C0318464FF00301FFF70CFF07F1100788
:10B50400BD4680BD80B586B000AFF880B9807A8032
:10B514003B804FF009033B734FF013037B73FB88AD
:10B52400DBB2BB73FB884FEA13239BB2DBB2FB7322
:10B53400BB88DBB23B74BB884FEA13239BB2DBB2FC
:10B544007B747B88DBB2BB747B884FEA13239BB28A
:10B55400DBB2FB743B88DBB23B753B884FEA1323B9
:10B564009BB2DBB27B7507F10C0318464FF00A015E
:10B57400FFF7D0FE07F11807BD4680BD80B584B043
:10B5840000AF0346FB714FF002033B734FF01F0300
:10B594007B73FB79BB7307F10C0318464FF003016F
:10B5A400FFF7B8FE07F11007BD4680BD80B586B031
:10B5B40000AF0346B9607A60FB737B68DBB203F1CA
:10B5C4000203DBB23B754FF015037B75FB7BBB7548
:10B5D40007F1140318464FF00301BA687B68FFF7BC
:10B5E400BDFE07F11807BD4680BD00BF80B584B01D
:10B5F40000AF0346FB714FF002033B734FF0160399
:10B604007B73FB79BB7307F10C0318464FF00301FE
:10B61400FFF792FE07F11007BD4680BD80B483B0EA
:10B6240000AF03463960FB714FF4C042C4F200021C
:10B63400F9790B464FEAC3035B184FEA8303D31827
:10B6440003F118035A683B6822FA03F303F0010379
:10B65400184607F10C07BD4680BC704780B483B020
:10B6640000AF03463960FB714FF4C042C4F20002DC
:10B67400F9793B684FF0010000FA03F318460B46D2
:10B684004FEAC3035B184FEA8303D31803F1100393
:10B69400586007F10C07BD4680BC704780B483B086
:10B6A40000AF03463960FB714FF4C042C4F200029C
:10B6B400F9793B684FF0010000FA03F318460B4692
:10B6C4004FEAC3035B184FEA8303D31803F1100353
:10B6D400186007F10C07BD4680BC704780B500AF09
:10B6E40000F0D4F800F0DCFB80BD00BF80B500AFF3
:10B6F40040F68C13C2F200034FF000021A6040F6C9
:10B704009013C2F200034FF000021A6040F6941343
:10B71400C2F200034FF000021A6040F69813C2F21E
:10B7240000034FF000021A6040F6A013C2F20003B7
:10B734004FF000004FF00001C3E9000140F6A813E8
:10B74400C2F200034FF000004FF00001C3E9000112
:10B7540040F6B013C2F200034FF000021A7040F634
:10B76400B213C2F200034FF000021A8040F6B41381
:10B77400C2F200034FF000021A8040F6E420C2F245
:10B78400000040F6B811C2F200014FF4967201F0C5
:10B79400A7FD40F61030C2F200004FF0140140F64D
:10B7A4002032C2F200024FF4A57301F043FF40F6C9
:10B7B4006C43C2F200034FF000021A7040F67C435F
:10B7C400C2F200034FF000021A7040F67D43C2F249
:10B7D40000034FF000021A7040F67E43C2F20003E9
:10B7E4004FF000021A7040F67F43C2F200034FF09C
:10B7F40000021A704EF201004BF2E161C0F2000146
:10B8040002F0F0FF40F67040C2F200004CF28D21CD
:10B81400C0F2000107F0D8FB80BD00BF80B500AFC7
:10B824004CF6A800C0F201004FF0E2014CF6F00221
:10B83400C0F2010201F098FC80BD00BF80B500AFEA
:10B844004FF4804003F000F880BD00BF80B500AF26
:10B854004FF4005002F0F8FF80BD00BF80B500AF88
:10B864004FF003004FF00501FFF7F8FE4FF06400BE
:10B87400FCF7A6FF4FF003004FF00501FFF70EFFA2
:10B884004FF06400FCF79CFF80BD00BF80B594B00E
:10B8940000AF4FF003004FF00401FFF7BFFE034673
:10B8A400002B49D140F25053C2F200031B68002B15
:10B8B40002D04FF0030301E04FF001033B7440F268
:10B8C4003053C2F200037B614FF02003BB6140F2AE
:10B8D4005053C2F200031B68FB6107F12C033B6267
:10B8E4004FF020037B624FF00203BB624FF0020370
:10B8F4003B6007F110037B604FF00103BB604FF026
:10B904000003FB603B464FF00110194604F02CFA8B
:10B914004FF0010004F06EFAFDF7C8FF97F82D30E0
:10B92400FB64FB6C002B07D007F12C0303F102032B
:10B934001846F96CFFF740FA07F15007BD4680BD81
:10B9440080B500AF4FF0011004F0D6F94FF00300BA
:10B954004FF00301FFF782FE00BF4FF003004FF0EA
:10B964000401FFF75BFE0346002BF6D1FFF78EFFC1
:10B9740080BD00BF80B582B000AF786040F68C1304
:10B98400C2F200031A687B681A4340F68C13C2F2B1
:10B9940000031A604FF4004002F056FF07F1080755
:10B9A400BD4680BD80B483B000AF78607B686FEA29
:10B9B400030240F68C13C2F200031B681A4040F6DF
:10B9C4008C13C2F200031A6007F10C07BD4680BC59
:10B9D400704700BF80B582B000AF786040F6901326
:10B9E400C2F200031A687B681A4340F69013C2F24D
:10B9F40000031A604FF4004002F026FF07F1080725
:10BA0400BD4680BD80B483B000AF78607B686FEAC8
:10BA1400030240F69013C2F200031B681A4040F67A
:10BA24009013C2F200031A6007F10C07BD4680BCF4
:10BA3400704700BF90B58BB000AFB5E140F68C13F2
:10BA4400C2F200031B6803F04003002B11D0FFF780
:10BA5400D3FC4FF04000FFF7A5FF40F6B013C2F24D
:10BA640000034FF001021A704FF2010002F002FFCE
:10BA74009AE140F68C13C2F200031B6803F08003C2
:10BA8400002B06D0FFF7CEFC4FF08000FFF78AFFB3
:10BA94008AE140F68C13C2F200031B6803F0010331
:10BAA400002B02D000F058FA7EE140F68C13C2F26B
:10BAB40000031B6803F00203002B10D04FF00003B7
:10BAC400FB834FF4C863BB83FA8BBB8B10461946C8
:10BAD400FFF7BEFC4FF00200FFF764FF64E140F69D
:10BAE4008C13C2F200031B6803F00403002B16D06E
:10BAF4004FF010037B834FF020033B834FF0000390
:10BB0400FB824FF41673BB82788B398BFA8ABB8A1B
:10BB1400FFF7F8FC4FF00400FFF744FF44E140F660
:10BB24008C13C2F200031B6803F00803002B60D0DF
:10BB34004FF001037B624AE07B6AA3F120034FF0DC
:10BB4400010202FA03F2796AC1F120014FF0010007
:10BB540020FA01F14FF00004786A04FA00F001437E
:10BB6400F960F968002BB4BF0B461346FB604FF035
:10BB740001027B6A02FA03F3BB6040F6A813C2F227
:10BB84000003D3E90001D7E9022302EA000203EA31
:10BB9400010352EA030116D0D7E902236FEA020037
:10BBA4006FEA030140F6A813C2F20003D3E90023AD
:10BBB40000EA020001EA030140F6A813C2F20003FE
:10BBC400C3E9000106E07B6A03F101037B627B6A3F
:10BBD4003E2BB1DD40F6A813C2F20003D3E90023E3
:10BBE40052EA030140F0E0804FF00800FFF7DAFE6C
:10BBF400DAE040F68C13C2F200031B6803F0100372
:10BC0400002B64D04FF001033B624FE03B6AA3F189
:10BC140020034FF0010202FA03F2396AC1F1200154
:10BC24004FF0010020FA01F14FF00004386A04FAE1
:10BC340000F0014379607968002BB4BF0B461346CA
:10BC44007B604FF001023B6A02FA03F33B6040F66B
:10BC5400A013C2F20003D3E90001D7E9002302EAEA
:10BC6400000203EA010352EA03011BD03B6ADBB280
:10BC74001846FFF783FCD7E900236FEA02006FEA56
:10BC8400030140F6A013C2F20003D3E9002300EA43
:10BC9400020001EA030140F6A013C2F20003C3E963
:10BCA400000106E03B6A03F101033B623B6A3E2B61
:10BCB400ACDD40F6A013C2F20003D3E9002352EA3C
:10BCC400030171D14FF01000FFF76CFE6CE040F6F9
:10BCD4008C13C2F200031B6803F02003002B08D06E
:10BCE4004FF00100FFF7DEFB4FF02000FFF75AFE94
:10BCF4005AE040F68C13C2F200031B6803F480730D
:10BD0400002B08D04FF00200FFF73EFB4FF4807089
:10BD1400FFF748FE48E040F68C13C2F200031B68AC
:10BD240003F40073002B18D040F6B213C2F20003E0
:10BD34001B881846FFF740FB4FF40070FFF732FEF4
:10BD440040F6B213C2F200031B88B3F5404F2BD167
:10BD54004FF48060FFF70EFE26E040F68C13C2F22B
:10BD640000031B6803F48063002B08D04FF0FF002E
:10BD7400FFF70AFB4FF48060FFF714FE14E040F66F
:10BD84008C13C2F200031B6803F40063002B0BD076
:10BD940040F6B613C2F200031B781846FFF79AFB6D
:10BDA4004FF40060FFF7FEFD40F68C13C2F200036F
:10BDB4001B68002B05D0FDF79DFC0346002B7FF488
:10BDC4003DAE07F12C07BD4690BD00BF80B500AF66
:10BDD40010E040F69013C2F200031B6803F0010365
:10BDE400002B07D04FF00200FFF700FC4FF00100DA
:10BDF400FFF708FE40F69013C2F200031B68002B05
:10BE040004D0FDF7E5FC0346002BE2D180BD00BF62
:10BE140080B483B000AF78607B684FF0010202FA0F
:10BE240003F10A464FEAE27340F6A011C2F20001A0
:10BE3400D1E9000102EA000203EA01031343002BE3
:10BE44000CBF00230123DBB2184607F10C07BD46E3
:10BE540080BC704780B500AFFDF7BAFC0346002BE9
:10BE64001DD04FF00100FFF7D3FF0346002B16D07F
:10BE740040F61030C2F2000040F6FC21C2F200018C
:10BE840001F02CFC0346002B09D04FF0010040F6D2
:10BE9400FC21C2F200014FF01402FFF787FB80BDC2
:10BEA40080B500AFFFF7C6FDFFF790FFFFF7D2FFA5
:10BEB40080BD00BF80B582B000AF13460246FA7160
:10BEC4000A46BA717B717A7940F69413C2F2000380
:10BED4001A60FB79022B1CD0032B0AD0012B28D12A
:10BEE4004FF00100FDF716FC4FF40070FFF742FD20
:10BEF4001FE04FF00100FDF70DFC40F66C43C2F269
:10BF040000034FF000021A704FF00200FFF732FDF9
:10BF14000FE04FF00100FDF7FDFB40F69813C2F26D
:10BF240000034FF000021A604FF00100FFF722FDFA
:10BF340000BF07F10807BD4680BD00BF80B485B0CF
:10BF440000AFBA607B600346FB730B46BB7307F11B
:10BF54001407BD4680BC704780B584B000AF40F67E
:10BF64009813C2F200031B68102B27D84FF001006E
:10BF7400FDF706FC40F69813C2F200031A68134654
:10BF84004FEA43139B184CF27461C0F201015B1831
:10BF9400FB6002F1010240F69813C2F200031A603A
:10BFA400FB6803F10103BB60BB681B7803F1010369
:10BFB4007B60B8687968FDF7B5FC00E000BF07F165
:10BFC4001007BD4680BD00BF80B500AF40F67C437E
:10BFD400C2F200034FF001021A704FF00100FFF7A4
:10BFE400E1FC80BD80B584B000AFB9600146F9734F
:10BFF400BA81FB8040F67D43C2F200034FF0010298
:10C004001A704FF4805002F01FFC40F69413C2F2F1
:10C0140000031B681846FDF7EBFB40F6E420C2F270
:10C02400000001F07FF94FF00400FFF7A3FC07F1D3
:10C034001007BD4680BD00BF80B582B000AF024688
:10C044000B46FA71BB7140F68C13C2F200034FF039
:10C0540000021A6040F69013C2F200034FF000028F
:10C064001A6040F6A013C2F200034FF000004FF034
:10C074000001C3E9000140F6A813C2F200034FF027
:10C0840000004FF00001C3E9000140F67D43C2F215
:10C0940000034FF000021A7040F67E43C2F2000320
:10C0A4004FF000021A7040F67F43C2F200034FF0D3
:10C0B40000021A704FF4805002F0C6FB4FF00000EB
:10C0C400FDF796FB40F66C43C2F200031B78012B8C
:10C0D40008D0022B0BD0002B0ED14FF00200FFF73B
:10C0E40049FC09E04FF04000FFF744FC04E04FF442
:10C0F4008070FFF73FFC00BF07F10807BD4680BD15
:10C1040080B582B000AF0346FB71FB791846FDF79A
:10C114007FFB07F10807BD4680BD00BF80B584B032
:10C1240000AFC7E90201C7E9002340F6A013C2F239
:10C134000003D7E90201C3E9000140F6A813C2F2E3
:10C144000003D7E90001C3E9000140F6A813C2F2D5
:10C154000003D3E9002352EA030104D04FF008009E
:10C16400FFF708FC06E040F67E43C2F200034FF0FE
:10C1740001021A7007F11007BD4680BD80B582B078
:10C1840000AF7860396040F6E420C2F200007968BC
:10C194003A6801F071F940F6E420C2F2000001F0BF
:10C1A400DBF80346032B31D801A252F823F000BF79
:10C1B40011C2000011C20000C5C10000F7C1000097
:10C1C40040F6E423C2F200031A6840F6E423C2F204
:10C1D4000003DB6840F61030C2F2000011461A4634
:10C1E40002F06AF840F6E420C2F2000001F09AF886
:10C1F4000CE04CF6F000C0F2010001F061F840F6EA
:10C20400E420C2F2000001F08DF800BF4FF00100FD
:10C21400FFF7E0FB07F10807BD4680BD80B584B099
:10C2240000AF0346B9607A60FB7340F67F43C2F205
:10C2340000034FF001021A70FB7B022B04D1B86893
:10C244007968FFF79BFF00BF07F11007BD4680BD6B
:10C2540080B400AF40F6B413C2F200031B88184642
:10C26400BD4680BC704700BF80B483B000AF0346B6
:10C27400FB8040F6B413C2F20003FA881A8007F177
:10C284000C07BD4680BC704780B500AF40F67040D7
:10C29400C2F2000006F0E4FF40F6B213C2F200035B
:10C2A4004FF440421A804FF40070FFF763FB80BDE7
:10C2B40080B584B000AF034607F1040080E80600AF
:10C2C400FB8140F6B213C2F20003FA891A8040F6E9
:10C2D4006C43C2F200034FF002021A704FF02000C8
:10C2E400FFF748FB7B68002B09D040F67040C2F290
:10C2F400000007F1040393E8060006F051FF07F17C
:10C304001007BD4680BD00BF80B582B000AF0346B4
:10C31400FB7140F6B613C2F20003FA791A704FF4B7
:10C324000060FFF727FB07F10807BD4680BD00BF8B
:10C3340080B400AF40F6B613C2F200031B7818466F
:10C34400BD4680BC704700BF80B400AF40F6B01358
:10C35400C2F200031B781846BD4680BC704700BF7C
:10C3640080B500AF40F67D43C2F200031B78002B7A
:10C374000BD040F66C43C2F200034FF001021A7076
:10C384004FF02000FFF7F6FA06E040F68C13C2F2F5
:10C3940000034FF040021A6080BD00BF80B500AFBB
:10C3A4004FF2010002F07CFA4FF00100FDF7B2F900
:10C3B40040F6B013C2F200034FF000021A704FF0BF
:10C3C4008000FFF7D7FA80BD80B584B000AF7860F5
:10C3D4007B6803F1FF1303F57F434FEA0323FB60FC
:10C3E40007F10B03F86819464FF0010207F01EFA33
:10C3F400FB7AFE2B14BF00230123DBB2184607F19E
:10C404001007BD4680BD00BF80B584B000AF40F6C4
:10C414008043C2F200034FF480621A6040F6844302
:10C42400C2F200034FF400521A6007F0EBF840F632
:10C434008843C2F200034FF0FF321A6040F68C4387
:10C44400C2F200034FF0FF321A6040F68843C2F292
:10C4540000031B681846FFF7B7FF0346002B0FD0F5
:10C4640040F68443C2F200031B6803F1FF3318460D
:10C47400FFF7AAFF0346002B02D04FF0010301E0AF
:10C484004FF00003FB71FB7903F00103FB71FB79AF
:10C49400002B43D040F68043C2F200031B68FB60CC
:10C4A40033E0F868FFF790FF034683F00103DBB243
:10C4B400002B0ED040F68C43C2F200031B68B3F18C
:10C4C400FF3F1ED140F68C43C2F20003FA681A60A3
:10C4D40017E040F68843C2F200031B68B3F1FF3F44
:10C4E4000FD140F68C43C2F200031B68B3F1FF3F47
:10C4F40007D040F68843C2F20003FA681A6000BF0E
:10C504004BE0FB6803F10103FB6040F68443C2F295
:10C5140000031B68FA689A42C3D33EE040F68043A6
:10C52400C2F200031B68BB602FE0B868FFF74CFF42
:10C534000346002B0ED040F68843C2F200031B686A
:10C54400B3F1FF3F1DD140F68843C2F20003BA683D
:10C554001A6016E040F68C43C2F200031B68B3F184
:10C56400FF3F0ED140F68843C2F200031B68B3F1CB
:10C57400FF3F06D040F68C43C2F20003BA681A604B
:10C584000BE0BB6803F10103BB6040F68443C2F2D5
:10C5940000031B68BA689A42C7D340F68843C2F2C4
:10C5A40000031B68B3F1FF3F13D140F68043C2F28E
:10C5B40000031A6840F68843C2F200031A6040F68A
:10C5C4008843C2F200031A6840F68C43C2F20003A7
:10C5D4001A6007F0ADF807F11007BD4680BD00BF33
:10C5E40080B400AF40F68843C2F200031A6840F6F4
:10C5F4008C43C2F200031B689A420BD840F68C436A
:10C60400C2F200031A6840F68843C2F200031B68B2
:10C61400D31A16E040F68443C2F200031A6840F6C7
:10C624008843C2F200031B68D21A40F68C43C2F25C
:10C634000003196840F68843C2F200031B68CB1A52
:10C64400D3181846BD4680BC704700BF80B582B081
:10C6540000AF40F68843C2F200031B684FEA03238D
:10C664007B6006F0CFFF07F06DF84FF0FC03FB7022
:10C6740007F10303786819464FF0010207F090F8B8
:10C6840007F056F840F68843C2F200031B6803F132
:10C69400010240F68843C2F200031A6040F6884360
:10C6A400C2F200031A6840F68443C2F200031B6816
:10C6B4009A4209D340F68043C2F200031A6840F656
:10C6C4008843C2F200031A6007F10807BD4680BD23
:10C6D40080B5C8B000AF07F10C03186007F1080378
:10C6E400196007F104031A6006F08CFF40F68C43CE
:10C6F400C2F200031B684FEA0323C7F81C3140F65B
:10C704008C43C2F200031B6803F00F03002B53D1C8
:10C7140007F11703D7F81C0119464FF0010207F07F
:10C7240085F807F117031B78FF2B05D007F00AF8EB
:10C73400D7F81C0107F010F840F68C43C2F200034E
:10C744001A6840F68843C2F200031B689A4233D247
:10C7540040F68C43C2F200031B6803F1100240F65A
:10C764008843C2F200031B689A4225D940F68843E5
:10C77400C2F200031B6803F110034FEA13134FEADC
:10C78400031240F68843C2F200031A6040F688435D
:10C79400C2F200031A6840F68443C2F200031B6825
:10C7A4009A4209D340F68043C2F200031A6840F665
:10C7B4008843C2F200031A6007F118031A464FF4C3
:10C7C400807310464FF000011A460FF069FB07F121
:10C7D40018034FF0FE021A7007F104031B68DAB263
:10C7E40007F118035A7007F10C031B68DAB207F15A
:10C7F40018031A7107F10C031B684FEA1323DAB20A
:10C8040007F118035A7107F10C031B684FEA13432D
:10C81400DAB207F118039A7107F10C031B684FEAA7
:10C824001363DAB207F11803DA7107F1180303F19D
:10C83400080107F1080207F10403084611681A68A1
:10C844000FF00AFB07F104031B6803F1040307F16B
:10C85400180202F104024FF6FF7011461A4600F066
:10C86400F1F80346A7F81A31B7F81A31DAB207F12A
:10C8740018039A70B7F81A314FEA13239BB2DAB24D
:10C8840007F11803DA7006F05DFF07F104031B6873
:10C8940003F1080307F11802D7F81C0111461A46E0
:10C8A40006F07EFF06F044FF40F68C43C2F200031C
:10C8B4001B6803F1010240F68C43C2F200031A60C4
:10C8C40040F68C43C2F200031A6840F68443C2F275
:10C8D40000031B689A4209D340F68043C2F2000366
:10C8E4001A6840F68C43C2F200031A6040F68C4387
:10C8F400C2F200031A6840F68843C2F200031B68C0
:10C904009A4201D1FFF7A2FE07F59077BD4680BD9C
:10C9140080B5C6B000AF07F10C03186007F1080337
:10C92400196007F104031A6040F68843C2F2000359
:10C934001A6840F68C43C2F200031B689A4202D183
:10C944004FF0000362E040F68843C2F200031A6825
:10C9540007F10C031B681A6040F68843C2F2000317
:10C964001B684FEA0323C7F8143106F04BFE07F1A6
:10C974001403D7F8140119464FF4807206F056FFD9
:10C9840006F0D6FE07F114035B781A4607F10C0390
:10C994001B689A8007F10C031B689B881A4607F1F1
:10C9A40004031B689A4207D907F104031B689AB26F
:10C9B40007F10C031B689A8007F1140303F10203C7
:10C9C400184600F095F803461A4607F10C031B6855
:10C9D400DA8007F1140303F10403184600F09EF80B
:10C9E400024607F10C031B689A6007F10C031B68ED
:10C9F4009B8807F1080107F1140202F10802086894
:10CA040011461A460FF028FA4FF00103184607F5AD
:10CA14008C77BD4680BD00BF80B582B000AF786022
:10CA24007B681A6840F68843C2F200031B689A4286
:10CA340002D1FFF70BFE00E000BF07F10807BD4677
:10CA440080BD00BF80B487B000AF0346B9607A6090
:10CA5400FB81FB89FB82BA687B68D3183B612FE0BA
:10CA6400FB8A4FEA13239BB29AB2FB8A4FEA032351
:10CA74009BB213439BB2FB82BB681B781A46FB8AAA
:10CA84005340FB82FB8ADBB24FEA23139AB2FB8A40
:10CA940053409BB2FB82FB8A4FEA03339AB2FB8A70
:10CAA40053409BB2FB82FB8ADBB24FEA43139AB238
:10CAB400FB8A53409BB2FB82BB6803F10103BB605A
:10CAC400BA683B699A42CBD3FB8A184607F11C0724
:10CAD400BD4680BC704700BF80B483B000AF7860AF
:10CAE4007B681B78184607F10C07BD4680BC70476D
:10CAF40080B483B000AF78607B6803F101031B78D6
:10CB04004FEA03239AB27B681B7813439BB29BB210
:10CB1400184607F10C07BD4680BC704780B483B04B
:10CB240000AF78607B6803F103031B784FEA03626C
:10CB34007B6803F102031B784FEA03431A437B68C3
:10CB440003F101031B784FEA03231A437B681B7824
:10CB54001343184607F10C07BD4680BC704700BF5D
:10CB6400B0B586B000AF78607868FFF7D7FF0146AC
:10CB74000A464FF00003C7E904237B6803F1080366
:10CB84001846FFF7CBFF01460A464FF00003C7E9FA
:10CB94000223BB681D464FF00004D7E9042342EA90
:10CBA400040243EA05031046194607F11807BD4677
:10CBB400B0BD00BF80B584B000AF78607868FFF77F
:10CBC400ADFF0346FB60FB68184607F11007BD463E
:10CBD40080BD00BF80B584B000AF7860396038682C
:10CBE400FFF79CFF0346BB603B6803F10403184650
:10CBF400FFF794FF0346FB607B6807F1080292E8A5
:10CC0400030083E80300786807F11007BD4680BD80
:10CC140080B483B000AF78600B46FB707B68FA7811
:10CC24001A7007F10C07BD4680BC704780B483B00E
:10CC340000AF78600B467B807B88DAB27B681A7021
:10CC44007B6803F101037A884FEA122292B2D2B2CE
:10CC54001A7007F10C07BD4680BC704780B483B0DE
:10CC640000AF786039603B68DAB27B681A707B6821
:10CC740003F101033A684FEA1222D2B21A707B68B8
:10CC840003F102033A684FEA1242D2B21A707B6887
:10CC940003F103033A684FEA1262D2B21A7007F141
:10CCA4000C07BD4680BC7047B0B584B000AFF860D7
:10CCB400C7E900233B68F8681946FFF7CFFFFB6814
:10CCC40003F104027B681C464FF00005234610461E
:10CCD4001946FFF7C3FF07F11007BD46B0BD00BFFB
:10CCE40080B584B000AF786039603B68FB60FB6856
:10CCF40078681946FFF7B2FF07F11007BD4680BDFB
:10CD040080B584B000AFF86007F1040383E806003F
:10CD14007B68F8681946FFF7A1FFFB6803F104027A
:10CD2400BB6810461946FFF799FF07F11007BD4687
:10CD340080BD00BF80B485B000AFF860B9607A6090
:10CD4400FB68BA681A60FB687A685A60FB684FF03F
:10CD540000029A60FB684FF00002DA6007F11407E2
:10CD6400BD4680BC704700BF80B483B000AF78601C
:10CD74007B685A687B689B68D31A184607F10C07CE
:10CD8400BD4680BC704700BF80B584B000AFF8607A
:10CD9400B9607A60FB681A68FB68DB68D318B86806
:10CDA40019467A680FF058F8FB68DA687B68D2187D
:10CDB400FB68DA6007F11007BD4680BD80B584B01A
:10CDC40000AF78607B681A687B68DB68D318FB6007
:10CDD4007B68DB6803F101027B68DA60F868FFF7BF
:10CDE4007BFE0346184607F11007BD4680BD00BF11
:10CDF40080B584B000AF78607B681A687B68DB68B4
:10CE0400D318FB607B68DB6803F102027B68DA609D
:10CE1400F868FFF76DFE0346184607F11007BD4694
:10CE240080BD00BF80B584B000AF78607B681A68AD
:10CE34007B68DB68D318FB607B68DB6803F1040262
:10CE44007B68DA60F868FFF769FE0346184607F165
:10CE54001007BD4680BD00BF80B584B000AF7860C8
:10CE64007B681A687B68DB68D318FB607B68DB68C7
:10CE740003F104027B68DA60F868FFF79BFE03465F
:10CE8400184607F11007BD4680BD00BF80B584B0C9
:10CE940000AF786039603B681A683B68DB68D31878
:10CEA400FB603B68DB6803F108023B68DA607B687F
:10CEB4001846F968FFF78EFE786807F11007BD463B
:10CEC40080BD00BF80B582B000AF786039607B68F8
:10CED4009A683B68D2187B685B689A4202D84FF024
:10CEE40001030DE04CF6F400C0F201004FF08201A2
:10CEF4004CF63812C0F2010200F036F94FF000038C
:10CF0400184607F10807BD4680BD00BF80B584B050
:10CF140000AFF860B9607A60F8687968FFF7D2FF0B
:10CF24000346002B0FD0FB681A68FB689B68D31874
:10CF34001846B9687A680EF08FFFFB689A687B68B8
:10CF4400D218FB689A6007F11007BD4680BD00BF88
:10CF540080B584B000AF78600B46FB7078684FF002
:10CF64000101FFF7AFFF0346002B10D07B681A685E
:10CF74007B689B68D318FB607B689B6803F10102A4
:10CF84007B689A60FB78F8681946FFF741FE07F161
:10CF94001007BD4680BD00BF80B584B000AF786087
:10CFA4000B467B8078684FF00201FFF78BFF034646
:10CFB400002B10D07B681A687B689B68D318FB60D1
:10CFC4007B689B6803F102027B689A607B88F8683F
:10CFD4001946FFF72BFE07F11007BD4680BD00BFC1
:10CFE40080B584B000AF7860396078684FF0040190
:10CFF400FFF768FF0346002B0FD07B681A687B6835
:10D004009B68D318FB607B689B6803F104027B6810
:10D014009A60F8683968FFF721FE07F11007BD46EA
:10D0240080BD00BF80B586B000AFF860C7E90023BB
:10D03400F8684FF00801FFF745FF0346002B10D0B6
:10D04400FB681A68FB689B68D3187B61FB689B6864
:10D0540003F10802FB689A607869D7E90023FFF7B7
:10D0640023FE07F11807BD4680BD00BF80B584B01C
:10D0740000AF7860396078684FF00401FFF722FF51
:10D084000346002B0FD07B681A687B689B68D31813
:10D09400FB607B689B6803F104027B689A60F86814
:10D0A4003968FFF71DFE07F11007BD4680BD00BFBC
:10D0B40080B586B000AFF86007F1040383E806008A
:10D0C400F8684FF00801FFF7FDFE0346002B12D06D
:10D0D400FB681A68FB689B68D3187B61FB689B68D4
:10D0E40003F10802FB689A60786907F1040393E886
:10D0F4000600FFF705FE07F11807BD4680BD00BF17
:10D1040080B400AF40F69043C2F200034FF0000237
:10D114001A7040F69143C2F200034FF000021A70F5
:10D12400BD4680BC704700BF80B483B000AF0346E7
:10D13400FB7140F69143C2F20003FA791A7007F1C9
:10D144000C07BD4680BC704780B483B000AF7860E4
:10D1540040F69043C2F200034FF001021A7007F147
:10D164000C07BD4680BC704780B5CCB000AF07F15A
:10D174000C03186007F10803196007F104031A602F
:10D1840040F69143C2F200031B7883F00103DBB243
:10D19400002B05D007F104031868FFF7D5FF8AE0D8
:10D1A40040F69043C2F200034FF001021A7007F1F7
:10D1B400180207F12803104619464FF0F802FFF74A
:10D1C400B9FD07F590731846FCF752FD07F11803F3
:10D1D400184607F5907393E80600FFF769FF07F117
:10D1E4000C031B68002B37D007F10C0318680EF0F2
:10D1F4008FFE034607F1180107F10C020846116877
:10D204001A46FFF783FE07F1180318464FF0200172
:10D21400FFF79EFE07F1100207F1080310464CF6D3
:10D224003C11C0F201011A680EF000FE07F1100370
:10D2340018460EF06DFE034607F1180107F11002BF
:10D24400084611461A46FFF761FE07F1180318460F
:10D254004FF02001FFF77CFE07F1040318680EF07D
:10D2640057FEC7F82C0107F118031846FFF77CFD99
:10D27400C7F82801D7F82C21D7F828319A4203D9C6
:10D28400D7F82831C7F82C3107F1180207F1040345
:10D2940010461968D7F82C21FFF738FE07F1180358
:10D2A4009B6807F1280244F24640C4F64C701146CC
:10D2B4001A46FFF70DFA07F59877BD4680BD00BF03
:10D2C40080B582B000AF78604FF000004FF00001ED
:10D2D4007A68FFF749FF07F10807BD4680BD00BF24
:10D2E40080B485B000AFF860B9607A60FB68BA6852
:10D2F4001A60FB687A685A60FB684FF000021A7281
:10D30400FB684FF00002DA60FB684FF000021A611C
:10D31400FB684FF000025A6107F11407BD4680BC58
:10D32400704700BF80B483B000AF78607B684FF073
:10D3340000021A727B684FF00002DA607B684FF0DB
:10D3440000021A617B684FF000025A6107F10C0772
:10D35400BD4680BC704700BF80B483B000AF786026
:10D364007B681B7A184607F10C07BD4680BC7047E2
:10D3740080B483B000AF78607B684FF003021A7208
:10D3840007F10C07BD4680BC704700BF80B586B06E
:10D3940000AFF860B9607A60FB685A697B68D3189B
:10D3A4007B61FB68DA687B699A4205D2FB68DA68BC
:10D3B400FB685B69D31A7B60FB681A68FB685B696E
:10D3C400D3181846B9687A680EF046FDFB685A69A6
:10D3D4007B68D218FB685A61FB685A69FB68DB6892
:10D3E4009A4204D1FB684FF002021A7205E0FB680E
:10D3F4001B6903F10102FB681A6107F11807BD46B6
:10D4040080BD00BF80B584B000AFF860B9607A60B9
:10D414007B68012B03D8F868FFF7AAFF27E0FB68B5
:10D424004FF001021A72B868FFF762FB03461A460E
:10D43400FB68DA60FB684FF000021A61FB684FF08A
:10D4440000025A61FB68DA68FB685B689A4203D998
:10D45400F868FFF78DFF0AE0BB6803F102027B68FE
:10D46400A3F10203F86811461A46FFF78FFF07F18C
:10D474001007BD4680BD00BF80B586B000AFF86020
:10D48400B9607A607B68002B03D1F868FFF770FFFE
:10D494002CE0BB681B78FB75FB7D002B12D1FB686D
:10D4A4001B69002B02D0F868FFF762FFBB6803F129
:10D4B40001027B6803F1FF33F86811461A46FFF74F
:10D4C400A1FF13E0FA7DFB681B699A4203D0F86858
:10D4D400FFF74EFF0AE0BB6803F101027B6803F12A
:10D4E400FF33F86811461A46FFF750FF07F1180793
:10D4F400BD4680BD80B483B000AF78607B684FF0D8
:10D5040000021A607B684FF000021A717B684FF0CA
:10D5140000029A607B684FF00002DA607B684FF08B
:10D5240000021A6107F10C07BD4680BC704700BFBA
:10D5340080B485B000AFF860B9607A60FB68BA68FF
:10D544001A60FB684FF001021A71FB687A689A60EE
:10D55400FB684FF00002DA60FB684FF000021A61CA
:10D5640007F11407BD4680BC704700BF80B586B084
:10D5740000AFF860B9607A60FB681B79012B02D0B8
:10D584004FF0000351E0FB68DB68DAB2BB681A7045
:10D594004FF001037B61FB68DB68002B12D1BB6891
:10D5A40003F10103FA689268D2B21A70BB6803F1FE
:10D5B4000203FA6892684FEA1222D2B21A704FF04C
:10D5C40003037B61FB689A68FB681B69D31A3B61A0
:10D5D4007A687B69D21A3B699A4203D27A687B697A
:10D5E400D31A3B61FB681B68FA681169B8687A69E9
:10D5F4008218084611463A699847FB681A693B69DC
:10D60400D218FB681A61FB68DB6803F10102FB684E
:10D61400DA60FB689A68FB681B699A4203D1FB686D
:10D624004FF002021A714FF00103184607F1180770
:10D63400BD4680BD80B485B000AFF860B9607A6043
:10D644003B60FB68BA681A60FB687A685A60FB68DA
:10D654003A689A60FB684FF00002DA6007F1140739
:10D66400BD4680BC704700BF80B582B000AF786013
:10D6740039607B68DA687B681B68D2187B689B68B2
:10D684009A420CD94CF64010C0F201004FF08A01C6
:10D694004CF68412C0F20102FFF766FD1AE07B68C3
:10D6A4005A687B68DB68D2187B681B683868114647
:10D6B4001A46FFF75BFF034683F00103DBB2002B3E
:10D6C40007D17B68DA687B681B68D2187B68DA60EC
:10D6D400CFE700BF07F10807BD4680BD80B582B023
:10D6E40000AF786039607B68DB68002B02D14FF0B3
:10D6F40000031FE07B685A687B681B683868114622
:10D704001A460EF0A9FB7B68DA687B681B68D21A9C
:10D714007B68DA607B6859687B685A687B681B6839
:10D72400D2187B68DB68084611461A460EF094FB53
:10D734004FF00103184607F10807BD4680BD00BF3E
:10D7440080B400AFBFF34F8F4FF46D42CEF20002AE
:10D754004FF46D43CEF20003DB6803F4E0614FF055
:10D764000403C0F2FA530B43D360BFF34F8FFEE7B9
:10D7740080B500AF40F69440C2F20000FFF7BAFE55
:10D7840080BD00BF80B584B000AFF860B9607A6036
:10D79400FA6840F6A843C2F20003D318B8681946E1
:10D7A4007A680EF059FB07F11007BD4680BD00BF33
:10D7B40080B582B000AF78600B46FB7040F6D45061
:10D7C400C2F2000040F6A841C2F200014FF4967282
:10D7D400FFF7B0FAFB7840F6D450C2F200001946C5
:10D7E400FFF7B6FB40F6D453C2F20003184607F124
:10D7F4000807BD4680BD00BF80B582B000AF786029
:10D8040040F6D453C2F200039B6840F69440C2F23F
:10D8140000004DF28971C0F200011A46FFF788FE3C
:10D82400786840F69441C2F20001FFF71DFF07F14A
:10D834000807BD4680BD00BF80B58CB000AFF8605E
:10D84400B9607A6007F114031846B9687A68FFF77B
:10D8540071FA07F114031846FFF7CAFA0346FB8569
:10D864007A693B6AD318BB62F8684FF00101FFF78D
:10D874009FFF7862FB8D786A1946FFF78DFBFB8D5D
:10D88400786AB96A1A46FFF741FBF868FFF7B4FFF4
:10D8940007F13007BD4680BD80B483B000AF44F2C9
:10D8A4007F03C0F6E0737B607B681B683B603B686A
:10D8B40003F00F030F2B0CBF00230123DBB2184628
:10D8C40007F10C07BD4680BC704700BF80B582B02D
:10D8D40000AFFFF7E1FF034683F00103DBB2002B47
:10D8E40015D06FF00F037B60FAF714FD08F008F908
:10D8F40007F1040344F27F00C0F6E07019464FF0CC
:10D9040004020EF09FFD08F07FF9FAF709FD07F114
:10D914000807BD4680BD00BF80B58EB000AFF8607B
:10D92400B9607A6007F114031846B9687A68FFF79A
:10D9340001FA07F114031846FFF774FA786307F144
:10D9440014031846FFF754FA03463B637A693B6AAB
:10D95400D318FB624FF07E63BB623B6B03F103039E
:10D9640023F003037B62FAF7D5FC08F0C9F8B86A20
:10D974000EF060FD7B6AB86AF96A1A460EF062FD21
:10D9840008F042F9FAF7CCFC7B6B03F00103002B9F
:10D9940001D0FFF79BFF7B6B03F00203002B01D048
:10D9A400FFF7CEFE07F13807BD4680BD80B58AB0CB
:10D9B40000AFF860B9607A6007F114031846B968DB
:10D9C4007A68FFF7B7F907F114031846FFF7F6F979
:10D9D400034687F8273097F82730184606F038F8BA
:10D9E40007F12807BD4680BD80B582B000AF7860DE
:10D9F40078684FF00101FFF7CFFA78684FF0000123
:10DA0400FFF7CAFA78684FF00301FFF7C5FA7868A0
:10DA14004FF00001FFF7E4FA786840F2E841C2F2FF
:10DA240000014FF01402FFF771FA07F10807BD4631
:10DA340080BD00BF80B582B000AF7860786800F028
:10DA4400FDFD07F10807BD4680BD00BF80B588B065
:10DA540002AF78604FF07E637B6107F1100307F13A
:10DA64000E02009278694CF68811C0F201014FF061
:10DA7400010202F093FAFB8978681946FFF78CFAE1
:10DA84003A69FB89786811461A46FFF73FFA07F1AD
:10DA94001807BD4680BD00BF80B582B000AF786076
:10DAA40041F2C833C2F200031B6878681946FFF7D5
:10DAB40097FA41F2CC33C2F20003786893E8060087
:10DAC400FFF7F6FA07F10807BD4680BD80B582B0BE
:10DAD40000AF7860FEF784FD034678681946FFF7C7
