:10800000D429002005820000178200001982000098
:108010001B8200001D8200001F8200000000000083
:1080200000000000000000000000000021820000AD
:10803000238200000000000025820000278200004B
:1080400021560100E5ED00002D820000F90101003C
:108050000D0201006995010035820000FD8F0000CE
:10806000398200003B8200005D9300004DEE00006D
:1080700041820000438200007513010021020100CB
:10808000310201004B8200004D8200004F8200004F
:108090005182000053820000558200005782000088
:1080A000598200005B8200005D8200005F82000058
:1080B0006182000063820000819D000067820000F1
:1080C000698200006B8200006D8200006F820000F8
:0880D0007182000073820000C0
:1080D8002F49072291438D462E492F480A1A06D068
:1080E8000722914381F30988022282F314882B48DE
:1080F8002B492C4A00F039F82B482C492C4A00F01F
:1081080034F82C482C492D4A00F02FF82C482D49DA
:108118002D4A00F02AF82D482D492E4A00F025F85E
:108128002D482E492E4A00F020F82E482E490022CC
:1081380000F026F82D482E49091A082903DB0022E9
:108148000260043001601F481F49884205D0026858
:10815800043003B4904703BCF7E700208646EC469A
:1081680000200021234A9047FEE7884207D0521A90
:1081780005D0037801300B700131013AF9D170470D
:10818800884202D002700130FAE770471A487047F7
:10819800D4290020D4290020D429002098D7010010
:1081A800C4040020F80400208482000084820000B7
:1081B80050C60100D4D3010000010020C4040020EF
:1081C80050C6010050C6010050C6010050C601004B
:1081D80050C6010050C6010050C6010050C601003B
:1081E800D4D30100F8040020D4190020D4190020A9
:1081F800D41900204D890000FFFFFFFFDFF86CD085
:108208001B4880471B481C490160FFF761BFFEE718
:10821800FEE7FEE7FEE7FEE7FEE7FEE7FEE7FEE72E
:10822800FEE7FEE7FEE7FEE7FEE7FEE7FEE7FEE71E
:10823800FEE7FEE7FEE7FEE7FEE7FEE7FEE7FEE70E
:10824800FEE7FEE7FEE7FEE7FEE7FEE7FEE7FEE7FE
:10825800FEE7FEE7FEE7FEE7FEE7FEE7FEE7FEE7EE
:10826800FEE7FEE7FEE7FEE7FEE7FEE70080002008
:0C827800C143010008ED00E000800000A0
:1082840080B400AF72B641F68403C2F200031B68E7
:10829400B3F1FF3F0BD041F68403C2F200031B6825
:1082A40003F1010241F68403C2F200031A6041F6AD
:1082B4008403C2F200031B681846BD4680BC7047A5
:1082C40080B483B000AF41F68403C2F200031B689C
:1082D400002B17D041F68403C2F200031B6803F19C
:1082E400FF3241F68403C2F200031A6041F68403AC
:1082F400C2F200031B687B607B68002B00D162B66E
:108304007B6801E04FF00003184607F10C07BD46F7
:1083140080BC704780B500AFFFF7B2FF80BD00BFDF
:1083240080B500AFFFF7CCFF80BD00BF80B582B041
:1083340002AF4FF45240C0F202004FF001010CF0C2
:10834400DBFC4FF000004FF000014FF000024FF053
:1083540000030DF057FB4FF000004FF005014FF004
:1083640000024FF000030DF04DFB4FF000004FF002
:1083740006014FF000024FF000030DF043FB4FF0F5
:1083840002004FF002014FF000024FF000030DF025
:1083940039FB4FF002004FF003014FF000024FF0A1
:1083A40000030DF02FFB4FF002004FF004014FF0DB
:1083B40000024FF000030DF025FB4FF002004FF0D8
:1083C40005014FF000024FF000030DF01BFB4FF0CE
:1083D40004004FF008014FF000024FF000030DF0CD
:1083E40011FB4FF004004FF00D014FF000024FF06D
:1083F40000030DF007FB4FF004004FF00E014FF0A7
:1084040000024FF000030DF0FDFA4FF004004FF0AE
:108414000F014FF000024FF000030DF0F3FA4FF09C
:1084240005004FF00C014FF000024FF000030DF077
:10843400E9FA4FF005004FF002014FF004024FF04B
:1084440000030DF0DFFA4FF003004FF006014FF088
:1084540001024FF000030DF0D5FA4FF002004FF087
:1084640001014FF004024FF001030DF0CBFA4FF07D
:1084740002004FF000014FF004024FF001030DF031
:10848400C1FA4FF004004FF009014FF004024FF01D
:1084940001030DF0B7FA4FF000004FF00F014FF059
:1084A40004024FF001030DF0ADFA4FF000004FF05D
:1084B40008014FF004024FF000030DF0A3FA4FF04F
:1084C40002004FF006014FF004024FF000030DF0DC
:1084D40099FA4FF002004FF007014FF004024FF0F9
:1084E40000030DF08FFA4FF002004FF008014FF037
:1084F40002024FF000030DF085FA4FF000004FF038
:108504000A014FF002024FF000030DF07BFA4FF026
:10851400010300934FF000004FF00A014FF00102F5
:108524004FF001030DF0FAF94FF003004FF008018A
:108534004FF004024FF001030DF064FA4FF0000015
:108544004FF004014FF001024FF000030DF05AFA0E
:108554004FF0010300934FF000004FF004014FF07F
:1085640001024FF001030DF0D9F94FF000004FF074
:1085740002014FF004024FF000030DF043FA4FF0F4
:1085840000004FF003014FF004024FF000030DF020
:1085940039FA4FF004004FF00B014FF001024FF095
:1085A40000030DF02FFA4FF004004FF00A014FF0D2
:1085B40004024FF000030DF025FA4FF004004FF0D1
:1085C4000C014FF004024FF000030DF01BFA4FF0C2
:1085D40005004FF000014FF000024FF000030DF0D2
:1085E40011FA4FF005004FF001014FF000024FF077
:1085F40000030DF007FA4FF002004FF009014FF0AD
:1086040001024FF000030DF0FDF94FF00103009358
:108614004FF002004FF009014FF001024FF0010347
:108624000DF07CF94FF003004FF007014FF000020A
:108634004FF000030DF0E6F94FF002004FF00A018D
:108644004FF004024FF000030DF0DCF94FF002008C
:108654004FF00B014FF004024FF000030DF0D2F97C
:108664004FF005004FF005014FF004024FF00003F6
:108674000DF0C8F94FF005004FF00A014FF0010268
:108684004FF000030DF0BEF94FF005004FF00B0161
:108694004FF001024FF000030DF0B4F94FF0030066
:1086A4004FF001014FF002024FF001030DF0AAF95F
:1086B4004FF003004FF000014FF004024FF00103AC
:1086C4000DF0A0F94FF003004FF002014FF0040247
:1086D4004FF001030DF096F94FF000004FF0010147
:1086E4004FF004024FF000030DF08CF94FF003003B
:1086F4004FF005014FF004024FF000030DF082F932
:108704004FF003004FF003014FF004024FF0010358
:108714000DF078F94FF003004FF004014FF002021E
:108724004FF001030DF06EF94FF0010300934FF089
:1087340003004FF004014FF001024FF001030DF06C
:10874400EDF84FF000004FF009014FF004024FF034
:1087540000030DF057F94FF001004FF00B014FF0FB
:1087640004024FF000030DF04DF94FF001004FF0FB
:108774000C014FF004024FF000030DF043F9BD4625
:1087840080BD00BF01387FF4FDAF704780B582B073
:1087940000AF78607A684FF4D843C0F2DC2303FB5F
:1087A40002F249F68173C1F25E63A3FB02134FEA3E
:1087B40093431846FFF7E6FF07F10807BD4680BD5F
:1087C40080B582B000AF786003E04FF47A50FFF7D1
:1087D400D9FF7B68002B0CBF00230123DBB27A682E
:1087E40002F1FF327A60002BEFD107F10807BD4692
:1087F40080BD00BF80B483B000AF03463960FB7115
:108804004FF4C042C4F20002F9793B684FF0010012
:1088140000FA03F318460B464FEAC3035B184FEA0A
:108824008303D31803F11003586007F10C07BD4606
:1088340080BC704780B500AF06F09AFD08F054FD87
:1088440001F0A4FB00F07CFB01F0F6F900F028FF36
:1088540001F0F4F84FF0010007F0B4FB00F022FD42
:108864004FF48043C4F20C034FF003021A6180BD3D
:1088740080B500AF00F04AFD00F02EFD4FF001007E
:1088840007F0BAFB01F078FB00F060FB01F0DEF9C1
:1088940000F016FF07F090F806F018FD80BD00BF49
:1088A40080B500AF40F2F843C2F200034FF001027A
:1088B4001A7040F2F943C2F200034FF001021A7039
:1088C40003F0BAFD80BD00BF80B500AF40F2F843AD
:1088D400C2F200034FF000021A7040F2F943C2F2F0
:1088E40000034FF000021A70FFF7C2FF03F0C2FD4D
:1088F40080BD00BF80B582B000AF0346FB7140F27B
:10890400F843C2F200031B78FA799A420BD0FB7940
:10891400012B02D1FFF7C4FF06E0FB79002B03D142
:10892400FFF7D2FF00E000BF07F10807BD4680BD96
:1089340080B400AF40F2F843C2F200031B7818463B
:10894400BD4680BC704700BF80B584B000AF0BF05B
:1089540023FBFFF7EBFC4FF48640C0F204004FF01A
:1089640001010CF0C9F94CF25062C0F2010207F1A6
:1089740004031068516803C3127A1A704FF00C0391
:108984003B7307F1040318460EF0A4F840F2F843D1
:10899400C2F200034FF000021A7040F2F943C2F22F
:1089A40000034FF000021A7004F05AFC06F048F974
:1089B4000AF012FE0BF0A8FB04F098FF4FF002003F
:1089C4004FF00101FFF716FF4FF002004FF00001D6
:1089D400FFF710FF4FF004004FF00901FFF70AFF03
:1089E4004FF000004FF00F01FFF704FF01F0B6F85D
:1089F40000F028FA01F036FA00F01CFC00F086FCC6
:108A040006F0D4FF06F0D8FF00F0EEFF07F03CF9C3
:108A14004FF0010007F070FA4FF0010007F0ECFA94
:108A240000F0D8FD00F04CFE00F05AFE02F05EFFAC
:108A340002F09EFE0BF034F903F032FD06F03CFD2B
:108A44004FF0010004F020FC07F0E8FF08F04EF9B5
:108A54004FF0FF004FF0000108F00CFA4FF0000057
:108A640008F04AFA4FF000004FF000014FF0000206
:108A740008F066FA4FF000004FF000014FF00002DA
:108A840008F09AFA4FF000004FF000014FF0000296
:108A940008F0CEFA4FF0000008F006FB4FF0FA00A1
:108AA400FFF78EFE0DF0FEFF4FF0FF004FF00001C8
:108AB40008F0E0F94FF0FA00FFF782FE0DF0F2FF44
:108AC4004FF000004FF0FF0108F0D4F94FF0FA0026
:108AD400FFF776FE0DF0E6FF4FF000004FF00001C7
:108AE40008F0C8F94FF0FF0008F006FA4FF0FA005A
:108AF400FFF766FE0DF0D6FF4FF0000008F0FCF91A
:108B04004FF0FF004FF000014FF0000208F018FA98
:108B14004FF0FA00FFF754FE0DF0C4FF4FF00000D1
:108B24004FF0FF014FF0000208F00AFA4FF0FA008C
:108B3400FFF746FE0DF0B6FF4FF000004FF00001C6
:108B44004FF0FF0208F0FCF94FF0FA00FFF738FE8F
:108B54000DF0A8FF4FF000004FF000014FF00002AD
:108B640008F0EEF94FF0FF004FF000014FF0000263
:108B740008F022FA4FF0FA00FFF722FE0DF092FF00
:108B84004FF000004FF0FF014FF0000208F014FA1C
:108B94004FF0FA00FFF714FE0DF084FF4FF00000D1
:108BA4004FF000014FF0FF0208F006FA4FF0FA0010
:108BB400FFF706FE0DF076FF4FF000004FF00001C6
:108BC4004FF0000208F0F8F94FF0FF004FF00001F9
:108BD4004FF0000208F02CFA4FF0FA00FFF7F0FD16
:108BE4000DF060FF4FF000004FF0FF014FF0000266
:108BF40008F01EFA4FF0FA00FFF7E2FD0DF052FF05
:108C04004FF000004FF000014FF0FF0208F010FA9F
:108C14004FF0FA00FFF7D4FD0DF044FF4FF00000D1
:108C24004FF000014FF0000208F002FA4FF0FF008D
:108C340008F03AFA4FF0FA00FFF7C2FD0DF032FFE8
:108C44004FF0000008F030FA4FF0FA00FFF7B8FDDB
:108C54000DF028FF06F010FC05F050FE06F07CF93C
:108C640006F0FCFA06F032FB01F086F900E000BFE2
:108C740006F004F940F2F943C2F200031B78002B1A
:108C84000DD003F0CDFB0346002B08D040F2F9438E
:108C9400C2F200034FF000021A70FFF7CBFD40F25E
:108CA400F843C2F200031B78012BE0D14FF4804358
:108CB400C4F20C039B6803F00303002BD7D04FF0DE
:108CC4000000FFF717FED2E780B483B000AF03467D
:108CD400FB714FF46143CEF2000397F907204FEA8A
:108CE4005212F97901F01F014FF0010000FA01F16D
:108CF40043F8221007F10C07BD4680BC704700BF43
:108D040080B483B000AF0346FB714FF46143CEF2ED
:108D1400000397F907204FEA5212F97901F01F0175
:108D24004FF0010000FA01F102F1600243F8221051
:108D340007F10C07BD4680BC704700BF80B483B008
:108D440000AF78607B685B6A184607F10C07BD4684
:108D540080BC704780B483B000AF786039607B68B2
:108D64003A681A6207F10C07BD4680BC704700BF21
:108D740080B483B000AF786039607B685A693B681F
:108D84001A437B685A6107F10C07BD4680BC7047E3
:108D940080B483B000AF78607B689B69184607F1A4
:108DA4000C07BD4680BC704780B483B000AF7860C8
:108DB4000B46FB70FA787B685A6007F10C07BD46D6
:108DC40080BC704780B483B000AF03463960FB7148
:108DD4004FF4C042C4F20002F9793B684FF001003D
:108DE40000FA03F318460B464FEAC3035B184FEA35
:108DF4008303D31803F11003586007F10C07BD4631
:108E040080BC704780B483B000AF03463960FB7107
:108E14004FF4C042C4F20002F9793B684FF00100FC
:108E240000FA03F318460B464FEAC3035B184FEAF4
:108E34008303D31803F11003186007F10C07BD4630
:108E440080BC704780B500AF4FF000004FF00001C8
:108E540000F0E0F84FF001004FF0000100F0DAF804
:108E64004FF002004FF0000100F0D4F880BD00BFC5
:108E740090B583B000AF48F2B213C0F6E0731B782C
:108E8400FB7148F2BE13C0F6E0731B884FEA13135C
:108E94009BB23B60FB79184612F0DCFB044640F2BF
:108EA400FC43C2F200031B683A68D31A184612F056
:108EB400D1FB0346184648F62821C3F6226112F076
:108EC400E1FC03462046194612F042FC03461846CC
:108ED40007F10C07BD4690BD80B500AF40F20053CA
:108EE400C2F200031B68184612F0CCFB0346184676
:108EF4004DF29A51C3F68C2112F0C4FC0346184675
:108F040080BD00BF80B500AF40F20453C2F200033D
:108F14001B68184612F0B6FB034618464DF29A51E8
:108F2400C3F60C2112F0AEFC0346184644F68A310F
:108F3400C3F6865112F0A6FC0346184680BD00BF56
:108F440080B400AFBD4680BC704700BF80B400AFA2
:108F5400BD4680BC704700BF80B582B000AF4FF4FF
:108F64000050C4F20000FFF7E9FE786040F20953B4
:108F7400C2F200031B78DBB2012B0AD0022B15D0FE
:108F8400002B1AD140F2FC43C2F200037A681A6043
:108F940013E04FF005004FF00201FFF713FF40F21A
:108FA4000053C2F200037A681A6006E040F20453E8
:108FB400C2F200037A681A6000BF40F20853C2F29A
:108FC40000034FF001021A704FF40050C4F2000085
:108FD4004FF00101FFF7BEFE4FF00700FFF790FED0
:108FE4004FF40070C0F203004FF000010BF084FE58
:108FF40007F10807BD4680BD80B500AFFFF7ACFFA1
:1090040040F20C53C2F200031B68184605F0A4FE9C
:1090140080BD00BF80B588B000AF02460B46FA7130
:10902400BB714FF40070C0F203004FF001010BF06C
:1090340063FE4FF000033B764FF000037B764FF066
:109044000003BB764FF01F03FB764FF000033B7722
:109054004FF000037B774FF000000BF04FFB03460B
:10906400FB764CF6C070C0F26A004FF000010BF0C2
:1090740009FB03463B774FF000033B734FF00003BB
:109084007B734FF00003BB734FF00003FB734FF08F
:1090940000033B744FF000037B744FF00003BB7478
:1090A4004FF00003FB744FF000033B754FF00203D5
:1090B400BB734FF008037B73FB79012B11D0022B98
:1090C40020D0002B29D14FF00003BB734FF00803CD
:1090D4003B7440F20C53C2F200034FF020021A60BA
:1090E4001BE04FF005004FF00201FFF78BFE4FF03D
:1090F40006033B7440F20C53C2F200034FF04002EB
:109104001A600AE04FF007033B7440F20C53C2F2BA
:1091140000034FF080021A6000BF07F118034FF4F8
:109124000050C4F2000019460BF028FA07F10C03B2
:109134004FF40050C4F2000019460BF053FA4FF4F8
:109144000050C4F200004FF00101FFF711FEBB799B
:10915400002B03D04FF00700FFF7B6FD40F2095390
:10916400C2F20003FA791A7040F20853C2F2000303
:109174004FF000021A704FF40050C4F200004FF098
:109184000101FFF711FEBB7983F00103DBB2002B71
:109194000DD000BF4FF40050C4F20000FFF7F8FDFB
:1091A400034603F00103002BF4D0FFF7D5FE07F1CB
:1091B4002007BD4680BD00BF80B483B000AF034626
:1091C400FB714FF46143CEF2000397F907204FEA95
:1091D4005212F97901F01F014FF0010000FA01F178
:1091E40002F1600243F8221007F10C07BD4680BC6F
:1091F400704700BF80B483B000AF03463960FB7191
:109204004FF4C042C4F20002F9793B684FF0010008
:1092140000FA03F318460B464FEAC3035B184FEA00
:109224008303D31803F11003186007F10C07BD463C
:1092340080BC704790B585B000AF4FF44240C0F297
:1092440002004FF001010BF057FD4CF25C63C0F2D9
:1092540001033C460FCB84E80F004FF4D843C0F21F
:10926400DC237B6046F63C53C0F20103BB603B4603
:109274004FF42440C4F2000019460CF015FD4FF4DD
:109284002443C4F2000340F203129A634FF42440CF
:10929400C4F200004FF001010CF0F4FC07F11407D4
:1092A400BD4690BD80B500AF4FF42443C4F2000323
:1092B4004FF000029A634FF42440C4F200004FF0D0
:1092C40000010CF0DFFC4FF44240C0F202004FF00A
:1092D40000010BF011FD80BD80B500AF4FF442409A
:1092E400C0F202004FF001010BF006FD4FF42443DD
:1092F400C4F2000340F203129A634FF42440C4F210
:1093040000004FF001010CF0BDFC80BD80B500AF42
:109314004FF001004FF00B014FF008024FF0010332
:109324000CF070FB4FF001004FF00C014FF00802FD
:109334004FF001030CF066FB4FF000004FF0090101
:10934400FFF758FF4FF06400FFF73AFA4FF00A00B6
:10935400FFF732FF80BD00BF80B500AF4FF424405B
:10936400C4F200000CF0D0FC03461A4640F210533D
:10937400C2F200031A7080BD80B584B000AF78607B
:109384004FF00003FB605BE04FF42440C4F20000A4
:1093940079680CF007FF03461A4640F21053C2F2F4
:1093A40000031A704FF00003BB6019E04FF424402F
:1093B400C4F200000CF0A8FC03461A4640F2105315
:1093C400C2F200031A7040F21053C2F200031B7879
:1093D400DBB25BB2012B09D1BB6803F10103BB60B3
:1093E400BA6842F20F739A42E0D900E000BF40F23B
:1093F4001053C2F200031B78DBB25BB2B3F1FF3F40
:1094040004D1FB6803F10103FB6019E040F210533F
:10941400C2F200031B78DBB2002B0ED04CF26C605E
:10942400C0F201004FF04A014CF2B062C0F20102F6
:1094340003F054FF4FF0000313E04FF0010310E07A
:10944400FB68042BA0D94CF26C60C0F201004FF011
:109454004F014CF2B062C0F2010203F03FFF4FF043
:109464000003184607F11007BD4680BD80B588B0DB
:1094740000AF0B463A600246FA71BB71FB799BB2AE
:10948400BB814FF00403FB8107F106033B614FF0FE
:109494000103BB823B68BB614FF00103BB8307F14F
:1094A4000C031846FFF768FF0346184607F1200728
:1094B400BD4680BD80B588B000AF13460246FA7140
:1094C4000A46BA717B71FB799BB2BB814FF00803EA
:1094D400FB8107F106033B614FF00103BB8207F1F7
:1094E4000503BB614FF00103BB8307F10C0318466E
:1094F400FFF742FF0346184607F12007BD4680BD2B
:1095040080B58AB000AFBA607B600346FB730B463C
:10951400BB73FB7B9BB2BB824FF00803FB8207F15A
:109524000E03BB614FF00103BB83BB683B627B68E6
:109534009BB2BB8407F114031846FFF71DFF0346D3
:10954400184607F12807BD4680BD00BF80B586B028
:1095540002AF4FF480304FF0AF0107F029F8034613
:10956400BB73BB7B03F01F03FB7323E04FF0E803E3
:109574003B7307F10C0207F104034FF0060100915D
:109584004FF4803011464FF0010206F0C7FF40F25D
:109594001453C2F200031B68002B0BD040F2145387
:1095A400C2F200031B68B888F9883A8900B209B28C
:1095B40012B29847FB7B002B0CBF00230123DBB2C4
:1095C400FA7B02F1FF32FA73002BCFD107F11007B7
:1095D400BD4680BD80B582B000AF40F21453C2F2E4
:1095E40000034FF000021A604FF480304FF08F01F7
:1095F40006F0DEFF0346FB71FB79332B0CD04CF2F3
:10960400B460C0F201004FF07A014CF2F862C0F28B
:10961400010203F063FE2FE04FF480304FF023018A
:109624004FF0A80206F02CFF4FF480304FF02E01CB
:109634004FF0000206F024FF4FF480304FF02E016B
:109644004FF0900206F01CFF4FF480304FF02201DF
:109654004FF0060206F014FF4FF480304FF024015F
:109664004FF0400206F00CFF4FF0040049F2515154
:10967400C0F2000105F03EFB07F10807BD4680BDBE
:1096840080B483B000AF786040F21453C2F2000398
:109694007A681A6007F10C07BD4680BC704700BFAA
:1096A40080B500AF4FF0040005F06CFB4FF4803040
:1096B4004FF020014FF0000206F0E2FE80BD00BF33
:1096C40080B500AF4FF0040005F072FB4FF480301A
:1096D4004FF020014FF0370206F0D2FE80BD00BFEC
:1096E40080B483B000AF40F21853C2F200034FF0CD
:1096F40000021A6040F21C53C2F200034FF0000251
:109704001A6040F24053C2F200034FF000021A60A4
:109714004FF000037B600CE040F22053C2F20003E0
:109724007A689B184FF000021A707B6803F10103FA
:109734007B607B681F2BEFDD07F10C07BD4680BC07
:10974400704700BF80B400AF40F21853C2F2000368
:109754001B68002B0CBF00230123DBB21846BD4657
:1097640080BC704780B582B000AF786040F2185377
:10977400C2F200037A681A6002F0A8F807F1080739
:10978400BD4680BD80B582B000AF786040F218530A
:10979400C2F200031A687B68D21840F21853C2F26E
:1097A40000031A6040F21853C2F200031B68012B35
:1097B40008D902F07BF840F21853C2F200034FF0CC
:1097C40001021A6002F082F807F10807BD4680BD65
:1097D40080B582B000AF786040F21853C2F2000343
:1097E4001B687A689A4209D902F060F840F218536B
:1097F400C2F200034FF000021A600DE040F2185369
:10980400C2F200031A687B68D21A40F21853C2F2FB
:1098140000031A6002F05AF807F10807BD4680BD3C
:1098240080B400AF40F21C53C2F200031B68002B4B
:109834000CBF00230123DBB21846BD4680BC704731
:1098440080B582B000AF786040F21C53C2F20003CE
:109854007A681A6002F042F807F10807BD4680BD35
:1098640080B582B000AF786040F21C53C2F20003AE
:109874001A687B68D21840F21C53C2F200031A60C3
:1098840040F21C53C2F200031B68022B08D902F0F9
:109894000DF840F21C53C2F200034FF002021A60AA
:1098A40002F01CF807F10807BD4680BD80B582B000
:1098B40000AF786040F21C53C2F200031B687A6860
:1098C4009A4209D901F0F2FF40F21C53C2F200039C
:1098D4004FF000021A600DE040F21C53C2F2000384
:1098E4001A687B68D21A40F21C53C2F200031A6051
:1098F40001F0F4FF07F10807BD4680BD80B400AF56
:1099040040F24053C2F200034FF000021A60BD4619
:1099140080BC704780B582B000AF7860396040F297
:109924004053C2F200031A683B68D318202B02D9B3
:1099340001F0BCFF1AE040F24053C2F200031A687F
:1099440040F22053C2F20003D318184679683A68EB
:1099540012F084FB40F24053C2F200031A683B68E1
:10996400D21840F24053C2F200031A6007F108070C
:10997400BD4680BD80B582B000AF7860396040F2EA
:109984004053C2F200031B68002B01D001F08EFF8C
:10999400FFF7B4FF78683968FFF7BCFF02F01EF8E0
:1099A40007F10807BD4680BD80B584B000AFF860FC
:1099B400B9607A603B6040F24053C2F200031B6816
:1099C400002B01D001F072FFFFF798FFF868B96827
:1099D400FFF7A0FF78683968FFF79CFF01F0FEFFEE
:1099E40007F11007BD4680BD80B582B000AF07F116
:1099F40006034FF01C004FF007011A46FFF736FD2F
:109A04000346FB71FB7983F00103DBB2002B11D118
:109A1400BB79C42B0CD04CF2FC60C0F201004FF0B7
:109A24002D014CF24472C0F2010203F057FC01E034
:109A340000F004F807F10807BD4680BD80B582B088
:109A440000AF4FF01C004FF011014FF00002FFF780
:109A540031FD0346FB71FB7983F00103DBB2002B7C
:109A64000CD04CF2FC60C0F201004FF04C014CF2FF
:109A74004472C0F2010203F031FC1CE04FF01C0000
:109A84004FF010014FF00002FFF714FD0346FB7185
:109A9400FB7983F00103DBB2002B0CD04CF2FC60A9
:109AA400C0F201004FF051014CF24472C0F20102C5
:109AB40003F014FC00BF07F10807BD4680BD00BFDA
:109AC40080B483B000AF0346FB714FF46143CEF220
:109AD400000397F907204FEA5212F97901F01F01A8
:109AE4004FF0010000FA01F143F8221007F10C07CE
:109AF400BD4680BC704700BF80B400AF4FF0000388
:109B0400C4F208035B681846BD4680BC704700BFBA
:109B140080B483B000AF78604FF00003C4F2080350
:109B24007A689A6107F10C07BD4680BC704700BF94
:109B340080B483B000AF78604FF00003C4F2080330
:109B44004FF00002C4F20802D1697A680A43DA616C
:109B540007F10C07BD4680BC704700BF80B582B0DA
:109B640000AF40F24453C2F200034FF000021A6007
:109B74004FF48640C0F204004FF001010BF0BCF832
:109B84004FF000004FF001014FF001020BF0D2FC46
:109B94004FF00200C0F206004FF002010BF004FB8C
:109BA4004FF00300C0F212004FF002010BF0FCFA78
:109BB40041F23040C0F208004FF001010BF09CF874
:109BC4004FF48640C0F204004FF001010BF094F80A
:109BD4004FF40043C4F20C034FF40042C4F20C02ED
:109BE400126822F0607242F400021A604FF40043DB
:109BF400C4F20C034FF00202C3F8802000F026F8F0
:109C04004FF00200FFF794FF4FF01E00FFF758FFDC
:109C14004CF24873C0F2010307F1040219889B78DF
:109C24001180937007F1040318460CF017FD07F137
:109C34000807BD4680BD00BF80B500AF4FF00000EF
:109C44004FF6FF710CF0D6FC80BD00BF80B500AFAD
:109C54004FF0000040F2FF310CF0CCFC0CF028FD7A
:109C640080BD00BF80B582B000AF3B4683E80300EF
:109C7400FEF750FB4FF000533A685A604FF0005221
:109C840079684DF68363C4F21B33A3FB01034FEAE7
:109C9400533347F6122101FB03F39360FEF740FBB5
:109CA40007F10807BD4680BD80B584B000AF786079
:109CB400FEF730FB4FF000539B68FB604FF00053FE
:109CC4005B68BB60FEF72CFB7B6807F1080292E837
:109CD400030083E80300786807F11007BD4680BDE0
:109CE40080B586B000AF786000E000BF4FF000534D
:109CF4009B68FB604FF000535B68BB60FFF7FCFEA2
:109D040078614FF000539B683B61FA683B699A4263
:109D1400EBD100BFFA687B6947F6122101FB03F31C
:109D24004FEA9323D318FB607B6807F1080292E89B
:109D3400030083E80300786807F11807BD4680BD77
:109D440080B582B000AF7860FEF7E4FA40F2445385
:109D5400C2F200037A681A60FEF7E2FA07F1080714
:109D6400BD4680BD80B400AF40F24453C2F200034C
:109D74001B681846BD4680BC704700BF80B582B0E2
:109D840000AF4FF00200FFF7C3FE4FF000533B60FB
:109D94004FF00003C4F208039A6840F2FF339A427A
:109DA40037D13B689B6803F5F44303F112037B60EE
:109DB4007A6844F23F23C0F20F039A420BD97B68BE
:109DC400A3F57423A3F510737B603B685B6803F110
:109DD40001023B685A603B687A689A6040F24453D7
:109DE400C2F200031B68002B19D040F24453C2F2A4
:109DF40000031B6803F1FF331A4640F24453C2F2D6
:109E040000031A60002A0AD14FF4807004F0A4FF02
:109E140005E03B685B6803F102023B685A6007F1A6
:109E24000807BD4680BD00BF90B400AF48F2B01330
:109E3400C0F6E0735C6C22464FF0000311464FF00D
:109E4400000048F2B013C0F6E0731C6C22464FF0D9
:109E5400000342EA000243EA010310461946BD46E4
:109E640090BC704780B586B002AF40F24863C2F23E
:109E740000034FF000021A7040F2BC70C2F20000FE
:109E840040F29061C2F200014FF4967203F0E4FADA
:109E94004FF4A573009340F61400C2F2000044F29C
:109EA4002021C5F253514FF0400240F62803C2F27C
:109EB400000303F07BFC4AF2DD00C0F2000004F072
:109EC400EFFE4FF400604AF22521C0F2000104F0D5
:109ED40011FFFFF7A9FFC7E902014FF000037B6000
:109EE4002BE03B7A03F00F03FB70FB78092B04D8BB
:109EF400FB7803F13003FB7003E0FB7803F13703D5
:109F0400FB70FB7899B240F2C442C2F200027B6853
:109F14004FEA4303D3180A465A80FB684FEA037397
:109F2400BA684FEA12121343BB60FB684FEA13137B
:109F3400FB607B6803F101037B607B680F2BD0D946
:109F440007F11007BD4680BD80B500AF0DF0FAF9EA
:109F54000346002B0CBF00230123DBB2184680BD4F
:109F640080B500AF0DF0EEF90346052B14BF0023B6
:109F74000123DBB2184680BD80B500AF4CF620004B
:109F8400C0F201000DF0EAF980BD00BF80B500AF5A
:109F94000DF070FD80BD00BF80B483B000AF0346F8
:109FA400FB7140F24863C2F200031A78114640F292
:109FB4004853C2F20003F879585402F10103DAB2AB
:109FC40040F24863C2F200031A704FF000031846CF
:109FD40007F10C07BD4680BC704700BF80B588B050
:109FE40000AF78606FF00203FB617B681B7803F0BD
:109FF4006003DBB2002B66D17B681B7823F07F0300
:10A00400DBB2002B5FD07B681B7803F01F03DBB24D
:10A01400012B58D17B685B78062B54D17B685B8815
:10A024009BB24FEA13239BB2222B1DD14FF0200386
:10A03400BB617B689A79DB794FEA03231343FB8284
:10A04400FA8ABB699A4238BF13464FF000004CF2BB
:10A054006071C0F201011A464FF000030DF028FDB3
:10A064004FF00003FB612DE07B685B889BB24FEAF5
:10A0740013239BB2212B25D140F67410C2F20000A9
:10A0840014494FF0090211F0E9FF4FF009033B6155
:10A094007B689A79DB794FEA03231343FB81FA89BE
:10A0A4003B699A42B8BF13464FF0000040F6741162
:10A0B400C2F200011A464FF000030DF0F9FC4FF014
:10A0C4000003FB6100BFFB69184607F12007BD468A
:10A0D40080BD00BF92C7010080B500AF0DF070FCD9
:10A0E4000346184680BD00BF80B582B000AF02466B
:10A0F4000B46FA71BB7144F22050C4F24C200AF0B2
:10A104001FF8BB79052B05D140F2BC70C2F20000E8
:10A1140003F0C4F94FF4406004F01EFE07F1080791
:10A12400BD4680BD80B584B000AF0346B9607A6097
:10A13400FB734FF4006004F00FFE97F90F30002B0F
:10A144000ED04CF63C00C0F2010003F075F940F269
:10A15400BC70C2F2000003F0A1F94FF0000347E025
:10A1640040F2BC70C2F2000040F25061C2F2000141
:10A17400BA6803F03DFA40F2BC70C2F2000003F08A
:10A18400A7F90346032B31D801A252F823F000BFEC
:10A19400F1A10000F1A10000A5A10000D7A10000D9
:10A1A40040F2BC73C2F200031A6840F2BC73C2F2FC
:10A1B4000003DB6840F61400C2F2000011461A46A0
:10A1C40003F0B4FB40F2BC70C2F2000003F066F985
:10A1D4000CE04CF63C00C0F2010003F02DF940F213
:10A1E400BC70C2F2000003F059F900BF4FF0000345
:10A1F400184607F11007BD4680BD00BF80B584B086
:10A2040000AF0346B9607A60FB734FF4006004F05A
:10A21400A3FD4FF00003184607F11007BD4680BDAB
:10A2240080B582B000AF0DF08DF80346052B57D1F1
:10A234004FF001000DF060F8034683F00103DBB238
:10A24400002B1ED04FF0010040F25061C2F2000119
:10A254004FF040024AF22913C0F200030DF002FB52
:10A2640078607B68002B10D040F24C63C2F200038C
:10A274001B6803F1010240F24C63C2F200031A604E
:10A2840003E04FF4006004F067FD4FF081000DF02F
:10A2940033F8034683F00103DBB2002B1BD040F6F6
:10A2A4001400C2F2000040F2D471C2F2000103F0C3
:10A2B400D3FA0346002B14D04FF0810040F2D4713E
:10A2C400C2F200014FF040024AF20123C0F200033F
:10A2D4000DF0EEFB05E04FF4006004F03DFD00E0FE
:10A2E40000BF07F10807BD4680BD00BF80B584B03C
:10A2F40000AF0346B9607A60FB73FB7B184600F03D
:10A304001DFE07F11007BD4680BD00BF80B586B0B5
:10A3140000AF0346B9607A60FB73FB7B002B04D06B
:10A32400FB7B184600F016FE21E07B68022B02D06E
:10A3340001F0BCFA1BE0BB681B784FEA03239AB216
:10A34400BB6803F101031B7813439BB2FB82FB8AB6
:10A354001BB2002B07DBFB8A03F00103002B02D0A6
:10A3640000F004FE03E0FB8A184601F0E9FF07F160
:10A374001807BD4680BD00BF80B584B000AF03465A
:10A38400B9607A60FB73FB7B002B04D0FB7B18461F
:10A3940000F0F2FD01E000F0FBFD07F11007BD46FF
:10A3A40080BD00BF80B584B000AF0346B9607A6059
:10A3B400FB73FB7B012B02D0022B03D005E001F0E1
:10A3C40031FE07E001F066FE04E0FB7B184600F076
:10A3D400E5FD00BF07F11007BD4680BD80B588B01C
:10A3E40000AF0346B9607A60FB73FB7B012B02D09C
:10A3F400022B12D014E0BB681B78FB77BB6803F117
:10A404000103BB617B6803F1FF337B61FB7F18466B
:10A41400B9697A6900F0DAFD07E000F0E3FD04E0D1
:10A42400FB7B184600F0C6FD00BF07F12007BD46C0
:10A4340080BD00BF80B584B000AF0346B9607A60C8
:10A44400FB73FB7B012B02D0022B03D005E000F051
:10A45400DBFD07E000F0DEFD04E0FB7B184600F0C6
:10A46400C7FD00BF07F11007BD4680BD80B58AB0A7
:10A4740002AF0346B9607A60FB73FB7B002B04D008
:10A48400FB7B184600F0CCFD1FE0B86802F0E0FB4F
:10A494000346FB83BB689B787B77BB68DB783B77A1
:10A4A400BB6803F10403184602F0E8FBB861BB681B
:10A4B4001B7AFB75F98B7A7F3B7FF87D0090084609
:10A4C40011461A46BB6900F0B7FD07F12007BD46E7
:10A4D40080BD00BF80B586B000AF0346B9607A6026
:10A4E400FB73FB7B002B04D0FB7B184600F0B4FD10
:10A4F40009E0BB687B61BB689B79FB74FB7C786972
:10A50400194600F0B5FD07F11807BD4680BD00BF30
:10A5140080B586B000AF0346B9607A60FB73FB7BFD
:10A52400002B04D0FB7B184600F0AEFD15E0B868A4
:10A5340002F08EFB0346FB82FB8A184611F08AF870
:10A544000346184644F2AE71C4F2610111F09AF95F
:10A5540003463B61386900F0A3FD07F11807BD46C7
:10A5640080BD00BF80B586B000AF0346B9607A6095
:10A57400FB73FB7B002B04D0FB7B184600F09AFD99
:10A5840014E0B86802F064FB0346FB82B7F91630A6
:10A59400184611F05FF8034618464FF07A5111F04F
:10A5A40071F903463B61386900F090FD07F1180723
:10A5B400BD4680BD80B584B000AF0346B9607A6003
:10A5C400FB73FB7B002B04D0FB7B184600F088FD5B
:10A5D40001E000F091FD07F11007BD4680BD00BF0A
:10A5E40080B584B000AF0346B9607A60FB73FB7B2F
:10A5F400002B04D0FB7B184600F084FD01E000F042
:10A604008DFD07F11007BD4680BD00BF80B584B045
:10A6140000AF0346B9607A60FB73FB7B002B04D068
:10A62400FB7B184600F080FD01E000F089FD07F196
:10A634001007BD4680BD00BF80B584B000AF03469F
:10A64400B9607A60FB73FB7B002B04D0FB7B18465C
:10A6540000F07CFD01E000F085FD07F11007BD4628
:10A6640080BD00BF80B584B000AF0346B9607A6096
:10A67400FB73FB7B002B04D0FB7B184600F078FDBA
:10A6840001E000F081FD07F11007BD4680BD00BF69
:10A6940080B584B000AF0346B9607A60FB73FB7B7E
:10A6A400002B04D0FB7B184600F074FD01E000F0A1
:10A6B4007DFD07F11007BD4680BD00BF80B584B0A5
:10A6C40000AF0346B9607A60FB73FB7B002B04D0B8
:10A6D400FB7B184600F070FD01E000F079FD07F106
:10A6E4001007BD4680BD00BF80B584B000AF0346EF
:10A6F400B9607A60FB73FB7B002B04D0FB7B1846AC
:10A7040000F06CFD01E000F075FD07F11007BD4697
:10A7140080BD00BF80B584B000AF0346B9607A60E5
:10A72400FB73FB7B002B04D0FB7B184600F068FD19
:10A7340001E000F071FD07F11007BD4680BD00BFC8
:10A7440080B584B000AF0346B9607A60FB73FB7BCD
:10A75400002B04D0FB7B184600F064FD01E000F000
:10A764006DFD07F11007BD4680BD00BF80B584B004
:10A7740000AF0346B9607A60FB73FB7B002B04D007
:10A78400FB7B184600F060FD01E000F069FD07F175
:10A794001007BD4680BD00BF80B584B000AF03463E
:10A7A400B9607A60FB73FB7B002B04D0FB7B1846FB
:10A7B40000F05CFD01E000F065FD07F11007BD4607
:10A7C40080BD00BF80B584B000AF0346B9607A6035
:10A7D400FB73FB7B002B04D0FB7B184600F058FD79
:10A7E40001E000F061FD07F11007BD4680BD00BF28
:10A7F40080B584B000AF0346B9607A60FB73FB7B1D
:10A80400002B04D0FB7B184600F054FD01E000F05F
:10A814005DFD07F11007BD4680BD00BF80B584B063
:10A8240000AF0346B9607A60FB73FB7B002B04D056
:10A83400FB7B184600F050FD01E000F059FD07F1E4
:10A844001007BD4680BD00BF80B584B000AFBA60BC
:10A854007B600346FB730B46BB73FB7B052B03D06A
:10A864004FF00100FEF78EFFFB7B03F1FF331E2B3D
:10A8740000F2F18001A252F823F000BFFDA800000D
:10A884005BAA00000BA900005BAA000019A9000044
:10A8940027A9000035A9000043A9000051A9000020
:10A8A4005FA900006DA900007BA900004DAA00006B
:10A8B40089A9000097A90000A5A90000B3A9000078
:10A8C400C1A90000CFA90000DDA900005BAA000017
:10A8D4005BAA00005BAA00005BAA0000EBA90000D1
:10A8E400F9A9000007AA000015AA000023AA000085
:10A8F40031AA00003FAA0000BB7B1846B9687A68F9
:10A90400FFF7F4FCAAE0BB7B1846B9687A68FFF746
:10A91400FDFCA3E0BB7B1846B9687A68FFF72CFD01
:10A924009CE0BB7B1846B9687A68FFF73BFD95E06D
:10A93400BB7B1846B9687A68FFF750FD8EE0BB7B95
:10A944001846B9687A68FFF775FD87E0BB7B18463F
:10A95400B9687A68FFF78AFD80E0BB7B1846B9685E
:10A964007A68FFF7B7FD79E0BB7B1846B9687A6867
:10A97400FFF7CEFD72E0BB7B1846B9687A68FFF733
:10A98400F1FD6BE0BB7B1846B9687A68FFF712FEED
:10A9940064E0BB7B1846B9687A68FFF721FE5DE086
:10A9A400BB7B1846B9687A68FFF730FE56E0BB7B7C
:10A9B4001846B9687A68FFF73FFE4FE0BB7B18463C
:10A9C400B9687A68FFF74EFE48E0BB7B1846B96861
:10A9D4007A68FFF75DFE41E0BB7B1846B9687A6888
:10A9E400FFF76CFE3AE0BB7B1846B9687A68FFF75C
:10A9F4007BFE33E0BB7B1846B9687A68FFF78AFEB2
:10AA04002CE0BB7B1846B9687A68FFF799FE25E00D
:10AA1400BB7B1846B9687A68FFF7A8FE1EE0BB7BCB
:10AA24001846B9687A68FFF7B7FE17E0BB7B18468B
:10AA3400B9687A68FFF7C6FE10E0BB7B1846B968B0
:10AA44007A68FFF7D5FE09E0BB7B1846B9687A68D7
:10AA5400FFF7E4FE02E000F029FF00BF07F1100752
:10AA6400BD4680BD80B584B000AF786039603B6876
:10AA7400042B02D000F01AFF10E07B685B78FB73B4
:10AA84007B689B78BB737B68DB787B73F97BBA7BD1
:10AA94007B7B084611461A4601F072FA07F110074B
:10AAA400BD4680BD80B582B000AF786039607B68F8
:10AAB40003F101023B6803F1FF331046194600F02D
:10AAC4001DFC07F10807BD4680BD00BF80B584B0FA
:10AAD40000AF786039607B6803F10103184602F027
:10AAE400B7F80346FB817B6803F10303BB60FB8972
:10AAF4001846B96800F00CFC07F11007BD4680BD8C
:10AB040080B586B000AF786039603B68022B02D80C
:10AB140000F0CCFE15E07B685B78FB757B689B7866
:10AB2400BB757B6803F103033B613B68A3F103033B
:10AB3400FB60FA7DBB7D104619463A69FB68FFF756
:10AB440083FE07F11807BD4680BD00BF80B588B0FD
:10AB540002AF786039603B680F2B02D000F0A6FE8C
:10AB64002CE07B685B78FB757B6803F102033B6137
:10AB74007B6803F10803184602F06AF80346FB8178
:10AB84007B6803F10A03184602F062F80346BB81AE
:10AB94007B6803F10C03184602F05AF803467B81E4
:10ABA4007B689B7B7B72F97DFA89BB8978890090ED
:10ABB400787A01900846396901F07AFA07F11807A2
:10ABC400BD4680BD80B584B000AF786039603B6815
:10ABD400032B02D000F06AFE0BE07B685B78FB730A
:10ABE4007B689B78BB73FA7BBB7B1046194601F0EC
:10ABF40089FA07F11007BD4680BD00BF90B587B044
:10AC040002AF786039603B68072B02D000F04EFE3B
:10AC14001BE07B685B78FB737B689B78BB737B680A
:10AC2400DB787B737B681B793B737B685B79FB7296
:10AC34007B689B79BB72F87BB97B7A7B3B7BFC7A24
:10AC44000094BC7A019400F06FFB07F11407BD4631
:10AC540090BD00BF80B586B000AF786039603B68B6
:10AC6400112B02D000F022FE15E07B6803F10103F2
:10AC7400184602F025F8C7E904017B6803F10903CB
:10AC8400184602F01DF8C7E90201D7E90401D7E923
:10AC9400022301F0AFFA07F11807BD4680BD00BFDB
:10ACA40080B584B000AF786039603B68072B02D070
:10ACB40000F0FCFD1FE07B6803F10103184601F07E
:10ACC400C7FF0346FB817B6803F10303184601F0C9
:10ACD400BFFF0346BB817B6803F10503184601F0FF
:10ACE400B7FF03467B81F989BA897B8908461146F7
:10ACF4001A4600F025FB07F11007BD4680BD00BFD2
:10AD040080B584B000AF786039603B68072B02D00F
:10AD140000F0CCFD06E07B6803F10103FB60F868FA
:10AD240000F01CFB07F11007BD4680BD80B584B060
:10AD340000AF786039603B68022B02D000F0B6FDAA
:10AD440006E07B685B78FB73FB7B184600F010FB26
:10AD540007F11007BD4680BD80B584B000AF7860B0
:10AD640039603B68022B02D000F0A0FD06E07B684E
:10AD74005B78FB73FB7B184601F02EFA07F1100792
:10AD8400BD4680BD80B586B000AF786039603B6851
:10AD9400022B02D800F08AFD15E07B685B78FB7516
:10ADA4007B689B78BB757B6803F103033B613B685D
:10ADB400A3F10303FB60FA7DBB7D104619463A6993
:10ADC400FB6801F021F907F11807BD4680BD00BFFB
:10ADD40080B586B000AF786039603B68012B02D83B
:10ADE40000F064FD10E07B685B78FB757B6803F121
:10ADF40002033B613B68A3F10203FB60FB7D184641
:10AE04003969FA6801F076FA07F11807BD4680BD82
:10AE140080B584B000AF786039603B68022B02D003
:10AE240000F044FD06E07B685B78FB73FB7B18460F
:10AE340000F0A8FA07F11007BD4680BD80B584B0C4
:10AE440000AF786039607B681B78FB73FB7BA3F1F0
:10AE540081030E2B6BD801A252F823F09DAE0000A3
:10AE6400A7AE0000B1AE0000BBAE0000C5AE00004E
:10AE7400CFAE0000D9AE0000E3AE0000EDAE00009E
:10AE84000BAF000029AF00001FAF000015AF00009A
:10AE9400F7AE000001AF000078683968FFF7E2FD03
:10AEA40048E078683968FFF7FDFD43E07868396861
:10AEB400FFF70CFE3EE078683968FFF721FE39E0C1
:10AEC40078683968FFF742FE34E078683968FFF73C
:10AED40079FE2FE078683968FFF790FE2AE07868F9
:10AEE4003968FFF7B7FE25E078683968FFF7D8FEC0
:10AEF40020E078683968FFF703FF1BE07868396859
:10AF0400FFF714FF16E078683968FFF725FF11E0B2
:10AF140078683968FFF736FF0CE078683968FFF71E
:10AF240057FF07E078683968FFF772FF02E000F026
:10AF3400BDFC00BF07F11007BD4680BD80B582B0DF
:10AF440000AF0346FB7100F0B1FC07F10807BD46F2
:10AF540080BD00BF80B582B000AF0346FB7100F036
:10AF6400A5FC07F10807BD4680BD00BF80B500AF52
:10AF740000F09CFC80BD00BF80B582B000AF0346EA
:10AF8400FB7100F093FC07F10807BD4680BD00BFCC
:10AF940080B400AFBD4680BC704700BF80B582B0AE
:10AFA40000AF0346FB7100F081FC07F10807BD46C2
:10AFB40080BD00BF80B582B000AF0346FB7100F0D6
:10AFC40075FC07F10807BD4680BD00BF80B485B09D
:10AFD40000AFF860B9607A6007F11407BD4680BC21
:10AFE400704700BF80B400AFBD4680BC704700BF4F
:10AFF40080B582B000AF0346FB7100F057FC07F147
:10B004000807BD4680BD00BF80B400AFBD4680BC0C
:10B01400704700BF80B400AFBD4680BC704700BF1E
:10B0240080B582B000AF0346FB7100F03FFC07F12E
:10B034000807BD4680BD00BF80B483B000AF3B604D
:10B044000346FB800B467B7113463B7107F10C07EB
:10B05400BD4680BC704700BF80B582B000AF0346D8
:10B06400FB7100F023FC07F10807BD4680BD00BF5B
:10B0740080B483B000AF78600B46FB7007F10C0717
:10B08400BD4680BC704700BF80B582B000AF0346A8
:10B09400FB7100F00BFC07F10807BD4680BD00BF43
:10B0A40080B483B000AF786007F10C07BD4680BC64
:10B0B400704700BF80B582B000AF0346FB7100F05B
:10B0C400F5FB07F10807BD4680BD00BF80B483B01F
:10B0D40000AF786007F10C07BD4680BC704700BF25
:10B0E40080B582B000AF0346FB7100F0DFFB07F1CF
:10B0F4000807BD4680BD00BF80B400AFBD4680BC1C
:10B10400704700BF80B582B000AF0346FB7100F00A
:10B11400CDFB07F10807BD4680BD00BF80B400AF7A
:10B12400BD4680BC704700BF80B582B000AF034607
:10B13400FB7100F0BBFB07F10807BD4680BD00BFF3
:10B1440080B400AFBD4680BC704700BF80B582B0FC
:10B1540000AF0346FB7100F0A9FB07F10807BD46E9
:10B1640080BD00BF80B400AFBD4680BC704700BF47
:10B1740080B582B000AF0346FB7100F097FB07F186
:10B184000807BD4680BD00BF80B400AFBD4680BC8B
:10B19400704700BF80B582B000AF0346FB7100F07A
:10B1A40085FB07F10807BD4680BD00BF80B400AF32
:10B1B400BD4680BC704700BF80B582B000AF034677
:10B1C400FB7100F073FB07F10807BD4680BD00BFAB
:10B1D40080B400AFBD4680BC704700BF80B582B06C
:10B1E40000AF0346FB7100F061FB07F10807BD46A1
:10B1F40080BD00BF80B400AFBD4680BC704700BFB7
:10B2040080B582B000AF0346FB7100F04FFB07F13D
:10B214000807BD4680BD00BF80B400AFBD4680BCFA
:10B22400704700BF80B582B000AF0346FB7100F0E9
:10B234003DFB07F10807BD4680BD00BF80B400AFE9
:10B24400BD4680BC704700BF80B582B000AF0346E6
:10B25400FB7100F02BFB07F10807BD4680BD00BF62
:10B2640080B400AFBD4680BC704700BF80B582B0DB
:10B2740000AF0346FB7100F019FB07F10807BD4658
:10B2840080BD00BF80B400AFBD4680BC704700BF26
:10B2940080B582B000AF0346FB7100F007FB07F1F5
:10B2A4000807BD4680BD00BF80B400AFBD4680BC6A
:10B2B400704700BF80B582B000AF0346FB7100F059
:10B2C400F5FA07F10807BD4680BD00BF80B400AFA2
:10B2D400BD4680BC704700BF80B582B000AF034656
:10B2E400FB7100F0E3FA07F10807BD4680BD00BF1B
:10B2F40080B400AFBD4680BC704700BF80B483B04B
:10B3040000AF7860396007F10C07BD4680BC704718
:10B3140080B582B000AF03463960FB8000F0C6FA06
:10B3240007F10807BD4680BD80B483B000AFF87153
:10B33400B9717A713B7107F10C07BD4680BC704747
:10B3440080B483B000AF13460246FA800A46BA803E
:10B354007B8007F10C07BD4680BC704780B483B086
:10B3640000AF786007F10C07BD4680BC704700BF92
:10B3740080B483B000AF0346FB7107F10C07BD46F0
:10B3840080BC704780B483B000AF0346FB7107F103
:10B394000C07BD4680BC704780B582B000AF7860B2
:10B3A40039604FF00100FEF713FA78683968FEF748
:10B3B400E1FA07F10807BD4680BD00BF80B582B041
:10B3C40000AF786039604FF00100FEF76FFA7868DB
:10B3D4003968FEF7CFFA07F10807BD4680BD00BF04
:10B3E40080B584B000AFF860B9607A603B604FF01C
:10B3F4000100FEF75BFAF868B9687A683B68FEF703
:10B40400D3FA07F11007BD4680BD00BF80B584B0F4
:10B4140000AF0346FB714FF002033B734FF001038F
:10B424007B73FB79BB7307F10C0318464FF00301E0
:10B43400FFF7B2FF07F11007BD4680BD80B584B0A9
:10B4440000AF0346FB804FF003033B734FF003034D
:10B454007B73FB884FEA13239BB2DBB2BB73FB887D
:10B46400DBB2FB7307F10C0318464FF00401FFF73E
:10B4740093FF07F11007BD4680BD00BF80B582B0C1
:10B4840000AF4CF64003C0F2010307F104021B882D
:10B49400138007F1040318464FF00201FFF77CFF05
:10B4A40007F10807BD4680BD80B582B000AF4CF6F9
:10B4B4004403C0F2010307F104021B88138007F15F
:10B4C400040318464FF00201FFF766FF07F108076F
:10B4D400BD4680BD80B584B000AF02460B46FA80FD
:10B4E400BB804FF005033B724FF00F037B72FB8868
:10B4F400DBB2BB72FB884FEA13239BB2DBB2FB7255
:10B50400BB88DBB23B73BB884FEA13239BB2DBB22D
:10B514007B7307F1080318464FF00601FFF73CFF61
:10B5240007F11007BD4680BD80B584B000AF034667
:10B53400FB714FF002033B734FF011037B73FB79F4
:10B54400BB7307F10C0318464FF00301FFF724FF08
:10B5540007F11007BD4680BD80B584B000AF034637
:10B56400FB714FF002033B734FF012037B73FB79C3
:10B57400BB7307F10C0318464FF00301FFF70CFFF0
:10B5840007F11007BD4680BD80B586B000AFF880D6
:10B59400B9807A803B804FF009033B734FF013036B
:10B5A4007B73FB88DBB2BB73FB884FEA13239BB22C
:10B5B400DBB2FB73BB88DBB23B74BB884FEA13235B
:10B5C4009BB2DBB27B747B88DBB2BB747B884FEAB3
:10B5D40013239BB2DBB2FB743B88DBB23B753B8825
:10B5E4004FEA13239BB2DBB27B7507F10C031846B9
:10B5F4004FF00A01FFF7D0FE07F11807BD4680BDE2
:10B6040080B584B000AF0346FB714FF002033B7377
:10B614004FF01F037B73FB79BB7307F10C031846D0
:10B624004FF00301FFF7B8FE07F11007BD4680BDD8
:10B6340080B586B000AF0346B9607A60FB737B685F
:10B64400DBB203F10203DBB23B754FF015037B75EC
:10B65400FB7BBB7507F1140318464FF00301BA686E
:10B664007B68FFF7BDFE07F11807BD4680BD00BF2C
:10B6740080B584B000AF0346FB714FF002033B7307
:10B684004FF016037B73FB79BB7307F10C03184669
:10B694004FF00301FFF792FE07F11007BD4680BD8E
:10B6A40080B483B000AF03463960FB714FF4C042ED
:10B6B400C4F20002F9790B464FEAC3035B184FEA60
:10B6C4008303D31803F118035A683B6822FA03F37F
:10B6D40003F00103184607F10C07BD4680BC704710
:10B6E40080B483B000AF03463960FB714FF4C042AD
:10B6F400C4F20002F9793B684FF0010000FA03F349
:10B7040018460B464FEAC3035B184FEA8303D3186A
:10B7140003F11003586007F10C07BD4680BC704765
:10B7240080B483B000AF03463960FB714FF4C0426C
:10B73400C4F20002F9793B684FF0010000FA03F308
:10B7440018460B464FEAC3035B184FEA8303D3182A
:10B7540003F11003186007F10C07BD4680BC704765
:10B7640080B500AF00F0DAF800F000FC80BD00BF47
:10B7740080B582B002AF40F68013C2F200034FF0EE
:10B7840000021A6040F68413C2F200034FF0000274
:10B794001A6040F68813C2F200034FF000021A60E8
:10B7A40040F68C13C2F200034FF000021A6040F618
:10B7B4009013C2F200034FF000004FF00001C3E900
:10B7C400000140F69813C2F200034FF000004FF05E
:10B7D4000001C3E9000140F6A013C2F200034FF0D8
:10B7E40000021A7040F6A213C2F200034FF00002E6
:10B7F4001A8040F6A413C2F200034FF000021A802C
:10B8040040F6D420C2F2000040F6A811C2F20001B2
:10B814004FF4967201F020FE4FF4A573009340F6A6
:10B824000030C2F2000044F22051C4F24C214FF027
:10B83400140240F61433C2F2000301F0B7FF40F6DD
:10B844006043C2F200034FF000021A7040F67043E6
:10B85400C2F200034FF000021A7040F67143C2F2C4
:10B8640000034FF000021A7040F67243C2F2000364
:10B874004FF000021A7040F67343C2F200034FF017
:10B8840000021A704EF201004BF26571C0F2000121
:10B8940003F030FA40F66440C2F200004CF2653125
:10B8A400C0F2000107F0BAFEBD4680BD80B500AF0E
:10B8B4004CF6A420C0F201004FF0E4014CF6EC2257
:10B8C400C0F2010201F00AFD80BD00BF80B500AFE7
:10B8D4004FF4804003F040FA80BD00BF80B500AF54
:10B8E4004FF4005003F038FA80BD00BF80B500AFBC
:10B8F4004FF003004FF00501FFF7F2FE4FF0640034
:10B90400FCF75EFF4FF003004FF00501FFF708FF5F
:10B914004FF06400FCF754FF80BD00BF80B594B0C5
:10B9240000AF4FF003004FF00401FFF7B9FE0346E8
:10B93400002B02D04FF000034BE040F24053C2F220
:10B9440000031B68002B02D04FF0030301E04FF00B
:10B9540001033B7440F22053C2F200037B614FF0B9
:10B964002003BB6140F24053C2F200031B68FB6139
:10B9740007F12C033B624FF020037B624FF002037C
:10B98400BB624FF002033B6007F110037B604FF092
:10B994000103BB604FF00003FB603B464FF0011016
:10B9A400194604F005FD4FF0010004F047FDFDF7D2
:10B9B400A5FF97F82D30FB64FB6C002B07D007F133
:10B9C4002C0303F102031846F96CFFF737FA4FF022
:10B9D4000103184607F15007BD4680BD80B582B00B
:10B9E40000AF4FF0011004F0A5FC4FF003004FF03E
:10B9F4000301FFF775FE00BF4FF003004FF0040191
:10BA0400FFF74EFE0346002BF6D1FFF787FF0346F0
:10BA1400FB71FB7983F00103DBB2002B0BD04CF6F6
:10BA2400A420C0F2010040F221114CF6F022C0F231
:10BA3400010201F053FC07F10807BD4680BD00BFB9
:10BA440080B582B000AF786040F68013C2F2000384
:10BA54001A687B681A4340F68013C2F200031A6026
:10BA64004FF4004003F078F907F10807BD4680BDA4
:10BA740080B483B000AF78607B686FEA030240F65D
:10BA84008013C2F200031B681A4040F68013C2F20E
:10BA940000031A6007F10C07BD4680BC704700BF65
:10BAA40080B582B000AF786040F68413C2F2000320
:10BAB4001A687B681A4340F68413C2F200031A60C2
:10BAC4004FF4004003F048F907F10807BD4680BD74
:10BAD40080B483B000AF78607B686FEA030240F6FD
:10BAE4008413C2F200031B681A4040F68413C2F2A6
:10BAF40000031A6007F10C07BD4680BC704700BF05
:10BB040090B58BB000AFB5E140F68013C2F20003EC
:10BB14001B6803F04003002B11D0FFF7AFFC4FF07C
:10BB24004000FFF7A5FF40F6A013C2F200034FF058
:10BB340001021A704FF2010003F024F99AE140F671
:10BB44008013C2F200031B6803F08003002B06D0AD
:10BB5400FFF7AAFC4FF08000FFF78AFF8AE140F666
:10BB64008013C2F200031B6803F00103002B02D010
:10BB740000F058FA7EE140F68013C2F200031B681D
:10BB840003F00203002B10D04FF00003FB834FF4AB
:10BB9400C863BB83FA8BBB8B10461946FFF79AFC2C
:10BBA4004FF00200FFF764FF64E140F68013C2F235
:10BBB40000031B6803F00403002B16D04FF010039E
:10BBC4007B834FF020033B834FF00003FB824FF451
:10BBD4001673BB82788B398BFA8ABB8AFFF7D4FC45
:10BBE4004FF00400FFF744FF44E140F68013C2F233
:10BBF40000031B6803F00803002B60D04FF001031F
:10BC04007B624AE07B6AA3F120034FF0010202FA4F
:10BC140003F2796AC1F120014FF0010020FA01F129
:10BC24004FF00004786A04FA00F00143F960F968FF
:10BC3400002BB4BF0B461346FB604FF001027B6A36
:10BC440002FA03F3BB6040F69813C2F20003D3E98F
:10BC54000001D7E9022302EA000203EA010352EADF
:10BC6400030116D0D7E902236FEA02006FEA030149
:10BC740040F69813C2F20003D3E9002300EA02005D
:10BC840001EA030140F69813C2F20003C3E900017C
:10BC940006E07B6A03F101037B627B6A3E2BB1DD24
:10BCA40040F69813C2F20003D3E9002352EA0301D9
:10BCB40040F0E0804FF00800FFF7DAFEDAE040F6EB
:10BCC4008013C2F200031B6803F01003002B64D03E
:10BCD4004FF001033B624FE03B6AA3F120034FF0B6
:10BCE400010202FA03F2396AC1F120014FF00100A6
:10BCF40020FA01F14FF00004386A04FA00F001431D
:10BD040079607968002BB4BF0B4613467B604FF013
:10BD140001023B6A02FA03F33B6040F69013C2F25D
:10BD24000003D3E90001D7E9002302EA000203EA91
:10BD3400010352EA03011BD03B6ADBB21846FFF74A
:10BD44005FFCD7E900236FEA02006FEA030140F6C3
:10BD54009013C2F20003D3E9002300EA020001EACF
:10BD6400030140F69013C2F20003C3E9000106E0A8
:10BD74003B6A03F101033B623B6A3E2BACDD40F6B8
:10BD84009013C2F20003D3E9002352EA030171D1F4
:10BD94004FF01000FFF76CFE6CE040F68013C2F227
:10BDA40000031B6803F02003002B08D04FF00100B0
:10BDB400FFF7BAFB4FF02000FFF75AFE5AE040F6B7
:10BDC4008013C2F200031B6803F48073002B08D0B5
:10BDD4004FF00200FFF71AFB4FF48070FFF748FEA4
:10BDE40048E040F68013C2F200031B6803F40073BA
:10BDF400002B18D040F6A213C2F200031B88184689
:10BE0400FFF71CFB4FF40070FFF732FE40F6A2135D
:10BE1400C2F200031B88B3F5404F2BD14FF480606E
:10BE2400FFF70EFE26E040F68013C2F200031B6803
:10BE340003F48063002B08D04FF0FF00FFF7E6FA0D
:10BE44004FF48060FFF714FE14E040F68013C2F252
:10BE540000031B6803F40063002B0BD040F6A61309
:10BE6400C2F200031B781846FFF776FB4FF400601C
:10BE7400FFF7FEFD40F68013C2F200031B68002B9F
:10BE840005D0FDF75FFC0346002B7FF43DAE07F1C0
:10BE94002C07BD4690BD00BF80B500AF10E040F652
:10BEA4008413C2F200031B6803F00103002B07D0C4
:10BEB4004FF00200FFF7DCFB4FF00100FFF708FE34
:10BEC40040F68413C2F200031B68002B04D0FDF774
:10BED400A7FC0346002BE2D180BD00BF80B483B031
:10BEE40000AF78607B684FF0010202FA03F10A4662
:10BEF4004FEAE27340F69011C2F20001D1E9000169
:10BF040002EA000203EA01031343002B0CBF0023DF
:10BF14000123DBB2184607F10C07BD4680BC70470D
:10BF240080B500AFFDF77CFC0346002B1DD04FF01D
:10BF34000100FFF7D3FF0346002B16D040F6003074
:10BF4400C2F2000040F6EC21C2F2000101F084FCD0
:10BF54000346002B09D04FF0010040F6EC21C2F259
:10BF640000014FF01402FFF763FB80BD80B500AF02
:10BF7400FFF7C6FDFFF790FFFFF7D2FF80BD00BFBC
:10BF840080B582B000AF13460246FA710A46BA7110
:10BF94007B717A7940F68813C2F200031A60FB7948
:10BFA400022B1CD0032B0AD0012B28D14FF0010007
:10BFB400FDF7D8FB4FF40070FFF742FD1FE04FF090
:10BFC4000100FDF7CFFB40F66043C2F200034FF0DF
:10BFD40000021A704FF00200FFF732FD0FE04FF03D
:10BFE4000100FDF7BFFB40F68C13C2F200034FF0D3
:10BFF40000021A604FF00100FFF722FD00BF07F1B5
:10C004000807BD4680BD00BF80B485B000AFBA60EC
:10C014007B600346FB730B46BB7307F11407BD46F5
:10C0240080BC704780B584B000AF40F68C13C2F278
:10C0340000031B68102B27D84FF00100FDF7C8FB45
:10C0440040F68C13C2F200031A6813464FEA4313F6
:10C054009B184CF67001C0F201015B18FB6002F101
:10C06400010240F68C13C2F200031A60FB6803F16C
:10C074000103BB60BB681B7803F101037B60B868F4
:10C084007968FDF777FC00E000BF07F11007BD46B3
:10C0940080BD00BF80B500AF40F67043C2F200031C
:10C0A4004FF001021A704FF00100FFF7E1FC80BD70
:10C0B40080B584B000AFB9600146F973BA81FB80E2
:10C0C40040F67143C2F200034FF001021A704FF4BC
:10C0D400805002F041FE40F68813C2F200031B6850
:10C0E4001846FDF7ADFB40F6D420C2F2000001F083
:10C0F400D5F94FF00400FFF7A3FC07F11007BD4684
:10C1040080BD00BF80B582B000AF02460B46FA7115
:10C11400BB7144F22050C4F24C2008F011F840F6F0
:10C124008013C2F200034FF000021A6040F6841339
:10C13400C2F200034FF000021A6040F69013C2F2FC
:10C1440000034FF000004FF00001C3E9000140F686
:10C154009813C2F200034FF000004FF00001C3E94E
:10C16400000140F67143C2F200034FF000021A705E
:10C1740040F67243C2F200034FF000021A7040F618
:10C184007343C2F200034FF000021A704FF4805060
:10C1940002F0E2FD4FF00000FDF752FB40F6604371
:10C1A400C2F200031B78012B08D0022B0BD0002B0A
:10C1B4000ED14FF00200FFF743FC09E04FF04000BE
:10C1C400FFF73EFC04E04FF48070FFF739FC00BF3A
:10C1D40007F10807BD4680BD80B582B000AF0346B5
:10C1E400FB71FB791846FDF73BFB07F10807BD46D9
:10C1F40080BD00BF80B584B000AFC7E90201C7E9C4
:10C20400002340F69013C2F20003D7E90201C3E908
:10C21400000140F69813C2F20003D7E90001C3E914
:10C22400000140F69813C2F20003D3E9002352EA56
:10C23400030104D04FF00800FFF702FC06E040F6CB
:10C244007243C2F200034FF001021A7007F11007A3
:10C25400BD4680BD80B582B000AF7860396040F6DD
:10C26400D420C2F2000079683A6801F0C1F940F6BE
:10C27400D420C2F2000001F02BF90346032B31D87D
:10C2840001A252F823F000BFE9C20000E9C2000095
:10C294009DC20000CFC2000040F6D423C2F20003C6
:10C2A4001A6840F6D423C2F20003DB6840F600307B
:10C2B400C2F2000011461A4601F038FB40F6D420C1
:10C2C400C2F2000001F0EAF80CE04CF6EC20C0F2F7
:10C2D400010001F0B1F840F6D420C2F2000001F0F0
:10C2E400DDF800BF4FF00100FFF7DAFB07F10807A4
:10C2F400BD4680BD80B584B000AF0346B9607A60A6
:10C30400FB7340F67343C2F200034FF001021A704C
:10C31400FB7B022B04D1B8687968FFF79BFF00BF51
:10C3240007F11007BD4680BD80B400AF40F6A413EA
:10C33400C2F200031B881846BD4680BC704700BF8C
:10C3440080B483B000AF0346FB8040F6A413C2F26E
:10C354000003FA881A8007F10C07BD4680BC7047B9
:10C3640080B500AF40F66440C2F2000007F0A2FAC4
:10C3740040F6A213C2F200034FF440421A804FF475
:10C384000070FFF75DFB80BD80B584B000AF03464D
:10C3940007F1040080E80600FB8140F6A213C2F214
:10C3A4000003FA891A8040F66043C2F200034FF09A
:10C3B40002021A704FF02000FFF742FB7B68002B4B
:10C3C40009D040F66440C2F2000007F1040393E888
:10C3D400060007F00FFA07F11007BD4680BD00BF45
:10C3E40080B582B000AF0346FB7140F6A613C2F2DB
:10C3F4000003FA791A704FF40060FFF721FB07F18C
:10C404000807BD4680BD00BF80B400AF40F6A61348
:10C41400C2F200031B781846BD4680BC704700BFBB
:10C4240080B400AF40F6A013C2F200031B78184694
:10C43400BD4680BC704700BF80B500AF40F6714375
:10C44400C2F200031B78002B0BD040F66043C2F20B
:10C4540000034FF001021A704FF02000FFF7F0FACA
:10C4640006E040F68013C2F200034FF040021A6067
:10C4740080BD00BF80B500AF4FF2010002F098FC10
:10C484004FF00100FDF76EF940F6A013C2F200036D
:10C494004FF000021A704FF08000FFF7D1FA80BD10
:10C4A40080B400AF40F67443C2F200034FF00002C0
:10C4B4001A6040F67443C2F200034FF000025A605F
:10C4C400BD4680BC704700BF80B485B000AF7860C3
:10C4D40040F67443C2F200031B68002B14D140F6EB
:10C4E4007443C2F200037A681A6040F67443C2F2DD
:10C4F40000037A685A607B684FF000021A607B6818
:10C504004FF000025A6011E040F67443C2F2000397
:10C514005B68FB6040F67443C2F200037A685A60B9
:10C524007B68FA685A60FB687A681A6007F1140736
:10C53400BD4680BC704700BF80B584B000AF786052
:10C544007B684FEA0323FB6007F10B03F868194685
:10C554004FF0010207F096FCFB7AFE2B14BF002378
:10C564000123DBB2184607F11007BD4680BD00BFAA
:10C5740080B588B000AFF860B9607A60F868FFF7FA
:10C58400A3FFBB684FEA0312FB689A607B6803F160
:10C5940001034FEA0312FB68DA6007F05DFBFB68F6
:10C5A4004FF0FF321A61FB684FF0FF325A61FB68AB
:10C5B4009B681846FFF7C0FF0346002B0CD0FB68AE
:10C5C400DB6803F1FF331846FFF7B6FF0346002B81
:10C5D40002D04FF0010301E04FF00003FB75FB7D37
:10C5E40003F00103FB75FB7D002B2ED0FB689B68D9
:10C5F400FB6124E0F869FFF79FFF034683F0010322
:10C60400DBB2002B08D0FB685B69B3F1FF3F12D1AA
:10C61400FB68FA695A610EE0FB681B69B3F1FF3FDE
:10C6240009D1FB685B69B3F1FF3F04D0FB68FA6989
:10C634001A6100BF33E0FB6903F10103FB61FB688E
:10C64400DA68FB699A42D5D829E0FB689B68BB612C
:10C6540020E0B869FFF770FF0346002B08D0FB68A1
:10C664001B69B3F1FF3F11D1FB68BA691A610DE090
:10C67400FB685B69B3F1FF3F08D1FB681B69B3F149
:10C68400FF3F03D0FB68BA695A6108E0BB6903F154
:10C694000103BB61FB68DA68BB699A42D9D8FB68BD
:10C6A4001B69B3F1FF3F07D1FB689A68FB681A6105
:10C6B400FB681A69FB685A6107F064FB07F12007FD
:10C6C400BD4680BD80B483B000AF78607B681A69D2
:10C6D4007B685B699A4205D87B685A697B681B69E9
:10C6E400D31A0AE07B68DA687B681B69D21A7B6814
:10C6F40059697B681B69CB1AD318184607F10C07D4
:10C70400BD4680BC704700BF80B584B000AF786080
:10C714007B681B694FEA0323FB6007F09DFA07F06F
:10C724003BFB4FF0FC03FB7207F10B03F86819465F
:10C734004FF0010207F060FB07F024FB7B681B69E4
:10C7440003F101027B681A617B681A697B68DB6804
:10C754009A4203D37B689A687B681A6107F11007D1
:10C76400BD4680BD90B5C9B000AF07F10C04206090
:10C7740007F10800016007F104010A603A461360FA
:10C784003B461B68F82B03D93B464FF0F8021A606E
:10C7940007F062FA07F10C031B685B694FEA032395
:10C7A400C7F81C3107F10C031B685B6903F00F0326
:10C7B400002B49D107F11703D7F81C0119464FF094
:10C7C400010207F05FFB07F117031B78FF2B05D06D
:10C7D40007F0E2FAD7F81C0107F0E8FA07F10C03B6
:10C7E4001B685A6907F10C031B681B699A422BD218
:10C7F40007F10C031B681A6907F10C031B685B69DA
:10C8040003F110039A421FD207F10C031B681B6942
:10C8140003F110034FEA13134FEA031207F10C0359
:10C824001B681A6107F10C031B681A6907F10C03F2
:10C834001B68DB689A4207D307F10C031B689A68EC
:10C8440007F10C031B681A6107F118031A464FF429
:10C85400807310464FF000011A460FF023FC07F1D5
:10C8640018034FF0FE021A703B461B68DAB207F158
:10C8740018035A7007F108031B68DAB207F11803AA
:10C884001A7107F108031B684FEA1323DAB207F1A0
:10C8940018035A7107F108031B684FEA1343DAB20D
:10C8A40007F118039A7107F108031B684FEA136331
:10C8B400DAB207F11803DA7107F1180303F108017A
:10C8C40007F104023B46084611681A680FF0C6FBDC
:10C8D4003B461B6803F1040307F1180202F104024A
:10C8E4004FF6FF7011461A4600F05CF90346A7F8AC
:10C8F4001A31B7F81A31DAB207F118039A70B7F897
:10C904001A314FEA13239BB2DAB207F11803DA7033
:10C9140007F042FA3B461B6803F1080307F11802CB
:10C92400D7F81C0111461A4607F066FA07F02AFAEE
:10C9340007F10C031B685B6903F1010207F10C03A7
:10C944001B685A6107F10C031B685A6907F10C0351
:10C954001B68DB689A4207D307F10C031B689A68CB
:10C9640007F10C031B685A6107F10C031B685A6931
:10C9740007F10C031B681B699A4204D107F10C03ED
:10C984001868FFF7C1FE07F59277BD4690BD00BF5A
:10C9940090B5C7B000AF07F10C04206007F10800A0
:10C9A400016007F104010A603A46136007F10C03C1
:10C9B4001B681A6907F10C031B685B699A4202D170
:10C9C4004FF0000366E03B461B68F82B03D93B4657
:10C9D4004FF0F8021A6007F10C031B681A6907F19B
:10C9E40008031B681A6007F10C031B681B694FEAF4
:10C9F4000323C7F8143107F02FF907F11403D7F80C
:10CA0400140119464FF4807207F03CFA07F0BAF9A2
:10CA140007F114035B781A4607F108031B689A8030
:10CA240007F108031B689B881A463B461B689A4219
:10CA340006D93B461B689AB207F108031B689A8023
:10CA440007F1140303F10203184600F001F9034649
:10CA54001A4607F108031B68DA8007F1140303F18F
:10CA64000403184600F00AF9024607F108031B689C
:10CA74009A6007F108031B689B8807F1040107F11A
:10CA8400140202F10802086811461A460FF0E6FA89
:10CA94004FF00103184607F58E77BD4690BD00BFE1
:10CAA40080B582B000AF786039603B681A687B68F3
:10CAB4001B699A4203D17868FFF726FE00E000BFA5
:10CAC40007F10807BD4680BD80B582B000AF4FF0C6
:10CAD40000037B6040F67443C2F200031B683B60B2
:10CAE40009E03868FFF7EEFD03467A68D3187B60E7
:10CAF4003B681B683B603B68002BF2D17B6818469F
:10CB040007F10807BD4680BD80B586B000AFF86068
:10CB1400B9607A6040F67443C2F200031B687B611B
:10CB240010E07869F968BA687B68FFF731FF03465B
:10CB3400FB74FB7C002B02D04FF0010307E07B6900
:10CB44001B687B617B69002BEBD14FF00003184617
:10CB540007F11807BD4680BD80B584B000AF78608A
:10CB640040F67443C2F200031B68FB6013E0FB68E9
:10CB74009A687B681B689A420AD87B681A68FB68C3
:10CB8400DB689A4204D2F8687968FFF789FF05E008
:10CB9400FB681B68FB60FB68002BE8D107F11007FA
:10CBA400BD4680BD80B487B000AF0346B9607A60EB
:10CBB400FB81FB89FB82BA687B68D3183B612FE059
:10CBC400FB8A4FEA13239BB29AB2FB8A4FEA0323F0
:10CBD4009BB213439BB2FB82BB681B781A46FB8A49
:10CBE4005340FB82FB8ADBB24FEA23139AB2FB8ADF
:10CBF40053409BB2FB82FB8A4FEA03339AB2FB8A0F
:10CC040053409BB2FB82FB8ADBB24FEA43139AB2D6
:10CC1400FB8A53409BB2FB82BB6803F10103BB60F8
:10CC2400BA683B699A42CBD3FB8A184607F11C07C2
:10CC3400BD4680BC704700BF80B483B000AF78604D
:10CC44007B681B78184607F10C07BD4680BC70470B
:10CC540080B483B000AF78607B6803F101031B7874
:10CC64004FEA03239AB27B681B7813439BB29BB2AF
:10CC7400184607F10C07BD4680BC704780B483B0EA
:10CC840000AF78607B6803F103031B784FEA03620B
:10CC94007B6803F102031B784FEA03431A437B6862
:10CCA40003F101031B784FEA03231A437B681B78C3
:10CCB4001343184607F10C07BD4680BC704700BFFC
:10CCC400B0B586B000AF78607868FFF7D7FF01464B
:10CCD4000A464FF00003C7E904237B6803F1080305
:10CCE4001846FFF7CBFF01460A464FF00003C7E999
:10CCF4000223BB681D464FF00004D7E9042342EA2F
:10CD0400040243EA05031046194607F11807BD4615
:10CD1400B0BD00BF80B584B000AF78607868FFF71D
:10CD2400ADFF0346FB60FB68184607F11007BD46DC
:10CD340080BD00BF80B584B000AF786039603868CA
:10CD4400FFF79CFF0346BB603B6803F104031846EE
:10CD5400FFF794FF0346FB607B6807F1080292E843
:10CD6400030083E80300786807F11007BD4680BD1F
:10CD740080B483B000AF78600B46FB707B68FA78B0
:10CD84001A7007F10C07BD4680BC704780B483B0AD
:10CD940000AF78600B467B807B88DAB27B681A70C0
:10CDA4007B6803F101037A884FEA122292B2D2B26D
:10CDB4001A7007F10C07BD4680BC704780B483B07D
:10CDC40000AF786039603B68DAB27B681A707B68C0
:10CDD40003F101033A684FEA1222D2B21A707B6857
:10CDE40003F102033A684FEA1242D2B21A707B6826
:10CDF40003F103033A684FEA1262D2B21A7007F1E0
:10CE04000C07BD4680BC7047B0B584B000AFF86075
:10CE1400C7E900233B68F8681946FFF7CFFFFB68B2
:10CE240003F104027B681C464FF0000523461046BC
:10CE34001946FFF7C3FF07F11007BD46B0BD00BF99
:10CE440080B584B000AF786039603B68FB60FB68F4
:10CE540078681946FFF7B2FF07F11007BD4680BD99
:10CE640080B584B000AFF86007F1040383E80600DE
:10CE74007B68F8681946FFF7A1FFFB6803F1040219
:10CE8400BB6810461946FFF799FF07F11007BD4626
:10CE940080BD00BF80B485B000AFF860B9607A602F
:10CEA400FB68BA681A60FB687A685A60FB684FF0DE
:10CEB40000029A60FB684FF00002DA6007F1140781
:10CEC400BD4680BC704700BF80B483B000AF7860BB
:10CED4007B685A687B689B68D31A184607F10C076D
:10CEE400BD4680BC704700BF80B584B000AFF86019
:10CEF400B9607A60FB681A68FB68DB68D318B868A5
:10CF040019467A680FF0AAF8FB68DA687B68D218C9
:10CF1400FB68DA6007F11007BD4680BD80B584B0B8
:10CF240000AF78607B681A687B68DB68D318FB60A5
:10CF34007B68DB6803F101027B68DA60F868FFF75D
:10CF44007BFE0346184607F11007BD4680BD00BFAF
:10CF540080B584B000AF78607B681A687B68DB6852
:10CF6400D318FB607B68DB6803F102027B68DA603C
:10CF7400F868FFF76DFE0346184607F11007BD4633
:10CF840080BD00BF80B584B000AF78607B681A684C
:10CF94007B68DB68D318FB607B68DB6803F1040201
:10CFA4007B68DA60F868FFF769FE0346184607F104
:10CFB4001007BD4680BD00BF80B584B000AF786067
:10CFC4007B681A687B68DB68D318FB607B68DB6866
:10CFD40003F104027B68DA60F868FFF79BFE0346FE
:10CFE400184607F11007BD4680BD00BF80B584B068
:10CFF40000AF786039603B681A683B68DB68D31817
:10D00400FB603B68DB6803F108023B68DA607B681D
:10D014001846F968FFF78EFE786807F11007BD46D9
:10D0240080BD00BF80B582B000AF786039607B6896
:10D034009A683B68D2187B685B689A4202D84FF0C2
:10D0440001030DE04CF6F820C0F201004FF093010B
:10D054004CF63C32C0F2010200F040F94FF00003FC
:10D06400184607F10807BD4680BD00BF80B584B0EF
:10D0740000AFF860B9607A60F8687968FFF7D2FFAA
:10D084000346002B0FD0FB681A68FB689B68D31813
:10D094001846B9687A680EF0E1FFFB689A687B6805
:10D0A400D218FB689A6007F11007BD4680BD00BF27
:10D0B40080B584B000AF78600B46FB7078684FF0A1
:10D0C4000101FFF7AFFF0346002B10D07B681A68FD
:10D0D4007B689B68D318FB607B689B6803F1010243
:10D0E4007B689A60FB78F8681946FFF741FE07F100
:10D0F4001007BD4680BD00BF80B584B000AF786026
:10D104000B467B8078684FF00201FFF78BFF0346E4
:10D11400002B10D07B681A687B689B68D318FB606F
:10D124007B689B6803F102027B689A607B88F868DD
:10D134001946FFF72BFE07F11007BD4680BD00BF5F
:10D1440080B584B000AF7860396078684FF004012E
:10D15400FFF768FF0346002B0FD07B681A687B68D3
:10D164009B68D318FB607B689B6803F104027B68AF
:10D174009A60F8683968FFF721FE07F11007BD4689
:10D1840080BD00BF80B586B000AFF860C7E900235A
:10D19400F8684FF00801FFF745FF0346002B10D055
:10D1A400FB681A68FB689B68D3187B61FB689B6803
:10D1B40003F10802FB689A607869D7E90023FFF756
:10D1C40023FE07F11807BD4680BD00BF80B584B0BB
:10D1D40000AF7860396078684FF00401FFF722FFF0
:10D1E4000346002B0FD07B681A687B689B68D318B2
:10D1F400FB607B689B6803F104027B689A60F868B3
:10D204003968FFF71DFE07F11007BD4680BD00BF5A
:10D2140080B586B000AFF86007F1040383E8060028
:10D22400F8684FF00801FFF7FDFE0346002B12D00B
:10D23400FB681A68FB689B68D3187B61FB689B6872
:10D2440003F10802FB689A60786907F1040393E824
:10D254000600FFF705FE07F11807BD4680BD00BFB5
:10D2640080B400AF40F67C43C2F200034FF00002EA
:10D274001A7040F67D43C2F200034FF000021A70A8
:10D28400BD4680BC704700BF80B582B000AF034686
:10D29400FB7140F67D43C2F20003FA791A7040F63E
:10D2A4008040C2F200004FF03E014FF03F02FFF712
:10D2B4005FF907F10807BD4680BD00BF80B483B0A5
:10D2C40000AF786040F67C43C2F200034FF00102E5
:10D2D4001A7007F10C07BD4680BC704780B5CCB00E
:10D2E40000AF07F10C03186007F10803196007F198
:10D2F40004031A6040F67D43C2F200031B7883F0F6
:10D304000103DBB2002B05D007F104031868FFF713
:10D31400D5FF8CE040F67C43C2F200034FF00102DB
:10D324001A7007F1180207F12803104619464FF046
:10D33400F802FFF7AFFD07F590731846FCF7D0FC31
:10D3440007F11803184607F5907393E80600FFF7F2
:10D354005FFF07F10C031B68002B37D007F10C03A8
:10D3640018680EF0D7FE034607F1180107F10C0206
:10D37400084611681A46FFF779FE07F118031846A4
:10D384004FF02001FFF794FE07F1100207F10803A4
:10D3940010464CF64031C0F201011A680EF048FE06
:10D3A40007F1100318460EF0B5FE034607F1180105
:10D3B40007F11002084611461A46FFF757FE07F117
:10D3C400180318464FF02001FFF772FE07F104031B
:10D3D40018680EF09FFEC7F82C0107F118031846D1
:10D3E400FFF772FDC7F82801D7F82C21D7F82831A8
:10D3F4009A4203D9D7F82831C7F82C3107F118021B
:10D4040007F1040310461968D7F82C21FFF72EFE04
:10D4140007F118039B6807F1280240F68040C2F226
:10D42400000044F24641C4F64C71FFF79BF907F53E
:10D434009877BD4680BD00BF80B582B000AF7860EC
:10D444004FF000004FF000017A68FFF747FF07F143
:10D454000807BD4680BD00BF80B485B000AFF8604A
:10D46400B9607A60FB68BA681A60FB687A685A60C7
:10D47400FB684FF000021A72FB684FF00002DA609A
:10D48400FB684FF000021A61FB684FF000025A611A
:10D4940007F11407BD4680BC704700BF80B483B059
:10D4A40000AF78607B684FF000021A727B684FF01F
:10D4B4000002DA607B684FF000021A617B684FF06B
:10D4C40000025A6107F10C07BD4680BC704700BFDB
:10D4D40080B483B000AF78607B681B7A184607F18C
:10D4E4000C07BD4680BC704780B483B000AF786041
:10D4F4007B684FF003021A7207F10C07BD4680BC2B
:10D50400704700BF80B586B000AFF860B9607A603C
:10D51400FB685A697B68D3187B61FB68DA687B69AE
:10D524009A4205D2FB68DA68FB685B69D31A7B60B0
:10D53400FB681A68FB685B69D3181846B9687A688F
:10D544000EF08CFDFB685A697B68D218FB685A613F
:10D55400FB685A69FB68DB689A4204D1FB684FF0A8
:10D5640002021A7205E0FB681B6903F10102FB6801
:10D574001A6107F11807BD4680BD00BF80B584B0AD
:10D5840000AFF860B9607A607B68012B03D8F86853
:10D59400FFF7AAFF27E0FB684FF001021A72B86890
:10D5A400FFF756FB03461A46FB68DA60FB684FF048
:10D5B40000021A61FB684FF000025A61FB68DA68E6
:10D5C400FB685B689A4203D9F868FFF78DFF0AE0AD
:10D5D400BB6803F102027B68A3F10203F8681146F9
:10D5E4001A46FFF78FFF07F11007BD4680BD00BF45
:10D5F40080B586B000AFF860B9607A607B68002BB4
:10D6040003D1F868FFF770FF2CE0BB681B78FB754B
:10D61400FB7D002B12D1FB681B69002B02D0F8683C
:10D62400FFF762FFBB6803F101027B6803F1FF337C
:10D63400F86811461A46FFF7A1FF13E0FA7DFB686C
:10D644001B699A4203D0F868FFF74EFF0AE0BB68F3
:10D6540003F101027B6803F1FF33F86811461A46AF
:10D66400FFF750FF07F11807BD4680BD80B483B0B3
:10D6740000AF78607B684FF000021A607B684FF05F
:10D6840000021A717B684FF000029A607B684FF0C9
:10D694000002DA607B684FF000021A6107F10C07A0
:10D6A400BD4680BC704700BF80B485B000AFF86051
:10D6B400B9607A60FB68BA681A60FB684FF00102CF
:10D6C4001A71FB687A689A60FB684FF00002DA60AE
:10D6D400FB684FF000021A6107F11407BD4680BCD5
:10D6E400704700BF80B586B000AFF860B9607A605B
:10D6F400FB681B79012B02D04FF0000351E0FB685B
:10D70400DB68DAB2BB681A704FF001037B61FB6817
:10D71400DB68002B12D1BB6803F10103FA6892683D
:10D72400D2B21A70BB6803F10203FA6892684FEA36
:10D734001222D2B21A704FF003037B61FB689A681D
:10D74400FB681B69D31A3B617A687B69D21A3B690F
:10D754009A4203D27A687B69D31A3B61FB681B68DF
:10D76400FA681169B8687A698218084611463A69F4
:10D774009847FB681A693B69D218FB681A61FB6811
:10D78400DB6803F10102FB68DA60FB689A68FB68F6
:10D794001B699A4203D1FB684FF002021A714FF0E1
:10D7A4000103184607F11807BD4680BD80B485B053
:10D7B40000AFF860B9607A603B60FB68BA681A60D1
:10D7C400FB687A685A60FB683A689A60FB68BA69D1
:10D7D400DA60FB684FF000021A6107F11407BD46D6
:10D7E40080BC704780B582B000AF786039607B68D8
:10D7F4001A697B685B68D2187B68DB689A420CD92B
:10D804004CF64430C0F201004FF08B014CF68832E4
:10D81400C0F20102FFF762FD1AE07B689A687B6838
:10D824001B69D2187B685B68386811461A46FFF793
:10D8340059FF034683F00103DBB2002B07D17B6859
:10D844001A697B685B68D2187B681A61CFE700BFEE
:10D8540007F10807BD4680BD80B582B000AF78608F
:10D8640039607B681B69002B02D14FF000031FE075
:10D874007B689A687B685B68386811461A460EF0C4
:10D88400EDFB7B681A697B685B68D21A7B681A6156
:10D894007B6899687B689A687B685B68D2187B6848
:10D8A4001B69084611461A460EF0D8FB4FF00103D7
:10D8B400184607F10807BD4680BD00BF80B400AF1D
:10D8C400BFF34F8F4FF46D42CEF200024FF46D431D
:10D8D400CEF20003DB6803F4E0614FF00403C0F20E
:10D8E400FA530B43D360BFF34F8FFEE780B500AF0D
:10D8F40041F2E400C2F20000FFF7B8FE41F21C035B
:10D90400C2F200034FF000021A6041F2E003C2F2D7
:10D9140000034FF000021A604FF480304EF6050108
:10D92400C0F2000101F0E6F980BD00BF80B586B009
:10D9340000AFF860B9607A6041F2E003C2F200031C
:10D944001B680F2B5DD841F21C03C2F200031A6856
:10D954007B68D21840F257239A4254D8FAF7DAFC7B
:10D9640041F2E003C2F200031A6813464FEA43038C
:10D974009B184FEA830341F22002C2F200029B1873
:10D984007B617B69FA681A6041F21C03C2F20003EE
:10D994001A6840F6C453C2F20003D2187B695A6075
:10D9A4007B697A689A6041F21C03C2F200031A6828
:10D9B40040F6C453C2F20003D3181846B9687A6813
:10D9C4000EF04CFB41F21C03C2F200031A687B68A0
:10D9D400D21841F21C03C2F200031A6041F2E003C0
:10D9E400C2F200031B6803F1010241F2E003C2F238
:10D9F40000031A604FF4803001F0AEF9FAF790FC9E
:10DA040002E000BF00E000BF07F11807BD4680BD7B
:10DA140080B584B000AFF860B9607A60FA6841F20A
:10DA2400F803C2F20003D318B86819467A680EF0F6
:10DA340015FB07F11007BD4680BD00BF80B582B05D
:10DA440000AF78600B46FB7041F22420C2F2000064
:10DA540041F2F801C2F200014FF49672FFF71AFA8C
:10DA6400FB7841F22420C2F200001946FFF720FBA4
:10DA740041F22423C2F20003184607F10807BD4609
:10DA840080BD00BF80B582B000AF786041F224232E
:10DA9400C2F200039B6841F2E400C2F200004DF6BA
:10DAA4001521C0F200011A46FFF7FEFD786841F225
:10DAB400E401C2F20001FFF795FE07F10807BD4635
:10DAC40080BD00BF80B58CB000AFF860B9607A60EB
:10DAD40007F114031846B9687A68FFF7DBF907F110
