:10800000282B002005820000178200001982000042
:108010001B8200001D8200001F8200000000000083
:1080200000000000000000000000000021820000AD
:10803000238200000000000025820000278200004B
:108040000958010039ED00002D8200004D010100AA
:10805000610101005197010035820000F98D000097
:10806000398200003B82000059910000A1ED000020
:108070004182000043820000CD1201007501010021
:10808000850101004B8200004D8200004F820000FC
:108090005182000053820000558200005782000088
:1080A000598200005B8200005D8200005F82000058
:1080B00061820000638200008D9B000067820000E7
:1080C000698200006B8200006D8200006F820000F8
:0880D0007182000073820000C0
:1080D8002F49072291438D462E492F480A1A06D068
:1080E8000722914381F30988022282F314882B48DE
:1080F8002B492C4A00F039F82B482C492C4A00F01F
:1081080034F82C482C492D4A00F02FF82C482D49DA
:108118002D4A00F02AF82D482D492E4A00F025F85E
:108128002D482E492E4A00F020F82E482E490022CC
:1081380000F026F82D482E49091A082903DB0022E9
:108148000260043001601F481F49884205D0026858
:10815800043003B4904703BCF7E700208646EC469A
:1081680000200021234A9047FEE7884207D0521A90
:1081780005D0037801300B700131013AF9D170470D
:10818800884202D002700130FAE770471A487047F7
:10819800282B0020282B0020282B002008DA01009B
:1081A800C4040020F80400208482000084820000B7
:1081B80038C8010044D6010000010020C404002092
:1081C80038C8010038C8010038C8010038C80100A3
:1081D80038C8010038C8010038C8010038C8010093
:1081E80044D60100F8040020281B0020281B00208A
:1081F800281B00204D890000FFFFFFFFDFF86CD02F
:108208001B4880471B481C490160FFF761BFFEE718
:10821800FEE7FEE7FEE7FEE7FEE7FEE7FEE7FEE72E
:10822800FEE7FEE7FEE7FEE7FEE7FEE7FEE7FEE71E
:10823800FEE7FEE7FEE7FEE7FEE7FEE7FEE7FEE70E
:10824800FEE7FEE7FEE7FEE7FEE7FEE7FEE7FEE7FE
:10825800FEE7FEE7FEE7FEE7FEE7FEE7FEE7FEE7EE
:10826800FEE7FEE7FEE7FEE7FEE7FEE70080002008
:0C827800A945010008ED00E000800000B6
:1082840080B400AF72B641F6D813C2F200031B6883
:10829400B3F1FF3F0BD041F6D813C2F200031B68C1
:1082A40003F1010241F6D813C2F200031A6041F649
:1082B400D813C2F200031B681846BD4680BC704741
:1082C40080B483B000AF41F6D813C2F200031B6838
:1082D400002B17D041F6D813C2F200031B6803F138
:1082E400FF3241F6D813C2F200031A6041F6D813E4
:1082F400C2F200031B687B607B68002B00D162B66E
:108304007B6801E04FF00003184607F10C07BD46F7
:1083140080BC704780B500AFFFF7B2FF80BD00BFDF
:1083240080B500AFFFF7CCFF80BD00BF80B582B041
:1083340002AF4FF45240C0F202004FF001010CF0C2
:10834400CFFD4FF000004FF000014FF000024FF05E
:1083540000030DF04BFC4FF000004FF005014FF00F
:1083640000024FF000030DF041FC4FF000004FF00D
:1083740006014FF000024FF000030DF037FC4FF000
:1083840002004FF002014FF000024FF000030DF025
:108394002DFC4FF002004FF003014FF000024FF0AC
:1083A40000030DF023FC4FF002004FF004014FF0E6
:1083B40000024FF000030DF019FC4FF002004FF0E3
:1083C40005014FF000024FF000030DF00FFC4FF0D9
:1083D40004004FF008014FF000024FF000030DF0CD
:1083E40005FC4FF004004FF00D014FF000024FF078
:1083F40000030DF0FBFB4FF004004FF00E014FF0B3
:1084040000024FF000030DF0F1FB4FF004004FF0B9
:108414000F014FF000024FF000030DF0E7FB4FF0A7
:1084240005004FF00C014FF000024FF000030DF077
:10843400DDFB4FF005004FF002014FF004024FF056
:1084440000030DF0D3FB4FF003004FF006014FF093
:1084540001024FF000030DF0C9FB4FF002004FF092
:1084640001014FF004024FF001030DF0BFFB4FF088
:1084740002004FF000014FF004024FF001030DF031
:10848400B5FB4FF004004FF009014FF004024FF028
:1084940001030DF0ABFB4FF000004FF00F014FF064
:1084A40004024FF001030DF0A1FB4FF000004FF068
:1084B40008014FF004024FF000030DF097FB4FF05A
:1084C40002004FF006014FF004024FF000030DF0DC
:1084D4008DFB4FF002004FF007014FF004024FF004
:1084E40000030DF083FB4FF002004FF008014FF042
:1084F40002024FF000030DF079FB4FF000004FF043
:108504000A014FF002024FF000030DF06FFB4FF031
:10851400010300934FF000004FF00A014FF00102F5
:108524004FF001030DF0EEFA4FF003004FF0080195
:108534004FF004024FF001030DF058FB4FF0000020
:108544004FF004014FF001024FF000030DF04EFB19
:108554004FF0010300934FF000004FF004014FF07F
:1085640001024FF001030DF0CDFA4FF000004FF07F
:1085740002014FF004024FF000030DF037FB4FF0FF
:1085840000004FF003014FF004024FF000030DF020
:108594002DFB4FF004004FF00B014FF001024FF0A0
:1085A40000030DF023FB4FF004004FF00A014FF0DD
:1085B40004024FF000030DF019FB4FF004004FF0DC
:1085C4000C014FF004024FF000030DF00FFB4FF0CD
:1085D40005004FF000014FF000024FF000030DF0D2
:1085E40005FB4FF005004FF001014FF000024FF082
:1085F40000030DF0FBFA4FF002004FF009014FF0B9
:1086040001024FF000030DF0F1FA4FF00103009363
:108614004FF002004FF009014FF001024FF0010347
:108624000DF070FA4FF003004FF007014FF0000215
:108634004FF000030DF0DAFA4FF002004FF00A0198
:108644004FF004024FF000030DF0D0FA4FF0020097
:108654004FF00B014FF004024FF000030DF0C6FA87
:108664004FF005004FF005014FF004024FF00003F6
:108674000DF0BCFA4FF005004FF00A014FF0010273
:108684004FF000030DF0B2FA4FF005004FF00B016C
:108694004FF001024FF000030DF0A8FA4FF0030071
:1086A4004FF001014FF002024FF001030DF09EFA6A
:1086B4004FF003004FF000014FF004024FF00103AC
:1086C4000DF094FA4FF003004FF002014FF0040252
:1086D4004FF001030DF08AFA4FF000004FF0010152
:1086E4004FF004024FF000030DF080FA4FF0030046
:1086F4004FF005014FF004024FF000030DF076FA3D
:108704004FF003004FF003014FF004024FF0010358
:108714000DF06CFA4FF003004FF004014FF0020229
:108724004FF001030DF062FA4FF0010300934FF094
:1087340003004FF004014FF001024FF001030DF06C
:10874400E1F94FF000004FF009014FF004024FF03F
:1087540000030DF04BFA4FF001004FF00B014FF006
:1087640004024FF000030DF041FA4FF001004FF006
:108774000C014FF004024FF000030DF037FABD4630
:1087840080BD00BF01387FF4FDAF704780B582B073
:1087940000AF78607A684FF4D843C0F2DC2303FB5F
:1087A40002F249F68173C1F25E63A3FB02134FEA3E
:1087B40093431846FFF7E6FF07F10807BD4680BD5F
:1087C40080B582B000AF786003E04FF47A50FFF7D1
:1087D400D9FF7B68002B0CBF00230123DBB27A682E
:1087E40002F1FF327A60002BEFD107F10807BD4692
:1087F40080BD00BF80B483B000AF03463960FB7115
:108804004FF4C042C4F20002F9793B684FF0010012
:1088140000FA03F318460B464FEAC3035B184FEA0A
:108824008303D31803F11003586007F10C07BD4606
:1088340080BC704780B500AF06F044FD08F000FD31
:1088440001F0AAFA00F07AFA01F0F4F800F026FE3A
:1088540000F0F2FF4FF0010007F05EFB00F020FC97
:108864004FF48043C4F20C034FF003021A6180BD3D
:1088740080B500AF00F048FC00F02CFC4FF0010084
:1088840007F064FB01F07EFA00F05EFA01F0DCF818
:1088940000F014FE07F03AF806F0C2FC80BD00BFF9
:1088A40080B500AF40F2F843C2F200034FF001027A
:1088B4001A7040F2F943C2F200034FF001021A7039
:1088C40003F0E4FC80BD00BF80B500AF40F2F84384
:1088D400C2F200034FF000021A7040F2F943C2F2F0
:1088E40000034FF000021A70FFF7C2FF03F0ECFC24
:1088F40080BD00BF80B582B000AF0346FB7140F27B
:10890400F843C2F200031B78FA799A420BD0FB7940
:10891400012B02D1FFF7C4FF06E0FB79002B03D142
:10892400FFF7D2FF00E000BF07F10807BD4680BD96
:1089340080B400AF40F2F843C2F200031B7818463B
:10894400BD4680BC704700BF80B584B000AF0BF05B
:10895400CFFAFFF7EBFC4FF48640C0F204004FF06F
:1089640001010CF0BDFA4CF63802C0F2010207F125
:1089740004031068516803C3127A1A704FF00C0391
:108984003B7307F1040318460EF098F940F2F843DC
:10899400C2F200034FF000021A7040F2F943C2F22F
:1089A40000034FF000021A7004F0B6FB06F0D6F88C
:1089B4000AF0BEFD0BF054FB04F0DEFE4FF00200A3
:1089C4004FF00101FFF716FF4FF002004FF00001D6
:1089D400FFF710FF4FF004004FF00901FFF70AFF03
:1089E4004FF000004FF00F01FFF704FF00F0B4FF59
:1089F40000F026F901F03CF900F01AFB00F084FBCA
:108A040006F07EFF06F082FF00F0ECFE07F0E6F8C9
:108A14004FF0010007F01AFA4FF0010007F096FA40
:108A240000F0D6FC00F04AFD00F058FD02F082FE92
:108A340002F0C2FD0BF0E0F803F05CFC06F0E6FC8B
:108A44004FF0010004F07CFB07F094FF08F0FAF803
:108A540006F0BCFC05F0A8FE06F028FA06F0A8FB18
:108A640006F0DEFB01F08EF900E000BF06F0B0F97D
:108A740040F2F943C2F200031B78002B0DD003F03F
:108A8400F9FB0346002B08D040F2F943C2F200037D
:108A94004FF000021A70FFF7CDFE40F2F843C2F225
:108AA40000031B78012BE0D14FF48043C4F20C0384
:108AB4009B6803F00303002BD7D04FF00000FFF7AF
:108AC40019FFD2E780B483B000AF0346FB714FF4C3
:108AD4006143CEF2000397F907204FEA5212F97965
:108AE40001F01F014FF0010000FA01F143F82210D8
:108AF40007F10C07BD4680BC704700BF80B483B04B
:108B040000AF0346FB714FF46143CEF2000397F9C3
:108B140007204FEA5212F97901F01F014FF00100CA
:108B240000FA01F102F1600243F8221007F10C0788
:108B3400BD4680BC704700BF80B483B000AF78608E
:108B44007B685B6A184607F10C07BD4680BC70471A
:108B540080B483B000AF786039607B683A681A6289
:108B640007F10C07BD4680BC704700BF80B483B0DA
:108B740000AF786039607B685A693B681A437B6848
:108B84005A6107F10C07BD4680BC704780B483B0BE
:108B940000AF78607B689B69184607F10C07BD46F7
:108BA40080BC704780B483B000AF78600B46FB7024
:108BB400FA787B685A6007F10C07BD4680BC7047A1
:108BC40080B483B000AF03463960FB714FF4C042F8
:108BD400C4F20002F9793B684FF0010000FA03F394
:108BE40018460B464FEAC3035B184FEA8303D318B6
:108BF40003F11003586007F10C07BD4680BC7047B1
:108C040080B483B000AF03463960FB714FF4C042B7
:108C1400C4F20002F9793B684FF0010000FA03F353
:108C240018460B464FEAC3035B184FEA8303D31875
:108C340003F11003186007F10C07BD4680BC7047B0
:108C440080B500AF4FF000004FF0000100F0E0F8F5
:108C54004FF001004FF0000100F0DAF84FF002008D
:108C64004FF0000100F0D4F880BD00BF90B583B090
:108C740000AF48F2B213C0F6E0731B78FB7148F200
:108C8400BE13C0F6E0731B884FEA13139BB23B601C
:108C9400FB79184612F0D2FD044640F2FC43C2F2BE
:108CA40000031B683A68D31A184612F0C7FD03463E
:108CB400184648F62821C3F6226112F0D7FE03466F
:108CC4002046194612F038FE0346184607F10C07F1
:108CD400BD4690BD80B500AF40F20053C2F2000320
:108CE4001B68184612F0C2FD034618464DF29A510D
:108CF400C3F68C2112F0BAFE0346184680BD00BFAD
:108D040080B500AF40F20453C2F200031B6818465A
:108D140012F0ACFD034618464DF29A51C3F60C21ED
:108D240012F0A4FE0346184644F68A31C3F686516F
:108D340012F09CFE0346184680BD00BF80B400AF0D
:108D4400BD4680BC704700BF80B400AFBD4680BC48
:108D5400704700BF80B582B000AF4FF40050C4F23A
:108D64000000FFF7E9FE786040F20953C2F2000305
:108D74001B78DBB2012B0AD0022B15D0002B1AD1A1
:108D840040F2FC43C2F200037A681A6013E04FF029
:108D940005004FF00201FFF713FF40F20053C2F247
:108DA40000037A681A6006E040F20453C2F200033A
:108DB4007A681A6000BF40F20853C2F200034FF011
:108DC40001021A704FF40050C4F200004FF0010188
:108DD400FFF7BEFE4FF00700FFF790FE4FF4007060
:108DE400C0F203004FF000010CF07AF807F1080715
:108DF400BD4680BD80B500AFFFF7ACFF40F20C5319
:108E0400C2F200031B68184605F050FF80BD00BF86
:108E140080B588B000AF02460B46FA71BB714FF4BF
:108E24000070C0F203004FF001010CF059F84FF04C
:108E340000033B764FF000037B764FF00003BB76D4
:108E44004FF01F03FB764FF000033B774FF0000316
:108E54007B774FF000000BF045FD0346FB764CF6A4
:108E6400C070C0F26A004FF000010BF0FFFC034633
:108E74003B774FF000033B734FF000037B734FF0DD
:108E84000003BB734FF00003FB734FF000033B740C
:108E94004FF000037B744FF00003BB744FF00003EA
:108EA400FB744FF000033B754FF00203BB734FF0AC
:108EB40008037B73FB79012B11D0022B20D0002BEC
:108EC40029D14FF00003BB734FF008033B7440F209
:108ED4000C53C2F200034FF020021A601BE04FF063
:108EE40005004FF00201FFF78BFE4FF006033B74C1
:108EF40040F20C53C2F200034FF040021A600AE041
:108F04004FF007033B7440F20C53C2F200034FF0DE
:108F140080021A6000BF07F118034FF40050C4F236
:108F2400000019460BF01EFC07F10C034FF400502F
:108F3400C4F2000019460BF049FC4FF40050C4F28F
:108F440000004FF00101FFF711FEBB79002B03D0A5
:108F54004FF00700FFF7B6FD40F20953C2F20003D9
:108F6400FA791A7040F20853C2F200034FF000027B
:108F74001A704FF40050C4F200004FF00101FFF7E3
:108F840011FEBB7983F00103DBB2002B0DD000BFCF
:108F94004FF40050C4F20000FFF7F8FD034603F05D
:108FA4000103002BF4D0FFF7D5FE07F12007BD46DF
:108FB40080BD00BF80B483B000AF0346FB714FF4A3
:108FC4006143CEF2000397F907204FEA5212F97970
:108FD40001F01F014FF0010000FA01F102F16002FB
:108FE40043F8221007F10C07BD4680BC704700BF50
:108FF40080B483B000AF03463960FB714FF4C042C4
:10900400C4F20002F9793B684FF0010000FA03F35F
:1090140018460B464FEAC3035B184FEA8303D31881
:1090240003F11003186007F10C07BD4680BC7047BC
:1090340090B585B000AF4FF44240C0F202004FF04B
:1090440001010BF04DFF4CF64403C0F201033C4612
:109054000FCB84E80F004FF4D843C0F2DC237B60CD
:1090640046F63C53C0F20103BB603B464FF4244038
:10907400C4F2000019460CF00BFF4FF42443C4F271
:10908400000340F203129A634FF42440C4F2000038
:109094004FF001010CF0EAFE07F11407BD4690BD44
:1090A40080B500AF4FF42443C4F200034FF0000234
:1090B4009A634FF42440C4F200004FF000010CF016
:1090C400D5FE4FF44240C0F202004FF000010BF015
:1090D40007FF80BD80B500AF4FF44240C0F20200EC
:1090E4004FF001010BF0FCFE4FF42443C4F20003E3
:1090F40040F203129A634FF42440C4F200004FF08C
:1091040001010CF0B3FE80BD80B500AF4FF001004B
:109114004FF00B014FF008024FF001030CF066FD15
:109124004FF001004FF00C014FF008024FF0010323
:109134000CF05CFD4FF000004FF00901FFF758FF01
:109144004FF06400FFF73CFB4FF00A00FFF732FFDB
:1091540080BD00BF80B500AF4FF42440C4F20000CE
:109164000CF0C6FE03461A4640F21053C2F2000346
:109174001A7080BD80B584B000AF78604FF00003F2
:10918400FB605BE04FF42440C4F2000079680DF00A
:10919400FDF803461A4640F21053C2F200031A7057
:1091A4004FF00003BB6019E04FF42440C4F2000008
:1091B4000CF09EFE03461A4640F21053C2F200031E
:1091C4001A7040F21053C2F200031B78DBB25BB298
:1091D400012B09D1BB6803F10103BB60BA6842F2F9
:1091E4000F739A42E0D900E000BF40F21053C2F27C
:1091F40000031B78DBB25BB2B3F1FF3F04D1FB6821
:1092040003F10103FB6019E040F21053C2F20003C2
:109214001B78DBB2002B0ED04CF65400C0F20100D8
:109224004FF04A014CF69802C0F2010203F0B2FF7B
:109234004FF0000313E04FF0010310E0FB68042B30
:10924400A0D94CF65400C0F201004FF04F014CF687
:109254009802C0F2010203F09DFF4FF0000318468C
:1092640007F11007BD4680BD80B588B000AF0B463E
:109274003A600246FA71BB71FB799BB2BB814FF035
:109284000403FB8107F106033B614FF00103BB823A
:109294003B68BB614FF00103BB8307F10C03184625
:1092A400FFF768FF0346184607F12007BD4680BD57
:1092B40080B588B000AF13460246FA710A46BA7107
:1092C4007B71FB799BB2BB814FF00803FB8107F1F3
:1092D40006033B614FF00103BB8207F10503BB6149
:1092E4004FF00103BB8307F10C031846FFF742FF5D
:1092F4000346184607F12007BD4680BD80B58AB0F5
:1093040000AFBA607B600346FB730B46BB73FB7B09
:109314009BB2BB824FF00803FB8207F10E03BB61D3
:109324004FF00103BB83BB683B627B689BB2BB8489
:1093340007F114031846FFF71DFF0346184607F10B
:109344002807BD4680BD00BF80B586B002AF4FF48C
:1093540080304FF0AF0107F0D5F80346BB73BB7BF9
:1093640003F01F03FB7323E04FF0E8033B7307F1A3
:109374000C0207F104034FF0060100914FF4803012
:1093840011464FF0010207F073F840F21453C2F291
:1093940000031B68002B0BD040F21453C2F20003ED
:1093A4001B68B888F9883A8900B209B212B29847A2
:1093B400FB7B002B0CBF00230123DBB2FA7B02F101
:1093C400FF32FA73002BCFD107F11007BD4680BDE1
:1093D40080B582B000AF40F21453C2F200034FF0E4
:1093E40000021A604FF480304FF08F0107F08AF8C2
:1093F4000346FB71FB79332B0CD04CF69C00C0F276
:1094040001004FF07A014CF6E002C0F2010203F0D1
:10941400C1FE2FE04FF480304FF023014FF0A8023B
:1094240006F0D8FF4FF480304FF02E014FF00002C9
:1094340006F0D0FF4FF480304FF02E014FF0900231
:1094440006F0C8FF4FF480304FF022014FF00602BF
:1094540006F0C0FF4FF480304FF024014FF040027B
:1094640006F0B8FF4FF0040049F24D31C0F200019C
:1094740005F0D4FB07F10807BD4680BD80B483B076
:1094840000AF786040F21453C2F200037A681A60A5
:1094940007F10C07BD4680BC704700BF80B500AF24
:1094A4004FF0040005F018FC4FF480304FF0200119
:1094B4004FF0000206F08EFF80BD00BF80B500AF04
:1094C4004FF0040005F01EFC4FF480304FF02001F3
:1094D4004FF0370206F07EFF80BD00BF80B483B03A
:1094E40000AF40F21853C2F200034FF000021A60BA
:1094F40040F21C53C2F200034FF000021A6040F223
:109504004053C2F200034FF000021A604FF0000310
:109514007B600CE040F22053C2F200037A689B188F
:109524004FF000021A707B6803F101037B607B68D3
:109534001F2BEFDD07F10C07BD4680BC704700BF51
:1095440080B400AF40F21853C2F200031B68002B32
:109554000CBF00230123DBB21846BD4680BC704714
:1095640080B582B000AF786040F21853C2F20003B5
:109574007A681A6002F0CEF807F10807BD4680BD8C
:1095840080B582B000AF786040F21853C2F2000395
:109594001A687B68D21840F21853C2F200031A60AA
:1095A40040F21853C2F200031B68012B08D902F0E1
:1095B400A1F840F21853C2F200034FF001021A60FE
:1095C40002F0A8F807F10807BD4680BD80B582B057
:1095D40000AF786040F21853C2F200031B687A6847
:1095E4009A4209D902F086F840F21853C2F20003F5
:1095F4004FF000021A600DE040F21853C2F200036B
:109604001A687B68D21A40F21853C2F200031A6037
:1096140002F080F807F10807BD4680BD80B400AFB2
:1096240040F21C53C2F200031B68002B0CBF002342
:109634000123DBB21846BD4680BC704780B582B0BA
:1096440000AF786040F21C53C2F200037A681A60DB
:1096540002F068F807F10807BD4680BD80B582B006
:1096640000AF786040F21C53C2F200031A687B68B2
:10967400D21840F21C53C2F200031A6040F21C5389
:10968400C2F200031B68022B08D902F033F840F23F
:109694001C53C2F200034FF002021A6002F042F8B7
:1096A40007F10807BD4680BD80B582B000AF786081
:1096B40040F21C53C2F200031B687A689A4209D92B
:1096C40002F018F840F21C53C2F200034FF00002FB
:1096D4001A600DE040F21C53C2F200031A687B6862
:1096E400D21A40F21C53C2F200031A6002F01AF8B4
:1096F40007F10807BD4680BD80B400AF40F2405377
:10970400C2F200034FF000021A60BD4680BC7047ED
:1097140080B582B000AF7860396040F24053C2F245
:1097240000031A683B68D318202B02D901F0E2FF2A
:109734001AE040F24053C2F200031A6840F2205388
:10974400C2F20003D318184679683A6812F07AFD19
:1097540040F24053C2F200031A683B68D21840F248
:109764004053C2F200031A6007F10807BD4680BDEA
:1097740080B582B000AF7860396040F24053C2F2E5
:1097840000031B68002B01D001F0B4FFFFF7B4FF06
:1097940078683968FFF7BCFF02F044F807F108075E
:1097A400BD4680BD80B584B000AFF860B9607A6012
:1097B4003B6040F24053C2F200031B68002B01D00F
:1097C40001F098FFFFF798FFF868B968FFF7A0FF6A
:1097D40078683968FFF79CFF02F024F807F1100756
:1097E400BD4680BD80B582B000AF07F106034FF0DF
:1097F4001C004FF007011A46FFF736FD0346FB71C4
:10980400FB7983F00103DBB2002B11D1BB79C42BAC
:109814000CD04CF6E400C0F201004FF02D014CF6E0
:109824002C12C0F2010203F0B5FC01E000F004F8D0
:1098340007F10807BD4680BD80B582B000AF4FF088
:109844001C004FF011014FF00002FFF731FD0346F9
:10985400FB71FB7983F00103DBB2002B0CD04CF6D7
:10986400E400C0F201004FF04C014CF62C12C0F29F
:10987400010203F08FFC1CE04FF01C004FF01001BC
:109884004FF00002FFF714FD0346FB71FB7983F0F0
:109894000103DBB2002B0CD04CF6E400C0F2010053
:1098A4004FF051014CF62C12C0F2010203F072FC8D
:1098B40000BF07F10807BD4680BD00BF80B483B078
:1098C40000AF0346FB714FF46143CEF2000397F9F6
:1098D40007204FEA5212F97901F01F014FF00100FD
:1098E40000FA01F143F8221007F10C07BD4680BCD1
:1098F400704700BF80B400AF4FF00003C4F2080308
:109904005B681846BD4680BC704700BF80B483B016
:1099140000AF78604FF00003C4F208037A689A61DC
:1099240007F10C07BD4680BC704700BF80B483B00C
:1099340000AF78604FF00003C4F208034FF0000258
:10994400C4F20802D1697A680A43DA6107F10C07A4
:10995400BD4680BC704700BF80B582B000AF40F206
:109964004453C2F200034FF000021A604FF48640E1
:10997400C0F204004FF001010BF0B2FA4FF0000006
:109984004FF001014FF001020BF0C8FE4FF002004E
:10999400C0F206004FF002010BF0FAFC4FF0030096
:1099A400C0F212004FF002010BF0F2FC41F2304021
:1099B400C0F208004FF001010BF092FA4FF4864018
:1099C400C0F204004FF001010BF08AFA4FF4004397
:1099D400C4F20C034FF40042C4F20C02126822F0E9
:1099E400607242F400021A604FF40043C4F20C03A4
:1099F4004FF00202C3F8802000F026F84FF0020076
:109A0400FFF794FF4FF01E00FFF758FF4CF630139A
:109A1400C0F2010307F1040219889B781180937046
:109A240007F1040318460CF00DFF07F10807BD46C3
:109A340080BD00BF80B500AF4FF000004FF6FF714E
:109A44000CF0CCFE80BD00BF80B500AF4FF000002D
:109A540040F2FF310CF0C2FE0CF01EFF80BD00BFCF
:109A640080B582B000AF3B4683E80300FEF752FCAA
:109A74004FF000533A685A604FF0005279684DF63F
:109A84008363C4F21B33A3FB01034FEA533347F64A
:109A9400122101FB03F39360FEF742FC07F1080770
:109AA400BD4680BD80B584B000AF7860FEF732FC5F
:109AB4004FF000539B68FB604FF000535B68BB6042
:109AC400FEF72EFC7B6807F1080292E8030083E8A6
:109AD4000300786807F11007BD4680BD80B586B0E5
:109AE40000AF786000E000BF4FF000539B68FB605C
:109AF4004FF000535B68BB60FFF7FCFE78614FF0EA
:109B040000539B683B61FA683B699A42EBD100BF02
:109B1400FA687B6947F6122101FB03F34FEA9323AA
:109B2400D318FB607B6807F1080292E8030083E81E
:109B34000300786807F11807BD4680BD80B582B080
:109B440000AF7860FEF7E6FB40F24453C2F2000334
:109B54007A681A60FEF7E4FB07F10807BD4680BD8A
:109B640080B582B000AFFEF7D5FB40F24453C2F299
:109B740000031B687B60FEF7D3FB7B68184607F184
:109B84000807BD4680BD00BF80B582B000AF4FF06E
:109B94000200FFF7BBFE4FF000533B604FF00003A1
:109BA400C4F208039A6840F2FF339A4237D13B6803
:109BB4009B6803F5F44303F112037B607A6844F273
:109BC4003F23C0F20F039A420BD97B68A3F5742399
:109BD400A3F510737B603B685B6803F101023B688B
:109BE4005A603B687A689A6040F24453C2F20003B8
:109BF4001B68002B19D040F24453C2F200031B68C7
:109C040003F1FF331A4640F24453C2F200031A60D0
:109C1400002A0AD14FF4807005F048F805E03B684B
:109C24005B6803F102023B685A6007F10807BD460E
:109C340080BD00BF90B400AF48F2B013C0F6E0732B
:109C44005C6C22464FF0000311464FF0000048F2CE
:109C5400B013C0F6E0731C6C22464FF0000342EAD6
:109C6400000243EA010310461946BD4690BC704702
:109C740080B586B002AF40F24863C2F200034FF0F1
:109C840000021A7040F62000C2F2000040F2906117
:109C9400C2F200014FF4C87203F02AFB4FF4C873F8
:109CA400009340F67800C2F2000044F22021C5F28D
:109CB40053514FF0400240F68C03C2F2000303F00C
:109CC400C1FC49F6E960C0F2000004F077FF4FF4EC
:109CD40000604AF26D01C0F2000104F09FFFFFF73B
:109CE400A9FFC7E902014FF000037B602BE03B7A38
:109CF40003F00F03FB70FB78092B04D8FB7803F106
:109D04003003FB7003E0FB7803F13703FB70FB784F
:109D140099B240F2C442C2F200027B684FEA4303A4
:109D2400D3180A465A80FB684FEA0373BA684FEAAD
:109D340012121343BB60FB684FEA1313FB607B688A
:109D440003F101037B607B680F2BD0D907F1100767
:109D5400BD4680BD80B500AF0DF0E8FB0346002B87
:109D64000CBF00230123DBB2184680BD80B500AFD1
:109D74000DF0DCFB0346052B14BF00230123DBB2EB
:109D8400184680BD80B500AF4CF60420C0F2010037
:109D94000DF0D8FB80BD00BF80B500AF0DF05EFFB5
:109DA40080BD00BF80B483B000AF0346FB7140F2B6
:109DB4004863C2F200031A78114640F24853C2F2D3
:109DC4000003F879585402F10103DAB240F248630F
:109DD400C2F200031A704FF00003184607F10C0793
:109DE400BD4680BC704700BF80B588B000AF7860C6
:109DF4006FF00203FB617B681B7803F06003DBB246
:109E0400002B66D17B681B7823F07F03DBB2002B29
:109E14005FD07B681B7803F01F03DBB2012B58D1A2
:109E24007B685B78062B54D17B685B889BB24FEAD6
:109E340013239BB2222B1DD14FF02003BB617B68FF
:109E44009A79DB794FEA03231343FB82FA8ABB69CD
:109E54009A4238BF13464FF000004CF64811C0F246
:109E640001011A464FF000030DF016FF4FF00003F6
:109E7400FB612DE07B685B889BB24FEA13239BB2A6
:109E8400212B25D140F61C20C2F2000014494FF0CA
:109E9400090212F0D7F94FF009033B617B689A7904
:109EA400DB794FEA03231343FB81FA893B699A4226
:109EB400B8BF13464FF0000040F61C21C2F2000167
:109EC4001A464FF000030DF0E7FE4FF00003FB616C
:109ED40000BFFB69184607F12007BD4680BD00BFDF
:109EE4007AC9010080B500AF0DF05EFE0346184646
:109EF40080BD00BF80B582B000AF02460B46FA7148
:109F0400BB7144F22050C4F24C200AF0C5F8BB796E
:109F1400052B05D140F62000C2F2000003F00AFA36
:109F24004FF4406004F0C2FE07F10807BD4680BD4F
:109F340080B584B000AF0346B9607A60FB734FF418
:109F4400006004F0B3FE97F90F3013F10B0F04D047
:109F540097F90F3013F10A0F08D140F62000C2F22E
:109F6400000003F0E7F94FF0000365E097F90F30C4
:109F7400002B14D04CF62020C0F2010040F28D11C9
:109F84004CF66422C0F2010203F004F940F620000A
:109F9400C2F2000003F0CEF94FF000034CE040F6AB
:109FA4002000C2F2000040F25061C2F20001BA681F
:109FB40003F06AFA40F62000C2F2000003F0D4F97C
:109FC4000346032B36D801A252F823F039A000002F
:109FD40039A00000E19F000013A0000040F6200318
:109FE400C2F200031A6840F62003C2F20003DB68E1
:109FF40040F67800C2F2000011461A4603F0DCFB7A
:10A0040040F62000C2F2000003F094F912E04CF68E
:10A014002020C0F201004FF4CE714CF66422C0F24D
:10A02400010203F0B7F840F62000C2F2000003F08A
:10A0340081F900BF4FF00003184607F11007BD4631
:10A0440080BD00BF80B584B000AF0346B9607A60BC
:10A05400FB734FF4006004F029FE4FF00003184630
:10A0640007F11007BD4680BD80B582B000AF0DF08A
:10A074005DFA0346052B57D14FF001000DF030FA7D
:10A08400034683F00103DBB2002B1ED04FF0010026
:10A0940040F25061C2F200014FF0400249F63573BC
:10A0A400C0F200030DF0D2FC78607B68002B10D066
:10A0B40040F24C63C2F200031B6803F1010240F258
:10A0C4004C63C2F200031A6003E04FF4006004F032
:10A0D400DDFD4FF081000DF003FA034683F0010328
:10A0E400DBB2002B1BD040F67800C2F2000040F631
:10A0F4003801C2F2000103F0F5FA0346002B14D034
:10A104004FF0810040F63801C2F200014FF04002E6
:10A114004AF24903C0F200030DF0BEFD05E04FF41E
:10A12400006004F0B3FD00E000BF07F10807BD467E
:10A1340080BD00BF80B584B000AF0346B9607A60CB
:10A14400FB73FB7B184600F01DFE07F11007BD46AC
:10A1540080BD00BF80B586B000AF0346B9607A60A9
:10A16400FB73FB7B002B04D0FB7B184600F016FE30
:10A1740021E07B68022B02D001F0BCFA1BE0BB6833
:10A184001B784FEA03239AB2BB6803F101031B78DF
:10A1940013439BB2FB82FB8A1BB2002B07DBFB8AB7
:10A1A40003F00103002B02D000F004FE03E0FB8A5D
:10A1B400184601F0EFFF07F11807BD4680BD00BF48
:10A1C40080B584B000AF0346B9607A60FB73FB7B53
:10A1D400002B04D0FB7B184600F0F2FD01E000F0F8
:10A1E400FBFD07F11007BD4680BD00BF80B584B0FC
:10A1F40000AF0346B9607A60FB73FB7B012B02D08E
:10A20400022B03D005E001F031FE07E001F066FE09
:10A2140004E0FB7B184600F0E5FD00BF07F11007E2
:10A22400BD4680BD80B588B000AF0346B9607A6092
:10A23400FB73FB7B012B02D0022B12D014E0BB6812
:10A244001B78FB77BB6803F10103BB617B6803F1F7
:10A25400FF337B61FB7F1846B9697A6900F0DAFD48
:10A2640007E000F0E3FD04E0FB7B184600F0C6FDC8
:10A2740000BF07F12007BD4680BD00BF80B584B094
:10A2840000AF0346B9607A60FB73FB7B012B02D0FD
:10A29400022B03D005E000F0DBFD07E000F0DEFD5B
:10A2A40004E0FB7B184600F0C7FD00BF07F1100770
:10A2B400BD4680BD80B58AB002AF0346B9607A60FE
:10A2C400FB73FB7B002B04D0FB7B184600F0CCFD1A
:10A2D4001FE0B86802F004FC0346FB83BB689B786C
:10A2E4007B77BB68DB783B77BB6803F104031846D4
:10A2F40002F00CFCB861BB681B7AFB75F98B7A7FA2
:10A304003B7FF87D0090084611461A46BB6900F071
:10A31400B7FD07F12007BD4680BD00BF80B586B0FC
:10A3240000AF0346B9607A60FB73FB7B002B04D05B
:10A33400FB7B184600F0B4FD09E0BB687B61BB6899
:10A344009B79FB74FB7C7869194600F0B5FD07F135
:10A354001807BD4680BD00BF80B586B000AF034678
:10A36400B9607A60FB73FB7B002B04D0FB7B18463F
:10A3740000F0AEFD15E0B86802F0B2FB0346FB82C4
:10A38400FB8A184611F05AFA0346184644F2AE7195
:10A39400C4F2610111F06AFB03463B61386900F0C5
:10A3A400A3FD07F11807BD4680BD00BF80B586B088
:10A3B40000AF0346B9607A60FB73FB7B002B04D0CB
:10A3C400FB7B184600F09AFD14E0B86802F088FBA5
:10A3D4000346FB82B7F91630184611F02FFA0346EC
:10A3E40018464FF07A5111F041FB03463B6138693E
:10A3F40000F090FD07F11807BD4680BD80B584B01C
:10A4040000AF0346B9607A60FB73FB7B002B04D07A
:10A41400FB7B184600F088FD01E000F091FD07F198
:10A424001007BD4680BD00BF80B584B000AF0346B1
:10A43400B9607A60FB73FB7B002B04D0FB7B18466E
:10A4440000F084FD01E000F08DFD07F11007BD462A
:10A4540080BD00BF80B584B000AF0346B9607A60A8
:10A46400FB73FB7B002B04D0FB7B184600F080FDC4
:10A4740001E000F089FD07F11007BD4680BD00BF73
:10A4840080B584B000AF0346B9607A60FB73FB7B90
:10A49400002B04D0FB7B184600F07CFD01E000F0AB
:10A4A40085FD07F11007BD4680BD00BF80B584B0AF
:10A4B40000AF0346B9607A60FB73FB7B002B04D0CA
:10A4C400FB7B184600F078FD01E000F081FD07F108
:10A4D4001007BD4680BD00BF80B584B000AF034601
:10A4E400B9607A60FB73FB7B002B04D0FB7B1846BE
:10A4F40000F074FD01E000F07DFD07F11007BD469A
:10A5040080BD00BF80B584B000AF0346B9607A60F7
:10A51400FB73FB7B002B04D0FB7B184600F070FD23
:10A5240001E000F079FD07F11007BD4680BD00BFD2
:10A5340080B584B000AF0346B9607A60FB73FB7BDF
:10A54400002B04D0FB7B184600F06CFD01E000F00A
:10A5540075FD07F11007BD4680BD00BF80B584B00E
:10A5640000AF0346B9607A60FB73FB7B002B04D019
:10A57400FB7B184600F068FD01E000F071FD07F177
:10A584001007BD4680BD00BF80B584B000AF034650
:10A59400B9607A60FB73FB7B002B04D0FB7B18460D
:10A5A40000F064FD01E000F06DFD07F11007BD4609
:10A5B40080BD00BF80B584B000AF0346B9607A6047
:10A5C400FB73FB7B002B04D0FB7B184600F060FD83
:10A5D40001E000F069FD07F11007BD4680BD00BF32
:10A5E40080B584B000AF0346B9607A60FB73FB7B2F
:10A5F400002B04D0FB7B184600F05CFD01E000F06A
:10A6040065FD07F11007BD4680BD00BF80B584B06D
:10A6140000AF0346B9607A60FB73FB7B002B04D068
:10A62400FB7B184600F058FD01E000F061FD07F1E6
:10A634001007BD4680BD00BF80B584B000AF03469F
:10A64400B9607A60FB73FB7B002B04D0FB7B18465C
:10A6540000F054FD01E000F05DFD07F11007BD4678
:10A6640080BD00BF80B584B000AF0346B9607A6096
:10A67400FB73FB7B002B04D0FB7B184600F050FDE2
:10A6840001E000F059FD07F11007BD4680BD00BF91
:10A6940080B584B000AFBA607B600346FB730B46A1
:10A6A400BB73FB7B052B03D04FF00100FEF768FF63
:10A6B400FB7B03F1FF331E2B00F2F18001A252F861
:10A6C40023F000BF45A70000A3A8000053A7000083
:10A6D400A3A8000061A700006FA700007DA70000E9
:10A6E4008BA7000099A70000A7A70000B5A700004A
:10A6F400C3A7000095A80000D1A70000DFA70000B1
:10A70400EDA70000FBA7000009A8000017A800009F
:10A7140025A80000A3A80000A3A80000A3A8000087
:10A72400A3A8000033A8000041A800004FA800001F
:10A734005DA800006BA8000079A8000087A80000AD
:10A74400BB7B1846B9687A68FFF7F4FCAAE0BB7BC8
:10A754001846B9687A68FFF7FDFCA3E0BB7B18468E
:10A76400B9687A68FFF72CFD9CE0BB7B1846B96892
:10A774007A68FFF73BFD95E0BB7B1846B9687A68B9
:10A78400FFF750FD8EE0BB7B1846B9687A68FFF787
:10A7940075FD87E0BB7B1846B9687A68FFF78AFDC8
:10A7A40080E0BB7B1846B9687A68FFF7B7FD79E0AB
:10A7B400BB7B1846B9687A68FFF7CEFD72E0BB7BB5
:10A7C4001846B9687A68FFF7F1FD6BE0BB7B184661
:10A7D400B9687A68FFF712FE64E0BB7B1846B96873
:10A7E4007A68FFF721FE5DE0BB7B1846B9687A689A
:10A7F400FFF730FE56E0BB7B1846B9687A68FFF76E
:10A804003FFE4FE0BB7B1846B9687A68FFF74EFEFF
:10A8140048E0BB7B1846B9687A68FFF75DFE41E003
:10A82400BB7B1846B9687A68FFF76CFE3AE0BB7BDD
:10A834001846B9687A68FFF77BFE33E0BB7B18469D
:10A84400B9687A68FFF78AFE2CE0BB7B1846B968C2
:10A854007A68FFF799FE25E0BB7B1846B9687A68E9
:10A86400FFF7A8FE1EE0BB7B1846B9687A68FFF7BD
:10A87400B7FE17E0BB7B1846B9687A68FFF7C6FED7
:10A8840010E0BB7B1846B9687A68FFF7D5FE09E08B
:10A89400BB7B1846B9687A68FFF7E4FE02E000F073
:10A8A40029FF00BF07F11007BD4680BD80B584B005
:10A8B40000AF786039603B68042B02D000F01AFFC7
:10A8C40010E07B685B78FB737B689B78BB737B6869
:10A8D400DB787B73F97BBA7B7B7B084611461A468F
:10A8E40001F072FA07F11007BD4680BD80B582B051
:10A8F40000AF786039607B6803F101023B6803F1C3
:10A90400FF331046194600F01DFC07F10807BD4649
:10A9140080BD00BF80B584B000AF786039607B68CB
:10A9240003F10103184602F0DBF80346FB817B6860
:10A9340003F10303BB60FB891846B96800F00CFC03
:10A9440007F11007BD4680BD80B586B000AF7860C2
:10A9540039603B68022B02D800F0CCFE15E07B681E
:10A964005B78FB757B689B78BB757B6803F103039D
:10A974003B613B68A3F10303FB60FA7DBB7D10469A
:10A9840019463A69FB68FFF783FE07F11807BD46CD
:10A9940080BD00BF80B588B002AF786039603B6885
:10A9A4000F2B02D000F0A6FE2CE07B685B78FB75D1
:10A9B4007B6803F102033B617B6803F108031846DB
:10A9C40002F08EF80346FB817B6803F10A03184604
:10A9D40002F086F80346BB817B6803F10C0318463A
:10A9E40002F07EF803467B817B689B7B7B72F97D5A
:10A9F400FA89BB8978890090787A01900846396988
:10AA040001F07AFA07F11807BD4680BD80B584B01D
:10AA140000AF786039603B68032B02D000F06AFE17
:10AA24000BE07B685B78FB737B689B78BB73FA7B7A
:10AA3400BB7B1046194601F089FA07F11007BD46A1
:10AA440080BD00BF90B587B002AF786039603B68C5
:10AA5400072B02D000F04EFE1BE07B685B78FB7393
:10AA64007B689B78BB737B68DB787B737B681B7923
:10AA74003B737B685B79FB727B689B79BB72F87B69
:10AA8400B97B7A7B3B7BFC7A0094BC7A019400F01E
:10AA94006FFB07F11407BD4690BD00BF80B586B0BB
:10AAA40000AF786039603B68112B02D000F022FEC1
:10AAB40015E07B6803F10103184602F049F8C7E981
:10AAC40004017B6803F10903184602F041F8C7E961
:10AAD4000201D7E90401D7E9022301F0AFFA07F133
:10AAE4001807BD4680BD00BF80B584B000AF786054
:10AAF40039603B68072B02D000F0FCFD1FE07B6847
:10AB040003F10103184601F0EBFF0346FB817B6868
:10AB140003F10303184601F0E3FF0346BB817B689E
:10AB240003F10503184601F0DBFF03467B81F98935
:10AB3400BA897B89084611461A4600F025FB07F1BD
:10AB44001007BD4680BD00BF80B584B000AF7860FB
:10AB540039603B68072B02D000F0CCFD06E07B682F
:10AB640003F10103FB60F86800F01CFB07F1100718
:10AB7400BD4680BD80B584B000AF786039603B6865
:10AB8400022B02D000F0B6FD06E07B685B78FB7315
:10AB9400FB7B184600F010FB07F11007BD4680BD93
:10ABA40080B584B000AF786039603B68022B02D076
:10ABB40000F0A0FD06E07B685B78FB73FB7B184626
:10ABC40001F02EFA07F11007BD4680BD80B586B0AE
:10ABD40000AF786039603B68022B02D800F08AFD30
:10ABE40015E07B685B78FB757B689B78BB757B683D
:10ABF40003F103033B613B68A3F10303FB60FA7DAC
:10AC0400BB7D104619463A69FB6801F021F907F14A
:10AC14001807BD4680BD00BF80B586B000AF786020
:10AC240039603B68012B02D800F064FD10E07B68BA
:10AC34005B78FB757B6803F102033B613B68A3F11E
:10AC44000203FB60FB7D18463969FA6801F07CFA5F
:10AC540007F11807BD4680BD80B584B000AF7860A9
:10AC640039603B68022B02D000F044FD06E07B68AB
:10AC74005B78FB73FB7B184600F0A8FA07F110071A
:10AC8400BD4680BD80B584B000AF786039607B6814
:10AC94001B78FB73FB7BA3F181030E2B6BD801A202
:10ACA40052F823F0E5AC0000EFAC0000F9AC000072
:10ACB40003AD00000DAD000017AD000021AD000094
:10ACC4002BAD000035AD000053AD000071AD0000A8
:10ACD40067AD00005DAD00003FAD000049AD000070
:10ACE40078683968FFF7E2FD48E078683968FFF76B
:10ACF400FDFD43E078683968FFF70CFE3EE07868B4
:10AD04003968FFF721FE39E078683968FFF742FEB9
:10AD140034E078683968FFF779FE2FE0786839689D
:10AD2400FFF790FE2AE078683968FFF7B7FE25E060
:10AD340078683968FFF7D8FE20E078683968FFF74B
:10AD440003FF1BE078683968FFF714FF16E07868A2
:10AD54003968FFF725FF11E078683968FFF736FF97
:10AD64000CE078683968FFF757FF07E078683968BE
:10AD7400FFF772FF02E000F0BDFC00BF07F110070F
:10AD8400BD4680BD80B582B000AF0346FB7100F0C4
:10AD9400B1FC07F10807BD4680BD00BF80B582B095
:10ADA40000AF0346FB7100F0A5FC07F10807BD46A0
:10ADB40080BD00BF80B500AF00F09CFC80BD00BF2B
:10ADC40080B582B000AF0346FB7100F093FC07F13D
:10ADD4000807BD4680BD00BF80B400AFBD4680BC3F
:10ADE400704700BF80B582B000AF0346FB7100F02E
:10ADF40081FC07F10807BD4680BD00BF80B582B065
:10AE040000AF0346FB7100F075FC07F10807BD466F
:10AE140080BD00BF80B485B000AFF860B9607A60CF
:10AE240007F11407BD4680BC704700BF80B400AF73
:10AE3400BD4680BC704700BF80B582B000AF0346FA
:10AE4400FB7100F057FC07F10807BD4680BD00BF49
:10AE540080B400AFBD4680BC704700BF80B400AF73
:10AE6400BD4680BC704700BF80B582B000AF0346CA
:10AE7400FB7100F03FFC07F10807BD4680BD00BF31
:10AE840080B483B000AF3B600346FB800B467B710C
:10AE940013463B7107F10C07BD4680BC704700BFE9
:10AEA40080B582B000AF0346FB7100F023FC07F1CC
:10AEB4000807BD4680BD00BF80B483B000AF786092
:10AEC4000B46FB7007F10C07BD4680BC704700BF02
:10AED40080B582B000AF0346FB7100F00BFC07F1B4
:10AEE4000807BD4680BD00BF80B483B000AF786062
:10AEF40007F10C07BD4680BC704700BF80B582B027
:10AF040000AF0346FB7100F0F5FB07F10807BD46EF
:10AF140080BD00BF80B483B000AF786007F10C0738
:10AF2400BD4680BC704700BF80B582B000AF034609
:10AF3400FB7100F0DFFB07F10807BD4680BD00BFD1
:10AF440080B400AFBD4680BC704700BF80B582B0FE
:10AF540000AF0346FB7100F0CDFB07F10807BD46C7
:10AF640080BD00BF80B400AFBD4680BC704700BF49
:10AF740080B582B000AF0346FB7100F0BBFB07F164
:10AF84000807BD4680BD00BF80B400AFBD4680BC8D
:10AF9400704700BF80B582B000AF0346FB7100F07C
:10AFA400A9FB07F10807BD4680BD00BF80B400AF10
:10AFB400BD4680BC704700BF80B582B000AF034679
:10AFC400FB7100F097FB07F10807BD4680BD00BF89
:10AFD40080B400AFBD4680BC704700BF80B582B06E
:10AFE40000AF0346FB7100F085FB07F10807BD467F
:10AFF40080BD00BF80B400AFBD4680BC704700BFB9
:10B0040080B582B000AF0346FB7100F073FB07F11B
:10B014000807BD4680BD00BF80B400AFBD4680BCFC
:10B02400704700BF80B582B000AF0346FB7100F0EB
:10B0340061FB07F10807BD4680BD00BF80B400AFC7
:10B04400BD4680BC704700BF80B582B000AF0346E8
:10B05400FB7100F04FFB07F10807BD4680BD00BF40
:10B0640080B400AFBD4680BC704700BF80B582B0DD
:10B0740000AF0346FB7100F03DFB07F10807BD4636
:10B0840080BD00BF80B400AFBD4680BC704700BF28
:10B0940080B582B000AF0346FB7100F02BFB07F1D3
:10B0A4000807BD4680BD00BF80B400AFBD4680BC6C
:10B0B400704700BF80B582B000AF0346FB7100F05B
:10B0C40019FB07F10807BD4680BD00BF80B400AF7F
:10B0D400BD4680BC704700BF80B582B000AF034658
:10B0E400FB7100F007FB07F10807BD4680BD00BFF8
:10B0F40080B400AFBD4680BC704700BF80B582B04D
:10B1040000AF0346FB7100F0F5FA07F10807BD46EE
:10B1140080BD00BF80B400AFBD4680BC704700BF97
:10B1240080B582B000AF0346FB7100F0E3FA07F18B
:10B134000807BD4680BD00BF80B400AFBD4680BCDB
:10B14400704700BF80B483B000AF7860396007F106
:10B154000C07BD4680BC704780B582B000AF034683
:10B164003960FB8000F0C6FA07F10807BD4680BDD0
:10B1740080B483B000AFF871B9717A713B7107F193
:10B184000C07BD4680BC704780B483B000AF134643
:10B194000246FA800A46BA807B8007F10C07BD4656
:10B1A40080BC704780B483B000AF786007F10C07AF
:10B1B400BD4680BC704700BF80B483B000AF034677
:10B1C400FB7107F10C07BD4680BC704780B483B0A7
:10B1D40000AF0346FB7107F10C07BD4680BC704706
:10B1E40080B582B000AF786039604FF00100FEF79F
:10B1F400EDF978683968FEF7BBFA07F10807BD4630
:10B2040080BD00BF80B582B000AF786039604FF078
:10B214000100FEF749FA78683968FEF7A9FA07F1E0
:10B224000807BD4680BD00BF80B584B000AFF8609C
:10B23400B9607A603B604FF00100FEF735FAF868B8
:10B24400B9687A683B68FEF7ADFA07F11007BD46A6
:10B2540080BD00BF80B584B000AF0346FB714FF0E2
:10B2640002033B734FF001037B73FB79BB7307F15C
:10B274000C0318464FF00301FFF7B2FF07F1100764
:10B28400BD4680BD80B584B000AF0346FB804FF05F
:10B2940003033B734FF003037B73FB884FEA1323D1
:10B2A4009BB2DBB2BB73FB88DBB2FB7307F10C030D
:10B2B40018464FF00401FFF793FF07F11007BD464E
:10B2C40080BD00BF80B582B000AF4CF66823C0F2E9
:10B2D400010307F104021B88138007F104031846D5
:10B2E4004FF00201FFF77CFF07F10807BD4680BD60
:10B2F40080B582B000AF4CF66C23C0F2010307F1B5
:10B3040004021B88138007F1040318464FF002015E
:10B31400FFF766FF07F10807BD4680BD80B584B01E
:10B3240000AF02460B46FA80BB804FF005033B7228
:10B334004FF00F037B72FB88DBB2BB72FB884FEAD2
:10B3440013239BB2DBB2FB72BB88DBB23B73BB88BB
:10B354004FEA13239BB2DBB27B7307F10803184651
:10B364004FF00601FFF73CFF07F11007BD4680BD13
:10B3740080B584B000AF0346FB714FF002033B730A
:10B384004FF011037B73FB79BB7307F10C03184671
:10B394004FF00301FFF724FF07F11007BD4680BDFE
:10B3A40080B584B000AF0346FB714FF002033B73DA
:10B3B4004FF012037B73FB79BB7307F10C03184640
:10B3C4004FF00301FFF70CFF07F11007BD4680BDE6
:10B3D40080B586B000AFF880B9807A803B804FF0AA
:10B3E40009033B734FF013037B73FB88DBB2BB731E
:10B3F400FB884FEA13239BB2DBB2FB73BB88DBB23F
:10B404003B74BB884FEA13239BB2DBB27B747B880B
:10B41400DBB2BB747B884FEA13239BB2DBB2FB74B1
:10B424003B88DBB23B753B884FEA13239BB2DBB20C
:10B434007B7507F10C0318464FF00A01FFF7D0FEA5
:10B4440007F11807BD4680BD80B584B000AF034640
:10B45400FB714FF002033B734FF01F037B73FB79C7
:10B46400BB7307F10C0318464FF00301FFF7B8FE56
:10B4740007F11007BD4680BD80B586B000AF034616
:10B48400B9607A60FB737B68DBB203F10203DBB261
:10B494003B754FF015037B75FB7BBB7507F11403FC
:10B4A40018464FF00301BA687B68FFF7BDFE07F149
:10B4B4001807BD4680BD00BF80B584B000AF034609
:10B4C400FB714FF002033B734FF016037B73FB7960
:10B4D400BB7307F10C0318464FF00301FFF792FE0C
:10B4E40007F11007BD4680BD80B483B000AF0346AA
:10B4F4003960FB714FF4C042C4F20002F9790B4683
:10B504004FEAC3035B184FEA8303D31803F118030C
:10B514005A683B6822FA03F303F00103184607F163
:10B524000C07BD4680BC704780B483B000AF0346AF
:10B534003960FB714FF4C042C4F20002F9793B68F0
:10B544004FF0010000FA03F318460B464FEAC30319
:10B554005B184FEA8303D31803F11003586007F113
:10B564000C07BD4680BC704780B483B000AF03466F
:10B574003960FB714FF4C042C4F20002F9793B68B0
:10B584004FF0010000FA03F318460B464FEAC303D9
:10B594005B184FEA8303D31803F11003186007F113
:10B5A4000C07BD4680BC704780B500AF00F0DAF8E8
:10B5B40000F000FC80BD00BF80B582B002AF40F651
:10B5C4002823C2F200034FF000021A6040F62C2335
:10B5D400C2F200034FF000021A6040F63023C2F2B8
:10B5E40000034FF000021A6040F63423C2F2000355
:10B5F4004FF000021A6040F63823C2F200034FF005
:10B6040000004FF00001C3E9000140F64023C2F2FC
:10B6140000034FF000004FF00001C3E9000140F6C1
:10B624004823C2F200034FF000021A7040F64A2386
:10B63400C2F200034FF000021A8040F64C23C2F21B
:10B6440000034FF000021A8040F6E030C2F200001E
:10B6540040F65021C2F200014FF4C87201F048FED6
:10B664004FF4C873009340F60C40C2F2000044F259
:10B674002051C4F24C214FF0140240F62043C2F290
:10B68400000301F0DFFF40F6B053C2F200034FF0B5
:10B6940000021A7040F6C053C2F200034FF00002D9
:10B6A4001A7040F6C153C2F200034FF000021A7040
:10B6B40040F6C253C2F200034FF000021A7040F683
:10B6C400C353C2F200034FF000021A704EF201009D
:10B6D4004BF2AD51C0F2000103F0A0FA40F6B450B1
:10B6E400C2F200004CF2B911C0F2000107F042FFAF
:10B6F400BD4680BD80B500AF4CF6CC40C0F2010021
:10B704004FF0E4014CF61452C0F2010201F042FD84
:10B7140080BD00BF80B500AF4FF4804003F0C6FA8F
:10B7240080BD00BF80B500AF4FF4005003F0BEFAF7
:10B7340080BD00BF80B500AF4FF003004FF005019E
:10B74400FFF7F2FE4FF06400FDF73AF84FF0030004
:10B754004FF00501FFF708FF4FF06400FDF730F8E4
:10B7640080BD00BF80B594B000AF4FF003004FF030
:10B774000401FFF7B9FE0346002B02D04FF000038B
:10B784004BE040F24053C2F200031B68002B02D08E
:10B794004FF0030301E04FF001033B7440F22053E8
:10B7A400C2F200037B614FF02003BB6140F24053BF
:10B7B400C2F200031B68FB6107F12C033B624FF0EC
:10B7C40020037B624FF00203BB624FF002033B6035
:10B7D40007F110037B604FF00103BB604FF00003DF
:10B7E400FB603B464FF00110194604F08BFD4FF00F
:10B7F400010004F0CDFDFDF77FFF97F82D30FB64C9
:10B80400FB6C002B07D007F12C0303F1020318464D
:10B81400F96CFFF737FA4FF00103184607F15007A8
:10B82400BD4680BD80B582B000AF4FF0011004F07A
:10B834002BFD4FF003004FF00301FFF775FE00BF2F
:10B844004FF003004FF00401FFF74EFE0346002BB8
:10B85400F6D1FFF787FF0346FB71FB7983F0010301
:10B86400DBB2002B0BD04CF6CC40C0F2010040F20E
:10B8740021114CF61852C0F2010201F08BFC07F1C1
:10B884000807BD4680BD00BF80B582B000AF7860B8
:10B8940040F62823C2F200031A687B681A4340F674
:10B8A4002823C2F200031A604FF4004003F0EEF9BB
:10B8B40007F10807BD4680BD80B483B000AF78604F
:10B8C4007B686FEA030240F62823C2F200031B6878
:10B8D4001A4040F62823C2F200031A6007F10C074D
:10B8E400BD4680BC704700BF80B582B000AF7860B1
:10B8F40040F62C23C2F200031A687B681A4340F610
:10B904002C23C2F200031A604FF4004003F0BEF986
:10B9140007F10807BD4680BD80B483B000AF7860EE
:10B924007B686FEA030240F62C23C2F200031B6813
:10B934001A4040F62C23C2F200031A6007F10C07E8
:10B94400BD4680BC704700BF90B58BB000AFB5E179
:10B9540040F62823C2F200031B6803F04003002BC7
:10B9640011D0FFF7AFFC4FF04000FFF7A5FF40F602
:10B974004823C2F200034FF001021A704FF2010093
:10B9840003F0AAF99AE140F62823C2F200031B68E7
:10B9940003F08003002B06D0FFF7AAFC4FF08000D1
:10B9A400FFF78AFF8AE140F62823C2F200031B68EE
:10B9B40003F00103002B02D000F058FA7EE140F6B8
:10B9C4002823C2F200031B6803F00203002B10D0EB
:10B9D4004FF00003FB834FF4C863BB83FA8BBB8B2C
:10B9E40010461946FFF79AFC4FF00200FFF764FF78
:10B9F40064E140F62823C2F200031B6803F0040349
:10BA0400002B16D04FF010037B834FF020033B83B1
:10BA14004FF00003FB824FF41673BB82788B398B93
:10BA2400FA8ABB8AFFF7D4FC4FF00400FFF744FF07
:10BA340044E140F62823C2F200031B6803F0080324
:10BA4400002B60D04FF001037B624AE07B6AA3F1D4
:10BA540020034FF0010202FA03F2796AC1F12001D6
:10BA64004FF0010020FA01F14FF00004786A04FA63
:10BA740000F00143F960F968002BB4BF0B4613468C
:10BA8400FB604FF001027B6A02FA03F3BB6040F6ED
:10BA94004023C2F20003D3E90001D7E9022302EAFA
:10BAA400000203EA010352EA030116D0D7E9022394
:10BAB4006FEA02006FEA030140F64023C2F200037A
:10BAC400D3E9002300EA020001EA030140F640231F
:10BAD400C2F20003C3E9000106E07B6A03F101033B
:10BAE4007B627B6A3E2BB1DD40F64023C2F2000349
:10BAF400D3E9002352EA030140F0E0804FF008004C
:10BB0400FFF7DAFEDAE040F62823C2F200031B68EE
:10BB140003F01003002B64D04FF001033B624FE0AD
:10BB24003B6AA3F120034FF0010202FA03F2396ADF
:10BB3400C1F120014FF0010020FA01F14FF000049F
:10BB4400386A04FA00F0014379607968002BB4BFC5
:10BB54000B4613467B604FF001023B6A02FA03F383
:10BB64003B6040F63823C2F20003D3E90001D7E971
:10BB7400002302EA000203EA010352EA03011BD094
:10BB84003B6ADBB21846FFF75FFCD7E900236FEA94
:10BB940002006FEA030140F63823C2F20003D3E93E
:10BBA400002300EA020001EA030140F63823C2F24E
:10BBB4000003C3E9000106E03B6A03F101033B62B1
:10BBC4003B6A3E2BACDD40F63823C2F20003D3E9D6
:10BBD400002352EA030171D14FF01000FFF76CFE0D
:10BBE4006CE040F62823C2F200031B6803F0200334
:10BBF400002B08D04FF00100FFF7BAFB4FF02000F4
:10BC0400FFF75AFE5AE040F62823C2F200031B68ED
:10BC140003F48073002B08D04FF00200FFF71AFBE7
:10BC24004FF48070FFF748FE48E040F62823C2F244
:10BC340000031B6803F40073002B18D040F64A235A
:10BC4400C2F200031B881846FFF71CFB4FF4007078
:10BC5400FFF732FE40F64A23C2F200031B88B3F515
:10BC6400404F2BD14FF48060FFF70EFE26E040F6E4
:10BC74002823C2F200031B6803F48063002B08D05E
:10BC84004FF0FF00FFF7E6FA4FF48060FFF714FE71
:10BC940014E040F62823C2F200031B6803F4006397
:10BCA400002B0BD040F64E23C2F200031B7818463B
:10BCB400FFF776FB4FF40060FFF7FEFD40F6282304
:10BCC400C2F200031B68002B05D0FDF739FC0346C4
:10BCD400002B7FF43DAE07F12C07BD4690BD00BF9D
:10BCE40080B500AF10E040F62C23C2F200031B68BD
:10BCF40003F00103002B07D04FF00200FFF7DCFB39
:10BD04004FF00100FFF708FE40F62C23C2F20003B7
:10BD14001B68002B04D0FDF781FC0346002BE2D105
:10BD240080BD00BF80B483B000AF78607B684FF003
:10BD3400010202FA03F10A464FEAE27340F638219F
:10BD4400C2F20001D1E9000102EA000203EA0103A0
:10BD54001343002B0CBF00230123DBB2184607F169
:10BD64000C07BD4680BC704780B500AFFDF756FC9C
:10BD74000346002B1DD04FF00100FFF7D3FF03460D
:10BD8400002B16D040F60C40C2F2000040F6F83109
:10BD9400C2F2000101F0A6FC0346002B09D04FF0CB
:10BDA400010040F6F831C2F200014FF01402FFF72F
:10BDB40063FB80BD80B500AFFFF7C6FDFFF790FFC2
:10BDC400FFF7D2FF80BD00BF80B582B000AF13463D
:10BDD4000246FA710A46BA717B717A7940F63023C9
:10BDE400C2F200031A60FB79022B1CD0032B0AD089
:10BDF400012B28D14FF00100FDF7B2FB4FF4007086
:10BE0400FFF742FD1FE04FF00100FDF7A9FB40F6EC
:10BE1400B053C2F200034FF000021A704FF0020058
:10BE2400FFF732FD0FE04FF00100FDF799FB40F6FC
:10BE34003423C2F200034FF000021A604FF00100F5
:10BE4400FFF722FD00BF07F10807BD4680BD00BF14
:10BE540080B485B000AFBA607B600346FB730B46C9
:10BE6400BB7307F11407BD4680BC704780B584B02E
:10BE740000AF40F63423C2F200031B68102B27D80E
:10BE84004FF00100FDF7A2FB40F63423C2F2000399
:10BE94001A6813464FEA43139B184CF69821C0F2D4
:10BEA40001015B18FB6002F1010240F63423C2F287
:10BEB40000031A60FB6803F10103BB60BB681B78D5
:10BEC40003F101037B60B8687968FDF751FC00E079
:10BED40000BF07F11007BD4680BD00BF80B500AFAD
:10BEE40040F6C053C2F200034FF001021A704FF043
:10BEF4000100FFF7E1FC80BD80B584B000AFB960FC
:10BF04000146F973BA81FB8040F6C153C2F20003C3
:10BF14004FF001021A704FF4805002F0C7FE40F651
:10BF24003023C2F200031B681846FDF787FB40F676
:10BF3400E030C2F2000001F0FDF94FF00400FFF719
:10BF4400A3FC07F11007BD4680BD00BF80B582B0D9
:10BF540000AF02460B46FA71BB7144F22050C4F2A2
:10BF64004C2008F099F840F62823C2F200034FF061
:10BF740000021A6040F62C23C2F200034FF00002C4
:10BF84001A6040F63823C2F200034FF000004FF06D
:10BF94000001C3E9000140F64023C2F200034FF060
:10BFA40000004FF00001C3E9000140F6C153C2F2A2
:10BFB40000034FF000021A7040F6C253C2F20003AD
:10BFC4004FF000021A7040F6C353C2F200034FF060
:10BFD40000021A704FF4805002F068FE4FF0000027
:10BFE400FDF72CFB40F6B053C2F200031B78012B83
:10BFF40008D0022B0BD0002B0ED14FF00200FFF71C
:10C0040043FC09E04FF04000FFF73EFC04E04FF42E
:10C014008070FFF739FC00BF07F10807BD4680BDFB
:10C0240080B582B000AF0346FB71FB791846FDF77B
:10C0340015FB07F10807BD4680BD00BF80B584B07D
:10C0440000AFC7E90201C7E9002340F63823C2F272
:10C054000003D7E90201C3E9000140F64023C2F21C
:10C064000003D7E90001C3E9000140F64023C2F20E
:10C074000003D3E9002352EA030104D04FF008007F
:10C08400FFF702FC06E040F6C253C2F200034FF091
:10C0940001021A7007F11007BD4680BD80B582B059
:10C0A40000AF7860396040F6E030C2F20000796891
:10C0B4003A6801F0E9F940F6E030C2F2000001F01C
:10C0C40053F90346032B37D801A252F823F000BFDB
:10C0D4003DC100003DC10000E5C0000017C10000E3
:10C0E40040F6E033C2F200031A6840F6E033C2F2CD
:10C0F4000003DB6840F60C40C2F2000011461A4609
:10C1040001F05AFB40F6E030C2F2000001F012F9EF
:10C1140012E04CF6CC40C0F2010040F227214CF66C
:10C124001452C0F2010201F035F840F6E030C2F2D8
:10C13400000001F0FFF800BF4FF00100FFF7D4FB4F
:10C1440007F10807BD4680BD80B584B000AF034643
:10C15400B9607A60FB7340F6C353C2F200034FF038
:10C1640001021A70FB7B022B04D1B8687968FFF7CF
:10C1740095FF00BF07F11007BD4680BD80B400AF36
:10C1840040F64C23C2F200031B881846BD4680BC0F
:10C19400704700BF80B483B000AF0346FB8040F615
:10C1A4004C23C2F20003FA881A8007F10C07BD463B
:10C1B40080BC704780B500AF40F6B450C2F20000B6
:10C1C40007F024FB40F64A23C2F200034FF4404236
:10C1D4001A804FF40070FFF757FB80BD80B584B020
:10C1E40000AF034607F1040080E80600FB8140F637
:10C1F4004A23C2F20003FA891A8040F6B053C2F20D
:10C2040000034FF002021A704FF02000FFF73CFBCE
:10C214007B68002B09D040F6B450C2F2000007F14D
:10C22400040393E8060007F091FA07F11007BD46EE
:10C2340080BD00BF80B582B000AF0346FB7140F6FD
:10C244004E23C2F20003FA791A704FF40060FFF72C
:10C254001BFB07F10807BD4680BD00BF80B400AFDB
:10C2640040F64E23C2F200031B781846BD4680BC3C
:10C27400704700BF80B400AF40F64823C2F2000309
:10C284001B781846BD4680BC704700BF80B500AF20
:10C2940040F6C153C2F200031B78002B0BD040F6CA
:10C2A400B053C2F200034FF001021A704FF02000A5
:10C2B400FFF7EAFA06E040F62823C2F200034FF043
:10C2C40040021A6080BD00BF80B500AF4FF201008C
:10C2D40002F018FD4FF00100FDF742F940F6482343
:10C2E400C2F200034FF000021A704FF08000FFF713
:10C2F400CBFA80BD80B400AF40F6C453C2F2000351
:10C304004FF000021A6040F6C453C2F200034FF02B
:10C3140000025A60BD4680BC704700BF80B485B03F
:10C3240000AF786040F6C453C2F200031B68002BD0
:10C3340014D140F6C453C2F200037A681A6040F67E
:10C34400C453C2F200037A685A607B684FF000025B
:10C354001A607B684FF000025A6011E040F6C45343
:10C36400C2F200035B68FB6040F6C453C2F20003F0
:10C374007A685A607B68FA685A60FB687A681A605F
:10C3840007F11407BD4680BC704700BF80B584B078
:10C3940000AF78607B684FEA0323FB6007F10B036F
:10C3A400F86819464FF0010207F018FDFB7AFE2BDE
:10C3B40014BF00230123DBB2184607F11007BD4662
:10C3C40080BD00BF80B588B000AFF860B9607A6006
:10C3D400F868FFF7A3FFBB684FEA0312FB689A6093
:10C3E4007B6803F101034FEA0312FB68DA6007F08C
:10C3F400DFFBFB684FF0FF321A61FB684FF0FF323E
:10C404005A61FB689B681846FFF7C0FF0346002B80
:10C414000CD0FB68DB6803F1FF331846FFF7B6FF67
:10C424000346002B02D04FF0010301E04FF000035C
:10C43400FB75FB7D03F00103FB75FB7D002B2ED008
:10C44400FB689B68FB6124E0F869FFF79FFF0346E4
:10C4540083F00103DBB2002B08D0FB685B69B3F106
:10C46400FF3F12D1FB68FA695A610EE0FB681B6951
:10C47400B3F1FF3F09D1FB685B69B3F1FF3F04D01F
:10C48400FB68FA691A6100BF33E0FB6903F1010339
:10C49400FB61FB68DA68FB699A42D5D829E0FB683E
:10C4A4009B68BB6120E0B869FFF770FF0346002B6F
:10C4B40008D0FB681B69B3F1FF3F11D1FB68BA696F
:10C4C4001A610DE0FB685B69B3F1FF3F08D1FB68BB
:10C4D4001B69B3F1FF3F03D0FB68BA695A6108E0F6
:10C4E400BB6903F10103BB61FB68DA68BB699A426B
:10C4F400D9D8FB681B69B3F1FF3F07D1FB689A6881
:10C50400FB681A61FB681A69FB685A6107F0E6FB6D
:10C5140007F12007BD4680BD80B483B000AF7860CA
:10C524007B681A697B685B699A4205D87B685A699B
:10C534007B681B69D31A0AE07B68DA687B681B692D
:10C54400D21A7B6859697B689B68CB1AD318184642
:10C5540007F10C07BD4680BC704700BF80B584B0AE
:10C5640000AF78607B681B694FEA0323FB6007F028
:10C574001FFB07F0BDFB4FF0FC03FB7207F10B033D
:10C58400F86819464FF0010207F0E2FB07F0A6FB3A
:10C594007B681B6903F101027B681A617B681A6975
:10C5A4007B68DB689A4203D37B689A687B681A616C
:10C5B40007F11007BD4680BD90B5C9B000AF07F1C3
:10C5C4000C04206007F10800016007F104010A600F
:10C5D4003A4613603B461B68F82B03D93B464FF0A1
:10C5E400F8021A6007F0E4FA07F10C031B685B69B0
:10C5F4004FEA0323C7F81C3107F10C031B685B697E
:10C6040003F00F03002B49D107F11703D7F81C01DE
:10C6140019464FF0010207F0E1FB07F117031B78FD
:10C62400FF2B05D007F064FBD7F81C0107F06AFB69
:10C6340007F10C031B685A6907F10C031B681B699B
:10C644009A422BD207F10C031B681A6907F10C03F9
:10C654001B685B6903F110039A421FD207F10C03B4
:10C664001B681B6903F110034FEA13134FEA03120B
:10C6740007F10C031B681A6107F10C031B681A69A4
:10C6840007F10C031B68DB689A4207D307F10C031C
:10C694001B689A6807F10C031B681A6107F11803F9
:10C6A4001A464FF4807310464FF000011A460FF0FB
:10C6B400EDFD07F118034FF0FE021A703B461B68AC
:10C6C400DAB207F118035A7007F108031B68DAB2EB
:10C6D40007F118031A7107F108031B684FEA1323C3
:10C6E400DAB207F118035A7107F108031B684FEA1D
:10C6F4001343DAB207F118039A7107F108031B68B0
:10C704004FEA1363DAB207F11803DA7107F1180379
:10C7140003F1080107F104023B46084611681A6850
:10C724000FF090FD3B461B6803F1040307F1180268
:10C7340002F104024FF6FF7011461A4600F07AF92E
:10C744000346A7F81A31B7F81A31DAB207F1180319
:10C754009A70B7F81A314FEA13239BB2DAB207F191
:10C764001803DA7007F0C4FA3B461B6803F10803A8
:10C7740007F11802D7F81C0111461A4607F0E8FA27
:10C7840007F0ACFA07F10C031B685B6903F10102C3
:10C7940007F10C031B685A6107F10C031B685A6903
:10C7A40007F10C031B68DB689A4207D307F10C03FB
:10C7B4001B689A6807F10C031B685A6107F10C03A4
:10C7C4001B685A6907F10C031B681B699A4204D160
:10C7D40007F10C031868FFF7C1FE07F59277BD4611
:10C7E40090BD00BF90B5C7B000AF07F10C04206046
:10C7F40007F10800016007F104010A603A4613607A
:10C80400D7F82831F82B03D94FF0F803C7F82831AB
:10C8140007F10C031B681A6907F108031B68D21897
:10C8240007F104031B681A6007F104031B681A6804
:10C8340007F10C031B68DB689A4211D307F10C0360
:10C844001B689A6807F104031B68196807F10C0355
:10C854001B68DB68CB1AD21807F104031B681A6043
:10C8640007F10C031B681B694FEA0323C7F8143153
:10C8740007F09EF907F11403D7F8140119464FF491
:10C88400807207F0ABFA07F029FA07F114035B781A
:10C894001A4607F104031B689A8007F104031B6816
:10C8A4009B881A46D7F828319A4206D9D7F82831F6
:10C8B4009AB207F104031B689A8007F1140303F189
:10C8C4000203184600F00CF903461A4607F1040364
:10C8D4001B68DA8007F1140303F10403184600F01F
:10C8E40015F9024607F104031B689A6007F1040373
:10C8F4001B689B88394607F1140202F10802086894
:10C9040011461A460FF09EFC07F58E77BD4690BD82
:10C9140080B582B000AF786039603B681A687B6884
:10C924001B699A4203D17868FFF718FE00E000BF44
:10C9340007F10807BD4680BD80B582B000AF4FF057
:10C9440000037B6040F6C453C2F200031B683B60E3
:10C9540009E03868FFF7E0FD03467A68D3187B6086
:10C964003B681B683B603B68002BF2D17B68184630
:10C9740007F10807BD4680BD80B58AB002AFF860F4
:10C98400B9607A603B60FB68FB6140F6C453C2F255
:10C9940000031B68BB6119E0B869FFF7BDFD78614E
:10C9A400FA697B699A420AD23B680093B869F969CB
:10C9B400BA687B68FFF716FF4FF000030EE0FA69D0
:10C9C4007B69D31AFB61BB691B68BB61BB69002B24
:10C9D400E2D1FB6903F101033B613B69184607F1AE
:10C9E4002007BD4680BD00BF80B584B000AF78602D
:10C9F40040F6C453C2F200031B68FB6013E0FB68FB
:10CA04009A687B681B689A420AD87B681A68FB6834
:10CA1400DB689A4204D2F8687968FFF779FF05E089
:10CA2400FB681B68FB60FB68002BE8D107F110076B
:10CA3400BD4680BD80B487B000AF0346B9607A605C
:10CA4400FB81FB89FB82BA687B68D3183B612FE0CA
:10CA5400FB8A4FEA13239BB29AB2FB8A4FEA032361
:10CA64009BB213439BB2FB82BB681B781A46FB8ABA
:10CA74005340FB82FB8ADBB24FEA23139AB2FB8A50
:10CA840053409BB2FB82FB8A4FEA03339AB2FB8A80
:10CA940053409BB2FB82FB8ADBB24FEA43139AB248
:10CAA400FB8A53409BB2FB82BB6803F10103BB606A
:10CAB400BA683B699A42CBD3FB8A184607F11C0734
:10CAC400BD4680BC704700BF80B483B000AF7860BF
:10CAD4007B681B78184607F10C07BD4680BC70477D
:10CAE40080B483B000AF78607B6803F101031B78E6
:10CAF4004FEA03239AB27B681B7813439BB29BB221
:10CB0400184607F10C07BD4680BC704780B483B05B
:10CB140000AF78607B6803F103031B784FEA03627C
:10CB24007B6803F102031B784FEA03431A437B68D3
:10CB340003F101031B784FEA03231A437B681B7834
:10CB44001343184607F10C07BD4680BC704700BF6D
:10CB5400B0B586B000AF78607868FFF7D7FF0146BC
:10CB64000A464FF00003C7E904237B6803F1080376
:10CB74001846FFF7CBFF01460A464FF00003C7E90A
:10CB84000223BB681D464FF00004D7E9042342EAA0
:10CB9400040243EA05031046194607F11807BD4687
:10CBA400B0BD00BF80B584B000AF78607868FFF78F
:10CBB400ADFF0346FB60FB68184607F11007BD464E
:10CBC40080BD00BF80B584B000AF7860396038683C
:10CBD400FFF79CFF0346BB603B6803F10403184660
:10CBE400FFF794FF0346FB607B6807F1080292E8B5
:10CBF400030083E80300786807F11007BD4680BD91
:10CC040080B483B000AF78600B46FB707B68FA7821
:10CC14001A7007F10C07BD4680BC704780B483B01E
:10CC240000AF78600B467B807B88DAB27B681A7031
:10CC34007B6803F101037A884FEA122292B2D2B2DE
:10CC44001A7007F10C07BD4680BC704780B483B0EE
:10CC540000AF786039603B68DAB27B681A707B6831
:10CC640003F101033A684FEA1222D2B21A707B68C8
:10CC740003F102033A684FEA1242D2B21A707B6897
:10CC840003F103033A684FEA1262D2B21A7007F151
:10CC94000C07BD4680BC7047B0B584B000AFF860E7
:10CCA400C7E900233B68F8681946FFF7CFFFFB6824
:10CCB40003F104027B681C464FF00005234610462E
:10CCC4001946FFF7C3FF07F11007BD46B0BD00BF0B
:10CCD40080B584B000AF78603960386807F07AFBBB
:10CCE4000346FB81FB8978681946FFF797FF07F134
:10CCF4001007BD4680BD00BF80B584B000AF78602A
:10CD040039603B68FB60FB6878681946FFF79EFF53
:10CD140007F11007BD4680BD80B584B000AFF86050
:10CD240007F1040383E806007B68F8681946FFF7F7
:10CD34008DFFFB6803F10402BB6810461946FFF738
:10CD440085FF07F11007BD4680BD00BF80B485B0E4
:10CD540000AFF860B9607A60FB68BA681A60FB6873
:10CD64007A685A60FB684FF000029A60FB684FF0E3
:10CD74000002DA6007F11407BD4680BC704700BFAB
:10CD840080B483B000AF78607B685A687B689B6826
:10CD9400D31A184607F10C07BD4680BC704700BF84
:10CDA40080B584B000AFF860B9607A60FB681A6837
:10CDB400FB68DB68D318B86819467A680FF042FA42
:10CDC400FB68DA687B68D218FB68DA6007F1100741
:10CDD400BD4680BD80B584B000AF78607B681A68BA
:10CDE4007B68DB68D318FB607B68DB6803F10102B6
:10CDF4007B68DA60F868FFF767FE0346184607F1B8
:10CE04001007BD4680BD00BF80B584B000AF786018
:10CE14007B681A687B68DB68D318FB607B68DB6817
:10CE240003F102027B68DA60F868FFF759FE0346F3
:10CE3400184607F11007BD4680BD00BF80B584B019
:10CE440000AF78607B681A687B68DB68D318FB6086
:10CE54007B68DB6803F104027B68DA60F868FFF73B
:10CE640055FE0346184607F11007BD4680BD00BFB6
:10CE740080B584B000AF78607B681A687B68DB6833
:10CE8400D318FB607B68DB6803F104027B68DA601B
:10CE9400F868FFF787FE0346184607F11007BD46FA
:10CEA40080BD00BF80B584B000AF786039603B6856
:10CEB4001A683B68DB68D318FB603B68DB6803F1E6
:10CEC40008023B68DA607B681846F968FFF77AFE67
:10CED400786807F11007BD4680BD00BF80B582B0F9
:10CEE40000AF786039607B689A683B68D2187B68C9
:10CEF4005B689A4202D84FF001030DE04CF62050D3
:10CF0400C0F201004FF093014CF66452C0F20102EA
:10CF140000F040F94FF00003184607F10807BD463A
:10CF240080BD00BF80B584B000AFF860B9607A609E
:10CF3400F8687968FFF7D2FF0346002B0FD0FB682F
:10CF44001A68FB689B68D3181846B9687A680FF0AA
:10CF540079F9FB689A687B68D218FB689A6007F1D4
:10CF64001007BD4680BD00BF80B584B000AF7860B7
:10CF74000B46FB7078684FF00101FFF7AFFF0346E3
:10CF8400002B10D07B681A687B689B68D318FB6001
:10CF94007B689B6803F101027B689A60FB78F86800
:10CFA4001946FFF72DFE07F11007BD4680BD00BFEF
:10CFB40080B584B000AF78600B467B8078684FF012
:10CFC4000201FFF78BFF0346002B10D07B681A6821
:10CFD4007B689B68D318FB607B689B6803F1020243
:10CFE4007B689A607B88F8681946FFF717FE07F19B
:10CFF4001007BD4680BD00BF80B584B000AF786027
:10D00400396078684FF00401FFF768FF0346002B8E
:10D014000FD07B681A687B689B68D318FB607B68B9
:10D024009B6803F104027B689A60F8683968FFF72B
:10D034000DFE07F11007BD4680BD00BF80B586B068
:10D0440000AFF860C7E90023F8684FF00801FFF764
:10D0540045FF0346002B10D0FB681A68FB689B68E9
:10D06400D3187B61FB689B6803F10802FB689A6034
:10D074007869D7E90023FFF70FFE07F11807BD46CB
:10D0840080BD00BF80B584B000AF78603960786837
:10D094004FF00401FFF722FF0346002B0FD07B68FB
:10D0A4001A687B689B68D318FB607B689B6803F1F4
:10D0B40004027B689A60F8683968FFF71DFE07F17F
:10D0C4001007BD4680BD00BF80B586B000AFF860D4
:10D0D40007F1040383E80600F8684FF00801FFF73E
:10D0E400FDFE0346002B12D0FB681A68FB689B68A0
:10D0F400D3187B61FB689B6803F10802FB689A60A4
:10D10400786907F1040393E80600FFF705FE07F1C9
:10D114001807BD4680BD00BF80B400AF40F6CC53B5
:10D12400C2F200034FF000021A7040F6CD53C2F26F
:10D1340000034FF000021A70BD4680BC704700BF68
:10D1440080B582B000AF0346FB7140F6CD53C2F206
:10D154000003FA791A7040F6D050C2F200004FF082
:10D164003E014FF03F02FFF72DF907F10807BD46D6
:10D1740080BD00BF80B483B000AF786040F6CC536C
:10D18400C2F200034FF001021A7007F10C07BD460A
:10D1940080BC704780B5CCB000AF07F10C031860B9
:10D1A40007F10803196007F104031A6040F6CD5330
:10D1B400C2F200031B7883F00103DBB2002B05D01D
:10D1C40007F104031868FFF7D5FF8CE040F6CC5351
:10D1D400C2F200034FF001021A7007F1180207F1BE
:10D1E4002803104619464FF0F802FFF7AFFD07F584
:10D1F40090731846FCF772FC07F11803184607F5FC
:10D20400907393E80600FFF75FFF07F10C031B68B8
:10D21400002B37D007F10C0318680FF06FF80346A2
:10D2240007F1180107F10C02084611681A46FFF7C6
:10D2340079FE07F1180318464FF02001FFF794FE1A
:10D2440007F1100207F1080310464CF66851C0F2CA
:10D2540001011A680EF0E0FF07F1100318460FF001
:10D264004DF8034607F1180107F11002084611466C
:10D274001A46FFF757FE07F1180318464FF020012E
:10D28400FFF772FE07F1040318680FF037F8C7F8C8
:10D294002C0107F118031846FFF772FDC7F828019F
:10D2A400D7F82C21D7F828319A4203D9D7F8283156
:10D2B400C7F82C3107F1180207F104031046196866
:10D2C400D7F82C21FFF72EFE07F118039B6807F10E
:10D2D400280240F6D050C2F2000044F24641C4F69F
:10D2E4004C71FFF769F907F59877BD4680BD00BF1B
:10D2F40080B485B000AFF860B9607A60FB68BA6842
:10D304001A60FB687A685A60FB684FF000021A7270
:10D31400FB684FF00002DA60FB684FF000021A610C
:10D32400FB684FF000025A6107F11407BD4680BC48
:10D33400704700BF80B483B000AF78607B684FF063
:10D3440000021A727B684FF00002DA607B684FF0CB
:10D3540000021A617B684FF000025A6107F10C0762
:10D36400BD4680BC704700BF80B483B000AF786016
:10D374007B681B7A184607F10C07BD4680BC7047D2
:10D3840080B483B000AF78607B684FF003021A72F8
:10D3940007F10C07BD4680BC704700BF80B586B05E
:10D3A40000AFF860B9607A60FB685A697B68D3188B
:10D3B4007B61FB68DA687B699A4205D2FB68DA68AC
:10D3C400FB685B69D31A7B60FB681A68FB685B695E
:10D3D400D3181846B9687A680EF034FFFB685A69A6
:10D3E4007B68D218FB685A61FB685A69FB68DB6882
:10D3F4009A4204D1FB684FF002021A7205E0FB68FE
:10D404001B6903F10102FB681A6107F11807BD46A5
:10D4140080BD00BF80B584B000AFF860B9607A60A9
:10D424007B68012B03D8F868FFF7AAFF27E0FB68A5
:10D434004FF001021A72B868FFF752FB03461A460E
:10D44400FB68DA60FB684FF000021A61FB684FF07A
:10D4540000025A61FB68DA68FB685B689A4203D988
:10D46400F868FFF78DFF0AE0BB6803F102027B68EE
:10D47400A3F10203F86811461A46FFF78FFF07F17C
:10D484001007BD4680BD00BF80B586B000AFF86010
:10D49400B9607A607B68002B03D1F868FFF770FFEE
:10D4A4002CE0BB681B78FB75FB7D002B12D1FB685D
:10D4B4001B69002B02D0F868FFF762FFBB6803F119
:10D4C40001027B6803F1FF33F86811461A46FFF73F
:10D4D400A1FF13E0FA7DFB681B699A4203D0F86848
:10D4E400FFF74EFF0AE0BB6803F101027B6803F11A
:10D4F400FF33F86811461A46FFF750FF07F1180783
:10D50400BD4680BD80B483B000AF78607B684FF0C7
:10D5140000021A607B684FF000021A717B684FF0BA
:10D5240000029A607B684FF00002DA607B684FF07B
:10D5340000021A6107F10C07BD4680BC704700BFAA
:10D5440080B485B000AFF860B9607A60FB68BA68EF
:10D554001A60FB684FF001021A71FB687A689A60DE
:10D56400FB684FF00002DA60FB684FF000021A61BA
:10D5740007F11407BD4680BC704700BF80B586B074
:10D5840000AFF860B9607A60FB681B79012B02D0A8
:10D594004FF0000351E0FB68DB68DAB2BB681A7035
:10D5A4004FF001037B61FB68DB68002B12D1BB6881
:10D5B40003F10103FA689268D2B21A70BB6803F1EE
:10D5C4000203FA6892684FEA1222D2B21A704FF03C
:10D5D40003037B61FB689A68FB681B69D31A3B6190
:10D5E4007A687B69D21A3B699A4203D27A687B696A
:10D5F400D31A3B61FB681B68FA681169B8687A69D9
:10D604008218084611463A699847FB681A693B69CB
:10D61400D218FB681A61FB68DB6803F10102FB683E
:10D62400DA60FB689A68FB681B699A4203D1FB685D
:10D634004FF002021A714FF00103184607F1180760
:10D64400BD4680BD80B485B000AFF860B9607A6033
:10D654003B60FB68BA681A60FB687A685A60FB68CA
:10D664003A689A60FB68BA69DA60FB684FF00002B6
:10D674001A6107F11407BD4680BC704780B582B0BB
:10D6840000AF786039607B681A697B685B68D21880
:10D694007B68DB689A4202D94FF000031CE07B6888
:10D6A4009A687B681B69D2187B685B683868114686
:10D6B4001A46FFF763FF034683F00103DBB2002B36
:10D6C40007D17B681A697B685B68D2187B681A612A
:10D6D400D9E700BF4FF00103184607F10807BD461C
:10D6E40080BD00BF80B582B000AF786039607B68D0
:10D6F4001B69002B02D14FF000031FE07B689A687E
:10D704007B685B68386811461A460EF09BFD7B689F
:10D714001A697B685B68D21A7B681A617B689968AE
:10D724007B689A687B685B68D2187B681B690846CB
:10D7340011461A460EF086FD4FF00103184607F114
:10D744000807BD4680BD00BF80B400AFBFF34F8F54
:10D754004FF46D42CEF200024FF46D43CEF200035B
:10D76400DB6803F4E0614FF00403C0F2FA530B43A7
:10D77400D360BFF34F8FFEE780B500AF41F2342092
:10D78400C2F20000FFF7BEFE41F26C13C2F20003C6
:10D794004FF000021A6041F23023C2F200034FF04E
:10D7A40000021A604FF480304EF2B161C0F2000101
:10D7B40001F034FA80BD00BF80B586B000AFF860D8
:10D7C400B9607A6041F23023C2F200031B680F2B68
:10D7D40059D841F26C13C2F200031A687B68D2185C
:10D7E40040F257239A4250D841F23023C2F2000348
:10D7F4001A6813464FEA43039B184FEA830341F226
:10D804007012C2F200029B187B617B69FA681A608D
:10D8140041F26C13C2F200031A6840F61473C2F2A8
:10D824000003D2187B695A607B697A689A6041F276
:10D834006C13C2F200031A6840F61473C2F20003B8
:10D84400D3181846B9687A680EF0FCFC41F26C13E0
:10D85400C2F200031A687B68D21841F26C13C2F258
:10D8640000031A6041F23023C2F200031B6803F183
:10D87400010241F23023C2F200031A604FF48030F7
:10D8840001F014FA02E000BF00E000BF07F118073E
:10D89400BD4680BD80B584B000AFF860B9607A60E1
:10D8A400FA6841F24823C2F20003D318B868194653
:10D8B4007A680EF0C7FC07F11007BD4680BD00BFB3
:10D8C40080B582B000AF78600B46FB7041F27430D3
:10D8D400C2F2000041F24821C2F200014FF49672F4
:10D8E400FFF734FAFB7841F27430C2F200001946B3
:10D8F400FFF73AFB41F27433C2F20003184607F112
:10D904000807BD4680BD00BF80B584B000AF786015
:10D9140041F27433C2F200039B6841F23420C2F234
:10D9240000004DF69901C0F200011A46FFF708FE07
:10D93400786841F23421C2F20001FFF79FFE0346EA
:10D94400FB73FB7B83F00103DBB2002B0BD04CF6A3
:10D954006C50C0F201004FF066014CF6B452C0F2B4
:10D964000102FFF717FC07F11007BD4680BD00BF99
:10D9740080B58CB000AFF860B9607A6007F1140329
:10D984001846B9687A68FFF7E1F907F114031846F5
:10D99400FFF73AFA0346FB857A693B6AD318BB6200
:10D9A400F8684FF00101FFF78BFF7862FB8D786A0E
:10D9B4001946FFF7FDFAFB8D786AB96A1A46FFF734
:10D9C400B1FAF868FFF7A0FF07F13007BD4680BD44
:10D9D40080B483B000AF44F27F03C0F6E0737B6091
:10D9E4007B681B683B603B6803F00F030F2B0CBF85
:10D9F40000230123DBB2184607F10C07BD4680BCA7
:10DA0400704700BF80B582B000AFFFF7E1FF034667
:10DA140083F00103DBB2002B15D06FF00F037B60A2
:10DA2400FAF778FC08F028FD07F1040344F27F00BC
:10DA3400C0F6E07019464FF004020EF0F3FE08F051
:10DA44009FFDFAF76DFC07F10807BD4680BD00BFD6
:10DA540080B58EB000AFF860B9607A6007F1140346
:10DA64001846B9687A68FFF771F907F11403184684
:10DA7400FFF7E4F9786307F114031846FFF7C4F9D4
:10DA840003463B637A693B6AD318FB624FF07E63BB
:10DA9400BB623B6B03F1030323F003037B62FAF7DE
:10DAA40039FC08F0E9FCB86A0EF0B4FE7B6AB86A87
:10DAB400F96A1A460EF0B6FE08F062FDFAF730FC79
:10DAC4007B6B03F00103002B01D0FFF79BFF7B6B03
:10DAD40003F00203002B01D0FFF736FE07F13807ED
