:10800000081D002005820000178200001982000070
:108010001B8200001D8200001F8200000000000083
:1080200000000000000000000000000021820000AD
:10803000238200000000000025820000278200004B
:10804000BD4B01003DE600002D82000021F900003B
:1080500035F90000058B010035820000B58F000066
:10806000398200003B82000055930000A5E6000025
:108070004182000043820000910A010049F900009A
:1080800059F900004B8200004D8200004F82000031
:108090005182000053820000558200005782000088
:1080A000598200005B8200005D8200005F82000058
:1080B0006182000063820000859C000067820000EE
:1080C000698200006B8200006D8200006F820000F8
:0880D0007182000073820000C0
:1080D8002F49072291438D462E492F480A1A06D068
:1080E8000722914381F30988022282F314882B48DE
:1080F8002B492C4A00F039F82B482C492C4A00F01F
:1081080034F82C482C492D4A00F02FF82C482D49DA
:108118002D4A00F02AF82D482D492E4A00F025F85E
:108128002D482E492E4A00F020F82E482E490022CC
:1081380000F026F82D482E49091A082903DB0022E9
:108148000260043001601F481F49884205D0026858
:10815800043003B4904703BCF7E700208646EC469A
:1081680000200021234A9047FEE7884207D0521A90
:1081780005D0037801300B700131013AF9D170470D
:10818800884202D002700130FAE770471A487047F7
:10819800081D0020081D0020081D002018D001001F
:1081A800C4040020080500208482000084820000A6
:1081B800C0BC010054CC010000010020C404002010
:1081C800C0BC0100C0BC0100C0BC0100C0BC0100B3
:1081D800C0BC0100C0BC0100C0BC0100C0BC0100A3
:1081E80054CC0100080500200815002008150020BF
:1081F800081500204D890000FFFFFFFFDFF86CD055
:108208001B4880471B481C490160FFF761BFFEE718
:10821800FEE7FEE7FEE7FEE7FEE7FEE7FEE7FEE72E
:10822800FEE7FEE7FEE7FEE7FEE7FEE7FEE7FEE71E
:10823800FEE7FEE7FEE7FEE7FEE7FEE7FEE7FEE70E
:10824800FEE7FEE7FEE7FEE7FEE7FEE7FEE7FEE7FE
:10825800FEE7FEE7FEE7FEE7FEE7FEE7FEE7FEE7EE
:10826800FEE7FEE7FEE7FEE7FEE7FEE70080002008
:0C8278005D39010008ED00E0008000000E
:1082840080B400AF72B641F2B833C2F200031B6887
:10829400B3F1FF3F0BD041F2B833C2F200031B68C5
:1082A40003F1010241F2B833C2F200031A6041F251
:1082B400B833C2F200031B681846BD4680BC704741
:1082C40080B483B000AF41F2B833C2F200031B683C
:1082D400002B17D041F2B833C2F200031B6803F13C
:1082E400FF3241F2B833C2F200031A6041F2B833EC
:1082F400C2F200031B687B607B68002B00D162B66E
:108304007B6801E04FF00003184607F10C07BD46F7
:1083140080BC704780B500AFFFF7B2FF80BD00BFDF
:1083240080B500AFFFF7CCFF80BD00BF80B582B041
:1083340002AF4FF45240C0F202004FF001010BF0C3
:10834400A9FF4FF000004FF000014FF000024FF082
:1083540000030CF025FE4FF000004FF005014FF034
:1083640000024FF000030CF01BFE4FF000004FF032
:1083740006014FF000024FF000030CF011FE4FF025
:1083840002004FF002014FF000024FF000030CF026
:1083940007FE4FF002004FF003014FF000024FF0D0
:1083A40000030CF0FDFD4FF002004FF004014FF00C
:1083B40000024FF000030CF0F3FD4FF002004FF009
:1083C40005014FF000024FF000030CF0E9FD4FF0FF
:1083D40004004FF008014FF000024FF000030CF0CE
:1083E400DFFD4FF004004FF00D014FF000024FF09D
:1083F40000030CF0D5FD4FF004004FF00E014FF0D8
:1084040000024FF000030CF0CBFD4FF004004FF0DE
:108414000F014FF000024FF000030CF0C1FD4FF0CC
:1084240005004FF00C014FF000024FF000030CF078
:10843400B7FD4FF005004FF002014FF004024FF07A
:1084440000030CF0ADFD4FF003004FF006014FF0B8
:1084540001024FF000030CF0A3FD4FF002004FF0B7
:1084640001014FF004024FF001030CF099FD4FF0AD
:1084740002004FF000014FF004024FF001030CF032
:108484008FFD4FF004004FF009014FF004024FF04C
:1084940001030CF085FD4FF000004FF00F014FF089
:1084A40004024FF001030CF07BFD4FF000004FF08D
:1084B40008014FF004024FF000030CF071FD4FF07F
:1084C40002004FF006014FF004024FF000030CF0DD
:1084D40067FD4FF002004FF007014FF004024FF028
:1084E40000030CF05DFD4FF002004FF008014FF067
:1084F40002024FF000030CF053FD4FF000004FF068
:108504000A014FF002024FF000030CF049FD4FF056
:10851400010300934FF000004FF00A014FF00102F5
:108524004FF001030CF0C8FC4FF003004FF00801BA
:108534004FF004024FF001030CF032FD4FF0000045
:108544004FF004014FF001024FF000030CF028FD3E
:108554004FF0010300934FF000004FF004014FF07F
:1085640001024FF001030CF0A7FC4FF000004FF0A4
:1085740002014FF004024FF000030CF011FD4FF024
:1085840000004FF003014FF004024FF000030CF021
:1085940007FD4FF004004FF00B014FF001024FF0C4
:1085A40000030CF0FDFC4FF004004FF00A014FF003
:1085B40004024FF000030CF0F3FC4FF004004FF002
:1085C4000C014FF004024FF000030CF0E9FC4FF0F3
:1085D40005004FF000014FF000024FF000030CF0D3
:1085E400DFFC4FF005004FF001014FF000024FF0A7
:1085F40000030CF0D5FC4FF002004FF009014FF0DE
:1086040001024FF000030CF0CBFC4FF00103009388
:108614004FF002004FF009014FF001024FF0010347
:108624000CF04AFC4FF003004FF007014FF000023A
:108634004FF000030CF0B4FC4FF002004FF00A01BD
:108644004FF004024FF000030CF0AAFC4FF00200BC
:108654004FF00B014FF004024FF000030CF0A0FCAC
:108664004FF005004FF005014FF004024FF00003F6
:108674000CF096FC4FF005004FF00A014FF0010298
:108684004FF000030CF08CFC4FF005004FF00B0191
:108694004FF001024FF000030CF082FC4FF0030096
:1086A4004FF001014FF002024FF001030CF078FC8F
:1086B4004FF003004FF000014FF004024FF00103AC
:1086C4000CF06EFC4FF003004FF002014FF0040277
:1086D4004FF001030CF064FC4FF000004FF0010177
:1086E4004FF004024FF000030CF05AFC4FF003006B
:1086F4004FF005014FF004024FF000030CF050FC62
:108704004FF003004FF003014FF004024FF0010358
:108714000CF046FC4FF003004FF004014FF002024E
:108724004FF001030CF03CFC4FF0010300934FF0B9
:1087340003004FF004014FF001024FF001030CF06D
:10874400BBFB4FF000004FF009014FF004024FF063
:1087540000030CF025FC4FF001004FF00B014FF02B
:1087640004024FF000030CF01BFC4FF001004FF02B
:108774000C014FF004024FF000030CF011FCBD4655
:1087840080BD00BF01387FF4FDAF704780B582B073
:1087940000AF78607A684FF4D843C0F2DC2303FB5F
:1087A40002F249F68173C1F25E63A3FB02134FEA3E
:1087B40093431846FFF7E6FF07F10807BD4680BD5F
:1087C40080B582B000AF786003E04FF47A50FFF7D1
:1087D400D9FF7B68002B0CBF00230123DBB27A682E
:1087E40002F1FF327A60002BEFD107F10807BD4692
:1087F40080BD00BF80B483B000AF03463960FB7115
:108804004FF4C042C4F20002F9793B684FF0010012
:1088140000FA03F318460B464FEAC3035B184FEA0A
:108824008303D31803F11003586007F10C07BD4606
:1088340080BC704780B500AF06F08AF908F0E2F812
:1088440001F022FB00F058FB01F078F900F0CCFEB7
:1088540001F082F84FF0010006F048FF00F01AFD25
:108864004FF48043C4F20C034FF003021A6180BD3D
:1088740080B500AF00F042FD00F026FD4FF001008E
:1088840006F04EFF01F0F6FA00F03CFB01F060F94F
:1088940000F0BAFE06F046FC06F008F980BD00BF01
:1088A40080B500AF40F20853C2F200034FF001025A
:1088B4001A7040F20953C2F200034FF001021A7019
:1088C40003F0B4FC80BD00BF80B500AF40F2085394
:1088D400C2F200034FF000021A7040F20953C2F2D0
:1088E40000034FF000021A70FFF7C2FF03F0BCFC54
:1088F40080BD00BF80B582B000AF0346FB7140F27B
:108904000853C2F200031B78FA799A420BD0FB7920
:10891400012B02D1FFF7C4FF06E0FB79002B03D142
:10892400FFF7D2FF00E000BF07F10807BD4680BD96
:1089340080B400AF40F20853C2F200031B7818461B
:10894400BD4680BC704700BF80B584B000AF0AF05C
:1089540087FEFFF7EBFC4FF48640C0F204004FF0B3
:1089640001010BF097FC4BF6C042C0F2010207F183
:1089740004031068516803C3127A1A704FF00C0391
:108984003B7307F1040318460DF072FB40F20853E1
:10899400C2F200034FF000021A7040F20953C2F20F
:1089A40000034FF000021A7004F0FAFA05F074FDA7
:1089B4000AF096F904F0C2FD4FF002004FF00101F5
:1089C400FFF718FF4FF002004FF00001FFF712FF0E
:1089D4004FF004004FF00901FFF70CFF4FF00000C7
:1089E4004FF00F01FFF706FF01F03AF800F006FA26
:1089F40001F0BAF900F016FC00F080FC06F08CFBE4
:108A040006F090FB00F084FF06F0DCFC4FF0010060
:108A140006F00AFE4FF0010006F082FE00F084FD2D
:108A240000F0F2FD00F000FE02F0B4FE02F000FEE1
:108A34000AF0AEFC03F04EFC06F02EF907F082FBC0
:108A440007F0E2FC4FF0FF004FF0000107F0A0FD3B
:108A54004FF0000007F0DEFD4FF000004FF0000182
:108A64004FF0000207F0FAFD4FF000004FF0000154
:108A74004FF0000207F02EFE4FF000004FF000010F
:108A84004FF0000207F062FE4FF0000007F09AFE7C
:108A94004FF0FA00FFF794FE4FF0FF004FF0000193
:108AA40007F076FD4FF0FA00FFF78AFE4FF0000062
:108AB4004FF0FF0107F06CFD4FF0FA00FFF780FE66
:108AC4004FF000004FF0000107F062FD4FF0FF008F
:108AD40007F0A0FD4FF0FA00FFF772FE4FF0000020
:108AE40007F098FD4FF0FF004FF000014FF0000237
:108AF40007F0B4FD4FF0FA00FFF762FE4FF00000FC
:108B04004FF0FF014FF0000207F0A8FD4FF0FA000C
:108B1400FFF756FE4FF000004FF000014FF0FF0248
:108B240007F09CFD4FF0FA00FFF74AFE4FF00000FB
:108B34004FF000014FF0000207F090FD4FF0FF00EE
:108B44004FF000014FF0000207F0C4FD4FF0FA00AF
:108B5400FFF736FE4FF000004FF0FF014FF0000228
:108B640007F0B8FD4FF0FA00FFF72AFE4FF00000BF
:108B74004FF000014FF0FF0207F0ACFD4FF0FA0098
:108B8400FFF71EFE4FF000004FF000014FF000020F
:108B940007F0A0FD4FF0FF004FF000014FF000027E
:108BA40007F0D4FD4FF0FA00FFF70AFE4FF0000083
:108BB4004FF0FF014FF0000207F0C8FD4FF0FA003C
:108BC400FFF7FEFD4FF000004FF000014FF0FF02F1
:108BD40007F0BCFD4FF0FA00FFF7F2FD4FF0000084
:108BE4004FF000014FF0000207F0B0FD4FF0FF001E
:108BF40007F0E8FD4FF0FA00FFF7E2FD4FF0000048
:108C040007F0E0FD4FF0FA00FFF7DAFD06F024F874
:108C140005F0C4FA05F0CCFD05F01EFF05F046FF93
:108C240001F028F900E000BF05F054FD40F20953BB
:108C3400C2F200031B78002B0DD003F0EBFA0346BD
:108C4400002B08D040F20953C2F200034FF0000297
:108C54001A70FFF7EFFD40F20853C2F200031B78CD
:108C6400012BE0D14FF48043C4F20C039B6803F062
:108C74000303002BD7D04FF00000FFF73BFED2E7F1
:108C840080B483B000AF0346FB714FF46143CEF26E
:108C9400000397F907204FEA5212F97901F01F01F6
:108CA4004FF0010000FA01F143F8221007F10C071C
:108CB400BD4680BC704700BF80B483B000AF03469C
:108CC400FB714FF46143CEF2000397F907204FEA9A
:108CD4005212F97901F01F014FF0010000FA01F17D
:108CE40002F1600243F8221007F10C07BD4680BC74
:108CF400704700BF80B483B000AF78607B685B6A64
:108D0400184607F10C07BD4680BC704780B483B099
:108D140000AF786039607B683A681A6207F10C0723
:108D2400BD4680BC704700BF80B483B000AF78609C
:108D340039607B685A693B681A437B685A6107F15A
:108D44000C07BD4680BC704780B483B000AF786028
:108D54007B689B69184607F10C07BD4680BC7047C9
:108D640080B483B000AF78600B46FB70FA787B6800
:108D74005A6007F10C07BD4680BC704780B483B0CD
:108D840000AF03463960FB714FF4C042C4F20002E5
:108D9400F9793B684FF0010000FA03F318460B46DB
:108DA4004FEAC3035B184FEA8303D31803F110039C
:108DB400586007F10C07BD4680BC704780B483B08F
:108DC40000AF03463960FB714FF4C042C4F20002A5
:108DD400F9793B684FF0010000FA03F318460B469B
:108DE4004FEAC3035B184FEA8303D31803F110035C
:108DF400186007F10C07BD4680BC704780B500AF12
:108E04004FF000004FF0000100F0E0F84FF00100D7
:108E14004FF0000100F0DAF84FF002004FF00001CB
:108E240000F0D4F880BD00BF90B583B000AF48F225
:108E3400B213C0F6E0731B78FB7148F2BE13C0F6A0
:108E4400E0731B884FEA13139BB23B60FB7918460F
:108E540011F098FE044640F20C53C2F200031B6862
:108E64003A68D31A184611F08DFE0346184648F6A0
:108E74002821C3F6226111F09DFF034620461946BE
:108E840011F0FEFE0346184607F10C07BD4690BDDF
:108E940080B500AF40F21053C2F200031B681846BD
:108EA40011F088FE034618464DF29A51C3F68C2100
:108EB40011F080FF0346184680BD00BF80B500AFA7
:108EC40040F21453C2F200031B68184611F072FEFC
:108ED400034618464DF29A51C3F60C2111F06AFF6D
:108EE4000346184642F2C551C4F2832111F062FFD1
:108EF4000346184680BD00BF80B400AFBD4680BCA9
:108F0400704700BF80B400AFBD4680BC704700BF4F
:108F140080B582B000AF4FF40050C4F20000FFF7F8
:108F2400E9FE786040F21953C2F200031B78DBB209
:108F3400012B0AD0022B15D0002B1AD140F20C536E
:108F4400C2F200037A681A6013E04FF005004FF094
:108F54000201FFF713FF40F21053C2F200037A68D4
:108F64001A6006E040F21453C2F200037A681A60F1
:108F740000BF40F21853C2F200034FF001021A700E
:108F84004FF40050C4F200004FF00101FFF7BEFEA1
:108F94004FF00700FFF790FE4FF40070C0F203009B
:108FA4004FF000010BF076F907F10807BD4680BDCC
:108FB40080B500AFFFF7ACFF40F21C53C2F20003D0
:108FC4001B68184605F0F4FA80BD00BF80B588B070
:108FD40000AF02460B46FA71BB714FF40070C0F249
:108FE40003004FF001010BF055F94FF000033B76FD
:108FF4004FF000037B764FF00003BB764FF01F0366
:10900400FB764FF000033B774FF000037B774FF084
:1090140000000AF041FE0346FB764CF6C070C0F235
:109024006A004FF000010AF0FBFD03463B774FF066
:1090340000033B734FF000037B734FF00003BB73DB
:109044004FF00003FB734FF000033B744FF0000339
:109054007B744FF00003BB744FF00003FB744FF0BC
:1090640000033B754FF00203BB734FF008037B739F
:10907400FB79012B11D0022B20D0002B29D14FF0EA
:109084000003BB734FF008033B7440F21C53C2F25D
:1090940000034FF020021A601BE04FF005004FF070
:1090A4000201FFF78BFE4FF006033B7440F21C53A2
:1090B400C2F200034FF040021A600AE04FF00703C7
:1090C4003B7440F21C53C2F200034FF080021A605A
:1090D40000BF07F118034FF40050C4F20000194612
:1090E4000AF01AFD07F10C034FF40050C4F200001B
:1090F40019460AF045FD4FF40050C4F200004FF049
:109104000101FFF711FEBB79002B03D04FF00700DC
:10911400FFF7B6FD40F21953C2F20003FA791A7050
:1091240040F21853C2F200034FF000021A704FF4D9
:109134000050C4F200004FF00101FFF711FEBB79AB
:1091440083F00103DBB2002B0DD000BF4FF40050BD
:10915400C4F20000FFF7F8FD034603F00103002BFF
:10916400F4D0FFF7D5FE07F12007BD4680BD00BF50
:1091740080B483B000AF0346FB714FF46143CEF279
:10918400000397F907204FEA5212F97901F01F0101
:109194004FF0010000FA01F143F8221007F10C0727
:1091A400BD4680BC704700BF80B483B000AF0346A7
:1091B400FB714FF46143CEF2000397F907204FEAA5
:1091C4005212F97901F01F014FF0010000FA01F188
:1091D40002F1600243F8221007F10C07BD4680BC7F
:1091E400704700BF80B483B000AF03463960FB71A1
:1091F4004FF4C042C4F20002F9793B684FF0010019
:1092040000FA03F318460B464FEAC3035B184FEA10
:109214008303D31803F11003186007F10C07BD464C
:1092240080BC704790B585B000AF4FF44240C0F2A7
:1092340002004FF001010BF02DF84BF6CC43C0F2C5
:1092440001033C460FCB84E80F004FF4D843C0F22F
:10925400DC237B6046F63C53C0F20103BB603B4613
:109264004FF42440C4F2000019460BF0EBFF4FF416
:109274002443C4F2000340F203129A634FF42440DF
:10928400C4F200004FF001010BF0CAFF07F114070C
:10929400BD4690BD80B500AF4FF42443C4F2000333
:1092A4004FF000029A634FF42440C4F200004FF0E0
:1092B40000010BF0B5FF4FF44240C0F202004FF042
:1092C40000010AF0E7FF80BD80B500AF4FF44240D3
:1092D400C0F202004FF001010AF0DCFF4FF4244316
:1092E400C4F2000340F203129A634FF42440C4F220
:1092F40000004FF001010BF093FF80BD80B500AF7B
:109304004FF001004FF00B014FF008024FF0010342
:109314000BF046FE4FF001004FF00C014FF0080235
:109324004FF001030BF03CFE4FF000004FF0090139
:10933400FFF758FF4FF06400FFF742FA4FF00A00BE
:10934400FFF732FF4FF00A00FFF712FF80BD00BFA6
:1093540080B500AF4FF42440C4F200000BF0A2FF2C
:1093640003461A4640F22053C2F200031A7080BD2D
:1093740080B584B000AF78604FF42440C4F200009C
:1093840079680CF0DDF903461A4640F22053C2F224
:1093940000031A704FF00003FB6018E04FF4244000
:1093A400C4F200000BF07EFF03461A4640F220533D
:1093B400C2F200031A7040F22053C2F200031B7879
:1093C4005BB2012B09D1FB6803F10103FB60FA686E
:1093D40042F20F739A42E1D900E000BF40F22053F9
:1093E400C2F200031B78002B08D04BF6DC40C0F21D
:1093F400010003F0F9FD4FF0000301E04FF0010319
:10940400184607F11007BD4680BD00BF80B588B07F
:1094140000AF0B463A600246FA71BB71FB799BB20E
:10942400BB814FF00403FB8107F106033B614FF05E
:109434000103BB823B68BB614FF00103BB8307F1AF
:109444000C031846FFF794FF0346184607F120075C
:10945400BD4680BD80B588B000AF13460246FA71A0
:109464000A46BA717B71FB799BB2BB814FF008034A
:10947400FB8107F106033B614FF00103BB8207F157
:109484000503BB614FF00103BB8307F10C031846CE
:10949400FFF76EFF0346184607F12007BD4680BD5F
:1094A40080B586B002AF4FF480304FF0AF0106F0C4
:1094B40011FC0346BB73BB7B03F01F03FB7323E068
:1094C4004FF0E8033B7307F10C0207F104034FF07C
:1094D400060100914FF4803011464FF0010206F06E
:1094E400AFFB40F22453C2F200031B68002B0BD0E5
:1094F40040F22453C2F200031B68B888F9883A8901
:1095040000B209B212B29847FB7B002B0CBF0023B8
:109514000123DBB2FA7B02F1FF32FA73002BCFD1C5
:1095240007F11007BD4680BD80B582B000AF40F2A0
:109534002453C2F200034FF000021A604FF480304B
:109544004FF08F0106F0C6FB0346FB71FB79332B0A
:1095540006D04BF62450C0F2010003F045FD2FE085
:109564004FF480304FF023014FF0880206F01AFBCD
:109574004FF480304FF02E014FF0000206F012FB42
:109584004FF480304FF02E014FF0900206F00AFBAA
:109594004FF480304FF022014FF0060206F002FB38
:1095A4004FF480304FF024014FF0400206F0FAFAF5
:1095B4004FF0040049F2A541C0F2000104F0C6FFD7
:1095C40007F10807BD4680BD80B483B000AF786062
:1095D40040F22453C2F200037A681A6007F10C07C0
:1095E400BD4680BC704700BF80B500AF4FF004009B
:1095F40004F0F4FF4FF480304FF020014FF00002EC
:1096040006F0D0FA80BD00BF80B500AF4FF0040073
:1096140004F0FAFF4FF480304FF020014FF03F0286
:1096240006F0C0FA80BD00BF80B483B000AF40F242
:109634002853C2F200034FF000021A6040F22C5388
:10964400C2F200034FF000021A6040F25053C2F21B
:1096540000034FF000021A604FF000037B600CE03F
:1096640040F23053C2F200037A689B184FF00002B4
:109674001A707B6803F101037B607B681F2BEFDDAD
:1096840007F10C07BD4680BC704700BF80B400AF33
:1096940040F22853C2F200031B68002B0CBF0023C6
:1096A4000123DBB21846BD4680BC704780B582B04A
:1096B40000AF786040F22853C2F200037A681A605F
:1096C40002F058F807F10807BD4680BD80B582B0A6
:1096D40000AF786040F22853C2F200031A687B6836
:1096E400D21840F22853C2F200031A6040F2285301
:1096F400C2F200031B68012B08D902F031F840F2D2
:109704002853C2F200034FF001021A6002F032F84B
:1097140007F10807BD4680BD80B582B000AF786010
:1097240040F22853C2F200031B687A689A4209D9AE
:1097340002F016F840F22853C2F200034FF0000280
:109744001A600DE040F22853C2F200031A687B68E5
:10975400D21A40F22853C2F200031A6002F00AF847
:1097640007F10807BD4680BD80B400AF40F22C531A
:10977400C2F200031B68002B0CBF00230123DBB2E1
:109784001846BD4680BC704780B582B000AF786093
:1097940040F22C53C2F200037A681A6001F0F2FF1F
:1097A40007F10807BD4680BD80B582B000AF786080
:1097B40040F22C53C2F200031A687B68D21840F2BC
:1097C4002C53C2F200031A6040F22C53C2F200037D
:1097D4001B68022B08D901F0C3FF40F22C53C2F2DC
:1097E40000034FF002021A6001F0CCFF07F10807F2
:1097F400BD4680BD80B582B000AF786040F22C5386
:10980400C2F200031B687A689A4209D901F0A8FFE2
:1098140040F22C53C2F200034FF000021A600DE034
:1098240040F22C53C2F200031A687B68D21A40F249
:109834002C53C2F200031A6001F0A4FF07F10807D9
:10984400BD4680BD80B400AF40F25053C2F2000365
:109854004FF000021A60BD4680BC704780B582B0EC
:1098640000AF7860396040F25053C2F200031A68C6
:109874003B68D318202B02D901F072FF1AE040F2A2
:109884005053C2F200031A6840F23053C2F200038C
:10989400D318184679683A6812F044F940F25053E4
:1098A400C2F200031A683B68D21840F25053C2F265
:1098B40000031A6007F10807BD4680BD80B582B079
:1098C40000AF78603960FFF7BDFF78683968FFF74B
:1098D400C5FF01F0D1FF07F10807BD4680BD00BFF9
:1098E40080B584B000AFF860B9607A603B60FFF780
:1098F400A9FFF868B968FFF7B1FF78683968FFF71E
:10990400ADFF01F0B9FF07F11007BD4680BD00BFF0
:1099140080B582B000AF07F106034FF01C004FF092
:1099240007011A46FFF772FD0346FB71FB7983F0CA
:109934000103DBB2002B0BD1BB79C42B06D04BF651
:109944007050C0F2010003F04FFB01E000F004F896
:1099540007F10807BD4680BD80B582B000AF4FF067
:109964001C004FF011014FF00002FFF773FD034696
:10997400FB71FB7983F00103DBB2002B06D04BF6BD
:10998400BC50C0F2010003F02FFB16E04FF01C00A6
:109994004FF010014FF00002FFF75CFD0346FB712E
:1099A400FB7983F00103DBB2002B06D04BF6086091
:1099B400C0F2010003F018FB00BF07F10807BD4621
:1099C40080BD00BF80B483B000AF0346FB714FF489
:1099D4006143CEF2000397F907204FEA5212F97956
:1099E40001F01F014FF0010000FA01F143F82210C9
:1099F40007F10C07BD4680BC704700BF80B400AFC0
:109A04004FF00003C4F208035B681846BD4680BCEF
:109A1400704700BF80B483B000AF78604FF000039C
:109A2400C4F208037A689A6107F10C07BD4680BC4A
:109A3400704700BF80B483B000AF78604FF000037C
:109A4400C4F208034FF00002C4F20802D1697A6834
:109A54000A43DA6107F10C07BD4680BC704700BFBA
:109A640080B582B000AF40F25453C2F200034FF00D
:109A740000021A604FF48640C0F204004FF0010166
:109A84000AF008FC4FF000004FF001014FF0010212
:109A94000BF01EF84FF00200C0F206004FF0020176
:109AA4000AF050FE4FF00300C0F212004FF0020122
:109AB4000AF048FE41F23040C0F208004FF00101C4
:109AC4000AF0E8FB4FF48640C0F204004FF00101B5
:109AD4000AF0E0FB4FF40043C4F20C034FF40042DD
:109AE400C4F20C02126822F0607242F400021A609E
:109AF4004FF40043C4F20C034FF00202C3F8802079
:109B040000F026F84FF00200FFF794FF4FF01E001C
:109B1400FFF758FF4BF6EC63C0F2010307F10402B0
:109B240019889B781180937007F1040318460CF090
:109B340063F807F10807BD4680BD00BF80B500AFDC
:109B44004FF000004FF6FF710CF022F880BD00BF0B
:109B540080B500AF4FF0000040F2FF310CF018F870
:109B64000CF074F880BD00BF80B582B000AF3B46F6
:109B740083E80300FEF7CEFB4FF000533A685A60C7
:109B84004FF0005279684DF68363C4F21B33A3FB94
:109B940001034FEA533347F6122101FB03F39360A9
:109BA400FEF7BEFB07F10807BD4680BD80B584B053
:109BB40000AF7860FEF7AEFB4FF000539B68FB608C
:109BC4004FF000535B68BB60FEF7AAFB7B6807F1AC
:109BD400080292E8030083E80300786807F110079D
:109BE400BD4680BD80B586B000AF786000E000BFA0
:109BF4004FF000539B68FB604FF000535B68BB6001
:109C0400FFF7FCFE78614FF000539B683B61FA68F4
:109C14003B699A42EBD100BFFA687B6947F612218F
:109C240001FB03F34FEA9323D318FB607B6807F12E
:109C3400080292E8030083E80300786807F1180734
:109C4400BD4680BD80B582B000AF7860FEF762FB90
:109C540040F25453C2F200037A681A60FEF760FBC4
:109C640007F10807BD4680BD80B400AF40F25453ED
:109C7400C2F200031B681846BD4680BC704700BF93
:109C840080B582B000AF4FF00200FFF7C3FE4FF083
:109C94000003C4F208039A6840F2FF339A4239D1B0
:109CA4004FF000539B6803F5F44303F112037B6008
:109CB4007A6844F23F23C0F20F039A420BD97B68BF
:109CC400A3F57423A3F510737B604FF000535A6817
:109CD40002F101025A604FF000537A689A6040F230
:109CE4005453C2F200031B68002B1BD040F25453A0
:109CF400C2F200031B6803F1FF331A4640F25453C7
:109D0400C2F200031A60002A0CD14FF4807004F0F0
:109D14004FFC07E04FF000534FF00052526802F13D
:109D240002025A6007F10807BD4680BD90B400AF37
:109D340048F2B013C0F6E0735C6C22464FF00003A7
:109D440011464FF0000048F2B013C0F6E0731C6CEB
:109D540022464FF0000342EA000243EA01031046A0
:109D64001946BD4690BC704780B584B000AF40F240
:109D74005863C2F200034FF000021A7040F2CC7034
:109D8400C2F2000040F2A061C2F200014FF49672E8
:109D940003F092F940F62400C2F200004FF04001B3
:109DA40040F63402C2F200024FF4967303F02EFB25
:109DB40049F6D970C0F2000004F09EFB4FF4006035
:109DC4004AF21511C0F2000104F0C0FBFFF7AEFF28
:109DD400C7E902014FF000037B602BE03B7A03F0FC
:109DE4000F03FB70FB78092B04D8FB7803F13003D5
:109DF400FB7003E0FB7803F13703FB70FB7899B247
:109E040040F2C442C2F200027B684FEA4303D31813
:109E14000A465A80FB684FEA0373BA684FEA121283
:109E24001343BB60FB684FEA1313FB607B6803F1C9
:109E340001037B607B680F2BD0D907F11007BD4667
:109E440080BD00BF80B500AF0CF04AFD0346002B77
:109E54000CBF00230123DBB2184680BD80B500AFE0
:109E64000CF03EFD0346052B14BF00230123DBB297
:109E7400184680BD80B500AF4BF6C070C0F201003B
:109E84000CF03AFD80BD00BF80B500AF0DF0C0F806
:109E940080BD00BF80B483B000AF0346FB7140F2C5
:109EA4005863C2F200031A78114640F25853C2F2C2
:109EB4000003F879585402F10103DAB240F258630E
:109EC400C2F200031A704FF00003184607F10C07A2
:109ED400BD4680BC704700BF80B588B000AF7860D5
:109EE4006FF00203FB617B681B7803F06003DBB255
:109EF400002B66D17B681B7823F07F03DBB2002B39
:109F04005FD07B681B7803F01F03DBB2012B58D1B1
:109F14007B685B78062B54D17B685B889BB24FEAE5
:109F240013239BB2222B1DD14FF02003BB617B680E
:109F34009A79DB794FEA03231343FB82FA8ABB69DC
:109F44009A4238BF13464FF000004BF60471C0F23A
:109F540001011A464FF000030DF078F84FF00003AA
:109F6400FB612DE07B685B889BB24FEA13239BB2B5
:109F7400212B25D140F66010C2F2000014494FF0A5
:109F8400090211F0CFFD4FF009033B617B689A7918
:109F9400DB794FEA03231343FB81FA893B699A4235
:109FA400B8BF13464FF0000040F66011C2F2000142
:109FB4001A464FF000030DF049F84FF00003FB611F
:109FC40000BFFB69184607F12007BD4680BD00BFEE
:109FD40036BF010080B500AF0CF0C0FF0346184641
:109FE40080BD00BF80B582B000AF02460B46FA7157
:109FF400BB71BB79052B05D140F2CC70C2F20000D5
:10A0040003F07CF84FF4406004F0D2FA07F108073B
:10A01400BD4680BD80B584B000AF0346B9607A60A8
:10A02400FB734FF4006004F0C3FA97F90F30002B70
:10A034000ED04BF6DC70C0F2010002F0D5FF40F206
:10A04400CC70C2F2000003F059F84FF0000347E06F
:10A0540040F2CC70C2F2000040F26061C2F2000132
:10A06400BA6803F0F5F840F2CC70C2F2000003F0D5
:10A074005FF80346032B31D801A252F823F000BF46
:10A08400E1A00000E1A0000095A00000C7A000002E
:10A0940040F2CC73C2F200031A6840F2CC73C2F2ED
:10A0A4000003DB6840F62400C2F2000011461A46A1
:10A0B40003F0B6FF40F2CC70C2F2000003F01EF8C9
:10A0C4000CE04BF6DC70C0F2010002F08DFF40F2B0
:10A0D400CC70C2F2000003F011F800BF4FF000038F
:10A0E400184607F11007BD4680BD00BF80B584B097
:10A0F40000AF0346B9607A60FB734FF4006004F06C
:10A1040057FA4FF00003184607F11007BD4680BD0B
:10A1140080B582B000AF0CF0E3FB0346052B57D1AA
:10A124004FF001000CF0B6FB034683F00103DBB2F1
:10A13400002B1ED04FF0010040F26061C2F200011A
:10A144004FF040024AF21903C0F200030CF058FE2B
:10A1540078607B68002B10D040F25C63C2F200038D
:10A164001B6803F1010240F25C63C2F200031A604F
:10A1740003E04FF4006004F01BFA4FF081000CF090
:10A1840089FB034683F00103DBB2002B1BD040F6AE
:10A194002400C2F2000040F2E471C2F2000103F0B4
:10A1A40083F90346002B14D04FF0810040F2E47190
:10A1B400C2F200014FF040024AF2F103C0F2000380
:10A1C4000CF044FF05E04FF4006004F0F1F900E006
:10A1D40000BF07F10807BD4680BD00BF80B584B04D
:10A1E40000AF0346B9607A60FB73FB7B184600F04E
:10A1F4001DFE07F11007BD4680BD00BF80B586B0C7
:10A2040000AF0346B9607A60FB73FB7B002B04D07C
:10A21400FB7B184600F016FE21E07B68022B02D07F
:10A2240001F09EFA1BE0BB681B784FEA03239AB245
:10A23400BB6803F101031B7813439BB2FB82FB8AC7
:10A244001BB2002B07DBFB8A03F00103002B02D0B7
:10A2540000F004FE03E0FB8A184601F08BFF07F1CF
:10A264001807BD4680BD00BF80B584B000AF03466B
:10A27400B9607A60FB73FB7B002B04D0FB7B184630
:10A2840000F0F2FD01E000F0FBFD07F11007BD4610
:10A2940080BD00BF80B584B000AF0346B9607A606A
:10A2A400FB73FB7B012B02D0022B03D005E001F0F2
:10A2B400D9FD07E001F00EFE04E0FB7B184600F038
:10A2C400E5FD00BF07F11007BD4680BD80B588B02D
:10A2D40000AF0346B9607A60FB73FB7B012B02D0AD
:10A2E400022B12D014E0BB681B78FB77BB6803F128
:10A2F4000103BB617B6803F1FF337B61FB7F18467D
:10A30400B9697A6900F0DAFD07E000F0E3FD04E0E2
:10A31400FB7B184600F0C6FD00BF07F12007BD46D1
:10A3240080BD00BF80B584B000AF0346B9607A60D9
:10A33400FB73FB7B012B02D0022B03D005E000F062
:10A34400DBFD07E000F0DEFD04E0FB7B184600F0D7
:10A35400C7FD00BF07F11007BD4680BD80B58AB0B8
:10A3640002AF0346B9607A60FB73FB7B002B04D019
:10A37400FB7B184600F0CCFD1FE0B86802F00EFB32
:10A384000346FB83BB689B787B77BB68DB783B77B2
:10A39400BB6803F10403184602F016FBB861BB68FE
:10A3A4001B7AFB75F98B7A7F3B7FF87D009008461A
:10A3B40011461A46BB6900F0B7FD07F12007BD46F8
:10A3C40080BD00BF80B586B000AF0346B9607A6037
:10A3D400FB73FB7B002B04D0FB7B184600F0B4FD21
:10A3E40009E0BB687B61BB689B79FB74FB7C786983
:10A3F400194600F0B5FD07F11807BD4680BD00BF42
:10A4040080B586B000AF0346B9607A60FB73FB7B0E
:10A41400002B04D0FB7B184600F0AEFD15E0B868B5
:10A4240002F0BCFA0346FB82FB8A184610F0AAFB32
:10A434000346184644F2AE71C4F2610110F0BAFC4E
:10A4440003463B61386900F0A3FD07F11807BD46D8
:10A4540080BD00BF80B586B000AF0346B9607A60A6
:10A46400FB73FB7B002B04D0FB7B184600F09AFDAA
:10A4740014E0B86802F092FA0346FB82B7F916308A
:10A48400184610F07FFB034618464FF07A5110F03F
:10A4940091FC03463B61386900F090FD07F1180711
:10A4A400BD4680BD80B584B000AF0346B9607A6014
:10A4B400FB73FB7B002B04D0FB7B184600F088FD6C
:10A4C40001E000F091FD07F11007BD4680BD00BF1B
:10A4D40080B584B000AF0346B9607A60FB73FB7B40
:10A4E400002B04D0FB7B184600F084FD01E000F053
:10A4F4008DFD07F11007BD4680BD00BF80B584B057
:10A5040000AF0346B9607A60FB73FB7B002B04D079
:10A51400FB7B184600F080FD01E000F089FD07F1A7
:10A524001007BD4680BD00BF80B584B000AF0346B0
:10A53400B9607A60FB73FB7B002B04D0FB7B18466D
:10A5440000F07CFD01E000F085FD07F11007BD4639
:10A5540080BD00BF80B584B000AF0346B9607A60A7
:10A56400FB73FB7B002B04D0FB7B184600F078FDCB
:10A5740001E000F081FD07F11007BD4680BD00BF7A
:10A5840080B584B000AF0346B9607A60FB73FB7B8F
:10A59400002B04D0FB7B184600F074FD01E000F0B2
:10A5A4007DFD07F11007BD4680BD00BF80B584B0B6
:10A5B40000AF0346B9607A60FB73FB7B002B04D0C9
:10A5C400FB7B184600F070FD01E000F079FD07F117
:10A5D4001007BD4680BD00BF80B584B000AF034600
:10A5E400B9607A60FB73FB7B002B04D0FB7B1846BD
:10A5F40000F06CFD01E000F075FD07F11007BD46A9
:10A6040080BD00BF80B584B000AF0346B9607A60F6
:10A61400FB73FB7B002B04D0FB7B184600F068FD2A
:10A6240001E000F071FD07F11007BD4680BD00BFD9
:10A6340080B584B000AF0346B9607A60FB73FB7BDE
:10A64400002B04D0FB7B184600F064FD01E000F011
:10A654006DFD07F11007BD4680BD00BF80B584B015
:10A6640000AF0346B9607A60FB73FB7B002B04D018
:10A67400FB7B184600F060FD01E000F069FD07F186
:10A684001007BD4680BD00BF80B584B000AF03464F
:10A69400B9607A60FB73FB7B002B04D0FB7B18460C
:10A6A40000F05CFD01E000F065FD07F11007BD4618
:10A6B40080BD00BF80B584B000AF0346B9607A6046
:10A6C400FB73FB7B002B04D0FB7B184600F058FD8A
:10A6D40001E000F061FD07F11007BD4680BD00BF39
:10A6E40080B584B000AF0346B9607A60FB73FB7B2E
:10A6F400002B04D0FB7B184600F054FD01E000F071
:10A704005DFD07F11007BD4680BD00BF80B584B074
:10A7140000AF0346B9607A60FB73FB7B002B04D067
:10A72400FB7B184600F050FD01E000F059FD07F1F5
:10A734001007BD4680BD00BF80B584B000AFBA60CD
:10A744007B600346FB730B46BB73FB7B052B03D07B
:10A754004FF00100FEF7BAFFFB7B03F1FF331E2B22
:10A7640000F2F18001A252F823F000BFEDA700002F
:10A774004BA90000FBA700004BA9000009A800009A
:10A7840017A8000025A8000033A8000041A8000075
:10A794004FA800005DA800006BA800003DA90000C0
:10A7A40079A8000087A8000095A80000A3A80000CD
:10A7B400B1A80000BFA80000CDA800004BA900006C
:10A7C4004BA900004BA900004BA90000DBA8000026
:10A7D400E9A80000F7A8000005A9000013A90000DB
:10A7E40021A900002FA90000BB7B1846B9687A682C
:10A7F400FFF7F4FCAAE0BB7B1846B9687A68FFF758
:10A80400FDFCA3E0BB7B1846B9687A68FFF72CFD12
:10A814009CE0BB7B1846B9687A68FFF73BFD95E07E
:10A82400BB7B1846B9687A68FFF750FD8EE0BB7BA6
:10A834001846B9687A68FFF775FD87E0BB7B184650
:10A84400B9687A68FFF78AFD80E0BB7B1846B9686F
:10A854007A68FFF7B7FD79E0BB7B1846B9687A6878
:10A86400FFF7CEFD72E0BB7B1846B9687A68FFF744
:10A87400F1FD6BE0BB7B1846B9687A68FFF712FEFE
:10A8840064E0BB7B1846B9687A68FFF721FE5DE097
:10A89400BB7B1846B9687A68FFF730FE56E0BB7B8D
:10A8A4001846B9687A68FFF73FFE4FE0BB7B18464D
:10A8B400B9687A68FFF74EFE48E0BB7B1846B96872
:10A8C4007A68FFF75DFE41E0BB7B1846B9687A6899
:10A8D400FFF76CFE3AE0BB7B1846B9687A68FFF76D
:10A8E4007BFE33E0BB7B1846B9687A68FFF78AFEC3
:10A8F4002CE0BB7B1846B9687A68FFF799FE25E01F
:10A90400BB7B1846B9687A68FFF7A8FE1EE0BB7BDC
:10A914001846B9687A68FFF7B7FE17E0BB7B18469C
:10A92400B9687A68FFF7C6FE10E0BB7B1846B968C1
:10A934007A68FFF7D5FE09E0BB7B1846B9687A68E8
:10A94400FFF7E4FE02E000F00BFF00BF07F1100781
:10A95400BD4680BD80B584B000AF786039603B6887
:10A96400042B02D000F0FCFE10E07B685B78FB73E4
:10A974007B689B78BB737B68DB787B73F97BBA7BE2
:10A984007B7B084611461A4601F01AFA07F11007B4
:10A99400BD4680BD80B582B000AF786039607B6809
:10A9A40003F101023B6803F1FF331046194600F03E
:10A9B4001DFC07F10807BD4680BD00BF80B584B00B
:10A9C40000AF786039607B6803F10103184601F039
:10A9D400E5FF0346FB817B6803F10303BB60FB894E
:10A9E4001846B96800F00CFC07F11007BD4680BD9D
:10A9F40080B586B000AF786039603B68022B02D81E
:10AA040000F0AEFE15E07B685B78FB757B689B7895
:10AA1400BB757B6803F103033B613B68A3F103034C
:10AA2400FB60FA7DBB7D104619463A69FB68FFF767
:10AA340083FE07F11807BD4680BD00BF80B588B00E
:10AA440002AF786039603B680F2B02D000F088FEBB
:10AA54002CE07B685B78FB757B6803F102033B6148
:10AA64007B6803F10803184601F098FF0346FB8155
:10AA74007B6803F10A03184601F090FF0346BB818B
:10AA84007B6803F10C03184601F088FF03467B81C1
:10AA94007B689B7B7B72F97DFA89BB8978890090FE
:10AAA400787A01900846396901F022FA07F118070B
:10AAB400BD4680BD80B584B000AF786039603B6826
:10AAC400032B02D000F04CFE0BE07B685B78FB7339
:10AAD4007B689B78BB73FA7BBB7B1046194601F0FD
:10AAE40031FA07F11007BD4680BD00BF90B587B0AD
:10AAF40002AF786039603B68072B02D000F030FE6B
:10AB04001BE07B685B78FB737B689B78BB737B681B
:10AB1400DB787B737B681B793B737B685B79FB72A7
:10AB24007B689B79BB72F87BB97B7A7B3B7BFC7A35
:10AB34000094BC7A019400F06FFB07F11407BD4642
:10AB440090BD00BF80B586B000AF786039603B68C7
:10AB5400112B02D000F004FE15E07B6803F1010321
:10AB6400184601F053FFC7E904017B6803F10903A8
:10AB7400184601F04BFFC7E90201D7E90401D7E900
:10AB8400022301F051FA07F11807BD4680BD00BF4A
:10AB940080B584B000AF786039603B68072B02D081
:10ABA40000F0DEFD1FE07B6803F10103184601F0AD
:10ABB400F5FE0346FB817B6803F10303184601F0AD
:10ABC400EDFE0346BB817B6803F10503184601F0E3
:10ABD400E5FE03467B81F989BA897B8908461146DB
:10ABE4001A4600F025FB07F11007BD4680BD00BFE3
:10ABF40080B584B000AF786039603B68072B02D021
:10AC040000F0AEFD06E07B6803F10103FB60F86829
:10AC140000F01CFB07F11007BD4680BD80B584B071
:10AC240000AF786039603B68022B02D000F098FDD9
:10AC340006E07B685B78FB73FB7B184600F010FB37
:10AC440007F11007BD4680BD80B584B000AF7860C1
:10AC540039603B68022B02D000F082FD06E07B687D
:10AC64005B78FB73FB7B184601F0D0F907F1100702
:10AC7400BD4680BD80B586B000AF786039603B6862
:10AC8400022B02D800F06CFD15E07B685B78FB7545
:10AC94007B689B78BB757B6803F103033B613B686E
:10ACA400A3F10303FB60FA7DBB7D104619463A69A4
:10ACB400FB6801F0C9F807F11807BD4680BD00BF65
:10ACC40080B586B000AF786039603B68012B02D84C
:10ACD40000F046FD10E07B685B78FB757B6803F150
:10ACE40002033B613B68A3F10203FB60FB7D184652
:10ACF4003969FA6801F018FA07F11807BD4680BDF2
:10AD040080B584B000AF786039603B68022B02D014
:10AD140000F026FD06E07B685B78FB73FB7B18463E
:10AD240000F0A8FA07F11007BD4680BD80B584B0D5
:10AD340000AF786039607B681B78FB73FB7BA3F101
:10AD440081030E2B6BD801A252F823F08DAD0000C5
:10AD540097AD0000A1AD0000ABAD0000B5AD0000A3
:10AD6400BFAD0000C9AD0000D3AD0000DDAD0000F3
:10AD7400FBAD000019AE00000FAE000005AE0000F0
:10AD8400E7AD0000F1AD000078683968FFF7E2FD37
:10AD940048E078683968FFF7FDFD43E07868396872
:10ADA400FFF70CFE3EE078683968FFF721FE39E0D2
:10ADB40078683968FFF742FE34E078683968FFF74D
:10ADC40079FE2FE078683968FFF790FE2AE078680A
:10ADD4003968FFF7B7FE25E078683968FFF7D8FED1
:10ADE40020E078683968FFF703FF1BE0786839686A
:10ADF400FFF714FF16E078683968FFF725FF11E0C4
:10AE040078683968FFF736FF0CE078683968FFF72F
:10AE140057FF07E078683968FFF772FF02E000F037
:10AE24009FFC00BF07F11007BD4680BD80B582B00E
:10AE340000AF0346FB7100F093FC07F10807BD4621
:10AE440080BD00BF80B582B000AF0346FB7100F047
:10AE540087FC07F10807BD4680BD00BF80B500AF81
:10AE640000F07EFC80BD00BF80B582B000AF034619
:10AE7400FB7100F075FC07F10807BD4680BD00BFFB
:10AE840080B400AFBD4680BC704700BF80B582B0BF
:10AE940000AF0346FB7100F063FC07F10807BD46F1
:10AEA40080BD00BF80B582B000AF0346FB7100F0E7
:10AEB40057FC07F10807BD4680BD00BF80B485B0CC
:10AEC40000AFF860B9607A6007F11407BD4680BC32
:10AED400704700BF80B400AFBD4680BC704700BF60
:10AEE40080B582B000AF0346FB7100F039FC07F176
:10AEF4000807BD4680BD00BF80B400AFBD4680BC1E
:10AF0400704700BF80B400AFBD4680BC704700BF2F
:10AF140080B582B000AF0346FB7100F021FC07F15D
:10AF24000807BD4680BD00BF80B483B000AF3B605E
:10AF34000346FB800B467B7113463B7107F10C07FC
:10AF4400BD4680BC704700BF80B582B000AF0346E9
:10AF5400FB7100F005FC07F10807BD4680BD00BF8A
:10AF640080B483B000AF78600B46FB7007F10C0728
:10AF7400BD4680BC704700BF80B582B000AF0346B9
:10AF8400FB7100F0EDFB07F10807BD4680BD00BF73
:10AF940080B483B000AF786007F10C07BD4680BC75
:10AFA400704700BF80B582B000AF0346FB7100F06C
:10AFB400D7FB07F10807BD4680BD00BF80B483B04E
:10AFC40000AF786007F10C07BD4680BC704700BF36
:10AFD40080B582B000AF0346FB7100F0C1FB07F1FE
:10AFE4000807BD4680BD00BF80B400AFBD4680BC2D
:10AFF400704700BF80B582B000AF0346FB7100F01C
:10B00400AFFB07F10807BD4680BD00BF80B400AFA9
:10B01400BD4680BC704700BF80B582B000AF034618
:10B02400FB7100F09DFB07F10807BD4680BD00BF22
:10B0340080B400AFBD4680BC704700BF80B582B00D
:10B0440000AF0346FB7100F08BFB07F10807BD4618
:10B0540080BD00BF80B400AFBD4680BC704700BF58
:10B0640080B582B000AF0346FB7100F079FB07F1B5
:10B074000807BD4680BD00BF80B400AFBD4680BC9C
:10B08400704700BF80B582B000AF0346FB7100F08B
:10B0940067FB07F10807BD4680BD00BF80B400AF61
:10B0A400BD4680BC704700BF80B582B000AF034688
:10B0B400FB7100F055FB07F10807BD4680BD00BFDA
:10B0C40080B400AFBD4680BC704700BF80B582B07D
:10B0D40000AF0346FB7100F043FB07F10807BD46D0
:10B0E40080BD00BF80B400AFBD4680BC704700BFC8
:10B0F40080B582B000AF0346FB7100F031FB07F16D
:10B104000807BD4680BD00BF80B400AFBD4680BC0B
:10B11400704700BF80B582B000AF0346FB7100F0FA
:10B124001FFB07F10807BD4680BD00BF80B400AF18
:10B13400BD4680BC704700BF80B582B000AF0346F7
:10B14400FB7100F00DFB07F10807BD4680BD00BF91
:10B1540080B400AFBD4680BC704700BF80B582B0EC
:10B1640000AF0346FB7100F0FBFA07F10807BD4688
:10B1740080BD00BF80B400AFBD4680BC704700BF37
:10B1840080B582B000AF0346FB7100F0E9FA07F125
:10B194000807BD4680BD00BF80B400AFBD4680BC7B
:10B1A400704700BF80B582B000AF0346FB7100F06A
:10B1B400D7FA07F10807BD4680BD00BF80B400AFD1
:10B1C400BD4680BC704700BF80B582B000AF034667
:10B1D400FB7100F0C5FA07F10807BD4680BD00BF4A
:10B1E40080B400AFBD4680BC704700BF80B483B05C
:10B1F40000AF7860396007F10C07BD4680BC70472A
:10B2040080B582B000AF03463960FB8000F0A8FA35
:10B2140007F10807BD4680BD80B483B000AFF87164
:10B22400B9717A713B7107F10C07BD4680BC704758
:10B2340080B483B000AF13460246FA800A46BA804F
:10B244007B8007F10C07BD4680BC704780B483B097
:10B2540000AF786007F10C07BD4680BC704700BFA3
:10B2640080B483B000AF0346FB7107F10C07BD4601
:10B2740080BC704780B483B000AF0346FB7107F114
:10B284000C07BD4680BC704780B582B000AF7860C3
:10B2940039604FF00100FEF73FFA78683968FEF72D
:10B2A4000DFB07F10807BD4680BD00BF80B582B025
:10B2B40000AF786039604FF00100FEF79BFA7868C0
:10B2C4003968FEF7FBFA07F10807BD4680BD00BFE9
:10B2D40080B584B000AFF860B9607A603B604FF02D
:10B2E4000100FEF787FAF868B9687A683B68FEF7E8
:10B2F400F7FA07F11007BD4680BD00BF80B584B0E2
:10B3040000AF0346FB714FF002033B734FF00103A0
:10B314007B73FB79BB7307F10C0318464FF00301F1
:10B32400FFF7B2FF07F11007BD4680BD80B584B0BA
:10B3340000AF0346FB804FF003033B734FF003035E
:10B344007B73FB884FEA13239BB2DBB2BB73FB888E
:10B35400DBB2FB7307F10C0318464FF00401FFF74F
:10B3640093FF07F11007BD4680BD00BF80B582B0D2
:10B3740000AF4BF6E073C0F2010307F104021B882F
:10B38400138007F1040318464FF00201FFF77CFF16
:10B3940007F10807BD4680BD80B582B000AF4BF60B
:10B3A400E473C0F2010307F104021B88138007F160
:10B3B400040318464FF00201FFF766FF07F1080780
:10B3C400BD4680BD80B584B000AF02460B46FA800E
:10B3D400BB804FF005033B724FF00F037B72FB8879
:10B3E400DBB2BB72FB884FEA13239BB2DBB2FB7266
:10B3F400BB88DBB23B73BB884FEA13239BB2DBB23F
:10B404007B7307F1080318464FF00601FFF73CFF72
:10B4140007F11007BD4680BD80B584B000AF034678
:10B42400FB714FF002033B734FF011037B73FB7905
:10B43400BB7307F10C0318464FF00301FFF724FF19
:10B4440007F11007BD4680BD80B586B000AFF88017
:10B45400B9807A803B804FF009033B734FF01303AC
:10B464007B73FB88DBB2BB73FB884FEA13239BB26D
:10B47400DBB2FB73BB88DBB23B74BB884FEA13239C
:10B484009BB2DBB27B747B88DBB2BB747B884FEAF4
:10B4940013239BB2DBB2FB743B88DBB23B753B8866
:10B4A4004FEA13239BB2DBB27B7507F10C031846FA
:10B4B4004FF00A01FFF7E8FE07F11807BD4680BD0B
:10B4C40080B584B000AF0346FB714FF002033B73B9
:10B4D4004FF01F037B73FB79BB7307F10C03184612
:10B4E4004FF00301FFF7D0FE07F11007BD4680BD02
:10B4F40080B586B000AF0346B9607A60FB737B68A1
:10B50400DBB203F10203DBB23B754FF015037B752D
:10B51400FB7BBB7507F1140318464FF00301BA68AF
:10B524007B68FFF7D5FE07F11807BD4680BD00BF55
:10B5340080B584B000AF0346FB714FF002033B7348
:10B544004FF016037B73FB79BB7307F10C031846AA
:10B554004FF00301FFF7AAFE07F11007BD4680BDB7
:10B5640080B483B000AF03463960FB714FF4C0422E
:10B57400C4F20002F9790B464FEAC3035B184FEAA1
:10B584008303D31803F118035A683B6822FA03F3C0
:10B5940003F00103184607F10C07BD4680BC704751
:10B5A40080B483B000AF03463960FB714FF4C042EE
:10B5B400C4F20002F9793B684FF0010000FA03F38A
:10B5C40018460B464FEAC3035B184FEA8303D318AC
:10B5D40003F11003586007F10C07BD4680BC7047A7
:10B5E40080B483B000AF03463960FB714FF4C042AE
:10B5F400C4F20002F9793B684FF0010000FA03F34A
:10B6040018460B464FEAC3035B184FEA8303D3186B
:10B6140003F11003186007F10C07BD4680BC7047A6
:10B6240080B500AF00F0CEF800F0C0FB80BD00BFD5
:10B6340080B500AF40F66C13C2F200034FF0000275
:10B644001A6040F67013C2F200034FF000021A6051
:10B6540040F67413C2F200034FF000021A6040F681
:10B664007813C2F200034FF000021A6040F6801310
:10B67400C2F200034FF000004FF00001C3E90001E3
:10B6840040F68813C2F200034FF000004FF00001AF
:10B69400C3E9000140F69013C2F200034FF0000228
:10B6A4001A7040F69213C2F200034FF000021A809F
:10B6B40040F69413C2F200034FF000021A8040F6E1
:10B6C400C420C2F2000040F69811C2F200014FF407
:10B6D400967201F0F1FC40F6F020C2F200004FF047
:10B6E400140140F60032C2F200024FF4967301F0E6
:10B6F4008DFE40F62C43C2F200034FF000021A7094
:10B7040040F63C43C2F200034FF000021A7040F6C8
:10B714003D43C2F200034FF000021A7040F63E436C
:10B72400C2F200034FF000021A7040F63F43C2F227
:10B7340000034FF000021A704EF201004BF2256133
:10B74400C0F2000102F002FF40F63040C2F20000F5
:10B754004CF29911C0F2000107F0E4FA80BD00BF79
:10B7640080B500AF4CF24420C0F2010001F03CFC73
:10B7740080BD00BF80B500AF4FF4804002F018FFD9
:10B7840080BD00BF80B500AF4FF4005002F010FF41
:10B7940080BD00BF80B500AF4FF003004FF005013E
:10B7A400FFF7FEFE4FF06400FDF70AF84FF00300C8
:10B7B4004FF00501FFF714FF4FF06400FDF700F8A8
:10B7C40080BD00BF80B594B000AF4FF003004FF0D0
:10B7D4000401FFF7C5FE0346002B49D140F2505344
:10B7E400C2F200031B68002B02D04FF0030301E0F8
:10B7F4004FF001033B7440F23053C2F200037B610B
:10B804004FF02003BB6140F25053C2F200031B68A7
:10B81400FB6107F12C033B624FF020037B624FF086
:10B824000203BB624FF002033B6007F110037B602D
:10B834004FF00103BB604FF00003FB603B464FF049
:10B844000110194604F04EF94FF0010004F090F98C
:10B85400FDF7F8FF97F82D30FB64FB6C002B07D045
:10B8640007F12C0303F102031846F96CFFF75EFAA3
:10B8740007F15007BD4680BD80B500AF4FF0011001
:10B8840004F0F8F84FF003004FF00301FFF788FECF
:10B8940000BF4FF003004FF00401FFF761FE0346C1
:10B8A400002BF6D1FFF78EFF80BD00BF80B582B0BC
:10B8B40000AF786040F66C13C2F200031A687B682C
:10B8C4001A4340F66C13C2F200031A604FF40040AE
:10B8D40002F06EFE07F10807BD4680BD80B483B058
:10B8E40000AF78607B686FEA030240F66C13C2F223
:10B8F40000031B681A4040F66C13C2F200031A607E
:10B9040007F10C07BD4680BC704700BF80B582B00C
:10B9140000AF786040F67013C2F200031A687B68C7
:10B924001A4340F67013C2F200031A604FF4004049
:10B9340002F03EFE07F10807BD4680BD80B483B027
:10B9440000AF78607B686FEA030240F67013C2F2BE
:10B9540000031B681A4040F67013C2F200031A6019
:10B9640007F10C07BD4680BC704700BF90B58BB093
:10B9740000AF9FE140F66C13C2F200031B6803F0B2
:10B984004003002B11D0FFF7F1FC4FF04000FFF70C
:10B99400A5FF40F69013C2F200034FF001021A70A3
:10B9A4004FF2010002F01AFE84E140F66C13C2F279
:10B9B40000031B6803F08003002B06D0FFF7ECFCA8
:10B9C4004FF08000FFF78AFF74E140F66C13C2F277
:10B9D40000031B6803F00103002B02D000F042FABD
:10B9E40068E140F66C13C2F200031B6803F0020323
:10B9F400002B10D04FF00003FB834FF4C863BB83CC
:10BA0400FA8BBB8B10461946FFF7DCFC4FF00200A3
:10BA1400FFF764FF4EE140F66C13C2F200031B68AB
:10BA240003F00403002B16D04FF010037B834FF078
:10BA340020033B834FF00003FB824FF41673BB8259
:10BA4400788B398BFA8ABB8AFFF7FEFC4FF004002F
:10BA5400FFF744FF2EE140F66C13C2F200031B68AB
:10BA640003F00803002B60D04FF001037B624AE02F
:10BA74007B6AA3F120034FF0010202FA03F2796A10
:10BA8400C1F120014FF0010020FA01F14FF0000450
:10BA9400786A04FA00F00143F960F968002BB4BF36
:10BAA4000B461346FB604FF001027B6A02FA03F374
:10BAB400BB6040F68813C2F20003D3E90001D7E962
:10BAC400022302EA000203EA010352EA030116D048
:10BAD400D7E902236FEA02006FEA030140F68813F4
:10BAE400C2F20003D3E9002300EA020001EA0301E1
:10BAF40040F68813C2F20003C3E9000106E07B6A42
:10BB040003F101037B627B6A3E2BB1DD40F68813AF
:10BB1400C2F20003D3E9002352EA030140F0CA80D1
:10BB24004FF00800FFF7DAFEC4E040F66C13C2F2EF
:10BB340000031B6803F01003002B64D04FF00103D3
:10BB44003B624FE03B6AA3F120034FF0010202FA8B
:10BB540003F2396AC1F120014FF0010020FA01F12A
:10BB64004FF00004386A04FA00F001437960796800
:10BB7400002BB4BF0B4613467B604FF001023B6AB7
:10BB840002FA03F33B6040F68013C2F20003D3E9E8
:10BB94000001D7E9002302EA000203EA010352EAA2
:10BBA40003011BD03B6ADBB21846FFF789FCD7E9D7
:10BBB40000236FEA02006FEA030140F68013C2F229
:10BBC4000003D3E9002300EA020001EA030140F67E
:10BBD4008013C2F20003C3E9000106E03B6A03F1EB
:10BBE40001033B623B6A3E2BACDD40F68013C2F29C
:10BBF4000003D3E9002352EA03015BD14FF01000A4
:10BC0400FFF76CFE56E040F66C13C2F200031B68AB
:10BC140003F02003002B08D04FF00100FFF7FCFBDA
:10BC24004FF02000FFF75AFE44E040F66C13C2F2D6
:10BC340000031B6803F48073002B08D04FF002004C
:10BC4400FFF75CFB4FF48070FFF748FE32E040F6EC
:10BC54006C13C2F200031B6803F40073002B18D0AA
:10BC640040F69213C2F200031B881846FFF75EFBEE
:10BC74004FF40070FFF732FE40F69213C2F2000355
:10BC84001B88B3F5404F15D14FF48060FFF70EFECB
:10BC940010E040F66C13C2F200031B6803F48063E7
:10BCA400002B07D04FF0FF00FFF728FB4FF4806014
:10BCB400FFF714FE40F66C13C2F200031B68002B5E
:10BCC40005D0FDF7E3FC0346002B7FF453AE07F1E8
:10BCD4002C07BD4690BD00BF80B500AF10E040F614
:10BCE4007013C2F200031B6803F00103002B07D09A
:10BCF4004FF00200FFF71CFC4FF00100FFF71EFE9F
:10BD040040F67013C2F200031B68002B04D0FDF749
:10BD14002BFD0346002BE2D180BD00BF80B483B06D
:10BD240000AF78607B684FF0010202FA03F10A4623
:10BD34004FEAE27340F68011C2F20001D1E900013A
:10BD440002EA000203EA01031343002B0CBF0023A1
:10BD54000123DBB2184607F10C07BD4680BC7047CF
:10BD640080B500AFFDF700FD0346002B1DD04FF05A
:10BD74000100FFF7D3FF0346002B16D040F6F02056
:10BD8400C2F2000040F6DC21C2F2000101F08CFB9B
:10BD94000346002B09D04FF0010040F6DC21C2F22B
:10BDA40000014FF01402FFF7A3FB80BD80B500AF84
:10BDB400FFF7DCFDFFF790FFFFF7D2FF80BD00BF68
:10BDC40080B582B000AF13460246FA710A46BA71D2
:10BDD4007B717A7940F67413C2F200031A60FB791E
:10BDE400022B1CD0032B0AD0012B28D14FF00100C9
:10BDF400FDF75CFC4FF40070FFF758FD1FE04FF0B7
:10BE04000100FDF753FC40F62C43C2F200034FF04F
:10BE140000021A704FF00200FFF748FD0FE04FF0E8
:10BE24000100FDF743FC40F67813C2F200034FF023
:10BE340000021A604FF00100FFF738FD00BF07F160
:10BE44000807BD4680BD00BF80B485B000AFBA60AE
:10BE54007B600346FB730B46BB7307F11407BD46B7
:10BE640080BC704780B584B000AF40F67813C2F24E
:10BE740000031B68102B27D84FF00100FDF74CFC82
:10BE840040F67813C2F200031A6813464FEA4313CC
:10BE94009B184CF21001C0F201015B18FB6002F127
:10BEA400010240F67813C2F200031A60FB6803F142
:10BEB4000103BB60BB681B7803F101037B60B868B6
:10BEC4007968FDF7FBFC00E000BF07F11007BD46F1
:10BED40080BD00BF80B500AF40F63C43C2F2000312
:10BEE4004FF001021A704FF00100FFF7F7FC80BD1C
:10BEF40080B584B000AFB9600146F973BA81FB80A4
:10BF040040F63D43C2F200034FF001021A704FF4B1
:10BF1400805002F04DFB40F67413C2F200031B681C
:10BF24001846FDF731FC40F6C420C2F2000001F0CF
:10BF3400E5F84FF00400FFF7B9FC07F11007BD4620
:10BF440080BD00BF80B582B000AF02460B46FA71D7
:10BF5400BB7140F66C13C2F200034FF000021A608A
:10BF640040F67013C2F200034FF000021A6040F66C
:10BF74008013C2F200034FF000004FF00001C3E948
:10BF8400000140F68813C2F200034FF000004FF0A6
:10BF94000001C3E9000140F63D43C2F200034FF043
:10BFA40000021A7040F63E43C2F200034FF0000252
:10BFB4001A7040F63F43C2F200034FF000021A70B9
:10BFC4004FF4805002F0F4FA4FF00000FDF7DCFB70
:10BFD40040F62C43C2F200031B78012B08D0022B3D
:10BFE4000BD0002B0ED14FF00200FFF75FFC09E0ED
:10BFF4004FF04000FFF75AFC04E04FF48070FFF765
:10C0040055FC00BF07F10807BD4680BD80B582B06E
:10C0140000AF0346FB71FB791846FDF7C5FB07F13A
:10C024000807BD4680BD00BF80B584B000AFC7E936
:10C034000201C7E9002340F68013C2F20003D7E9E6
:10C044000201C3E9000140F68813C2F20003D7E9F4
:10C054000001C3E9000140F68813C2F20003D3E9EA
:10C06400002352EA030104D04FF00800FFF71EFC3E
:10C0740006E040F63E43C2F200034FF001021A709C
:10C0840007F11007BD4680BD80B582B000AF78606F
:10C09400396040F6C420C2F2000079683A6801F0C1
:10C0A400D7F840F6C420C2F2000001F041F803467C
:10C0B400032B31D801A252F823F000BF1DC10000A8
:10C0C4001DC10000D1C0000003C1000040F6C4231C
:10C0D400C2F200031A6840F6C423C2F20003DB680C
:10C0E40040F6F020C2F2000011461A4601F098FF13
:10C0F40040F6C420C2F2000001F000F80CE04CF25B
:10C104009020C0F2010000F06FFF40F6C420C2F29C
:10C11400000000F0F3FF00BF4FF00100FFF7F6FB53
:10C1240007F10807BD4680BD80B584B000AF034663
:10C13400B9607A60FB7340F63F43C2F200034FF0EC
:10C1440001021A70FB7B022B04D1B8687968FFF7EF
:10C154009BFF00BF07F11007BD4680BD80B400AF50
:10C1640040F69413C2F200031B881846BD4680BCF7
:10C17400704700BF80B483B000AF0346FB8040F635
:10C184009413C2F20003FA881A8007F10C07BD4623
:10C1940080BC704780B500AF40F63040C2F200006A
:10C1A40006F000FF40F69213C2F200034FF440423F
:10C1B4001A804FF40070FFF779FB80BD80B584B01E
:10C1C40000AF034607F1040080E80600FB8140F657
:10C1D4009213C2F20003FA891A8040F62C43C2F289
:10C1E40000034FF002021A704FF02000FFF75EFBCD
:10C1F4007B68002B09D040F63040C2F2000007F102
:10C20400040393E8060006F06DFE07F11007BD462F
:10C2140080BD00BF80B400AF40F69013C2F20003AB
:10C224001B781846BD4680BC704700BF80B500AF80
:10C2340040F63D43C2F200031B78002B0BD040F6BE
:10C244002C43C2F200034FF001021A704FF0200099
:10C25400FFF72CFB06E040F66C13C2F200034FF02C
:10C2640040021A6080BD00BF80B500AF4FF20100EC
:10C2740002F0CAF94FF00100FDF718FA40F69013E6
:10C28400C2F200034FF000021A704FF08000FFF773
:10C294000DFB80BD80B584B000AF78607B6803F18E
:10C2A400FF1303F57F434FEA0323FB6007F10B03FE
:10C2B400F86819464FF0010207F04EF9FB7A012B9A
:10C2C40014BF00230123DBB2184607F11007BD4653
:10C2D40080BD00BF80B584B000AF40F64043C2F2D9
:10C2E40000034FF480621A6040F64443C2F2000334
:10C2F4004FF400521A6007F027F840F64843C2F2A0
:10C3040000034FF0FF321A6040F64C43C2F20003C0
:10C314004FF0FF321A6040F64843C2F200031B6834
:10C324001846FFF7B7FF0346002B0FD040F64443EF
:10C33400C2F200031B6803F1FF331846FFF7AAFF9C
:10C344000346002B02D04FF0010301E04FF000033D
:10C35400FB71FB7903F00103FB71FB79002B43D0E4
:10C3640040F64043C2F200031B68FB6033E0F86808
:10C37400FFF790FF034683F00103DBB2002B0ED0DE
:10C3840040F64C43C2F200031B68B3F1FF3F1ED1D9
:10C3940040F64C43C2F20003FA681A6017E040F614
:10C3A4004843C2F200031B68B3F1FF3F0FD140F6CC
:10C3B4004C43C2F200031B68B3F1FF3F07D040F6C1
:10C3C4004843C2F20003FA681A6000BF4BE0FB68FE
:10C3D40003F10103FB6040F64443C2F200031B680F
:10C3E400FA689A42C3D33EE040F64043C2F20003E7
:10C3F4001B68BB602FE0B868FFF74CFF0346002BB7
:10C404000ED040F64843C2F200031B68B3F1FF3F6D
:10C414001DD140F64843C2F20003BA681A6016E020
:10C4240040F64C43C2F200031B68B3F1FF3F0ED148
:10C4340040F64843C2F200031B68B3F1FF3F06D045
:10C4440040F64C43C2F20003BA681A600BE0BB68C2
:10C4540003F10103BB6040F64443C2F200031B68CE
:10C46400BA689A42C7D340F64843C2F200031B6835
:10C47400B3F1FF3F13D140F64043C2F200031A6800
:10C4840040F64843C2F200031A6040F64843C2F241
:10C4940000031A6840F64C43C2F200031A6006F027
:10C4A400DDFF07F11007BD4680BD00BF80B400AFBB
:10C4B40040F64843C2F200031A6840F64C43C2F205
:10C4C40000031B689A420BD840F64C43C2F20003A7
:10C4D4001A6840F64843C2F200031B68D31A0AE004
:10C4E40040F64843C2F200031A6840F64C43C2F2D5
:10C4F40000031B68D31A1846BD4680BC704700BFB2
:10C5040080B582B000AF40F64843C2F200031B6816
:10C514004FEA03237B6006F017FF06F0A9FF4FF0F4
:10C524008103FB7007F10303786819464FF0010299
:10C5340006F0CCFF06F092FF40F64843C2F2000337
:10C544001B6803F1010240F64843C2F200031A607B
:10C5540040F64843C2F200031A6840F64443C2F26C
:10C5640000031B689A4209D340F64043C2F2000319
:10C574001A6840F64843C2F200031A6007F108073C
:10C58400BD4680BD80B5C8B000AF07F10C0318608C
:10C5940007F10803196007F104031A6006F0D4FEDA
:10C5A40040F64C43C2F200031B684FEA0323C7F86A
:10C5B4001C3140F64C43C2F200031B6803F00F0326
:10C5C400002B53D107F11703D7F81C0119464FF07C
:10C5D400010206F0C1FF07F117031B78FF2B05D0FA
:10C5E40006F046FFD7F81C0106F04CFF40F64C431A
:10C5F400C2F200031A6840F64843C2F200031B6803
:10C604009A4233D240F64C43C2F200031B6803F152
:10C61400100240F64843C2F200031B689A4225D92F
:10C6240040F64843C2F200031B6803F110034FEACB
:10C6340013134FEA031240F64843C2F200031A6090
:10C6440040F64843C2F200031A6840F64443C2F27B
:10C6540000031B689A4209D340F64043C2F2000328
:10C664001A6840F64843C2F200031A6007F118033F
:10C674001A464FF4807310464FF000011A460FF02B
:10C6840075FA07F118034FF001021A7007F1040359
:10C694001B68DAB207F118035A7007F10C031B6820
:10C6A400DAB207F118031A7107F10C031B684FEA99
:10C6B4001323DAB207F118035A7107F10C031B684C
:10C6C4004FEA1343DAB207F118039A7107F10C0326
:10C6D4001B684FEA1363DAB207F11803DA7107F142
:10C6E400180303F1080107F1080207F104030846DF
:10C6F40011681A680FF016FA07F104031B6803F1B6
:10C70400040307F1180202F104024FF6FF70114608
:10C714001A4600F0EDF80346A7F81A31B7F81A31B3
:10C72400DAB207F118039A70B7F81A314FEA1323F3
:10C734009BB2DAB207F11803DA7006F099FE07F13A
:10C7440004031B6803F1080307F11802D7F81C015E
:10C7540011461A4606F0BAFE06F080FE40F64C4337
:10C76400C2F200031B6803F1010240F64C43C2F21B
:10C7740000031A6040F64C43C2F200031A6840F604
:10C784004443C2F200031B689A4209D340F6404373
:10C79400C2F200031A6840F64C43C2F200031A6066
:10C7A40040F64C43C2F200031A6840F64843C2F212
:10C7B40000031B689A4201D1FFF7A2FE07F59077A8
:10C7C400BD4680BD80B5C6B000AF07F10C0318604C
:10C7D40007F10803196007F104031A6040F648439F
:10C7E400C2F200031A6840F64C43C2F200031B680D
:10C7F4009A4202D14FF000035FE040F64843C2F290
:10C8040000031A6807F10C031B681A6040F64843DA
:10C81400C2F200031B684FEA0323C7F8103106F085
:10C8240093FD07F11003D7F8100119464FF48072F5
:10C8340006F092FE06F012FE07F110035B781A462A
:10C8440007F10C031B689A8007F1100303F102033C
:10C85400184600F0A3F803461A4607F10C031B68B8
:10C86400DA8007F1100303F10403184600F0ACF872
:10C87400024607F10C031B689A6007F10C031B685E
:10C884009B88C7F8143107F104031A68D7F81431E8
:10C894009A4204D207F104031B68C7F8143107F164
:10C8A400080207F1100303F1080310681946D7F8CA
:10C8B40014210FF037F94FF00103184607F58C7770
:10C8C400BD4680BD80B582B000AF78607B681A68D1
:10C8D40040F64843C2F200031B689A4202D1FFF7B4
:10C8E4000FFE00E000BF07F10807BD4680BD00BF92
:10C8F40080B487B000AF0346B9607A60FB81FB89DE
:10C90400FB82BA687B68D3183B612FE0FB8A4FEA4D
:10C9140013239BB29AB2FB8A4FEA03239BB21343BD
:10C924009BB2FB82BB681B781A46FB8A5340FB828E
:10C93400FB8ADBB24FEA23139AB2FB8A53409BB2C1
:10C94400FB82FB8A4FEA03339AB2FB8A53409BB2C1
:10C95400FB82FB8ADBB24FEA43139AB2FB8A534051
:10C964009BB2FB82BB6803F10103BB60BA683B69FD
:10C974009A42CBD3FB8A184607F11C07BD4680BCFC
:10C98400704700BF80B483B000AF78607B681B78C9
:10C99400184607F10C07BD4680BC704780B483B0CD
:10C9A40000AF78607B6803F101031B784FEA03232F
:10C9B4009AB27B681B7813439BB29BB2184607F16B
:10C9C4000C07BD4680BC704780B483B000AF78606C
:10C9D4007B6803F103031B784FEA03627B6803F16E
:10C9E40002031B784FEA03431A437B6803F10103F4
:10C9F4001B784FEA03231A437B681B7813431846BA
:10CA040007F10C07BD4680BC704700BFB0B586B0C7
:10CA140000AF78607868FFF7D7FF01460A464FF009
:10CA24000003C7E904237B6803F108031846FFF7F2
:10CA3400CBFF01460A464FF00003C7E90223BB6857
:10CA44001D464FF00004D7E9042342EA040243EAF6
:10CA540005031046194607F11807BD46B0BD00BFCF
:10CA640080B584B000AF78607868FFF7ADFF034607
:10CA7400FB60FB68184607F11007BD4680BD00BF88
:10CA840080B584B000AF786039603868FFF79CFFE8
:10CA94000346BB603B6803F104031846FFF794FFA9
:10CAA4000346FB607B6807F1080292E8030083E811
:10CAB4000300786807F11007BD4680BD80B483B0D9
:10CAC40000AF78600B46FB707B68FA781A7007F148
:10CAD4000C07BD4680BC704780B483B000AF78605B
:10CAE4000B467B807B88DAB27B681A707B6803F123
:10CAF40001037A884FEA122292B2D2B21A7007F175
:10CB04000C07BD4680BC704780B483B000AF78602A
:10CB140039603B68DAB27B681A707B6803F1010301
:10CB24003A684FEA1222D2B21A707B6803F1020308
:10CB34003A684FEA1242D2B21A707B6803F10303D7
:10CB44003A684FEA1262D2B21A7007F10C07BD4676
:10CB540080BC7047B0B584B000AFF860C7E900236B
:10CB64003B68F8681946FFF7CFFFFB6803F104023E
:10CB74007B681C464FF00005234610461946FFF714
:10CB8400C3FF07F11007BD46B0BD00BF80B584B038
:10CB940000AF786039603B68FB60FB6878681946D1
:10CBA400FFF7B2FF07F11007BD4680BD80B584B022
:10CBB40000AFF86007F1040383E806007B68F868B7
:10CBC4001946FFF7A1FFFB6803F10402BB68104696
:10CBD4001946FFF799FF07F11007BD4680BD00BF56
:10CBE40080B485B000AFF860B9607A60FB68BA6859
:10CBF4001A60FB687A685A60FB684FF000029A601A
:10CC0400FB684FF00002DA6007F11407BD4680BCF0
:10CC1400704700BF80B483B000AF78607B685A6807
:10CC24007B689B68D31A184607F10C07BD4680BC85
:10CC3400704700BF80B584B000AFF860B9607A6017
:10CC4400FB681A68FB68DB68D318B86819467A6809
:10CC54000EF068FFFB68DA687B68D218FB68DA605C
:10CC640007F11007BD4680BD80B584B000AF786081
:10CC74007B681A687B68DB68D318FB607B68DB68B9
:10CC840003F101027B68DA60F868FFF77BFE034674
:10CC9400184607F11007BD4680BD00BF80B584B0BB
:10CCA40000AF78607B681A687B68DB68D318FB6028
:10CCB4007B68DB6803F102027B68DA60F868FFF7DF
:10CCC4006DFE0346184607F11007BD4680BD00BF40
:10CCD40080B584B000AF78607B681A687B68DB68D5
:10CCE400D318FB607B68DB6803F104027B68DA60BD
:10CCF400F868FFF769FE0346184607F11007BD46BA
:10CD040080BD00BF80B584B000AF78607B681A68CE
:10CD14007B68DB68D318FB607B68DB6803F1040283
:10CD24007B68DA60F868FFF79BFE0346184607F154
:10CD34001007BD4680BD00BF80B584B000AF7860E9
:10CD440039603B681A683B68DB68D318FB603B6852
:10CD5400DB6803F108023B68DA607B681846F9680F
:10CD6400FFF78EFE786807F11007BD4680BD00BF4F
:10CD740080B582B000AF786039607B689A683B68A0
:10CD8400D2187B685B689A4202D84FF0010307E02F
:10CD94004CF29420C0F2010000F026F94FF0000399
:10CDA400184607F10807BD4680BD00BF80B584B0B2
:10CDB40000AFF860B9607A60F8687968FFF7D8FF67
:10CDC4000346002B0FD0FB681A68FB689B68D318D6
:10CDD4001846B9687A680EF0A5FEFB689A687B6805
:10CDE400D218FB689A6007F11007BD4680BD00BFEA
:10CDF40080B584B000AF78600B46FB7078684FF064
:10CE04000101FFF7B5FF0346002B10D07B681A68B9
:10CE14007B689B68D318FB607B689B6803F1010205
:10CE24007B689A60FB78F8681946FFF747FE07F1BC
:10CE34001007BD4680BD00BF80B584B000AF7860E8
:10CE44000B467B8078684FF00201FFF791FF0346A1
:10CE5400002B10D07B681A687B689B68D318FB6032
:10CE64007B689B6803F102027B689A607B88F868A0
:10CE74001946FFF731FE07F11007BD4680BD00BF1C
:10CE840080B584B000AF7860396078684FF00401F1
:10CE9400FFF76EFF0346002B0FD07B681A687B6890
:10CEA4009B68D318FB607B689B6803F104027B6872
:10CEB4009A60F8683968FFF727FE07F11007BD4646
:10CEC40080BD00BF80B586B000AFF860C7E900231D
:10CED400F8684FF00801FFF74BFF0346002B10D012
:10CEE400FB681A68FB689B68D3187B61FB689B68C6
:10CEF40003F10802FB689A607869D7E90023FFF719
:10CF040029FE07F11807BD4680BD00BF80B584B077
:10CF140000AF7860396078684FF00401FFF728FFAC
:10CF24000346002B0FD07B681A687B689B68D31874
:10CF3400FB607B689B6803F104027B689A60F86875
:10CF44003968FFF723FE07F11007BD4680BD00BF17
:10CF540080B586B000AFF86007F1040383E80600EB
:10CF6400F8684FF00801FFF703FF0346002B12D0C7
:10CF7400FB681A68FB689B68D3187B61FB689B6835
:10CF840003F10802FB689A60786907F1040393E8E7
:10CF94000600FFF70BFE07F11807BD4680BD00BF72
:10CFA40080B400AF40F65043C2F200034FF00002D9
:10CFB4001A7040F65143C2F200034FF000021A7097
:10CFC400BD4680BC704700BF80B483B000AF7860BA
:10CFD40040F65043C2F200034FF001021A7007F109
:10CFE4000C07BD4680BC704780B5C8B000AF07F1E0
:10CFF4000403186040F65143C2F200031B7883F027
:10D004000103DBB2002B05D007F104031868FFF716
:10D01400DBFF4DE040F65043C2F200034FF0010243
:10D024001A7007F1080207F11803104619464FF069
:10D03400F802FFF7D5FD07F588731846FCF7D2FD13
:10D0440007F10803184607F5887393E80600FFF70D
:10D054007FFF07F1040318680EF0C0FDC7F81C0138
:10D0640007F108031846FFF7D5FDC7F81801D7F8EC
:10D074001C21D7F818319A4203D9D7F81831C7F8C8
:10D084001C3107F1080207F1040310461968D7F8A8
:10D094001C21FFF78BFE07F108039B6807F11802B8
:10D0A40044F24640C4F64C7011461A46FFF76AFA39
:10D0B40007F59077BD4680BD80B485B000AFF860B9
:10D0C400B9607A60FB68BA681A60FB687A685A606B
:10D0D400FB684FF000021A72FB684FF00002DA603E
:10D0E400FB684FF000021A61FB684FF000025A61BE
:10D0F40007F11407BD4680BC704700BF80B483B0FD
:10D1040000AF78607B684FF000021A727B684FF0C2
:10D114000002DA607B684FF000021A617B684FF00E
:10D1240000025A6107F10C07BD4680BC704700BF7E
:10D1340080B483B000AF78607B681B7A184607F12F
:10D144000C07BD4680BC704780B483B000AF7860E4
:10D154007B684FF003021A7207F10C07BD4680BCCE
:10D16400704700BF80B586B000AFF860B9607A60E0
:10D17400FB685A697B68D3187B61FB68DA687B6952
:10D184009A4205D2FB68DA68FB685B69D31A7B6054
:10D19400FB681A68FB685B69D3181846B9687A6833
:10D1A4000EF0C0FCFB685A697B68D218FB685A61B0
:10D1B400FB685A69FB68DB689A4204D1FB684FF04C
:10D1C40002021A7205E0FB681B6903F10102FB68A5
:10D1D4001A6107F11807BD4680BD00BF80B584B051
:10D1E40000AFF860B9607A607B68012B03D8F868F7
:10D1F400FFF7AAFF27E0FB684FF001021A72B86834
:10D20400FFF7CCFB03461A46FB68DA60FB684FF075
:10D2140000021A61FB684FF000025A61FB68DA6889
:10D22400FB685B689A4203D9F868FFF78DFF0AE050
:10D23400BB6803F102027B68A3F10203F86811469C
:10D244001A46FFF78FFF07F11007BD4680BD00BFE8
:10D2540080B586B000AFF860B9607A607B68002B57
:10D2640003D1F868FFF770FF2CE0BB681B78FB75EF
:10D27400FB7D002B12D1FB681B69002B02D0F868E0
:10D28400FFF762FFBB6803F101027B6803F1FF3320
:10D29400F86811461A46FFF7A1FF13E0FA7DFB6810
:10D2A4001B699A4203D0F868FFF74EFF0AE0BB6897
:10D2B40003F101027B6803F1FF33F86811461A4653
:10D2C400FFF750FF07F11807BD4680BD80B483B057
:10D2D40000AF78607B684FF000021A607B684FF003
:10D2E40000021A717B684FF000029A607B684FF06D
:10D2F4000002DA607B684FF000021A6107F10C0744
:10D30400BD4680BC704700BF80B485B000AFF860F4
:10D31400B9607A60FB68BA681A60FB684FF0010272
:10D324001A71FB687A689A60FB684FF00002DA6051
:10D33400FB684FF000021A6107F11407BD4680BC78
:10D34400704700BF80B586B000AFF860B9607A60FE
:10D35400FB681B79012B02D04FF0000351E0FB68FE
:10D36400DB68DAB2BB681A704FF001037B61FB68BB
:10D37400DB68002B12D1BB6803F10103FA689268E1
:10D38400D2B21A70BB6803F10203FA6892684FEADA
:10D394001222D2B21A704FF003037B61FB689A68C1
:10D3A400FB681B69D31A3B617A687B69D21A3B69B3
:10D3B4009A4203D27A687B69D31A3B61FB681B6883
:10D3C400FA681169B8687A698218084611463A6998
:10D3D4009847FB681A693B69D218FB681A61FB68B5
:10D3E400DB6803F10102FB68DA60FB689A68FB689A
:10D3F4001B699A4203D1FB684FF002021A714FF085
:10D404000103184607F11807BD4680BD80B485B0F6
:10D4140000AFF860B9607A603B60FB68BA681A6074
:10D42400FB687A685A60FB683A689A60FB684FF058
:10D434000002DA6007F11407BD4680BC704700BFE4
:10D4440080B582B000AF786039607B68DA687B6849
:10D454001B68D2187B689B689A4206D94CF2E0207C
:10D46400C0F20100FFF7C0FD1AE07B685A687B68D0
:10D47400DB68D2187B681B68386811461A46FFF7C8
:10D4840061FF034683F00103DBB2002B07D17B6805
:10D49400DA687B681B68D2187B68DA60D5E700BF5E
:10D4A40007F10807BD4680BD80B582B000AF786043
:10D4B40039607B68DB68002B02D14FF000031FE06A
:10D4C4007B685A687B681B68386811461A460EF0F8
:10D4D40029FB7B68DA687B681B68D21A7B68DA6090
:10D4E4007B6859687B685A687B681B68D2187B68BC
:10D4F400DB68084611461A460EF014FB4FF0010390
:10D50400184607F10807BD4680BD00BF80B400AFD0
:10D51400BFF34F8F4FF46D42CEF200024FF46D43D0
:10D52400CEF20003DB6803F4E0614FF00403C0F2C1
:10D53400FA530B43D360BFF34F8FFEE780B500AFC0
:10D5440040F65440C2F20000FFF7C0FE80BD00BFA9
:10D5540080B584B000AFF860B9607A60FA6840F6CC
:10D564006843C2F20003D318B86819467A680EF00B
:10D57400D9FA07F11007BD4680BD00BF80B582B05F
:10D5840000AF78600B46FB7040F69450C2F2000086
:10D5940040F66841C2F200014FF49672FFF720FB97
:10D5A400FB7840F69450C2F200001946FFF720FCC5
:10D5B40040F69453C2F20003184607F10807BD462B
:10D5C40080BD00BF80B582B000AF786040F6945350
:10D5D400C2F200039B6840F65440C2F200004DF2D0
:10D5E4005551C0F200011A46FFF78EFE786840F6E6
:10D5F4005441C2F20001FFF723FF07F10807BD46BB
:10D6040080BD00BF80B58CB000AFF860B9607A60AF
:10D6140007F114031846B9687A68FFF7E1FA07F1CD
:10D6240014031846FFF73AFB0346FB857A693B6A05
:10D63400D318BB62F8684FF00101FFF79FFF7862CF
:10D64400FB8D786A1946FFF7F7FBFB8D786AB96A98
:10D654001A46FFF7ABFBF868FFF7B4FF07F1300792
:10D66400BD4680BD80B483B000AF44F27F03C0F6F2
:10D67400E0737B607B681B683B603B6803F00F03CF
:10D684000F2B0CBF00230123DBB2184607F10C0754
:10D69400BD4680BC704700BF80B582B000AFFFF7C5
:10D6A400E1FF034683F00103DBB2002B15D06FF0DA
:10D6B4000F037B60FAF72EFE08F0B8F807F10403B5
:10D6C40044F27F00C0F6E07019464FF004020EF0F9
:10D6D400EDFA08F02FF9FAF723FE07F10807BD4623
:10D6E40080BD00BF80B58EB000AFF860B9607A60CD
:10D6F40007F114031846B9687A68FFF771FA07F15D
:10D7040014031846FFF7E4FA786307F11403184684
:10D71400FFF7C4FA03463B637A693B6AD318FB629A
:10D724004FF07E63BB623B6B03F1030323F00303FF
:10D734007B62FAF7EFFD08F079F8B86A0EF0AEFAFA
:10D744007B6AB86AF96A1A460EF0B0FA08F0F2F881
:10D75400FAF7E6FD7B6B03F00103002B01D0FFF722
:10D764009BFF7B6B03F00203002B01D0FFF7CEFE7F
:10D7740007F13807BD4680BD80B58AB000AFF860B8
:10D78400B9607A6007F114031846B9687A68FFF73C
:10D7940027FA07F114031846FFF766FA034687F8D9
:10D7A400273097F82730184605F0E8FF07F12807D7
:10D7B400BD4680BD80B582B000AF786078684FF018
:10D7C4000101FFF739FB78684FF00001FFF734FBE4
:10D7D40078684FF00101FFF72FFB78684FF00001E4
:10D7E400FFF74EFB786840F2E841C2F200014FF0C7
:10D7F4001402FFF7DBFA07F10807BD4680BD00BF3E
:10D8040080B582B000AF7860786800F0CBFD07F196
:10D814000807BD4680BD00BF80B588B002AF786000
:10D824004FF07E637B6107F1100307F10E02009253
:10D8340078694CF22C31C0F201014FF0010202F080
:10D8440063FAFB8978681946FFF7F6FA3A69FB89A7
:10D85400786811461A46FFF7A9FA07F11807BD467A
:10D8640080BD00BF80B582B000AF786041F28833DC
:10D87400C2F200031B6878681946FFF701FB41F206
:10D884008C33C2F20003786893E80600FFF760FB6C
:10D8940007F10807BD4680BD80B582B000AF78604F
:10D8A400FEF704FE034678681946FFF7E9FA07F124
:10D8B4000807BD4680BD00BF80B582B000AF786068
:10D8C400FFF7D0FE034678681946FFF791FA07F18F
:10D8D4000807BD4680BD00BF80B582B000AF786048
:10D8E400FFF7DAFE07F10807BD4680BD80B584B0B6
:10D8F40000AF786007F108031846FCF757F9786819
:10D9040007F1080393E80600FFF722FB07F110076D
:10D91400BD4680BD80B584B000AF786007F10803D0
:10D9240018467968FFF708FA07F1080393E803003B
:10D93400FCF71AF907F11007BD4680BD80B588B021
:10D9440000AF786007F10C03184602F047FCFB684F
:10D9540078681946FFF7DAFA3B6978681946FFF7E1
:10D96400D5FA3B7D78681946FFF742FA7B7D7868E3
:10D974001946FFF73DFABB6978681946FFF7C6FAFE
:10D98400FB6978681946FFF7C1FA07F12007BD461D
:10D9940080BD00BF80B584B000AF78607868FFF7C1
:10D9A400B1F9F860F86802F059FC07F11007BD46B8
:10D9B40080BD00BF80B582B000AF7860FAF7B8FFD1
:10D9C400034678681946FFF713FA07F10807BD46BE
:10D9D40080BD00BF80B584B000AF78607868FFF781
:10D9E40043F90346FB73FB7B1846FAF783FF07F101
:10D9F4001007BD4680BD00BF80B58CB000AFF86095
:10DA0400B9607A6007F114031846B9687A68FFF7B9
:10DA1400E7F807F114031846FFF75AF9B862F868F3
:10DA24004FF00201FFF7AAFD7862786AB96AFFF73E
:10DA340027FA4FF00103FB624AE0FA6ABB6A13401B
:10DA4400002B41D0FB6A102B2AD0102B0BD8022BB1
:10DA54001AD0022B02D8012B12D035E0042B17D098
:10DA6400082B19D030E0402B22D0402B02D8202B99
:10DA74001AD029E0802B1FD0B3F5807F20D023E07B
:10DA8400786AFFF797FE1FE0786AFFF7B9FE1BE09C
:10DA9400786AFFF711FF17E0786AFFF727FF13E0B2
:10DAA400786AFFF74BFF0FE0786AFFF7B5FE0BE0EB
:10DAB400786AFFF7D7FE07E0786AFFF7EDFE03E028
:10DAC400786AFFF777FF00BFFB6A4FEA4303FB6204
:10DAD400FB6A002BB1D1F868FFF774FD07F130073A
