:10800000503200202D8200003F820000418200009B
:10801000438200004582000047820000000000000B
:108020000000000000000000000000004982000085
:108030004B820000000000004D8200004F820000D3
:10804000B9630100353F01005582000061F3000073
:1080500071F30000259801005D8200003D8800005A
:108060006182000063820000E18A0000853F010018
:10807000698200006B820000D53B010081F30000A3
:1080800091F3000073820000758200007782000087
:10809000798200007B8200007D8200007F820000E8
:1080A00081820000838200008582000087820000B8
:1080B000898200008B820000C14801008F8200008D
:1080C0009182000093820000958200009782000058
:0880D000998200009B82000070
:1080D8003449072291438D46334934480A1A06D059
:1080E8000722914381F30988022282F314883048D9
:1080F8003049314A00F043F830483149314A00F0FC
:108108003EF831483149324A00F039F831483249AD
:10811800324A00F034F832483249334A00F02FF836
:1081280032483349334A00F02AF833483349344A4D
:1081380000F025F833483449002200F02BF8334882
:108148003349002200F026F832483349091A082931
:1081580003DB00220260043001601F481F49884287
:1081680005D00268043003B4904703BCF7E7002049
:108178008646EC4600200021284A9047FEE78842C0
:1081880007D0521A05D0037801300B700131013A3B
:10819800F9D17047884202D002700130FAE770477F
:1081A8001F487047503200205032002050320020C3
:1081B80004E00100BC0300204C040020AC82000055
:1081C800AC82000070D4010048DD010000010020ED
:1081D800BC03002070D4010070D4010070D40100E9
:1081E80070D4010070D4010070D4010070D4010073
:1081F80070D4010048DD010094E001004C04002027
:108208004C0400204C040020482200204822002072
:108218004C2200204C2200204C220020DD8300004C
:10822800FFFFFFFFDFF86CD01B4880471B481C4945
:108238000160FFF74DBFFEE7FEE7FEE7FEE7FEE75A
:10824800FEE7FEE7FEE7FEE7FEE7FEE7FEE7FEE7FE
:10825800FEE7FEE7FEE7FEE7FEE7FEE7FEE7FEE7EE
:10826800FEE7FEE7FEE7FEE7FEE7FEE7FEE7FEE7DE
:10827800FEE7FEE7FEE7FEE7FEE7FEE7FEE7FEE7CE
:10828800FEE7FEE7FEE7FEE7FEE7FEE7FEE7FEE7BE
:10829800FEE7FEE7008000209154010008ED00E0B1
:0482A8000080000052
:1082AC0080B483B000AF03463960FB710948FA799A
:1082BC003B68012101FA03F319461346DB00134412
:1082CC009B000344103359600C37BD465DF8047BAA
:1082DC00704700BF0060004080B500AF06F016FA92
:1082EC000CF006FF00F0D2FF00F04AFA0CF03AFA5C
:1082FC0000F056FD00F0F2FE012006F023FF00F026
:10830C00A9FB024B03221A6180BD00BF00400C4048
:10831C0080B500AF00F0C4FB00F0AEFB012006F00E
:10832C0027FF00F0ABFF00F031FA0CF023FA00F05D
:10833C0045FD06F0ADF90CF0E3FE80BD80B500AF55
:10834C00044B01221A70044B01221A7003F022F91B
:10835C0080BD00BF4C0400204D04002080B500AF50
:10836C00054B00221A70054B00221A70FFF7D0FF44
:10837C0003F028F980BD00BF4C0400204D04002000
:10838C0080B582B000AF0346FB710A4B1B78FA79BB
:10839C009A4200D10AE0FB79012B02D1FFF7CEFF04
:1083AC0004E0FB79002B01D1FFF7D8FF0837BD465D
:1083BC0080BD00BF4C04002080B400AF034B1B7881
:1083CC001846BD465DF8047B704700BF4C04002086
:1083DC0080B582B000AF0CF00FFB0BF0CDFE0CF0B3
:1083EC0087FB484B00221A70474B00221A7003F08F
:1083FC00EFFF05F085FD0BF087FD0AF039FA0AF066
:10840C0087FE04F0E7FA02200121FFF749FF022062
:10841C000021FFF745FF04200921FFF741FF002051
:10842C000F21FFF73DFF0CF07FFB0CF04DF900F036
:10843C001DF900F09DFE0CF077FB00F0E1FA00F066
:10844C002FFB06F0FFFB06F003FC00F023FE0CF004
:10845C006BFB06F02DFD012006F016FE012006F048
:10846C0087FE00F045FC00F0A9FC00F0B3FC02F024
:10847C0091FB02F001FA3B46184604F0EDFD7860E2
:10848C007B68002B04D03B681846796803F0AAF887
:10849C000AF058FD03F0EEF806F040F90CF044FB3E
:1084AC000CF034FE05F00EFC05F000FE06F08EF824
:1084BC0006F0EEF80BF0FEFB0CF036FB00F0DEFEE7
:1084CC0007F0BCFA05F09EFD0F4B1B78002B09D072
:1084DC0003F054F80346002B04D00B4B00221A7007
:1084EC00FFF7FAFE074B1B78012B09D1074B9B6852
:1084FC0003F00303002B03D00020FFF741FFE1E75B
:10850C00E0E700BF4C0400204D04002000400C406C
:10851C0080B483B000AF0346FB71084B97F907207A
:10852C005209F97901F01F01012000FA01F143F819
:10853C0022100C37BD465DF8047B704700E100E06B
:10854C0080B483B000AF0346FB71094B97F9072049
:10855C005209F97901F01F01012000FA01F1603292
:10856C0043F822100C37BD465DF8047B704700BF02
:10857C0000E100E080B483B000AF78607B685B6A98
:10858C0018460C37BD465DF8047B704780B483B049
:10859C0000AF786039607B683A681A620C37BD4668
:1085AC005DF8047B704700BF80B483B000AF786087
:1085BC0039607B685A693B681A437B685A610C378F
:1085CC00BD465DF8047B704780B483B000AF786023
:1085DC007B689B6918460C37BD465DF8047B704779
:1085EC0080B483B000AF78600B46FB70FA787B6880
:1085FC005A600C37BD465DF8047B704780B483B07D
:10860C0000AF03463960FB710948FA793B680121D8
:10861C0001FA03F319461346DB0013449B00034491
:10862C00103359600C37BD465DF8047B704700BFB2
:10863C000060004080B483B000AF03463960FB712A
:10864C000948FA793B68012101FA03F319461346EC
:10865C00DB0013449B000344103319600C37BD46F8
:10866C005DF8047B704700BF0060004080B500AF30
:10867C00074B084A1A600020002100F0E5F80120A1
:10868C00002100F0E1F80220002100F0DDF880BDAF
:10869C00640400200000204090B583B000AF114B63
:1086AC001B78FB71104B1B881B099BB23B60FB7941
:1086BC00184612F0E9FC04460C4B1B683A68D31AB6
:1086CC00184612F0E1FC03461846094912F08AFEDE
:1086DC0003462046194612F0EFFD034618460C37A8
:1086EC00BD4690BDB281E00FBE81E00F500400206A
:1086FC00288A223E80B582B000AF104B1B6818460A
:10870C0012F0DAFC02460E4B1B681046194612F0AA
:10871C0069FE034618460B4912F064FE03467B6063
:10872C007868094912F0D0FF0346002B01D0064BA4
:10873C007B607B6818460837BD4680BD540400201A
:10874C00640400208697023A6666864080B500AFC6
:10875C00084B1B68184612F0AFFC03461846064936
:10876C0012F040FE03461846044912F03BFE034645
:10877C00184680BD58040020010AA0398A4B863D5A
:10878C0080B400AFBD465DF8047B704780B400AF89
:10879C00BD465DF8047B704780B582B000AF1D48C4
:1087AC00FFF7E8FE78601C4B1B78DBB2012B07D07F
:1087BC00022B0DD0002B0FD1184B7A681A600BE0EE
:1087CC0005200221FFF71AFF154B7A681A6003E0A7
:1087DC00144B7A681A6000BF032006210022002384
:1087EC000DF072FF03200721002200230DF06CFF17
:1087FC000D4B01221A7007480121FFF7C7FE072015
:10880C00FFF79EFE094800210DF036FA0837BD46E9
:10881C0080BD00BF002000405D04002050040020FB
:10882C0054040020580400205C04002000020300C3
:10883C0080B500AFFFF7B0FF024B1B68184605F080
:10884C00CFFB80BD6004002080B588B000AF02462D
:10885C000B46FA71BB71494801210DF00DFA00234A
:10886C003B7600237B760023BB761F23FB7600230D
:10887C003B7700237B7700200CF072FF0346FB76DE
:10888C003F4800210CF03AFF03463B7700233B7333
:10889C0000237B730023BB730023FB7300233B7407
:1088AC0000237B740023BB740023FB7400233B75F3
:1088BC0008237B73FB79012B0BD0022B1BD0002BD5
:1088CC0027D10023BB7308233B742E4B20221A6044
:1088DC001FE003200621012200230DF0F5FE0520E8
:1088EC000221FFF7A7FE0223BB7306233B74254B23
:1088FC0040221A600DE003200721012200230DF015
:10890C00E3FE0023BB7307233B741E4B80221A60CB
:10891C0000BF07F118031C4819460CF077FE07F14D
:10892C000C03194819460CF0A1FE17480121FFF75A
:10893C003BFEBB79002B02D00720FFF7E9FD134B60
:10894C00FA791A70124B00221A700F480121FFF7A6
:10895C0047FEBB7983F00103DBB2002B0AD000BFCA
:10896C000948FFF731FE034603F00103002BF7D053
:10897C00FFF712FF2037BD4680BD00BF0002030089
:10898C00C0CF6A0060040020002000405D0400207D
:10899C005C04002080B483B000AF0346FB71094B2C
:1089AC0097F907205209F97901F01F01012000FA0B
:1089BC0001F1603243F822100C37BD465DF8047BA0
:1089CC00704700BF00E100E080B483B000AF034605
:1089DC003960FB710948FA793B68012101FA03F30C
:1089EC0019461346DB0013449B00034410331960F3
:1089FC000C37BD465DF8047B704700BF006000403B
:108A0C0090B585B000AF0E4801210DF035F90D4B36
:108A1C003C460FCB84E80F000B4B7B600B4BBB60D1
:108A2C003B460B4819460DF055FF094B40F203121B
:108A3C009A63074801210DF03DFF1437BD4690BDE8
:108A4C0000C2020070D40100006CDC023C6D01001D
:108A5C0000A4004080B500AF054B00229A63044887
:108A6C0000210DF027FF034800210DF005F980BD12
:108A7C0000A4004000C2020080B500AF06480121EE
:108A8C000DF0FAF8054B40F203129A6303480121EA
:108A9C000DF010FF80BD00BF00C2020000A400401A
:108AAC0080B500AF01200B21082201230DF00CFE34
:108ABC0001200C21082201230DF006FE00200921C3
:108ACC00FFF782FF64200BF0C3FC0A20FFF762FF64
:108ADC0080BD00BF80B500AF03480DF029FF0346F1
:108AEC001A46024B1A7080BD00A400406804002096
:108AFC0080B584B000AF78600023FB6039E0234878
:108B0C0079680EF031F903461A46214B1A7000238E
:108B1C00BB6010E01D480DF00BFF03461A461C4BC2
:108B2C001A701B4B1B78DBB25BB2012B00D007E039
:108B3C00BB680133BB60BA6842F20F739A42E9D941
:108B4C00134B1B78DBB25BB2B3F1FF3F03D1FB6875
:108B5C000133FB600DE00E4B1B78DBB2002B06D013
:108B6C000C484B210C4A03F08DFC00230AE0012336
:108B7C0008E0FB68042BC2D906485021064A03F0D2
:108B8C0081FC002318461037BD4680BD00A4004070
:108B9C006804002080D40100C4D4010080B588B0E2
:108BAC0000AF0B463A600246FA71BB71FB799BB27F
:108BBC00BB810423FB81BB1D3B610123BB823B6852
:108BCC00BB610123BB8307F10C031846FFF790FF31
:108BDC00034618462037BD4680BD00BF80B588B01F
:108BEC0000AF13460246FA710A46BA717B71FB79E3
:108BFC009BB2BB810823FB81BB1D3B610123BB8264
:108C0C007B1DBB610123BB8307F10C031846FFF7E7
:108C1C006FFF034618462037BD4680BD80B58AB02D
:108C2C0000AFBA607B600346FB730B46BB73FB7BE8
:108C3C009BB2BB820823FB8207F10E03BB610123AD
:108C4C00BB83BB683B627B689BB2BB8407F114039C
:108C5C001846FFF74DFF034618462837BD4680BD22
:108C6C0080B582B000AF01233B6000237B600448D9
:108C7C003B4693E8060009F0D9FE0837BD4680BD97
:108C8C007004002080B586B002AF4FF48030AF2165
:108C9C0006F008FD0346BB73BB7B03F01F03FB739D
:108CAC0019E0E8233B7307F10C023B1D06210091F0
:108CBC004FF480301146012206F0B6FC0B4B1B68BA
:108CCC00002B08D0094B1B68B888F9883A8900B288
:108CDC0009B212B29847FB7B5A1EFA73002BE0D1F3
:108CEC00FFF7BEFF1037BD4680BD00BF6C040020EF
:108CFC0080B582B000AF1E4B00221A604FF480305A
:108D0C008F2106F0CFFC0346FB71FB79332B05D08A
:108D1C0018488C21184A03F0B5FB25E04FF480303D
:108D2C002321A82206F03CFC4FF480302E21002297
:108D3C0006F036FC4FF480302E21902206F030FCE9
:108D4C004FF480302221062206F02AFC4FF48030AA
:108D5C002421402206F024FC0420084905F008F9DF
:108D6C000748064909F09EFD0837BD4680BD00BF87
:108D7C006C040020C8D401000CD50100918C0000BB
:108D8C007004002080B483B000AF7860034B7A6825
:108D9C001A600C37BD465DF8047B70476C040020EC
:108DAC0080B500AF044809F093FE4FF480302021C9
:108DBC00002206F0F5FB80BD7004002080B500AFEA
:108DCC00FFF74EFF4FF480302021372206F0E8FBEE
:108DDC0080BD00BF80B483B000AF0E4B00221A6080
:108DEC000D4B00221A600D4B00221A6000237B6091
:108DFC0007E00B4A7B68134400221A707B6801332E
:108E0C007B607B681F2BF4DD0C37BD465DF8047B63
:108E1C00704700BF7C04002080040020A4040020C4
:108E2C008404002080B400AF034B1B681846BD4679
:108E3C005DF8047B704700BF7C04002080B400AF59
:108E4C00054B1B68002B0CBF00230123DBB218461B
:108E5C00BD465DF8047B70477C04002080B582B071
:108E6C0000AF7860034B7A681A6001F083FE083714
:108E7C00BD4680BD7C04002080B582B000AF786018
:108E8C00094B1A687B681A44074B1A60064B1B681F
:108E9C00012B04D901F062FE034B01221A6001F090
:108EAC0069FE0837BD4680BD7C04002080B582B0C9
:108EBC0000AF78600A4B1B687A689A4205D901F0BA
:108ECC004DFE074B00221A6007E0054B1A687B68C1
:108EDC00D21A034B1A6001F04DFE0837BD4680BD17
:108EEC007C04002080B400AF034B1B681846BD46C1
:108EFC005DF8047B704700BF8004002080B400AF95
:108F0C00054B1B68002B0CBF00230123DBB218465A
:108F1C00BD465DF8047B70478004002080B582B0AC
:108F2C0000AF7860034B7A681A6001F02BFE0837AB
:108F3C00BD4680BD8004002080B582B000AF786053
:108F4C00094B1A687B681A44074B1A60064B1B685E
:108F5C00022B04D901F002FE034B02221A6001F02D
:108F6C0011FE0837BD4680BD8004002080B582B05C
:108F7C0000AF78600A4B1B687A689A4205D901F0F9
:108F8C00EDFD074B00221A6007E0054B1A687B6861
:108F9C00D21A034B1A6001F0F5FD0837BD4680BDAF
:108FAC008004002080B483B000AF0B4B00221A6009
:108FBC0000237B6007E0094A7B68134400221A7087
:108FCC007B6801337B607B681F2BF4DD0C37BD465F
:108FDC005DF8047B704700BFA404002084040020CB
:108FEC0080B582B000AF786039600D4B1A683B6871
:108FFC001344202B02D901F0B1FD0EE0084B1A6886
:10900C00084B1344184679683A6813F01DF8044B62
:10901C001A683B681A44024B1A600837BD4680BD7B
:10902C00A40400208404002080B582B000AF7860D6
:10903C003960084B1B68002B01D001F08FFDFFF746
:10904C00B1FF78683968FFF7CBFF01F009FE0837EC
:10905C00BD4680BDA404002080B584B000AFF8608C
:10906C00B9607A603B600A4B1B68002B01D001F0A1
:10907C0075FDFFF797FFF868B968FFF7B1FF7868DF
:10908C003968FFF7ADFF01F0EBFD1037BD4680BD31
:10909C00A404002080B582B000AFBB1D1C200721AA
:1090AC001A46FFF77BFD0346FB71FB7983F0010346
:1090BC00DBB2002B00D00AE0BB79C42B05D00548ED
:1090CC002D21054A03F0DEF901E000F007F808371E
:1090DC00BD4680BD10D5010058D5010080B582B0C9
:1090EC0000AF1C2011210022FFF778FD0346FB7115
:1090FC00FB7983F00103DBB2002B05D00D484C212A
:10910C000D4A03F0BFF912E01C2010210022FFF7DA
:10911C0065FD0346FB71FB7983F00103DBB2002B89
:10912C0005D004485121044A03F0ACF900BF0837BC
:10913C00BD4680BD10D5010058D5010080B400AFEC
:10914C000A49496C08464FF0000103000022074908
:10915C00096C08464FF0000142EA000243EA0103A1
:10916C0010461946BD465DF8047B7047B081E00F90
:10917C00B0B586B002AF234B00221A7022482349A7
:10918C004FF4C87203F026FA4FF4C87300932048CA
:10919C0020494022204B03F09BFB204804F0C6FEE4
:1091AC004FF480501E4904F0E3FEFFF7C7FFC7E9F8
:1091BC00020100237B601FE03B7A03F00F03FB707E
:1091CC00FB78092B03D8FB783033FB7002E0FB787B
:1091DC003733FB70FB789AB212497B685B000B4407
:1091EC005A80D7E90223140944EA03741D09C7E91C
:1091FC0002457B6801337B607B680F2BDCD9103711
:10920C00BD46B0BDA804002080060020F00400205C
:10921C00D806002020425355EC0600207D93000018
:10922C00B1940000BC03002080B400AF42F2333391
:10923C001846BD465DF8047B704700BF80B400AF94
:10924C0002231846BD465DF8047B704780B500AF1D
:10925C000EF014FD0346002B0CBF00230123DBB2E0
:10926C00184680BD80B500AF0EF008FD0346052BF7
:10927C0014BF00230123DBB2184680BD80B500AFBC
:10928C0001480EF007FD80BD2CD6010080B500AF63
:10929C000EF064FF80BD00BF80B588B000AF786071
:1092AC006FF00203FB617B681B78C3F34113DBB2E5
:1092BC00002B51D17B681B78C3F3C013DBB2012B9D
:1092CC004AD17B681B78C3F30403DBB2012B43D177
:1092DC007B685B78062B3FD17B685B889BB21B0A53
:1092EC009BB2222B15D12023BB617B689A79DB7949
:1092FC001B021343FB82FA8ABB699A4238BF13469E
:10930C00002018491A4600230EF03EFF0023FB6193
:10931C0021E07B685B889BB21B0A9BB2212B1AD184
:10932C0011481249092212F08FFE09233B617B6818
:10933C009A79DB791B021343FB81FA893B699A42C8
:10934C00B8BF1346002008491A4600230EF01CFF34
:10935C000023FB61FFE700BFFB6918462037BD46C1
:10936C0080BD00BF70D501007C080020A2D5010093
:10937C0080B500AF0EF0ACFE0346184680BD00BFB2
:10938C0080B582B000AF02460B46FA71BB7108483B
:10939C0009F0E8FEBB79052B02D1064803F038F939
:1093AC004FF4C05004F01CFE0837BD4680BD00BF12
:1093BC00204253558006002080B584B000AF034690
:1093CC00B9607A60FB734FF4805004F009FE97F992
:1093DC000F3013F10B0F04D097F90F3013F10A0F64
:1093EC0004D1234803F014F900233DE097F90F3022
:1093FC00002B0AD01F4840F297111F4A03F042F885
:10940C001B4803F005F900232EE019481B49BA68E4
:10941C0003F098F9164803F011F90346032B22D8F0
:10942C0001A252F823F000BF739400007394000063
:10943C00459400005F9400000D4B1A680C4BDB68E0
:10944C000F4811461A4603F0E9FA094803F0E0F810
:10945C0009E008484FF4D371074A03F013F80448A5
:10946C0003F0D6F800BF002318461037BD4680BD68
:10947C008006002048D601008CD60100B0040020E4
:10948C00D806002080B584B000AF0346B9607A607E
:10949C00FB734FF4805004F0A3FD002318461037E3
:1094AC00BD4680BD80B582B000AF0EF0E7FB034631
:1094BC00052B00D038E001200EF0C4FB034683F0EE
:1094CC000103DBB2002B10D0012019494022194BAB
:1094DC000EF084FD78607B68002B05D0164B1B6862
:1094EC005A1C154B1A6004E003E04FF4805004F052
:1094FC0069FD81200EF0A6FB034683F00103DBB26D
:10950C00002B0DD00D480E4903F036FA0346002B04
:10951C000AD081200A4940220A4B0EF035FE03E0A6
:10952C004FF4805004F04EFD0837BD4680BD00BF9F
:10953C00B0040020C5930000AC040020D806002025
:10954C00980600209194000080B584B000AF0346CB
:10955C00B9607A60FB73FB7B184600F0C9FD1037CD
:10956C00BD4680BD80B586B000AF0346B9607A6059
:10957C00FB73FB7B002B04D0FB7B184600F0C2FD79
:10958C001FE07B68022B02D001F0E8FA19E0BB68FF
:10959C001B781B029AB2BB6801331B7813439BB236
:1095AC00FB82FB8A1BB2002B07DBFB8A03F0010357
:1095BC00002B02D000F0B0FD03E0FB8A184601F04E
:1095CC0079FF1837BD4680BD80B584B000AF034627
:1095DC00B9607A60FB73FB7B002B04D0FB7B1846D5
:1095EC0000F0A0FD01E000F0A7FD1037BD4680BDE6
:1095FC0080B584B000AF0346B9607A60FB73FB7B27
:10960C00012B02D0022B03D005E001F0DFFD07E0B7
:10961C0001F006FE04E0FB7B184600F093FD00BF52
:10962C001037BD4680BD00BF80B588B000AF034683
:10963C00B9607A60FB73FB7B012B02D0022B10D03C
:10964C0012E0BB681B78FB77BB680133BB617B689E
:10965C00013B7B61FB7F1846B9697A6900F086FD96
:10966C0007E000F08FFD04E0FB7B184600F074FD72
:10967C0000BF2037BD4680BD80B584B000AF034627
:10968C00B9607A60FB73FB7B012B02D0022B03D0F9
:10969C0005E000F087FD07E000F08AFD04E0FB7BAD
:1096AC00184600F075FD00BF1037BD4680BD00BFE9
:1096BC0080B58AB002AF0346B9607A60FB73FB7B5E
:1096CC00002B04D0FB7B184600F078FD1EE0B86838
:1096DC0002F08CFB0346FB83BB689B787B77BB68F3
:1096EC00DB783B77BB680433184602F093FBB86118
:1096FC00BB681B7AFB75F98B7A7F3B7FF87D0090FA
:10970C00084611461A46BB6900F062FD2037BD467B
:10971C0080BD00BF80B586B000AF0346B9607A60EB
:10972C00FB73FB7B002B04D0FB7B184600F060FD29
:10973C0009E0BB687B61BB689B79FB74FB7C786937
:10974C00194600F05FFD1837BD4680BD80B586B068
:10975C0000AF0346B9607A60FB73FB7B002B04D02F
:10976C00FB7B184600F05AFD12E0B86802F03EFB95
:10977C000346FB82FB8A184611F086FC034618460A
:10978C00054911F02FFE03463B61386900F050FD8E
:10979C001837BD4680BD00BFAE47614080B586B06E
:1097AC0000AF0346B9607A60FB73FB7B002B04D0DF
:1097BC00FB7B184600F046FD14E0B86802F016FB7F
:1097CC000346FB82B7F91630184611F05DFC0346D0
:1097DC0018464FF07A5111F005FE03463B6138698B
:1097EC0000F03AFD1837BD4680BD00BF80B584B08F
:1097FC0000AF0346B9607A60FB73FB7B002B04D08F
:10980C00FB7B184600F032FD01E000F039FD10370B
:10981C00BD4680BD80B584B000AF0346B9607A60A8
:10982C00FB73FB7B002B04D0FB7B184600F02EFD5A
:10983C0001E000F035FD1037BD4680BD80B584B029
:10984C0000AF0346B9607A60FB73FB7B002B04D03E
:10985C00FB7B184600F02AFD01E000F031FD1037CB
:10986C00BD4680BD80B584B000AF0346B9607A6058
:10987C00FB73FB7B002B04D0FB7B184600F026FD12
:10988C0001E000F02DFD1037BD4680BD80B584B0E1
:10989C0000AF0346B9607A60FB73FB7B002B04D0EE
:1098AC00FB7B184600F022FD01E000F029FD10378B
:1098BC00BD4680BD80B584B000AF0346B9607A6008
:1098CC00FB73FB7B002B04D0FB7B184600F01EFDCA
:1098DC0001E000F025FD1037BD4680BD80B584B099
:1098EC0000AF0346B9607A60FB73FB7B002B04D09E
:1098FC00FB7B184600F01AFD01E000F021FD10374B
:10990C00BD4680BD80B584B000AF0346B9607A60B7
:10991C00FB73FB7B002B04D0FB7B184600F016FD81
:10992C0001E000F01DFD1037BD4680BD80B584B050
:10993C0000AF0346B9607A60FB73FB7B002B04D04D
:10994C00FB7B184600F012FD01E000F019FD10370A
:10995C00BD4680BD80B584B000AF0346B9607A6067
:10996C00FB73FB7B002B04D0FB7B184600F00EFD39
:10997C0001E000F015FD1037BD4680BD80B584B008
:10998C0000AF0346B9607A60FB73FB7B002B04D0FD
:10999C00FB7B184600F00AFD01E000F011FD1037CA
:1099AC00BD4680BD80B584B000AF0346B9607A6017
:1099BC00FB73FB7B002B04D0FB7B184600F006FDF1
:1099CC0001E000F00DFD1037BD4680BD80B584B0C0
:1099DC0000AF0346B9607A60FB73FB7B002B04D0AD
:1099EC00FB7B184600F002FD01E000F009FD10378A
:1099FC00BD4680BD80B584B000AF0346B9607A60C7
:109A0C00FB73FB7B002B04D0FB7B184600F0FEFCA9
:109A1C0001E000F005FD1037BD4680BD80B584B077
:109A2C0000AF0346B9607A60FB73FB7B002B04D05C
:109A3C00FB7B184600F0FAFC01E000F001FD10374A
:109A4C00BD4680BD80B584B000AFBA607B60034674
:109A5C00FB730B46BB73FB7B052B02D00120FFF77E
:109A6C000BFAFB7B013B1E2B00F2F18001A252F89A
:109A7C0023F000BFFD9A00005B9C00000B9B0000D4
:109A8C005B9C0000199B0000279B0000359B00008D
:109A9C00439B0000519B00005F9B00006D9B0000EE
:109AAC007B9B00004D9C0000899B0000979B000055
:109ABC00A59B0000B39B0000C19B0000CF9B000046
:109ACC00DD9B00005B9C00005B9C00005B9C00002D
:109ADC005B9C0000EB9B0000F99B0000079C0000C6
:109AEC00159C0000239C0000319C00003F9C000052
:109AFC00BB7B1846B9687A68FFF726FDAAE0BB7BEA
:109B0C001846B9687A68FFF72DFDA3E0BB7B1846B1
:109B1C00B9687A68FFF758FD9CE0BB7B1846B968BA
:109B2C007A68FFF765FD95E0BB7B1846B9687A68E3
:109B3C00FFF77AFD8EE0BB7B1846B9687A68FFF7B1
:109B4C009BFD87E0BB7B1846B9687A68FFF7B0FDD0
:109B5C0080E0BB7B1846B9687A68FFF7DBFD79E0DB
:109B6C00BB7B1846B9687A68FFF7F0FD72E0BB7BE7
:109B7C001846B9687A68FFF711FE6BE0BB7B184694
:109B8C00B9687A68FFF732FE64E0BB7B1846B968A7
:109B9C007A68FFF73FFE5DE0BB7B1846B9687A68D0
:109BAC00FFF74CFE56E0BB7B1846B9687A68FFF7A6
:109BBC0059FE4FE0BB7B1846B9687A68FFF766FE22
:109BCC0048E0BB7B1846B9687A68FFF773FE41E042
:109BDC00BB7B1846B9687A68FFF780FE3AE0BB7B1E
:109BEC001846B9687A68FFF78DFE33E0BB7B1846E0
:109BFC00B9687A68FFF79AFE2CE0BB7B1846B96807
:109C0C007A68FFF7A7FE25E0BB7B1846B9687A682F
:109C1C00FFF7B4FE1EE0BB7B1846B9687A68FFF705
:109C2C00C1FE17E0BB7B1846B9687A68FFF7CEFE19
:109C3C0010E0BB7B1846B9687A68FFF7DBFE09E0D9
:109C4C00BB7B1846B9687A68FFF7E8FE02E000F0C3
:109C5C0085FF00BF1037BD4680BD00BF80B584B006
:109C6C0000AF786039603B68042B02D000F076FFBF
:109C7C0010E07B685B78FB737B689B78BB737B68BD
:109C8C00DB787B73F97BBA7B7B7B084611461A46E3
:109C9C0001F050FA1037BD4680BD00BF80B582B0D0
:109CAC0000AF786039607B685A1C3B68013B1046FA
:109CBC00194600F0CBFB0837BD4680BD80B584B09B
:109CCC0000AF786039607B680133184602F08EF87B
:109CDC000346FB817B680333BB60FB891846B9687C
:109CEC0000F0BEFB1037BD4680BD00BF80B586B00E
:109CFC0000AF786039603B68022B02D800F02EFF71
:109D0C0013E07B685B78FB757B689B78BB757B6825
:109D1C0003333B613B68033BFB60FA7DBB7D104624
:109D2C0019463A69FB68FFF78DFE1837BD4680BDB2
:109D3C0080B588B002AF786039603B680F2B02D0D9
:109D4C0000F00CFF28E07B685B78FB757B680233C6
:109D5C003B617B680833184602F048F80346FB81E8
:109D6C007B680A33184602F041F80346BB817B68D6
:109D7C000C33184602F03AF803467B817B689B7BD8
:109D8C007B72F97DFA89BB8978890090787A019089
:109D9C000846396901F054FA1837BD4680BD00BF3A
:109DAC0080B584B000AF786039603B68032B02D07B
:109DBC0000F0D4FE0BE07B685B78FB737B689B78D0
:109DCC00BB73FA7BBB7B1046194601F07BFA10374C
:109DDC00BD4680BD90B587B002AF786039603B68F6
:109DEC00072B02D000F0BAFE1BE07B685B78FB739C
:109DFC007B689B78BB737B68DB787B737B681B7998
:109E0C003B737B685B79FB727B689B79BB72F87BDD
:109E1C00B97B7A7B3B7BFC7A0094BC7A019400F092
:109E2C002BFB1437BD4690BD80B586B000AF786073
:109E3C0039603B68112B02D000F090FE13E07B6878
:109E4C000133184602F002F8C7E904017B680933B4
:109E5C00184601F0FBFFC7E90201D7E90401D7E975
:109E6C00022301F099FA1837BD4680BD80B584B045
:109E7C0000AF786039603B68072B02D000F06EFEB3
:109E8C001CE07B680133184601F0B0FF0346FB81F0
:109E9C007B680333184601F0A9FF0346BB817B683E
:109EAC000533184601F0A2FF03467B81F989BA8974
:109EBC007B89084611461A4601F0E6F91037BD4673
:109ECC0080BD00BF80B584B000AF786039603B685E
:109EDC00072B02D000F042FE05E07B680133FB60EB
:109EEC00F86800F0D5FA1037BD4680BD80B584B057
:109EFC0000AF786039603B68022B02D000F02EFE78
:109F0C0006E07B685B78FB73FB7B184600F0CAFAB3
:109F1C001037BD4680BD00BF80B584B000AF7860FF
:109F2C0039603B68022B02D000F018FE06E07B681B
:109F3C005B78FB73FB7B184601F022FA1037BD46A9
:109F4C0080BD00BF80B586B000AF786039603B68DB
:109F5C00022B02D800F002FE13E07B685B78FB75E5
:109F6C007B689B78BB757B6803333B613B68033B29
:109F7C00FB60FA7DBB7D104619463A69FB6801F01F
:109F8C0017F91837BD4680BD80B586B000AF786034
:109F9C0039603B68012B02D800F0E0FD0EE07B68D5
:109FAC005B78FB757B6802333B613B68023BFB6073
:109FBC00FB7D18463969FA6801F058FA1837BD4626
:109FCC0080BD00BF80B584B000AF786039603B685D
:109FDC00022B02D000F0C2FD06E07B685B78FB73BD
:109FEC00FB7B184600F068FA1037BD4680BD00BFF9
:109FFC0080B584B000AF786039607B681B78FB73E8
:10A00C00FB7B813B0E2B6CD801A252F823F000BFD6
:10A01C0059A0000063A000006DA0000077A0000014
:10A02C0081A000008BA0000095A000009FA0000064
:10A03C00A9A00000C7A00000E5A00000DBA0000064
:10A04C00D1A00000B3A00000BDA000007868396862
:10A05C00FFF704FE48E078683968FFF71FFE43E01D
:10A06C0078683968FFF72AFE3EE078683968FFF7B0
:10A07C003DFE39E078683968FFF75AFE34E07868BD
:10A08C003968FFF78DFE2FE078683968FFF7A2FE7C
:10A09C002AE078683968FFF7C7FE25E078683968E8
:10A0AC00FFF7E4FE20E078683968FFF70BFF1BE050
:10A0BC0078683968FFF71AFF16E078683968FFF797
:10A0CC002BFF11E078683968FFF73CFF0CE07868EB
:10A0DC003968FFF759FF07E078683968FFF772FFB6
:10A0EC0002E000F03BFD00BF1037BD4680BD00BF55
:10A0FC0080B582B000AF0346FB7100F02FFD08372E
:10A10C00BD4680BD80B582B000AF0346FB7100F048
:10A11C0025FD0837BD4680BD80B500AF00F01EFDA3
:10A12C0080BD00BF80B582B000AF0346FB7100F06C
:10A13C0015FD0837BD4680BD80B400AFBD465DF847
:10A14C00047B704780B582B000AF0346FB7100F012
:10A15C0005FD0837BD4680BD80B582B000AF034613
:10A16C00FB7100F0FBFC0837BD4680BD80B485B0A8
:10A17C0000AFF860B9607A601437BD465DF8047BB7
:10A18C00704700BF80B400AFBD465DF8047B7047DC
:10A19C0080B582B000AF0346FB7100F0DFFC0837DE
:10A1AC00BD4680BD80B400AFBD465DF8047B7047F2
:10A1BC0080B400AFBD465DF8047B704780B582B0BB
:10A1CC0000AF0346FB7100F0C9FC0837BD4680BDEB
:10A1DC0080B483B000AF3B600346FB800B467B71C1
:10A1EC0013463B710C37BD465DF8047B704700BFCE
:10A1FC0080B582B000AF0346FB7100F0AFFC0837AE
:10A20C00BD4680BD80B483B000AF78600B46FB7058
:10A21C000C37BD465DF8047B704700BF80B582B03B
:10A22C0000AF0346FB7100F099FC0837BD4680BDBA
:10A23C0080B483B000AF78600C37BD465DF8047B0A
:10A24C00704700BF80B582B000AF0346FB7100F0D1
:10A25C0085FC0837BD4680BD80B483B000AF786004
:10A26C000C37BD465DF8047B704700BF80B582B0EB
:10A27C0000AF0346FB7100F071FC0837BD4680BD92
:10A28C0080B400AFBD465DF8047B704780B582B0EA
:10A29C0000AF0346FB7100F061FC0837BD4680BD82
:10A2AC0080B400AFBD465DF8047B704780B582B0CA
:10A2BC0000AF0346FB7100F051FC0837BD4680BD72
:10A2CC0080B400AFBD465DF8047B704780B582B0AA
:10A2DC0000AF0346FB7100F041FC0837BD4680BD62
:10A2EC0080B400AFBD465DF8047B704780B582B08A
:10A2FC0000AF0346FB7100F031FC0837BD4680BD52
:10A30C0080B400AFBD465DF8047B704780B582B069
:10A31C0000AF0346FB7100F021FC0837BD4680BD41
:10A32C0080B400AFBD465DF8047B704780B582B049
:10A33C0000AF0346FB7100F011FC0837BD4680BD31
:10A34C0080B400AFBD465DF8047B704780B582B029
:10A35C0000AF0346FB7100F001FC0837BD4680BD21
:10A36C0080B400AFBD465DF8047B704780B582B009
:10A37C0000AF0346FB7100F0F1FB0837BD4680BD12
:10A38C0080B400AFBD465DF8047B704780B582B0E9
:10A39C0000AF0346FB7100F0E1FB0837BD4680BD02
:10A3AC0080B400AFBD465DF8047B704780B582B0C9
:10A3BC0000AF0346FB7100F0D1FB0837BD4680BDF2
:10A3CC0080B400AFBD465DF8047B704780B582B0A9
:10A3DC0000AF0346FB7100F0C1FB0837BD4680BDE2
:10A3EC0080B400AFBD465DF8047B704780B582B089
:10A3FC0000AF0346FB7100F0B1FB0837BD4680BDD2
:10A40C0080B400AFBD465DF8047B704780B582B068
:10A41C0000AF0346FB7100F0A1FB0837BD4680BDC1
:10A42C0080B400AFBD465DF8047B704780B582B048
:10A43C0000AF0346FB7100F091FB0837BD4680BDB1
:10A44C0080B400AFBD465DF8047B704780B483B028
:10A45C0000AF786039600C37BD465DF8047B7047FF
:10A46C0080B582B000AF03463960FB8000F076FB0C
:10A47C000837BD4680BD00BF80B483B000AFF87113
:10A48C00B9717A713B710C37BD465DF8047B70472E
:10A49C0080B483B000AF78600C37BD465DF8047BA8
:10A4AC00704700BF80B483B000AF0346FB710C371C
:10A4BC00BD465DF8047B704780B483B000AF0346A3
:10A4CC00FB710C37BD465DF8047B704780B582B0DC
:10A4DC0000AF786039600120FEF7E8FC78683968D5
:10A4EC00FEF7A2FD0837BD4680BD00BF80B584B025
:10A4FC0000AFF860B9607A603B600120FEF7D6FCD3
:10A50C00F868B9687A683B68FEF7A6FD1037BD4657
:10A51C0080BD00BF80B582B000AF7860396001208B
:10A52C00FEF724FD78683968FEF77EFD0837BD46D6
:10A53C0080BD00BF80B584B000AFF860B9607A60B0
:10A54C003B600120FEF712FDF868B9687A683B6839
:10A55C00FEF782FD1037BD4680BD00BF80B584B0CC
:10A56C0000AF0346FB7102233B7301237B73FB7922
:10A57C00BB7307F10C0318460321FFF7A7FF103735
:10A58C00BD4680BD80B584B000AF0346FB8003237D
:10A59C003B7303237B73FB881B0A9BB2DBB2BB733D
:10A5AC00FB88DBB2FB7307F10C0318460421FFF7A1
:10A5BC008DFF1037BD4680BD80B582B000AF064A16
:10A5CC003B1D12881A803B1D18460221FFF77EFFA7
:10A5DC000837BD4680BD00BF90D6010080B582B063
:10A5EC0000AF064A3B1D12881A803B1D18460221FB
:10A5FC00FFF76CFF0837BD4680BD00BF94D6010045
:10A60C0080B584B000AF02460B46FA80BB800523B0
:10A61C003B720F237B72FB88DBB2BB72FB881B0A7D
:10A62C009BB2DBB2FB72BB88DBB23B73BB881B0AF1
:10A63C009BB2DBB27B7307F1080318460621FFF7C8
:10A64C0045FF1037BD4680BD80B584B000AF0346D2
:10A65C00FB7102233B7311237B73FB79BB7307F1F3
:10A66C000C0318460321FFF731FF1037BD4680BDA0
:10A67C0080B584B000AF0346FB7102233B731223F9
:10A68C007B73FB79BB7307F10C0318460321FFF7AF
:10A69C001DFF1037BD4680BD80B586B000AFF88079
:10A6AC00B9807A803B8009233B7313237B73FB882F
:10A6BC00DBB2BB73FB881B0A9BB2DBB2FB73BB88A0
:10A6CC00DBB23B74BB881B0A9BB2DBB27B747B880E
:10A6DC00DBB2BB747B881B0A9BB2DBB2FB743B887E
:10A6EC00DBB23B753B881B0A9BB2DBB27B7507F177
:10A6FC000C0318460A21FFF7E9FE1837BD4680BD4A
:10A70C0080B584B000AF0346FB7102233B731F235B
:10A71C007B73FB79BB7307F10C0318460321FFF71E
:10A72C00D5FE1037BD4680BD80B586B000AF034660
:10A73C00B9607A60FB737B68DBB20233DBB23B75CA
:10A74C000D237B75FB7BBB7507F1140318460321A6
:10A75C00BA687B68FFF7CAFE1837BD4680BD00BFDC
:10A76C0080B586B000AF0346B9607A60FB737B6836
:10A77C00DBB20233DBB23B7515237B75FB7BBB7500
:10A78C0007F1140318460321BA687B68FFF7D2FE61
:10A79C001837BD4680BD00BF80B584B000AF0346FE
:10A7AC00FB7102233B7316237B73FB79BB7307F19D
:10A7BC000C0318460321FFF7ADFE1037BD4680BDD4
:10A7CC0080B483B000AF03463960FB710949FA7954
:10A7DC001346DB0013449B000B4418335A683B6848
:10A7EC0022FA03F303F0010318460C37BD465DF85B
:10A7FC00047B70470060004080B483B000AF034618
:10A80C003960FB710948FA793B68012101FA03F3BD
:10A81C0019461346DB0013449B0003441033596064
:10A82C000C37BD465DF8047B704700BF00600040EC
:10A83C0080B483B000AF03463960FB710948FA79E4
:10A84C003B68012101FA03F319461346DB0013445C
:10A85C009B000344103319600C37BD465DF8047B34
:10A86C00704700BF0060004080B500AF00F0A4F955
:10A87C0000F056FC80BD00BF80B582B002AF314BFA
:10A88C0000221A60304B00221A60304B00221A60F2
:10A89C002F4B00221A602F494FF000024FF000039B
:10A8AC00C1E900232C494FF000024FF00003C1E92D
:10A8BC0000232A4B00221A70294B00221A80294BA4
:10A8CC0000221A80284829494FF4C87201F082FEF0
:10A8DC004FF4C8730093264826491422264B01F0E6
:10A8EC00F7FF264B00221A70254B00221A70254BBD
:10A8FC0000221A70244B00221A70244B00221A706A
:10A90C00234B00221A70234B00221A702248234931
:10A91C00072211F099FB224B07221A70214B0022BF
:10A92C001A80214B00221A80204B00221A802048CA
:10A93C00204903F01DFB2048204907F0B3FFBD461A
:10A94C0080BD00BF880800208C08002090080020E3
:10A95C009408002098080020A0080020A8080020D7
:10A96C00AA080020AC080020400A0020B0080020F3
:10A97C006C0A002020454C42800A0020100C00205C
:10A98C00200C0020210C0020220C0020230C002085
:10A99C00240C0020250C0020280C0020F4D80100E9
:10A9AC00300C0020320C0020340C0020360C00201F
:10A9BC0001C0010075A80000140C0020E1B40000D7
:10A9CC0080B584B000AF786078682A2101F060FC13
:10A9DC007868012101F05CFC404B1B6878681946D3
:10A9EC0001F056FC3E4B1B687868194601F050FC90
:10A9FC00FEF718FA03467868194601F049FCFEF791
:10AA0C0071FA03467868194601F042FC354B1B7805
:10AA1C007868194601F0FCFB334B1B7878681946B3
:10AA2C0001F0F6FB314B1B787868194601F0F0FB0E
:10AA3C002F4B1B797868194601F0EAFB0023FB7356
:10AA4C002C4B1B78002B03D0FB7B43F00103FB73D7
:10AA5C00294B1B78002B03D0FB7B43F00203FB73C9
:10AA6C00264B1B78002B03D0FB7B43F00403FB73BA
:10AA7C00234B1B78002B03D0FB7B43F00803FB73A9
:10AA8C00204B1B78002B03D0FB7B43F01003FB7394
:10AA9C00FB7B7868194601F0BBFB1B4B1B78786875
:10AAAC00194601F0B5FB194BD3E90023786801F086
:10AABC000DFC174B1B887868194601F0C9FB154B28
:10AACC001B887868194601F0C3FB134B1B69786827
:10AADC00194601F0DDFB1037BD4680BD880800200B
:10AAEC008C080020AE080020250C0020A8080020AF
:10AAFC00140C0020200C0020210C0020220C002023
:10AB0C00230C0020240C0020100C0020980800209E
:10AB1C00AA080020AC0800206C0A002080B582B086
:10AB2C0000AF78600A4B1B887868194601F090FBDF
:10AB3C00084B1B887868194601F08AFB064B1B886A
:10AB4C007868194601F084FB0837BD4680BD00BF0C
:10AB5C00320C0020340C0020360C002080B500AFE5
:10AB6C000248C821024A01F08DFC80BDFCD80100CE
:10AB7C0044D9010080B500AF4FF4004003F030FA27
:10AB8C0080BD00BF80B500AF4FF4804003F028FAC1
:10AB9C0080BD00BF80B500AF03200521FFF72CFE60
:10ABAC00642009F055FC03200521FFF741FE6420C9
:10ABBC0009F04EFC80BD00BF80B594B000AF0320FF
:10ABCC000421FFF7FDFD0346002B01D000233CE0E0
:10ABDC00204809F0AFFF204B1B68002B01D003234A
:10ABEC0000E001233B741D4B7B612023BB611A4B9E
:10ABFC001B68FB6107F12C033B6220237B62022361
:10AC0C00BB6202233B6007F110037B600123BB6036
:10AC1C000023FB603B464FF00110194604F064FC26
:10AC2C00012004F0A1FC09F0A9FFFEF7BBF997F88D
:10AC3C002D30FB64FB6C002B06D007F12C03023388
:10AC4C001846F96CFFF7D4F9012318465037BD4666
:10AC5C0080BD00BF48D90100A4040020840400205A
:10AC6C0080B582B000AF4FF0011004F007FC032058
:10AC7C000321FFF7C1FD00BF03200421FFF7A0FD56
:10AC8C000346002BF8D1FFF797FF0346FB71FB79C6
:10AC9C0083F00103DBB2002B05D0044840F209110C
:10ACAC00034A01F0EFFB0837BD4680BDFCD801001C
:10ACBC0050D9010080B582B000AF7860064B1A689D
:10ACCC007B681A43044B1A604FF4803003F07AF916
:10ACDC000837BD4680BD00BF8808002080B483B013
:10ACEC0000AF78607B68DA43044B1B681A40034B57
:10ACFC001A600C37BD465DF8047B7047880800204D
:10AD0C0080B582B000AF7860064B1A687B681A4336
:10AD1C00044B1A604FF4803003F054F90837BD46E9
:10AD2C0080BD00BF8C08002080B483B000AF786079
:10AD3C007B68DA43044B1B681A40034B1A600C37D0
:10AD4C00BD465DF8047B70478C0800202DE9F0436C
:10AD5C008BB000AF75E1AA4B1B6803F08003002B8E
:10AD6C000CD0FFF729FC8020FFF7B8FFA54B012280
:10AD7C001A704FF4005003F025F962E1A04B1B68E8
:10AD8C0003F48073002B06D0FFF728FC4FF480707F
:10AD9C00FFF7A4FF55E19A4B1B6803F00103002B4E
:10ADAC0002D000F013FA4CE1954B1B6803F0020340
:10ADBC00002B15D0944B1B78012094491A46FFF7B1
:10ADCC00B3FC0220FFF78AFF914B1B7883F0010341
:10ADDC00DBB2002B00F035810420FFF76BFF30E174
:10ADEC00874B1B6803F00403002B11D00023FB835B
:10ADFC004FF4C863BB83FA8BBB8B10461946FFF725
:10AE0C00FFFB0420FFF76AFF824B01221A7018E146
:10AE1C007B4B1B6803F00803002B11D008237B83AA
:10AE2C0010233B830023FB826423BB82788B398BFA
:10AE3C00FA8ABB8AFFF730FC0820FFF74FFF00E1CE
:10AE4C006F4B1B6803F01003002B45D001237B6272
:10AE5C0034E04FF001024FF00003796AA1F12006B3
:10AE6C00C1F1200003FA01F502FA06F6354322FA85
:10AE7C0000F0054302FA01F4C7E90245664BD3E939
:10AE8C000001D7E9022302EA000203EA010352EAB5
:10AE9C00030110D0D7E902236FEA02006FEA030125
:10AEAC005D4BD3E9002302EA000203EA01035A498D
:10AEBC00C1E9002305E07B6A01337B627B6A3E2B90
:10AECC00C7DD554BD3E9002352EA030140F0B980AA
:10AEDC001020FFF703FFB4E0494B1B6803F020037D
:10AEEC00002B4BD001233B623BE04FF001024FF0B3
:10AEFC000003396AA1F12006C1F1200003FA01F91F
:10AF0C0002FA06F649EA060922FA00F049EA0009B3
:10AF1C0002FA01F8C7E90089404BD3E90001D7E9EF
:10AF2C00002302EA000203EA010352EA030115D0EE
:10AF3C003B6ADBB21846FFF7E3FBD7E900236FEA65
:10AF4C0002006FEA0301354BD3E9002302EA000249
:10AF5C0003EA01033149C1E9002305E03B6A0133EF
:10AF6C003B623B6A3E2BC0DD2C4BD3E9002352EAFB
:10AF7C00030166D12020FFF7B1FE62E0204B1B6875
:10AF8C0003F04003002B06D00120FFF75DFB4020AF
:10AF9C00FFF7A4FE55E01A4B1B6803F40073002B5B
:10AFAC0007D00220FFF7DAFA4FF40070FFF796FE95
:10AFBC0047E0134B1B6803F48063002B12D0184B33
:10AFCC001B881846FFF7DEFA4FF48060FFF786FE09
:10AFDC00134B1B88B3F5404F33D14FF40060FFF790
:10AFEC0069FE2EE0064B1B6803F40063002B19D09E
:10AFFC00FF20FFF7B3FA4FF40060FFF76FFE20E07D
:10B00C0088080020A8080020300C0020280C002004
:10B01C00220C0020210C0020A00800209808002001
:10B02C00AA0800200E4B1B6803F48053002B08D099
:10B03C000C4B1B781846FFF71BFB4FF48050FFF7A7
:10B04C004DFE074B1B68002B05D0FDF7F7FE0346A2
:10B05C00002B7FF480AE2C37BD46BDE8F08300BFDB
:10B06C0088080020AE08002080B500AF0BE00B4B29
:10B07C001B6803F00103002B05D00320FFF78CFBAA
:10B08C000120FFF751FE054B1B68002B04D0FDF788
:10B09C0035FF0346002BEAD180BD00BF8C08002091
:10B0AC0080B483B000AF78607B68012202FA03F3AE
:10B0BC0018464FEAE071094BD3E9002302EA00027B
:10B0CC0003EA01031343002B0CBF00230123DBB263
:10B0DC0018460C37BD465DF8047B70479808002075
:10B0EC0080B500AF04E002200B491422FFF738FBB7
:10B0FC000220FFF7D5FF0346002B0BD0FDF7FEFE19
:10B10C000346002B06D00548034901F035FC0346E5
:10B11C00002BE8D180BD00BF580A00206C0A00202B
:10B12C0080B500AFFFF712FEFFF79EFFFFF7D8FFC9
:10B13C0080BD00BF80B582B000AF13460246FA71E5
:10B14C000A46BA717B717A79154B1A60154BFA79EC
:10B15C001A70FB79022B15D0032B09D0012B1BD1B4
:10B16C000120FDF77BFE4FF48060FFF7A3FD13E099
:10B17C000120FDF773FE0C4B00221A700220FFF722
:10B18C0099FD09E00120FDF769FE084B00221A60C9
:10B19C000120FFF78FFD00BF0837BD4680BD00BF03
:10B1AC0090080020250C0020100C00209408002092
:10B1BC0080B485B000AFBA607B600346FB730B466E
:10B1CC00BB731437BD465DF8047B704780B584B003
:10B1DC0000AF114B1B68102B00D919E00120FDF7B3
:10B1EC0065FE0D4B1B681A46511C0B4B1960134620
:10B1FC005B011344094A1344FB60FB680133BB60D9
:10B20C00BB681B7801337B60B8687968FDF70CFF6D
:10B21C001037BD4680BD00BF94080020C0D6010089
:10B22C0080B500AF044B01221A70044B03221A7034
:10B23C000120FFF753FD80BD200C0020AE0800203C
:10B24C0080B584B000AFB9600146F973BA81FB8058
:10B25C000A4B01221A704FF4005002F0C1FE084B49
:10B26C001B681846FDF75AFE064801F0D1F9082074
:10B27C00FFF720FD1037BD4680BD00BF220C00201B
:10B28C0090080020400A002080B483B000AF134621
:10B29C000246FA800A46BA807B80074BFA881A80ED
:10B2AC00064BBA881A80064B7A881A800C37BD4632
:10B2BC005DF8047B704700BF320C0020340C00207A
:10B2CC00360C002080B582B000AF02460B46FA71F6
:10B2DC00BB71214807F046FF204B00221A60204B1F
:10B2EC0000221A601F494FF000024FF00003C1E921
:10B2FC0000231D494FF000024FF00003C1E9002369
:10B30C001A4B00221A701A4B00221A70194B002289
:10B31C001A70194B00221A704FF4005002F060FEA4
:10B32C000020FDF7FBFD154B1B78012B07D0022BE2
:10B33C0009D0002B0CD10420FFF7BCFC08E08020C6
:10B34C00FFF7B8FC04E04FF40070FFF7B3FC00BF4C
:10B35C000837BD4680BD00BF20454C428808002000
:10B36C008C08002098080020A0080020210C002048
:10B37C00220C0020230C0020240C0020100C002098
:10B38C0080B582B000AF0346FB71FB791846FDF720
:10B39C00D3FD0837BD4680BD80B584B000AFC7E98A
:10B3AC000201C7E900230D49D7E90223C1E90023B3
:10B3BC000B49D7E90023C1E90023094BD3E900234A
:10B3CC0052EA030103D01020FFF774FC02E0054B96
:10B3DC0001221A701037BD4680BD00BF98080020AE
:10B3EC00A0080020230C002080B582B000AF78604C
:10B3FC0039601A4879683A6801F0A4F9174801F0E5
:10B40C001DF90346032B22D801A252F823F000BFEA
:10B41C005BB400005BB400002DB4000047B4000026
:10B42C000E4B1A680D4BDB680D4811461A4601F09D
:10B43C00F5FA0A4801F0ECF809E00A4840F222213A
:10B44C00094A01F01FF8054801F0E2F800BF01209D
:10B45C00FFF756FC0837BD4680BD00BF400A0020F0
:10B46C006C0A0020FCD8010044D9010080B584B0DE
:10B47C0000AF0346B9607A60FB73074B01221A7068
:10B48C00FB7B032B04D1B8687968FFF7ADFF00BFD5
:10B49C001037BD4680BD00BF240C002080B400AF27
:10B4AC00034B1B881846BD465DF8047B704700BFF4
:10B4BC00AC08002080B483B000AF0346FB80044B83
:10B4CC00FA881A800C37BD465DF8047B704700BFC4
:10B4DC00AC08002080B500AF054807F0F9FA054B21
:10B4EC004FF440421A804FF48060FFF7E3FB80BDBD
:10B4FC00140C0020AA08002080B584B000AF0346CD
:10B50C00381D80E80600FB810A4BFA891A800A4B29
:10B51C0002221A704020FFF7CDFB7B68002B05D070
:10B52C0006483B1D93E8060007F080FA1037BD462D
:10B53C0080BD00BFAA080020100C0020140C0020B5
:10B54C0080B582B000AF0346FB71054BFA791A70D7
:10B55C004FF48050FFF7AEFB0837BD4680BD00BFEF
:10B56C00AE08002080B400AF034B1B781846BD46D4
:10B57C005DF8047B704700BFAE08002080B400AFBC
:10B58C00034B1B781846BD465DF8047B704700BF23
:10B59C00A808002080B500AF074B1B78002B06D005
:10B5AC00064B01221A704020FFF784FB02E0044B8B
:10B5BC0080221A6080BD00BF220C0020100C0020DD
:10B5CC008808002080B500AF0120FDF747FC044B34
:10B5DC0000221A704FF48070FFF76CFB80BD00BF27
:10B5EC00A808002080B582B000AF786039603B6855
:10B5FC00082B01D908233B603B68002B08D10E486F
:10B60C000E49072210F020FD0D4B07221A7008E09E
:10B61C00094879683A6810F017FD3B68DAB2084BB4
:10B62C001A70084B1B78032B02D10220FFF742FB48
:10B63C000837BD4680BD00BF280C0020F4D801009F
:10B64C00300C0020250C002080B582B000AF786053
:10B65C00064B1B78786806491A4610F0F5FC034B2C
:10B66C001B7818460837BD4680BD00BF300C002043
:10B67C00280C002080B400AF044B00221A60034B4E
:10B68C0000225A60BD465DF8047B7047380C0020E0
:10B69C0080B485B000AF7860104B1B68002B0CD1C8
:10B6AC000E4B7A681A600D4B7A685A607B680022E0
:10B6BC001A607B6800225A600BE0084B5B68FB60E9
:10B6CC00064B7A685A607B68FA685A60FB687A683D
:10B6DC001A601437BD465DF8047B7047380C0020A7
:10B6EC0080B584B000AF78607B681B02FB6007F10B
:10B6FC000B03F8681946012208F0A8FCFB7AFE2B14
:10B70C0014BF00230123DBB218461037BD4680BDA1
:10B71C0080B588B000AFF860B9607A60F868FFF760
:10B72C00B7FF08F061FC7861BB687A6902FB03F231
:10B73C00FB689A607B6801337A6902FB03F2FB6851
:10B74C00DA6008F05FFCFB684FF0FF321A61FB68AF
:10B75C004FF0FF325A61FB689B681846FFF7C0FF39
:10B76C000346002B0AD0FB68DB68013B1846FFF749
:10B77C00B7FF0346002B01D0012300E00023FB742C
:10B78C00FB7C03F00103FB74FB7C002B2ED0FB68CD
:10B79C009B68FB6124E009F0C7F9F869FFF7A0FF8B
:10B7AC00034683F00103DBB2002B08D0FB685B6916
:10B7BC00B3F1FF3F11D1FB68FA695A610DE0FB68E8
:10B7CC001B69B3F1FF3F08D1FB685B69B3F1FF3F25
:10B7DC0003D0FB68FA691A6107E0FB690133FB616E
:10B7EC00FB68DA68FB699A42D5D82AE0FB689B684B
:10B7FC00BB6121E009F098F9B869FFF771FF0346C6
:10B80C00002B08D0FB681B69B3F1FF3F11D1FB681B
:10B81C00BA691A610DE0FB685B69B3F1FF3F08D1AF
:10B82C00FB681B69B3F1FF3F03D0FB68BA695A612F
:10B83C0007E0BB690133BB61FB68DA68BB699A42FC
:10B84C00D8D8FB681B69B3F1FF3F07D1FB689A6836
:10B85C00FB681A61FB681A69FB685A6108F0CCFB3B
:10B86C002037BD4680BD00BF80B483B000AF786088
:10B87C007B681A697B685B699A4205D87B685A6950
:10B88C007B681B69D31A0AE07B68DA687B681B69E2
:10B89C00D21A7B6859697B689B68CB1A134418468B
:10B8AC000C37BD465DF8047B704700BF80B584B093
:10B8BC0000AF78607B681B691B02FB6008F0A2FB81
:10B8CC0008F0A6FBFC23FB7207F10B03F868194682
:10B8DC00012208F0ADFB08F08FFB7B681B695A1C3A
:10B8EC007B681A617B681A697B68DB689A4203D3B0
:10B8FC007B689A687B681A611037BD4680BD00BFB3
:10B90C0090B5C9B000AF07F10C04206007F1080036
:10B91C000160391D0A603A4613603B461B68F82BE0
:10B92C0002D93B46F8221A6008F06CFB07F10C03B5
:10B93C001B685B691B02C7F81C3108F055FBC7F884
:10B94C00180107F10C031B685B69D7F81821B3FBCE
:10B95C00F2F2D7F8181101FB02F29B1A002B4ED110
:10B96C0007F11303D7F81C011946012208F06EFBEE
:10B97C0007F113031B78FF2B05D008F049FBD7F810
:10B98C001C0108F04BFB07F10C031B685A6907F10B
:10B99C000C031B681B699A4231D207F10C031B681C
:10B9AC001A6907F10C031B685969D7F818310B4455
:10B9BC009A4224D207F10C031B681A69D7F8183184
:10B9CC001A44D7F81831B2FBF3F3D7F8182102FB5D
:10B9DC0003F207F10C031B681A6107F10C031B68D7
:10B9EC001A6907F10C031B68DB689A4207D307F14D
:10B9FC000C031B689A6807F10C031B681A6107F1AA
:10BA0C0014031A464FF48073104600211A4610F0A6
:10BA1C003FFB07F11403FE221A703B461B68DAB297
:10BA2C0007F114035A7007F108031B68DAB207F127
:10BA3C0014031A7107F108031B681B0ADAB207F129
:10BA4C0014035A7107F108031B681B0CDAB207F1D7
:10BA5C0014039A7107F108031B681B0EDAB207F185
:10BA6C001403DA7107F1140303F108013A1D3B4684
:10BA7C00084611681A6810F0E7FA3B461B68043355
:10BA8C0007F1140204324FF6FF7011461A4600F00B
:10BA9C005DF90346A7F81631B7F81631DAB207F19B
:10BAAC0014039A70B7F816311B0A9BB2DAB207F17D
:10BABC001403DA7008F0ACFA3B461B68083307F144
:10BACC001402D7F81C0111461A4608F0B1FA08F016
:10BADC0093FA07F10C031B685B695A1C07F10C0302
:10BAEC001B685A6107F10C031B685A6907F10C03B8
:10BAFC001B68DB689A4207D307F10C031B689A6832
:10BB0C0007F10C031B685A6107F10C031B685A6997
:10BB1C0007F10C031B681B699A4204D107F10C0353
:10BB2C001868FFF7C3FE07F59277BD4690BD00BFBE
:10BB3C0090B5C7B000AF07F10C04206007F1080006
:10BB4C000160391D0A603A461360D7F82831F82B8A
:10BB5C0002D9F823C7F8283107F10C031B681A69BE
:10BB6C0007F108031B681A443B1D1B681A603B1D38
:10BB7C001B681A6807F10C031B68DB689A420FD329
:10BB8C0007F10C031B689A683B1D1B68196807F1C9
:10BB9C000C031B68DB68CB1A1A443B1D1B681A602C
:10BBAC003B1D1B681B681B02C7F8143108F02AFAEE
:10BBBC0007F11403D7F8140119464FF4807208F0FA
:10BBCC0045FA08F019FA07F114035B781A463B1D85
:10BBDC001B689A803B1D1B689B881A46D7F8283136
:10BBEC009A4205D9D7F828319AB23B1D1B689A8026
:10BBFC0007F114030233184600F0F8F803461A460E
:10BC0C003B1D1B68DA8007F114030433184600F05F
:10BC1C0001F902463B1D1B689A603B1D1B689B8803
:10BC2C00394607F114020832086811461A4610F01A
:10BC3C000BFA07F58E77BD4690BD00BF80B582B07C
:10BC4C0000AF786039603B681A687B681B699A4260
:10BC5C0000D002E07868FFF729FE0837BD4680BDAA
:10BC6C0080B582B000AF00237B600B4B1B683B6040
:10BC7C0009E03868FFF7F8FD03467A6813447B60E7
:10BC8C003B681B683B603B68002BF2D17B68184615
:10BC9C000837BD4680BD00BF380C002080B58AB087
:10BCAC0002AFF860B9607A603B60FB68FB61144BD3
:10BCBC001B68BB6118E0B869FFF7D6FD7861FA69BB
:10BCCC007B699A4209D23B680093B869F969BA68F2
:10BCDC007B68FFF72DFF00230DE0FA697B69D31A0F
:10BCEC00FB61BB691B68BB61BB69002BE3D1FB69C2
:10BCFC0001333B613B6918462037BD4680BD00BF10
:10BD0C00380C002080B584B000AF78600E4B1B68F7
:10BD1C00FB6013E0FB689A687B681B689A420AD840
:10BD2C007B681A68FB68DB689A4204D2F868796809
:10BD3C00FFF784FF05E0FB681B68FB60FB68002BCA
:10BD4C00E8D11037BD4680BD380C002080B487B0D8
:10BD5C0000AF0346B9607A60FB81FB89FB82BA684D
:10BD6C007B6813443B6129E0FB8A1B0A9BB29AB2A5
:10BD7C00FB8A1B029BB213439BB2FB82BB681B78F2
:10BD8C001A46FB8A5340FB82FB8ADBB21B119AB228
:10BD9C00FB8A53409BB2FB82FB8A1B039AB2FB8A41
:10BDAC0053409BB2FB82FB8ADBB25B019AB2FB8AEB
:10BDBC0053409BB2FB82BB680133BB60BA683B69E2
:10BDCC009A42D1D3FB8A18461C37BD465DF8047BDA
:10BDDC00704700BF80B483B000AF78607B681B787D
:10BDEC0018460C37BD465DF8047B704780B483B0B1
:10BDFC0000AF78607B6801331B781B029AB27B68BA
:10BE0C001B7813439BB29BB218460C37BD465DF8AA
:10BE1C00047B704780B483B000AF78607B680333D9
:10BE2C001B781A067B6802331B781B041A437B6849
:10BE3C0001331B781B021A437B681B78134318468B
:10BE4C000C37BD465DF8047B704700BFB0B586B0BB
:10BE5C0000AF78607868FFF7DDFF03461A464FF0B5
:10BE6C000003C7E904237B6808331846FFF7D2FFA9
:10BE7C0003461A464FF00003C7E90223D7E9022311
:10BE8C0015000024D7E9042342EA040243EA05031F
:10BE9C00104619461837BD46B0BD00BF80B584B0FA
:10BEAC0000AF78607868FFF7B5FF0346FB60FB686E
:10BEBC0018461037BD4680BD80B584B000AF7860A1
:10BECC0039603868FFF7A6FF0346BB603B68043354
:10BEDC001846FFF79FFF0346FB607B6807F10802DB
:10BEEC0092E8030083E8030078681037BD4680BDF4
:10BEFC0080B483B000AF78600B46FB707B68FA7837
:10BF0C001A700C37BD465DF8047B704780B483B063
:10BF1C0000AF78600B467B807B88DAB27B681A7046
:10BF2C007B6801337A88120A92B2D2B21A700C373B
:10BF3C00BD465DF8047B704780B483B000AF786079
:10BF4C0039603B68DAB27B681A707B6801333A68F7
:10BF5C00120AD2B21A707B6802333A68120CD2B24F
:10BF6C001A707B6803333A68120ED2B21A700C370F
:10BF7C00BD465DF8047B7047B0B584B000AFF86087
:10BF8C00C7E900233B68F8681946FFF7D5FFFB6843
:10BF9C00191DD7E900231C00002523460846194625
:10BFAC00FFF7CAFF1037BD46B0BD00BF80B584B0E7
:10BFBC0000AF78603960386807F024FA0346FB81DB
:10BFCC00FB8978681946FFF7A1FF1037BD4680BD85
:10BFDC0080B584B000AF786039603B68FB60FB686B
:10BFEC0078681946FFF7A8FF1037BD4680BD00BF23
:10BFFC0080B584B000AFF8603B1D83E806007B6819
:10C00C00F8681946FFF798FFFB681A1DBB681046C5
:10C01C001946FFF791FF1037BD4680BD80B485B03F
:10C02C0000AFF860B9607A60FB68BA681A60FB68A8
:10C03C007A685A60FB6800229A60FB680022DA601A
:10C04C001437BD465DF8047B704700BF80B483B0E5
:10C05C0000AF78607B685A687B689B68D31A184677
:10C06C000C37BD465DF8047B704700BF80B584B0CB
:10C07C0000AFF860B9607A60FB681A68FB68DB682F
:10C08C001344B86819467A680FF0DEFFFB68DA686B
:10C09C007B681A44FB68DA601037BD4680BD00BF70
:10C0AC0080B584B000AF78607B681A687B68DB6809
:10C0BC001344FB607B68DB685A1C7B68DA60F868A9
:10C0CC00FFF788FE034618461037BD4680BD00BFFB
:10C0DC0080B584B000AF78607B681A687B68DB68D9
:10C0EC001344FB607B68DB689A1C7B68DA60F86839
:10C0FC00FFF77CFE034618461037BD4680BD00BFD7
:10C10C0080B584B000AF78607B681A687B68DB68A8
:10C11C001344FB607B68DB681A1D7B68DA60F86887
:10C12C00FFF778FE034618461037BD4680BD00BFAA
:10C13C0080B584B000AF78607B681A687B68DB6878
:10C14C001344FB607B68DB681A1D7B68DA60F86857
:10C15C00FFF7A4FE034618461037BD4680BD00BF4E
:10C16C0080B584B000AF786039603B681A683B6872
:10C17C00DB681344FB603B68DB6803F108023B6837
:10C18C00DA607B681846F968FFF796FE7868103716
:10C19C00BD4680BD80B582B000AF786039607B68E9
:10C1AC009A683B681A447B685B689A4201D8012301
:10C1BC0005E005489321054A00F064F90023184670
:10C1CC000837BD4680BD00BF58D901009CD901007D
:10C1DC0080B584B000AFF860B9607A60F8687968AF
:10C1EC00FFF7D8FF0346002B0FD0FB681A68FB68DB
:10C1FC009B6813441846B9687A680FF025FFFB68F2
:10C20C009A687B681A44FB689A601037BD4680BDFB
:10C21C0080B584B000AF78600B46FB707868012164
:10C22C00FFF7B8FF0346002B0FD07B681A687B68BA
:10C23C009B681344FB607B689B685A1C7B689A6004
:10C24C00FB78F8681946FFF753FE1037BD4680BDE2
:10C25C0080B584B000AF78600B467B807868022193
:10C26C00FFF798FF0346002B0FD07B681A687B689A
:10C27C009B681344FB607B689B689A1C7B689A6084
:10C28C007B88F8681946FFF741FE1037BD4680BD24
:10C29C0080B584B000AF7860396078680421FFF70E
:10C2AC0079FF0346002B0ED07B681A687B689B686D
:10C2BC001344FB607B689B681A1D7B689A60F86866
:10C2CC003968FFF739FE1037BD4680BD80B586B0A2
:10C2DC0000AFF860C7E90023F8680821FFF75AFFA0
:10C2EC000346002B10D0FB681A68FB689B6813444C
:10C2FC007B61FB689B6803F10802FB689A607869B4
:10C30C00D7E90023FFF738FE1837BD4680BD00BFC4
:10C31C0080B584B000AF7860396078680221FFF78F
:10C32C0039FF0346002B0ED07B681A687B689B682C
:10C33C001344FB607B689B689A1C7B689A60F86866
:10C34C003968FFF733FE1037BD4680BD80B584B029
:10C35C0000AF7860396078680421FFF71BFF034653
:10C36C00002B0ED07B681A687B689B681344FB60BB
:10C37C007B689B681A1D7B689A60F8683968FFF7C0
:10C38C0027FE1037BD4680BD80B586B000AFF86083
:10C39C003B1D83E80600F8680821FFF7FBFE034607
:10C3AC00002B11D0FB681A68FB689B6813447B61F7
:10C3BC00FB689B6803F10802FB689A6078693B1D77
:10C3CC0093E80600FFF714FE1837BD4680BD00BF8A
:10C3DC0080B400AF064B00221A70064B00221A6084
:10C3EC00054B00221A70BD465DF8047B704700BFF8
:10C3FC00400C0020440C0020480C002080B483B07A
:10C40C0000AF7860034B7A681A600C37BD465DF854
:10C41C00047B7047440C002080B400AF034B1B68B6
:10C42C001846BD465DF8047B704700BF440C0020E5
:10C43C0080B400AF034B1B781846BD465DF8047BF7
:10C44C00704700BF480C002080B582B000AF034697
:10C45C00FB71054BFA791A7004483E213F22FFF715
:10C46C0057F90837BD4680BD480C00204C0C002005
:10C47C0080B483B000AF78600C37BD465DF8047BA8
:10C48C00704700BF80B5CCB000AF07F10C0318604B
:10C49C0007F1080319603B1D1A60484B01221A7002
:10C4AC00474B1B685A1C464B1A60464B1B7883F053
:10C4BC000103DBB2002B04D03B1D1868FFF7D8FF3B
:10C4CC0077E007F1180207F1280310461946F82205
:10C4DC00FFF7A4FD07F59073184608F09BF907F1D8
:10C4EC001803184607F5907393E80600FFF74CFF06
:10C4FC0007F10C031B68002B32D007F10C031868F2
:10C50C000FF0FEFD034607F1180107F10C02084677
:10C51C0011681A46FFF75CFE07F118031846202134
:10C52C00FFF776FE07F1100207F1080310462649C3
:10C53C001A680FF05FFD07F1100318460FF0E0FDCD
:10C54C00034607F1180107F11002084611461A4676
:10C55C00FFF73EFE07F1180318462021FFF758FE9F
:10C56C003B1D18680FF0CCFDC7F82C0107F1180320
:10C57C001846FFF76BFDC7F82801D7F82C21D7F820
:10C58C0028319A4203D9D7F82831C7F82C3107F152
:10C59C0018023B1D10461968D7F82C21FFF718FE1E
:10C5AC0007F118039B6807F1280208480849FFF7B0
:10C5BC00A7F907F59877BD4680BD00BF400C002059
:10C5CC00440C0020480C0020A0D901004C0C002089
:10C5DC0046444C4F80B485B000AFF860B9607A60C7
:10C5EC00FB68BA681A60FB687A685A60FB680022BC
:10C5FC001A72FB680022DA60FB6800221A61FB6881
:10C60C0000225A611437BD465DF8047B704700BFA9
:10C61C0080B483B000AF78607B6800221A727B68AC
:10C62C000022DA607B6800221A617B6800225A6162
:10C63C000C37BD465DF8047B704700BF80B483B0F7
:10C64C0000AF78607B681B7A18460C37BD465DF8E6
:10C65C00047B704780B483B000AF78607B680322A2
:10C66C001A720C37BD465DF8047B704780B586B0F6
:10C67C0000AFF860B9607A60FB685A697B68134454
:10C68C007B61FB68DA687B699A4205D2FB68DA68E1
:10C69C00FB685B69D31A7B60FB681A68FB685B6993
:10C6AC0013441846B9687A680FF0CEFCFB685A69D7
:10C6BC007B681A44FB685A61FB685A69FB68DB6843
:10C6CC009A4203D1FB6802221A7204E0FB681B69D0
:10C6DC005A1CFB681A611837BD4680BD80B584B002
:10C6EC0000AFF860B9607A607B68012B03D8F868FA
:10C6FC00FFF7B0FF22E0FB6801221A72B868FFF75F
:10C70C0075FB03461A46FB68DA60FB6800221A6167
:10C71C00FB6800225A61FB68DA68FB685B689A4226
:10C72C0003D9F868FFF796FF08E0BB689A1C7B6892
:10C73C00023BF86811461A46FFF798FF1037BD46C2
:10C74C0080BD00BF80B586B000AFF860B9607A607C
:10C75C007B68002B03D1F868FFF77CFF28E0BB68EF
:10C76C001B78FB75FB7D002B10D1FB681B69002B24
:10C77C0002D0F868FFF76EFFBB685A1C7B68013B60
:10C78C00F86811461A46FFF7A9FF11E0FA7DFB681D
:10C79C001B699A4203D0F868FFF75CFF08E0BB689E
:10C7AC005A1C7B68013BF86811461A46FFF75EFF7E
:10C7BC001837BD4680BD00BF80B483B000AF786031
:10C7CC007B6800221A607B6800221A717B68002249
:10C7DC009A607B680022DA607B6800221A610C3751
:10C7EC00BD465DF8047B704780B485B000AFF8603F
:10C7FC00B9607A60FB68BA681A60FB6801221A712A
:10C80C00FB687A689A60FB680022DA60FB68002299
:10C81C001A611437BD465DF8047B704780B586B04D
:10C82C0000AFF860B9607A60FB681B79012B01D00E
:10C83C00002349E0FB68DB68DAB2BB681A7001239D
:10C84C007B61FB68DB68002B0ED1BB680133FA6897
:10C85C009268D2B21A70BB680233FA689268120AF4
:10C86C00D2B21A7003237B61FB689A68FB681B6960
:10C87C00D31A3B617A687B69D21A3B699A4203D21C
:10C88C007A687B69D31A3B61FB681B68FA6811698B
:10C89C00B8687A690244084611463A699847FB68B9
:10C8AC001A693B691A44FB681A61FB68DB685A1CFD
:10C8BC00FB68DA60FB689A68FB681B699A4202D1D4
:10C8CC00FB6802221A71012318461837BD4680BD39
:10C8DC0080B485B000AFF860B9607A603B60FB68EB
:10C8EC00BA681A60FB687A685A60FB683A689A60A2
:10C8FC00FB68BA69DA60FB6800221A611437BD461E
:10C90C005DF8047B704700BF80B584B000AF7860E1
:10C91C0039607B681B69FB607B681A697B685B68A4
:10C92C001A447B68DB689A4204D97B68FA681A61FE
:10C93C0000231CE07B689A687B681B691A447B683F
:10C94C005B68386811461A46FFF768FF034683F0A8
:10C95C000103DBB2002B02D000BF012307E07B6890
:10C96C001A697B685B681A447B681A61D4E71846BD
:10C97C001037BD4680BD00BF80B582B000AF786077
:10C98C0039607B681B69002B01D100231EE07B689A
:10C99C009A687B685B68386811461A460FF054FB3E
:10C9AC007B681A697B685B68D21A7B681A617B6842
:10C9BC0099687B689A687B685B681A447B681B691A
:10C9CC00084611461A460FF0F9FA012318460837A3
:10C9DC00BD4680BD80B500AF0B48FFF7EDFE0B4B9D
:10C9EC0000221A600A4B00221A600A4800214FF4F8
:10C9FC0080620FF04DFB01F075F84FF400300649E2
:10CA0C0001F0B6FA80BD00BF70100020E80F0020C6
:10CA1C006C100020C011002021DC000080B586B015
:10CA2C0000AFF860B9607A60194B1B680F2B00D906
:10CA3C002BE0184B1A687B681344B3F5167F00D3B0
:10CA4C0023E0134B1B68DA00134B13447B617B69A7
:10CA5C00FA681A607B697A685A600E4B1A680F4B39
:10CA6C0013441846B9687A680FF0EEFA094B1A6845
:10CA7C007B681A44074B1A60054B1B685A1C044B05
:10CA8C001A604FF4003001F0ABFA1837BD4680BD88
:10CA9C006C100020E80F0020EC0F0020900D0020FF
:10CAAC0080B584B000AFF860B9607A60FA68054B65
:10CABC001344B86819467A680FF0C6FA1037BD46A9
:10CACC0080BD00BF8410002080B582B000AF7860BC
:10CADC000B46FB70074808494FF49672FFF79EFA15
:10CAEC00FB7804481946FFF793FB024B18460837AE
:10CAFC00BD4680BDB01100208410002080B584B0EC
:10CB0C0000AF78600D4B9B680D480E491A46FFF735
:10CB1C006BFE78680A49FFF7F7FE0346FB73FB7B55
:10CB2C0083F00103DBB2002B04D007488421074AB1
:10CB3C00FFF7A8FC1037BD4680BD00BFB011002028
:10CB4C0070100020ADCA0000B8D9010000DA010055
:10CB5C0080B58CB000AFF860B9607A6007F114034F
:10CB6C001846B9687A68FFF759FA07F114031846A2
:10CB7C00FFF7AEFA0346FB857A693B6A1344BB6246
:10CB8C00F8680121FFF7A0FF7862FB8D786A1946DF
:10CB9C00FFF75EFBFB8D786AB96A1A46FFF718FB44
:10CBAC00F868FFF7ABFF3037BD4680BD80B58CB061
:10CBBC0000AFF860B9607A6007F114031846B968E1
:10CBCC007A68FFF72BFA07F114031846FFF798FA67
:10CBDC00F86207F114031846FFF77AFA0346BB62B2
:10CBEC007A693B6A13447B62786AB96A07F0DAFCAB
:10CBFC00FB6A03F00103002B01D007F053FCFB6A26
:10CC0C0003F00203002B02D0012007F0D3FF3037D2
:10CC1C00BD4680BD80B58AB000AFF860B9607A605F
:10CC2C0007F114031846B9687A68FFF7F7F907F1AA
:10CC3C0014031846FFF734FA034687F8273097F8A1
:10CC4C002730184607F0B6FF2837BD4680BD00BF19
:10CC5C0080B582B000AF786078680121FFF7F8FAF0
:10CC6C0078680021FFF7F4FA78682E21FFF7F0FAC4
:10CC7C00786840F6FF71FFF70BFB786803491422C4
:10CC8C00FFF7A6FA0837BD4680BD00BFA4D9010046
:10CC9C0080B582B000AF7860786807F025FC083763
:10CCAC00BD4680BD80B586B002AF786007F070FCE1
:10CCBC00024607F10C0307F10A01009110460949DD
:10CCCC00012202F005FD7B8978681946FFF7C0FA4E
:10CCDC00FA687B89786811461A46FFF779FA10379B
:10CCEC00BD4680BD04DA010080B582B000AF78602B
:10CCFC00074B1B6878681946FFF7CAFA054B78682A
:10CD0C0093E80600FFF740FB0837BD4680BD00BF27
:10CD1C00842000208820002080B582B000AF78608D
:10CD2C0007F03CFF034678681946FFF771FA7868FC
:10CD3C002821FFF7ADFA786803492822FFF748FA53
:10CD4C000837BD4680BD00BF9020002080B582B062
:10CD5C0000AF7860FEF784FF034678681946FFF74A
:10CD6C0097FA0837BD4680BD80B582B000AF7860B9
:10CD7C0007F080FB034678681946FFF749FA083735
:10CD8C00BD4680BD80B582B000AF786007F08AFBED
:10CD9C000837BD4680BD00BF80B584B000AF786059
:10CDAC0007F10803184607F019FD786807F1080326
:10CDBC0093E80600FFF7E8FA1037BD4680BD00BFC8
:10CDCC0080B584B000AF786007F108031846796825
:10CDDC00FFF7C6F907F1080393E8030007F0D4FC4A
:10CDEC001037BD4680BD00BF80B588B000AF7860FD
:10CDFC0007F10C03184602F057FEFB6878681946D9
:10CE0C00FFF7A4FA3B6978681946FFF79FFA3B7D58
:10CE1C0078681946FFF7FCF97B7D78681946FFF7AF
:10CE2C00F7F9BB6978681946FFF790FAFB697868DF
:10CE3C001946FFF78BFA2037BD4680BD80B584B00C
:10CE4C0000AF78607868FFF773F9F860F86802F063
:10CE5C0063FE1037BD4680BD80B582B000AF7860F0
:10CE6C00FBF7AAFA034678681946FFF7D1F9083799
:10CE7C00BD4680BD80B584B000AF78607868FFF7A0
:10CE8C000FF90346FB73FB7B1846FBF779FA103757
:10CE9C00BD4680BD80B582B000AF7860FEF762FB06
:10CEAC00034678681946FFF7B3F90837BD4680BDCD
:10CEBC0080B584B000AF78607868FFF7F1F803466E
:10CECC00FB73FB7B1846FEF73BFB1037BD4680BD62
:10CEDC00B0B58CB000AF786007F050FB034607F19B
:10CEEC000C041D460FCD0FC40FCD0FC42B6823604F
:10CEFC00FA68154B9A4208D007F10C03184600212A
:10CF0C0024220FF0C5F801237B823B8A78681946EE
:10CF1C00FFF79EF97B8A78681946FFF799F9BB8A67
:10CF2C0078681946FFF794F9BB6978681946FFF7DA
:10CF3C00AFF907F10C031033786819461422FFF788
:10CF4C0047F93037BD46B0BD1ADA01B080B584B0B0
:10CF5C0000AF786007F0BEFE0346FB73FB7B78687E
:10CF6C001946FFF755F91037BD4680BD80B584B022
:10CF7C0000AF78607868FFF793F80346002B0CBF7E
:10CF8C0000230123FB73FB7B184607F06FFE103761
:10CF9C00BD4680BD80B584B000AF786001F06CFBFD
:10CFAC00F8607868F968FFF773F91037BD4680BDF3
:10CFBC0080B584B000AF78607868FFF7A1F8F860AE
:10CFCC00F86801F03FFB1037BD4680BD80B582B0DC
:10CFDC0000AF786078680321FFF75AF9FFF728FA59
:10CFEC00034678681946FFF753F9FFF715FA03461D
:10CFFC0078681946FFF74CF90837BD4680BD00BF6D
:10D00C0080B586B000AF78607868FFF779F8786102
:10D01C007B6903F00103002B0ED07868FFF770F8E2
:10D02C0038613B6903F00103002B0CBF0023012383
:10D03C00DBB21846FFF708FA7B6903F00203002BFA
:10D04C0006D07868FFF75CF8F860F868FFF7D6F957
:10D05C001837BD4680BD00BF80B586B002AF786082
:10D06C0007F096FA034607F10E020092184605499E
:10D07C0001227B6802F02CFBFB8918461037BD4659
:10D08C0080BD00BF0CDA010080B588B000AF7860BD
:10D09C0007F108031846FEF7D7FA0346FB77FB7F28
:10D0AC0078681946FFF7B4F8FB7F07F10802786837
:10D0BC0011461A46FFF78CF82037BD4680BD00BFDD
:10D0CC0080B590B000AF786039600123BB8100233C
:10D0DC00FB8107F10C0304331846002110220EF0DB
:10D0EC00D7FF01233B84042387F82230012387F8E0
:10D0FC0023303B689BB2BB840023FB8407F10C03F9
:10D10C001C3318460C4904220EF09EFF07F10C0349
:10D11C002033184679683A680EF096FF07F10C0335
:10D12C001846342107F03EFA78683968FEF75AFA47
:10D13C004037BD4680BD00BF0CDA010080B588B019
:10D14C0000AF78607868FEF7ABFF0346FB77FB7F98
:10D15C00142B01D91423FB77FB7F07F108027868A5
:10D16C0011461A46FEF782FFFB7F07F108021046B4
:10D17C001946FFF7A5FF2037BD4680BD80B582B0AC
:10D18C0000AF786007F0B4FD034678681946FFF7E6
:10D19C00BFF80837BD4680BD80B483B000AF78605F
:10D1AC000C37BD465DF8047B704700BF80B584B07A
:10D1BC0000AF78603960386807F016FE0346FB73E1
:10D1CC00FB7B78681946FFF723F81037BD4680BD06
:10D1DC0080B584B000AF786039607868FEF760FF86
:10D1EC000346002B0CBF00230123FB73FB7B386829
:10D1FC00194607F025FE1037BD4680BD80B582B0BC
:10D20C0000AF786006F066FD034678681946FEF7B5
:10D21C00FFFF0837BD4680BD80B584B000AF786095
:10D22C007868FEF73DFF0346002B0CBF002301235B
:10D23C00FB73FB7B184606F059FD1037BD4680BDCD
:10D24C0080B58CB000AFF860B9607A6007F1140358
:10D25C001846B9687A68FEF7E1FE07F11403184620
:10D26C00FEF74EFFB862F8680221FFF72DFC7862DA
:10D27C00BA6A5B4B1340786A1946FFF709F8012329
:10D28C00FB62A3E0FA6ABB6A1340002B00F09B80A0
:10D29C00FB6AB3F5007F6BD0B3F5007F1CD8102B65
:10D2AC0052D0102B0BD8022B42D0022B02D8012BC0
:10D2BC003AD088E0042B3FD0082B41D083E0402BA0
:10D2CC004AD0402B02D8202B42D07CE0802B47D078
:10D2DC00B3F5807F48D076E0B3F5804F5CD0B3F5E2
:10D2EC00804F10D8B3F5006F4AD0B3F5006F03D858
:10D2FC00B3F5806F40D066E0B3F5805F44D0B3F5F2
:10D30C00005F45D05FE0B3F5803F4DD0B3F5803F73
:10D31C0003D8B3F5004F43D055E0B3F5003F47D0E9
:10D32C00B3F5802F4BD04EE0786AFFF791FC4AE0C2
:10D33C00786AFFF7ADFC46E0786AFFF715FD42E02E
:10D34C00786AFFF729FD3EE0786AFFF74DFD3AE079
:10D35C00786AFFF7A7FC36E0786AFFF7C5FC32E085
:10D36C00786AFFF7F3FC2EE0786AFFF775FD2AE088
:10D37C00786AFFF78FFD26E0786AFFF7A9FD22E0B7
:10D38C00786AFFF723FE1EE0786AFFF77DFE1AE04D
:10D39C00786AFFF7C1FC16E0786AFFF7EFFE12E03F
:10D3AC00786AFFF7D3FD0EE0786AFFF7F3FD0AE029
:10D3BC00FB681B68786A1946FFF7F8FE03E0786A89
:10D3CC00FFF71CFF00BFFB6A5B00FB62FB6A002BD4
:10D3DC007FF458AFF868FFF791FB3037BD4680BD3E
:10D3EC00FFBF070080B58AB000AFF860B9607A6003
:10D3FC0007F110031846B9687A68FEF70FFE07F1BB
:10D40C0010031846FEF77CFE386201237B6280E035
:10D41C007A6A3B6A1340002B78D07B6AB3F5006FB5
:10D42C0047D0B3F5006F0FD8102B30D0102B04D889
:10D43C00042B20D0082B24D068E0B3F5807F2CD0AF
:10D44C00B3F5007F2FD061E0B3F5004F43D0B3F5B7
:10D45C00004F06D8B3F5805F31D0B3F5804F34D090
:10D46C0054E0B3F5003F42D0B3F5802F48D0B3F56C
:10D47C00803F36D04AE007F110031846FFF782FCD4
:10D48C0044E007F110031846FFF79AFC3EE007F161
:10D49C0010031846FFF7D2FC38E007F110031846CA
:10D4AC00FFF7E8FC32E007F110031846FFF700FD28
:10D4BC002CE007F110031846FFF7A2FD26E007F158
:10D4CC0010031846FFF73AFE20E007F11003184648
:10D4DC00FFF762FE1AE007F110031846FFF746FD4E
:10D4EC0014E007F110031846FFF762FD0EE0FB682D
:10D4FC001B6807F1100210461946FFF769FE05E09C
:10D50C0007F110031846FFF787FE00BF7B6A5B002C
:10D51C007B627B6A002B7FF47BAF2837BD4680BDD6
:10D52C0080B590B000AFF860B9607A6007F1240361
:10D53C001846B9687A68FEF771FD07F1240318469E
:10D54C00FEF7DEFDF86307F124031846FEF7D8FD5D
:10D55C00B86307F11003F86BB96B1A4603F0B8FA0D
:10D56C00F8681221FFF7B0FA786307F11003786BB3
:10D57C0019461422FEF72CFEF868FFF7BFFA403765
:10D58C00BD4680BD80B5CAB000AF07F10C03186072
:10D59C0007F1080319603B1D1A6007F5887107F144
:10D5AC0008023B1D084611681A68FEF737FD07F59F
:10D5BC0088731846FEF7A4FDC7F8240107F1100381
:10D5CC00D7F82401194603F099FA07F10C031868EF
:10D5DC001321FFF779FAC7F8200107F11003D7F8E8
:10D5EC00200119464FF48072FEF7F2FD07F10C038F
:10D5FC001868FFF783FA07F59477BD4680BD00BF26
:10D60C0080B592B000AFF860B9607A6007F128037A
:10D61C001846B9687A68FEF701FD07F12803184629
:10D62C00FEF73EFD03463B64F8680621FFF74CFA13
:10D63C00F8633B6CDBB2F86B1946FEF7E9FD00238F
:10D64C007B641CE007F128031846FEF741FD0346F6
:10D65C00BB6307F11403B86B194603F013FABB6BE9
:10D66C009BB2F86B1946FEF7F3FD07F11403F86B48
:10D67C0019461422FEF7ACFD7B6C01337B647A6C8B
:10D68C003B6C9A42DED3F868FFF738FA4837BD4650
:10D69C0080BD00BF80B58CB000AFF860B9607A6017
:10D6AC0007F114031846B9687A68FEF7B7FC07F15E
:10D6BC0014031846FEF7F4FC0346BB620023FB621E
:10D6CC000CE007F114031846FEF702FD03467B62DB
:10D6DC00786A03F031FAFB6A0133FB62FA6ABB6ABF
:10D6EC009A42EED33037BD4680BD00BF80B58AB0BC
:10D6FC0000AFF860B9607A6007F110031846B9689A
:10D70C007A68FEF78BFC07F110031846FEF7E0FC75
:10D71C0003467B623A69FB6913443B62786A396A57
:10D72C0003F02EFA2837BD4680BD00BF80B59AB0F5
:10D73C0000AFF860B9607A6007F150031846B96819
:10D74C007A68FEF76BFC07F150031846FEF7D8FC1D
:10D75C0003463B6107F150031846FEF7D1FC034624
:10D76C007B6107F1500207F110030833104619468C
:10D77C001422FEF77BFC07F1500207F110031C3357
:10D78C00104619461422FEF771FC07F1500207F1FE
:10D79C0010033033104619461022FEF767FC07F1D0
:10D7AC001003184603F046FA034687F86730F8680A
:10D7BC000921FFF789F9386697F86730386E1946F2
:10D7CC00FEF726FDF868FFF799F96837BD4680BD6E
:10D7DC0080B58CB000AFF860B9607A6007F11C03BB
:10D7EC001846B9687A68FEF719FC07F11C0318464D
:10D7FC00FEF76EFC0346FB8507F1140207F11C03D0
:10D80C0010461946FEF7ACFCFB8D184607F11403C5
:10D81C0093E80600FDF770FE3037BD4680BD00BFB3
:10D82C0080B584B000AFF860B9607A60FDF752FE45
:10D83C001037BD4680BD00BF80B586B000AFF86024
:10D84C00B9607A60F8680C21FFF73EF97861FDF752
:10D85C0025FE034678691946FEF7FAFCF868FFF7CF
:10D86C004DF91837BD4680BD80B58AB000AFF86061
:10D87C00B9607A6007F114031846B9687A68FEF744
:10D88C00CDFB07F114031846FEF70AFC034687F894
:10D89C0027302837BD4680BD80B582B000AF786098
:10D8AC0039607868FEF7FCFB03461A463B681A7031
:10D8BC007868FEF7F5FB03461A463B685A707868A1
:10D8CC00FEF7EEFB03461A463B689A700837BD46D6
:10D8DC0080BD00BF80B58EB000AFF860B9607A60D3
:10D8EC0007F128031846B9687A68FEF797FB07F129
:10D8FC0028031846FEF7D4FB03463B7607F12803B2
:10D90C001846FEF7CDFB03467B7607F12803184635
:10D91C00FEF7C6FB0346BB7607F1280207F1180396
:10D92C00033310461946FFF7B7FF07F1280207F13A
:10D93C001803063310461946FFF7AEFF07F128020D
:10D94C0007F11803093310461946FFF7A5FF07F135
:10D95C0028031846FEF7A4FB034687F8243007F18A
:10D96C00100207F1280310461946FEF7F9FB07F1E0
:10D97C001803184607F1100393E8060007F0DAFACB
:10D98C003837BD4680BD00BF80B58CB000AFF860A5
:10D99C00B9607A6007F11C031846B9687A68FEF71B
:10D9AC003DFB07F11C031846FEF77AFB0346002BE0
:10D9BC000CBF0023012387F82F3097F82F30002B52
:10D9CC000ED007F1140207F11C0310461946FEF79E
:10D9DC00C7FB07F1140393E8030007F097FA01E083
:10D9EC0007F0A2FA3037BD4680BD00BF80B58CB0C1
:10D9FC0000AFF860B9607A6007F110031846B96897
:10DA0C007A68FEF70BFB07F110031846FEF748FB8C
:10DA1C00034687F82F3007F110031846FEF740FB3A
:10DA2C00034687F82E30FB681B68BB6297F82F20E3
:10DA3C0097F82E3010461946BA6A05F0B3FB786297
:10DA4C00F8681421FFF740F8386297F82F30386ADD
:10DA5C001946FEF7DDFB97F82E30386A1946FEF7AB
:10DA6C00D7FB386A796AFEF713FCF868FFF746F8BB
:10DA7C003037BD4680BD00BF80B58AB000AFF860BE
:10DA8C00B9607A6007F110031846B9687A68FEF736
:10DA9C00C5FA07F110031846FEF732FB7862F868F6
:10DAAC001621FFF711F838627B6A03F00303386A1A
:10DABC001946FEF7EDFB7B6A03F00103002B02D045
:10DACC00386AFCF77DFF7B6A03F00203002B02D05F
