:10800000742D0020058200001782000019820000F4
:108010001B8200001D8200001F8200000000000083
:1080200000000000000000000000000021820000AD
:10803000238200000000000025820000278200004B
:10804000117E0100C5F800002D820000D50D010051
:10805000E90D0100C1BB010035820000D98E00008E
:10806000398200003B820000659200001DF900008B
:10807000418200005958010005690100FD0D010011
:108080000D0E01004B8200004D8200004F82000067
:108090005182000053820000558200005782000088
:1080A000598200005B8200005D8200005F82000058
:1080B0006182000063820000519D00006782000021
:1080C000698200006B8200006D8200006F820000F8
:0880D0007182000073820000C0
:1080D8002F49072291438D462E492F480A1A06D068
:1080E8000722914381F30988022282F314882B48DE
:1080F8002B492C4A00F039F82B482C492C4A00F01F
:1081080034F82C482C492D4A00F02FF82C482D49DA
:108118002D4A00F02AF82D482D492E4A00F025F85E
:108128002D482E492E4A00F020F82E482E490022CC
:1081380000F026F82D482E49091A082903DB0022E9
:108148000260043001601F481F49884205D0026858
:10815800043003B4904703BCF7E700208646EC469A
:1081680000200021234A9047FEE7884207D0521A90
:1081780005D0037801300B700131013AF9D170470D
:10818800884202D002700130FAE770471A487047F7
:10819800742D0020742D0020742D0020CCF70100D0
:1081A800C404002058050020848200008482000056
:1081B80050EC010008F4010000010020C404002074
:1081C80050EC010050EC010050EC010050EC0100B3
:1081D80050EC010050EC010050EC010050EC0100A3
:1081E80008F4010058050020741D0020741D0020AB
:1081F800741D002051890000FFFFFFFFDFF86CD0DD
:108208001B4880471B481C490160FFF761BFFEE718
:10821800FEE7FEE7FEE7FEE7FEE7FEE7FEE7FEE72E
:10822800FEE7FEE7FEE7FEE7FEE7FEE7FEE7FEE71E
:10823800FEE7FEE7FEE7FEE7FEE7FEE7FEE7FEE70E
:10824800FEE7FEE7FEE7FEE7FEE7FEE7FEE7FEE7FE
:10825800FEE7FEE7FEE7FEE7FEE7FEE7FEE7FEE7EE
:10826800FEE7FEE7FEE7FEE7FEE7FEE70080002008
:0C827800B16B010008ED00E00080000088
:1082840080B400AF72B641F62443C2F200031B6807
:10829400B3F1FF3F0BD041F62443C2F200031B6845
:1082A40003F1010241F62443C2F200031A6041F6CD
:1082B4002443C2F200031B681846BD4680BC7047C5
:1082C40080B483B000AF41F62443C2F200031B68BC
:1082D400002B17D041F62443C2F200031B6803F1BC
:1082E400FF3241F62443C2F200031A6041F62443EC
:1082F400C2F200031B687B607B68002B00D162B66E
:108304007B6801E04FF00003184607F10C07BD46F7
:1083140080BC704780B500AFFFF7B2FF80BD00BFDF
:1083240080B500AFFFF7CCFF80BD00BF80B582B041
:1083340002AF4FF45240C0F202004FF001010FF0BF
:10834400D3F84FF000004FF000014FF000024FF05F
:1083540000030FF04FFF4FF000004FF005014FF006
:1083640000024FF000030FF045FF4FF000004FF004
:1083740006014FF000024FF000030FF03BFF4FF0F7
:1083840002004FF002014FF000024FF000030FF023
:1083940031FF4FF002004FF003014FF000024FF0A5
:1083A40000030FF027FF4FF002004FF004014FF0DD
:1083B40000024FF000030FF01DFF4FF002004FF0DA
:1083C40005014FF000024FF000030FF013FF4FF0D0
:1083D40004004FF008014FF000024FF000030FF0CB
:1083E40009FF4FF004004FF00D014FF000024FF071
:1083F40000030FF0FFFE4FF004004FF00E014FF0AA
:1084040000024FF000030FF0F5FE4FF004004FF0B0
:108414000F014FF000024FF000030FF0EBFE4FF09E
:1084240005004FF00C014FF000024FF000030FF075
:10843400E1FE4FF005004FF002014FF004024FF04F
:1084440000030FF0D7FE4FF003004FF006014FF08A
:1084540000024FF000030FF0CDFE4FF002004FF08A
:1084640001014FF004024FF001030FF0C3FE4FF07F
:1084740002004FF000014FF004024FF001030FF02F
:10848400B9FE4FF004004FF009014FF004024FF021
:1084940001030FF0AFFE4FF000004FF00F014FF05B
:1084A40004024FF001030FF0A5FE4FF000004FF05F
:1084B40008014FF004024FF000030FF09BFE4FF051
:1084C40002004FF006014FF004024FF000030FF0DA
:1084D40091FE4FF002004FF007014FF004024FF0FD
:1084E40000030FF087FE4FF002004FF008014FF039
:1084F40002024FF000030FF07DFE4FF000004FF03A
:108504000A014FF002024FF000030FF073FE4FF028
:10851400010300934FF000004FF00A014FF00102F5
:108524004FF001030FF0F2FD4FF003004FF008018C
:108534004FF004024FF001030FF05CFE4FF0000017
:108544004FF004014FF001024FF000030FF052FE10
:108554004FF0010300934FF000004FF004014FF07F
:1085640001024FF001030FF0D1FD4FF000004FF076
:1085740002014FF004024FF000030FF03BFE4FF0F6
:1085840000004FF003014FF004024FF000030FF01E
:1085940031FE4FF004004FF00B014FF001024FF099
:1085A40000030FF027FE4FF004004FF00A014FF0D4
:1085B40004024FF000030FF01DFE4FF004004FF0D3
:1085C4000C014FF004024FF000030FF013FE4FF0C4
:1085D40005004FF000014FF000024FF000030FF0D0
:1085E40009FE4FF005004FF001014FF000024FF07B
:1085F40000030FF0FFFD4FF002004FF009014FF0B0
:1086040001024FF000030FF0F5FD4FF0010300935A
:108614004FF002004FF009014FF001024FF0010347
:108624000FF074FD4FF003004FF007014FF000020C
:108634004FF000030FF0DEFD4FF002004FF00A018F
:108644004FF004024FF000030FF0D4FD4FF002008E
:108654004FF00B014FF004024FF000030FF0CAFD7E
:108664004FF005004FF005014FF004024FF00003F6
:108674000FF0C0FD4FF005004FF00A014FF001026A
:108684004FF000030FF0B6FD4FF005004FF00B0163
:108694004FF001024FF000030FF0ACFD4FF0030068
:1086A4004FF001014FF002024FF001030FF0A2FD61
:1086B4004FF003004FF000014FF004024FF00103AC
:1086C4000FF098FD4FF003004FF002014FF0040249
:1086D4004FF001030FF08EFD4FF000004FF0010149
:1086E4004FF004024FF000030FF084FD4FF003003D
:1086F4004FF005014FF004024FF000030FF07AFD34
:108704004FF003004FF003014FF004024FF0010358
:108714000FF070FD4FF003004FF004014FF0020220
:108724004FF001030FF066FD4FF0010300934FF08B
:1087340003004FF004014FF001024FF001030FF06A
:10874400E5FC4FF000004FF009014FF004024FF038
:1087540000030FF04FFD4FF001004FF00B014FF0FD
:1087640004024FF000030FF045FD4FF001004FF0FD
:108774000C014FF004024FF000030FF03BFDBD4627
:1087840080BD00BF01387FF4FDAF704780B582B073
:1087940000AF78607A684FF45853C0F26E1303FB4D
:1087A40002F249F68173C1F25E63A3FB02134FEA3E
:1087B40093431846FFF7E6FF07F10807BD4680BD5F
:1087C40080B582B000AF786003E04FF4FA50FFF751
:1087D400D9FF7B68002B0CBF00230123DBB27A682E
:1087E40002F1FF327A60002BEFD107F10807BD4692
:1087F40080BD00BF80B483B000AF03463960FB7115
:108804004FF4C042C4F20002F9793B684FF0010012
:1088140000FA03F318460B464FEAC3035B184FEA0A
:108824008303D31803F11003586007F10C07BD4606
:1088340080BC704780B500AF07F010FB0AF086F8E3
:108844000EF00AF801F08EFB00F0D4FA01F0CAF938
:1088540000F0CCFE01F0C8F84FF0010008F0A0F9D8
:1088640000F0A4FC4FF48043C4F20C034FF0030265
:108874001A6180BD80B500AF00F0CCFC00F0B0FC04
:108884004FF0010008F0A6F901F062FB00F0B8FA1D
:1088940001F0B2F900F0BCFE07F08EFA07F0AEFB6F
:1088A40080BD00BF80B500AF40F25853C2F2000350
:1088B4004FF001021A7040F25953C2F200034FF014
:1088C40001021A7003F05EFF80BD00BF80B500AFE7
:1088D40040F25853C2F200034FF000021A7040F203
:1088E4005953C2F200034FF000021A70FFF7C2FF9F
:1088F40003F066FF80BD00BF80B582B000AF0346C1
:10890400FB7140F25853C2F200031B78FA799A4281
:108914000BD0FB79012B02D1FFF7C4FF06E0FB79F2
:10892400002B03D1FFF7D2FF00E000BF07F10807D7
:10893400BD4680BD80B400AF40F25853C2F200037C
:108944001B781846BD4680BC704700BF80B586B012
:1089540000AF0CF03BFEFFF7E9FC4FF48640C0F299
:1089640004004FF001010EF0BFFD4EF65042C0F27C
:10897400010207F108031068516803C3127A1A70E0
:108984004FF00B033B7407F10803184610F09AFCF0
:108994000CF0B2FE40F25853C2F200034FF0000252
:1089A4001A7040F25953C2F200034FF000021A70D9
:1089B40004F0DAFE06F0CEFE0CF0E0F80CF0A4FFB2
:1089C40005F05CFA4FF002004FF00101FFF712FFCF
:1089D4004FF002004FF00001FFF70CFF4FF00400CE
:1089E4004FF00901FFF706FF4FF000004FF00F01B1
:1089F400FFF700FF0CF0E4FE01F086F800F03AF90E
:108A040001F01CFA0CF0DCFE00F098FB00F002FC14
:108A140007F0A8FD07F0ACFD00F0BCFF0CF0D0FEA1
:108A240007F020FF4FF0010008F054F84FF0010068
:108A340008F0D0F800F06AFD00F0EAFD00F0F6FD61
:108A440003F082F802F0A4FE07F10403184605F0CF
:108A540055FE78617B69002B04D07B6818467969E0
:108A640003F0C0FE0CF0EEFB03F018FF07F000FB70
:108A74000DF070FB09F09EFF0CF0A2FE07F0C8FA9F
:108A840006F08CFC06F0DEFF07F05EF907F094F9BF
:108A94000CF096FE01F05CFA08F0B4FD00E000BFB3
:108AA40006F05CFF40F25953C2F200031B78002B1E
:108AB4000DD003F05BFE0346002B08D040F259535F
:108AC400C2F200034FF000021A70FFF7B3FE40F247
:108AD4005853C2F200031B78012BE0D14FF48043BA
:108AE400C4F20C039B6803F00303002BD7D04FF0B0
:108AF4000000FFF701FFD2E780B483B000AF034664
:108B0400FB714FF46143CEF2000397F907204FEA5B
:108B14005212F97901F01F014FF0010000FA01F13E
:108B240043F8221007F10C07BD4680BC704700BF14
:108B340080B483B000AF0346FB714FF46143CEF2BF
:108B4400000397F907204FEA5212F97901F01F0147
:108B54004FF0010000FA01F102F1600243F8221023
:108B640007F10C07BD4680BC704700BF80B483B0DA
:108B740000AF78607B685B6A184607F10C07BD4656
:108B840080BC704780B483B000AF786039607B6884
:108B94003A681A6207F10C07BD4680BC704700BFF3
:108BA40080B483B000AF786039607B685A693B68F1
:108BB4001A437B685A6107F10C07BD4680BC7047B5
:108BC40080B483B000AF78607B689B69184607F176
:108BD4000C07BD4680BC704780B483B000AF78609A
:108BE4000B46FB70FA787B685A6007F10C07BD46A8
:108BF40080BC704780B483B000AF03463960FB711A
:108C04004FF4C042C4F20002F9793B684FF001000E
:108C140000FA03F318460B464FEAC3035B184FEA06
:108C24008303D31803F11003586007F10C07BD4602
:108C340080BC704780B483B000AF03463960FB71D9
:108C44004FF4C042C4F20002F9793B684FF00100CE
:108C540000FA03F318460B464FEAC3035B184FEAC6
:108C64008303D31803F11003186007F10C07BD4602
:108C740080BC704780B500AF40F27053C2F200036D
:108C84004FF00002C4F220021A604FF000004FF0CF
:108C9400000100F02DF94FF001004FF0000100F049
:108CA40027F94FF002004FF0000100F021F980BDD8
:108CB40080B483B000AF786040F27053C2F2000316
:108CC4007A681A6007F10C07BD4680BC704700BF84
:108CD40080B400AF40F27053C2F200031B68184620
:108CE400BD4680BC704700BF90B583B000AF48F26A
:108CF400B213C0F6E0731B78FB7148F2BE13C0F6E2
:108D0400E0731B884FEA13139BB23B60FB79184650
:108D140014F07EFF044640F25C53C2F200031B6869
:108D24003A68D31A184614F073FF0346184648F6F7
:108D34002821C3F6226115F0A5F8034620461946FA
:108D440015F006F80346184607F10C07BD4690BD1A
:108D540080B582B000AF40F26053C2F200031B68DA
:108D6400184614F06DFF024640F27053C2F200033D
:108D74001B681046194615F085F80346184649F253
:108D84008671C3F6022115F07DF803467B6078688E
:108D940046F26661C4F2860115F014FA0346002B0C
:108DA40004D046F26663C4F286037B607B6818468F
:108DB40007F10807BD4680BD80B500AF40F264539B
:108DC400C2F200031B68184614F03AFF0346184623
:108DD40040F60121C3F6A01115F054F803461846D5
:108DE40044F68A31C3F6865115F04CF8034618460A
:108DF40080BD00BF80B400AFBD4680BC704700BFDB
:108E040080B400AFBD4680BC704700BF80B582B05F
:108E140000AF4FF40050C4F20000FFF7A7FE7860E3
:108E240040F26953C2F200031B78DBB2012B0AD073
:108E3400022B15D0002B1AD140F25C53C2F200036E
:108E44007A681A6013E04FF005004FF00201FFF753
:108E5400D1FE40F26053C2F200037A681A6006E061
:108E640040F26453C2F200037A681A6000BF4FF004
:108E740003004FF006014FF000024FF000030FF023
:108E8400B9F94FF003004FF007014FF000024FF023
:108E940000030FF0AFF940F26853C2F200034FF041
:108EA40001021A704FF40050C4F200004FF00101A7
:108EB400FFF768FE4FF00700FFF73AFE4FF400702B
:108EC400C0F203004FF000010EF00EFB07F108079B
:108ED400BD4680BD80B500AFFFF798FF40F26C53EC
:108EE400C2F200031B68184606F0D4FC80BD00BF24
:108EF40080B588B000AF02460B46FA71BB714FF4DF
:108F04000070C0F203004FF001010EF0EDFA4FF0D3
:108F140000033B764FF000037B764FF00003BB76F3
:108F24004FF01F03FB764FF000033B774FF0000335
:108F34007B774FF000000DF0D9FF0346FB764CF62B
:108F4400C070C0F26A004FF000010DF093FF0346B9
:108F54003B774FF000033B734FF000037B734FF0FC
:108F64000003BB734FF00003FB734FF000033B742B
:108F74004FF000037B744FF00003BB744FF0000309
:108F8400FB744FF000033B754FF008037B73FB79D0
:108F9400012B11D0022B2DD0002B43D14FF0000315
:108FA400BB734FF008033B7440F26C53C2F20003EE
:108FB4004FF020021A6035E04FF003004FF0060135
:108FC4004FF001024FF000030FF014F94FF00500C9
:108FD4004FF00201FFF72EFE4FF00203BB734FF078
:108FE40006033B7440F26C53C2F200034FF040029C
:108FF4001A6017E04FF003004FF007014FF0010231
:109004004FF000030FF0F6F84FF00003BB734FF07E
:1090140007033B7440F26C53C2F200034FF080022A
:109024001A6000BF07F118034FF40050C4F20000A7
:1090340019460DF09BFE07F10C034FF40050C4F2E7
:10904400000019460DF0C6FE4FF40050C4F20000B3
:109054004FF00101FFF7A4FDBB79002B03D04FF0C3
:109064000700FFF749FD40F26953C2F20003FA79A1
:109074001A7040F26853C2F200034FF000021A70F3
:109084004FF40050C4F200004FF00101FFF7A4FDBB
:10909400BB7983F00103DBB2002B0DD000BF4FF48A
:1090A4000050C4F20000FFF78BFD034603F00103F8
:1090B400002BF4D0FFF7AAFE07F12007BD4680BDC0
:1090C40080B483B000AF0346FB714FF46143CEF22A
:1090D400000397F907204FEA5212F97901F01F01B2
:1090E4004FF0010000FA01F102F1600243F822108E
:1090F40007F10C07BD4680BC704700BF80B483B045
:1091040000AF03463960FB714FF4C042C4F2000261
:10911400F9793B684FF0010000FA03F318460B4657
:109124004FEAC3035B184FEA8303D31803F1100318
:10913400186007F10C07BD4680BC704790B585B038
:1091440000AF4FF44240C0F202004FF001010EF0B4
:10915400CBF94EF65C43C0F201033C460FCB84E8E6
:109164000F004FF4D843C0F2DC237B6046F63C5337
:10917400C0F20103BB603B464FF42440C4F200003C
:1091840019460FF089F94FF42443C4F2000340F266
:1091940003129A634FF42440C4F200004FF001011B
:1091A4000FF068F907F11407BD4690BD80B500AF14
:1091B4004FF42443C4F200034FF000029A634FF4C7
:1091C4002440C4F200004FF000010FF053F94FF4B3
:1091D4004240C0F202004FF000010EF085F980BD5C
:1091E40080B500AF4FF44240C0F202004FF00101DD
:1091F4000EF07AF94FF42443C4F2000340F2031250
:109204009A634FF42440C4F200004FF001010FF0C0
:1092140031F980BD80B500AF4FF001004FF00B0174
:109224004FF008024FF001030EF0E4FF4FF001008D
:109234004FF00C014FF008024FF001030EF0DAFF7B
:109244004FF000004FF00901FFF758FF4FF06400A2
:10925400FFF7B6FA4FF00A00FFF732FF80BD00BFF8
:1092640080B500AF4FF42440C4F200000FF044F97D
:1092740003461A4640F27453C2F200031A7080BDCA
:1092840080B584B000AF78604FF00003FB605BE012
:109294004FF42440C4F2000079680FF07BFB0346CE
:1092A4001A4640F27453C2F200031A704FF00003DE
:1092B400BB6019E04FF42440C4F200000FF01CF925
:1092C40003461A4640F27453C2F200031A7040F285
:1092D4007453C2F200031B78DBB25BB2012B09D1D9
:1092E400BB6803F10103BB60BA6842F20F739A4290
:1092F400E0D900E000BF40F27453C2F200031B78CF
:10930400DBB25BB2B3F1FF3F04D1FB6803F10103AD
:10931400FB6019E040F27453C2F200031B78DBB225
:10932400002B0ED04EF66C40C0F201004FF04A0103
:109334004EF6B042C0F2010204F07CFA4FF0000392
:1093440013E04FF0010310E0FB68042BA0D94EF6A4
:109354006C40C0F201004FF04F014EF6B042C0F233
:10936400010204F067FA4FF00003184607F11007F2
:10937400BD4680BD80B588B000AF0B463A6002465A
:10938400FA71BB71FB799BB2BB814FF00403FB8183
:1093940007F106033B614FF00103BB823B68BB61ED
:1093A4004FF00103BB8307F10C031846FFF768FF76
:1093B4000346184607F12007BD4680BD80B588B036
:1093C40000AF13460246FA710A46BA717B71FB7903
:1093D4009BB2BB814FF00803FB8107F106033B619D
:1093E4004FF00103BB8207F10503BB614FF001039A
:1093F400BB8307F10C031846FFF742FF03461846E8
:1094040007F12007BD4680BD80B58AB000AFBA60C1
:109414007B600346FB730B46BB73FB7B9BB2BB8237
:109424004FF00803FB8207F10E03BB614FF0010309
:10943400BB83BB683B627B689BB2BB8407F11403AC
:109444001846FFF71DFF0346184607F12807BD46D7
:1094540080BD00BF80B582B000AF4FF001033B6018
:109464004FF000037B6040F27C50C2F200003B46A8
:1094740093E806000BF090FC07F10807BD4680BD99
:1094840080B586B002AF4FF480304FF0AF0107F0E3
:109494007BFE0346BB73BB7B03F01F03FB7323E01C
:1094A4004FF0E8033B7307F10C0207F104034FF09C
:1094B400060100914FF4803011464FF0010207F08D
:1094C40019FE40F27853C2F200031B68002B0BD044
:1094D40040F27853C2F200031B68B888F9883A89CD
:1094E40000B209B212B29847FB7B002B0CBF0023D9
:1094F4000123DBB2FA7B02F1FF32FA73002BCFD1E6
:10950400FFF7A8FF07F11007BD4680BD80B582B004
:1095140000AF40F27853C2F200034FF000021A6029
:109524004FF480304FF08F0107F02EFE0346FB719D
:10953400FB79332B0CD04EF6B440C0F201004FF04F
:109544008C014EF6F842C0F2010204F073F939E0DE
:109554004FF480304FF023014FF0A80207F07CFD58
:109564004FF480304FF02E014FF0000207F074FDED
:109574004FF480304FF02E014FF0900207F06CFD55
:109584004FF480304FF022014FF0060207F064FDE3
:109594004FF480304FF024014FF0400207F05CFD9F
:1095A4004FF0040049F28541C0F2000106F02AF9A7
:1095B40040F27C50C2F2000049F28541C0F2000141
:1095C4000BF0FEFA07F10807BD4680BD80B483B0F6
:1095D40000AF786040F27853C2F200037A681A60F0
:1095E40007F10C07BD4680BC704700BF80B500AFD3
:1095F40040F27C50C2F200000BF02EFC4FF480309D
:109604004FF020014FF0000207F026FD80BD00BF9F
:1096140080B500AFFFF71EFF4FF480304FF02001FC
:109624004FF0370207F018FD80BD00BF80B483B04F
:1096340000AF40F28853C2F200034FF000021A60F8
:1096440040F28C53C2F200034FF000021A6040F261
:10965400B053C2F200034FF000021A604FF000034F
:109664007B600CE040F29053C2F200037A689B18CE
:109674004FF000021A707B6803F101037B607B6882
:109684001F2BEFDD07F10C07BD4680BC704700BF00
:1096940080B400AF40F28853C2F200031B6818463E
:1096A400BD4680BC704700BF80B400AF40F2885311
:1096B400C2F200031B68002B0CBF00230123DBB2A2
:1096C4001846BD4680BC704780B582B000AF786054
:1096D40040F28853C2F200037A681A6002F024FA56
:1096E40007F10807BD4680BD80B582B000AF786041
:1096F40040F28853C2F200031A687B68D21840F221
:109704008853C2F200031A6040F28853C2F2000385
:109714001B68012B08D902F0F7F940F28853C2F212
:1097240000034FF001021A6002F0FEF907F1080786
:10973400BD4680BD80B582B000AF786040F28853EA
:10974400C2F200031B687A689A4209D902F0DCF974
:1097540040F28853C2F200034FF000021A600DE099
:1097640040F28853C2F200031A687B68D21A40F2AE
:109774008853C2F200031A6002F0D6F907F1080711
:10978400BD4680BD80B400AF40F28C53C2F20003EA
:109794001B681846BD4680BC704700BF80B400AF4C
:1097A40040F28C53C2F200031B68002B0CBF002351
:1097B4000123DBB21846BD4680BC704780B582B039
:1097C40000AF786040F28C53C2F200037A681A60EA
:1097D40002F0B2F907F10807BD4680BD80B582B03A
:1097E40000AF786040F28C53C2F200031A687B68C1
:1097F400D21840F28C53C2F200031A6040F28C5328
:10980400C2F200031B68022B08D902F07DF940F272
:109814008C53C2F200034FF002021A6002F08CF97A
:1098240007F10807BD4680BD80B582B000AF7860FF
:1098340040F28C53C2F200031B687A689A4209D939
:1098440002F062F940F28C53C2F200034FF00002BE
:109854001A600DE040F28C53C2F200031A687B6870
:10986400D21A40F28C53C2F200031A6002F064F977
:1098740007F10807BD4680BD80B483B000AF40F255
:10988400B053C2F200034FF000021A604FF000031D
:109894007B600CE040F29053C2F200037A689B189C
:1098A4004FF000021A707B6803F101037B607B6850
:1098B4001F2BEFDD07F10C07BD4680BC704700BFCE
:1098C40080B582B000AF7860396040F2B053C2F224
:1098D40000031A683B68D318202B02D902F014F94C
:1098E4001AE040F2B053C2F200031A6840F29053F7
:1098F400C2F20003D318184679683A6814F0AEFE31
:1099040040F2B053C2F200031A683B68D21840F226
:10991400B053C2F200031A6007F10807BD4680BDC8
:1099240080B582B000AF7860396040F2B053C2F2C3
:1099340000031B68002B01D002F0E6F8FFF79CFF40
:1099440078683968FFF7BCFF02F07EF907F1080771
:10995400BD4680BD80B584B000AFF860B9607A6060
:109964003B6040F2B053C2F200031B68002B01D0ED
:1099740002F0CAF8FFF780FFF868B968FFF7A0FFA4
:1099840078683968FFF79CFF02F05EF907F1100769
:10999400BD4680BD80B582B000AF07F106034FF02D
:1099A4001C004FF007011A46FFF7E4FC0346FB7165
:1099B400FB7983F00103DBB2002B11D1BB79C42BFB
:1099C4000CD04EF6FC40C0F201004FF02D014EF6D3
:1099D4004452C0F2010203F02DFF01E000F004F84C
:1099E40007F10807BD4680BD80B582B000AF4FF0D7
:1099F4001C004FF011014FF00002FFF7DFFC03469B
:109A0400FB71FB7983F00103DBB2002B0CD04EF623
:109A1400FC40C0F201004FF04C014EF64452C0F23B
:109A2400010203F007FF1CE04FF01C004FF010018F
:109A34004FF00002FFF7C2FC0346FB71FB7983F091
:109A44000103DBB2002B0CD04EF6FC40C0F2010047
:109A54004FF051014EF64452C0F2010203F0EAFE07
:109A640000BF07F10807BD4680BD00BF80B483B0C6
:109A740000AF0346FB714FF46143CEF2000397F944
:109A840007204FEA5212F97901F01F014FF001004B
:109A940000FA01F143F8221007F10C07BD4680BC1F
:109AA400704700BF80B400AF4FF00003C4F2080356
:109AB4005B681846BD4680BC704700BF80B483B065
:109AC40000AF78604FF00003C4F208037A689A612B
:109AD40007F10C07BD4680BC704700BF80B483B05B
:109AE40000AF78604FF00003C4F208034FF00002A7
:109AF400C4F20802D1697A680A43DA6107F10C07F3
:109B0400BD4680BC704700BF80B582B000AF40F254
:109B1400B453C2F200034FF000021A604FF48640BF
:109B2400C0F204004FF001010DF0DEFC4FF0000024
:109B34004FF001014FF001020EF0F4F84FF0020073
:109B4400C0F206004FF002010DF026FF4FF00300B3
:109B5400C0F212004FF002010DF01EFF41F230403E
:109B6400C0F208004FF001010DF0BEFC4FF4864036
:109B7400C0F204004FF001010DF0B6FC4FF40043B5
:109B8400C4F20C034FF40042C4F20C02126822F037
:109B9400607242F400021A604FF40043C4F20C03F2
:109BA4004FF00202C3F8802000F026F84FF00200C4
:109BB400FFF794FF4FF01E00FFF758FF4EF648538F
:109BC400C0F2010307F1040219889B781180937095
:109BD40007F1040318460FF039F907F10807BD46E9
:109BE40080BD00BF80B500AF4FF000004FF6FF719D
:109BF4000FF0F8F880BD00BF80B500AF4FF0000053
:109C040040F2FF310FF0EEF80FF04AF980BD00BFCB
:109C140080B582B000AF3B4683E80300FEF77AFBD1
:109C24004FF000533A685A604FF0005279684DF68D
:109C34008363C4F21B33A3FB01034FEA533347F698
:109C4400122101FB03F39360FEF76AFB07F1080797
:109C5400BD4680BD80B400AF4FF000535B6818462A
:109C6400BD4680BC704700BF80B584B000AF78604B
:109C7400FEF750FB4FF000539B68FB604FF000531E
:109C84005B68BB60FEF74CFB7B6807F1080292E857
:109C9400030083E80300786807F11007BD4680BD20
:109CA40080B586B000AF786000E000BF4FF000538D
:109CB4009B68FB604FF000535B68BB60FFF7F2FEEC
:109CC40078614FF000539B683B61FA683B699A42A4
:109CD400EBD100BFFA687B6947F6122101FB03F35D
:109CE4004FEA9323D318FB607B6807F1080292E8DC
:109CF400030083E80300786807F11807BD4680BDB8
:109D040080B582B000AF7860FEF704FB40F2B45334
:109D1400C2F200037A681A60FEF702FB07F1080733
:109D2400BD4680BD80B582B000AFFEF7F3FA40F2C5
:109D3400B453C2F200031B687B60FEF7F1FA7B6840
:109D4400184607F10807BD4680BD00BF80B582B044
:109D540000AF4FF00200FFF7B1FE4FF00003C4F272
:109D640008039A6840F2FF339A423DD14FF0005302
:109D74009B6803F5F44303F112037B607A6844F2B1
:109D84003F23C0F20F039A420BD97B68A3F57423D7
:109D9400A3F510737B604FF000535A6802F101027F
:109DA4005A604FF000537A689A604FF4807005F05F
:109DB40071FD40F2B453C2F200031B68002B1BD0A8
:109DC40040F2B453C2F200031B6803F1FF331A4696
:109DD40040F2B453C2F200031A60002A0CD14FF4CB
:109DE400007005F057FD07E04FF000534FF00052AC
:109DF400526802F102025A6007F10807BD4680BDAD
:109E040090B400AF48F2B013C0F6E0735C6C224625
:109E14004FF0000311464FF0000048F2B013C0F6B3
:109E2400E0731C6C22464FF0000342EA000243EA4E
:109E3400010310461946BD4690BC704780B586B0F4
:109E440002AF40F2B853C2F200034FF000021A709E
:109E540040F29070C2F2000040F20061C2F20001D0
:109E64004FF4C87203F0A0FD4FF4C873009340F29E
:109E7400E870C2F2000044F22021C5F253514FF0C1
:109E8400400240F2FC73C2F2000303F037FF4AF2CF
:109E94007100C0F2000005F085FC4FF480504AF2D6
:109EA400F511C0F2000105F0ADFCFFF7A9FFC7E909
:109EB40002014FF000037B602BE03B7A03F00F03B9
:109EC400FB70FB78092B04D8FB7803F13003FB709B
:109ED40003E0FB7803F13703FB70FB7899B240F29F
:109EE400C442C2F200027B684FEA4303D3180A4615
:109EF4005A80FB684FEA0373BA684FEA121213439D
:109F0400BB60FB684FEA1313FB607B6803F101033A
:109F14007B607B680F2BD0D907F11007BD4680BD4D
:109F240080B500AF0FF000FE0346002B0CBF0023EA
:109F34000123DBB2184680BD80B500AF0FF0F4FDFD
:109F44000346052B14BF00230123DBB2184680BD52
:109F540080B500AF4EF61C60C0F201000FF0F0FDBA
:109F640080BD00BF80B500AF10F0E0F880BD00BF39
:109F740080B588B000AF78606FF00203FB617B6846
:109F84001B7803F06003DBB2002B66D17B681B787F
:109F940023F07F03DBB2002B5FD07B681B7803F0D8
:109FA4001F03DBB2012B58D17B685B78062B54D19D
:109FB4007B685B889BB24FEA13239BB2222B1DD193
:109FC4004FF02003BB617B689A79DB794FEA032366
:109FD4001343FB82FA8ABB699A4238BF13464FF097
:109FE40000004EF66051C0F201011A464FF0000322
:109FF40010F0BAF84FF00003FB612DE07B685B883A
:10A004009BB24FEA13239BB2212B25D140F68C102F
:10A01400C2F2000014494FF0090214F01FFB4FF084
:10A0240009033B617B689A79DB794FEA0323134385
:10A03400FB81FA893B699A42B8BF13464FF000008E
:10A0440040F68C11C2F200011A464FF0000310F0E2
:10A054008BF84FF00003FB6100BFFB69184607F162
:10A064002007BD4680BD00BF92ED010080B500AF62
:10A0740010F002F80346184680BD00BF80B582B0D8
:10A0840000AF02460B46FA71BB7144F22050C4F291
:10A094004C200BF067FCBB79052B05D140F2907086
:10A0A400C2F2000003F0A2FC4FF4C05005F0F2FB32
:10A0B40007F10807BD4680BD80B584B000AF0346F4
:10A0C400B9607A60FB734FF4805005F0E3FB97F9B5
:10A0D4000F3013F10B0F04D097F90F3013F10A0F5F
:10A0E40008D140F29070C2F2000003F07FFC4FF000
:10A0F400000365E097F90F30002B14D04EF638605A
:10A10400C0F2010040F28D114EF67C62C0F20102F1
:10A1140003F090FB40F29070C2F2000003F066FC82
:10A124004FF000034CE040F29070C2F2000040F2A5
:10A13400C051C2F20001BA6803F002FD40F290700F
:10A14400C2F2000003F06CFC0346032B36D801A2D4
:10A1540052F823F0C1A10000C1A1000069A10000D0
:10A164009BA1000040F29073C2F200031A6840F20F
:10A174009073C2F20003DB6840F2E870C2F20000A0
:10A1840011461A4603F09AFE40F29070C2F20000A3
:10A1940003F02CFC12E04EF63860C0F201004FF4DC
:10A1A400CE714EF67C62C0F2010203F043FB40F232
:10A1B4009070C2F2000003F019FC00BF4FF00003DE
:10A1C400184607F11007BD4680BD00BF80B584B0B6
:10A1D40000AF0346B9607A60FB734FF4805005F01A
:10A1E40059FB4FF00003184607F11007BD4680BD28
:10A1F40080B582B000AF0FF097FC0346052B57D112
:10A204004FF001000FF070FC034683F00103DBB252
:10A21400002B1ED04FF0010040F2C051C2F20001E9
:10A224004FF040024AF2BD03C0F200030FF0A0FE5B
:10A2340078607B68002B10D040F2BC53C2F200035C
:10A244001B6803F1010240F2BC53C2F200031A601E
:10A2540003E04FF4805005F00DFB4FF081000FF048
:10A2640043FC034683F00103DBB2002B1BD040F216
:10A27400E870C2F2000040F2A871C2F2000103F0DB
:10A2840093FD0346002B14D04FF0810040F2A871D7
:10A29400C2F200014FF040024AF2D113C0F20003AF
:10A2A4000FF062FF05E04FF4805005F0E3FA00E0A0
:10A2B40000BF07F10807BD4680BD00BF80B584B06C
:10A2C40000AF0346B9607A60FB73FB7B184600F06D
:10A2D4001DFE07F11007BD4680BD00BF80B586B0E6
:10A2E40000AF0346B9607A60FB73FB7B002B04D09C
:10A2F400FB7B184600F016FE21E07B68022B02D09F
:10A3040001F002FC1BE0BB681B784FEA03239AB2FE
:10A31400BB6803F101031B7813439BB2FB82FB8AE6
:10A324001BB2002B07DBFB8A03F00103002B02D0D6
:10A3340000F004FE03E0FB8A184602F0A7F907F1D7
:10A344001807BD4680BD00BF80B584B000AF03468A
:10A35400B9607A60FB73FB7B002B04D0FB7B18464F
:10A3640000F0F2FD01E000F0FBFD07F11007BD462F
:10A3740080BD00BF80B584B000AF0346B9607A6089
:10A38400FB73FB7B012B02D0022B03D005E001F011
:10A39400B9FF07E001F0EEFF04E0FB7B184600F094
:10A3A400E5FD00BF07F11007BD4680BD80B588B04C
:10A3B40000AF0346B9607A60FB73FB7B012B02D0CC
:10A3C400022B12D014E0BB681B78FB77BB6803F147
:10A3D4000103BB617B6803F1FF337B61FB7F18469C
:10A3E400B9697A6900F0DAFD07E000F0E3FD04E002
:10A3F400FB7B184600F0C6FD00BF07F12007BD46F1
:10A4040080BD00BF80B584B000AF0346B9607A60F8
:10A41400FB73FB7B012B02D0022B03D005E000F081
:10A42400DBFD07E000F0DEFD04E0FB7B184600F0F6
:10A43400C7FD00BF07F11007BD4680BD80B58AB0D7
:10A4440002AF0346B9607A60FB73FB7B002B04D038
:10A45400FB7B184600F0CCFD1FE0B86802F018FE44
:10A464000346FB83BB689B787B77BB68DB783B77D1
:10A47400BB6803F10403184602F020FEB861BB6810
:10A484001B7AFB75F98B7A7F3B7FF87D0090084639
:10A4940011461A46BB6900F0B7FD07F12007BD4617
:10A4A40080BD00BF80B586B000AF0346B9607A6056
:10A4B400FB73FB7B002B04D0FB7B184600F0B4FD40
:10A4C40009E0BB687B61BB689B79FB74FB7C7869A2
:10A4D400194600F0B5FD07F11807BD4680BD00BF61
:10A4E40080B586B000AF0346B9607A60FB73FB7B2E
:10A4F400002B04D0FB7B184600F0AEFD15E0B868D5
:10A5040002F0C6FD0346FB82FB8A184613F080FB6B
:10A514000346184644F2AE71C4F2610113F0B2FC72
:10A5240003463B61386900F0A3FD07F11807BD46F7
:10A5340080BD00BF80B586B000AF0346B9607A60C5
:10A54400FB73FB7B002B04D0FB7B184600F09AFDC9
:10A5540014E0B86802F09CFD0346FB82B7F916309C
:10A56400184613F055FB034618464FF07A5113F082
:10A5740089FC03463B61386900F090FD07F1180738
:10A58400BD4680BD80B584B000AF0346B9607A6033
:10A59400FB73FB7B002B04D0FB7B184600F088FD8B
:10A5A40001E000F091FD07F11007BD4680BD00BF3A
:10A5B40080B584B000AF0346B9607A60FB73FB7B5F
:10A5C400002B04D0FB7B184600F084FD01E000F072
:10A5D4008DFD07F11007BD4680BD00BF80B584B076
:10A5E40000AF0346B9607A60FB73FB7B002B04D099
:10A5F400FB7B184600F080FD01E000F089FD07F1C7
:10A604001007BD4680BD00BF80B584B000AF0346CF
:10A61400B9607A60FB73FB7B002B04D0FB7B18468C
:10A6240000F07CFD01E000F085FD07F11007BD4658
:10A6340080BD00BF80B584B000AF0346B9607A60C6
:10A64400FB73FB7B002B04D0FB7B184600F078FDEA
:10A6540001E000F081FD07F11007BD4680BD00BF99
:10A6640080B584B000AF0346B9607A60FB73FB7BAE
:10A67400002B04D0FB7B184600F074FD01E000F0D1
:10A684007DFD07F11007BD4680BD00BF80B584B0D5
:10A6940000AF0346B9607A60FB73FB7B002B04D0E8
:10A6A400FB7B184600F070FD01E000F079FD07F136
:10A6B4001007BD4680BD00BF80B584B000AF03461F
:10A6C400B9607A60FB73FB7B002B04D0FB7B1846DC
:10A6D40000F06CFD01E000F075FD07F11007BD46C8
:10A6E40080BD00BF80B584B000AF0346B9607A6016
:10A6F400FB73FB7B002B04D0FB7B184600F068FD4A
:10A7040001E000F071FD07F11007BD4680BD00BFF8
:10A7140080B584B000AF0346B9607A60FB73FB7BFD
:10A72400002B04D0FB7B184600F064FD01E000F030
:10A734006DFD07F11007BD4680BD00BF80B584B034
:10A7440000AF0346B9607A60FB73FB7B002B04D037
:10A75400FB7B184600F060FD01E000F069FD07F1A5
:10A764001007BD4680BD00BF80B584B000AF03466E
:10A77400B9607A60FB73FB7B002B04D0FB7B18462B
:10A7840000F05CFD01E000F065FD07F11007BD4637
:10A7940080BD00BF80B584B000AF0346B9607A6065
:10A7A400FB73FB7B002B04D0FB7B184600F058FDA9
:10A7B40001E000F061FD07F11007BD4680BD00BF58
:10A7C40080B584B000AF0346B9607A60FB73FB7B4D
:10A7D400002B04D0FB7B184600F054FD01E000F090
:10A7E4005DFD07F11007BD4680BD00BF80B584B094
:10A7F40000AF0346B9607A60FB73FB7B002B04D087
:10A80400FB7B184600F050FD01E000F059FD07F114
:10A814001007BD4680BD00BF80B584B000AFBA60EC
:10A824007B600346FB730B46BB73FB7B052B03D09A
:10A834004FF00100FEF758FFFB7B03F1FF331E2BA3
:10A8440000F2F18001A252F823F000BFCDA800006D
:10A854002BAA0000DBA800002BAA0000E9A8000036
:10A86400F7A8000005A9000013A9000021A9000011
:10A874002FA900003DA900004BA900001DAA00005B
:10A8840059A9000067A9000075A9000083A9000068
:10A8940091A900009FA90000ADA900002BAA000007
:10A8A4002BAA00002BAA00002BAA0000BBA90000C1
:10A8B400C9A90000D7A90000E5A90000F3A9000078
:10A8C40001AA00000FAA0000BB7B1846B9687A6889
:10A8D400FFF7F4FCAAE0BB7B1846B9687A68FFF777
:10A8E400FDFCA3E0BB7B1846B9687A68FFF72CFD32
:10A8F4009CE0BB7B1846B9687A68FFF73BFD95E09E
:10A90400BB7B1846B9687A68FFF750FD8EE0BB7BC5
:10A914001846B9687A68FFF775FD87E0BB7B18466F
:10A92400B9687A68FFF78AFD80E0BB7B1846B9688E
:10A934007A68FFF7B7FD79E0BB7B1846B9687A6897
:10A94400FFF7CEFD72E0BB7B1846B9687A68FFF763
:10A95400F1FD6BE0BB7B1846B9687A68FFF712FE1D
:10A9640064E0BB7B1846B9687A68FFF721FE5DE0B6
:10A97400BB7B1846B9687A68FFF730FE56E0BB7BAC
:10A984001846B9687A68FFF73FFE4FE0BB7B18466C
:10A99400B9687A68FFF74EFE48E0BB7B1846B96891
:10A9A4007A68FFF75DFE41E0BB7B1846B9687A68B8
:10A9B400FFF76CFE3AE0BB7B1846B9687A68FFF78C
:10A9C4007BFE33E0BB7B1846B9687A68FFF78AFEE2
:10A9D4002CE0BB7B1846B9687A68FFF799FE25E03E
:10A9E400BB7B1846B9687A68FFF7A8FE1EE0BB7BFC
:10A9F4001846B9687A68FFF7B7FE17E0BB7B1846BC
:10AA0400B9687A68FFF7C6FE10E0BB7B1846B968E0
:10AA14007A68FFF7D5FE09E0BB7B1846B9687A6807
:10AA2400FFF7E4FE02E001F06FF800BF07F1100742
:10AA3400BD4680BD80B584B000AF786039603B68A6
:10AA4400042B02D001F060F810E07B685B78FB73A4
:10AA54007B689B78BB737B68DB787B73F97BBA7B01
:10AA64007B7B084611461A4601F0F4FB07F11007F8
:10AA7400BD4680BD80B582B000AF786039607B6828
:10AA840003F101023B6803F1FF331046194600F05D
:10AA94001DFC07F10807BD4680BD00BF80B584B02A
:10AAA40000AF786039607B6803F10103184602F057
:10AAB400EFFA0346FB817B6803F10303BB60FB8968
:10AAC4001846B96800F00CFC07F11007BD4680BDBC
:10AAD40080B586B000AF786039603B68022B02D83D
:10AAE40001F012F815E07B685B78FB757B689B7856
:10AAF400BB757B6803F103033B613B68A3F103036C
:10AB0400FB60FA7DBB7D104619463A69FB68FFF786
:10AB140083FE07F11807BD4680BD00BF80B588B02D
:10AB240002AF786039603B680F2B02D000F0ECFF75
:10AB34002CE07B685B78FB757B6803F102033B6167
:10AB44007B6803F10803184602F0A2FA0346FB816E
:10AB54007B6803F10A03184602F09AFA0346BB81A4
:10AB64007B6803F10C03184602F092FA03467B81DA
:10AB74007B689B7B7B72F97DFA89BB89788900901D
:10AB8400787A01900846396901F00AFC07F1180740
:10AB9400BD4680BD80B584B000AF786039603B6845
:10ABA400032B02D000F0B0FF0BE07B685B78FB73F3
:10ABB4007B689B78BB73FA7BBB7B1046194601F01C
:10ABC40039FC07F11007BD4680BD00BF90B587B0C2
:10ABD40002AF786039603B68072B02D000F094FF25
:10ABE4001BE07B685B78FB737B689B78BB737B683B
:10ABF400DB787B737B681B793B737B685B79FB72C7
:10AC04007B689B79BB72F87BB97B7A7B3B7BFC7A54
:10AC14000094BC7A019400F06FFB07F11407BD4661
:10AC240090BD00BF80B586B000AF786039603B68E6
:10AC3400112B02D000F068FF15E07B6803F10103DB
:10AC4400184602F05DFAC7E904017B6803F10903C1
:10AC5400184602F055FAC7E90201D7E90401D7E919
:10AC6400022301F067FC07F11807BD4680BD00BF51
:10AC740080B584B000AF786039603B68072B02D0A0
:10AC840000F042FF1FE07B6803F10103184602F065
:10AC9400FFF90346FB817B6803F10303184602F0C6
:10ACA400F7F90346BB817B6803F10503184602F0FC
:10ACB400EFF903467B81F989BA897B8908461146F5
:10ACC4001A4601F097FB07F11007BD4680BD00BF8F
:10ACD40080B584B000AF786039603B68072B02D040
:10ACE40000F012FF06E07B6803F10103FB60F868E3
:10ACF40000F00EFB07F11007BD4680BD80B584B09F
:10AD040000AF786039603B68022B02D000F0FCFE93
:10AD140006E07B685B78FB73FB7B184600F002FB64
:10AD240007F11007BD4680BD80B584B000AF7860E0
:10AD340039603B68022B02D000F0E6FE06E07B6837
:10AD44005B78FB73FB7B184601F0E6FB07F1100709
:10AD5400BD4680BD80B586B000AF786039603B6881
:10AD6400022B02D800F0D0FE15E07B685B78FB75FF
:10AD74007B689B78BB757B6803F103033B613B688D
:10AD8400A3F10303FB60FA7DBB7D104619463A69C3
:10AD9400FB6801F0A9FA07F11807BD4680BD00BFA2
:10ADA40080B586B000AF786039603B68012B02D86B
:10ADB40000F0AAFE10E07B685B78FB757B6803F10A
:10ADC40002033B613B68A3F10203FB60FB7D184671
:10ADD4003969FA6801F034FC07F11807BD4680BDF3
:10ADE40080B584B000AF786039603B68022B02D034
:10ADF40000F08AFE06E07B685B78FB73FB7B1846F9
:10AE040000F09AFA07F11007BD4680BD80B584B002
:10AE140000AF786039607B681B78FB73FB7BA3F120
:10AE240081030E2B6BD801A252F823F06DAE000003
:10AE340077AE000081AE00008BAE000095AE00003E
:10AE44009FAE0000A9AE0000B3AE0000BDAE00008E
:10AE5400DBAE0000F9AE0000EFAE0000E5AE00008E
:10AE6400C7AE0000D1AE000078683968FFF7E2FD94
:10AE740048E078683968FFF7FDFD43E07868396891
:10AE8400FFF70CFE3EE078683968FFF721FE39E0F1
:10AE940078683968FFF742FE34E078683968FFF76C
:10AEA40079FE2FE078683968FFF790FE2AE0786829
:10AEB4003968FFF7B7FE25E078683968FFF7D8FEF0
:10AEC40020E078683968FFF703FF1BE07868396889
:10AED400FFF714FF16E078683968FFF725FF11E0E3
:10AEE40078683968FFF736FF0CE078683968FFF74F
:10AEF40057FF07E078683968FFF772FF02E000F057
:10AF040003FE00BF07F11007BD4680BD80B582B0C7
:10AF140000AF0346FB7100F0F7FD07F10807BD46DB
:10AF240080BD00BF80B582B000AF0346FB7100F066
:10AF3400EBFD07F10807BD4680BD00BF80B500AF3B
:10AF440000F0E2FD80BD00BF80B582B000AF0346D3
:10AF5400FB7100F0D9FD07F10807BD4680BD00BFB5
:10AF640080B400AFBD4680BC704700BF80B582B0DE
:10AF740000AF0346FB7100F0C7FD07F10807BD46AB
:10AF840080BD00BF80B582B000AF0346FB7100F006
:10AF9400BBFD07F10807BD4680BD00BF80B485B086
:10AFA40000AFF860B9607A6007F11407BD4680BC51
:10AFB400704700BF80B400AFBD4680BC704700BF7F
:10AFC40080B582B000AF0346FB7100F09DFD07F130
:10AFD4000807BD4680BD00BF80B400AFBD4680BC3D
:10AFE400704700BF80B400AFBD4680BC704700BF4F
:10AFF40080B582B000AF0346FB7100F085FD07F118
:10B004000807BD4680BD00BF80B483B000AF3B607D
:10B014000346FB800B467B7113463B7107F10C071B
:10B02400BD4680BC704700BF80B582B000AF034608
:10B03400FB7100F069FD07F10807BD4680BD00BF44
:10B0440080B483B000AF78600B46FB7007F10C0747
:10B05400BD4680BC704700BF80B582B000AF0346D8
:10B06400FB7100F051FD07F10807BD4680BD00BF2C
:10B0740080B483B000AF786007F10C07BD4680BC94
:10B08400704700BF80B582B000AF0346FB7100F08B
:10B094003BFD07F10807BD4680BD00BF80B483B007
:10B0A40000AF786007F10C07BD4680BC704700BF55
:10B0B40080B582B000AF0346FB7100F025FD07F1B7
:10B0C4000807BD4680BD00BF80B400AFBD4680BC4C
:10B0D400704700BF80B582B000AF0346FB7100F03B
:10B0E40013FD07F10807BD4680BD00BF80B400AF63
:10B0F400BD4680BC704700BF80B582B000AF034638
:10B10400FB7100F001FD07F10807BD4680BD00BFDB
:10B1140080B400AFBD4680BC704700BF80B582B02C
:10B1240000AF0346FB7100F0EFFC07F10807BD46D2
:10B1340080BD00BF80B400AFBD4680BC704700BF77
:10B1440080B582B000AF0346FB7100F0DDFC07F16F
:10B154000807BD4680BD00BF80B400AFBD4680BCBB
:10B16400704700BF80B582B000AF0346FB7100F0AA
:10B17400CBFC07F10807BD4680BD00BF80B400AF1B
:10B18400BD4680BC704700BF80B582B000AF0346A7
:10B19400FB7100F0B9FC07F10807BD4680BD00BF94
:10B1A40080B400AFBD4680BC704700BF80B582B09C
:10B1B40000AF0346FB7100F0A7FC07F10807BD468A
:10B1C40080BD00BF80B400AFBD4680BC704700BFE7
:10B1D40080B582B000AF0346FB7100F095FC07F127
:10B1E4000807BD4680BD00BF80B400AFBD4680BC2B
:10B1F400704700BF80B582B000AF0346FB7100F01A
:10B2040083FC07F10807BD4680BD00BF80B400AFD2
:10B21400BD4680BC704700BF80B582B000AF034616
:10B22400FB7100F071FC07F10807BD4680BD00BF4B
:10B2340080B400AFBD4680BC704700BF80B582B00B
:10B2440000AF0346FB7100F05FFC07F10807BD4641
:10B2540080BD00BF80B400AFBD4680BC704700BF56
:10B2640080B582B000AF0346FB7100F04DFC07F1DE
:10B274000807BD4680BD00BF80B400AFBD4680BC9A
:10B28400704700BF80B582B000AF0346FB7100F089
:10B294003BFC07F10807BD4680BD00BF80B400AF8A
:10B2A400BD4680BC704700BF80B582B000AF034686
:10B2B400FB7100F029FC07F10807BD4680BD00BF03
:10B2C40080B400AFBD4680BC704700BF80B483B07B
:10B2D40000AF7860396007F10C07BD4680BC704749
:10B2E40080B582B000AF03463960FB8000F00CFCEF
:10B2F40007F10807BD4680BD80B483B000AFF87184
:10B30400B9717A713B7107F10C07BD4680BC704777
:10B3140080B483B000AF786007F10C07BD4680BCF1
:10B32400704700BF80B483B000AF0346FB7107F1E0
:10B334000C07BD4680BC704780B483B000AF0346A1
:10B34400FB7107F10C07BD4680BC704780B582B025
:10B3540000AF786039604FF00100FEF7EBF97868D0
:10B364003968FEF7DDFA07F10807BD4680BD00BF66
:10B3740080B584B000AFF860B9607A603B604FF08C
:10B384000100FEF7D7F9F868B9687A683B68FEF7F8
:10B39400E1FA07F11007BD4680BD00BF80B582B059
:10B3A40000AF786039604FF00100FEF73DFA78682D
:10B3B4003968FEF7B5FA07F10807BD4680BD00BF3E
:10B3C40080B584B000AFF860B9607A603B604FF03C
:10B3D4000100FEF729FAF868B9687A683B68FEF755
:10B3E400B9FA07F11007BD4680BD00BF80B584B02F
:10B3F40000AF0346FB714FF002033B734FF00103B0
:10B404007B73FB79BB7307F10C0318464FF0030100
:10B41400FFF79CFF07F11007BD4680BD80B584B0DF
:10B4240000AF0346FB804FF003033B734FF003036D
:10B434007B73FB884FEA13239BB2DBB2BB73FB889D
:10B44400DBB2FB7307F10C0318464FF00401FFF75E
:10B454007DFF07F11007BD4680BD00BF80B582B0F7
:10B4640000AF4EF68063C0F2010307F104021B88AB
:10B47400138007F1040318464FF00201FFF766FF3B
:10B4840007F10807BD4680BD80B582B000AF4EF617
:10B494008463C0F2010307F104021B88138007F1DF
:10B4A400040318464FF00201FFF750FF07F10807A5
:10B4B400BD4680BD80B584B000AF02460B46FA801D
:10B4C400BB804FF005033B724FF00F037B72FB8888
:10B4D400DBB2BB72FB884FEA13239BB2DBB2FB7275
:10B4E400BB88DBB23B73BB884FEA13239BB2DBB24E
:10B4F4007B7307F1080318464FF00601FFF726FF98
:10B5040007F11007BD4680BD80B584B000AF034687
:10B51400FB714FF002033B734FF011037B73FB7914
:10B52400BB7307F10C0318464FF00301FFF70EFF3E
:10B5340007F11007BD4680BD80B584B000AF034657
:10B54400FB714FF002033B734FF012037B73FB79E3
:10B55400BB7307F10C0318464FF00301FFF7F6FE27
:10B5640007F11007BD4680BD80B586B000AFF880F6
:10B57400B9807A803B804FF009033B734FF013038B
:10B584007B73FB88DBB2BB73FB884FEA13239BB24C
:10B59400DBB2FB73BB88DBB23B74BB884FEA13237B
:10B5A4009BB2DBB27B747B88DBB2BB747B884FEAD3
:10B5B40013239BB2DBB2FB743B88DBB23B753B8845
:10B5C4004FEA13239BB2DBB27B7507F10C031846D9
:10B5D4004FF00A01FFF7BAFE07F11807BD4680BD18
:10B5E40080B584B000AF0346FB714FF002033B7398
:10B5F4004FF01F037B73FB79BB7307F10C031846F1
:10B604004FF00301FFF7A2FE07F11007BD4680BD0E
:10B6140080B586B000AF0346B9607A60FB737B687F
:10B62400DBB203F10203DBB23B754FF00D037B7514
:10B63400FB7BBB7507F1140318464FF00301BA688E
:10B644007B68FFF795FE07F11807BD4680BD00BF74
:10B6540080B586B000AF0346B9607A60FB737B683F
:10B66400DBB203F10203DBB23B754FF015037B75CC
:10B67400FB7BBB7507F1140318464FF00301BA684E
:10B684007B68FFF79DFE07F11807BD4680BD00BF2C
:10B6940080B584B000AF0346FB714FF002033B73E7
:10B6A4004FF016037B73FB79BB7307F10C03184649
:10B6B4004FF00301FFF772FE07F11007BD4680BD8E
:10B6C40080B483B000AF03463960FB714FF4C042CD
:10B6D400C4F20002F9790B464FEAC3035B184FEA40
:10B6E4008303D31803F118035A683B6822FA03F35F
:10B6F40003F00103184607F10C07BD4680BC7047F0
:10B7040080B483B000AF03463960FB714FF4C0428C
:10B71400C4F20002F9793B684FF0010000FA03F328
:10B7240018460B464FEAC3035B184FEA8303D3184A
:10B7340003F11003586007F10C07BD4680BC704745
:10B7440080B483B000AF03463960FB714FF4C0424C
:10B75400C4F20002F9793B684FF0010000FA03F3E8
:10B7640018460B464FEAC3035B184FEA8303D3180A
:10B7740003F11003186007F10C07BD4680BC704745
:10B7840080B500AF00F0F8F900F05AFD80BD00BFAD
:10B7940080B582B002AF40F69813C2F200034FF0B6
:10B7A40000021A6040F69C13C2F200034FF000023C
:10B7B4001A6040F6A013C2F200034FF000021A60B0
:10B7C40040F6A413C2F200034FF000021A6040F6E0
:10B7D400A813C2F200034FF000004FF00001C3E9C8
:10B7E400000140F6B013C2F200034FF000004FF026
:10B7F4000001C3E9000140F6B813C2F200034FF0A0
:10B8040000021A7040F6BA13C2F200034FF00002AD
:10B814001A8040F6BC13C2F200034FF000021A80F3
:10B8240040F65030C2F2000040F6C011C2F20001EE
:10B834004FF4C87202F0B8F84FF4C873009340F69E
:10B844007C30C2F2000044F22051C4F24C214FF08B
:10B85400140240F69033C2F2000302F04FFA40F6AD
:10B864002053C2F200034FF000021A7040F6305326
:10B87400C2F200034FF000021A7040F63153C2F2D4
:10B8840000034FF000021A7040F63253C2F2000374
:10B894004FF000021A7040F63353C2F200034FF027
:10B8A40000021A7040F63453C2F200034FF0000253
:10B8B4001A7040F63553C2F200034FF000021A70BA
:10B8C40040F63850C2F200004FF2E401C0F2010128
:10B8D4004FF0070212F0C2FE40F64053C2F20003DA
:10B8E4004FF007021A7040F64253C2F200034FF0C1
:10B8F40000021A8040F64453C2F200034FF00002E3
:10B904001A8040F64653C2F200034FF000021A8038
:10B914004CF20100C0F201004BF28571C0F200014B
:10B9240003F070FF40F62450C2F200004CF2B16103
:10B93400C0F2000109F044F9BD4680BD80B584B071
:10B9440000AF786078684FF02A0101F05BFE7868F8
:10B954004FF0010101F056FE40F69813C2F20003C5
:10B964001B687868194601F04DFE40F69C13C2F23C
:10B9740000031B687868194601F044FEFDF788FE51
:10B9840003467868194601F03DFEFDF7FBFE0346C9
:10B994007868194601F036FE40F6BE13C2F2000381
:10B9A4001B787868194601F0E5FD40F63553C2F27C
:10B9B40000031B787868194601F0DCFD40F6B813E3
:10B9C400C2F200031B787868194601F0D3FD40F6F3
:10B9D4002453C2F200031B797868194601F0CAFDAA
:10B9E4004FF00003FB7340F63053C2F200031B78A0
:10B9F400002B03D0FB7B43F00103FB7340F6315370
:10BA0400C2F200031B78002B03D0FB7B43F002033C
:10BA1400FB7340F63253C2F200031B78002B03D0B1
:10BA2400FB7B43F00403FB7340F63353C2F2000381
:10BA34001B78002B03D0FB7B43F00803FB7340F619
:10BA44003453C2F200031B78002B03D0FB7B43F07A
:10BA54001003FB73FB7B7868194601F08BFD40F6FD
:10BA64002053C2F200031B787868194601F082FD66
:10BA740040F6A813C2F20003D3E90023786801F06A
:10BA8400E3FD40F6BA13C2F200031B887868194636
:10BA940001F094FD40F6BC13C2F200031B887868E1
:10BAA400194601F08BFD40F67C33C2F200031B699A
:10BAB4007868194601F0A6FD07F11007BD4680BD60
:10BAC40080B582B000AF786040F64253C2F2000302
:10BAD4001B887868194601F071FD40F64453C2F2A0
:10BAE40000031B887868194601F068FD40F6465348
:10BAF400C2F200031B887868194601F05FFD07F164
:10BB04000807BD4680BD00BF80B500AF4FF2EC0012
:10BB1400C0F201004FF0C7014FF23412C0F201022B
:10BB240001F088FE80BD00BF80B500AF4FF4004037
:10BB340003F0B0FE80BD00BF80B500AF4FF480407D
:10BB440003F0A8FE80BD00BF80B500AF4FF0030036
:10BB54004FF00501FFF7D4FD4FF06400FCF730FE11
:10BB64004FF003004FF00501FFF7EAFD4FF06400CA
:10BB7400FCF726FE80BD00BF80B594B000AF4FF047
:10BB840003004FF00401FFF79BFD0346002B02D096
:10BB94004FF0000353E04FF23810C0F2010009F0F7
:10BBA4001BFE40F2B053C2F200031B68002B02D00C
:10BBB4004FF0030301E04FF001033B7440F2905354
:10BBC400C2F200037B614FF02003BB6140F2B0532B
:10BBD400C2F200031B68FB6107F12C033B624FF0C8
:10BBE40020037B624FF00203BB624FF002033B6011
:10BBF40007F110037B604FF00103BB604FF00003BB
:10BC0400FB603B464FF00110194605F0BFF94FF0B9
:10BC1400010005F001FA09F009FEFDF72DFE97F881
:10BC24002D30FB64FB6C002B07D007F12C0303F1D0
:10BC340002031846F96CFFF7E9F84FF001031846C0
:10BC440007F15007BD4680BD80B582B000AF4FF00C
:10BC5400011005F05DF94FF003004FF00301FFF709
:10BC64004FFD00BF4FF003004FF00401FFF728FD24
:10BC74000346002BF6D1FFF77FFF0346FB71FB79E8
:10BC840083F00103DBB2002B0BD04FF2EC00C0F2C7
:10BC940001004FF484714FF24012C0F2010201F02E
:10BCA400C9FD07F10807BD4680BD00BF80B582B05D
:10BCB40000AF786040F69813C2F200031A687B68FC
:10BCC4001A4340F69813C2F200031A604FF480300E
:10BCD40003F0D0FD07F10807BD4680BD80B483B0F2
:10BCE40000AF78607B686FEA030240F69813C2F2F3
:10BCF40000031B681A4040F69813C2F200031A604E
:10BD040007F10C07BD4680BC704700BF80B582B008
:10BD140000AF786040F69C13C2F200031A687B6897
:10BD24001A4340F69C13C2F200031A604FF48030A9
:10BD340003F0A0FD07F10807BD4680BD80B483B0C1
:10BD440000AF78607B686FEA030240F69C13C2F28E
:10BD540000031B681A4040F69C13C2F200031A60E9
:10BD640007F10C07BD4680BC704700BF90B58BB08F
:10BD740000AFE7E140F69813C2F200031B6803F03A
:10BD84008003002B11D0FFF769FB4FF08000FFF711
:10BD9400A5FF40F6B813C2F200034FF001021A7077
:10BDA4004FF4005003F066FDCCE140F69813C2F264
:10BDB40000031B6803F48073002B06D0FFF764FBB9
:10BDC4004FF48070FFF78AFFBCE140F69813C2F28B
:10BDD40000031B6803F00103002B02D000F092FA69
:10BDE400B0E140F69813C2F200031B6803F00203AB
:10BDF400002B21D040F64053C2F200031B784FF0D1
:10BE0400010040F63851C2F200011A46FFF700FC67
:10BE14004FF00200FFF762FF40F63253C2F2000314
:10BE24001B7883F00103DBB2002B00F08B814FF011
:10BE34000400FFF73BFF85E140F69813C2F20003CC
:10BE44001B6803F00403002B17D04FF00003FB839F
:10BE54004FF4C863BB83FA8BBB8B10461946FFF7BC
:10BE640029FB4FF00400FFF739FF40F63153C2F2CB
:10BE740000034FF001021A7064E140F69813C2F215
:10BE840000031B6803F00803002B16D04FF00803CF
:10BE94007B834FF010033B834FF00003FB824FF092
:10BEA4006403BB82788B398BFA8ABB8AFFF75CFB0D
:10BEB4004FF00800FFF712FF44E140F69813C2F276
:10BEC40000031B6803F01003002B60D04FF0010344
:10BED4007B624AE07B6AA3F120034FF0010202FA7D
:10BEE40003F2796AC1F120014FF0010020FA01F157
:10BEF4004FF00004786A04FA00F00143F960F9682D
:10BF0400002BB4BF0B461346FB604FF001027B6A63
:10BF140002FA03F3BB6040F6B013C2F20003D3E9A4
:10BF24000001D7E9022302EA000203EA010352EA0C
:10BF3400030116D0D7E902236FEA02006FEA030176
:10BF440040F6B013C2F20003D3E9002300EA020072
:10BF540001EA030140F6B013C2F20003C3E9000191
:10BF640006E07B6A03F101037B627B6A3E2BB1DD51
:10BF740040F6B013C2F20003D3E9002352EA0301EE
:10BF840040F0E0804FF01000FFF7A8FEDAE040F642
:10BF94009813C2F200031B6803F02003002B64D043
:10BFA4004FF001033B624FE03B6AA3F120034FF0E3
:10BFB400010202FA03F2396AC1F120014FF00100D3
:10BFC40020FA01F14FF00004386A04FA00F001434A
:10BFD40079607968002BB4BF0B4613467B604FF041
:10BFE40001023B6A02FA03F33B6040F6A813C2F273
:10BFF4000003D3E90001D7E9002302EA000203EABF
:10C00400010352EA03011BD03B6ADBB21846FFF777
:10C01400E7FAD7E900236FEA02006FEA030140F66A
:10C02400A813C2F20003D3E9002300EA020001EAE4
:10C03400030140F6A813C2F20003C3E9000106E0BD
:10C044003B6A03F101033B623B6A3E2BACDD40F6E5
:10C05400A813C2F20003D3E9002352EA030171D109
:10C064004FF02000FFF73AFE6CE040F69813C2F25E
:10C0740000031B6803F04003002B08D04FF00100BD
:10C08400FFF742FA4FF04000FFF728FE5AE040F66F
:10C094009813C2F200031B6803F40073002B08D04A
:10C0A4004FF00200FFF7A2F94FF40070FFF716FEFD
:10C0B40048E040F69813C2F200031B6803F480635F
:10C0C400002B18D040F6BA13C2F200031B8818469E
:10C0D400FFF7A4F94FF48060FFF700FE40F6BA13AF
:10C0E400C2F200031B88B3F5404F2BD14FF400601C
:10C0F400FFF7DCFD26E040F69813C2F200031B684C
:10C1040003F40063002B08D04FF0FF00FFF76EF933
:10C114004FF40060FFF7E2FD14E040F69813C2F21A
:10C1240000031B6803F48053002B0BD040F6BE13AE
:10C13400C2F200031B781846FFF7FEF94FF4805053
:10C14400FFF7CCFD40F69813C2F200031B68002BE6
:10C1540005D0FDF7A9FA0346002B7FF40BAE07F1D7
:10C164002C07BD4690BD00BF80B500AF10E040F67F
:10C174009C13C2F200031B6803F00103002B07D0D9
:10C184004FF00300FFF784FA4FF00100FFF7D6FDEC
:10C1940040F69C13C2F200031B68002B04D0FDF789
:10C1A400FDFA0346002BE2D180BD00BF80B483B00A
:10C1B40000AF78607B684FF0010202FA03F10A468F
:10C1C4004FEAE27340F6A811C2F20001D1E900017E
:10C1D40002EA000203EA01031343002B0CBF00230D
:10C1E4000123DBB2184607F10C07BD4680BC70473B
:10C1F40080B500AF09E04FF0020040F66831C2F2AA
:10C2040000014FF01402FFF723FA4FF00200FFF78A
:10C21400CDFF0346002B11D0FDF7C0FA0346002BD7
:10C224000CD040F67C30C2F2000040F66831C2F215
:10C23400000101F0B9FD0346002BDCD180BD00BF35
:10C2440080B500AFFFF792FDFFF78EFFFFF7D0FF39
:10C2540080BD00BF80B582B000AF13460246FA71BC
:10C264000A46BA717B717A7940F6A013C2F20003D0
:10C274001A6040F63553C2F20003FA791A70FB795A
:10C28400022B1CD0032B0AD0012B28D14FF0010024
:10C29400FDF71AFA4FF48060FFF708FD1FE04FF036
:10C2A4000100FDF711FA40F62053C2F200034FF0EB
:10C2B40000021A704FF00200FFF7F8FC0FE04FF095
:10C2C4000100FDF701FA40F6A413C2F200034FF097
:10C2D40000021A604FF00100FFF7E8FC00BF07F10D
:10C2E4000807BD4680BD00BF80B485B000AFBA600A
:10C2F4007B600346FB730B46BB7307F11407BD4613
:10C3040080BC704780B584B000AF40F6A413C2F27D
:10C3140000031B68102B27D84FF00100FDF70AFA21
:10C3240040F6A413C2F200031A6813464FEA4313FB
:10C334009B184EF6B061C0F201015B18FB6002F17C
:10C34400010240F6A413C2F200031A60FB6803F171
:10C354000103BB60BB681B7803F101037B60B86811
:10C364007968FDF7DDFA00E000BF07F11007BD466C
:10C3740080BD00BF80B500AF40F63053C2F2000369
:10C384004FF001021A7040F6BE13C2F200034FF0E0
:10C3940003021A704FF00100FFF7A0FC80BD00BF3C
:10C3A40080B584B000AFB9600146F973BA81FB80EF
:10C3B40040F63253C2F200034FF001021A704FF4F8
:10C3C400005003F067FA40F6A013C2F200031B68A2
:10C3D4001846FDF7F3F940F65030C2F2000001F0C0
:10C3E40005FB4FF00800FFF761FC07F11007BD469D
:10C3F40080BD00BF80B483B000AF13460246FA800C
:10C404000A46BA807B8040F64253C2F20003FA889F
:10C414001A8040F64453C2F20003BA881A8040F6E8
:10C424004653C2F200037A881A8007F10C07BD460E
:10C4340080BC704780B582B000AF02460B46FA71EB
:10C44400BB7144F22050C4F24C2009F08BFA40F640
:10C454009813C2F200034FF000021A6040F69C13D6
:10C46400C2F200034FF000021A6040F6A813C2F2B1
:10C4740000034FF000004FF00001C3E9000140F653
:10C48400B013C2F200034FF000004FF00001C3E903
:10C49400000140F63153C2F200034FF000021A705B
:10C4A40040F63253C2F200034FF000021A7040F615
:10C4B4003353C2F200034FF000021A7040F63453B3
:10C4C400C2F200034FF000021A704FF4005003F060
:10C4D400E1F94FF00000FDF771F940F62053C2F284
:10C4E40000031B78012B08D0022B0BD0002B0ED19C
:10C4F4004FF00400FFF7DAFB09E04FF08000FFF78C
:10C50400D5FB04E04FF40070FFF7D0FB00BF07F148
:10C514000807BD4680BD00BF80B582B000AF0346AA
:10C52400FB71FB791846FDF759F907F10807BD4679
:10C5340080BD00BF80B584B000AFC7E90201C7E980
:10C54400002340F6A813C2F20003D7E90201C3E9AD
:10C55400000140F6B013C2F20003D7E90001C3E9B9
:10C56400000140F6B013C2F20003D3E9002352EAFB
:10C57400030104D04FF01000FFF798FB06E040F6EB
:10C584003353C2F200034FF001021A7007F110078F
:10C59400BD4680BD80B582B000AF7860396040F69A
:10C5A4005030C2F2000079683A6801F0C9FA40F6E6
:10C5B4005030C2F2000001F033FA0346032B37D89F
:10C5C40001A252F823F000BF35C6000035C60000B2
:10C5D400DDC500000FC6000040F65033C2F2000370
:10C5E4001A6840F65033C2F20003DB6840F67C3030
:10C5F400C2F2000011461A4601F060FC40F65030C9
:10C60400C2F2000001F0F2F912E04FF2EC00C0F2C5
:10C61400010040F221214FF23412C0F2010201F074
:10C6240009F940F65030C2F2000001F0DFF900BF12
:10C634004FF00100FFF76AFB07F10807BD4680BD14
:10C6440080B584B000AF0346B9607A60FB7340F6EE
:10C654003453C2F200034FF001021A70FB7B032B28
:10C6640004D1B8687968FFF795FF00BF07F1100798
:10C67400BD4680BD80B400AF40F6BC13C2F20003D7
:10C684001B881846BD4680BC704700BF80B483B089
:10C6940000AF0346FB8040F6BC13C2F20003FA88E5
:10C6A4001A8007F10C07BD4680BC704780B500AF07
:10C6B40040F62450C2F2000008F0CEFB40F6BA1354
:10C6C400C2F200034FF440421A804FF48060FFF737
:10C6D400EDFA80BD80B584B000AF034607F10400D5
:10C6E40080E80600FB8140F6BA13C2F20003FA891F
:10C6F4001A8040F62053C2F200034FF002021A706F
:10C704004FF04000FFF7D2FA7B68002B09D040F6C7
:10C714002450C2F2000007F1040393E8060008F075
:10C724003BFB07F11007BD4680BD00BF80B582B05A
:10C7340000AF0346FB7140F6BE13C2F20003FA7960
:10C744001A704FF48050FFF7B1FA07F10807BD469D
:10C7540080BD00BF80B400AF40F6BE13C2F2000338
:10C764001B781846BD4680BC704700BF80B400AF3C
:10C7740040F6B813C2F200031B781846BD4680BCCD
:10C78400704700BF80B500AF40F63253C2F20003D9
:10C794001B78002B0BD040F62053C2F200034FF05D
:10C7A40001021A704FF04000FFF780FA06E040F6ED
:10C7B4009813C2F200034FF080021A6080BD00BFDC
:10C7C40080B500AF4FF00100FCF77EFF40F6B813D0
:10C7D400C2F200034FF000021A704FF48070FFF7AA
:10C7E40065FA80BD80B582B000AF786039603B687F
:10C7F400082B02D94FF008033B603B68002B13D190
:10C8040040F63850C2F200004FF2E401C0F20101D8
:10C814004FF0070211F022FF40F64053C2F200032A
:10C824004FF007021A700EE040F63850C2F20000D2
:10C8340079683A6811F012FF3B68DAB240F6405367
:10C84400C2F200031A7040F63553C2F200031B789B
:10C85400032B03D14FF00200FFF728FA07F1080772
:10C86400BD4680BD80B582B000AF786040F64053CD
:10C87400C2F200031B78786840F63851C2F2000116
:10C884001A4611F0EBFE40F64053C2F200031B7847
:10C89400184607F10807BD4680BD00BF80B400AF4D
:10C8A40040F64853C2F200034FF000021A6040F60B
:10C8B4004853C2F200034FF000025A60BD4680BCE8
:10C8C400704700BF80B485B000AF786040F648532D
:10C8D400C2F200031B68002B14D140F64853C2F285
:10C8E40000037A681A6040F64853C2F200037A687B
:10C8F4005A607B684FF000021A607B684FF00002B8
:10C904005A6011E040F64853C2F200035B68FB60D2
:10C9140040F64853C2F200037A685A607B68FA68AA
:10C924005A60FB687A681A6007F11407BD4680BC38
:10C93400704700BF80B584B000AF78607B684FEA71
:10C944000323FB6007F10B03F86819464FF001025B
:10C9540008F06AFDFB7AFE2B14BF00230123DBB22F
:10C96400184607F11007BD4680BD00BF80B588B0EA
:10C9740000AFF860B9607A60F868FFF7A3FFBB689E
:10C984004FEA0312FB689A607B6803F101034FEAE4
:10C994000312FB68DA6008F031FCFB684FF0FF32E9
:10C9A4001A61FB684FF0FF325A61FB689B681846B6
:10C9B400FFF7C0FF0346002B0CD0FB68DB6803F1D4
:10C9C400FF331846FFF7B6FF0346002B02D04FF0A3
:10C9D400010301E04FF00003FB75FB7D03F001034D
:10C9E400FB75FB7D002B30D0FB689B68FB6126E068
:10C9F40008F0E6FEF869FFF79DFF034683F00103A4
:10CA0400DBB2002B08D0FB685B69B3F1FF3F12D1A6
:10CA1400FB68FA695A610EE0FB681B69B3F1FF3FDA
:10CA240009D1FB685B69B3F1FF3F04D0FB68FA6985
:10CA34001A6100BF35E0FB6903F10103FB61FB6888
:10CA4400DA68FB699A42D3D82BE0FB689B68BB6128
:10CA540022E008F0B5FEB869FFF76CFF0346002B2F
:10CA640008D0FB681B69B3F1FF3F11D1FB68BA69B9
:10CA74001A610DE0FB685B69B3F1FF3F08D1FB6805
:10CA84001B69B3F1FF3F03D0FB68BA695A6108E040
:10CA9400BB6903F10103BB61FB68DA68BB699A42B5
:10CAA400D7D8FB681B69B3F1FF3F07D1FB689A68CD
:10CAB400FB681A61FB681A69FB685A6108F034FC68
:10CAC40007F12007BD4680BD80B483B000AF786015
:10CAD4007B681A697B685B699A4205D87B685A69E6
:10CAE4007B681B69D31A0AE07B68DA687B681B6978
:10CAF400D21A7B6859697B689B68CB1AD31818468D
:10CB040007F10C07BD4680BC704700BF80B584B0F8
:10CB140000AF78607B681B694FEA0323FB6008F071
:10CB24006DFB08F00BFC4FF0FC03FB7207F10B03E9
:10CB3400F86819464FF0010208F030FC08F0F4FBE5
:10CB44007B681B6903F101027B681A617B681A69BF
:10CB54007B68DB689A4203D37B689A687B681A61B6
:10CB640007F11007BD4680BD90B5C9B000AF07F10D
:10CB74000C04206007F10800016007F104010A6059
:10CB84003A4613603B461B68F82B03D93B464FF0EB
:10CB9400F8021A6008F032FB07F10C031B685B69AA
:10CBA4004FEA0323C7F81C3107F10C031B685B69C8
:10CBB40003F00F03002B49D107F11703D7F81C0129
:10CBC40019464FF0010208F02FFC07F117031B78F8
:10CBD400FF2B05D008F0B2FBD7F81C0108F0B8FB16
:10CBE40007F10C031B685A6907F10C031B681B69E6
:10CBF4009A422BD207F10C031B681A6907F10C0344
:10CC04001B685B6903F110039A421FD207F10C03FE
:10CC14001B681B6903F110034FEA13134FEA031255
:10CC240007F10C031B681A6107F10C031B681A69EE
:10CC340007F10C031B68DB689A4207D307F10C0366
:10CC44001B689A6807F10C031B681A6107F1180343
:10CC54001A464FF4807310464FF000011A4611F043
:10CC640021FD07F118034FF0FE021A703B461B68C2
:10CC7400DAB207F118035A7007F108031B68DAB235
:10CC840007F118031A7107F108031B684FEA13230D
:10CC9400DAB207F118035A7107F108031B684FEA67
:10CCA4001343DAB207F118039A7107F108031B68FA
:10CCB4004FEA1363DAB207F11803DA7107F11803C4
:10CCC40003F1080107F104023B46084611681A689B
:10CCD40011F0C4FC3B461B6803F1040307F118027E
:10CCE40002F104024FF6FF7011461A4600F07AF979
:10CCF4000346A7F81A31B7F81A31DAB207F1180364
:10CD04009A70B7F81A314FEA13239BB2DAB207F1DB
:10CD14001803DA7008F012FB3B461B6803F10803A2
:10CD240007F11802D7F81C0111461A4608F036FB21
:10CD340008F0FAFA07F10C031B685B6903F10102BE
:10CD440007F10C031B685A6107F10C031B685A694D
:10CD540007F10C031B68DB689A4207D307F10C0345
:10CD64001B689A6807F10C031B685A6107F10C03EE
:10CD74001B685A6907F10C031B681B699A4204D1AA
:10CD840007F10C031868FFF7C1FE07F59277BD465B
:10CD940090BD00BF90B5C7B000AF07F10C04206090
:10CDA40007F10800016007F104010A603A461360C4
:10CDB400D7F82831F82B03D94FF0F803C7F82831F6
:10CDC40007F10C031B681A6907F108031B68D218E2
:10CDD40007F104031B681A6007F104031B681A684F
:10CDE40007F10C031B68DB689A4211D307F10C03AB
:10CDF4001B689A6807F104031B68196807F10C03A0
:10CE04001B68DB68CB1AD21807F104031B681A608D
:10CE140007F10C031B681B694FEA0323C7F814319D
:10CE240008F0ECF907F11403D7F8140119464FF48C
:10CE3400807208F0F9FA08F077FA07F114035B78C6
:10CE44001A4607F104031B689A8007F104031B6860
:10CE54009B881A46D7F828319A4206D9D7F8283140
:10CE64009AB207F104031B689A8007F1140303F1D3
:10CE74000203184600F00CF903461A4607F10403AE
:10CE84001B68DA8007F1140303F10403184600F069
:10CE940015F9024607F104031B689A6007F10403BD
:10CEA4001B689B88394607F1140202F108020868DE
:10CEB40011461A4611F0D2FB07F58E77BD4690BD98
:10CEC40080B582B000AF786039603B681A687B68CF
:10CED4001B699A4203D17868FFF718FE00E000BF8F
:10CEE40007F10807BD4680BD80B582B000AF4FF0A2
:10CEF40000037B6040F64853C2F200031B683B60AA
:10CF040009E03868FFF7E0FD03467A68D3187B60D0
:10CF14003B681B683B603B68002BF2D17B6818467A
:10CF240007F10807BD4680BD80B58AB002AFF8603E
:10CF3400B9607A603B60FB68FB6140F64853C2F21B
:10CF440000031B68BB6119E0B869FFF7BDFD786198
:10CF5400FA697B699A420AD23B680093B869F96915
:10CF6400BA687B68FFF716FF4FF000030EE0FA691A
:10CF74007B69D31AFB61BB691B68BB61BB69002B6E
:10CF8400E2D1FB6903F101033B613B69184607F1F8
:10CF94002007BD4680BD00BF80B584B000AF786077
:10CFA40040F64853C2F200031B68FB6013E0FB68C1
:10CFB4009A687B681B689A420AD87B681A68FB687F
:10CFC400DB689A4204D2F8687968FFF779FF05E0D4
:10CFD400FB681B68FB60FB68002BE8D107F11007B6
:10CFE400BD4680BD80B487B000AF0346B9607A60A7
:10CFF400FB81FB89FB82BA687B68D3183B612FE015
:10D00400FB8A4FEA13239BB29AB2FB8A4FEA0323AB
:10D014009BB213439BB2FB82BB681B781A46FB8A04
:10D024005340FB82FB8ADBB24FEA23139AB2FB8A9A
:10D0340053409BB2FB82FB8A4FEA03339AB2FB8ACA
:10D0440053409BB2FB82FB8ADBB24FEA43139AB292
:10D05400FB8A53409BB2FB82BB6803F10103BB60B4
:10D06400BA683B699A42CBD3FB8A184607F11C077E
:10D07400BD4680BC704700BF80B483B000AF786009
:10D084007B681B78184607F10C07BD4680BC7047C7
:10D0940080B483B000AF78607B6803F101031B7830
:10D0A4004FEA03239AB27B681B7813439BB29BB26B
:10D0B400184607F10C07BD4680BC704780B483B0A6
:10D0C40000AF78607B6803F103031B784FEA0362C7
:10D0D4007B6803F102031B784FEA03431A437B681E
:10D0E40003F101031B784FEA03231A437B681B787F
:10D0F4001343184607F10C07BD4680BC704700BFB8
:10D10400B0B586B000AF78607868FFF7D7FF014606
:10D114000A464FF00003C7E904237B6803F10803C0
:10D124001846FFF7CBFF01460A464FF00003C7E954
:10D134000223BB681D464FF00004D7E9042342EAEA
:10D14400040243EA05031046194607F11807BD46D1
:10D15400B0BD00BF80B584B000AF78607868FFF7D9
:10D1640097FF0346FB81FB89184608F0B9FE034686
:10D17400184607F11007BD4680BD00BF80B584B0D6
:10D1840000AF78607868FFF799FF0346FB60FB689F
:10D19400184607F11007BD4680BD00BF80B584B0B6
:10D1A40000AF786039603868FFF788FF0346BB60DA
:10D1B4003B6803F104031846FFF780FF0346FB6056
:10D1C4007B6807F1080292E8030083E803007868AB
:10D1D40007F11007BD4680BD80B483B000AF78600E
:10D1E4000B46FB707B68FA781A7007F10C07BD4692
:10D1F40080BC704780B483B000AF78600B467B80FE
:10D204007B88DAB27B681A707B6803F101037A8841
:10D214004FEA122292B2D2B21A7007F10C07BD463D
:10D2240080BC704780B483B000AF786039603B68DD
:10D23400DAB27B681A707B6803F101033A684FEA3B
:10D244001222D2B21A707B6803F102033A684FEAE1
:10D254001242D2B21A707B6803F103033A684FEAB0
:10D264001262D2B21A7007F10C07BD4680BC704737
:10D27400B0B584B000AFF860C7E900233B68F86834
:10D284001946FFF7CFFFFB6803F104027B681C46D5
:10D294004FF00005234610461946FFF7C3FF07F178
:10D2A4001007BD46B0BD00BF80B584B000AF786044
:10D2B4003960386808F0FAFD0346FB81FB89786819
:10D2C4001946FFF797FF07F11007BD4680BD00BF61
:10D2D40080B584B000AF786039603B68FB60FB6860
:10D2E40078681946FFF79EFF07F11007BD4680BD19
:10D2F40080B584B000AFF86007F1040383E806004A
:10D304007B68F8681946FFF78DFFFB6803F1040298
:10D31400BB6810461946FFF785FF07F11007BD46A5
:10D3240080BD00BF80B485B000AFF860B9607A609A
:10D33400FB68BA681A60FB687A685A60FB684FF049
:10D3440000029A60FB684FF00002DA6007F11407EC
:10D35400BD4680BC704700BF80B483B000AF786026
:10D364007B685A687B689B68D31A184607F10C07D8
:10D37400BD4680BC704700BF80B584B000AFF86084
:10D38400B9607A60FB681A68FB68DB68D318B86810
:10D3940019467A6811F062F9FB68DA687B68D2187A
:10D3A400FB68DA6007F11007BD4680BD80B584B024
:10D3B40000AF78607B681A687B68DB68D318FB6011
:10D3C4007B68DB6803F101027B68DA60F868FFF7C9
:10D3D40053FE0346184607F11007BD4680BD00BF43
:10D3E40080B584B000AF78607B681A687B68DB68BE
:10D3F400D318FB607B68DB6803F102027B68DA60A8
:10D40400F868FFF745FE0346184607F11007BD46C6
:10D4140080BD00BF80B584B000AF78607B681A68B7
:10D424007B68DB68D318FB607B68DB6803F104026C
:10D434007B68DA60F868FFF741FE0346184607F197
:10D444001007BD4680BD00BF80B584B000AF7860D2
:10D454007B681A687B68DB68D318FB607B68DB68D1
:10D4640003F102027B68DA60F868FFF773FE034693
:10D47400184607F11007BD4680BD00BF80B584B0D3
:10D4840000AF78607B681A687B68DB68D318FB6040
:10D494007B68DB6803F104027B68DA60F868FFF7F5
:10D4A4006DFE0346184607F11007BD4680BD00BF58
:10D4B40080B584B000AF786039603B681A683B6817
:10D4C400DB68D318FB603B68DB6803F108023B6848
:10D4D400DA607B681846F968FFF760FE786807F140
:10D4E4001007BD4680BD00BF80B582B000AF786034
:10D4F40039607B689A683B68D2187B685B689A429B
:10D5040002D84FF001030DE04FF24810C0F20100C1
:10D514004FF093014FF28C12C0F2010200F08AF92D
:10D524004FF00003184607F10807BD4680BD00BF51
:10D5340080B584B000AFF860B9607A60F868796843
:10D54400FFF7D2FF0346002B0FD0FB681A68FB6875
:10D554009B68D3181846B9687A6811F07FF8FB689D
:10D564009A687B68D218FB689A6007F11007BD4679
:10D5740080BD00BF80B584B000AF78600B46FB70FF
:10D5840078684FF00101FFF7AFFF0346002B10D07E
:10D594007B681A687B689B68D318FB607B689B6810
:10D5A40003F101027B689A60FB78F8681946FFF77B
:10D5B40013FE07F11007BD4680BD00BF80B584B0DF
:10D5C40000AF78600B467B8078684FF00201FFF76C
:10D5D4008BFF0346002B10D07B681A687B689B681E
:10D5E400D318FB607B689B6803F102027B689A6036
:10D5F4007B88F8681946FFF7FDFD07F11007BD4663
:10D6040080BD00BF80B584B000AF786039607868B1
:10D614004FF00401FFF768FF0346002B0FD07B682F
:10D624001A687B689B68D318FB607B689B6803F16E
:10D6340004027B689A60F8683968FFF7F3FD07F124
:10D644001007BD4680BD00BF80B586B000AFF8604E
:10D65400C7E90023F8684FF00801FFF745FF0346C8
:10D66400002B10D0FB681A68FB689B68D3187B6199
:10D67400FB689B6803F10802FB689A607869D7E944
:10D684000023FFF7F5FD07F11807BD4680BD00BF75
:10D6940080B584B000AF7860396078684FF00201DB
:10D6A400FFF722FF0346002B0FD07B681A687B68C4
:10D6B4009B68D318FB607B689B6803F102027B685C
:10D6C4009A60F8683968FFF7EFFD07F11007BD4667
:10D6D40080BD00BF80B584B000AF786039607868E1
:10D6E4004FF00401FFF700FF0346002B0FD07B68C7
:10D6F4001A687B689B68D318FB607B689B6803F19E
:10D7040004027B689A60F8683968FFF7E1FD07F165
:10D714001007BD4680BD00BF80B586B000AFF8607D
:10D7240007F1040383E80600F8684FF00801FFF7E7
:10D73400DBFE0346002B12D0FB681A68FB689B686B
:10D74400D3187B61FB689B6803F10802FB689A604D
:10D75400786907F1040393E80600FFF7C9FD07F1B0
:10D764001807BD4680BD00BF80B400AF40F65053DB
:10D77400C2F200034FF000021A7040F65453C2F292
:10D7840000034FF000021A6040F65853C2F200033F
:10D794004FF000021A70BD4680BC704780B483B05D
:10D7A40000AF786040F65453C2F200037A681A60FE
:10D7B40007F10C07BD4680BC704700BF80B400AFC2
:10D7C40040F65453C2F200031B681846BD4680BCA1
:10D7D400704700BF80B400AF40F65853C2F2000354
:10D7E4001B781846BD4680BC704700BF80B582B028
:10D7F40000AF0346FB7140F65853C2F20003FA79B6
:10D804001A7040F65C50C2F200004FF03E014FF037
:10D814003F02FFF7ABF807F10807BD4680BD00BF24
:10D8240080B483B000AF786007F10C07BD4680BCBC
:10D83400704700BF80B5CCB000AF07F10C0318608F
:10D8440007F10803196007F104031A6040F6505306
:10D85400C2F200034FF001021A7040F65453C2F2B0
:10D8640000031B6803F1010240F65453C2F20003A3
:10D874001A6040F65853C2F200031B7883F0010388
:10D88400DBB2002B05D007F104031868FFF7C8FFCB
:10D8940085E007F1180207F12803104619464FF0F6
:10D8A400F802FFF73FFD07F590731846FCF7F8F907
:10D8B40007F11803184607F5907393E80600FFF77D
:10D8C4002BFF07F10C031B68002B37D007F10C0367
:10D8D400186810F01FFF034607F1180107F10C0246
:10D8E400084611681A46FFF723FE07F11803184685
:10D8F4004FF02001FFF73EFE07F1100207F1080385
:10D9040010464FF29011C0F201011A6810F090FE17
:10D9140007F11003184610F0FDFE034607F1180145
:10D9240007F11002084611461A46FFF701FE07F1F7
:10D93400180318464FF02001FFF71CFE07F10403FB
:10D94400186810F0E7FEC7F82C0107F11803184611
:10D95400FFF702FDC7F82801D7F82C21D7F82831A2
:10D964009A4203D9D7F82831C7F82C3107F11802A5
:10D9740007F1040310461968D7F82C21FFF7D8FDE6
:10D9840007F118039B6807F1280240F65C50C2F2C5
:10D99400000044F24641C4F64C71FFF7E5F807F580
:10D9A4009877BD4680BD00BF80B485B000AFF860F5
:10D9B400B9607A60FB68BA681A60FB687A685A6072
:10D9C400FB684FF000021A72FB684FF00002DA6045
:10D9D400FB684FF000021A61FB684FF000025A61C5
:10D9E40007F11407BD4680BC704700BF80B483B004
:10D9F40000AF78607B684FF000021A727B684FF0CA
:10DA04000002DA607B684FF000021A617B684FF015
:10DA140000025A6107F10C07BD4680BC704700BF85
:10DA240080B483B000AF78607B681B7A184607F136
:10DA34000C07BD4680BC704780B483B000AF7860EB
:10DA44007B684FF003021A7207F10C07BD4680BCD5
:10DA5400704700BF80B586B000AFF860B9607A60E7
:10DA6400FB685A697B68D3187B61FB68DA687B6959
:10DA74009A4205D2FB68DA68FB685B69D31A7B605B
:10DA8400FB681A68FB685B69D3181846B9687A683A
:10DA940010F0E4FDFB685A697B68D218FB685A6190
:10DAA400FB685A69FB68DB689A4204D1FB684FF053
:10DAB40002021A7205E0FB681B6903F10102FB68AC
:10DAC4001A6107F11807BD4680BD00BF80B584B058
:10DAD40000AFF860B9607A607B68012B03D8F868FE
