:10800000982D00202D8200003F8200004182000058
:10801000438200004582000047820000000000000B
:108020000000000000000000000000004982000085
:108030004B820000000000004D8200004F820000D3
:10804000315F01006DE90000558200000900010068
:1080500019000100519301005D8200001D8C000099
:108060006182000063820000C18E0000BDE9000053
:10807000698200006B820000B14D010029000100FF
:1080800039000100738200007582000077820000D1
:10809000798200007B8200007D8200007F820000E8
:1080A00081820000838200008582000087820000B8
:1080B000898200008B8200009D9700008F82000063
:1080C0009182000093820000958200009782000058
:0880D000998200009B82000070
:1080D8003449072291438D46334934480A1A06D059
:1080E8000722914381F30988022282F314883048D9
:1080F8003049314A00F043F830483149314A00F0FC
:108108003EF831483149324A00F039F831483249AD
:10811800324A00F034F832483249334A00F02FF836
:1081280032483349334A00F02AF833483349344A4D
:1081380000F025F833483449002200F02BF8334882
:108148003349002200F026F832483349091A082931
:1081580003DB00220260043001601F481F49884287
:1081680005D00268043003B4904703BCF7E7002049
:108178008646EC4600200021284A9047FEE78842C0
:1081880007D0521A05D0037801300B700131013A3B
:10819800F9D17047884202D002700130FAE770477F
:1081A8001F487047982D0020982D0020982D0020FA
:1081B800F4DA0100BC03002050040020AC82000067
:1081C800AC82000060CF010038D801000001002017
:1081D800BC03002060CF010060CF010060CF010028
:1081E80060CF010060CF010060CF010060CF0100C7
:1081F80060CF010038D8010088DB0100500400205E
:108208005004002050040020941D0020941D0020DC
:10821800981D0020981D0020981D00205D870000F3
:10822800FFFFFFFFDFF86CD01B4880471B481C4945
:108238000160FFF74DBFFEE7FEE7FEE7FEE7FEE75A
:10824800FEE7FEE7FEE7FEE7FEE7FEE7FEE7FEE7FE
:10825800FEE7FEE7FEE7FEE7FEE7FEE7FEE7FEE7EE
:10826800FEE7FEE7FEE7FEE7FEE7FEE7FEE7FEE7DE
:10827800FEE7FEE7FEE7FEE7FEE7FEE7FEE7FEE7CE
:10828800FEE7FEE7FEE7FEE7FEE7FEE7FEE7FEE7BE
:10829800FEE7FEE7008000200950010008ED00E03D
:0482A8000080000052
:1082AC0080B400AF72B6084B1B68B3F1FF3F04D02B
:1082BC00054B1B685A1C044B1A60034B1B68184671
:1082CC00BD465DF8047B70474C1C002080B483B025
:1082DC0000AF0C4B1B68002B0DD00A4B1B685A1EB1
:1082EC00084B1A60074B1B687B607B68002B00D126
:1082FC0062B67B6800E0002318460C37BD465DF87B
:10830C00047B70474C1C002080B500AFFFF7C8FF02
:10831C0080BD00BF80B500AFFFF7D8FF80BD00BFA8
:10832C0080B582B002AFA64801210DF061FA0020A1
:10833C000021002200230DF083FF002005210022E4
:10834C0000230DF07DFF00200621002200230DF0FC
:10835C0077FF02200221002200230DF071FF022082
:10836C000321002200230DF06BFF022004210022C8
:10837C0000230DF065FF02200521002200230DF0E3
:10838C005FFF04200821002200230DF059FF042078
:10839C000D21002200230DF053FF04200E2100229A
:1083AC0000230DF04DFF04200F21002200230DF0BF
:1083BC0047FF05200C21002200230DF041FF052072
:1083CC000221042200230DF03BFF03200621002292
:1083DC0000230DF035FF02200121042201230DF0B2
:1083EC002FFF02200021042201230DF029FF04207D
:1083FC000921042201230DF023FF00200F21042268
:10840C0001230DF01DFF00200821042200230DF094
:10841C0017FF02200621042200230DF011FF022079
:10842C000721042200230DF00BFF02200821022259
:10843C0000230DF005FF00200A21022200230DF07D
:10844C00FFFE0123009300200A21012201230DF0DD
:10845C009DFE03200821042201230DF0F1FE0020D3
:10846C000421012200230DF0EBFE012300930020D8
:10847C000421012201230DF089FE00200221042297
:10848C0000230DF0DDFE00200321042200230DF05B
:10849C00D7FE04200B21012200230DF0D1FE042075
:1084AC000A21042200230DF0CBFE04200C2104220F
:1084BC0000230DF0C5FE05200021002200230DF045
:1084CC00BFFE05200121002200230DF0B9FE022081
:1084DC000921012200230DF0B3FE01230093022099
:1084EC000921012201230DF051FE03200721002256
:1084FC0000230DF0A5FE02200A21042200230DF01A
:10850C009FFE02200B21042200230DF099FE052072
:10851C000521042200230DF093FE05200A210122DF
:10852C0000230DF08DFE05200B21012200230DF000
:10853C0087FE03200121022201230DF081FE03207E
:10854C000021042201230DF07BFE032002210422D2
:10855C0001230DF075FE00200121042200230DF0F3
:10856C006FFE03200521042200230DF069FE032079
:10857C000321042201230DF063FE032004210222B7
:10858C0001230DF05DFE0123009303200421012241
:10859C0001230DF0FBFD00200921042200230DF026
:1085AC004FFE01200B21042200230DF049FE012077
:1085BC000C21042200230DF043FEBD4680BD00BFFC
:1085CC0000D2020001387FF4FDAF704780B582B055
:1085DC0000AF78607B68064A02FB03F2054BA3FBF5
:1085EC0002139B0C1846FFF7EDFF0837BD4680BD04
:1085FC0000366E01819F5E1680B582B000AF786048
:10860C0003E04FF4FA50FFF7DDFF7B685A1E7A60E7
:10861C00002BF6D10837BD4680BD00BF80B483B0B7
:10862C0000AF03463960FB710948FA793B680121B8
:10863C0001FA03F319461346DB0013449B00034471
:10864C00103359600C37BD465DF8047B704700BF92
:10865C000060004080B500AF06F0C8FC09F078F867
:10866C000CF062FB01F076F900F07AFA00F0E8FF0A
:10867C0000F086FD00F022FF012007F0B7FB00F0B0
:10868C00D9FB024B03221A6180BD00BF00400C4095
:10869C0080B500AF00F0F4FB00F0DEFB012007F02A
:1086AC00BBFB01F04FF900F061FA00F0D1FF00F0D4
:1086BC0075FD06F05DFC06F03BFE80BD80B500AF9D
:1086CC00044B01221A70044B01221A7003F0C6FAF3
:1086DC0080BD00BF500400205104002080B500AFC5
:1086EC00054B00221A70054B00221A70FFF7D0FFC1
:1086FC0003F0CCFA80BD00BF5004002051040020D0
:10870C0080B582B000AF0346FB710A4B1B78FA7937
:10871C009A4200D10AE0FB79012B02D1FFF7CEFF80
:10872C0004E0FB79002B01D1FFF7D8FF0837BD46D9
:10873C0080BD00BF5004002080B400AF034B1B78F9
:10874C001846BD465DF8047B704700BF50040020FE
:10875C0080B586B000AF0BF0F3FBFFF7E1FD52489C
:10876C0001210DF045F8514A07F1080310685168D2
:10877C0003C3127A1A700B233B7407F108031846D3
:10878C000EF090FC0BF058FC494B00221A70494B30
:10879C0000221A7004F08CF906F058F80AF092FFD7
:1087AC000BF0C6FC04F0B6FC02200121FFF736FFEB
:1087BC0002200021FFF732FF04200921FFF72EFFD2
:1087CC0000200F21FFF72AFF0BF03CFC00F0EAFE23
:1087DC0000F022F901F042F80BF034FC00F000FB41
:1087EC0000F04EFB07F082F807F086F800F042FE2E
:1087FC000BF028FC07F0B0F9012007F099FA0120E2
:10880C0007F00AFB00F064FC00F0C8FC00F0D2FC9E
:10881C0002F024FD02F094FB3B1D184605F046F8CF
:10882C0078617B69002B04D07B681846796903F06A
:10883C003DFA0BF049FA03F081FA06F0C3FD0BF098
:10884C00CFFF08F0B3FF0BF0FDFB06F07BFD05F04E
:10885C0057FE06F025F906F01DFB06F089FB0BF020
:10886C00F1FB01F06FF807F081FF06F0C1F8114B36
:10887C001B78002B09D003F0E5F90346002B04D03C
:10888C000C4B00221A70FFF7E5FE094B1B78012BED
:10889C0009D1094B9B6803F00303002B03D0002084
:1088AC00FFF72EFFE1E7E0E70043040060CF010093
:1088BC00500400205104002000400C4080B483B0D0
:1088CC0000AF0346FB71084B97F907205209F97961
:1088DC0001F01F01012000FA01F143F822100C37BE
:1088EC00BD465DF8047B704700E100E080B483B0C6
:1088FC0000AF0346FB71094B97F907205209F97930
:10890C0001F01F01012000FA01F1603243F822103E
:10891C000C37BD465DF8047B704700BF00E100E0FA
:10892C0080B483B000AF78607B685B6A18460C3704
:10893C00BD465DF8047B704780B483B000AF7860AF
:10894C0039607B683A681A620C37BD465DF8047B67
:10895C00704700BF80B483B000AF786039607B682B
:10896C005A693B681A437B685A610C37BD465DF8FF
:10897C00047B704780B483B000AF78607B689B69E0
:10898C0018460C37BD465DF8047B704780B483B045
:10899C0000AF78600B46FB70FA787B685A600C3736
:1089AC00BD465DF8047B704780B483B000AF0346CE
:1089BC003960FB710948FA793B68012101FA03F32C
:1089CC0019461346DB0013449B00034410335960D3
:1089DC000C37BD465DF8047B704700BF006000405B
:1089EC0080B483B000AF03463960FB710948FA7953
:1089FC003B68012101FA03F319461346DB001344CB
:108A0C009B000344103319600C37BD465DF8047BA2
:108A1C00704700BF0060004080B500AF074B084AAC
:108A2C001A600020002100F0FFF80120002100F066
:108A3C00FBF80220002100F0F7F880BD680400204C
:108A4C000000204080B483B000AF7860034B7A689C
:108A5C001A600C37BD465DF8047B70476804002033
:108A6C0080B400AF034B1B681846BD465DF8047B11
:108A7C00704700BF6804002090B583B000AF114B65
:108A8C001B78FB71104B1B881B099BB23B60FB795D
:108A9C00184612F08FF804460C4B1B683A68D31A30
:108AAC00184612F087F803461846094912F030FAB6
:108ABC0003462046194612F095F9034618460C3722
:108ACC00BD4690BDB281E00FBE81E00F5404002082
:108ADC00288A223E80B582B000AF104B1B68184626
:108AEC0012F080F802460E4B1B681046194612F025
:108AFC000FFA034618460B4912F00AFA03467B603C
:108B0C007868094912F076FB0346002B01D0064B1E
:108B1C007B607B6818460837BD4680BD5804002032
:108B2C00680400208697023A6666864080B500AFDE
:108B3C00084B1B68184612F055F8034618460649B0
:108B4C0012F0E6F903461846044912F0E1F903461F
:108B5C00184680BD5C040020010AA0398A4B863D72
:108B6C0080B400AFBD465DF8047B704780B400AFA5
:108B7C00BD465DF8047B704780B582B000AF1D48E0
:108B8C00FFF7CEFE78601C4B1B78DBB2012B07D0B5
:108B9C00022B0DD0002B0FD1184B7A681A600BE00A
:108BAC0005200221FFF700FF154B7A681A6003E0DD
:108BBC00144B7A681A6000BF0320062100220023A0
:108BCC000DF03EFB03200721002200230DF038FBA3
:108BDC000D4B01221A7007480121FFF7ADFE07204B
:108BEC00FFF784FE094800210CF002FE0837BD4651
:108BFC0080BD00BF00200040610400205404002010
:108C0C00580400205C0400206004002000020300D3
:108C1C0080B500AFFFF7B0FF024B1B68184605F09C
:108C2C008DFE80BD6404002080B588B000AF024684
:108C3C000B46FA71BB71494801210CF0D9FD002398
:108C4C003B7600237B760023BB761F23FB76002329
:108C5C003B7700237B7700200CF03EFB0346FB7632
:108C6C003F4800210CF006FB03463B7700233B7387
:108C7C0000237B730023BB730023FB7300233B7423
:108C8C0000237B740023BB740023FB7400233B750F
:108C9C0008237B73FB79012B0BD0022B1BD0002BF1
:108CAC0027D10023BB7308233B742E4B20221A6060
:108CBC001FE003200621012200230DF0C1FA05203C
:108CCC000221FFF78DFE0223BB7306233B74254B59
:108CDC0040221A600DE003200721012200230DF031
:108CEC00AFFA0023BB7307233B741E4B80221A6020
:108CFC0000BF07F118031C4819460CF043FA07F1A2
:108D0C000C03194819460CF06DFA17480121FFF7AE
:108D1C0021FEBB79002B02D00720FFF7CFFD134BB0
:108D2C00FA791A70124B00221A700F480121FFF7C2
:108D3C002DFEBB7983F00103DBB2002B0AD000BF00
:108D4C000948FFF717FE034603F00103002BF7D089
:108D5C00FFF712FF2037BD4680BD00BF00020300A5
:108D6C00C0CF6A0064040020002000406104002091
:108D7C006004002080B483B000AF0346FB71094B44
:108D8C0097F907205209F97901F01F01012000FA27
:108D9C0001F1603243F822100C37BD465DF8047BBC
:108DAC00704700BF00E100E080B483B000AF034621
:108DBC003960FB710948FA793B68012101FA03F328
:108DCC0019461346DB0013449B000344103319600F
:108DDC000C37BD465DF8047B704700BF0060004057
:108DEC0090B585B000AF0E4801210CF001FD0D4B84
:108DFC003C460FCB84E80F000B4B7B600B4BBB60EE
:108E0C003B460B4819460DF027FB094B40F2031269
:108E1C009A63074801210DF00FFB1437BD4690BD36
:108E2C0000C202006CCF0100006CDC023C6D010042
:108E3C0000A4004080B500AF054B00229A630448A3
:108E4C0000210DF0F9FA034800210CF0D1FC80BD93
:108E5C0000A4004000C2020080B500AF064801210A
:108E6C000CF0C6FC054B40F203129A630348012137
:108E7C000DF0E2FA80BD00BF00C2020000A4004069
:108E8C0080B500AF01200B21082201230DF0D8F989
:108E9C0001200C21082201230DF0D2F90020092118
:108EAC00FFF782FF6420FFF7A7FB0A20FFF762FFA2
:108EBC0080BD00BF80B500AF03480DF0F7FA034644
:108ECC001A46024B1A7080BD00A400406C040020AE
:108EDC0080B584B000AF78600023FB6039E0234894
:108EEC0079680DF0E5FC03461A46214B1A700023F5
:108EFC00BB6010E01D480DF0D9FA03461A461C4B16
:108F0C001A701B4B1B78DBB25BB2012B00D007E055
:108F1C00BB680133BB60BA6842F20F739A42E9D95D
:108F2C00134B1B78DBB25BB2B3F1FF3F03D1FB6891
:108F3C000133FB600DE00E4B1B78DBB2002B06D02F
:108F4C000C484A210C4A03F00DFE00230AE00123D1
:108F5C0008E0FB68042BC2D906484F21064A03F0EF
:108F6C0001FE002318461037BD4680BD00A400400A
:108F7C006C0400207CCF0100C0CF010080B588B00C
:108F8C0000AF0B463A600246FA71BB71FB799BB29B
:108F9C00BB810423FB81BB1D3B610123BB823B686E
:108FAC00BB610123BB8307F10C031846FFF790FF4D
:108FBC00034618462037BD4680BD00BF80B588B03B
:108FCC0000AF13460246FA710A46BA717B71FB79FF
:108FDC009BB2BB810823FB81BB1D3B610123BB8280
:108FEC007B1DBB610123BB8307F10C031846FFF704
:108FFC006FFF034618462037BD4680BD80B58AB04A
:10900C0000AFBA607B600346FB730B46BB73FB7B04
:10901C009BB2BB820823FB8207F10E03BB610123C9
:10902C00BB83BB683B627B689BB2BB8407F11403B8
:10903C001846FFF74DFF034618462837BD4680BD3E
:10904C0080B582B000AF01233B6000237B600448F5
:10905C003B4693E806000AF013FC0837BD4680BD7A
:10906C007404002080B586B002AF4FF48030AF217D
:10907C0007F06CF90346BB73BB7B03F01F03FB7358
:10908C0019E0E8233B7307F10C023B1D062100910C
:10909C004FF480301146012207F01AF90B4B1B6874
:1090AC00002B08D0094B1B68B888F9883A8900B2A4
:1090BC0009B212B29847FB7B5A1EFA73002BE0D10F
:1090CC00FFF7BEFF1037BD4680BD00BF7004002007
:1090DC0080B582B000AF1E4B00221A604FF4803076
:1090EC008F2107F033F90346FB71FB79332B05D045
:1090FC0018488C21184A03F035FD25E04FF48030D8
:10910C002321A82207F0A0F84FF480302E21002252
:10911C0007F09AF84FF480302E21902207F094F843
:10912C004FF480302221062207F08EF84FF4803065
:10913C002421402207F088F80420084905F0C6FBDA
:10914C00074806490AF0D8FA0837BD4680BD00BF6B
:10915C0070040020C4CF010008D001007190000001
:10916C007404002080B483B000AF7860034B7A683D
:10917C001A600C37BD465DF8047B70477004002004
:10918C0080B500AF04480AF0CDFB4FF480302021AD
:10919C00002207F059F880BD7404002080B500AFA0
:1091AC00FFF74EFF4FF480302021372207F04CF8A8
:1091BC0080BD00BF80B483B000AF0E4B00221A609C
:1091CC000D4B00221A600D4B00221A6000237B60AD
:1091DC0007E00B4A7B68134400221A707B6801334A
:1091EC007B607B681F2BF4DD0C37BD465DF8047B80
:1091FC00704700BF8004002084040020A8040020D5
:10920C008804002080B400AF034B1B681846BD4691
:10921C005DF8047B704700BF8004002080B400AF71
:10922C00054B1B68002B0CBF00230123DBB2184637
:10923C00BD465DF8047B70478004002080B582B089
:10924C0000AF7860034B7A681A6001F0F7FF0837BB
:10925C00BD4680BD8004002080B582B000AF786030
:10926C00094B1A687B681A44074B1A60064B1B683B
:10927C00012B04D901F0D6FF034B01221A6001F037
:10928C00DDFF0837BD4680BD8004002080B582B06C
:10929C0000AF78600A4B1B687A689A4205D901F0D6
:1092AC00C1FF074B00221A6007E0054B1A687B6868
:1092BC00D21A034B1A6001F0C1FF0837BD4680BDBE
:1092CC008004002080B400AF034B1B681846BD46D9
:1092DC005DF8047B704700BF8404002080B400AFAD
:1092EC00054B1B68002B0CBF00230123DBB2184677
:1092FC00BD465DF8047B70478404002080B582B0C5
:10930C0000AF7860034B7A681A6001F09FFF083752
:10931C00BD4680BD8404002080B582B000AF78606B
:10932C00094B1A687B681A44074B1A60064B1B687A
:10933C00022B04D901F076FF034B02221A6001F0D4
:10934C0085FF0837BD4680BD8404002080B582B0FF
:10935C0000AF78600A4B1B687A689A4205D901F015
:10936C0061FF074B00221A6007E0054B1A687B6807
:10937C00D21A034B1A6001F069FF0837BD4680BD55
:10938C008404002080B483B000AF0B4B00221A6021
:10939C0000237B6007E0094A7B68134400221A70A3
:1093AC007B6801337B607B681F2BF4DD0C37BD467B
:1093BC005DF8047B704700BFA804002088040020DF
:1093CC0080B582B000AF786039600D4B1A683B688D
:1093DC001344202B02D901F025FF0EE0084B1A682C
:1093EC00084B1344184679683A6812F077FB044B23
:1093FC001A683B681A44024B1A600837BD4680BD98
:10940C00A80400208804002080B582B000AF7860EA
:10941C003960084B1B68002B01D001F003FFFFF7EC
:10942C00B1FF78683968FFF7CBFF01F07DFF083793
:10943C00BD4680BDA804002080B584B000AFF860A4
:10944C00B9607A603B600A4B1B68002B01D001F0BD
:10945C00E9FEFFF797FFF868B968FFF7B1FF786886
:10946C003968FFF7ADFF01F05FFF1037BD4680BDD7
:10947C00A804002080B582B000AFBB1D1C200721C2
:10948C001A46FFF77BFD0346FB71FB7983F0010362
:10949C00DBB2002B00D00AE0BB79C42B05D0054809
:1094AC002D21054A03F05EFB01E000F007F80837B8
:1094BC00BD4680BD0CD0010054D0010080B582B0F7
:1094CC0000AF1C2011210022FFF778FD0346FB7131
:1094DC00FB7983F00103DBB2002B05D00D484C2146
:1094EC000D4A03F03FFB12E01C2010210022FFF775
:1094FC0065FD0346FB71FB7983F00103DBB2002BA6
:10950C0005D004485121044A03F02CFB00BF083756
:10951C00BD4680BD0CD0010054D0010080B483B096
:10952C0000AF0346FB71084B97F907205209F979F4
:10953C0001F01F01012000FA01F143F822100C3751
:10954C00BD465DF8047B704700E100E080B400AFDD
:10955C00034B5B681846BD465DF8047B704700BF43
:10956C000000084080B483B000AF7860034B7A6889
:10957C009A610C37BD465DF8047B704700000840CB
:10958C0080B483B000AF7860054B054AD1697A6826
:10959C000A43DA610C37BD465DF8047B704700BFA7
:1095AC000000084080B582B000AF1E4B00221A604C
:1095BC001D4801210CF01CF90020012101220CF0A6
:1095CC0051FC1A4802210CF001FB194802210CF045
:1095DC00FDFA184801210CF00BF9134801210CF08D
:1095EC0007F9154B144A126822F0607242F400021B
:1095FC001A60114B0222C3F8802000F029F80220D7
:10960C00FFF7BEFF1E20FFF789FF0C4A3B1D118898
:10961C00927819809A703B1D18460DF04FFB083755
:10962C00BD4680BDAC0400200043040002000600CF
:10963C00030012003014080000800C4058D00100C8
:10964C0080B500AF00204FF6FF710DF009FB80BD17
:10965C0080B500AF002040F2FF310DF001FB0DF0A2
:10966C0055FB80BD80B582B000AF3B4683E803005C
:10967C00FEF74AFE4FF000533A685A604FF0005321
:10968C007968074AA2FB0102520B47F6122101FB33
:10969C0002F29A60FEF73EFE0837BD4680BD00BF61
:1096AC0083DE1B4380B400AF4FF000535B68184659
:1096BC00BD465DF8047B704780B584B000AF786020
:1096CC00FEF722FE4FF000539B68FB604FF00053F7
:1096DC005B68BB60FEF71EFE7B6807F1080292E830
:1096EC00030083E8030078681037BD4680BD00BFD7
:1096FC0080B586B000AF78604FF000539B68FB607C
:10970C004FF000535B68BB60FFF720FF78614FF0B0
:10971C0000539B683B61FA683B699A4200D100E0B8
:10972C00EAE7FA687B6947F6122101FB03F39B0A0F
:10973C001344FB607B6807F1080292E8030083E89E
:10974C00030078681837BD4680BD00BF80B582B075
:10975C0000AF7860FEF7D8FD034B7A681A60FEF70D
:10976C00D9FD0837BD4680BDAC04002080B582B061
:10977C0000AFFEF7C9FD054B1B687B60FEF7CAFD09
:10978C007B6818460837BD4680BD00BFAC0400207E
:10979C0080B582B000AF0220FFF7E4FE1F4B9A6841
:1097AC0040F2FF339A422ED14FF000539B6803F5E1
:1097BC00F44312337B607A68194B9A420AD97B685E
:1097CC00A3F57423A3F510737B604FF000535A6814
:1097DC0001325A604FF000537A689A604FF48070EF
:1097EC0005F0ACF80F4B1B68002B0BD00D4B1B6816
:1097FC00013B0C4A1360002B04D14FF4007005F0B0
:10980C009DF807E006E04FF000534FF0005252680D
:10981C0002325A600837BD4680BD00BF00000840C8
:10982C003F420F00AC04002080B400AF0A49496CE1
:10983C0008464FF00001030000220749096C084656
:10984C004FF0000142EA000243EA010310461946B8
:10985C00BD465DF8047B7047B081E00FB0B586B0B3
:10986C0002AF234B00221A70224823494FF4C872CE
:10987C0003F020FA4FF4C87300932048204940228B
:10988C00204B03F095FB204804F0FEFF4FF4805072
:10989C001E4905F01BF8FFF7C7FFC7E902010023BB
:1098AC007B601FE03B7A03F00F03FB70FB78092B06
:1098BC0003D8FB783033FB7002E0FB783733FB7056
:1098CC00FB789AB212497B685B000B445A80D7E94B
:1098DC000223140944EA03741D09C7E902457B6895
:1098EC0001337B607B680F2BDCD91037BD46B0BDD4
:1098FC00B004002088060020F8040020E0060020B8
:10990C0020425355F4060020459A0000799B000034
:10991C00BC03002080B500AF0DF046FF0346002BC2
:10992C000CBF00230123DBB2184680BD80B500AF0D
:10993C000DF03AFF0346052B14BF00230123DBB2C5
:10994C00184680BD80B500AF01480DF039FF80BDD1
:10995C002CD1010080B500AF0EF096F980BD00BF90
:10996C0080B588B000AF78606FF00203FB617B6854
:10997C001B78C3F34113DBB2002B51D17B681B78EE
:10998C00C3F3C013DBB2012B4AD17B681B78C3F342
:10999C000403DBB2012B43D17B685B78062B3FD1F0
:1099AC007B685B889BB21B0A9BB2222B15D12023B0
:1099BC00BB617B689A79DB791B021343FB82FA8AC1
:1099CC00BB699A4238BF1346002018491A46002337
:1099DC000EF070F90023FB6121E07B685B889BB281
:1099EC001B0A9BB2212B1AD111481249092212F0E1
:1099FC0075F809233B617B689A79DB791B02134369
:109A0C00FB81FA893B699A42B8BF1346002008498A
:109A1C001A4600230EF04EF90023FB61FFE700BF4E
:109A2C00FB6918462037BD4680BD00BF70D00100D1
:109A3C0084080020A2D0010080B500AF0EF0DEF843
:109A4C000346184680BD00BF80B582B000AF024609
:109A5C000B46FA71BB7108480AF094FBBB79052BD5
:109A6C0002D1064803F044F94FF4C05004F066FFED
:109A7C000837BD4680BD00BF2042535588060020E4
:109A8C0080B584B000AF0346B9607A60FB734FF4C5
:109A9C00805004F053FF97F90F3013F10B0F04D0E3
:109AAC0097F90F3013F10A0F04D1234803F020F972
:109ABC0000233DE097F90F30002B0AD01F4840F2ED
:109ACC008D111F4A03F04EF81B4803F011F90023C7
:109ADC002EE019481B49BA6803F0A4F9164803F0A4
:109AEC001DF90346032B22D801A252F823F000BF24
:109AFC003B9B00003B9B00000D9B0000279B000044
:109B0C000D4B1A680C4BDB680F4811461A4603F0D4
:109B1C001BFB094803F0ECF809E008484FF4CE7140
:109B2C00074A03F01FF8044803F0E2F800BF0023D3
:109B3C0018461037BD4680BD8806002048D101006C
:109B4C008CD10100B8040020E006002080B584B060
:109B5C0000AF0346B9607A60FB734FF4805004F099
:109B6C00EDFE002318461037BD4680BD80B582B08F
:109B7C0000AF0DF019FE0346052B00D038E0012094
:109B8C000DF0F6FD034683F00103DBB2002B10D081
:109B9C00012019494022194B0DF0B6FF78607B6803
:109BAC00002B05D0164B1B685A1C154B1A6004E091
:109BBC0003E04FF4805004F0B3FE81200DF0D8FD8B
:109BCC00034683F00103DBB2002B0DD00D480E4988
:109BDC0003F042FA0346002B0AD081200A494022A6
:109BEC000A4B0EF067F803E04FF4805004F098FE37
:109BFC000837BD4680BD00BFB80400208D9A000018
:109C0C00B4040020E0060020A0060020599B0000B0
:109C1C0080B584B000AF0346B9607A60FB73FB7B00
:109C2C00184600F0C9FD1037BD4680BD80B586B022
:109C3C0000AF0346B9607A60FB73FB7B002B04D04A
:109C4C00FB7B184600F0C2FD1FE07B68022B02D0A4
:109C5C0001F0E8FA19E0BB681B781B029AB2BB68EA
:109C6C0001331B7813439BB2FB82FB8A1BB2002B84
:109C7C0007DBFB8A03F00103002B02D000F0B0FDE0
:109C8C0003E0FB8A184601F079FF1837BD4680BD0A
:109C9C0080B584B000AF0346B9607A60FB73FB7B80
:109CAC00002B04D0FB7B184600F0A0FD01E000F077
:109CBC00A7FD1037BD4680BD80B584B000AF03460C
:109CCC00B9607A60FB73FB7B012B02D0022B03D0B3
:109CDC0005E001F0DFFD07E001F006FE04E0FB7B90
:109CEC00184600F093FD00BF1037BD4680BD00BF85
:109CFC0080B588B000AF0346B9607A60FB73FB7B1C
:109D0C00012B02D0022B10D012E0BB681B78FB7722
:109D1C00BB680133BB617B68013B7B61FB7F1846F1
:109D2C00B9697A6900F086FD07E000F08FFD04E068
:109D3C00FB7B184600F074FD00BF2037BD4680BD8C
:109D4C0080B584B000AF0346B9607A60FB73FB7BCF
:109D5C00012B02D0022B03D005E000F087FD07E0B9
:109D6C0000F08AFD04E0FB7B184600F075FD00BF97
:109D7C001037BD4680BD00BF80B58AB002AF034628
:109D8C00B9607A60FB73FB7B002B04D0FB7B18461D
:109D9C0000F078FD1EE0B86802F06EFB0346FB8312
:109DAC00BB689B787B77BB68DB783B77BB680433FD
:109DBC00184602F075FBB861BB681B7AFB75F98B12
:109DCC007A7F3B7FF87D0090084611461A46BB69A6
:109DDC0000F062FD2037BD4680BD00BF80B586B067
:109DEC0000AF0346B9607A60FB73FB7B002B04D099
:109DFC00FB7B184600F060FD09E0BB687B61BB682B
:109E0C009B79FB74FB7C7869194600F05FFD183771
:109E1C00BD4680BD80B586B000AF0346B9607A60A0
:109E2C00FB73FB7B002B04D0FB7B184600F05AFD28
:109E3C0012E0B86802F020FB0346FB82FB8A18464E
:109E4C0010F0B8FE03461846054911F061F80346B8
:109E5C003B61386900F050FD1837BD4680BD00BF2E
:109E6C00AE47614080B586B000AF0346B9607A60FA
:109E7C00FB73FB7B002B04D0FB7B184600F046FDEC
:109E8C0014E0B86802F0F8FA0346FB82B7F9163012
:109E9C00184610F08FFE034618464FF07A5111F019
:109EAC0037F803463B61386900F03AFD1837BD4678
:109EBC0080BD00BF80B584B000AF0346B9607A6046
:109ECC00FB73FB7B002B04D0FB7B184600F032FDB0
:109EDC0001E000F039FD1037BD4680BD80B584B07F
:109EEC0000AF0346B9607A60FB73FB7B002B04D098
:109EFC00FB7B184600F02EFD01E000F035FD10371D
:109F0C00BD4680BD80B584B000AF0346B9607A60B1
:109F1C00FB73FB7B002B04D0FB7B184600F02AFD67
:109F2C0001E000F031FD1037BD4680BD80B584B036
:109F3C0000AF0346B9607A60FB73FB7B002B04D047
:109F4C00FB7B184600F026FD01E000F02DFD1037DC
:109F5C00BD4680BD80B584B000AF0346B9607A6061
:109F6C00FB73FB7B002B04D0FB7B184600F022FD1F
:109F7C0001E000F029FD1037BD4680BD80B584B0EE
:109F8C0000AF0346B9607A60FB73FB7B002B04D0F7
:109F9C00FB7B184600F01EFD01E000F025FD10379C
:109FAC00BD4680BD80B584B000AF0346B9607A6011
:109FBC00FB73FB7B002B04D0FB7B184600F01AFDD7
:109FCC0001E000F021FD1037BD4680BD80B584B0A6
:109FDC0000AF0346B9607A60FB73FB7B002B04D0A7
:109FEC00FB7B184600F016FD01E000F01DFD10375C
:109FFC00BD4680BD80B584B000AF0346B9607A60C1
:10A00C00FB73FB7B002B04D0FB7B184600F012FD8E
:10A01C0001E000F019FD1037BD4680BD80B584B05D
:10A02C0000AF0346B9607A60FB73FB7B002B04D056
:10A03C00FB7B184600F00EFD01E000F015FD10371B
:10A04C00BD4680BD80B584B000AF0346B9607A6070
:10A05C00FB73FB7B002B04D0FB7B184600F00AFD46
:10A06C0001E000F011FD1037BD4680BD80B584B015
:10A07C0000AF0346B9607A60FB73FB7B002B04D006
:10A08C00FB7B184600F006FD01E000F00DFD1037DB
:10A09C00BD4680BD80B584B000AF0346B9607A6020
:10A0AC00FB73FB7B002B04D0FB7B184600F002FDFE
:10A0BC0001E000F009FD1037BD4680BD80B584B0CD
:10A0CC0000AF0346B9607A60FB73FB7B002B04D0B6
:10A0DC00FB7B184600F0FEFC01E000F005FD10379C
:10A0EC00BD4680BD80B584B000AF0346B9607A60D0
:10A0FC00FB73FB7B002B04D0FB7B184600F0FAFCB7
:10A10C0001E000F001FD1037BD4680BD80B584B084
:10A11C0000AFBA607B600346FB730B46BB73FB7BE3
:10A12C00052B02D00120FFF797F8FB7B013B1E2B80
:10A13C0000F2F18001A252F823F000BFC5A100008B
:10A14C0023A30000D3A1000023A30000E1A1000081
:10A15C00EFA10000FDA100000BA2000019A200005D
:10A16C0027A2000035A2000043A2000015A30000A6
:10A17C0051A200005FA200006DA200007BA20000B3
:10A18C0089A2000097A20000A5A2000023A3000052
:10A19C0023A3000023A3000023A30000B3A200000C
:10A1AC00C1A20000CFA20000DDA20000EBA20000C3
:10A1BC00F9A2000007A30000BB7B1846B9687A68B7
:10A1CC00FFF726FDAAE0BB7B1846B9687A68FFF753
:10A1DC002DFDA3E0BB7B1846B9687A68FFF758FDE4
:10A1EC009CE0BB7B1846B9687A68FFF765FD95E083
:10A1FC00BB7B1846B9687A68FFF77AFD8EE0BB7BAB
:10A20C001846B9687A68FFF79BFD87E0BB7B184658
:10A21C00B9687A68FFF7B0FD80E0BB7B1846B96877
:10A22C007A68FFF7DBFD79E0BB7B1846B9687A6882
:10A23C00FFF7F0FD72E0BB7B1846B9687A68FFF750
:10A24C0011FE6BE0BB7B1846B9687A68FFF732FEEB
:10A25C0064E0BB7B1846B9687A68FFF73FFE5DE0A7
:10A26C00BB7B1846B9687A68FFF74CFE56E0BB7B9F
:10A27C001846B9687A68FFF759FE4FE0BB7B184661
:10A28C00B9687A68FFF766FE48E0BB7B1846B96888
:10A29C007A68FFF773FE41E0BB7B1846B9687A68B1
:10A2AC00FFF780FE3AE0BB7B1846B9687A68FFF787
:10A2BC008DFE33E0BB7B1846B9687A68FFF79AFECF
:10A2CC002CE0BB7B1846B9687A68FFF7A7FE25E03F
:10A2DC00BB7B1846B9687A68FFF7B4FE1EE0BB7BFF
:10A2EC001846B9687A68FFF7C1FE17E0BB7B1846C1
:10A2FC00B9687A68FFF7CEFE10E0BB7B1846B968E8
:10A30C007A68FFF7DBFE09E0BB7B1846B9687A6810
:10A31C00FFF7E8FE02E000F085FF00BF1037BD46F6
:10A32C0080BD00BF80B584B000AF786039603B68F9
:10A33C00042B02D000F076FF10E07B685B78FB7397
:10A34C007B689B78BB737B68DB787B73F97BBA7B10
:10A35C007B7B084611461A4601F050FA1037BD4671
:10A36C0080BD00BF80B582B000AF786039607B687B
:10A37C005A1C3B68013B1046194600F0CBFB0837D2
:10A38C00BD4680BD80B584B000AF786039607B6815
:10A39C000133184602F070F80346FB817B680333E7
:10A3AC00BB60FB891846B96800F0BEFB1037BD4690
:10A3BC0080BD00BF80B586B000AF786039603B6867
:10A3CC00022B02D800F02EFF13E07B685B78FB7544
:10A3DC007B689B78BB757B6803333B613B68033BB5
:10A3EC00FB60FA7DBB7D104619463A69FB68FFF7A6
:10A3FC008DFE1837BD4680BD80B588B002AF786041
:10A40C0039603B680F2B02D000F00CFF28E07B6812
:10A41C005B78FB757B6802333B617B6808331846BD
:10A42C0002F02AF80346FB817B680A33184602F0D7
:10A43C0023F80346BB817B680C33184602F01CF8EA
:10A44C0003467B817B689B7B7B72F97DFA89BB8998
:10A45C0078890090787A01900846396901F054FAAD
:10A46C001837BD4680BD00BF80B584B000AF7860A2
:10A47C0039603B68032B02D000F0D4FE0BE07B6804
:10A48C005B78FB737B689B78BB73FA7BBB7B10465A
:10A49C00194601F07BFA1037BD4680BD90B587B0E8
:10A4AC0002AF786039603B68072B02D000F0BAFE2F
:10A4BC001BE07B685B78FB737B689B78BB737B686A
:10A4CC00DB787B737B681B793B737B685B79FB72F6
:10A4DC007B689B79BB72F87BB97B7A7B3B7BFC7A84
:10A4EC000094BC7A019400F02BFB1437BD4690BD50
:10A4FC0080B586B000AF786039603B68112B02D014
:10A50C0000F090FE13E07B680133184601F0E4FF85
:10A51C00C7E904017B680933184601F0DDFFC7E980
:10A52C000201D7E90401D7E9022301F099FA18379F
:10A53C00BD4680BD80B584B000AF786039603B68A3
:10A54C00072B02D000F06EFE1CE07B68013318462E
:10A55C0001F092FF0346FB817B680333184601F040
:10A56C008BFF0346BB817B680533184601F084FFE3
:10A57C0003467B81F989BA897B89084611461A46BC
:10A58C0001F0E6F91037BD4680BD00BF80B584B040
:10A59C0000AF786039603B68072B02D000F042FEB8
:10A5AC0005E07B680133FB60F86800F0D5FA1037E2
:10A5BC00BD4680BD80B584B000AF786039603B6823
:10A5CC00022B02D000F02EFE06E07B685B78FB735A
:10A5DC00FB7B184600F0CAFA1037BD4680BD00BFA1
:10A5EC0080B584B000AF786039603B68022B02D034
:10A5FC0000F018FE06E07B685B78FB73FB7B18466B
:10A60C0001F022FA1037BD4680BD00BF80B586B080
:10A61C0000AF786039603B68022B02D800F002FE74
:10A62C0013E07B685B78FB757B689B78BB757B68FC
:10A63C0003333B613B68033BFB60FA7DBB7D1046FB
:10A64C0019463A69FB6801F017F91837BD4680BD09
:10A65C0080B586B000AF786039603B68012B02D8BA
:10A66C0000F0E0FD0EE07B685B78FB757B680233E5
:10A67C003B613B68023BFB60FB7D18463969FA681D
:10A68C0001F058FA1837BD4680BD00BF80B584B0C4
:10A69C0000AF786039603B68022B02D000F0C2FD3D
:10A6AC0006E07B685B78FB73FB7B184600F068FA6E
:10A6BC001037BD4680BD00BF80B584B000AF786058
:10A6CC0039607B681B78FB73FB7B813B0E2B6CD852
:10A6DC0001A252F823F000BF21A700002BA7000015
:10A6EC0035A700003FA7000049A7000053A70000B2
:10A6FC005DA7000067A7000071A700008FA70000EE
:10A70C00ADA70000A3A7000099A700007BA700003D
:10A71C0085A7000078683968FFF704FE48E0786880
:10A72C003968FFF71FFE43E078683968FFF72AFEA7
:10A73C003EE078683968FFF73DFE39E078683968A3
:10A74C00FFF75AFE34E078683968FFF78DFE2FE08A
:10A75C0078683968FFF7A2FE2AE078683968FFF755
:10A76C00C7FE25E078683968FFF7E4FE20E07868DA
:10A77C003968FFF70BFF1BE078683968FFF71AFFA1
:10A78C0016E078683968FFF72BFF11E078683968B4
:10A79C00FFF73CFF0CE078683968FFF759FF07E0DA
:10A7AC0078683968FFF772FF02E000F03BFD00BFEC
:10A7BC001037BD4680BD00BF80B582B000AF0346E8
:10A7CC00FB7100F02FFD0837BD4680BD80B582B00F
:10A7DC0000AF0346FB7100F025FD0837BD4680BD78
:10A7EC0080B500AF00F01EFD80BD00BF80B582B00B
:10A7FC0000AF0346FB7100F015FD0837BD4680BD68
:10A80C0080B400AFBD465DF8047B704780B582B064
:10A81C0000AF0346FB7100F005FD0837BD4680BD57
:10A82C0080B582B000AF0346FB7100F0FBFC08372B
:10A83C00BD4680BD80B485B000AFF860B9607A6069
:10A84C001437BD465DF8047B704700BF80B400AF81
:10A85C00BD465DF8047B704780B582B000AF0346FF
:10A86C00FB7100F0DFFC0837BD4680BD80B400AF43
:10A87C00BD465DF8047B704780B400AFBD465DF803
:10A88C00047B704780B582B000AF0346FB7100F0CB
:10A89C00C9FC0837BD4680BD80B483B000AF3B60B7
:10A8AC000346FB800B467B7113463B710C37BD4650
:10A8BC005DF8047B704700BF80B582B000AF0346E3
:10A8CC00FB7100F0AFFC0837BD4680BD80B483B08F
:10A8DC0000AF78600B46FB700C37BD465DF8047B0F
:10A8EC00704700BF80B582B000AF0346FB7100F02B
:10A8FC0099FC0837BD4680BD80B483B000AF78604A
:10A90C000C37BD465DF8047B704700BF80B582B044
:10A91C0000AF0346FB7100F085FC0837BD4680BDD7
:10A92C0080B483B000AF78600C37BD465DF8047B13
:10A93C00704700BF80B582B000AF0346FB7100F0DA
:10A94C0071FC0837BD4680BD80B400AFBD465DF8D4
:10A95C00047B704780B582B000AF0346FB7100F0FA
:10A96C0061FC0837BD4680BD80B400AFBD465DF8C4
:10A97C00047B704780B582B000AF0346FB7100F0DA
:10A98C0051FC0837BD4680BD80B400AFBD465DF8B4
:10A99C00047B704780B582B000AF0346FB7100F0BA
:10A9AC0041FC0837BD4680BD80B400AFBD465DF8A4
:10A9BC00047B704780B582B000AF0346FB7100F09A
:10A9CC0031FC0837BD4680BD80B400AFBD465DF894
:10A9DC00047B704780B582B000AF0346FB7100F07A
:10A9EC0021FC0837BD4680BD80B400AFBD465DF884
:10A9FC00047B704780B582B000AF0346FB7100F05A
:10AA0C0011FC0837BD4680BD80B400AFBD465DF873
:10AA1C00047B704780B582B000AF0346FB7100F039
:10AA2C0001FC0837BD4680BD80B400AFBD465DF863
:10AA3C00047B704780B582B000AF0346FB7100F019
:10AA4C00F1FB0837BD4680BD80B400AFBD465DF854
:10AA5C00047B704780B582B000AF0346FB7100F0F9
:10AA6C00E1FB0837BD4680BD80B400AFBD465DF844
:10AA7C00047B704780B582B000AF0346FB7100F0D9
:10AA8C00D1FB0837BD4680BD80B400AFBD465DF834
:10AA9C00047B704780B582B000AF0346FB7100F0B9
:10AAAC00C1FB0837BD4680BD80B400AFBD465DF824
:10AABC00047B704780B582B000AF0346FB7100F099
:10AACC00B1FB0837BD4680BD80B400AFBD465DF814
:10AADC00047B704780B582B000AF0346FB7100F079
:10AAEC00A1FB0837BD4680BD80B400AFBD465DF804
:10AAFC00047B704780B582B000AF0346FB7100F059
:10AB0C0091FB0837BD4680BD80B400AFBD465DF8F3
:10AB1C00047B704780B483B000AF786039600C3729
:10AB2C00BD465DF8047B704780B582B000AF03462C
:10AB3C003960FB8000F076FB0837BD4680BD00BF56
:10AB4C0080B483B000AFF871B9717A713B710C3776
:10AB5C00BD465DF8047B704780B483B000AF78606D
:10AB6C000C37BD465DF8047B704700BF80B483B0E2
:10AB7C0000AF0346FB710C37BD465DF8047B704794
:10AB8C0080B483B000AF0346FB710C37BD465DF853
:10AB9C00047B704780B582B000AF786039600120CB
:10ABAC00FEF774FB78683968FEF72EFC0837BD4653
:10ABBC0080BD00BF80B584B000AFF860B9607A602A
:10ABCC003B600120FEF762FBF868B9687A683B6865
:10ABDC00FEF732FC1037BD4680BD00BF80B582B099
:10ABEC0000AF786039600120FEF7B0FB78683968F7
:10ABFC00FEF70AFC0837BD4680BD00BF80B584B0A7
:10AC0C0000AFF860B9607A603B600120FEF79EFBF4
:10AC1C00F868B9687A683B68FEF70EFC1037BD46D9
:10AC2C0080BD00BF80B584B000AF0346FB7102232A
:10AC3C003B7301237B73FB79BB7307F10C03184641
:10AC4C000321FFF7A7FF1037BD4680BD80B584B048
:10AC5C0000AF0346FB8003233B7303237B73FB880A
:10AC6C001B0A9BB2DBB2BB73FB88DBB2FB7307F135
:10AC7C000C0318460421FFF78DFF1037BD4680BD2D
:10AC8C0080B582B000AF064A3B1D12881A803B1D6E
:10AC9C0018460221FFF77EFF0837BD4680BD00BF76
:10ACAC0090D1010080B582B000AF064A3B1D1288DE
:10ACBC001A803B1D18460221FFF76CFF0837BD4672
:10ACCC0080BD00BF94D1010080B584B000AF0246B6
:10ACDC000B46FA80BB8005233B720F237B72FB88EB
:10ACEC00DBB2BB72FB881B0A9BB2DBB2FB72BB886C
:10ACFC00DBB23B73BB881B0A9BB2DBB27B7307F1E5
:10AD0C00080318460621FFF745FF1037BD4680BDE6
:10AD1C0080B584B000AF0346FB7102233B73112353
:10AD2C007B73FB79BB7307F10C0318460321FFF708
:10AD3C0031FF1037BD4680BD80B584B000AF0346EF
:10AD4C00FB7102233B7312237B73FB79BB7307F1FB
:10AD5C000C0318460321FFF71DFF1037BD4680BDBD
:10AD6C0080B586B000AFF880B9807A803B8009232B
:10AD7C003B7313237B73FB88DBB2BB73FB881B0A0F
:10AD8C009BB2DBB2FB73BB88DBB23B74BB881B0A88
:10AD9C009BB2DBB27B747B88DBB2BB747B881B0AF7
:10ADAC009BB2DBB2FB743B88DBB23B753B881B0A66
:10ADBC009BB2DBB27B7507F10C0318460A21FFF737
:10ADCC00E9FE1837BD4680BD80B584B000AF0346A0
:10ADDC00FB7102233B731F237B73FB79BB7307F15E
:10ADEC000C0318460321FFF7D5FE1037BD4680BD76
:10ADFC0080B586B000AF0346B9607A60FB737B68A0
:10AE0C00DBB20233DBB23B750D237B75FB7BBB7571
:10AE1C0007F1140318460321BA687B68FFF7CAFED2
:10AE2C001837BD4680BD00BF80B586B000AF034665
:10AE3C00B9607A60FB737B68DBB20233DBB23B75C3
:10AE4C0015237B75FB7BBB7507F114031846032197
:10AE5C00BA687B68FFF7D2FE1837BD4680BD00BFCD
:10AE6C0080B584B000AF0346FB7102233B731623FD
:10AE7C007B73FB79BB7307F10C0318460321FFF7B7
:10AE8C00ADFE1037BD4680BD80B483B000AF034625
:10AE9C003960FB710949FA791346DB0013449B00B6
:10AEAC000B4418335A683B6822FA03F303F001038E
:10AEBC0018460C37BD465DF8047B704700600040B7
:10AECC0080B483B000AF03463960FB710948FA794E
:10AEDC003B68012101FA03F319461346DB001344C6
:10AEEC009B000344103359600C37BD465DF8047B5E
:10AEFC00704700BF0060004080B483B000AF0346D1
:10AF0C003960FB710948FA793B68012101FA03F3B6
:10AF1C0019461346DB0013449B000344103319609D
:10AF2C000C37BD465DF8047B704700BF00600040E5
:10AF3C0080B500AF00F0A4F900F056FC80BD00BF56
:10AF4C0080B582B002AF314B00221A60304B002228
:10AF5C001A60304B00221A602F4B00221A602F49C6
:10AF6C004FF000024FF00003C1E900232C494FF0D1
:10AF7C0000024FF00003C1E900232A4B00221A7093
:10AF8C00294B00221A80294B00221A802848294973
:10AF9C004FF4C87201F08EFE4FF4C873009326482C
:10AFAC0026491422264B02F003F8264B00221A7075
:10AFBC00254B00221A70254B00221A70244B0022BC
:10AFCC001A70244B00221A70234B00221A70234B48
:10AFDC0000221A7022482349072210F07FFD224BD1
:10AFEC0007221A70214B00221A80214B00221A8052
:10AFFC00204B00221A802048204903F067FC20488F
:10B00C00204908F079FBBD4680BD00BF90080020A8
:10B01C0094080020980800209C080020A00800201C
:10B02C00A8080020B0080020B2080020B4080020B6
:10B03C00480A0020B8080020740A002020454C4221
:10B04C00880A0020180C0020280C0020290C002055
:10B05C002A0C00202B0C00202C0C00202D0C002086
:10B06C00300C0020F4D30100380C00203A0C0020E6
:10B07C003C0C00203E0C002001C001003DAF000044
:10B08C001C0C0020A9BB000080B584B000AF786018
:10B09C0078682A2101F06CFC7868012101F068FCC9
:10B0AC00404B1B687868194601F062FC3E4B1B68EC
:10B0BC007868194601F05CFCFEF7A4F80346786842
:10B0CC00194601F055FCFEF7FDF803467868194661
:10B0DC0001F04EFC354B1B787868194601F008FCE2
:10B0EC00334B1B787868194601F002FC314B1B7806
:10B0FC007868194601F0FCFB2F4B1B7978681946D0
:10B10C0001F0F6FB0023FB732C4B1B78002B03D0B8
:10B11C00FB7B43F00103FB73294B1B78002B03D003
:10B12C00FB7B43F00203FB73264B1B78002B03D0F5
:10B13C00FB7B43F00403FB73234B1B78002B03D0E6
:10B14C00FB7B43F00803FB73204B1B78002B03D0D5
:10B15C00FB7B43F01003FB73FB7B7868194601F013
:10B16C00C7FB1B4B1B787868194601F0C1FB194BC8
:10B17C00D3E90023786801F019FC174B1B88786819
:10B18C00194601F0D5FB154B1B887868194601F060
:10B19C00CFFB134B1B697868194601F0E9FB10379C
:10B1AC00BD4680BD9008002094080020B608002001
:10B1BC002D0C0020B00800201C0C0020280C0020B6
:10B1CC00290C00202A0C00202B0C00202C0C002019
:10B1DC00180C0020A0080020B2080020B4080020A1
:10B1EC00740A002080B582B000AF78600A4B1B88CF
:10B1FC007868194601F09CFB084B1B887868194647
:10B20C0001F096FB064B1B887868194601F090FB01
:10B21C000837BD4680BD00BF3A0C00203C0C002016
:10B22C003E0C002080B500AF0248C721024A01F055
:10B23C0099FC80BDFCD3010044D4010080B500AF63
:10B24C004FF4004003F07AFB80BD00BF80B500AF27
:10B25C004FF4804003F072FB80BD00BF80B500AF9F
:10B26C0003200521FFF72CFE6420FDF7C5F9032010
:10B27C000521FFF741FE6420FDF7BEF980BD00BF3C
:10B28C0080B594B000AF03200421FFF7FDFD034609
:10B29C00002B01D000233CE0204808F0D9FE204BC5
:10B2AC001B68002B01D0032300E001233B741D4BD2
:10B2BC007B612023BB611A4B1B68FB6107F12C03DC
:10B2CC003B6220237B620223BB6202233B6007F1BB
:10B2DC0010037B600123BB600023FB603B464FF0F7
:10B2EC000110194604F054FF012004F091FF08F0FE
:10B2FC00D3FEFEF747F897F82D30FB64FB6C002B60
:10B30C0006D007F12C0302331846F96CFFF7D4F979
:10B31C00012318465037BD4680BD00BF48D40100FC
:10B32C00A80400208804002080B582B000AF4FF044
:10B33C00011004F0F7FE03200321FFF7C1FD00BF4D
:10B34C0003200421FFF7A0FD0346002BF8D1FFF7E3
:10B35C0097FF0346FB71FB7983F00103DBB2002BF3
:10B36C0005D004484FF48471034A01F0FBFB083705
:10B37C00BD4680BDFCD3010050D4010080B582B025
:10B38C0000AF7860064B1A687B681A43044B1A604E
:10B39C004FF4803003F0C4FA0837BD4680BD00BFBF
:10B3AC009008002080B483B000AF78607B68DA43EB
:10B3BC00044B1B681A40034B1A600C37BD465DF8F2
:10B3CC00047B70479008002080B582B000AF786095
:10B3DC00064B1A687B681A43044B1A604FF4803092
:10B3EC0003F09EFA0837BD4680BD00BF94080020CC
:10B3FC0080B483B000AF78607B68DA43044B1B6881
:10B40C001A40034B1A600C37BD465DF8047B70473D
:10B41C00940800202DE9F0438BB000AF75E1AA4BE6
:10B42C001B6803F08003002B0CD0FFF729FC802055
:10B43C00FFF7B8FFA54B01221A704FF4005003F030
:10B44C006FFA62E1A04B1B6803F48073002B06D0EB
:10B45C00FFF728FC4FF48070FFF7A4FF55E19A4BDF
:10B46C001B6803F00103002B02D000F013FA4CE12F
:10B47C00954B1B6803F00203002B15D0944B1B78E3
:10B48C00012094491A46FFF7B3FC0220FFF78AFF0C
:10B49C00914B1B7883F00103DBB2002B00F035815C
:10B4AC000420FFF76BFF30E1874B1B6803F00403AC
:10B4BC00002B11D00023FB834FF4C863BB83FA8BA2
:10B4CC00BB8B10461946FFF7FFFB0420FFF76AFF02
:10B4DC00824B01221A7018E17B4B1B6803F00803A6
:10B4EC00002B11D008237B8310233B830023FB828A
:10B4FC006423BB82788B398BFA8ABB8AFFF730FCCA
:10B50C000820FFF74FFF00E16F4B1B6803F010039F
:10B51C00002B45D001237B6234E04FF001024FF049
:10B52C000003796AA1F12006C1F1200003FA01F5AC
:10B53C0002FA06F6354322FA00F0054302FA01F44A
:10B54C00C7E90245664BD3E90001D7E9022302EAB9
:10B55C00000203EA010352EA030110D0D7E90223E7
:10B56C006FEA02006FEA03015D4BD3E9002302EAA4
:10B57C00000203EA01035A49C1E9002305E07B6A92
:10B58C0001337B627B6A3E2BC7DD554BD3E900232D
:10B59C0052EA030140F0B9801020FFF703FFB4E03A
:10B5AC00494B1B6803F02003002B4BD001233B625B
:10B5BC003BE04FF001024FF00003396AA1F1200685
:10B5CC00C1F1200003FA01F902FA06F649EA06096C
:10B5DC0022FA00F049EA000902FA01F8C7E90089E9
:10B5EC00404BD3E90001D7E9002302EA000203EA49
:10B5FC00010352EA030115D03B6ADBB21846FFF790
:10B60C00E3FBD7E900236FEA02006FEA0301354B35
:10B61C00D3E9002302EA000203EA01033149C1E93C
:10B62C00002305E03B6A01333B623B6A3E2BC0DDE5
:10B63C002C4BD3E9002352EA030166D12020FFF7FB
:10B64C00B1FE62E0204B1B6803F04003002B06D0D8
:10B65C000120FFF75DFB4020FFF7A4FE55E01A4BDD
:10B66C001B6803F40073002B07D00220FFF7DAFAF3
:10B67C004FF40070FFF796FE47E0134B1B6803F482
:10B68C008063002B12D0184B1B881846FFF7DEFA8C
:10B69C004FF48060FFF786FE134B1B88B3F5404FC9
:10B6AC0033D14FF40060FFF769FE2EE0064B1B68A8
:10B6BC0003F40063002B19D0FF20FFF7B3FA4FF40B
:10B6CC000060FFF76FFE20E090080020B00800201B
:10B6DC00380C0020300C00202A0C0020290C0020F3
:10B6EC00A8080020A0080020B20800200E4B1B6800
:10B6FC0003F48053002B08D00C4B1B781846FFF733
:10B70C001BFB4FF48050FFF74DFE074B1B68002BC3
:10B71C0005D0FDF783FD0346002B7FF480AE2C375C
:10B72C00BD46BDE8F08300BF90080020B60800209D
:10B73C0080B500AF0BE00B4B1B6803F00103002B33
:10B74C0005D00320FFF78CFB0120FFF751FE054BC2
:10B75C001B68002B04D0FDF7C1FD0346002BEAD17A
:10B76C0080BD00BF9408002080B483B000AF786027
:10B77C007B68012202FA03F318464FEAE071094B89
:10B78C00D3E9002302EA000203EA01031343002B6E
:10B79C000CBF00230123DBB218460C37BD465DF805
:10B7AC00047B7047A008002080B500AF04E00220A5
:10B7BC000B491422FFF738FB0220FFF7D5FF034695
:10B7CC00002B0BD0FDF78AFD0346002B06D0054855
:10B7DC00034901F041FC0346002BE8D180BD00BFBA
:10B7EC00600A0020740A002080B500AFFFF712FE3B
:10B7FC00FFF79EFFFFF7D8FF80BD00BF80B582B07A
:10B80C0000AF13460246FA710A46BA717B717A7917
:10B81C00154B1A60154BFA791A70FB79022B15D05F
:10B82C00032B09D0012B1BD10120FDF707FD4FF491
:10B83C008060FFF7A3FD13E00120FDF7FFFC0C4B2C
:10B84C0000221A700220FFF799FD09E00120FDF794
:10B85C00F5FC084B00221A600120FFF78FFD00BF9A
:10B86C000837BD4680BD00BF980800202D0C002075
:10B87C00180C00209C08002080B485B000AFBA6082
:10B88C007B600346FB730B46BB731437BD465DF8F8
:10B89C00047B704780B584B000AF114B1B68102B34
:10B8AC0000D919E00120FDF7F1FC0D4B1B681A467D
:10B8BC00511C0B4B196013465B011344094A13448A
:10B8CC00FB60FB680133BB60BB681B7801337B609A
:10B8DC00B8687968FDF798FD1037BD4680BD00BF8C
:10B8EC009C080020C0D1010080B500AF044B0122A0
:10B8FC001A70044B03221A700120FFF753FD80BD10
:10B90C00280C0020B608002080B584B000AFB960C8
:10B91C000146F973BA81FB800A4B01221A704FF46D
:10B92C00005003F00BF8084B1B681846FDF7E6FCBB
:10B93C00064801F0DDF90820FFF720FD1037BD4661
:10B94C0080BD00BF2A0C002098080020480A002067
:10B95C0080B483B000AF13460246FA800A46BA8020
:10B96C007B80074BFA881A80064BBA881A80064BE4
:10B97C007A881A800C37BD465DF8047B704700BF8F
:10B98C003A0C00203C0C00203E0C002080B582B00C
:10B99C0000AF02460B46FA71BB71214808F0F2FB6E
:10B9AC00204B00221A60204B00221A601F494FF0D6
:10B9BC0000024FF00003C1E900231D494FF00002C3
:10B9CC004FF00003C1E900231A4B00221A701A4BE6
:10B9DC0000221A70194B00221A70194B00221A708F
:10B9EC004FF4005002F0AAFF0020FDF787FC154B26
:10B9FC001B78012B07D0022B09D0002B0CD1042073
:10BA0C00FFF7BCFC08E08020FFF7B8FC04E04FF423
:10BA1C000070FFF7B3FC00BF0837BD4680BD00BF08
:10BA2C0020454C429008002094080020A0080020DB
:10BA3C00A8080020290C00202A0C00202B0C002028
:10BA4C002C0C0020180C002080B582B000AF0346EF
:10BA5C00FB71FB791846FDF75FFC0837BD4680BDCE
:10BA6C0080B584B000AFC7E90201C7E900230D49D6
:10BA7C00D7E90223C1E900230B49D7E90023C1E927
:10BA8C000023094BD3E9002352EA030103D0102011
:10BA9C00FFF774FC02E0054B01221A701037BD460B
:10BAAC0080BD00BFA0080020A80800202B0C00209F
:10BABC0080B582B000AF786039601A4879683A680E
:10BACC0001F0B0F9174801F029F90346032B22D8ED
:10BADC0001A252F823F000BF23BB000023BB0000DF
:10BAEC00F5BA00000FBB00000E4B1A680D4BDB685B
:10BAFC000D4811461A4601F027FB0A4801F0F8F8E8
:10BB0C0009E00A4840F22121094A01F02BF80548C6
:10BB1C0001F0EEF800BF0120FFF756FC0837BD46D8
:10BB2C0080BD00BF480A0020740A0020FCD301002D
:10BB3C0044D4010080B584B000AF0346B9607A608C
:10BB4C00FB73074B01221A70FB7B032B04D1B868E3
:10BB5C007968FFF7ADFF00BF1037BD4680BD00BF51
:10BB6C002C0C002080B400AF034B1B881846BD463C
:10BB7C005DF8047B704700BFB408002080B483B02C
:10BB8C0000AF0346FB80044BFA881A800C37BD4685
:10BB9C005DF8047B704700BFB408002080B500AF8F
:10BBAC00054807F0BFFE054B4FF440421A804FF496
:10BBBC008060FFF7E3FB80BD1C0C0020B208002066
:10BBCC0080B584B000AF0346381D80E80600FB81C9
:10BBDC000A4BFA891A800A4B02221A704020FFF78E
:10BBEC00CDFB7B68002B05D006483B1D93E8060077
:10BBFC0007F046FE1037BD4680BD00BFB2080020DE
:10BC0C00180C00201C0C002080B582B000AF03463D
:10BC1C00FB71054BFA791A704FF48050FFF7AEFBAD
:10BC2C000837BD4680BD00BFB608002080B400AF09
:10BC3C00034B1B781846BD465DF8047B704700BF6C
:10BC4C00B608002080B400AF034B1B781846BD46E5
:10BC5C005DF8047B704700BFB008002080B500AFD2
:10BC6C00074B1B78002B06D0064B01221A70402084
:10BC7C00FFF784FB02E0044B80221A6080BD00BFFA
:10BC8C002A0C0020180C00209008002080B500AF72
:10BC9C000120FDF7D3FA044B00221A704FF4807088
:10BCAC00FFF76CFB80BD00BFB008002080B582B0F0
:10BCBC0000AF786039603B68082B01D908233B60E2
:10BCCC003B68002B08D10E480E4907220FF006FFE7
:10BCDC000D4B07221A7008E0094879683A680FF092
:10BCEC00FDFE3B68DAB2084B1A70084B1B78032B2D
:10BCFC0002D10220FFF742FB0837BD4680BD00BFD2
:10BD0C00300C0020F4D30100380C00202D0C002046
:10BD1C0080B582B000AF7860064B1B787868064916
:10BD2C001A460FF0DBFE034B1B7818460837BD464E
:10BD3C0080BD00BF380C0020300C002080B400AF58
:10BD4C00044B00221A60034B00225A60BD465DF87A
:10BD5C00047B7047400C002080B485B000AF786045
:10BD6C00104B1B68002B0CD10E4B7A681A600D4BD4
:10BD7C007A685A607B6800221A607B6800225A60DD
:10BD8C000BE0084B5B68FB60064B7A685A607B687B
:10BD9C00FA685A60FB687A681A601437BD465DF819
:10BDAC00047B7047400C002080B584B000AF7860F5
:10BDBC007B681B02FB6007F10B03F8681946012234
:10BDCC0008F046F8FB7AFE2B14BF00230123DBB2EC
:10BDDC0018461037BD4680BD80B588B000AFF860FE
:10BDEC00B9607A60F868FFF7B7FFBB681A01FB68A7
:10BDFC009A607B6801331A01FB68DA6007F04AFF2E
:10BE0C00FB684FF0FF321A61FB684FF0FF325A614A
:10BE1C00FB689B681846FFF7C7FF0346002B0AD048
:10BE2C00FB68DB68013B1846FFF7BEFF0346002B9F
:10BE3C0001D0012300E00023FB75FB7D03F001031F
:10BE4C00FB75FB7D002B2ED0FB689B68FB6124E00F
:10BE5C0008F0F8F8F869FFF7A7FF034683F0010331
:10BE6C00DBB2002B08D0FB685B69B3F1FF3F11D14B
:10BE7C00FB68FA695A610DE0FB681B69B3F1FF3F7F
:10BE8C0008D1FB685B69B3F1FF3F03D0FB68FA692B
:10BE9C001A6107E0FB690133FB61FB68DA68FB6937
:10BEAC009A42D5D82AE0FB689B68BB6121E008F078
:10BEBC00C9F8B869FFF778FF0346002B08D0FB6878
:10BECC001B69B3F1FF3F11D1FB68BA691A610DE030
:10BEDC00FB685B69B3F1FF3F08D1FB681B69B3F1E9
:10BEEC00FF3F03D0FB68BA695A6107E0BB690133B5
:10BEFC00BB61FB68DA68BB699A42D8D8FB681B69DE
:10BF0C00B3F1FF3F07D1FB689A68FB681A61FB68C5
:10BF1C001A69FB685A6107F02FFF2037BD4680BDB8
:10BF2C0080B483B000AF78607B681A697B685B690A
:10BF3C009A4205D87B685A697B681B69D31A0AE058
:10BF4C007B68DA687B681B69D21A7B6859697B68E5
:10BF5C009B68CB1A134418460C37BD465DF8047B1E
:10BF6C00704700BF80B584B000AF78607B681B69F8
:10BF7C001B02FB6007F08EFE07F006FFFC23FB7232
:10BF8C0007F10B03F8681946012207F023FF07F0AD
:10BF9C00F3FE7B681B695A1C7B681A617B681A6903
:10BFAC007B68DB689A4203D37B689A687B681A616A
:10BFBC001037BD4680BD00BF90B5C9B000AF07F1CA
:10BFCC000C04206007F108000160391D0A603A4634
:10BFDC0013603B461B68F82B02D93B46F8221A60CB
:10BFEC0007F058FE07F10C031B685B691B02C7F8CE
:10BFFC001C3107F10C031B685B6903F00F03002B6A
:10C00C0044D107F11703D7F81C011946012207F098
:10C01C001FFF07F117031B78FF2B05D007F0B4FEA9
:10C02C00D7F81C0107F0B8FE07F10C031B685A691E
:10C03C0007F10C031B681B699A4227D207F10C030A
:10C04C001B681A6907F10C031B685B6910339A4271
:10C05C001CD207F10C031B681B6910331B091A0156
:10C06C0007F10C031B681A6107F10C031B681A69B2
:10C07C0007F10C031B68DB689A4207D307F10C032A
:10C08C001B689A6807F10C031B681A6107F1180307
:10C09C001A464FF48073104600211A460FF042FDE9
:10C0AC0007F11803FE221A703B461B68DAB207F13F
:10C0BC0018035A7007F108031B68DAB207F118036A
:10C0CC001A7107F108031B681B0ADAB207F118038F
:10C0DC005A7107F108031B681B0CDAB207F118033D
:10C0EC009A7107F108031B681B0EDAB207F11803EB
:10C0FC00DA7107F1180303F108013A1D3B460846B3
:10C10C0011681A680FF0EAFC3B461B68043307F110
:10C11C00180204324FF6FF7011461A4600F05CF913
:10C12C000346A7F81A31B7F81A31DAB207F1180337
:10C13C009A70B7F81A311B0A9BB2DAB207F11803DE
:10C14C00DA7007F021FE3B461B68083307F1180232
:10C15C00D7F81C0111461A4607F03CFE07F00CFEFE
:10C16C0007F10C031B685B695A1C07F10C031B6875
:10C17C005A6107F10C031B685A6907F10C031B6821
:10C18C00DB689A4207D307F10C031B689A6807F126
:10C19C000C031B685A6107F10C031B685A6907F101
:10C1AC000C031B681B699A4204D107F10C03186835
:10C1BC00FFF7D8FE07F59277BD4690BD90B5C7B096
:10C1CC0000AF07F10C04206007F108000160391D75
:10C1DC000A603A461360D7F82831F82B02D9F823B5
:10C1EC00C7F8283107F10C031B681A6907F108031B
:10C1FC001B681A443B1D1B681A603B1D1B681A68A0
:10C20C0007F10C031B68DB689A420FD307F10C0390
:10C21C001B689A683B1D1B68196807F10C031B68A7
:10C22C00DB68CB1A1A443B1D1B681A603B1D1B684C
:10C23C001B681B02C7F8143107F02CFD07F114031F
:10C24C00D7F8140119464FF4807207F001FE07F07D
:10C25C0093FD07F114035B781A463B1D1B689A800B
:10C26C003B1D1B689B881A46D7F828319A4205D982
:10C27C00D7F828319AB23B1D1B689A8007F114033A
:10C28C000233184600F0F8F803461A463B1D1B68AB
:10C29C00DA8007F114030433184600F001F9024662
:10C2AC003B1D1B689A603B1D1B689B88394607F138
:10C2BC0014020832086811461A460FF00FFC07F5F5
:10C2CC008E77BD4690BD00BF80B582B000AF786060
:10C2DC0039603B681A687B681B699A4200D002E09F
:10C2EC007868FFF73FFE0837BD4680BD80B582B049
:10C2FC0000AF00237B600B4B1B683B6009E0386888
:10C30C00FFF70EFE03467A6813447B603B681B689C
:10C31C003B603B68002BF2D17B6818460837BD4662
:10C32C0080BD00BF400C002080B58AB002AFF86021
:10C33C00B9607A603B60FB68FB61144B1B68BB61A6
:10C34C0018E0B869FFF7ECFD7861FA697B699A42ED
:10C35C0009D23B680093B869F969BA687B68FFF742
:10C36C002DFF00230DE0FA697B69D31AFB61BB69D1
:10C37C001B68BB61BB69002BE3D1FB6901333B61DB
:10C38C003B6918462037BD4680BD00BF400C0020DD
:10C39C0080B584B000AF78600E4B1B68FB6013E077
:10C3AC00FB689A687B681B689A420AD87B681A6893
:10C3BC00FB68DB689A4204D2F8687968FFF784FF5F
:10C3CC0005E0FB681B68FB60FB68002BE8D11037AD
:10C3DC00BD4680BD400C002080B487B000AF034642
:10C3EC00B9607A60FB81FB89FB82BA687B68134475
:10C3FC003B6129E0FB8A1B0A9BB29AB2FB8A1B02A7
:10C40C009BB213439BB2FB82BB681B781A46FB8A18
:10C41C005340FB82FB8ADBB21B119AB2FB8A53405E
:10C42C009BB2FB82FB8A1B039AB2FB8A53409BB2E2
:10C43C00FB82FB8ADBB25B019AB2FB8A53409BB254
:10C44C00FB82BB680133BB60BA683B699A42D1D3AB
:10C45C00FB8A18461C37BD465DF8047B704700BF4D
:10C46C0080B483B000AF78607B681B7818460C37BB
:10C47C00BD465DF8047B704780B483B000AF786034
:10C48C007B6801331B781B029AB27B681B781343C1
:10C49C009BB29BB218460C37BD465DF8047B7047C7
:10C4AC0080B483B000AF78607B6803331B781A06C6
:10C4BC007B6802331B781B041A437B6801331B789F
:10C4CC001B021A437B681B78134318460C37BD4676
:10C4DC005DF8047B704700BFB0B586B000AF7860E4
:10C4EC007868FFF7DDFF03461A464FF00003C7E9F3
:10C4FC0004237B6808331846FFF7D2FF03461A461D
:10C50C004FF00003C7E90223D7E9022315000024EA
:10C51C00D7E9042342EA040243EA0503104619460C
:10C52C001837BD46B0BD00BF80B584B000AF786091
:10C53C007868FFF7A1FF0346FB81FB89184608F0DA
:10C54C004FF8034618461037BD4680BD80B584B001
:10C55C0000AF78607868FFF7A3FF0346FB60FB68C9
:10C56C0018461037BD4680BD80B584B000AF7860EA
:10C57C0039603868FFF794FF0346BB603B680433AF
:10C58C001846FFF78DFF0346FB607B6807F1080236
:10C59C0092E8030083E8030078681037BD4680BD3D
:10C5AC0080B483B000AF78600B46FB707B68FA7880
:10C5BC001A700C37BD465DF8047B704780B483B0AD
:10C5CC0000AF78600B467B807B88DAB27B681A7090
:10C5DC007B6801337A88120A92B2D2B21A700C3785
:10C5EC00BD465DF8047B704780B483B000AF7860C3
:10C5FC0039603B68DAB27B681A707B6801333A6841
:10C60C00120AD2B21A707B6802333A68120CD2B298
:10C61C001A707B6803333A68120ED2B21A700C3758
:10C62C00BD465DF8047B7047B0B584B000AFF860D0
:10C63C00C7E900233B68F8681946FFF7D5FFFB688C
:10C64C00191DD7E900231C0000252346084619466E
:10C65C00FFF7CAFF1037BD46B0BD00BF80B584B030
:10C66C0000AF78603960386807F0A2FF0346FB81A1
:10C67C00FB8978681946FFF7A1FF1037BD4680BDCE
:10C68C0080B584B000AF786039603B68FB60FB68B4
:10C69C0078681946FFF7A8FF1037BD4680BD00BF6C
:10C6AC0080B584B000AFF8603B1D83E806007B6862
:10C6BC00F8681946FFF798FFFB681A1DBB6810460F
:10C6CC001946FFF791FF1037BD4680BD80B485B089
:10C6DC0000AFF860B9607A60FB68BA681A60FB68F2
:10C6EC007A685A60FB6800229A60FB680022DA6064
:10C6FC001437BD465DF8047B704700BF80B483B02F
:10C70C0000AF78607B685A687B689B68D31A1846C0
:10C71C000C37BD465DF8047B704700BF80B584B014
:10C72C0000AFF860B9607A60FB681A68FB68DB6878
:10C73C001344B86819467A680FF0D0F9FB68DA68C8
:10C74C007B681A44FB68DA601037BD4680BD00BFB9
:10C75C0080B584B000AF78607B681A687B68DB6852
:10C76C001344FB607B68DB685A1C7B68DA60F868F2
:10C77C00FFF776FE034618461037BD4680BD00BF56
:10C78C0080B584B000AF78607B681A687B68DB6822
:10C79C001344FB607B68DB689A1C7B68DA60F86882
:10C7AC00FFF76AFE034618461037BD4680BD00BF32
:10C7BC0080B584B000AF78607B681A687B68DB68F2
:10C7CC001344FB607B68DB681A1D7B68DA60F868D1
:10C7DC00FFF766FE034618461037BD4680BD00BF06
:10C7EC0080B584B000AF78607B681A687B68DB68C2
:10C7FC001344FB607B68DB689A1C7B68DA60F86822
:10C80C00FFF792FE034618461037BD4680BD00BFA9
:10C81C0080B584B000AF78607B681A687B68DB6891
:10C82C001344FB607B68DB681A1D7B68DA60F86870
:10C83C00FFF78CFE034618461037BD4680BD00BF7F
:10C84C0080B584B000AF786039603B681A683B688B
:10C85C00DB681344FB603B68DB6803F108023B6850
:10C86C00DA607B681846F968FFF77EFE7868103747
:10C87C00BD4680BD80B582B000AF786039607B6802
:10C88C009A683B681A447B685B689A4201D801231A
:10C89C0005E005489321054A00F064F90023184689
:10C8AC000837BD4680BD00BF58D401009CD40100A0
:10C8BC0080B584B000AFF860B9607A60F8687968C8
:10C8CC00FFF7D8FF0346002B0FD0FB681A68FB68F4
:10C8DC009B6813441846B9687A680FF0FFF8FB6838
:10C8EC009A687B681A44FB689A601037BD4680BD15
:10C8FC0080B584B000AF78600B46FB70786801217E
:10C90C00FFF7B8FF0346002B0FD07B681A687B68D3
:10C91C009B681344FB607B689B685A1C7B689A601D
:10C92C00FB78F8681946FFF73BFE1037BD4680BD13
:10C93C0080B584B000AF78600B467B8078680221AC
:10C94C00FFF798FF0346002B0FD07B681A687B68B3
:10C95C009B681344FB607B689B689A1C7B689A609D
:10C96C007B88F8681946FFF729FE1037BD4680BD55
:10C97C0080B584B000AF7860396078680421FFF727
:10C98C0079FF0346002B0ED07B681A687B689B6886
:10C99C001344FB607B689B681A1D7B689A60F8687F
:10C9AC003968FFF721FE1037BD4680BD80B586B0D3
:10C9BC0000AFF860C7E90023F8680821FFF75AFFB9
:10C9CC000346002B10D0FB681A68FB689B68134465
:10C9DC007B61FB689B6803F10802FB689A607869CD
:10C9EC00D7E90023FFF720FE1837BD4680BD00BFF6
:10C9FC0080B584B000AF7860396078680221FFF7A9
:10CA0C0039FF0346002B0ED07B681A687B689B6845
:10CA1C001344FB607B689B689A1C7B689A60F8687F
:10CA2C003968FFF71BFE1037BD4680BD80B584B05A
:10CA3C0000AF7860396078680421FFF71BFF03466C
:10CA4C00002B0ED07B681A687B689B681344FB60D4
:10CA5C007B689B681A1D7B689A60F8683968FFF7D9
:10CA6C000FFE1037BD4680BD80B586B000AFF860B4
:10CA7C003B1D83E80600F8680821FFF7FBFE034620
:10CA8C00002B11D0FB681A68FB689B6813447B6110
:10CA9C00FB689B6803F10802FB689A6078693B1D90
:10CAAC0093E80600FFF7FCFD1837BD4680BD00BFBC
:10CABC0080B400AF064B00221A70064B00221A609D
:10CACC00054B00221A70BD465DF8047B704700BF11
:10CADC00480C00204C0C0020500C002080B483B07B
:10CAEC0000AF7860034B7A681A600C37BD465DF86E
:10CAFC00047B70474C0C002080B400AF034B1B68C8
:10CB0C001846BD465DF8047B704700BF4C0C0020F6
:10CB1C0080B400AF034B1B781846BD465DF8047B10
:10CB2C00704700BF500C002080B582B000AF0346A8
:10CB3C00FB71054BFA791A7004483E213F22FFF72E
:10CB4C004BF90837BD4680BD500C0020540C00201A
:10CB5C0080B483B000AF78600C37BD465DF8047BC1
:10CB6C00704700BF80B5CCB000AF07F10C03186064
:10CB7C0007F1080319603B1D1A60484B01221A701B
:10CB8C00474B1B685A1C464B1A60464B1B7883F06C
:10CB9C000103DBB2002B04D03B1D1868FFF7D8FF54
:10CBAC0077E007F1180207F1280310461946F8221E
:10CBBC00FFF78CFD07F590731846FCF799FD07F10C
:10CBCC001803184607F5907393E80600FFF74CFF1F
:10CBDC0007F10C031B68002B32D007F10C0318680B
:10CBEC000EF0D8FF034607F1180107F10C020846B6
:10CBFC0011681A46FFF75CFE07F11803184620214E
:10CC0C00FFF776FE07F1100207F1080310462649DC
:10CC1C001A680EF039FF07F1100318460EF0BAFF30
:10CC2C00034607F1180107F11002084611461A468F
:10CC3C00FFF73EFE07F1180318462021FFF758FEB8
:10CC4C003B1D18680EF0A6FFC7F82C0107F118035E
:10CC5C001846FFF753FDC7F82801D7F82C21D7F851
:10CC6C0028319A4203D9D7F82831C7F82C3107F16B
:10CC7C0018023B1D10461968D7F82C21FFF718FE37
:10CC8C0007F118039B6807F1280208480849FFF7C9
:10CC9C0093F907F59877BD4680BD00BF480C00207E
:10CCAC004C0C0020500C0020A0D40100540C00208F
:10CCBC0046444C4F80B485B000AFF860B9607A60E0
:10CCCC00FB68BA681A60FB687A685A60FB680022D5
:10CCDC001A72FB680022DA60FB6800221A61FB689A
:10CCEC0000225A611437BD465DF8047B704700BFC3
:10CCFC0080B483B000AF78607B6800221A727B68C6
:10CD0C000022DA607B6800221A617B6800225A617B
:10CD1C000C37BD465DF8047B704700BF80B483B010
:10CD2C0000AF78607B681B7A18460C37BD465DF8FF
:10CD3C00047B704780B483B000AF78607B680322BB
:10CD4C001A720C37BD465DF8047B704780B586B00F
:10CD5C0000AFF860B9607A60FB685A697B6813446D
:10CD6C007B61FB68DA687B699A4205D2FB68DA68FA
:10CD7C00FB685B69D31A7B60FB681A68FB685B69AC
:10CD8C0013441846B9687A680EF0A8FEFB685A6915
:10CD9C007B681A44FB685A61FB685A69FB68DB685C
:10CDAC009A4203D1FB6802221A7204E0FB681B69E9
:10CDBC005A1CFB681A611837BD4680BD80B584B01B
:10CDCC0000AFF860B9607A607B68012B03D8F86813
:10CDDC00FFF7B0FF22E0FB6801221A72B868FFF778
:10CDEC004BFB03461A46FB68DA60FB6800221A61AB
:10CDFC00FB6800225A61FB68DA68FB685B689A4240
:10CE0C0003D9F868FFF796FF08E0BB689A1C7B68AB
:10CE1C00023BF86811461A46FFF798FF1037BD46DB
:10CE2C0080BD00BF80B586B000AFF860B9607A6095
:10CE3C007B68002B03D1F868FFF77CFF28E0BB6808
:10CE4C001B78FB75FB7D002B10D1FB681B69002B3D
:10CE5C0002D0F868FFF76EFFBB685A1C7B68013B79
:10CE6C00F86811461A46FFF7A9FF11E0FA7DFB6836
:10CE7C001B699A4203D0F868FFF75CFF08E0BB68B7
:10CE8C005A1C7B68013BF86811461A46FFF75EFF97
:10CE9C001837BD4680BD00BF80B483B000AF78604A
:10CEAC007B6800221A607B6800221A717B68002262
:10CEBC009A607B680022DA607B6800221A610C376A
:10CECC00BD465DF8047B704780B485B000AFF86058
:10CEDC00B9607A60FB68BA681A60FB6801221A7143
:10CEEC00FB687A689A60FB680022DA60FB680022B3
:10CEFC001A611437BD465DF8047B704780B586B067
:10CF0C0000AFF860B9607A60FB681B79012B01D027
:10CF1C00002349E0FB68DB68DAB2BB681A700123B6
:10CF2C007B61FB68DB68002B0ED1BB680133FA68B0
:10CF3C009268D2B21A70BB680233FA689268120A0D
:10CF4C00D2B21A7003237B61FB689A68FB681B6979
:10CF5C00D31A3B617A687B69D21A3B699A4203D235
:10CF6C007A687B69D31A3B61FB681B68FA681169A4
:10CF7C00B8687A690244084611463A699847FB68D2
:10CF8C001A693B691A44FB681A61FB68DB685A1C16
:10CF9C00FB68DA60FB689A68FB681B699A4202D1ED
:10CFAC00FB6802221A71012318461837BD4680BD52
:10CFBC0080B485B000AFF860B9607A603B60FB6804
:10CFCC00BA681A60FB687A685A60FB683A689A60BB
:10CFDC00FB68BA69DA60FB6800221A611437BD4637
:10CFEC005DF8047B704700BF80B584B000AF7860FB
:10CFFC0039607B681B69FB607B681A697B685B68BE
:10D00C001A447B68DB689A4204D97B68FA681A6117
:10D01C0000231CE07B689A687B681B691A447B6858
:10D02C005B68386811461A46FFF768FF034683F0C1
:10D03C000103DBB2002B02D000BF012307E07B68A9
:10D04C001A697B685B681A447B681A61D4E71846D6
:10D05C001037BD4680BD00BF80B582B000AF786090
:10D06C0039607B681B69002B01D100231EE07B68B3
:10D07C009A687B685B68386811461A460EF02EFD7C
:10D08C007B681A697B685B68D21A7B681A617B685B
:10D09C0099687B689A687B685B681A447B681B6933
:10D0AC00084611461A460EF019FD0123184608379A
:10D0BC00BD4680BD80B400AFBFF34F8F054A054B12
:10D0CC00DB6803F4E061044B0B43D360BFF34F8F79
:10D0DC00FEE700BF00ED00E00400FA0580B483B069
:10D0EC0000AF03463960FB710949FA791346DB003E
:10D0FC0013449B000B4418335A683B6822FA03F321
:10D10C0003F0010318460C37BD465DF8047B7047ED
:10D11C000060004080B500AF0748FFF7BDFE074B2D
:10D12C0000221A60064B00221A604FF400300549A9
:10D13C0001F0CCFB80BD00BFB8100020F00F002028
:10D14C00B410002059E4000080B586B000AFF86040
:10D15C00B9607A601E4B1B680F2B00D934E01D4B55
:10D16C001A687B681344B3F5167F00D32CE0184B78
:10D17C001A6813465B0013449B00174A13447B61E7
:10D18C007B69FA681A60134B1A68144B1A447B6952
:10D19C005A607B697A689A600E4B1A680F4B13447D
:10D1AC001846B9687A680EF099FC0A4B1A687B68C5
:10D1BC001A44084B1A60064B1B685A1C044B1A6025
:10D1CC004FF4003001F0BAFB1837BD4680BD00BFEC
:10D1DC00B4100020F00F0020F40F0020980D002058
:10D1EC0080B584B000AFF860B9607A60FA68054B1E
:10D1FC001344B86819467A680EF070FC1037BD46B7
:10D20C0080BD00BFCC10002080B582B000AF78602C
:10D21C000B46FB70074808494FF49672FFF756FA15
:10D22C00FB7804481946FFF763FB024B1846083796
:10D23C00BD4680BDF8110020CC10002080B584B014
:10D24C0000AF78600D4B9B680D480E491A46FFF7EE
:10D25C003BFE78680A49FFF7C7FE0346FB73FB7B6E
:10D26C0083F00103DBB2002B04D007486B21074A83
:10D27C00FFF778FC1037BD4680BD00BFF8110020C9
:10D28C00B8100020EDD10000A4D40100ECD40100B2
:10D29C0080B58CB000AFF860B9607A6007F1140308
:10D2AC001846B9687A68FFF711FA07F114031846A3
:10D2BC00FFF766FA0346FB857A693B6A1344BB6247
:10D2CC00F8680121FFF7A0FF7862FB8D786A194698
:10D2DC00FFF72EFBFB8D786AB96A1A46FFF7E8FA5E
:10D2EC00F868FFF7ABFF3037BD4680BD80B483B024
:10D2FC0000AF094B7B607B681B683B603B6803F0AD
:10D30C000F030F2B0CBF00230123DBB218460C3785
:10D31C00BD465DF8047B70477F40E00F80B582B05E
:10D32C0000AFFFF7E3FF034683F00103DBB2002BF2
:10D33C0010D06FF00F037B60FAF7E6FF09F020FBCB
:10D34C003B1D0648194604220FF0F4FD09F074FB4E
:10D35C00FAF7E0FF0837BD4680BD00BF7F40E00F05
:10D36C0080B584B000AF786039604FF07E63FB60AD
:10D37C003B68033323F00303BB60FAF7C5FF09F0E6
:10D38C00FFFAF8680FF0DEFDBB68F86879681A469A
:10D39C000FF0D0FD09F050FBFAF7BCFF1037BD467B
:10D3AC0080BD00BF80B58CB000AFF860B9607A600A
:10D3BC0007F114031846B9687A68FFF787F907F183
:10D3CC0014031846FFF7F4F9F86207F11403184632
:10D3DC00FFF7D6F90346BB627A693B6A13447B625A
:10D3EC00786AB96AFFF7BCFFFB6A03F00103002BF4
:10D3FC0001D0FFF793FFFB6A03F00203002B01D06F
:10D40C00FFF758FE3037BD4680BD00BF80B58AB0EF
:10D41C0000AFF860B9607A6007F114031846B96878
:10D42C007A68FFF753F907F114031846FFF790F9E0
:10D43C00034687F8273097F82730184606F048FE41
:10D44C002837BD4680BD00BF80B582B000AF786084
:10D45C0078680121FFF76CFA78680021FFF768FA09
:10D46C0078682921FFF764FA786840F2FF71FFF7BA
:10D47C007FFA786803491422FFF71AFA0837BD4679
:10D48C0080BD00BF00D5010080B582B000AF7860D0
:10D49C00786801F06DF90837BD4680BD80B586B05F
:10D4AC0002AF786007F10C0307F10A0200920A48F8
:10D4BC000A49012202F060FF7B8978681946FFF760
:10D4CC0037FAFA687B89786811461A46FFF7F0F943
:10D4DC001037BD4680BD00BF1400E00FF0D4010032
:10D4EC0080B582B000AF7860074B1B68786819462E
:10D4FC00FFF73EFA054B786893E80600FFF7B4FA9D
:10D50C000837BD4680BD00BFAC1B0020B01B0020FF
:10D51C0080B582B000AF786006F0CEFD0346786827
:10D52C001946FFF7E5F978682821FFF721FA7868A2
:10D53C0003492822FFF7BCF90837BD4680BD00BF60
:10D54C00B81B002080B582B000AF7860FEF7CEFE2D
:10D55C00034678681946FFF70BFA0837BD4680BDBD
:10D56C0080B582B000AF7860FFF7C0FE03467868E4
:10D57C001946FFF7BDF90837BD4680BD80B582B0AE
:10D58C0000AF7860FFF7CAFE0837BD4680BD00BF0C
:10D59C0080B584B000AF786007F108031846FCF73B
:10D5AC008BF8786807F1080393E80600FFF75CFA3C
:10D5BC001037BD4680BD00BF80B584B000AF786029
:10D5CC0007F1080318467968FFF73AF907F10803E1
:10D5DC0093E80300FCF746F81037BD4680BD00BF4A
:10D5EC0080B588B000AF786007F10C03184603F0E3
:10D5FC00FFF8FB6878681946FFF718FA3B697868FA
:10D60C001946FFF713FA3B7D78681946FFF770F956
:10D61C007B7D78681946FFF76BF9BB69786819460A
:10D62C00FFF704FAFB6978681946FFF7FFF9203712
:10D63C00BD4680BD80B584B000AF78607868FFF7D8
:10D64C00E7F8F860F86803F00DF91037BD4680BDB7
:10D65C0080B582B000AF7860FBF76EF8034678684F
:10D66C001946FFF745F90837BD4680BD80B584B033
:10D67C0000AF78607868FFF76BF80346FB73FB7BB1
:10D68C001846FBF73DF81037BD4680BD80B582B01B
:10D69C0000AF7860FEF7CAFA034678681946FFF7C0
:10D6AC0027F90837BD4680BD80B584B000AF7860DF
:10D6BC007868FFF74DF80346FB73FB7B1846FEF7C3
:10D6CC00A3FA1037BD4680BDB0B58CB000AF786002
:10D6DC004FF4DE4307F10C041D460FCD0FC40FCDE4
:10D6EC000FC42B682360FA68154B9A4208D007F1D7
:10D6FC000C031846002124220EF014FA01237B821D
:10D70C003B8A78681946FFF713F97B8A78681946C3
:10D71C00FFF70EF9BB8A78681946FFF709F9BB6960
:10D72C0078681946FFF724F907F10C031033786871
:10D73C0019461422FFF7BCF83037BD46B0BD00BF08
:10D74C001ADA01B080B584B000AF786002200A21EB
:10D75C00FFF7C4FC0346002B0CBF00230123FB7313
:10D76C00FB7B78681946FFF7C3F81037BD4680BDC0
:10D77C0080B584B000AF78607868FEF7E9FF0346A7
:10D78C00002B0CBF00230123FB73FB7B002B15D05C
:10D79C0002200B210422002308F052FD0520052154
:10D7AC000422012308F04CFD0120FAF725FF02208A
:10D7BC000A210422012308F043FD11E002200A2172
:10D7CC000422002308F03CFD02200B21042200233C
:10D7DC0008F036FD052005210422002308F030FD59
:10D7EC001037BD4680BD00BF80B584B000AF7860F7
:10D7FC0001F0B2FBF8607868F968FFF7B9F81037F8
:10D80C00BD4680BD80B584B000AF78607868FEF707
:10D81C00CFFFF860F86801F077FB1037BD4680BD8C
:10D82C0080B582B000AF786078680321FFF7A0F86C
:10D83C00FFF76EF9034678681946FFF799F8FFF77A
:10D84C005BF9034678681946FFF792F80837BD462E
:10D85C0080BD00BF80B586B000AF78607868FEF7F9
:10D86C00A7FF78617B6903F00103002B0ED0786869
:10D87C00FEF79EFF38613B6903F00103002B0CBFE0
:10D88C0000230123DBB21846FFF74EF97B6903F046
:10D89C000203002B06D07868FEF78AFFF860F86860
:10D8AC00FFF71CF91837BD4680BD00BF80B586B0A8
:10D8BC0002AF786007F10E03009305480549012279
:10D8CC007B6802F059FDFB8918461037BD4680BDB8
:10D8DC001400E00FF8D4010080B588B000AF786078
:10D8EC0007F108031846FEF713FA0346FB77FB7F94
:10D8FC0078681946FEF7FCFFFB7F07F10802786891
:10D90C0011461A46FEF7D4FF2037BD4680BD00BF36
:10D91C0080B590B000AF786039600123BB810023E3
:10D92C00FB8107F10C0304331846002110220EF082
:10D93C00F9F801233B84042387F82230012387F86C
:10D94C0023303B689BB2BB840023FB8407F10C03A0
:10D95C001C3318460C4904220EF0C0F807F10C03D6
:10D96C002033184679683A680EF0B8F807F10C03C2
:10D97C0018463421FFF7F4FC78683968FEF796F9FD
:10D98C004037BD4680BD00BFF8D4010080B588B0DB
:10D99C0000AF78607868FEF7DBFE0346FB77FB7F11
:10D9AC00142B01D91423FB77FB7F07F1080278684D
:10D9BC0011461A46FEF7B2FEFB7F07F1080210462D
:10D9CC001946FFF7A5FF2037BD4680BD80B582B054
:10D9DC0000AF7860FBF744F8034678681946FFF708
:10D9EC0007F80837BD4680BD80B582B000AF7860BF
:10D9FC007868FEF7F5FE03461846FBF723F8083760
:10DA0C00BD4680BD80B584B000AF786039603868A1
:10DA1C0001F038FB0346FB73FB7B78681946FEF775
:10DA2C0067FF1037BD4680BD80B584B000AF78600D
:10DA3C0039607868FEF78CFE0346002B0CBF002380
:10DA4C000123FB73FB7B3868194601F047FB103749
:10DA5C00BD4680BD80B58CB000AFF860B9607A600F
:10DA6C0007F114031846B9687A68FEF72FFE07F120
:10DA7C0014031846FEF79CFEB862F8680221FFF703
:10DA8C00C3FB7862BA6A564B1340786A1946FEF7A4
:10DA9C006FFF0123FB6299E0FA6ABB6A1340002B0B
:10DAAC0000F09180FB6AB3F5807F61D0B3F5807F85
:10DABC0016D8082B48D0082B06D8022B3CD0042BA8
:10DACC003ED0012B34D07EE0202B45D0202B02D829
