:10800000482E00200582000017820000198200001F
:108010001B8200001D8200001F8200000000000083
:1080200000000000000000000000000021820000AD
:10803000238200000000000025820000278200004B
:108040003D760100FDF500002D820000010B0100CE
:10805000150B010085B5010035820000258E00005A
:10806000398200003B8200008591000065F6000027
:10807000418200004382000031610100290B0100B0
:10808000390B01004B8200004D8200004F8200003E
:108090005182000053820000558200005782000088
:1080A000598200005B8200005D8200005F82000058
:1080B00061820000638200002D9C00006782000046
:1080C000698200006B8200006D8200006F820000F8
:0880D0007182000073820000C0
:1080D8002F49072291438D462E492F480A1A06D068
:1080E8000722914381F30988022282F314882B48DE
:1080F8002B492C4A00F039F82B482C492C4A00F01F
:1081080034F82C482C492D4A00F02FF82C482D49DA
:108118002D4A00F02AF82D482D492E4A00F025F85E
:108128002D482E492E4A00F020F82E482E490022CC
:1081380000F026F82D482E49091A082903DB0022E9
:108148000260043001601F481F49884205D0026858
:10815800043003B4904703BCF7E700208646EC469A
:1081680000200021234A9047FEE7884207D0521A90
:1081780005D0037801300B700131013AF9D170470D
:10818800884202D002700130FAE770471A487047F7
:10819800482E0020482E0020482E002090F801008C
:1081A800C40400205405002084820000848200005A
:1081B800B0E60100CCF4010000010020C404002056
:1081C800B0E60100B0E60100B0E60100B0E601004B
:1081D800B0E60100B0E60100B0E60100B0E601003B
:1081E800CCF4010054050020481E0020481E002041
:1081F800481E002051890000FFFFFFFFDFF86CD008
:108208001B4880471B481C490160FFF761BFFEE718
:10821800FEE7FEE7FEE7FEE7FEE7FEE7FEE7FEE72E
:10822800FEE7FEE7FEE7FEE7FEE7FEE7FEE7FEE71E
:10823800FEE7FEE7FEE7FEE7FEE7FEE7FEE7FEE70E
:10824800FEE7FEE7FEE7FEE7FEE7FEE7FEE7FEE7FE
:10825800FEE7FEE7FEE7FEE7FEE7FEE7FEE7FEE7EE
:10826800FEE7FEE7FEE7FEE7FEE7FEE70080002008
:0C827800DD63010008ED00E00080000064
:1082840080B400AF72B641F6F843C2F200031B6833
:10829400B3F1FF3F0BD041F6F843C2F200031B6871
:1082A40003F1010241F6F843C2F200031A6041F6F9
:1082B400F843C2F200031B681846BD4680BC7047F1
:1082C40080B483B000AF41F6F843C2F200031B68E8
:1082D400002B17D041F6F843C2F200031B6803F1E8
:1082E400FF3241F6F843C2F200031A6041F6F84344
:1082F400C2F200031B687B607B68002B00D162B66E
:108304007B6801E04FF00003184607F10C07BD46F7
:1083140080BC704780B500AFFFF7B2FF80BD00BFDF
:1083240080B500AFFFF7CCFF80BD00BF80B582B041
:1083340002AF4FF45240C0F202004FF001010EF0C0
:10834400E9FC4FF000004FF000014FF000024FF045
:1083540000030FF065FB4FF000004FF005014FF0F4
:1083640000024FF000030FF05BFB4FF000004FF0F2
:1083740006014FF000024FF000030FF051FB4FF0E5
:1083840002004FF002014FF000024FF000030FF023
:1083940047FB4FF002004FF003014FF000024FF093
:1083A40000030FF03DFB4FF002004FF004014FF0CB
:1083B40000024FF000030FF033FB4FF002004FF0C8
:1083C40005014FF000024FF000030FF029FB4FF0BE
:1083D40004004FF008014FF000024FF000030FF0CB
:1083E4001FFB4FF004004FF00D014FF000024FF05F
:1083F40000030FF015FB4FF004004FF00E014FF097
:1084040000024FF000030FF00BFB4FF004004FF09D
:108414000F014FF000024FF000030FF001FB4FF08B
:1084240005004FF00C014FF000024FF000030FF075
:10843400F7FA4FF005004FF002014FF004024FF03D
:1084440000030FF0EDFA4FF003004FF006014FF078
:1084540001024FF000030FF0E3FA4FF002004FF077
:1084640001014FF004024FF001030FF0D9FA4FF06D
:1084740002004FF000014FF004024FF001030FF02F
:10848400CFFA4FF004004FF009014FF004024FF00F
:1084940001030FF0C5FA4FF000004FF00F014FF049
:1084A40004024FF001030FF0BBFA4FF000004FF04D
:1084B40008014FF004024FF000030FF0B1FA4FF03F
:1084C40002004FF006014FF004024FF000030FF0DA
:1084D400A7FA4FF002004FF007014FF004024FF0EB
:1084E40000030FF09DFA4FF002004FF008014FF027
:1084F40002024FF000030FF093FA4FF000004FF028
:108504000A014FF002024FF000030FF089FA4FF016
:10851400010300934FF000004FF00A014FF00102F5
:108524004FF001030FF008FA4FF003004FF0080179
:108534004FF004024FF001030FF072FA4FF0000005
:108544004FF004014FF001024FF000030FF068FAFE
:108554004FF0010300934FF000004FF004014FF07F
:1085640001024FF001030FF0E7F94FF000004FF064
:1085740002014FF004024FF000030FF051FA4FF0E4
:1085840000004FF003014FF004024FF000030FF01E
:1085940047FA4FF004004FF00B014FF001024FF087
:1085A40000030FF03DFA4FF004004FF00A014FF0C2
:1085B40004024FF000030FF033FA4FF004004FF0C1
:1085C4000C014FF004024FF000030FF029FA4FF0B2
:1085D40005004FF000014FF000024FF000030FF0D0
:1085E4001FFA4FF005004FF001014FF000024FF069
:1085F40000030FF015FA4FF002004FF009014FF09D
:1086040001024FF000030FF00BFA4FF00103009347
:108614004FF002004FF009014FF001024FF0010347
:108624000FF08AF94FF003004FF007014FF00002FA
:108634004FF000030FF0F4F94FF002004FF00A017D
:108644004FF004024FF000030FF0EAF94FF002007C
:108654004FF00B014FF004024FF000030FF0E0F96C
:108664004FF005004FF005014FF004024FF00003F6
:108674000FF0D6F94FF005004FF00A014FF0010258
:108684004FF000030FF0CCF94FF005004FF00B0151
:108694004FF001024FF000030FF0C2F94FF0030056
:1086A4004FF001014FF002024FF001030FF0B8F94F
:1086B4004FF003004FF000014FF004024FF00103AC
:1086C4000FF0AEF94FF003004FF002014FF0040237
:1086D4004FF001030FF0A4F94FF000004FF0010137
:1086E4004FF004024FF000030FF09AF94FF003002B
:1086F4004FF005014FF004024FF000030FF090F922
:108704004FF003004FF003014FF004024FF0010358
:108714000FF086F94FF003004FF004014FF002020E
:108724004FF001030FF07CF94FF0010300934FF079
:1087340003004FF004014FF001024FF001030FF06A
:10874400FBF84FF000004FF009014FF004024FF026
:1087540000030FF065F94FF001004FF00B014FF0EB
:1087640004024FF000030FF05BF94FF001004FF0EB
:108774000C014FF004024FF000030FF051F9BD4615
:1087840080BD00BF01387FF4FDAF704780B582B073
:1087940000AF78607A684FF4D843C0F2DC2303FB5F
:1087A40002F249F68173C1F25E63A3FB02134FEA3E
:1087B40093431846FFF7E6FF07F10807BD4680BD5F
:1087C40080B582B000AF786003E04FF47A50FFF7D1
:1087D400D9FF7B68002B0CBF00230123DBB27A682E
:1087E40002F1FF327A60002BEFD107F10807BD4692
:1087F40080BD00BF80B483B000AF03463960FB7115
:108804004FF4C042C4F20002F9793B684FF0010012
:1088140000FA03F318460B464FEAC3035B184FEA0A
:108824008303D31803F11003586007F10C07BD4606
:1088340080BC704780B500AF07F0A6F909F0DAFEF6
:108844000DF020FC01F0FCFA00F08EFA01F038F98A
:1088540000F03AFE01F036F84FF0010008F036F867
:1088640000F034FC4FF48043C4F20C034FF00302D5
:108874001A6180BD80B500AF00F05CFC00F040FCE4
:108884004FF0010008F03CF801F0D0FA00F072FA61
:1088940001F020F900F028FE07F024F907F044FA6B
:1088A40080BD00BF80B500AF40F25453C2F2000354
:1088B4004FF001021A7040F25553C2F200034FF018
:1088C40001021A7003F0ECFE80BD00BF80B500AF5A
:1088D40040F25453C2F200034FF000021A7040F207
:1088E4005553C2F200034FF000021A70FFF7C2FFA3
:1088F40003F0F4FE80BD00BF80B582B000AF034634
:10890400FB7140F25453C2F200031B78FA799A4285
:108914000BD0FB79012B02D1FFF7C4FF06E0FB79F2
:10892400002B03D1FFF7D2FF00E000BF07F10807D7
:10893400BD4680BD80B400AF40F25453C2F2000380
:108944001B781846BD4680BC704700BF80B586B012
:1089540000AF0CF041FCFFF7E9FC4FF48640C0F295
:1089640004004FF001010EF0D5F94EF2B062C0F2EE
:10897400010207F108031068516803C3127A1A70E0
:108984004FF00C033B7407F10803184610F0B0F8DD
:1089940040F25453C2F200034FF000021A7040F246
:1089A4005553C2F200034FF000021A7004F01CFE8B
:1089B40006F036FD0BF030FF0CF0DCFC05F07EF920
:1089C4004FF002004FF00101FFF714FF4FF00200D7
:1089D4004FF00001FFF70EFF4FF004004FF00901C4
:1089E400FFF708FF4FF000004FF00F01FFF702FF01
:1089F40000F0F8FF00F032F901F08EF900F02EFBE0
:108A040000F098FB07F044FC07F048FC00F030FF4E
:108A140007F0BEFD4FF0010007F0F2FE4FF0010039
:108A240007F06EFF00F0EAFC00F05EFD00F06CFD64
:108A340003F01AF802F03CFE07F10403184605F0AF
:108A44000DFD78617B69002B04D07B681846796939
:108A540003F05CFE0CF044FA03F0B4FE07F09EF958
:108A64000CF08EFF09F0FAFD07F068F906F0FCFA45
:108A740006F07EFE06F0FEFF07F034F801F0D6F9AA
:108A840008F058FC00E000BF06F004FE40F2555325
:108A9400C2F200031B78002B0DD003F0F5FD034652
:108AA400002B08D040F25553C2F200034FF00002ED
:108AB4001A70FFF7BFFE40F25453C2F200031B7852
:108AC400012BE0D14FF48043C4F20C039B6803F004
:108AD4000303002BD7D04FF00000FFF70DFFD2E7C0
:108AE40080B483B000AF0346FB714FF46143CEF210
:108AF400000397F907204FEA5212F97901F01F0198
:108B04004FF0010000FA01F143F8221007F10C07BD
:108B1400BD4680BC704700BF80B483B000AF03463D
:108B2400FB714FF46143CEF2000397F907204FEA3B
:108B34005212F97901F01F014FF0010000FA01F11E
:108B440002F1600243F8221007F10C07BD4680BC15
:108B5400704700BF80B483B000AF78607B685B6A05
:108B6400184607F10C07BD4680BC704780B483B03B
:108B740000AF786039607B683A681A6207F10C07C5
:108B8400BD4680BC704700BF80B483B000AF78603E
:108B940039607B685A693B681A437B685A6107F1FC
:108BA4000C07BD4680BC704780B483B000AF7860CA
:108BB4007B689B69184607F10C07BD4680BC70476B
:108BC40080B483B000AF78600B46FB70FA787B68A2
:108BD4005A6007F10C07BD4680BC704780B483B06F
:108BE40000AF03463960FB714FF4C042C4F2000287
:108BF400F9793B684FF0010000FA03F318460B467D
:108C04004FEAC3035B184FEA8303D31803F110033D
:108C1400586007F10C07BD4680BC704780B483B030
:108C240000AF03463960FB714FF4C042C4F2000246
:108C3400F9793B684FF0010000FA03F318460B463C
:108C44004FEAC3035B184FEA8303D31803F11003FD
:108C5400186007F10C07BD4680BC704780B500AFB3
:108C64004FF000004FF0000100F0E8F84FF0010071
:108C74004FF0000100F0E2F84FF002004FF0000165
:108C840000F0DCF880BD00BF90B583B000AF48F2BF
:108C9400B213C0F6E0731B78FB7148F2BE13C0F642
:108CA400E0731B884FEA13139BB23B60FB791846B1
:108CB40014F0DEFC044640F25853C2F200031B6871
:108CC4003A68D31A184614F0D3FC0346184648F6FB
:108CD4002821C3F6226114F005FE034620461946F6
:108CE40014F066FD0346184607F10C07BD4690BD17
:108CF40080B500AF40F25C53C2F200031B68184613
:108D040014F0CEFC034618464DF29A51C3F68C215A
:108D140014F0E8FD0346184648F65C71C3F6827108
:108D240014F0E0FD0346184680BD00BF80B500AFD7
:108D340040F26053C2F200031B68184614F0B0FC02
:108D4400034618464DF29A51C3F60C2114F0CAFD9D
:108D54000346184644F68A31C3F6865114F0C2FD20
:108D64000346184680BD00BF80B400AFBD4680BC3A
:108D7400704700BF80B400AFBD4680BC704700BFE1
:108D840080B582B000AF4FF40050C4F20000FFF78A
:108D9400E1FE786040F26553C2F200031B78DBB257
:108DA400012B0AD0022B15D0002B1AD140F25853B4
:108DB400C2F200037A681A6013E04FF005004FF026
:108DC4000201FFF70BFF40F25C53C2F200037A6822
:108DD4001A6006E040F26053C2F200037A681A6037
:108DE40000BF40F26453C2F200034FF001021A7054
:108DF4004FF40050C4F200004FF00101FFF7B6FE3B
:108E04004FF00700FFF788FE4FF40070C0F2030034
:108E14004FF000010DF07EFF07F10807BD4680BD4D
:108E240080B500AFFFF7ACFF40F26853C2F2000315
:108E34001B68184606F09CFB80BD00BF80B588B057
:108E440000AF02460B46FA71BB714FF40070C0F2DA
:108E540003004FF001010DF05DFF4FF000033B767E
:108E64004FF000037B764FF00003BB764FF01F03F7
:108E7400FB764FF000033B774FF000037B774FF016
:108E840000000DF049FC0346FB764CF6C070C0F2BE
:108E94006A004FF000010DF003FC03463B774FF0EE
:108EA40000033B734FF000037B734FF00003BB736D
:108EB4004FF00003FB734FF000033B744FF00003CB
:108EC4007B744FF00003BB744FF00003FB744FF04E
:108ED40000033B754FF00203BB734FF008037B7331
:108EE400FB79012B11D0022B20D0002B29D14FF07C
:108EF4000003BB734FF008033B7440F26853C2F2A3
:108F040000034FF020021A601BE04FF005004FF001
:108F14000201FFF783FE4FF006033B7440F26853EF
:108F2400C2F200034FF040021A600AE04FF0070358
:108F34003B7440F26853C2F200034FF080021A609F
:108F440000BF07F118034FF40050C4F200001946A3
:108F54000DF022FB07F10C034FF40050C4F20000A3
:108F640019460DF04DFB4FF40050C4F200004FF0D1
:108F74000101FFF709FEBB79002B03D04FF0070076
:108F8400FFF7AEFD40F26553C2F20003FA791A709E
:108F940040F26453C2F200034FF000021A704FF41F
:108FA4000050C4F200004FF00101FFF709FEBB7945
:108FB40083F00103DBB2002B0DD000BF4FF400504F
:108FC400C4F20000FFF7F0FD034603F00103002B99
:108FD400F4D0FFF7D5FE07F12007BD4680BD00BFE2
:108FE40080B483B000AF0346FB714FF46143CEF20B
:108FF400000397F907204FEA5212F97901F01F0193
:109004004FF0010000FA01F102F1600243F822106E
:1090140007F10C07BD4680BC704700BF80B483B025
:1090240000AF03463960FB714FF4C042C4F2000242
:10903400F9793B684FF0010000FA03F318460B4638
:109044004FEAC3035B184FEA8303D31803F11003F9
:10905400186007F10C07BD4680BC704790B585B019
:1090640000AF4FF44240C0F202004FF001010DF096
:1090740051FE4EF2BC63C0F201033C460FCB84E8C0
:109084000F004FF4D843C0F2DC237B6046F63C5318
:10909400C0F20103BB603B464FF42440C4F200001D
:1090A40019460EF00FFE4FF42443C4F2000340F2BD
:1090B40003129A634FF42440C4F200004FF00101FC
:1090C4000EF0EEFD07F11407BD4690BD80B500AF6C
:1090D4004FF42443C4F200034FF000029A634FF4A8
:1090E4002440C4F200004FF000010EF0D9FD4FF40B
:1090F4004240C0F202004FF000010DF00BFE80BDB3
:1091040080B500AF4FF44240C0F202004FF00101BD
:109114000DF000FE4FF42443C4F2000340F20312A6
:109124009A634FF42440C4F200004FF001010EF0A2
:10913400B7FD80BD80B500AF4FF001004FF00B01CB
:109144004FF008024FF001030EF06AFC4FF00100EB
:109154004FF00C014FF008024FF001030EF060FCD9
:109164004FF000004FF00901FFF758FF4FF0640083
:10917400FFF726FB4FF00A00FFF732FF80BD00BF68
:1091840080B500AF4FF42440C4F200000EF0CAFDD5
:1091940003461A4640F26C53C2F200031A7080BDB3
:1091A40080B584B000AF78604FF00003FB605BE0F3
:1091B4004FF42440C4F2000079680FF001F803462C
:1091C4001A4640F26C53C2F200031A704FF00003C7
:1091D400BB6019E04FF42440C4F200000EF0A2FD7D
:1091E40003461A4640F26C53C2F200031A7040F26E
:1091F4006C53C2F200031B78DBB25BB2012B09D1C2
:10920400BB6803F10103BB60BA6842F20F739A4270
:10921400E0D900E000BF40F26C53C2F200031B78B7
:10922400DBB25BB2B3F1FF3F04D1FB6803F101038E
:10923400FB6019E040F26C53C2F200031B78DBB20E
:10924400002B0ED04EF2CC60C0F201004FF04A0168
:109254004EF21072C0F2010204F02CFA4FF0000337
:1092640013E04FF0010310E0FB68042BA0D94EF289
:10927400CC60C0F201004FF04F014EF21072C0F208
:10928400010204F017FA4FF00003184607F1100723
:10929400BD4680BD80B588B000AF0B463A6002463B
:1092A400FA71BB71FB799BB2BB814FF00403FB8164
:1092B40007F106033B614FF00103BB823B68BB61CE
:1092C4004FF00103BB8307F10C031846FFF768FF57
:1092D4000346184607F12007BD4680BD80B588B017
:1092E40000AF13460246FA710A46BA717B71FB79E4
:1092F4009BB2BB814FF00803FB8107F106033B617E
:109304004FF00103BB8207F10503BB614FF001037A
:10931400BB8307F10C031846FFF742FF03461846C8
:1093240007F12007BD4680BD80B58AB000AFBA60A2
:109334007B600346FB730B46BB73FB7B9BB2BB8218
:109344004FF00803FB8207F10E03BB614FF00103EA
:10935400BB83BB683B627B689BB2BB8407F114038D
:109364001846FFF71DFF0346184607F12807BD46B8
:1093740080BD00BF80B586B002AF4FF480304FF09F
:10938400AF0107F099FD0346BB73BB7B03F01F03DA
:10939400FB7323E04FF0E8033B7307F10C0207F182
:1093A40004034FF0060100914FF4803011464FF052
:1093B400010207F037FD40F27053C2F200031B684C
:1093C400002B0BD040F27053C2F200031B68B88824
:1093D400F9883A8900B209B212B29847FB7B002B94
:1093E4000CBF00230123DBB2FA7B02F1FF32FA73D4
:1093F400002BCFD107F11007BD4680BD80B582B0E8
:1094040000AF40F27053C2F200034FF000021A6042
:109414004FF480304FF08F0107F04EFD0346FB718F
:10942400FB79332B0CD04EF21470C0F201004FF0D4
:109434007A014EF25872C0F2010204F03BF92FE0B7
:109444004FF480304FF023014FF0A80207F09CFC4A
:109454004FF480304FF02E014FF0000207F094FCDF
:109464004FF480304FF02E014FF0900207F08CFC47
:109474004FF480304FF022014FF0060207F084FCD5
:109484004FF480304FF024014FF0400207F07CFC91
:109494004FF0040049F27931C0F2000106F020F8DF
:1094A40007F10807BD4680BD80B483B000AF786083
:1094B40040F27053C2F200037A681A6007F10C0795
:1094C400BD4680BC704700BF80B500AF4FF00400BC
:1094D40006F064F84FF480304FF020014FF00002A2
:1094E40007F052FC80BD00BF80B500AF4FF0040010
:1094F40006F06AF84FF480304FF020014FF0370245
:1095040007F042FC80BD00BF80B483B000AF40F2DE
:109514007453C2F200034FF000021A6040F2785311
:10952400C2F200034FF000021A6040F29C53C2F2F0
:1095340000034FF000021A604FF000037B600CE060
:1095440040F27C53C2F200037A689B184FF0000289
:109554001A707B6803F101037B607B681F2BEFDDCE
:1095640007F10C07BD4680BC704700BF80B400AF54
:1095740040F27453C2F200031B681846BD4680BC17
:10958400704700BF80B400AF40F27453C2F20003CE
:109594001B68002B0CBF00230123DBB21846BD4619
:1095A40080BC704780B582B000AF786040F27453DD
:1095B400C2F200037A681A6002F046FA07F108075B
:1095C400BD4680BD80B582B000AF786040F2745370
:1095D400C2F200031A687B68D21840F27453C2F2D4
:1095E40000031A6040F27453C2F200031B68012B9B
:1095F40008D902F019FA40F27453C2F200034FF092
:1096040001021A6002F020FA07F10807BD4680BD86
:1096140080B582B000AF786040F27453C2F20003A8
:109624001B687A689A4209D902F0FEF940F2745331
:10963400C2F200034FF000021A600DE040F27453CE
:10964400C2F200031A687B68D21A40F27453C2F261
:1096540000031A6002F0F8F907F10807BD4680BD5F
:1096640080B400AF40F27853C2F200031B6818467E
:10967400BD4680BC704700BF80B400AF40F2785351
:10968400C2F200031B68002B0CBF00230123DBB2D2
:109694001846BD4680BC704780B582B000AF786084
:1096A40040F27853C2F200037A681A6002F0D4F9E7
:1096B40007F10807BD4680BD80B582B000AF786071
:1096C40040F27853C2F200031A687B68D21840F261
:1096D4007853C2F200031A6040F27853C2F20003D6
:1096E4001B68022B08D902F09FF940F27853C2F2AA
:1096F40000034FF002021A6002F0AEF907F1080706
:10970400BD4680BD80B582B000AF786040F278532A
:10971400C2F200031B687A689A4209D902F084F9FC
:1097240040F27853C2F200034FF000021A600DE0D9
:1097340040F27853C2F200031A687B68D21A40F2EE
:109744007853C2F200031A6002F086F907F10807A1
:10975400BD4680BD80B483B000AF40F29C53C2F2DA
:1097640000034FF000021A604FF000037B600CE02E
:1097740040F27C53C2F200037A689B184FF0000257
:109784001A707B6803F101037B607B681F2BEFDD9C
:1097940007F10C07BD4680BC704700BF80B582B09E
:1097A40000AF7860396040F29C53C2F200031A683B
:1097B4003B68D318202B02D902F036F91AE040F2A4
:1097C4009C53C2F200031A6840F27C53C2F20003B5
:1097D400D318184679683A6814F070FC40F29C5328
:1097E400C2F200031A683B68D21840F29C53C2F2DA
:1097F40000031A6007F10807BD4680BD80B582B03A
:1098040000AF7860396040F29C53C2F200031B68D9
:10981400002B01D002F008F9FFF79CFF7868396843
:10982400FFF7BCFF02F098F907F10807BD4680BDB9
:1098340080B584B000AFF860B9607A603B6040F2F4
:109844009C53C2F200031B68002B01D002F0ECF819
:10985400FFF780FFF868B968FFF7A0FF78683968F8
:10986400FFF79CFF02F078F907F11007BD4680BDB1
:1098740080B582B000AF07F106034FF01C004FF033
:1098840007011A46FFF706FD0346FB71FB7983F0D7
:109894000103DBB2002B11D1BB79C42B0CD04EF2E7
:1098A4005C70C0F201004FF02D014EF2A472C0F2C0
:1098B400010203F0FFFE01E000F004F807F10807DD
:1098C400BD4680BD80B582B000AF4FF01C004FF0A4
:1098D40011014FF00002FFF701FD0346FB71FB7914
:1098E40083F00103DBB2002B0CD04EF25C70C0F2AB
:1098F40001004FF04C014EF2A472C0F2010203F0D9
:10990400D9FE1CE04FF01C004FF010014FF0000294
:10991400FFF7E4FC0346FB71FB7983F00103DBB240
:10992400002B0CD04EF25C70C0F201004FF05101DC
:109934004EF2A472C0F2010203F0BCFE00BF07F1B4
:109944000807BD4680BD00BF80B483B000AF0346A6
:10995400FB714FF46143CEF2000397F907204FEAFD
:109964005212F97901F01F014FF0010000FA01F1E0
:1099740043F8221007F10C07BD4680BC704700BFB6
:1099840080B400AF4FF00003C4F208035B681846CC
:10999400BD4680BC704700BF80B483B000AF786020
:1099A4004FF00003C4F208037A689A6107F10C07C8
:1099B400BD4680BC704700BF80B483B000AF786000
:1099C4004FF00003C4F208034FF00002C4F208028F
:1099D400D1697A680A43DA6107F10C07BD4680BC95
:1099E400704700BF80B582B000AF40F2A053C2F20E
:1099F40000034FF000021A604FF48640C0F20400E6
:109A04004FF001010DF086F94FF000004FF0010115
:109A14004FF001020DF09CFD4FF00200C0F2060071
:109A24004FF002010DF0CEFB4FF00300C0F2120024
:109A34004FF002010DF0C6FB41F23040C0F20800C5
:109A44004FF001010DF066F94FF48640C0F20400B6
:109A54004FF001010DF05EF94FF40043C4F20C0322
:109A64004FF40042C4F20C02126822F0607242F415
:109A740000021A604FF40043C4F20C034FF00202D8
:109A8400C3F8802000F026F84FF00200FFF794FF9F
:109A94004FF01E00FFF758FF4EF2A873C0F2010307
:109AA40007F1040219889B781180937007F104036D
:109AB40018460EF0E1FD07F10807BD4680BD00BF62
:109AC40080B500AF4FF000004FF6FF710EF0A0FD1F
:109AD40080BD00BF80B500AF4FF0000040F2FF3101
:109AE4000EF096FD0EF0F2FD80BD00BF80B582B091
:109AF40000AF3B4683E80300FEF70CFC4FF0005335
:109B04003A685A604FF0005279684DF68363C4F2A4
:109B14001B33A3FB01034FEA533347F6122101FB26
:109B240003F39360FEF7FCFB07F10807BD4680BD15
:109B340080B400AF4FF000535B681846BD4680BC4C
:109B4400704700BF80B584B000AF7860FEF7E2FBD9
:109B54004FF000539B68FB604FF000535B68BB60A1
:109B6400FEF7DEFB7B6807F1080292E8030083E856
:109B74000300786807F11007BD4680BD80B586B044
:109B840000AF786000E000BF4FF000539B68FB60BB
:109B94004FF000535B68BB60FFF7F2FE78614FF053
:109BA40000539B683B61FA683B699A42EBD100BF62
:109BB400FA687B6947F6122101FB03F34FEA93230A
:109BC400D318FB607B6807F1080292E8030083E87E
:109BD4000300786807F11807BD4680BD80B582B0E0
:109BE40000AF7860FEF796FB40F2A053C2F2000388
:109BF4007A681A60FEF794FB07F10807BD4680BD3A
:109C040080B582B000AFFEF785FB40F2A053C2F2EC
:109C140000031B687B60FEF783FB7B68184607F133
:109C24000807BD4680BD00BF80B582B000AF4FF0CD
:109C34000200FFF7B1FE4FF000533B604FF000030A
:109C4400C4F208039A6840F2FF339A423BD13B685E
:109C54009B6803F5F44303F112037B607A6844F2D2
:109C64003F23C0F20F039A420BD97B68A3F57423F8
:109C7400A3F510737B603B685B6803F101023B68EA
:109C84005A603B687A689A604FF4807005F070FC03
:109C940040F2A053C2F200031B68002B19D040F21B
:109CA400A053C2F200031B6803F1FF331A4640F2CB
:109CB400A053C2F200031A60002A0AD14FF40070C4
:109CC40005F056FC05E03B685B6803F102023B6863
:109CD4005A6007F10807BD4680BD00BF90B400AFCD
:109CE40048F2B013C0F6E0735C6C22464FF00003F8
:109CF40011464FF0000048F2B013C0F6E0731C6C3C
:109D040022464FF0000342EA000243EA01031046F0
:109D14001946BD4690BC704780B586B002AF40F28C
:109D2400A463C2F200034FF000021A7040F67C00F4
:109D3400C2F2000040F2EC61C2F200014FF4C872BA
:109D440003F072FD4FF4C873009340F6D400C2F2DE
:109D5400000044F22021C5F253514FF0400240F676
:109D6400E803C2F2000303F009FF49F69170C0F260
:109D7400000005F085FB4FF480504AF21511C0F243
:109D8400000105F0ADFBFFF7A9FFC7E902014FF0A1
:109D940000037B602BE03B7A03F00F03FB70FB783E
:109DA400092B04D8FB7803F13003FB7003E0FB7844
:109DB40003F13703FB70FB7899B240F2C442C2F25C
:109DC40000027B684FEA4303D3180A465A80FB68B3
:109DD4004FEA0373BA684FEA12121343BB60FB687D
:109DE4004FEA1313FB607B6803F101037B607B681C
:109DF4000F2BD0D907F11007BD4680BD80B500AF49
:109E04000FF0AEFA0346002B0CBF00230123DBB294
:109E1400184680BD80B500AF0FF0A2FA0346052BAB
:109E240014BF00230123DBB2184680BD80B500AF08
:109E34004EF67C00C0F201000FF09EFA80BD00BF18
:109E440080B500AF0FF024FE80BD00BF80B483B0A6
:109E540000AF0346FB7140F2A463C2F200031A7818
:109E6400114640F2A453C2F20003F879585402F1A7
:109E74000103DAB240F2A463C2F200031A704FF095
:109E84000003184607F10C07BD4680BC704700BFAD
:109E940080B588B000AF78606FF00203FB617B6827
:109EA4001B7803F06003DBB2002B66D17B681B7860
:109EB40023F07F03DBB2002B5FD07B681B7803F0B9
:109EC4001F03DBB2012B58D17B685B78062B54D17E
:109ED4007B685B889BB24FEA13239BB2222B1DD174
:109EE4004FF02003BB617B689A79DB794FEA032347
:109EF4001343FB82FA8ABB699A4238BF13464FF078
:109F040000004EF2C071C0F201011A464FF0000386
:109F14000FF0DCFD4FF00003FB612DE07B685B88F4
:109F24009BB24FEA13239BB2212B25D140F6782014
:109F3400C2F2000014494FF0090214F0BFF84FF0C8
:109F440009033B617B689A79DB794FEA0323134366
:109F5400FB81FA893B699A42B8BF13464FF000006F
:109F640040F67821C2F200011A464FF000030FF0C8
:109F7400ADFD4FF00003FB6100BFFB69184607F11C
:109F84002007BD4680BD00BFF2E7010080B500AFE9
:109F94000FF024FD0346184680BD00BF80B582B093
:109FA40000AF02460B46FA71BB7144F22050C4F272
:109FB4004C200BF00DFABB79052B05D140F67C0043
:109FC400C2F2000003F052FC4FF4C05005F0D0FA86
:109FD40007F10807BD4680BD80B584B000AF0346D5
:109FE400B9607A60FB734FF4805005F0C1FA97F9B9
:109FF4000F3013F10B0F04D097F90F3013F10A0F40
:10A0040008D140F67C00C2F2000003F02FFC4FF0B0
:10A01400000365E097F90F30002B14D04EF698003A
:10A02400C0F2010040F28D114EF6DC02C0F20102D2
:10A0340003F040FB40F67C00C2F2000003F016FC83
:10A044004FF000034CE040F67C00C2F2000040F206
:10A05400AC61C2F20001BA6803F0B2FC40F67C00C5
:10A06400C2F2000003F01CFC0346032B36D801A205
:10A0740052F823F0E1A00000E1A0000089A0000054
:10A08400BBA0000040F67C03C2F200031A6840F64D
:10A094007C03C2F20003DB6840F6D400C2F2000085
:10A0A40011461A4603F02AFE40F67C00C2F2000074
:10A0B40003F0DCFB12E04EF69800C0F201004FF40E
:10A0C400CE714EF6DC02C0F2010203F0F3FA40F660
:10A0D4007C00C2F2000003F0C9FB00BF4FF0000394
:10A0E400184607F11007BD4680BD00BF80B584B097
:10A0F40000AF0346B9607A60FB734FF4805005F0FB
:10A1040037FA4FF00003184607F11007BD4680BD2B
:10A1140080B582B000AF0FF023F90346052B57D169
:10A124004FF001000FF0F6F8034683F00103DBB2B1
:10A13400002B1ED04FF0010040F2AC61C2F20001CE
:10A144004FF0400249F6DD73C0F200030FF098FBB4
:10A1540078607B68002B10D040F2A863C2F2000341
:10A164001B6803F1010240F2A863C2F200031A6003
:10A1740003E04FF4805005F0EBF94FF081000FF04D
:10A18400C9F8034683F00103DBB2002B1BD040F671
:10A19400D400C2F2000040F69401C2F2000103F0C0
:10A1A40043FD0346002B14D04FF0810040F6940188
:10A1B400C2F200014FF040024AF2F103C0F2000380
:10A1C4000FF084FC05E04FF4805005F0C1F900E085
:10A1D40000BF07F10807BD4680BD00BF80B584B04D
:10A1E40000AF0346B9607A60FB73FB7B184600F04E
:10A1F4001DFE07F11007BD4680BD00BF80B586B0C7
:10A2040000AF0346B9607A60FB73FB7B002B04D07C
:10A21400FB7B184600F016FE21E07B68022B02D07F
:10A2240001F002FC1BE0BB681B784FEA03239AB2DF
:10A23400BB6803F101031B7813439BB2FB82FB8AC7
:10A244001BB2002B07DBFB8A03F00103002B02D0B7
:10A2540000F004FE03E0FB8A184602F0A5F907F1BA
:10A264001807BD4680BD00BF80B584B000AF03466B
:10A27400B9607A60FB73FB7B002B04D0FB7B184630
:10A2840000F0F2FD01E000F0FBFD07F11007BD4610
:10A2940080BD00BF80B584B000AF0346B9607A606A
:10A2A400FB73FB7B012B02D0022B03D005E001F0F2
:10A2B400B7FF07E001F0ECFF04E0FB7B184600F079
:10A2C400E5FD00BF07F11007BD4680BD80B588B02D
:10A2D40000AF0346B9607A60FB73FB7B012B02D0AD
:10A2E400022B12D014E0BB681B78FB77BB6803F128
:10A2F4000103BB617B6803F1FF337B61FB7F18467D
:10A30400B9697A6900F0DAFD07E000F0E3FD04E0E2
:10A31400FB7B184600F0C6FD00BF07F12007BD46D1
:10A3240080BD00BF80B584B000AF0346B9607A60D9
:10A33400FB73FB7B012B02D0022B03D005E000F062
:10A34400DBFD07E000F0DEFD04E0FB7B184600F0D7
:10A35400C7FD00BF07F11007BD4680BD80B58AB0B8
:10A3640002AF0346B9607A60FB73FB7B002B04D019
:10A37400FB7B184600F0CCFD1FE0B86802F018FE25
:10A384000346FB83BB689B787B77BB68DB783B77B2
:10A39400BB6803F10403184602F020FEB861BB68F1
:10A3A4001B7AFB75F98B7A7F3B7FF87D009008461A
:10A3B40011461A46BB6900F0B7FD07F12007BD46F8
:10A3C40080BD00BF80B586B000AF0346B9607A6037
:10A3D400FB73FB7B002B04D0FB7B184600F0B4FD21
:10A3E40009E0BB687B61BB689B79FB74FB7C786983
:10A3F400194600F0B5FD07F11807BD4680BD00BF42
:10A4040080B586B000AF0346B9607A60FB73FB7B0E
:10A41400002B04D0FB7B184600F0AEFD15E0B868B5
:10A4240002F0C6FD0346FB82FB8A184613F020F9AE
:10A434000346184644F2AE71C4F2610113F052FAB5
:10A4440003463B61386900F0A3FD07F11807BD46D8
:10A4540080BD00BF80B586B000AF0346B9607A60A6
:10A46400FB73FB7B002B04D0FB7B184600F09AFDAA
:10A4740014E0B86802F09CFD0346FB82B7F916307D
:10A48400184613F0F5F8034618464FF07A5113F0C6
:10A4940029FA03463B61386900F090FD07F118077B
:10A4A400BD4680BD80B584B000AF0346B9607A6014
:10A4B400FB73FB7B002B04D0FB7B184600F088FD6C
:10A4C40001E000F091FD07F11007BD4680BD00BF1B
:10A4D40080B584B000AF0346B9607A60FB73FB7B40
:10A4E400002B04D0FB7B184600F084FD01E000F053
:10A4F4008DFD07F11007BD4680BD00BF80B584B057
:10A5040000AF0346B9607A60FB73FB7B002B04D079
:10A51400FB7B184600F080FD01E000F089FD07F1A7
:10A524001007BD4680BD00BF80B584B000AF0346B0
:10A53400B9607A60FB73FB7B002B04D0FB7B18466D
:10A5440000F07CFD01E000F085FD07F11007BD4639
:10A5540080BD00BF80B584B000AF0346B9607A60A7
:10A56400FB73FB7B002B04D0FB7B184600F078FDCB
:10A5740001E000F081FD07F11007BD4680BD00BF7A
:10A5840080B584B000AF0346B9607A60FB73FB7B8F
:10A59400002B04D0FB7B184600F074FD01E000F0B2
:10A5A4007DFD07F11007BD4680BD00BF80B584B0B6
:10A5B40000AF0346B9607A60FB73FB7B002B04D0C9
:10A5C400FB7B184600F070FD01E000F079FD07F117
:10A5D4001007BD4680BD00BF80B584B000AF034600
:10A5E400B9607A60FB73FB7B002B04D0FB7B1846BD
:10A5F40000F06CFD01E000F075FD07F11007BD46A9
:10A6040080BD00BF80B584B000AF0346B9607A60F6
:10A61400FB73FB7B002B04D0FB7B184600F068FD2A
:10A6240001E000F071FD07F11007BD4680BD00BFD9
:10A6340080B584B000AF0346B9607A60FB73FB7BDE
:10A64400002B04D0FB7B184600F064FD01E000F011
:10A654006DFD07F11007BD4680BD00BF80B584B015
:10A6640000AF0346B9607A60FB73FB7B002B04D018
:10A67400FB7B184600F060FD01E000F069FD07F186
:10A684001007BD4680BD00BF80B584B000AF03464F
:10A69400B9607A60FB73FB7B002B04D0FB7B18460C
:10A6A40000F05CFD01E000F065FD07F11007BD4618
:10A6B40080BD00BF80B584B000AF0346B9607A6046
:10A6C400FB73FB7B002B04D0FB7B184600F058FD8A
:10A6D40001E000F061FD07F11007BD4680BD00BF39
:10A6E40080B584B000AF0346B9607A60FB73FB7B2E
:10A6F400002B04D0FB7B184600F054FD01E000F071
:10A704005DFD07F11007BD4680BD00BF80B584B074
:10A7140000AF0346B9607A60FB73FB7B002B04D067
:10A72400FB7B184600F050FD01E000F059FD07F1F5
:10A734001007BD4680BD00BF80B584B000AFBA60CD
:10A744007B600346FB730B46BB73FB7B052B03D07B
:10A754004FF00100FEF736FFFB7B03F1FF331E2BA6
:10A7640000F2F18001A252F823F000BFEDA700002F
:10A774004BA90000FBA700004BA9000009A800009A
:10A7840017A8000025A8000033A8000041A8000075
:10A794004FA800005DA800006BA800003DA90000C0
:10A7A40079A8000087A8000095A80000A3A80000CD
:10A7B400B1A80000BFA80000CDA800004BA900006C
:10A7C4004BA900004BA900004BA90000DBA8000026
:10A7D400E9A80000F7A8000005A9000013A90000DB
:10A7E40021A900002FA90000BB7B1846B9687A682C
:10A7F400FFF7F4FCAAE0BB7B1846B9687A68FFF758
:10A80400FDFCA3E0BB7B1846B9687A68FFF72CFD12
:10A814009CE0BB7B1846B9687A68FFF73BFD95E07E
:10A82400BB7B1846B9687A68FFF750FD8EE0BB7BA6
:10A834001846B9687A68FFF775FD87E0BB7B184650
:10A84400B9687A68FFF78AFD80E0BB7B1846B9686F
:10A854007A68FFF7B7FD79E0BB7B1846B9687A6878
:10A86400FFF7CEFD72E0BB7B1846B9687A68FFF744
:10A87400F1FD6BE0BB7B1846B9687A68FFF712FEFE
:10A8840064E0BB7B1846B9687A68FFF721FE5DE097
:10A89400BB7B1846B9687A68FFF730FE56E0BB7B8D
:10A8A4001846B9687A68FFF73FFE4FE0BB7B18464D
:10A8B400B9687A68FFF74EFE48E0BB7B1846B96872
:10A8C4007A68FFF75DFE41E0BB7B1846B9687A6899
:10A8D400FFF76CFE3AE0BB7B1846B9687A68FFF76D
:10A8E4007BFE33E0BB7B1846B9687A68FFF78AFEC3
:10A8F4002CE0BB7B1846B9687A68FFF799FE25E01F
:10A90400BB7B1846B9687A68FFF7A8FE1EE0BB7BDC
:10A914001846B9687A68FFF7B7FE17E0BB7B18469C
:10A92400B9687A68FFF7C6FE10E0BB7B1846B968C1
:10A934007A68FFF7D5FE09E0BB7B1846B9687A68E8
:10A94400FFF7E4FE02E001F06FF800BF07F1100723
:10A95400BD4680BD80B584B000AF786039603B6887
:10A96400042B02D001F060F810E07B685B78FB7385
:10A974007B689B78BB737B68DB787B73F97BBA7BE2
:10A984007B7B084611461A4601F0F2FB07F11007DB
:10A99400BD4680BD80B582B000AF786039607B6809
:10A9A40003F101023B6803F1FF331046194600F03E
:10A9B4001DFC07F10807BD4680BD00BF80B584B00B
:10A9C40000AF786039607B6803F10103184602F038
:10A9D400EFFA0346FB817B6803F10303BB60FB8949
:10A9E4001846B96800F00CFC07F11007BD4680BD9D
:10A9F40080B586B000AF786039603B68022B02D81E
:10AA040001F012F815E07B685B78FB757B689B7836
:10AA1400BB757B6803F103033B613B68A3F103034C
:10AA2400FB60FA7DBB7D104619463A69FB68FFF767
:10AA340083FE07F11807BD4680BD00BF80B588B00E
:10AA440002AF786039603B680F2B02D000F0ECFF56
:10AA54002CE07B685B78FB757B6803F102033B6148
:10AA64007B6803F10803184602F0A2FA0346FB814F
:10AA74007B6803F10A03184602F09AFA0346BB8185
:10AA84007B6803F10C03184602F092FA03467B81BB
:10AA94007B689B7B7B72F97DFA89BB8978890090FE
:10AAA400787A01900846396901F008FC07F1180723
:10AAB400BD4680BD80B584B000AF786039603B6826
:10AAC400032B02D000F0B0FF0BE07B685B78FB73D4
:10AAD4007B689B78BB73FA7BBB7B1046194601F0FD
:10AAE40037FC07F11007BD4680BD00BF90B587B0A5
:10AAF40002AF786039603B68072B02D000F094FF06
:10AB04001BE07B685B78FB737B689B78BB737B681B
:10AB1400DB787B737B681B793B737B685B79FB72A7
:10AB24007B689B79BB72F87BB97B7A7B3B7BFC7A35
:10AB34000094BC7A019400F06FFB07F11407BD4642
:10AB440090BD00BF80B586B000AF786039603B68C7
:10AB5400112B02D000F068FF15E07B6803F10103BC
:10AB6400184602F05DFAC7E904017B6803F10903A2
:10AB7400184602F055FAC7E90201D7E90401D7E9FA
:10AB8400022301F065FC07F11807BD4680BD00BF34
:10AB940080B584B000AF786039603B68072B02D081
:10ABA40000F042FF1FE07B6803F10103184602F046
:10ABB400FFF90346FB817B6803F10303184602F0A7
:10ABC400F7F90346BB817B6803F10503184602F0DD
:10ABD400EFF903467B81F989BA897B8908461146D6
:10ABE4001A4601F095FB07F11007BD4680BD00BF72
:10ABF40080B584B000AF786039603B68072B02D021
:10AC040000F012FF06E07B6803F10103FB60F868C3
:10AC140000F00EFB07F11007BD4680BD80B584B07F
:10AC240000AF786039603B68022B02D000F0FCFE74
:10AC340006E07B685B78FB73FB7B184600F002FB45
:10AC440007F11007BD4680BD80B584B000AF7860C1
:10AC540039603B68022B02D000F0E6FE06E07B6818
:10AC64005B78FB73FB7B184601F0E4FB07F11007EC
:10AC7400BD4680BD80B586B000AF786039603B6862
:10AC8400022B02D800F0D0FE15E07B685B78FB75E0
:10AC94007B689B78BB757B6803F103033B613B686E
:10ACA400A3F10303FB60FA7DBB7D104619463A69A4
:10ACB400FB6801F0A7FA07F11807BD4680BD00BF85
:10ACC40080B586B000AF786039603B68012B02D84C
:10ACD40000F0AAFE10E07B685B78FB757B6803F1EB
:10ACE40002033B613B68A3F10203FB60FB7D184652
:10ACF4003969FA6801F032FC07F11807BD4680BDD6
:10AD040080B584B000AF786039603B68022B02D014
:10AD140000F08AFE06E07B685B78FB73FB7B1846D9
:10AD240000F09AFA07F11007BD4680BD80B584B0E3
:10AD340000AF786039607B681B78FB73FB7BA3F101
:10AD440081030E2B6BD801A252F823F08DAD0000C5
:10AD540097AD0000A1AD0000ABAD0000B5AD0000A3
:10AD6400BFAD0000C9AD0000D3AD0000DDAD0000F3
:10AD7400FBAD000019AE00000FAE000005AE0000F0
:10AD8400E7AD0000F1AD000078683968FFF7E2FD37
:10AD940048E078683968FFF7FDFD43E07868396872
:10ADA400FFF70CFE3EE078683968FFF721FE39E0D2
:10ADB40078683968FFF742FE34E078683968FFF74D
:10ADC40079FE2FE078683968FFF790FE2AE078680A
:10ADD4003968FFF7B7FE25E078683968FFF7D8FED1
:10ADE40020E078683968FFF703FF1BE0786839686A
:10ADF400FFF714FF16E078683968FFF725FF11E0C4
:10AE040078683968FFF736FF0CE078683968FFF72F
:10AE140057FF07E078683968FFF772FF02E000F037
:10AE240003FE00BF07F11007BD4680BD80B582B0A8
:10AE340000AF0346FB7100F0F7FD07F10807BD46BC
:10AE440080BD00BF80B582B000AF0346FB7100F047
:10AE5400EBFD07F10807BD4680BD00BF80B500AF1C
:10AE640000F0E2FD80BD00BF80B582B000AF0346B4
:10AE7400FB7100F0D9FD07F10807BD4680BD00BF96
:10AE840080B400AFBD4680BC704700BF80B582B0BF
:10AE940000AF0346FB7100F0C7FD07F10807BD468C
:10AEA40080BD00BF80B582B000AF0346FB7100F0E7
:10AEB400BBFD07F10807BD4680BD00BF80B485B067
:10AEC40000AFF860B9607A6007F11407BD4680BC32
:10AED400704700BF80B400AFBD4680BC704700BF60
:10AEE40080B582B000AF0346FB7100F09DFD07F111
:10AEF4000807BD4680BD00BF80B400AFBD4680BC1E
:10AF0400704700BF80B400AFBD4680BC704700BF2F
:10AF140080B582B000AF0346FB7100F085FD07F1F8
:10AF24000807BD4680BD00BF80B483B000AF3B605E
:10AF34000346FB800B467B7113463B7107F10C07FC
:10AF4400BD4680BC704700BF80B582B000AF0346E9
:10AF5400FB7100F069FD07F10807BD4680BD00BF25
:10AF640080B483B000AF78600B46FB7007F10C0728
:10AF7400BD4680BC704700BF80B582B000AF0346B9
:10AF8400FB7100F051FD07F10807BD4680BD00BF0D
:10AF940080B483B000AF786007F10C07BD4680BC75
:10AFA400704700BF80B582B000AF0346FB7100F06C
:10AFB4003BFD07F10807BD4680BD00BF80B483B0E8
:10AFC40000AF786007F10C07BD4680BC704700BF36
:10AFD40080B582B000AF0346FB7100F025FD07F198
:10AFE4000807BD4680BD00BF80B400AFBD4680BC2D
:10AFF400704700BF80B582B000AF0346FB7100F01C
:10B0040013FD07F10807BD4680BD00BF80B400AF43
:10B01400BD4680BC704700BF80B582B000AF034618
:10B02400FB7100F001FD07F10807BD4680BD00BFBC
:10B0340080B400AFBD4680BC704700BF80B582B00D
:10B0440000AF0346FB7100F0EFFC07F10807BD46B3
:10B0540080BD00BF80B400AFBD4680BC704700BF58
:10B0640080B582B000AF0346FB7100F0DDFC07F150
:10B074000807BD4680BD00BF80B400AFBD4680BC9C
:10B08400704700BF80B582B000AF0346FB7100F08B
:10B09400CBFC07F10807BD4680BD00BF80B400AFFC
:10B0A400BD4680BC704700BF80B582B000AF034688
:10B0B400FB7100F0B9FC07F10807BD4680BD00BF75
:10B0C40080B400AFBD4680BC704700BF80B582B07D
:10B0D40000AF0346FB7100F0A7FC07F10807BD466B
:10B0E40080BD00BF80B400AFBD4680BC704700BFC8
:10B0F40080B582B000AF0346FB7100F095FC07F108
:10B104000807BD4680BD00BF80B400AFBD4680BC0B
:10B11400704700BF80B582B000AF0346FB7100F0FA
:10B1240083FC07F10807BD4680BD00BF80B400AFB3
:10B13400BD4680BC704700BF80B582B000AF0346F7
:10B14400FB7100F071FC07F10807BD4680BD00BF2C
:10B1540080B400AFBD4680BC704700BF80B582B0EC
:10B1640000AF0346FB7100F05FFC07F10807BD4622
:10B1740080BD00BF80B400AFBD4680BC704700BF37
:10B1840080B582B000AF0346FB7100F04DFC07F1BF
:10B194000807BD4680BD00BF80B400AFBD4680BC7B
:10B1A400704700BF80B582B000AF0346FB7100F06A
:10B1B4003BFC07F10807BD4680BD00BF80B400AF6B
:10B1C400BD4680BC704700BF80B582B000AF034667
:10B1D400FB7100F029FC07F10807BD4680BD00BFE4
:10B1E40080B400AFBD4680BC704700BF80B483B05C
:10B1F40000AF7860396007F10C07BD4680BC70472A
:10B2040080B582B000AF03463960FB8000F00CFCCF
:10B2140007F10807BD4680BD80B483B000AFF87164
:10B22400B9717A713B7107F10C07BD4680BC704758
:10B2340080B483B000AF786007F10C07BD4680BCD2
:10B24400704700BF80B483B000AF0346FB7107F1C1
:10B254000C07BD4680BC704780B483B000AF034682
:10B26400FB7107F10C07BD4680BC704780B582B006
:10B2740000AF786039604FF00100FEF7C9F97868D3
:10B284003968FEF7BBFA07F10807BD4680BD00BF69
:10B2940080B584B000AFF860B9607A603B604FF06D
:10B2A4000100FEF7B5F9F868B9687A683B68FEF7FB
:10B2B400BFFA07F11007BD4680BD00BF80B582B05C
:10B2C40000AF786039604FF00100FEF71BFA786830
:10B2D4003968FEF793FA07F10807BD4680BD00BF41
:10B2E40080B584B000AFF860B9607A603B604FF01D
:10B2F4000100FEF707FAF868B9687A683B68FEF758
:10B3040097FA07F11007BD4680BD00BF80B584B031
:10B3140000AF0346FB714FF002033B734FF0010390
:10B324007B73FB79BB7307F10C0318464FF00301E1
:10B33400FFF79CFF07F11007BD4680BD80B584B0C0
:10B3440000AF0346FB804FF003033B734FF003034E
:10B354007B73FB884FEA13239BB2DBB2BB73FB887E
:10B36400DBB2FB7307F10C0318464FF00401FFF73F
:10B374007DFF07F11007BD4680BD00BF80B582B0D8
:10B3840000AF4EF6E003C0F2010307F104021B888C
:10B39400138007F1040318464FF00201FFF766FF1C
:10B3A40007F10807BD4680BD80B582B000AF4EF6F8
:10B3B400E403C0F2010307F104021B88138007F1C0
:10B3C400040318464FF00201FFF750FF07F1080786
:10B3D400BD4680BD80B584B000AF02460B46FA80FE
:10B3E400BB804FF005033B724FF00F037B72FB8869
:10B3F400DBB2BB72FB884FEA13239BB2DBB2FB7256
:10B40400BB88DBB23B73BB884FEA13239BB2DBB22E
:10B414007B7307F1080318464FF00601FFF726FF78
:10B4240007F11007BD4680BD80B584B000AF034668
:10B43400FB714FF002033B734FF011037B73FB79F5
:10B44400BB7307F10C0318464FF00301FFF70EFF1F
:10B4540007F11007BD4680BD80B584B000AF034638
:10B46400FB714FF002033B734FF012037B73FB79C4
:10B47400BB7307F10C0318464FF00301FFF7F6FE08
:10B4840007F11007BD4680BD80B586B000AFF880D7
:10B49400B9807A803B804FF009033B734FF013036C
:10B4A4007B73FB88DBB2BB73FB884FEA13239BB22D
:10B4B400DBB2FB73BB88DBB23B74BB884FEA13235C
:10B4C4009BB2DBB27B747B88DBB2BB747B884FEAB4
:10B4D40013239BB2DBB2FB743B88DBB23B753B8826
:10B4E4004FEA13239BB2DBB27B7507F10C031846BA
:10B4F4004FF00A01FFF7BAFE07F11807BD4680BDF9
:10B5040080B584B000AF0346FB714FF002033B7378
:10B514004FF01F037B73FB79BB7307F10C031846D1
:10B524004FF00301FFF7A2FE07F11007BD4680BDEF
:10B5340080B586B000AF0346B9607A60FB737B6860
:10B54400DBB203F10203DBB23B754FF00D037B75F5
:10B55400FB7BBB7507F1140318464FF00301BA686F
:10B564007B68FFF795FE07F11807BD4680BD00BF55
:10B5740080B586B000AF0346B9607A60FB737B6820
:10B58400DBB203F10203DBB23B754FF015037B75AD
:10B59400FB7BBB7507F1140318464FF00301BA682F
:10B5A4007B68FFF79DFE07F11807BD4680BD00BF0D
:10B5B40080B584B000AF0346FB714FF002033B73C8
:10B5C4004FF016037B73FB79BB7307F10C0318462A
:10B5D4004FF00301FFF772FE07F11007BD4680BD6F
:10B5E40080B483B000AF03463960FB714FF4C042AE
:10B5F400C4F20002F9790B464FEAC3035B184FEA21
:10B604008303D31803F118035A683B6822FA03F33F
:10B6140003F00103184607F10C07BD4680BC7047D0
:10B6240080B483B000AF03463960FB714FF4C0426D
:10B63400C4F20002F9793B684FF0010000FA03F309
:10B6440018460B464FEAC3035B184FEA8303D3182B
:10B6540003F11003586007F10C07BD4680BC704726
:10B6640080B483B000AF03463960FB714FF4C0422D
:10B67400C4F20002F9793B684FF0010000FA03F3C9
:10B6840018460B464FEAC3035B184FEA8303D318EB
:10B6940003F11003186007F10C07BD4680BC704726
:10B6A40080B500AF00F0F8F900F058FD80BD00BF90
:10B6B40080B582B002AF40F68423C2F200034FF09B
:10B6C40000021A6040F68823C2F200034FF0000221
:10B6D4001A6040F68C23C2F200034FF000021A6095
:10B6E40040F69023C2F200034FF000021A6040F6C5
:10B6F4009823C2F200034FF000004FF00001C3E9A9
:10B70400000140F6A023C2F200034FF000004FF006
:10B714000001C3E9000140F6A823C2F200034FF080
:10B7240000021A7040F6AA23C2F200034FF000028E
:10B734001A8040F6AC23C2F200034FF000021A80D4
:10B7440040F64040C2F2000040F6B021C2F20001CF
:10B754004FF4C87202F068F84FF4C873009340F6CF
:10B764006C40C2F2000044F22051C4F24C214FF06C
:10B77400140240F68043C2F2000302F0FFF940F6DF
:10B784001063C2F200034FF000021A7040F6206307
:10B79400C2F200034FF000021A7040F62163C2F2B5
:10B7A40000034FF000021A7040F62263C2F2000355
:10B7B4004FF000021A7040F62363C2F200034FF008
:10B7C40000021A7040F62463C2F200034FF0000234
:10B7D4001A7040F62563C2F200034FF000021A709B
:10B7E40040F62860C2F200004EF64431C0F2010176
:10B7F4004FF0070212F062FC40F63063C2F200031D
:10B804004FF007021A7040F63263C2F200034FF0A1
:10B8140000021A8040F63463C2F200034FF00002C3
:10B824001A8040F63663C2F200034FF000021A8019
:10B834004CF20100C0F201004BF2A561C0F200011C
:10B8440003F04EFE40F61460C2F200004CF2CD51FB
:10B85400C0F2000109F002F8BD4680BD80B584B095
:10B8640000AF786078684FF02A0101F02DFE786807
:10B874004FF0010101F028FE40F68423C2F20003D8
:10B884001B687868194601F01FFE40F68823C2F24F
:10B8940000031B687868194601F016FEFDF766FE82
:10B8A40003467868194601F00FFEFDF7D9FE0346FA
:10B8B4007868194601F008FE40F6AE23C2F2000390
:10B8C4001B787868194601F0B7FD40F62563C2F28B
:10B8D40000031B787868194601F0AEFD40F6A823F2
:10B8E400C2F200031B787868194601F0A5FD40F602
:10B8F4001463C2F200031B797868194601F09CFDB9
:10B904004FF00003FB7340F62063C2F200031B7880
:10B91400002B03D0FB7B43F00103FB7340F6216350
:10B92400C2F200031B78002B03D0FB7B43F002031D
:10B93400FB7340F62263C2F200031B78002B03D092
:10B94400FB7B43F00403FB7340F62363C2F2000362
:10B954001B78002B03D0FB7B43F00803FB7340F6FA
:10B964002463C2F200031B78002B03D0FB7B43F05B
:10B974001003FB73FB7B7868194601F05DFD40F60C
:10B984001063C2F200031B787868194601F054FD75
:10B9940040F69823C2F20003D3E90023786801F04B
:10B9A400B5FD40F6AA23C2F200031B887868194645
:10B9B40001F066FD40F6AC23C2F200031B887868F0
:10B9C400194601F05DFD40F66C43C2F200031B69A9
:10B9D4007868194601F078FD07F11007BD4680BD6F
:10B9E40080B582B000AF786040F63263C2F20003E3
:10B9F4001B887868194601F043FD40F63463C2F2AF
:10BA040000031B887868194601F03AFD40F6366356
:10BA1400C2F200031B887868194601F031FD07F172
:10BA24000807BD4680BD00BF80B500AF4EF64C3060
:10BA3400C0F201004FF0C6014EF69432C0F201028A
:10BA440001F038FE80BD00BF80B500AF4FF4004068
:10BA540003F08EFD80BD00BF80B500AF4FF4804081
:10BA640003F086FD80BD00BF80B500AF4FF003003A
:10BA74004FF00501FFF7D4FD4FF06400FCF7A0FE82
:10BA84004FF003004FF00501FFF7EAFD4FF06400AB
:10BA9400FCF796FE80BD00BF80B594B000AF4FF0B8
:10BAA40003004FF00401FFF79BFD0346002B02D077
:10BAB4004FF000034BE040F29C53C2F200031B68BA
:10BAC400002B02D04FF0030301E04FF001033B745D
:10BAD40040F27C53C2F200037B614FF02003BB6150
:10BAE40040F29C53C2F200031B68FB6107F12C0374
:10BAF4003B624FF020037B624FF00203BB624FF0C6
:10BB040002033B6007F110037B604FF00103BB604D
:10BB14004FF00003FB603B464FF00110194605F05F
:10BB2400CBF84FF0010005F00DF9FDF713FE97F87F
:10BB34002D30FB64FB6C002B07D007F12C0303F1C1
:10BB440002031846F96CFFF7F1F84FF001031846A9
:10BB540007F15007BD4680BD80B582B000AF4FF0FD
:10BB6400011005F06BF84FF003004FF00301FFF7ED
:10BB740057FD00BF4FF003004FF00401FFF730FD05
:10BB84000346002BF6D1FFF787FF0346FB71FB79D1
:10BB940083F00103DBB2002B0BD04EF64C30C0F225
:10BBA400010040F203114EF69832C0F2010201F096
:10BBB40081FD07F10807BD4680BD00BF80B582B096
:10BBC40000AF786040F68423C2F200031A687B68F1
:10BBD4001A4340F68423C2F200031A604FF4803003
:10BBE40003F0B6FC07F10807BD4680BD80B483B0FE
:10BBF40000AF78607B686FEA030240F68423C2F2E8
:10BC040000031B681A4040F68423C2F200031A6042
:10BC140007F10C07BD4680BC704700BF80B582B0F9
:10BC240000AF786040F68823C2F200031A687B688C
:10BC34001A4340F68823C2F200031A604FF480309E
:10BC440003F086FC07F10807BD4680BD80B483B0CD
:10BC540000AF78607B686FEA030240F68823C2F283
:10BC640000031B681A4040F68823C2F200031A60DE
:10BC740007F10C07BD4680BC704700BF90B58BB080
:10BC840000AFEDE140F68423C2F200031B6803F029
:10BC94008003002B17D0FFF771FB4FF08000FFF7F4
:10BCA400A5FF40F6A823C2F200034FF001021A7068
:10BCB4004FF4005003F04CFC4CF20100C0F20100C0
:10BCC40003F06CFCCCE140F68423C2F200031B6851
:10BCD40003F48073002B06D0FFF766FB4FF48070EB
:10BCE400FFF784FFBCE140F68423C2F200031B6823
:10BCF40003F00103002B02D000F092FAB0E140F609
:10BD04008423C2F200031B6803F00203002B21D03A
:10BD140040F63063C2F200031B784FF0010040F696
:10BD24002861C2F200011A46FFF702FC4FF002003C
:10BD3400FFF75CFF40F62263C2F200031B7883F036
:10BD44000103DBB2002B00F08B814FF00400FFF7FE
:10BD540035FF85E140F68423C2F200031B6803F03B
:10BD64000403002B17D04FF00003FB834FF4C86388
:10BD7400BB83FA8BBB8B10461946FFF72BFB4FF0A6
:10BD84000400FFF733FF40F62163C2F200034FF0D3
:10BD940001021A7064E140F68423C2F200031B68B6
:10BDA40003F00803002B16D04FF008037B834FF0F9
:10BDB40010033B834FF00003FB824FF06403BB820C
:10BDC400788B398BFA8ABB8AFFF75EFB4FF0080049
:10BDD400FFF70CFF44E140F68423C2F200031B6822
:10BDE40003F01003002B60D04FF001037B624AE0A4
:10BDF4007B6AA3F120034FF0010202FA03F2796A8D
:10BE0400C1F120014FF0010020FA01F14FF00004CC
:10BE1400786A04FA00F00143F960F968002BB4BFB2
:10BE24000B461346FB604FF001027B6A02FA03F3F0
:10BE3400BB6040F6A023C2F20003D3E90001D7E9B6
:10BE4400022302EA000203EA010352EA030116D0C4
:10BE5400D7E902236FEA02006FEA030140F6A02348
:10BE6400C2F20003D3E9002300EA020001EA03015D
:10BE740040F6A023C2F20003C3E9000106E07B6A96
:10BE840003F101037B627B6A3E2BB1DD40F6A02304
:10BE9400C2F20003D3E9002352EA030140F0E08038
:10BEA4004FF01000FFF7A2FEDAE040F68423C2F25E
:10BEB40000031B6803F02003002B64D04FF0010340
:10BEC4003B624FE03B6AA3F120034FF0010202FA08
:10BED40003F2396AC1F120014FF0010020FA01F1A7
:10BEE4004FF00004386A04FA00F00143796079687D
:10BEF400002BB4BF0B4613467B604FF001023B6A34
:10BF040002FA03F33B6040F69823C2F20003D3E93C
:10BF14000001D7E9002302EA000203EA010352EA1E
:10BF240003011BD03B6ADBB21846FFF7E9FAD7E9F5
:10BF340000236FEA02006FEA030140F69823C2F27D
:10BF44000003D3E9002300EA020001EA030140F6FA
:10BF54009823C2F20003C3E9000106E03B6A03F13F
:10BF640001033B623B6A3E2BACDD40F69823C2F2F0
:10BF74000003D3E9002352EA030171D14FF02000FA
:10BF8400FFF734FE6CE040F68423C2F200031B6822
:10BF940003F04003002B08D04FF00100FFF744FAF0
:10BFA4004FF04000FFF722FE5AE040F68423C2F22D
:10BFB40000031B6803F40073002B08D04FF0020049
:10BFC400FFF7A4F94FF40070FFF710FE48E040F6C5
:10BFD4008423C2F200031B6803F48063002B18D08F
:10BFE40040F6AA23C2F200031B881846FFF7A6F9FD
:10BFF4004FF48060FFF7FAFD40F6AA23C2F2000373
:10C004001B88B3F5404F2BD14FF40060FFF7D6FDEA
:10C0140026E040F68423C2F200031B6803F40063A5
:10C02400002B08D04FF0FF00FFF770F94FF40060C9
:10C03400FFF7DCFD14E040F68423C2F200031B6822
:10C0440003F48053002B0BD040F6AE23C2F200035E
:10C054001B781846FFF700FA4FF48050FFF7C6FD2F
:10C0640040F68423C2F200031B68002B05D0FDF7C1
:10C0740089FA0346002B7FF405AE07F12C07BD4671
:10C0840090BD00BF80B500AF10E040F68823C2F237
:10C0940000031B6803F00103002B07D04FF00300DB
:10C0A400FFF786FA4FF00100FFF7D0FD40F6882332
:10C0B400C2F200031B68002B04D0FDF7DDFA03462F
:10C0C400002BE2D180BD00BF80B483B000AF7860A4
:10C0D4007B684FF0010202FA03F10A464FEAE27369
:10C0E40040F69821C2F20001D1E9000102EA0002FF
:10C0F40003EA01031343002B0CBF00230123DBB22B
:10C10400184607F10C07BD4680BC704780B500AFE8
:10C1140009E04FF0020040F65841C2F200014FF02E
:10C124001402FFF725FA4FF00200FFF7CDFF034694
:10C13400002B11D0FDF7A0FA0346002B0CD040F6DB
:10C144006C40C2F2000040F65841C2F2000101F016
:10C154006BFD0346002BDCD180BD00BF80B500AF72
:10C16400FFF78CFDFFF78EFFFFF7D0FF80BD00BF08
:10C1740080B582B000AF13460246FA710A46BA711E
:10C184007B717A7940F68C23C2F200031A6040F680
:10C194002563C2F20003FA791A70FB79022B1CD0D2
:10C1A400032B0AD0012B28D14FF00100FDF7FAF937
:10C1B4004FF48060FFF702FD1FE04FF00100FDF730
:10C1C400F1F940F61063C2F200034FF000021A7056
:10C1D4004FF00200FFF7F2FC0FE04FF00100FDF713
:10C1E400E1F940F69023C2F200034FF000021A6016
:10C1F4004FF00100FFF7E2FC00BF07F10807BD465E
:10C2040080BD00BF80B485B000AFBA607B600346D8
:10C21400FB730B46BB7307F11407BD4680BC704724
:10C2240080B584B000AF40F69023C2F200031B68CF
:10C23400102B27D84FF00100FDF7EAF940F69023C0
:10C24400C2F200031A6813464FEA43139B184EF6D2
:10C254001011C0F201015B18FB6002F1010240F60B
:10C264009023C2F200031A60FB6803F10103BB6070
:10C27400BB681B7803F101037B60B8687968FDF73C
:10C28400BDFA00E000BF07F11007BD4680BD00BF46
:10C2940080B500AF40F62063C2F200034FF0010204
:10C2A4001A7040F6AE23C2F200034FF003021A7074
:10C2B4004FF00100FFF79AFC80BD00BF80B584B049
:10C2C40000AFB9600146F973BA81FB8040F622637E
:10C2D400C2F200034FF001021A704FF4005003F051
:10C2E40047F940F68C23C2F200031B681846FDF799
:10C2F400D3F940F64040C2F2000001F0B7FA4FF023
:10C304000800FFF75BFC07F11007BD4680BD00BFC6
:10C3140080B483B000AF13460246FA800A46BA805E
:10C324007B8040F63263C2F20003FA881A8040F63A
:10C334003463C2F20003BA881A8040F63663C2F24C
:10C3440000037A881A8007F10C07BD4680BC704749
:10C3540080B582B000AF02460B46FA71BB7144F25D
:10C364002050C4F24C2009F033F840F68423C2F282
:10C3740000034FF000021A6040F68823C2F2000363
:10C384004FF000021A6040F69823C2F200034FF007
:10C3940000004FF00001C3E9000140F6A023C2F2FF
:10C3A40000034FF000004FF00001C3E9000140F624
:10C3B4002163C2F200034FF000021A7040F62263B8
:10C3C400C2F200034FF000021A7040F62363C2F277
:10C3D40000034FF000021A7040F62463C2F2000317
:10C3E4004FF000021A704FF4005003F0C1F84FF000
:10C3F4000000FDF751F940F61063C2F200031B7808
:10C40400012B08D0022B0BD0002B0ED14FF00400CF
:10C41400FFF7D4FB09E04FF08000FFF7CFFB04E007
:10C424004FF40070FFF7CAFB00BF07F10807BD46D1
:10C4340080BD00BF80B582B000AF0346FB71FB79BD
:10C444001846FDF739F907F10807BD4680BD00BF5E
:10C4540080B584B000AFC7E90201C7E9002340F604
:10C464009823C2F20003D7E90201C3E9000140F6B0
:10C47400A023C2F20003D7E90001C3E9000140F69A
:10C48400A023C2F20003D3E9002352EA030104D03B
:10C494004FF01000FFF792FB06E040F62363C2F270
:10C4A40000034FF001021A7007F11007BD4680BD6A
:10C4B40080B582B000AF7860396040F64040C2F287
:10C4C400000079683A6801F07BFA40F64040C2F215
:10C4D400000001F0E5F90346032B37D801A252F816
:10C4E40023F000BF51C5000051C50000F9C400008D
:10C4F4002BC5000040F64043C2F200031A6840F620
:10C504004043C2F20003DB6840F66C40C2F2000014
:10C5140011461A4601F0F2FB40F64040C2F2000018
:10C5240001F0A4F912E04EF64C30C0F2010040F2E2
:10C5340022214EF69432C0F2010201F0BBF840F61B
:10C544004040C2F2000001F091F900BF4FF0010039
:10C55400FFF764FB07F10807BD4680BD80B584B0D2
:10C5640000AF0346B9607A60FB7340F62463C2F2FD
:10C5740000034FF001021A70FB7B032B04D1B8684F
:10C584007968FFF795FF00BF07F11007BD4680BD2E
:10C5940080B400AF40F6AC23C2F200031B881846F7
:10C5A400BD4680BC704700BF80B483B000AF034673
:10C5B400FB8040F6AC23C2F20003FA881A8007F12C
:10C5C4000C07BD4680BC704780B500AF40F61460D0
:10C5D400C2F2000008F08EFA40F6AA23C2F2000369
:10C5E4004FF440421A804FF48060FFF7E7FA80BDB1
:10C5F40080B584B000AF034607F1040080E806006C
:10C60400FB8140F6AA23C2F20003FA891A8040F69D
:10C614001063C2F200034FF002021A704FF04000A0
:10C62400FFF7CCFA7B68002B09D040F61460C2F205
:10C63400000007F1040393E8060008F0FBF907F192
:10C644001007BD4680BD00BF80B582B000AF034671
:10C65400FB7140F6AE23C2F20003FA791A704FF46C
:10C664008050FFF7ABFA07F10807BD4680BD00BF55
:10C6740080B400AF40F6AE23C2F200031B78184624
:10C68400BD4680BC704700BF80B400AF40F6A8230D
:10C69400C2F200031B781846BD4680BC704700BF39
:10C6A40080B500AF40F62263C2F200031B78002B72
:10C6B4000BD040F61063C2F200034FF001021A706F
:10C6C4004FF04000FFF77AFA06E040F68423C2F206
:10C6D40000034FF080021A6080BD00BF80B500AF38
:10C6E4004CF20100C0F2010002F06EFF4FF00100B5
:10C6F400FCF758FF40F6A823C2F200034FF00002F3
:10C704001A704FF48070FFF759FA80BD80B582B07B
:10C7140000AF786039603B68082B02D94FF00803FA
:10C724003B603B68002B13D140F62860C2F2000046
:10C734004EF64431C0F201014FF0070211F0BEFC85
:10C7440040F63063C2F200034FF007021A700EE0A5
:10C7540040F62860C2F2000079683A6811F0AEFC35
:10C764003B68DAB240F63063C2F200031A7040F656
:10C774002563C2F200031B78032B03D14FF00200A0
:10C78400FFF71CFA07F10807BD4680BD80B582B0EB
:10C7940000AF786040F63063C2F200031B7878681B
:10C7A40040F62861C2F200011A4611F087FC40F6F7
:10C7B4003063C2F200031B78184607F10807BD4630
:10C7C40080BD00BF80B400AF40F63863C2F20003FE
:10C7D4004FF000021A6040F63863C2F200034FF0D3
:10C7E40000025A60BD4680BC704700BF80B485B06B
:10C7F40000AF786040F63863C2F200031B68002B78
:10C8040014D140F63863C2F200037A681A6040F625
:10C814003863C2F200037A685A607B684FF0000202
:10C824001A607B684FF000025A6011E040F63863EA
:10C83400C2F200035B68FB6040F63863C2F2000397
:10C844007A685A607B68FA685A60FB687A681A608A
:10C8540007F11407BD4680BC704700BF80B584B0A3
:10C8640000AF78607B684FEA0323FB6007F10B039A
:10C87400F86819464FF0010208F024FCFB7AFE2BFD
:10C8840014BF00230123DBB2184607F11007BD468D
:10C8940080BD00BF80B588B000AFF860B9607A6031
:10C8A400F868FFF7A3FFBB684FEA0312FB689A60BE
:10C8B4007B6803F101034FEA0312FB68DA6008F0B6
:10C8C400EBFAFB684FF0FF321A61FB684FF0FF325E
:10C8D4005A61FB689B681846FFF7C0FF0346002BAC
:10C8E4000CD0FB68DB6803F1FF331846FFF7B6FF93
:10C8F4000346002B02D04FF0010301E04FF0000388
:10C90400FB75FB7D03F00103FB75FB7D002B2ED033
:10C91400FB689B68FB6124E0F869FFF79FFF03460F
:10C9240083F00103DBB2002B08D0FB685B69B3F131
:10C93400FF3F12D1FB68FA695A610EE0FB681B697C
:10C94400B3F1FF3F09D1FB685B69B3F1FF3F04D04A
:10C95400FB68FA691A6100BF33E0FB6903F1010364
:10C96400FB61FB68DA68FB699A42D5D829E0FB6869
:10C974009B68BB6120E0B869FFF770FF0346002B9A
:10C9840008D0FB681B69B3F1FF3F11D1FB68BA699A
:10C994001A610DE0FB685B69B3F1FF3F08D1FB68E6
:10C9A4001B69B3F1FF3F03D0FB68BA695A6108E021
:10C9B400BB6903F10103BB61FB68DA68BB699A4296
:10C9C400D9D8FB681B69B3F1FF3F07D1FB689A68AC
:10C9D400FB681A61FB681A69FB685A6108F0F2FA8D
:10C9E40007F12007BD4680BD80B483B000AF7860F6
:10C9F4007B681A697B685B699A4205D87B685A69C7
:10CA04007B681B69D31A0AE07B68DA687B681B6958
:10CA1400D21A7B6859697B689B68CB1AD31818466D
:10CA240007F10C07BD4680BC704700BF80B584B0D9
:10CA340000AF78607B681B694FEA0323FB6008F052
:10CA44002BFA08F0C9FA4FF0FC03FB7207F10B0351
:10CA5400F86819464FF0010208F0EEFA08F0B2FA4D
:10CA64007B681B6903F101027B681A617B681A69A0
:10CA74007B68DB689A4203D37B689A687B681A6197
:10CA840007F11007BD4680BD90B5C9B000AF07F1EE
:10CA94000C04206007F10800016007F104010A603A
:10CAA4003A4613603B461B68F82B03D93B464FF0CC
:10CAB400F8021A6008F0F0F907F10C031B685B69CF
:10CAC4004FEA0323C7F81C3107F10C031B685B69A9
:10CAD40003F00F03002B49D107F11703D7F81C010A
:10CAE40019464FF0010208F0EDFA07F117031B781D
:10CAF400FF2B05D008F070FAD7F81C0108F076FA7D
:10CB040007F10C031B685A6907F10C031B681B69C6
:10CB14009A422BD207F10C031B681A6907F10C0324
:10CB24001B685B6903F110039A421FD207F10C03DF
:10CB34001B681B6903F110034FEA13134FEA031236
:10CB440007F10C031B681A6107F10C031B681A69CF
:10CB540007F10C031B68DB689A4207D307F10C0347
:10CB64001B689A6807F10C031B681A6107F1180324
:10CB74001A464FF4807310464FF000011A4611F024
:10CB8400C1FA07F118034FF0FE021A703B461B6806
:10CB9400DAB207F118035A7007F108031B68DAB216
:10CBA40007F118031A7107F108031B684FEA1323EE
:10CBB400DAB207F118035A7107F108031B684FEA48
:10CBC4001343DAB207F118039A7107F108031B68DB
:10CBD4004FEA1363DAB207F11803DA7107F11803A5
:10CBE40003F1080107F104023B46084611681A687C
:10CBF40011F064FA3B461B6803F1040307F11802C1
:10CC040002F104024FF6FF7011461A4600F07AF959
:10CC14000346A7F81A31B7F81A31DAB207F1180344
:10CC24009A70B7F81A314FEA13239BB2DAB207F1BC
:10CC34001803DA7008F0D0F93B461B6803F10803C7
:10CC440007F11802D7F81C0111461A4608F0F4F946
:10CC540008F0B8F907F10C031B685B6903F10102E2
:10CC640007F10C031B685A6107F10C031B685A692E
:10CC740007F10C031B68DB689A4207D307F10C0326
:10CC84001B689A6807F10C031B685A6107F10C03CF
:10CC94001B685A6907F10C031B681B699A4204D18B
:10CCA40007F10C031868FFF7C1FE07F59277BD463C
:10CCB40090BD00BF90B5C7B000AF07F10C04206071
:10CCC40007F10800016007F104010A603A461360A5
:10CCD400D7F82831F82B03D94FF0F803C7F82831D7
:10CCE40007F10C031B681A6907F108031B68D218C3
:10CCF40007F104031B681A6007F104031B681A6830
:10CD040007F10C031B68DB689A4211D307F10C038B
:10CD14001B689A6807F104031B68196807F10C0380
:10CD24001B68DB68CB1AD21807F104031B681A606E
:10CD340007F10C031B681B694FEA0323C7F814317E
:10CD440008F0AAF807F11403D7F8140119464FF4B0
:10CD5400807208F0B7F908F035F907F114035B782D
:10CD64001A4607F104031B689A8007F104031B6841
:10CD74009B881A46D7F828319A4206D9D7F8283121
:10CD84009AB207F104031B689A8007F1140303F1B4
:10CD94000203184600F00CF903461A4607F104038F
:10CDA4001B68DA8007F1140303F10403184600F04A
:10CDB40015F9024607F104031B689A6007F104039E
:10CDC4001B689B88394607F1140202F108020868BF
:10CDD40011461A4611F072F907F58E77BD4690BDDB
:10CDE40080B582B000AF786039603B681A687B68B0
:10CDF4001B699A4203D17868FFF718FE00E000BF70
:10CE040007F10807BD4680BD80B582B000AF4FF082
:10CE140000037B6040F63863C2F200031B683B608A
:10CE240009E03868FFF7E0FD03467A68D3187B60B1
:10CE34003B681B683B603B68002BF2D17B6818465B
:10CE440007F10807BD4680BD80B58AB002AFF8601F
:10CE5400B9607A603B60FB68FB6140F63863C2F2FC
:10CE640000031B68BB6119E0B869FFF7BDFD786179
:10CE7400FA697B699A420AD23B680093B869F969F6
:10CE8400BA687B68FFF716FF4FF000030EE0FA69FB
:10CE94007B69D31AFB61BB691B68BB61BB69002B4F
:10CEA400E2D1FB6903F101033B613B69184607F1D9
:10CEB4002007BD4680BD00BF80B584B000AF786058
:10CEC40040F63863C2F200031B68FB6013E0FB68A2
:10CED4009A687B681B689A420AD87B681A68FB6860
:10CEE400DB689A4204D2F8687968FFF779FF05E0B5
:10CEF400FB681B68FB60FB68002BE8D107F1100797
:10CF0400BD4680BD80B487B000AF0346B9607A6087
:10CF1400FB81FB89FB82BA687B68D3183B612FE0F5
:10CF2400FB8A4FEA13239BB29AB2FB8A4FEA03238C
:10CF34009BB213439BB2FB82BB681B781A46FB8AE5
:10CF44005340FB82FB8ADBB24FEA23139AB2FB8A7B
:10CF540053409BB2FB82FB8A4FEA03339AB2FB8AAB
:10CF640053409BB2FB82FB8ADBB24FEA43139AB273
:10CF7400FB8A53409BB2FB82BB6803F10103BB6095
:10CF8400BA683B699A42CBD3FB8A184607F11C075F
:10CF9400BD4680BC704700BF80B483B000AF7860EA
:10CFA4007B681B78184607F10C07BD4680BC7047A8
:10CFB40080B483B000AF78607B6803F101031B7811
:10CFC4004FEA03239AB27B681B7813439BB29BB24C
:10CFD400184607F10C07BD4680BC704780B483B087
:10CFE40000AF78607B6803F103031B784FEA0362A8
:10CFF4007B6803F102031B784FEA03431A437B68FF
:10D0040003F101031B784FEA03231A437B681B785F
:10D014001343184607F10C07BD4680BC704700BF98
:10D02400B0B586B000AF78607868FFF7D7FF0146E7
:10D034000A464FF00003C7E904237B6803F10803A1
:10D044001846FFF7CBFF01460A464FF00003C7E935
:10D054000223BB681D464FF00004D7E9042342EACB
:10D06400040243EA05031046194607F11807BD46B2
:10D07400B0BD00BF80B584B000AF78607868FFF7BA
:10D08400ADFF0346FB60FB68184607F11007BD4679
:10D0940080BD00BF80B584B000AF78603960386867
:10D0A400FFF79CFF0346BB603B6803F1040318468B
:10D0B400FFF794FF0346FB607B6807F1080292E8E0
:10D0C400030083E80300786807F11007BD4680BDBC
:10D0D40080B483B000AF78600B46FB707B68FA784D
:10D0E4001A7007F10C07BD4680BC704780B483B04A
:10D0F40000AF78600B467B807B88DAB27B681A705D
:10D104007B6803F101037A884FEA122292B2D2B209
:10D114001A7007F10C07BD4680BC704780B483B019
:10D1240000AF786039603B68DAB27B681A707B685C
:10D1340003F101033A684FEA1222D2B21A707B68F3
:10D1440003F102033A684FEA1242D2B21A707B68C2
:10D1540003F103033A684FEA1262D2B21A7007F17C
:10D164000C07BD4680BC7047B0B584B000AFF86012
:10D17400C7E900233B68F8681946FFF7CFFFFB684F
:10D1840003F104027B681C464FF000052346104659
:10D194001946FFF7C3FF07F11007BD46B0BD00BF36
:10D1A40080B584B000AF78603960386808F0B2FAAE
:10D1B4000346FB81FB8978681946FFF797FF07F15F
:10D1C4001007BD4680BD00BF80B584B000AF786055
:10D1D40039603B68FB60FB6878681946FFF79EFF7F
:10D1E40007F11007BD4680BD80B584B000AFF8607C
:10D1F40007F1040383E806007B68F8681946FFF723
:10D204008DFFFB6803F10402BB6810461946FFF763
:10D2140085FF07F11007BD4680BD00BF80B485B00F
:10D2240000AFF860B9607A60FB68BA681A60FB689E
:10D234007A685A60FB684FF000029A60FB684FF00E
:10D244000002DA6007F11407BD4680BC704700BFD6
:10D2540080B483B000AF78607B685A687B689B6851
:10D26400D31A184607F10C07BD4680BC704700BFAF
:10D2740080B584B000AFF860B9607A60FB681A6862
:10D28400FB68DB68D318B86819467A6810F016FF93
:10D29400FB68DA687B68D218FB68DA6007F110076C
:10D2A400BD4680BD80B584B000AF78607B681A68E5
:10D2B4007B68DB68D318FB607B68DB6803F10102E1
:10D2C4007B68DA60F868FFF767FE0346184607F1E3
:10D2D4001007BD4680BD00BF80B584B000AF786044
:10D2E4007B681A687B68DB68D318FB607B68DB6843
:10D2F40003F102027B68DA60F868FFF759FE03461F
:10D30400184607F11007BD4680BD00BF80B584B044
:10D3140000AF78607B681A687B68DB68D318FB60B1
:10D324007B68DB6803F104027B68DA60F868FFF766
:10D3340055FE0346184607F11007BD4680BD00BFE1
:10D3440080B584B000AF78607B681A687B68DB685E
:10D35400D318FB607B68DB6803F104027B68DA6046
:10D36400F868FFF787FE0346184607F11007BD4625
:10D3740080BD00BF80B584B000AF786039603B6881
:10D384001A683B68DB68D318FB603B68DB6803F111
:10D3940008023B68DA607B681846F968FFF77AFE92
:10D3A400786807F11007BD4680BD00BF80B582B024
:10D3B40000AF786039607B689A683B68D2187B68F4
:10D3C4005B689A4202D84FF001030DE04EF6A0309C
:10D3D400C0F201004FF093014EF6E432C0F20102B4
:10D3E40000F068F94FF00003184607F10807BD463E
:10D3F40080BD00BF80B584B000AFF860B9607A60CA
:10D40400F8687968FFF7D2FF0346002B0FD0FB685A
:10D414001A68FB689B68D3181846B9687A6810F0D4
:10D424004DFEFB689A687B68D218FB689A6007F126
:10D434001007BD4680BD00BF80B584B000AF7860E2
:10D444000B46FB7078684FF00101FFF7AFFF03460E
:10D45400002B10D07B681A687B689B68D318FB602C
:10D464007B689B6803F101027B689A60FB78F8682B
:10D474001946FFF72DFE07F11007BD4680BD00BF1A
:10D4840080B584B000AF78600B467B8078684FF03D
:10D494000201FFF78BFF0346002B10D07B681A684C
:10D4A4007B689B68D318FB607B689B6803F102026E
:10D4B4007B689A607B88F8681946FFF717FE07F1C6
:10D4C4001007BD4680BD00BF80B584B000AF786052
:10D4D400396078684FF00401FFF768FF0346002BBA
:10D4E4000FD07B681A687B689B68D318FB607B68E5
:10D4F4009B6803F104027B689A60F8683968FFF757
:10D504000DFE07F11007BD4680BD00BF80B586B093
:10D5140000AFF860C7E90023F8684FF00801FFF78F
:10D5240045FF0346002B10D0FB681A68FB689B6814
:10D53400D3187B61FB689B6803F10802FB689A605F
:10D544007869D7E90023FFF70FFE07F11807BD46F6
:10D5540080BD00BF80B584B000AF78603960786862
:10D564004FF00401FFF722FF0346002B0FD07B6826
:10D574001A687B689B68D318FB607B689B6803F11F
:10D5840004027B689A60F8683968FFF71DFE07F1AA
:10D594001007BD4680BD00BF80B586B000AFF860FF
:10D5A40007F1040383E80600F8684FF00801FFF769
:10D5B400FDFE0346002B12D0FB681A68FB689B68CB
:10D5C400D3187B61FB689B6803F10802FB689A60CF
:10D5D400786907F1040393E80600FFF705FE07F1F5
:10D5E4001807BD4680BD00BF80B400AF40F640635D
:10D5F400C2F200034FF000021A7040F64463C2F214
:10D6040000034FF000021A6040F64863C2F20003C0
:10D614004FF000021A70BD4680BC704780B483B0DE
:10D6240000AF786040F64463C2F200037A681A607F
:10D6340007F10C07BD4680BC704700BF80B400AF43
:10D6440040F64463C2F200031B681846BD4680BC22
:10D65400704700BF80B400AF40F64863C2F20003D5
:10D664001B781846BD4680BC704700BF80B582B0A9
:10D6740000AF0346FB7140F64863C2F20003FA7937
:10D684001A7040F64C60C2F200004FF03E014FF0B9
:10D694003F02FFF7FFF807F10807BD4680BD00BF52
:10D6A40080B483B000AF786007F10C07BD4680BC3E
:10D6B400704700BF80B5CCB000AF07F10C03186011
:10D6C40007F10803196007F104031A6040F6406388
:10D6D400C2F200034FF001021A7040F64463C2F232
:10D6E40000031B6803F1010240F64463C2F2000325
:10D6F4001A6040F64863C2F200031B7883F001030A
:10D70400DBB2002B05D007F104031868FFF7C8FF4C
:10D7140085E007F1180207F12803104619464FF077
:10D72400F802FFF77BFD07F590731846FCF726FA1D
:10D7340007F11803184607F5907393E80600FFF7FE
:10D744002BFF07F10C031B68002B37D007F10C03E8
:10D75400186810F00FFD034607F1180107F10C02D9
:10D76400084611681A46FFF745FE07F118031846E4
:10D774004FF02001FFF760FE07F1100207F10803E4
:10D7840010464EF6E831C0F201011A6810F080FC30
:10D7940007F11003184610F0EDFC034607F11801D9
:10D7A40007F11002084611461A46FFF723FE07F157
:10D7B400180318464FF02001FFF73EFE07F104035B
:10D7C400186810F0D7FCC7F82C0107F118031846A5
:10D7D400FFF73EFDC7F82801D7F82C21D7F82831E8
:10D7E4009A4203D9D7F82831C7F82C3107F1180227
:10D7F40007F1040310461968D7F82C21FFF7FAFD46
:10D8040007F118039B6807F1280240F64C60C2F246
:10D81400000044F24641C4F64C71FFF735F907F5B0
:10D824009877BD4680BD00BF80B485B000AFF86076
:10D83400B9607A60FB68BA681A60FB687A685A60F3
:10D84400FB684FF000021A72FB684FF00002DA60C6
:10D85400FB684FF000021A61FB684FF000025A6146
:10D8640007F11407BD4680BC704700BF80B483B085
:10D8740000AF78607B684FF000021A727B684FF04B
:10D884000002DA607B684FF000021A617B684FF097
:10D8940000025A6107F10C07BD4680BC704700BF07
:10D8A40080B483B000AF78607B681B7A184607F1B8
:10D8B4000C07BD4680BC704780B483B000AF78606D
:10D8C4007B684FF003021A7207F10C07BD4680BC57
:10D8D400704700BF80B586B000AFF860B9607A6069
:10D8E400FB685A697B68D3187B61FB68DA687B69DB
:10D8F4009A4205D2FB68DA68FB685B69D31A7B60DD
:10D90400FB681A68FB685B69D3181846B9687A68BB
:10D9140010F0D4FBFB685A697B68D218FB685A6123
:10D92400FB685A69FB68DB689A4204D1FB684FF0D4
:10D9340002021A7205E0FB681B6903F10102FB682D
:10D944001A6107F11807BD4680BD00BF80B584B0D9
:10D9540000AFF860B9607A607B68012B03D8F8687F
:10D96400FFF7AAFF27E0FB684FF001021A72B868BC
:10D97400FFF71EFB03461A46FB68DA60FB684FF0AC
:10D9840000021A61FB684FF000025A61FB68DA6812
:10D99400FB685B689A4203D9F868FFF78DFF0AE0D9
:10D9A400BB6803F102027B68A3F10203F868114625
:10D9B4001A46FFF78FFF07F11007BD4680BD00BF71
:10D9C40080B586B000AFF860B9607A607B68002BE0
:10D9D40003D1F868FFF770FF2CE0BB681B78FB7578
:10D9E400FB7D002B12D1FB681B69002B02D0F86869
:10D9F400FFF762FFBB6803F101027B6803F1FF33A9
:10DA0400F86811461A46FFF7A1FF13E0FA7DFB6898
:10DA14001B699A4203D0F868FFF74EFF0AE0BB681F
:10DA240003F101027B6803F1FF33F86811461A46DB
:10DA3400FFF750FF07F11807BD4680BD80B483B0DF
:10DA440000AF78607B684FF000021A607B684FF08B
:10DA540000021A717B684FF000029A607B684FF0F5
:10DA64000002DA607B684FF000021A6107F10C07CC
:10DA7400BD4680BC704700BF80B485B000AFF8607D
:10DA8400B9607A60FB68BA681A60FB684FF00102FB
:10DA94001A71FB687A689A60FB684FF00002DA60DA
:10DAA400FB684FF000021A6107F11407BD4680BC01
:10DAB400704700BF80B586B000AFF860B9607A6087
:10DAC400FB681B79012B02D04FF0000351E0FB6887
:10DAD400DB68DAB2BB681A704FF001037B61FB6844
