:10800000F01B00200582000017820000198200008A
:108010001B8200001D8200001F8200000000000083
:1080200000000000000000000000000021820000AD
:10803000238200000000000025820000278200004B
:10804000DD470100A5E500002D82000051F8000089
:1080500065F80000ED85010035820000998F000071
:10806000398200003B820000BD9300000DE6000055
:108070004182000043820000E507010079F800001A
:1080800089F800004B8200004D8200004F82000002
:108090005182000053820000558200005782000088
:1080A000598200005B8200005D8200005F82000058
:1080B0006182000063820000C59D000067820000AD
:1080C000698200006B8200006D8200006F820000F8
:0880D0007182000073820000C0
:1080D8002F49072291438D462E492F480A1A06D068
:1080E8000722914381F30988022282F314882B48DE
:1080F8002B492C4A00F039F82B482C492C4A00F01F
:1081080034F82C482C492D4A00F02FF82C482D49DA
:108118002D4A00F02AF82D482D492E4A00F025F85E
:108128002D482E492E4A00F020F82E482E490022CC
:1081380000F026F82D482E49091A082903DB0022E9
:108148000260043001601F481F49884205D0026858
:10815800043003B4904703BCF7E700208646EC469A
:1081680000200021234A9047FEE7884207D0521A90
:1081780005D0037801300B700131013AF9D170470D
:10818800884202D002700130FAE770471A487047F7
:10819800F01B0020F01B0020F01B002038CB010052
:1081A800C4030020E40300208482000084820000CD
:1081B80070B7010074C7010000000020C40300204C
:1081C80070B7010070B7010070B7010070B7010007
:1081D80070B7010070B7010070B7010070B70100F7
:1081E80074C70100E4030020E0130020F01300200E
:1081F800F013002065890000FFFFFFFFDFF86CD057
:108208001B4880471B481C490160FFF761BFFEE718
:10821800FEE7FEE7FEE7FEE7FEE7FEE7FEE7FEE72E
:10822800FEE7FEE7FEE7FEE7FEE7FEE7FEE7FEE71E
:10823800FEE7FEE7FEE7FEE7FEE7FEE7FEE7FEE70E
:10824800FEE7FEE7FEE7FEE7FEE7FEE7FEE7FEE7FE
:10825800FEE7FEE7FEE7FEE7FEE7FEE7FEE7FEE7EE
:10826800FEE7FEE7FEE7FEE7FEE7FEE70080002008
:0C8278007D35010008ED00E000800000F2
:1082840080B400AF72B641F29023C2F200031B68BF
:10829400B3F1FF3F0BD041F29023C2F200031B68FD
:1082A40003F1010241F29023C2F200031A6041F289
:1082B4009023C2F200031B681846BD4680BC704779
:1082C40080B483B000AF41F29023C2F200031B6874
:1082D400002B17D041F29023C2F200031B6803F174
:1082E400FF3241F29023C2F200031A6041F290235C
:1082F400C2F200031B687B607B68002B00D162B66E
:108304007B6801E04FF00003184607F10C07BD46F7
:1083140080BC704780B500AFFFF7B2FF80BD00BFDF
:1083240080B500AFFFF7CCFF80BD00BF80B582B041
:1083340002AF4FF45240C0F202004FF001010BF0C3
:10834400B9FD4FF000004FF000014FF000024FF074
:1083540000030CF035FC4FF000004FF005014FF026
:1083640000024FF000030CF02BFC4FF000004FF024
:1083740006014FF000024FF000030CF021FC4FF017
:1083840002004FF002014FF000024FF000030CF026
:1083940017FC4FF002004FF003014FF000024FF0C2
:1083A40000030CF00DFC4FF002004FF004014FF0FD
:1083B40000024FF000030CF003FC4FF002004FF0FA
:1083C40005014FF000024FF000030CF0F9FB4FF0F1
:1083D40004004FF008014FF000024FF000030CF0CE
:1083E400EFFB4FF004004FF00D014FF000024FF08F
:1083F40000030CF0E5FB4FF004004FF00E014FF0CA
:1084040000024FF000030CF0DBFB4FF004004FF0D0
:108414000F014FF000024FF000030CF0D1FB4FF0BE
:1084240005004FF00C014FF000024FF000030CF078
:10843400C7FB4FF005004FF002014FF004024FF06C
:1084440000030CF0BDFB4FF003004FF006014FF0AA
:1084540001024FF000030CF0B3FB4FF002004FF0A9
:1084640001014FF004024FF001030CF0A9FB4FF09F
:1084740002004FF000014FF004024FF001030CF032
:108484009FFB4FF004004FF009014FF004024FF03E
:1084940001030CF095FB4FF000004FF00F014FF07B
:1084A40004024FF001030CF08BFB4FF000004FF07F
:1084B40008014FF004024FF000030CF081FB4FF071
:1084C40002004FF006014FF004024FF000030CF0DD
:1084D40077FB4FF002004FF007014FF004024FF01A
:1084E40000030CF06DFB4FF002004FF008014FF059
:1084F40002024FF000030CF063FB4FF000004FF05A
:108504000A014FF002024FF000030CF059FB4FF048
:10851400010300934FF000004FF00A014FF00102F5
:108524004FF001030CF0D8FA4FF003004FF00801AC
:108534004FF004024FF001030CF042FB4FF0000037
:108544004FF004014FF001024FF000030CF038FB30
:108554004FF0010300934FF000004FF004014FF07F
:1085640001024FF001030CF0B7FA4FF000004FF096
:1085740002014FF004024FF000030CF021FB4FF016
:1085840000004FF003014FF004024FF000030CF021
:1085940017FB4FF004004FF00B014FF001024FF0B6
:1085A40000030CF00DFB4FF004004FF00A014FF0F4
:1085B40004024FF000030CF003FB4FF004004FF0F3
:1085C4000C014FF004024FF000030CF0F9FA4FF0E5
:1085D40005004FF000014FF000024FF000030CF0D3
:1085E400EFFA4FF005004FF001014FF000024FF099
:1085F40000030CF0E5FA4FF002004FF009014FF0D0
:1086040001024FF000030CF0DBFA4FF0010300937A
:108614004FF002004FF009014FF001024FF0010347
:108624000CF05AFA4FF003004FF007014FF000022C
:108634004FF000030CF0C4FA4FF002004FF00A01AF
:108644004FF004024FF000030CF0BAFA4FF00200AE
:108654004FF00B014FF004024FF000030CF0B0FA9E
:108664004FF005004FF005014FF004024FF00003F6
:108674000CF0A6FA4FF005004FF00A014FF001028A
:108684004FF000030CF09CFA4FF005004FF00B0183
:108694004FF001024FF000030CF092FA4FF0030088
:1086A4004FF001014FF002024FF001030CF088FA81
:1086B4004FF003004FF000014FF004024FF00103AC
:1086C4000CF07EFA4FF003004FF002014FF0040269
:1086D4004FF001030CF074FA4FF000004FF0010169
:1086E4004FF004024FF000030CF06AFA4FF003005D
:1086F4004FF005014FF004024FF000030CF060FA54
:108704004FF003004FF003014FF004024FF0010358
:108714000CF056FA4FF003004FF004014FF0020240
:108724004FF001030CF04CFA4FF0010300934FF0AB
:1087340003004FF004014FF001024FF001030CF06D
:10874400CBF94FF000004FF009014FF004024FF055
:1087540000030CF035FA4FF001004FF00B014FF01D
:1087640004024FF000030CF02BFA4FF001004FF01D
:108774000C014FF004024FF000030CF021FABD4647
:1087840080BD00BF01387FF4FDAF704780B582B073
:1087940000AF78607A684FF4D843C0F2DC2303FB5F
:1087A40002F249F68173C1F25E63A3FB02134FEA3E
:1087B40093431846FFF7E6FF07F10807BD4680BD5F
:1087C40080B582B000AF786003E04FF47A50FFF7D1
:1087D400D9FF7B68002B0CBF00230123DBB27A682E
:1087E40002F1FF327A60002BEFD107F10807BD4692
:1087F40080BD00BF80B483B000AF03463960FB7115
:108804004FF4C042C4F20002F9793B684FF0010012
:1088140000FA03F318460B464FEAC3035B184FEA0A
:108824008303D31803F11003586007F10C07BD4606
:1088340080BC704780B500AF06F03EF907F096FFA4
:1088440001F076FB00F04AFB01F00AFA00F0E4FEC6
:1088540006F05AFC01F0B0F80AF0C0FC4FF0010039
:1088640006F0DCFE00F024FD00F080FD4FF48043B0
:10887400C4F20C034FF003021A6180BD80B500AF4F
:1088840000F04AFD00F02EFD4FF0010006F0E0FE7E
:1088940001F044FB00F028FB01F0ECF900F0CCFE01
:1088A40006F0F4FB01F0BEF80AF00EFC07F066FED9
:1088B40006F0B0F880BD00BF80B500AF40F2E433ED
:1088C400C2F200034FF001021A7040F2E533C2F223
:1088D40000034FF001021A7003F0F2FC80BD00BFE8
:1088E40080B500AF40F2E433C2F200034FF000025F
:1088F4001A7040F2E533C2F200034FF000021A701E
:10890400FFF7BCFF03F0FAFC80BD00BF80B582B066
:1089140000AF0346FB7140F2E433C2F200031B785C
:10892400FA799A420BD0FB79012B02D1FFF7C4FFED
:1089340006E0FB79002B03D1FFF7D2FF00E000BF74
:1089440007F10807BD4680BD80B400AF40F2E433B0
:10895400C2F200031B781846BD4680BC704700BFB6
:1089640080B500AF0AF0FAFCFFF7E0FC40F2E43314
:10897400C2F200034FF000021A7040F2E533C2F273
:1089840000034FF000021A7004F078FA05F038FD85
:108994000AF042F804F088FD4FF002004FF00101A4
:1089A400FFF728FF4FF002004FF00001FFF722FF0E
:1089B4004FF004004FF00901FFF71CFF4FF00000D7
:1089C4004FF00F01FFF716FF01F0CEF800F008FAA0
:1089D40001F05AFA00F038FC00F09EFC06F050FB5F
:1089E40006F054FB00F0ACFF06F084FC4FF00100ED
:1089F40006F0B2FD4FF0010006F02AFE00F0ACFDD7
:108A040000F01AFE00F028FE02F00EFF02F05AFEFB
:108A14000AF080FB03F088FC06F0F2F807F046FB4E
:108A240007F09EFD07F0AAFD4FF0FF004FF0000194
:108A340007F0AEFC4FF0000007F0D8FC4FF0000048
:108A44004FF000014FF0000207F0E8FC4FF0000087
:108A54004FF000014FF0000207F000FD4FF000005E
:108A64004FF000014FF0000207F018FD4FF0000036
:108A740007F034FD4FF0FA00FFF7A2FE4FF0FF00BD
:108A84004FF0000107F084FC4FF0FA00FFF798FE66
:108A94004FF000004FF0FF0107F07AFC4FF0FA00AE
:108AA400FFF78EFE4FF000004FF0000107F070FC5E
:108AB4004FF0FF0007F09AFC4FF0FA00FFF780FE3A
:108AC4004FF0000007F092FC4FF0FF004FF0000160
:108AD4004FF0000207F0A2FC4FF0FA00FFF770FE1F
:108AE4004FF000004FF0FF014FF0000207F096FC3A
:108AF4004FF0FA00FFF764FE4FF000004FF0000162
:108B04004FF0FF0207F08AFC4FF0FA00FFF758FE1F
:108B14004FF000004FF000014FF0000207F07EFC20
:108B24004FF0FF004FF000014FF0000207F096FCF9
:108B34004FF0FA00FFF744FE4FF000004FF0FF0142
:108B44004FF0000207F08AFC4FF0FA00FFF738FEFE
:108B54004FF000004FF000014FF0FF0207F07EFCE1
:108B64004FF0FA00FFF72CFE4FF000004FF0000129
:108B74004FF0000207F072FC4FF0FF004FF00001CD
:108B84004FF0000207F08AFC4FF0FA00FFF718FEDE
:108B94004FF000004FF0FF014FF0000207F07EFCA1
:108BA4004FF0FA00FFF70CFE4FF000004FF0000109
:108BB4004FF0FF0207F072FC4FF0FA00FFF700FEDF
:108BC4004FF000004FF000014FF0000207F066FC88
:108BD4004FF0FF0007F082FC4FF0FA00FFF7F0FDC2
:108BE4004FF0000007F07AFC4FF0FA00FFF7E8FDC1
:108BF40005F0E6FF05F086FA05F08EFD05F0E0FECF
:108C040005F008FF01F08AF900E000BF05F016FD49
:108C140040F2E533C2F200031B78002B0DD003F0C1
:108C240043FB0346002B08D040F2E533C2F20003B5
:108C34004FF000021A70FFF7FDFD40F2E433C2F278
:108C440000031B78012BE0D14FF48043C4F20C03E2
:108C54009B6803F00303002BD7D04FF00000FFF70D
:108C640055FED2E780B483B000AF0346FB714FF4E6
:108C74006143CEF2000397F907204FEA5212F979C3
:108C840001F01F014FF0010000FA01F143F8221036
:108C940007F10C07BD4680BC704700BF80B483B0A9
:108CA40000AF0346FB714FF46143CEF2000397F922
:108CB40007204FEA5212F97901F01F014FF0010029
:108CC40000FA01F102F1600243F8221007F10C07E7
:108CD400BD4680BC704700BF80B483B000AF7860ED
:108CE4007B685B6A184607F10C07BD4680BC704779
:108CF40080B483B000AF786039607B683A681A62E8
:108D040007F10C07BD4680BC704700BF80B483B038
:108D140000AF786039607B685A693B681A437B68A6
:108D24005A6107F10C07BD4680BC704780B483B01C
:108D340000AF78607B689B69184607F10C07BD4655
:108D440080BC704780B483B000AF78600B46FB7082
:108D5400FA787B685A6007F10C07BD4680BC7047FF
:108D640080B483B000AF03463960FB714FF4C04256
:108D7400C4F20002F9793B684FF0010000FA03F3F2
:108D840018460B464FEAC3035B184FEA8303D31814
:108D940003F11003586007F10C07BD4680BC70470F
:108DA40080B483B000AF03463960FB714FF4C04216
:108DB400C4F20002F9793B684FF0010000FA03F3B2
:108DC40018460B464FEAC3035B184FEA8303D318D4
:108DD40003F11003186007F10C07BD4680BC70470F
:108DE40080B500AF4FF000004FF0000100F0E0F854
:108DF4004FF001004FF0000100F0DAF84FF00200EC
:108E04004FF0000100F0D4F880BD00BF90B583B0EE
:108E140000AF48F2B213C0F6E0731B78FB7148F25E
:108E2400BE13C0F6E0731B884FEA13139BB23B607A
:108E3400FB79184611F01AFC044640F2E833C2F2FA
:108E440000031B683A68D31A184611F00FFC034656
:108E5400184648F62821C3F6226111F01FFD034687
:108E64002046194611F080FC0346184607F10C070A
:108E7400BD4690BD80B500AF40F2EC33C2F20003B2
:108E84001B68184611F00AFC034618464DF29A5125
:108E9400C3F68C2111F002FD0346184680BD00BFC5
:108EA40080B500AF40F2F033C2F200031B681846ED
:108EB40011F0F4FB034618464DF29A51C3F60C2107
:108EC40011F0ECFC0346184642F2C551C4F283216A
:108ED40011F0E4FC0346184680BD00BF80B400AF27
:108EE400BD4680BC704700BF80B400AFBD4680BCA7
:108EF400704700BF80B582B000AF4FF40050C4F299
:108F04000000FFF7E9FE786040F2F533C2F2000397
:108F14001B78DBB2012B0AD0022B15D0002B1AD1FF
:108F240040F2E833C2F200037A681A6013E04FF0AB
:108F340005004FF00201FFF713FF40F2EC33C2F2D9
:108F440000037A681A6006E040F2F033C2F20003CC
:108F54007A681A6000BF40F2F433C2F200034FF0A3
:108F640001021A704FF40050C4F200004FF00101E6
:108F7400FFF7BEFE4FF00700FFF790FE4FF40070BE
:108F8400C0F203004FF000010AF094FF07F1080754
:108F9400BD4680BD80B500AFFFF7ACFF40F2F833AB
:108FA400C2F200031B68184605F0B6FA80BD00BF84
:108FB40080B588B000AF02460B46FA71BB714FF41E
:108FC4000070C0F203004FF001010AF073FF4FF08C
:108FD40000033B764FF000037B764FF00003BB7633
:108FE4004FF01F03FB764FF000033B774FF0000375
:108FF4007B774FF000000AF05FFC0346FB764CF6EB
:10900400C070C0F26A004FF000010AF019FC034678
:109014003B774FF000033B734FF000037B734FF03B
:109024000003BB734FF00003FB734FF000033B746A
:109034004FF000037B744FF00003BB744FF0000348
:10904400FB744FF000033B754FF00203BB734FF00A
:1090540008037B73FB79012B11D0022B20D0002B4A
:1090640029D14FF00003BB734FF008033B7440F267
:10907400F833C2F200034FF020021A601BE04FF0F5
:1090840005004FF00201FFF78BFE4FF006033B741F
:1090940040F2F833C2F200034FF040021A600AE0D3
:1090A4004FF007033B7440F2F833C2F200034FF071
:1090B40080021A6000BF07F118034FF40050C4F295
:1090C400000019460AF038FB07F10C034FF4005076
:1090D400C4F2000019460AF063FB4FF40050C4F2D6
:1090E40000004FF00101FFF711FEBB79002B03D004
:1090F4004FF00700FFF7B6FD40F2F533C2F200036C
:10910400FA791A7040F2F433C2F200034FF000020D
:109114001A704FF40050C4F200004FF00101FFF741
:1091240011FEBB7983F00103DBB2002B0DD000BF2D
:109134004FF40050C4F20000FFF7F8FD034603F0BB
:109144000103002BF4D0FFF7D5FE07F12007BD463D
:1091540080BD00BF80B483B000AF0346FB714FF401
:109164006143CEF2000397F907204FEA5212F979CE
:1091740001F01F014FF0010000FA01F143F8221041
:1091840007F10C07BD4680BC704700BF80B483B0B4
:1091940000AF0346FB714FF46143CEF2000397F92D
:1091A40007204FEA5212F97901F01F014FF0010034
:1091B40000FA01F102F1600243F8221007F10C07F2
:1091C400BD4680BC704700BF80B483B000AF034687
:1091D4003960FB714FF4C042C4F20002F9793B6874
:1091E4004FF0010000FA03F318460B464FEAC3039D
:1091F4005B184FEA8303D31803F11003586007F197
:109204000C07BD4680BC704780B483B000AF0346F2
:109214003960FB714FF4C042C4F20002F9793B6833
:109224004FF0010000FA03F318460B464FEAC3035C
:109234005B184FEA8303D31803F11003186007F196
:109244000C07BD4680BC704790B585B000AF4FF4A5
:109254004240C0F202004FF001010AF02BFE4BF233
:109264007073C0F201033C460FCB84E80F004FF645
:109274003453C0F20503BB603B464FF42440C4F2B0
:10928400000019460BF0EEFD4FF42443C4F2000332
:1092940040F203129A634FF42440C4F200004FF0EA
:1092A40001010BF0CDFD07F11407BD4690BD00BFD1
:1092B40080B500AF4FF42443C4F200034FF0000222
:1092C4009A634FF42440C4F200004FF000010BF005
:1092D400B7FD4FF44240C0F202004FF000010AF023
:1092E400E9FD80BD80B500AF4FF44240C0F20200FA
:1092F4004FF001010AF0DEFD4FF42443C4F20003F1
:1093040040F203129A634FF42440C4F200004FF079
:1093140001010BF095FD80BD80B500AF4FF0010059
:109324004FF00B014FF008024FF001030BF048FC23
:109334004FF001004FF00C014FF008024FF0010311
:109344000BF03EFC4FF000004FF00901FFF75CFF0B
:109354004FF06400FFF734FA4FF00A00FFF716FFEE
:109364004FF00A00FFF7F6FE80BD00BF80B500AFE6
:109374004FF001004FF00B014FF004024FF00003D7
:109384000BF01EFC4FF001004FF00C014FF00402F3
:109394004FF000030BF014FC4FF44240C0F2020003
:1093A4004FF000010AF086FD4FF000004FF0090174
:1093B400FFF70AFF80BD00BF80B500AF4FF4244023
:1093C400C4F200000BF07EFD03461A4640F2FC3363
:1093D400C2F200031A7080BD80B582B000AF78601D
:1093E4004FF42440C4F2000079680BF0B9FF03463F
:1093F4001A4640F2FC33C2F200031A7000BF40F276
:10940400FC33C2F200031B785BB2012BF7D040F2AD
:10941400FC33C2F200031B78002B08D04BF280709F
:10942400C0F2010003F04EFD4FF0000301E04FF0E5
:109434000103184607F10807BD4680BD80B588B012
:1094440000AF0B463A600246FA71BB71FB799BB2DE
:10945400BB814FF00403FB8107F106033B614FF02E
:109464000103BB823B68BB614FF00103BB8307F17F
:109474000C031846FFF7B0FF0346184607F1200710
:10948400BD4680BD80B588B000AF13460246FA7170
:109494000A46BA717B71FB799BB2BB814FF008031A
:1094A400FB8107F106033B614FF00103BB8207F127
:1094B4000503BB614FF00103BB8307F10C0318469E
:1094C400FFF78AFF0346184607F12007BD4680BD13
:1094D40080B586B002AF4FF480304FF0AF0106F094
:1094E40091FB0346BB73BB7B03F01F03FB7323E0B9
:1094F4004FF0E8033B7307F10C0207F104034FF04C
:10950400060100914FF4803011464FF0010206F03D
:109514002FFB40F20043C2F200031B68002B0BD068
:1095240040F20043C2F200031B68B888F9883A8904
:1095340000B209B212B29847FB7B002B0CBF002388
:109544000123DBB2FA7B02F1FF32FA73002BCFD195
:1095540007F11007BD4680BD80B582B000AF40F270
:109564000043C2F200034FF000021A604FF480304F
:109574004FF08F0106F046FB0346FB71FB79332B5A
:1095840006D04BF2C870C0F2010003F09BFC2FE040
:109594004FF480304FF023014FF0880206F09AFA1E
:1095A4004FF480304FF02E014FF0000206F092FA93
:1095B4004FF480304FF02E014FF0900206F08AFAFB
:1095C4004FF480304FF022014FF0060206F082FA89
:1095D4004FF480304FF024014FF0400206F07AFA45
:1095E4004FF0040049F2D541C0F2000104F062FFDB
:1095F40007F10807BD4680BD80B483B000AF786032
:1096040040F20043C2F200037A681A6007F10C07C3
:10961400BD4680BC704700BF80B500AF4FF004006A
:1096240004F090FF4FF480304FF020014FF000021F
:1096340006F050FA80BD00BF80B500AF4FF00400C3
:1096440004F096FF4FF480304FF020014FF03F02BA
:1096540006F040FA80BD00BF80B483B000AF40F292
:109664000443C2F200034FF000021A6040F20843C0
:10967400C2F200034FF000021A6040F22C43C2F21F
:1096840000034FF000021A604FF000037B600CE00F
:1096940040F20C43C2F200037A689B184FF00002B8
:1096A4001A707B6803F101037B607B681F2BEFDD7D
:1096B40007F10C07BD4680BC704700BF80B400AF03
:1096C40040F20443C2F200031B68002B0CBF0023CA
:1096D4000123DBB21846BD4680BC704780B582B01A
:1096E40000AF786040F20443C2F200037A681A6063
:1096F40002F08AF807F10807BD4680BD80B582B044
:1097040000AF786040F20443C2F200031A687B6839
:10971400D21840F20443C2F200031A6040F2044338
:10972400C2F200031B68012B08D902F063F840F26F
:109734000443C2F200034FF001021A6002F064F81D
:1097440007F10807BD4680BD80B582B000AF7860E0
:1097540040F20443C2F200031B687A689A4209D9B2
:1097640002F048F840F20443C2F200034FF0000252
:109774001A600DE040F20443C2F200031A687B68E9
:10978400D21A40F20443C2F200031A6002F03CF819
:1097940007F10807BD4680BD80B400AF40F208431E
:1097A400C2F200031B68002B0CBF00230123DBB2B1
:1097B4001846BD4680BC704780B582B000AF786063
:1097C40040F20843C2F200037A681A6002F024F8F7
:1097D40007F10807BD4680BD80B582B000AF786050
:1097E40040F20843C2F200031A687B68D21840F2C0
:1097F4000843C2F200031A6040F20843C2F20003B5
:109804001B68022B08D901F0F5FF40F20843C2F2AD
:1098140000034FF002021A6001F0FEFF07F108078F
:10982400BD4680BD80B582B000AF786040F2084389
:10983400C2F200031B687A689A4209D901F0DAFF80
:1098440040F20843C2F200034FF000021A600DE038
:1098540040F20843C2F200031A687B68D21A40F24D
:109864000843C2F200031A6001F0D6FF07F10807AB
:10987400BD4680BD80B400AF40F22C43C2F2000369
:109884004FF000021A60BD4680BC704780B582B0BC
:1098940000AF7860396040F22C43C2F200031A68CA
:1098A4003B68D318202B02D901F0A4FF1AE040F240
:1098B4002C43C2F200031A6840F20C43C2F20003C4
:1098C400D318184679683A6811F084FE40F22C43A4
:1098D400C2F200031A683B68D21840F22C43C2F269
:1098E40000031A6007F10807BD4680BD80B582B049
:1098F40000AF78603960FFF7BDFF78683968FFF71B
:10990400C5FF02F003F807F10807BD4680BD00BF9C
:1099140080B584B000AFF860B9607A603B60FFF74F
:10992400A9FFF868B968FFF7B1FF78683968FFF7ED
:10993400ADFF01F0EBFF07F11007BD4680BD00BF8E
:1099440080B582B000AF07F106034FF01C004FF062
:1099540007011A46FFF772FD0346FB71FB7983F09A
:109964000103DBB2002B22D1BB79C42B06D04BF60A
:109974001400C0F2010003F0A5FA18E04FF01C0037
:109984004FF011014FF08002FFF77CFD0346FB719D
:10999400FB7983F00103DBB2002B06D04BF66000A9
:1099A400C0F2010003F08EFA01E000F03BF807F189
:1099B4000807BD4680BD00BF80B582B000AF4FF040
:1099C4001C004FF011014FF00002FFF75BFD03464E
:1099D400FB71FB7983F00103DBB2002B06D04BF65D
:1099E400AC00C0F2010003F06DFA16E04FF01C0069
:1099F4004FF010014FF00002FFF744FD0346FB71E6
:109A0400FB7983F00103DBB2002B06D04BF6F800A0
:109A1400C0F2010003F056FA00BF07F10807BD4683
:109A240080BD00BF80B582B000AF4FF01C004FF086
:109A340011014FF08002FFF725FD0346FB71FB790E
:109A440083F00103DBB2002B06D04BF64410C0F2C6
:109A5400010003F037FA16E04FF01C004FF010013C
:109A64004FF00102FFF70EFD0346FB71FB7983F013
:109A74000103DBB2002B06D04BF69010C0F20100BC
:109A840003F020FA00BF07F10807BD4680BD00BF00
:109A940080B483B000AF0346FB714FF46143CEF250
:109AA400000397F907204FEA5212F97901F01F01D8
:109AB4004FF0010000FA01F143F8221007F10C07FE
:109AC400BD4680BC704700BF80B400AF4FF00003B8
:109AD400C4F208035B681846BD4680BC704700BFEB
:109AE40080B483B000AF78604FF00003C4F2080381
:109AF4007A689A6107F10C07BD4680BC704700BFC5
:109B040080B483B000AF78604FF00003C4F2080360
:109B14004FF00002C4F20802D1697A680A43DA619C
:109B240007F10C07BD4680BC704700BF80B485B008
:109B340000AF786040F23443C2F200031B68FB605C
:109B440040F23043C2F200031B68BB607B6807F13C
:109B5400080292E8030083E80300786807F1140719
:109B6400BD4680BC704700BF80B582B000AF40F2F4
:109B74003043C2F200034FF000021A6040F2344353
:109B8400C2F200034FF000021A6040F23843C2F2FE
:109B940000034FF000021A604FF48640C0F2040044
:109BA4004FF001010AF086F94FF000004FF0010177
:109BB4004FF001020AF09CFD4FF00200C0F20600D3
:109BC4004FF002010AF0CEFB4FF00300C0F2120086
:109BD4004FF002010AF0C6FB41F23040C0F2080027
:109BE4004FF001010AF066F94FF48640C0F2040018
:109BF4004FF001010AF05EF94FF40043C4F20C0384
:109C04004FF40042C4F20C02126822F0607242F473
:109C140000021A604FF40043C4F20C034FF0020236
:109C2400C3F8802000F026F84FF00200FFF768FF29
:109C34004FF01E00FFF72CFF4BF6DC13C0F20103BC
:109C440007F1040219889B781180937007F10403CB
:109C540018460BF0E1FD07F10807BD4680BD00BFC3
:109C640080B500AF4FF000004FF480310BF0A0FD41
:109C740080BD00BF80B500AF4FF000004FF480619D
:109C84000BF096FD0BF0F2FD80BD00BF80B582B0F5
:109C940000AF3B4683E80300FEF73CFB3A6840F222
:109CA4003043C2F200031A607A684DF68363C4F24B
:109CB4001B33A3FB02134FEA533347F6122202FB72
:109CC40003F240F23443C2F200031A60FEF728FBA9
:109CD40007F10807BD4680BD80B584B000AF786049
:109CE400FEF718FB40F23443C2F200031B68FB602A
:109CF40040F23043C2F200031B68BB60FEF710FB66
:109D04007B6807F1080292E8030083E8030078689F
:109D140007F11007BD4680BD80B586B000AF7860FE
:109D240000E000BF40F23443C2F200031B68FB6052
:109D340040F23043C2F200031B68BB60FFF7C4FE6D
:109D4400786140F23443C2F200031B683B61FA6855
:109D54003B699A42E5D100BFFA687B6947F6122154
:109D640001FB03F34FEA9323D318FB607B6807F1ED
:109D7400080292E8030083E80300786807F11807F3
:109D8400BD4680BD80B582B000AF7860FEF7C2FAF0
:109D940040F23843C2F200037A681A60FEF7C0FA50
:109DA40007F10807BD4680BD80B400AF40F23843D8
:109DB400C2F200031B681846BD4680BC704700BF52
:109DC40080B582B000AF4FF00200FFF789FE4FF07C
:109DD4000003C4F208039B68B3F5806F43D140F2DB
:109DE4003443C2F200031B6803F5F44303F1120386
:109DF4007B607A6844F23F23C0F20F039A4211D980
:109E04007B68A3F57423A3F510737B6040F23043A1
:109E1400C2F200031B6803F1010240F23043C2F2B4
:109E240000031A6040F23443C2F200037A681A60F5
:109E340040F23843C2F200031B68002B1FD040F2EB
:109E44003843C2F200031B6803F1FF331A4640F2A1
:109E54003843C2F200031A60002A10D14FF4807014
:109E640004F05AFB0BE040F23043C2F200031B68DB
:109E740003F1020240F23043C2F200031A6007F118
:109E84000807BD4680BD00BF80B500AF40F23C531B
:109E9400C2F200034FF000021A7040F2B060C2F246
:109EA400000040F28451C2F200014FF4967203F0B4
:109EB4006FF840F20870C2F200004FF0400140F227
:109EC4001872C2F200024FF4967303F00BFA4AF2CE
:109ED4008100C0F2000004F0C3FA4FF400604AF2BB
:109EE400BD11C0F2000104F0E5FA80BD80B500AFF9
:109EF4000CF06AFA0346002B0CBF00230123DBB2EB
:109F0400184680BD80B500AF0CF05EFA0346052B01
:109F140014BF00230123DBB2184680BD80B500AF17
:109F24004BF6E020C0F201000CF05AFA80BD00BFED
:109F340080B500AF0CF0E0FD80BD00BF80B483B0FD
:109F440000AF0346FB7140F23C53C2F200031A789F
:109F5400114640F23C43C2F20003F879585402F12E
:109F64000103DAB240F23C53C2F200031A704FF01C
:109F74000003184607F10C07BD4680BC704700BFBC
:109F840080B588B000AF78606FF00203FB617B6836
:109F94001B7803F06003DBB2002B66D17B681B786F
:109FA40023F07F03DBB2002B5FD07B681B7803F0C8
:109FB4001F03DBB2012B58D17B685B78062B54D18D
:109FC4007B685B889BB24FEA13239BB2222B1DD183
:109FD4004FF02003BB617B689A79DB794FEA032356
:109FE4001343FB82FA8ABB699A4238BF13464FF087
:109FF40000004BF6F411C0F201011A464FF00003C1
:10A004000CF098FD4FF00003FB612DE07B685B884A
:10A014009BB24FEA13239BB2212B25D140F6440077
:10A02400C2F2000014494FF0090211F0D3FA4FF0C4
:10A0340009033B617B689A79DB794FEA0323134375
:10A04400FB81FA893B699A42B8BF13464FF000007E
:10A0540040F64401C2F200011A464FF000030CF02E
:10A0640069FD4FF00003FB6100BFFB69184607F16F
:10A074002007BD4680BD00BF26BA010080B500AFF1
:10A084000CF0E0FC0346184680BD00BF80B582B0EA
:10A0940000AF02460B46FA71BB71BB79052B05D1A3
:10A0A40040F2B060C2F2000002F094FF4FF440604E
:10A0B40004F032FA07F10807BD4680BD80B584B0CC
:10A0C40000AF0346B9607A60FB7397F90F30002B39
:10A0D4000ED04BF6FC20C0F2010002F0F3FE40F279
:10A0E400B060C2F2000002F075FF4FF000034BE0D5
:10A0F40040F2B060C2F2000040F24451C2F20001EA
:10A10400BA6803F011F840F2B060C2F2000002F045
:10A114007BFF0346032B31D801A252F823F000BF82
:10A1240081A1000081A1000035A1000067A1000009
:10A1340040F2B063C2F200031A6840F2B063C2F2A4
:10A144000003DB6840F20870C2F2000011461A46B0
:10A1540003F01AFF40F2B060C2F2000002F03AFFCE
:10A164000CE04BF6FC20C0F2010002F0ABFE40F222
:10A17400B060C2F2000002F02DFF00BF4FF4006097
:10A1840004F0CAF94FF00003184607F11007BD4662
:10A1940080BD00BF80B584B000AF0346B9607A606B
:10A1A400FB734FF4006004F0B7F94FF00003184656
:10A1B40007F11007BD4680BD80B582B000AF0CF03A
:10A1C40003F90346052B4DD14FF001000CF0D6F8EE
:10A1D400034683F00103DBB2002B1DD04FF00100D6
:10A1E40040F24451C2F200014FF040024AF2C1036E
:10A1F400C0F200030CF078FB78607B68002B0BD076
:10A2040040F24053C2F200031B6803F1010240F222
:10A214004053C2F200031A604FF081000CF0AEF814
:10A22400034683F00103DBB2002B1CD040F208701C
:10A23400C2F2000040F2C861C2F2000103F0A0F8CB
:10A244000346002B0FD04FF0810040F2C861C2F2E8
:10A2540000014FF040024AF29913C0F200030CF0DF
:10A2640069FC00E000BF07F10807BD4680BD00BFE0
:10A2740080B584B000AF0346B9607A60FB73FB7BA2
:10A28400184600F01DFE07F11007BD4680BD00BF53
:10A2940080B586B000AF0346B9607A60FB73FB7B80
:10A2A400002B04D0FB7B184600F016FE21E07B68EF
:10A2B400022B02D001F09EFA1BE0BB681B784FEA28
:10A2C40003239AB2BB6803F101031B7813439BB2C7
:10A2D400FB82FB8A1BB2002B07DBFB8A03F0010322
:10A2E400002B02D000F004FE03E0FB8A184601F0C4
:10A2F4008BFF07F11807BD4680BD00BF80B584B051
:10A3040000AF0346B9607A60FB73FB7B002B04D07B
:10A31400FB7B184600F0F2FD01E000F0FBFD07F1C5
:10A324001007BD4680BD00BF80B584B000AF0346B2
:10A33400B9607A60FB73FB7B012B02D0022B03D044
:10A3440005E001F0D9FD07E001F00EFE04E0FB7B1F
:10A35400184600F0E5FD00BF07F11007BD4680BDBB
:10A3640080B588B000AF0346B9607A60FB73FB7BAD
:10A37400012B02D0022B12D014E0BB681B78FB77B0
:10A38400BB6803F10103BB617B6803F1FF337B61AD
:10A39400FB7F1846B9697A6900F0DAFD07E000F03E
:10A3A400E3FD04E0FB7B184600F0C6FD00BF07F1A7
:10A3B4002007BD4680BD00BF80B584B000AF034612
:10A3C400B9607A60FB73FB7B012B02D0022B03D0B4
:10A3D40005E000F0DBFD07E000F0DEFD04E0FB7BC0
:10A3E400184600F0C7FD00BF07F11007BD4680BD49
:10A3F40080B58AB002AF0346B9607A60FB73FB7B19
:10A40400002B04D0FB7B184600F0CCFD1FE0B8689D
:10A4140002F032FA0346FB83BB689B787B77BB6808
:10A42400DB783B77BB6803F10403184602F03AFA81
:10A43400B861BB681B7AFB75F98B7A7F3B7FF87D2B
:10A444000090084611461A46BB6900F0B7FD07F1B3
:10A454002007BD4680BD00BF80B586B000AF03466F
:10A46400B9607A60FB73FB7B002B04D0FB7B18463E
:10A4740000F0B4FD09E0BB687B61BB689B79FB74A9
:10A48400FB7C7869194600F0B5FD07F11807BD4655
:10A4940080BD00BF80B586B000AF0346B9607A6066
:10A4A400FB73FB7B002B04D0FB7B184600F0AEFD56
:10A4B40015E0B86802F0E0F90346FB82FB8A18460F
:10A4C40010F0D4F80346184644F2AE71C4F26101A8
:10A4D40010F0E4F903463B61386900F0A3FD07F18D
:10A4E4001807BD4680BD00BF80B586B000AF0346E7
:10A4F400B9607A60FB73FB7B002B04D0FB7B1846AE
:10A5040000F09AFD14E0B86802F0B6F90346FB8245
:10A51400B7F91630184610F0A9F8034618464FF05C
:10A524007A5110F0BBF903463B61386900F090FDA5
:10A5340007F11807BD4680BD80B584B000AF03465F
:10A54400B9607A60FB73FB7B002B04D0FB7B18465D
:10A5540000F088FD01E000F091FD07F11007BD4611
:10A5640080BD00BF80B584B000AF0346B9607A6097
:10A57400FB73FB7B002B04D0FB7B184600F084FDAF
:10A5840001E000F08DFD07F11007BD4680BD00BF5E
:10A5940080B584B000AF0346B9607A60FB73FB7B7F
:10A5A400002B04D0FB7B184600F080FD01E000F096
:10A5B40089FD07F11007BD4680BD00BF80B584B09A
:10A5C40000AF0346B9607A60FB73FB7B002B04D0B9
:10A5D400FB7B184600F07CFD01E000F085FD07F1EF
:10A5E4001007BD4680BD00BF80B584B000AF0346F0
:10A5F400B9607A60FB73FB7B002B04D0FB7B1846AD
:10A6040000F078FD01E000F081FD07F11007BD4680
:10A6140080BD00BF80B584B000AF0346B9607A60E6
:10A62400FB73FB7B002B04D0FB7B184600F074FD0E
:10A6340001E000F07DFD07F11007BD4680BD00BFBD
:10A6440080B584B000AF0346B9607A60FB73FB7BCE
:10A65400002B04D0FB7B184600F070FD01E000F0F5
:10A6640079FD07F11007BD4680BD00BF80B584B0F9
:10A6740000AF0346B9607A60FB73FB7B002B04D008
:10A68400FB7B184600F06CFD01E000F075FD07F15E
:10A694001007BD4680BD00BF80B584B000AF03463F
:10A6A400B9607A60FB73FB7B002B04D0FB7B1846FC
:10A6B40000F068FD01E000F071FD07F11007BD46F0
:10A6C40080BD00BF80B584B000AF0346B9607A6036
:10A6D400FB73FB7B002B04D0FB7B184600F064FD6E
:10A6E40001E000F06DFD07F11007BD4680BD00BF1D
:10A6F40080B584B000AF0346B9607A60FB73FB7B1E
:10A70400002B04D0FB7B184600F060FD01E000F054
:10A7140069FD07F11007BD4680BD00BF80B584B058
:10A7240000AF0346B9607A60FB73FB7B002B04D057
:10A73400FB7B184600F05CFD01E000F065FD07F1CD
:10A744001007BD4680BD00BF80B584B000AF03468E
:10A75400B9607A60FB73FB7B002B04D0FB7B18464B
:10A7640000F058FD01E000F061FD07F11007BD465F
:10A7740080BD00BF80B584B000AF0346B9607A6085
:10A78400FB73FB7B002B04D0FB7B184600F054FDCD
:10A7940001E000F05DFD07F11007BD4680BD00BF7C
:10A7A40080B584B000AF0346B9607A60FB73FB7B6D
:10A7B400002B04D0FB7B184600F050FD01E000F0B4
:10A7C40059FD07F11007BD4680BD00BF80B584B0B8
:10A7D40000AFBA607B600346FB730B46BB73FB7B25
:10A7E400052B03D04FF00100FEF788FFFB7B03F13C
:10A7F400FF331E2B00F2F18001A252F823F000BFB8
:10A8040081A80000DFA900008FA80000DFA90000D4
:10A814009DA80000ABA80000B9A80000C7A80000CC
:10A82400D5A80000E3A80000F1A80000FFA80000DC
:10A83400D1A900000DA900001BA9000029A900004E
:10A8440037A9000045A9000053A9000061A9000030
:10A85400DFA90000DFA90000DFA90000DFA90000D4
:10A864006FA900007DA900008BA9000099A9000030
:10A87400A7A90000B5A90000C3A90000BB7B184626
:10A88400B9687A68FFF7F4FCAAE0BB7B1846B9689C
:10A894007A68FFF7FDFCA3E0BB7B1846B9687A68C9
:10A8A400FFF72CFD9CE0BB7B1846B9687A68FFF77C
:10A8B4003BFD95E0BB7B1846B9687A68FFF750FD0D
:10A8C4008EE0BB7B1846B9687A68FFF775FD87E0B0
:10A8D400BB7B1846B9687A68FFF78AFD80E0BB7BCA
:10A8E4001846B9687A68FFF7B7FD79E0BB7B18466C
:10A8F400B9687A68FFF7CEFD72E0BB7B1846B96889
:10A904007A68FFF7F1FD6BE0BB7B1846B9687A689B
:10A91400FFF712FE64E0BB7B1846B9687A68FFF75C
:10A9240021FE5DE0BB7B1846B9687A68FFF730FE0C
:10A9340056E0BB7B1846B9687A68FFF73FFE4FE0E4
:10A94400BB7B1846B9687A68FFF74EFE48E0BB7BCC
:10A954001846B9687A68FFF75DFE41E0BB7B18468C
:10A96400B9687A68FFF76CFE3AE0BB7B1846B968B1
:10A974007A68FFF77BFE33E0BB7B1846B9687A68D8
:10A98400FFF78AFE2CE0BB7B1846B9687A68FFF7AC
:10A9940099FE25E0BB7B1846B9687A68FFF7A8FEE4
:10A9A4001EE0BB7B1846B9687A68FFF7B7FE17E06C
:10A9B400BB7B1846B9687A68FFF7C6FE10E0BB7B1C
:10A9C4001846B9687A68FFF7D5FE09E0BB7B1846DC
:10A9D400B9687A68FFF7E4FE02E000F00BFF00BFFD
:10A9E40007F11007BD4680BD80B584B000AF786024
:10A9F40039603B68042B02D000F0FCFE10E07B6859
:10AA04005B78FB737B689B78BB737B68DB787B73B9
:10AA1400F97BBA7B7B7B084611461A4601F01AFA89
:10AA240007F11007BD4680BD80B582B000AF7860E5
:10AA340039607B6803F101023B6803F1FF33104680
:10AA4400194600F01DFC07F10807BD4680BD00BF94
:10AA540080B584B000AF786039607B6803F101038E
:10AA6400184601F009FF0346FB817B6803F10303E9
:10AA7400BB60FB891846B96800F00CFC07F11007AD
:10AA8400BD4680BD80B586B000AF786039603B6854
:10AA9400022B02D800F0AEFE15E07B685B78FB75F4
:10AAA4007B689B78BB757B6803F103033B613B6860
:10AAB400A3F10303FB60FA7DBB7D104619463A6996
:10AAC400FB68FFF783FE07F11807BD4680BD00BF92
:10AAD40080B588B002AF786039603B680F2B02D034
:10AAE40000F088FE2CE07B685B78FB757B6803F1E3
:10AAF40002033B617B6803F10803184601F0BCFEC6
:10AB04000346FB817B6803F10A03184601F0B4FE97
:10AB14000346BB817B6803F10C03184601F0ACFECD
:10AB240003467B817B689B7B7B72F97DFA89BB89B9
:10AB340078890090787A01900846396901F022FA00
:10AB440007F11807BD4680BD80B584B000AF7860BA
:10AB540039603B68032B02D000F04CFE0BE07B68AD
:10AB64005B78FB737B689B78BB73FA7BBB7B10467B
:10AB7400194601F031FA07F11007BD4680BD00BF48
:10AB840090B587B002AF786039603B68072B02D07C
:10AB940000F030FE1BE07B685B78FB737B689B787E
:10ABA400BB737B68DB787B737B681B793B737B6847
:10ABB4005B79FB727B689B79BB72F87BB97B7A7B90
:10ABC4003B7BFC7A0094BC7A019400F06FFB07F1A4
:10ABD4001407BD4690BD00BF80B586B000AF786055
:10ABE40039603B68112B02D000F004FE15E07B684D
:10ABF40003F10103184601F077FEC7E904017B68FD
:10AC040003F10903184601F06FFEC7E90201D7E911
:10AC14000401D7E9022301F051FA07F11807BD46F0
:10AC240080BD00BF80B584B000AF786039603B68F8
:10AC3400072B02D000F0DEFD1FE07B6803F1010367
:10AC4400184601F019FE0346FB817B6803F10303F8
:10AC5400184601F011FE0346BB817B6803F105032E
:10AC6400184601F009FE03467B81F989BA897B897C
:10AC7400084611461A4600F025FB07F11007BD46A9
:10AC840080BD00BF80B584B000AF786039603B6898
:10AC9400072B02D000F0AEFD06E07B6803F1010350
:10ACA400FB60F86800F01CFB07F11007BD4680BD8F
:10ACB40080B584B000AF786039603B68022B02D065
:10ACC40000F098FD06E07B685B78FB73FB7B18461D
:10ACD40000F010FB07F11007BD4680BD80B584B0BD
:10ACE40000AF786039603B68022B02D000F082FD2F
:10ACF40006E07B685B78FB73FB7B184601F0D0F9B8
:10AD040007F11007BD4680BD80B586B000AF7860FE
:10AD140039603B68022B02D800F06CFD15E07B68BB
:10AD24005B78FB757B689B78BB757B6803F10303D9
:10AD34003B613B68A3F10303FB60FA7DBB7D1046D6
:10AD440019463A69FB6801F0C9F807F11807BD46CE
:10AD540080BD00BF80B586B000AF786039603B68C5
:10AD6400012B02D800F046FD10E07B685B78FB7590
:10AD74007B6803F102033B613B68A3F10203FB60C0
:10AD8400FB7D18463969FA6801F018FA07F11807CB
:10AD9400BD4680BD80B584B000AF786039603B6843
:10ADA400022B02D000F026FD06E07B685B78FB7383
:10ADB400FB7B184600F0A8FA07F11007BD4680BDDA
:10ADC40080B584B000AF786039607B681B78FB7312
:10ADD400FB7BA3F181030E2B6BD801A252F823F065
:10ADE40021AE00002BAE000035AE00003FAE0000E7
:10ADF40049AE000053AE00005DAE000067AE000037
:10AE040071AE00008FAE0000ADAE0000A3AE000036
:10AE140099AE00007BAE000085AE0000786839680A
:10AE2400FFF7E2FD48E078683968FFF7FDFD43E08D
:10AE340078683968FFF70CFE3EE078683968FFF7F8
:10AE440021FE39E078683968FFF742FE34E078681B
:10AE54003968FFF779FE2FE078683968FFF790FECC
:10AE64002AE078683968FFF7B7FE25E07868396822
:10AE7400FFF7D8FE20E078683968FFF703FF1BE08E
:10AE840078683968FFF714FF16E078683968FFF7C7
:10AE940025FF11E078683968FFF736FF0CE0786821
:10AEA4003968FFF757FF07E078683968FFF772FFE2
:10AEB40002E000F09FFC00BF07F11007BD4680BD13
:10AEC40080B582B000AF0346FB7100F093FC07F13C
:10AED4000807BD4680BD00BF80B582B000AF034601
:10AEE400FB7100F087FC07F10807BD4680BD00BF79
:10AEF40080B500AF00F07EFC80BD00BF80B582B09D
:10AF040000AF0346FB7100F075FC07F10807BD466E
:10AF140080BD00BF80B400AFBD4680BC704700BF99
:10AF240080B582B000AF0346FB7100F063FC07F10B
:10AF34000807BD4680BD00BF80B582B000AF0346A0
:10AF4400FB7100F057FC07F10807BD4680BD00BF48
:10AF540080B485B000AFF860B9607A6007F1140777
:10AF6400BD4680BC704700BF80B400AFBD4680BC06
:10AF7400704700BF80B582B000AF0346FB7100F09C
:10AF840039FC07F10807BD4680BD00BF80B400AF9F
:10AF9400BD4680BC704700BF80B400AFBD4680BCD6
:10AFA400704700BF80B582B000AF0346FB7100F06C
:10AFB40021FC07F10807BD4680BD00BF80B483B003
:10AFC40000AF3B600346FB800B467B7113463B712D
:10AFD40007F10C07BD4680BC704700BF80B582B046
:10AFE40000AF0346FB7100F005FC07F10807BD46FE
:10AFF40080BD00BF80B483B000AF78600B46FB70A7
:10B0040007F10C07BD4680BC704700BF80B582B015
:10B0140000AF0346FB7100F0EDFB07F10807BD46E6
:10B0240080BD00BF80B483B000AF786007F10C0727
:10B03400BD4680BC704700BF80B582B000AF0346F8
:10B04400FB7100F0D7FB07F10807BD4680BD00BFC8
:10B0540080B483B000AF786007F10C07BD4680BCB4
:10B06400704700BF80B582B000AF0346FB7100F0AB
:10B07400C1FB07F10807BD4680BD00BF80B400AF27
:10B08400BD4680BC704700BF80B582B000AF0346A8
:10B09400FB7100F0AFFB07F10807BD4680BD00BFA0
:10B0A40080B400AFBD4680BC704700BF80B582B09D
:10B0B40000AF0346FB7100F09DFB07F10807BD4696
:10B0C40080BD00BF80B400AFBD4680BC704700BFE8
:10B0D40080B582B000AF0346FB7100F08BFB07F133
:10B0E4000807BD4680BD00BF80B400AFBD4680BC2C
:10B0F400704700BF80B582B000AF0346FB7100F01B
:10B1040079FB07F10807BD4680BD00BF80B400AFDE
:10B11400BD4680BC704700BF80B582B000AF034617
:10B12400FB7100F067FB07F10807BD4680BD00BF57
:10B1340080B400AFBD4680BC704700BF80B582B00C
:10B1440000AF0346FB7100F055FB07F10807BD464D
:10B1540080BD00BF80B400AFBD4680BC704700BF57
:10B1640080B582B000AF0346FB7100F043FB07F1EA
:10B174000807BD4680BD00BF80B400AFBD4680BC9B
:10B18400704700BF80B582B000AF0346FB7100F08A
:10B1940031FB07F10807BD4680BD00BF80B400AF96
:10B1A400BD4680BC704700BF80B582B000AF034687
:10B1B400FB7100F01FFB07F10807BD4680BD00BF0F
:10B1C40080B400AFBD4680BC704700BF80B582B07C
:10B1D40000AF0346FB7100F00DFB07F10807BD4605
:10B1E40080BD00BF80B400AFBD4680BC704700BFC7
:10B1F40080B582B000AF0346FB7100F0FBFA07F1A3
:10B204000807BD4680BD00BF80B400AFBD4680BC0A
:10B21400704700BF80B582B000AF0346FB7100F0F9
:10B22400E9FA07F10807BD4680BD00BF80B400AF4E
:10B23400BD4680BC704700BF80B582B000AF0346F6
:10B24400FB7100F0D7FA07F10807BD4680BD00BFC7
:10B2540080B400AFBD4680BC704700BF80B582B0EB
:10B2640000AF0346FB7100F0C5FA07F10807BD46BD
:10B2740080BD00BF80B400AFBD4680BC704700BF36
:10B2840080B483B000AF7860396007F10C07BD4625
:10B2940080BC704780B582B000AF03463960FB8044
:10B2A40000F0A8FA07F10807BD4680BD80B483B05A
:10B2B40000AFF871B9717A713B7107F10C07BD46A3
:10B2C40080BC704780B483B000AF13460246FA8056
:10B2D4000A46BA807B8007F10C07BD4680BC7047E4
:10B2E40080B483B000AF786007F10C07BD4680BC22
:10B2F400704700BF80B483B000AF0346FB7107F111
:10B304000C07BD4680BC704780B483B000AF0346D1
:10B31400FB7107F10C07BD4680BC704780B582B055
:10B3240000AF786039604FF00100FEF70DFA7868DD
:10B334003968FEF7DBFA07F10807BD4680BD00BF98
:10B3440080B582B000AF786039604FF00100FEF73D
:10B3540069FA78683968FEF7C9FA07F10807BD4643
:10B3640080BD00BF80B584B000AFF860B9607A607A
:10B374003B604FF00100FEF755FAF868B9687A6847
:10B384003B68FEF7C5FA07F11007BD4680BD00BF54
:10B3940080B584B000AF0346FB714FF002033B73EA
:10B3A4004FF001037B73FB79BB7307F10C03184661
:10B3B4004FF00301FFF7B2FF07F11007BD4680BD50
:10B3C40080B584B000AF0346FB804FF003033B73AA
:10B3D4004FF003037B73FB884FEA13239BB2DBB26A
:10B3E400BB73FB88DBB2FB7307F10C0318464FF009
:10B3F4000401FFF793FF07F11007BD4680BD00BFAE
:10B4040080B582B000AF4BF60033C0F2010307F100
:10B4140004021B88138007F1040318464FF002014D
:10B42400FFF77CFF07F10807BD4680BD80B582B0F9
:10B4340000AF4BF60433C0F2010307F104021B888A
:10B44400138007F1040318464FF00201FFF766FF6B
:10B4540007F10807BD4680BD80B584B000AF024641
:10B464000B46FA80BB804FF005033B724FF00F038D
:10B474007B72FB88DBB2BB72FB884FEA13239BB25F
:10B48400DBB2FB72BB88DBB23B73BB884FEA13238E
:10B494009BB2DBB27B7307F1080318464FF0060139
:10B4A400FFF73CFF07F11007BD4680BD80B584B0AF
:10B4B40000AF0346FB714FF002033B734FF01103DF
:10B4C4007B73FB79BB7307F10C0318464FF0030140
:10B4D400FFF724FF07F11007BD4680BD80B586B095
:10B4E40000AFF880B9807A803B804FF009033B734A
:10B4F4004FF013037B73FB88DBB2BB73FB884FEA0B
:10B5040013239BB2DBB2FB73BB88DBB23B74BB88F7
:10B514004FEA13239BB2DBB27B747B88DBB2BB7430
:10B524007B884FEA13239BB2DBB2FB743B88DBB20C
:10B534003B753B884FEA13239BB2DBB27B7507F163
:10B544000C0318464FF00A01FFF7E8FE07F118074D
:10B55400BD4680BD80B584B000AF0346FB714FF09B
:10B5640002033B734FF01F037B73FB79BB7307F13B
:10B574000C0318464FF00301FFF7D0FE07F1100744
:10B58400BD4680BD80B586B000AF0346B9607A6021
:10B59400FB737B68DBB203F10203DBB23B754FF054
:10B5A40015037B75FB7BBB7507F1140318464FF03D
:10B5B4000301BA687B68FFF7D5FE07F11807BD469B
:10B5C40080BD00BF80B584B000AF0346FB714FF06F
:10B5D40002033B734FF016037B73FB79BB7307F1D4
:10B5E4000C0318464FF00301FFF7AAFE07F11007FA
:10B5F400BD4680BD80B483B000AF03463960FB71A3
:10B604004FF4C042C4F20002F9790B464FEAC30377
:10B614005B184FEA8303D31803F118035A683B6895
:10B6240022FA03F303F00103184607F10C07BD46A1
:10B6340080BC704780B483B000AF03463960FB71AF
:10B644004FF4C042C4F20002F9793B684FF00100A4
:10B6540000FA03F318460B464FEAC3035B184FEA9C
:10B664008303D31803F11003586007F10C07BD4698
:10B6740080BC704780B483B000AF03463960FB716F
:10B684004FF4C042C4F20002F9793B684FF0010064
:10B6940000FA03F318460B464FEAC3035B184FEA5C
:10B6A4008303D31803F11003186007F10C07BD4698
:10B6B40080BC704780B500AF00F0CEF800F0C0FB4E
:10B6C40080BD00BF80B500AF40F65003C2F2000356
:10B6D4004FF000021A6040F65403C2F200034FF028
:10B6E40000021A6040F65803C2F200034FF0000251
:10B6F4001A6040F65C03C2F200034FF000021A60C5
:10B7040040F66003C2F200034FF000004FF0000166
:10B71400C3E9000140F66803C2F200034FF00000E1
:10B724004FF00001C3E9000140F67003C2F20003C8
:10B734004FF000021A7040F67203C2F200034FF099
:10B7440000021A8040F67403C2F200034FF00002B4
:10B754001A8040F6A410C2F2000040F67801C2F24A
:10B7640000014FF4967201F013FC40F6D010C2F2BF
:10B7740000004FF0140140F6E012C2F200024FF450
:10B78400967301F0AFFD40F60C33C2F200034FF0A4
:10B7940000021A7040F61C33C2F200034FF000029C
:10B7A4001A7040F61D33C2F200034FF000021A7003
:10B7B40040F61E33C2F200034FF000021A7040F646
:10B7C4001F33C2F200034FF000021A704EF2010060
:10B7D4004BF2B961C0F2000102F06CFE40F6103089
:10B7E400C2F200004CF22D21C0F2000107F036F93C
:10B7F40080BD00BF80B500AF4BF66450C0F20100BD
:10B8040001F060FB80BD00BF80B500AF4FF4804005
:10B8140002F082FE80BD00BF80B500AF4FF400503F
:10B8240002F07AFE80BD00BF80B500AF4FF0030088
:10B834004FF00501FFF7FEFE4FF06400FCF7C0FF78
:10B844004FF003004FF00501FFF714FF4FF06400C1
:10B85400FCF7B6FF80BD00BF80B594B000AF4FF0D9
:10B8640003004FF00401FFF7C5FE0346002B49D146
:10B8740040F22C43C2F200031B68002B02D04FF0AD
:10B88400030301E04FF001033B7440F20C43C2F2A6
:10B8940000037B614FF02003BB6140F22C43C2F2F2
:10B8A40000031B68FB6107F12C033B624FF020038C
:10B8B4007B624FF00203BB624FF002033B6007F16F
:10B8C40010037B604FF00103BB604FF00003FB608B
:10B8D4003B464FF00110194604F09CF84FF001006C
:10B8E40004F0DEF8FDF7C6FF97F82D30FB64FB6C1F
:10B8F400002B07D007F12C0303F102031846F96C5F
:10B90400FFF75EFA07F15007BD4680BD80B500AF72
:10B914004FF0011004F046F84FF003004FF003011C
:10B92400FFF788FE00BF4FF003004FF00401FFF75C
:10B9340061FE0346002BF6D1FFF78EFF80BD00BFEA
:10B9440080B582B000AF786040F65003C2F20003C5
:10B954001A687B681A4340F65003C2F200031A6067
:10B964004FF4004002F0D8FD07F10807BD4680BD42
:10B9740080B483B000AF78607B686FEA030240F65E
:10B984005003C2F200031B681A4040F65003C2F28F
:10B9940000031A6007F10C07BD4680BC704700BF66
:10B9A40080B582B000AF786040F65403C2F2000361
:10B9B4001A687B681A4340F65403C2F200031A6003
:10B9C4004FF4004002F0A8FD07F10807BD4680BD12
:10B9D40080B483B000AF78607B686FEA030240F6FE
:10B9E4005403C2F200031B681A4040F65403C2F227
:10B9F40000031A6007F10C07BD4680BC704700BF06
:10BA040090B58BB000AF9FE140F65003C2F2000343
:10BA14001B6803F04003002B11D0FFF7F1FC4FF03B
:10BA24004000FFF7A5FF40F67003C2F200034FF099
:10BA340001021A704FF2010002F084FD84E140F625
:10BA44005003C2F200031B6803F08003002B06D0EE
:10BA5400FFF7ECFC4FF08000FFF78AFF74E140F63B
:10BA64005003C2F200031B6803F00103002B02D051
:10BA740000F042FA68E140F65003C2F200031B688A
:10BA840003F00203002B10D04FF00003FB834FF0B0
:10BA94002003BB83FA8BBB8B10461946FFF7DCFCF3
:10BAA4004FF00200FFF764FF4EE140F65003C2F28C
:10BAB40000031B6803F00403002B16D04FF010039F
:10BAC4007B834FF020033B834FF00003FB824FF452
:10BAD4001673BB82788B398BFA8ABB8AFFF7FEFC1C
:10BAE4004FF00400FFF744FF2EE140F65003C2F28A
:10BAF40000031B6803F00803002B60D04FF0010320
:10BB04007B624AE07B6AA3F120034FF0010202FA50
:10BB140003F2796AC1F120014FF0010020FA01F12A
:10BB24004FF00004786A04FA00F00143F960F96800
:10BB3400002BB4BF0B461346FB604FF001027B6A37
:10BB440002FA03F3BB6040F66803C2F20003D3E9D0
:10BB54000001D7E9022302EA000203EA010352EAE0
:10BB6400030116D0D7E902236FEA02006FEA03014A
:10BB740040F66803C2F20003D3E9002300EA02009E
:10BB840001EA030140F66803C2F20003C3E90001BD
:10BB940006E07B6A03F101037B627B6A3E2BB1DD25
:10BBA40040F66803C2F20003D3E9002352EA03011A
:10BBB40040F0CA804FF00800FFF7DAFEC4E040F618
:10BBC4005003C2F200031B6803F01003002B64D07F
:10BBD4004FF001033B624FE03B6AA3F120034FF0B7
:10BBE400010202FA03F2396AC1F120014FF00100A7
:10BBF40020FA01F14FF00004386A04FA00F001431E
:10BC040079607968002BB4BF0B4613467B604FF014
:10BC140001023B6A02FA03F33B6040F66003C2F29E
:10BC24000003D3E90001D7E9002302EA000203EA92
:10BC3400010352EA03011BD03B6ADBB21846FFF74B
:10BC440089FCD7E900236FEA02006FEA030140F69A
:10BC54006003C2F20003D3E9002300EA020001EA10
:10BC6400030140F66003C2F20003C3E9000106E0E9
:10BC74003B6A03F101033B623B6A3E2BACDD40F6B9
:10BC84006003C2F20003D3E9002352EA03015BD14B
:10BC94004FF01000FFF76CFE56E040F65003C2F27E
:10BCA40000031B6803F02003002B08D04FF00100B1
:10BCB400FFF7FCFB4FF02000FFF75AFE44E040F68C
:10BCC4005003C2F200031B6803F48073002B08D0F6
:10BCD4004FF00200FFF75CFB4FF48070FFF748FE63
:10BCE40032E040F65003C2F200031B6803F4007311
:10BCF400002B18D040F67203C2F200031B881846CA
:10BD0400FFF75EFB4FF40070FFF732FE40F672035C
:10BD1400C2F200031B88B3F5404F15D14FF4806085
:10BD2400FFF70EFE10E040F65003C2F200031B685A
:10BD340003F48063002B07D04FF0FF00FFF728FBCC
:10BD44004FF48060FFF714FE40F65003C2F2000384
:10BD54001B68002B05D0FDF7B1FC0346002B7FF4D4
:10BD640053AE07F12C07BD4690BD00BF80B500AFB0
:10BD740010E040F65403C2F200031B6803F0010311
:10BD8400002B07D04FF00200FFF71CFC4FF001001E
:10BD9400FFF71EFE40F65403C2F200031B68002B9B
:10BDA40004D0FDF7F9FC0346002BE2D180BD00BFAF
:10BDB40080B483B000AF78607B684FF0010202FA70
:10BDC40003F10A464FEAE27340F66001C2F2000151
:10BDD400D1E9000102EA000203EA01031343002B44
:10BDE4000CBF00230123DBB2184607F10C07BD4644
:10BDF40080BC704780B500AFFDF7CEFC0346002B36
:10BE04001DD04FF00100FFF7D3FF0346002B16D0DF
:10BE140040F6D010C2F2000040F6BC11C2F200019C
:10BE240001F0AEFA0346002B09D04FF0010040F6B2
:10BE3400BC11C2F200014FF01402FFF7A3FB80BD56
:10BE440080B500AFFFF7DCFDFFF790FFFFF7D2FFEF
:10BE540080BD00BF80B582B000AF13460246FA71C0
:10BE64000A46BA717B717A7940F65803C2F200032C
:10BE74001A60FB79022B1CD0032B0AD0012B28D18A
:10BE84004FF00100FDF72AFC4FF40070FFF758FD56
:10BE94001FE04FF00100FDF721FC40F60C33C2F225
:10BEA40000034FF000021A704FF00200FFF748FD44
:10BEB4000FE04FF00100FDF711FC40F65C03C2F205
:10BEC40000034FF000021A604FF00100FFF738FD45
:10BED40000BF07F10807BD4680BD00BF80B485B030
:10BEE40000AFBA607B600346FB730B46BB7307F17C
:10BEF4001407BD4680BC704780B584B000AF40F6DF
:10BF04005C03C2F200031B68102B27D84FF001001A
:10BF1400FDF71AFC40F65C03C2F200031A681346EC
:10BF24004FEA43139B184BF63031C0F201015B1802
:10BF3400FB6002F1010240F65C03C2F200031A60E6
:10BF4400FB6803F10103BB60BB681B7803F10103C9
:10BF54007B60B8687968FDF7C9FC00E000BF07F1B1
:10BF64001007BD4680BD00BF80B500AF40F61C334E
:10BF7400C2F200034FF001021A704FF00100FFF704
:10BF8400F7FC80BD80B584B000AFB9600146F97399
:10BF9400BA81FB8040F61D33C2F200034FF0010268
:10BFA4001A704FF4805002F0B7FA40F65803C2F208
:10BFB40000031B681846FDF7FFFB40F6A410C2F20D
:10BFC400000001F007F84FF00400FFF7B9FC07F197
:10BFD4001007BD4680BD00BF80B582B000AF0246E9
:10BFE4000B46FA71BB7140F65003C2F200034FF0E6
:10BFF40000021A6040F65403C2F200034FF000023C
:10C004001A6040F66003C2F200034FF000004FF0E4
:10C014000001C3E9000140F66803C2F200034FF0D7
:10C0240000004FF00001C3E9000140F61D33C2F2E5
:10C0340000034FF000021A7040F61E33C2F20003F0
:10C044004FF000021A7040F61F33C2F200034FF0A3
:10C0540000021A704FF4805002F05EFA4FF00000B4
:10C06400FDF7AAFB40F60C33C2F200031B78012B48
:10C0740008D0022B0BD0002B0ED14FF00200FFF79B
:10C084005FFC09E04FF04000FFF75AFC04E04FF476
:10C094008070FFF755FC00BF07F10807BD4680BD5F
:10C0A40080B582B000AF0346FB71FB791846FDF7FB
:10C0B40093FB07F10807BD4680BD00BF80B584B07F
:10C0C40000AFC7E90201C7E9002340F66003C2F2EA
:10C0D4000003D7E90201C3E9000140F66803C2F294
:10C0E4000003D7E90001C3E9000140F66803C2F286
:10C0F4000003D3E9002352EA030104D04FF00800FF
:10C10400FFF71EFC06E040F61E33C2F200034FF0B8
:10C1140001021A7007F11007BD4680BD80B582B0D8
:10C1240000AF7860396040F6A410C2F2000079686C
:10C134003A6800F0F9FF40F6A410C2F2000000F0E3
:10C1440063FF0346032B31D801A252F823F000BF4A
:10C15400B1C10000B1C1000065C1000097C1000079
:10C1640040F6A413C2F200031A6840F6A413C2F204
:10C174000003DB6840F6D010C2F2000011461A46F4
:10C1840001F002FF40F6A410C2F2000000F022FF0A
:10C194000CE04BF6B050C0F2010000F093FE40F604
:10C1A400A410C2F2000000F015FF00BF4FF0010020
:10C1B400FFF7F6FB07F10807BD4680BD80B584B0E4
:10C1C40000AF0346B9607A60FB7340F61F33C2F2D6
:10C1D40000034FF001021A70FB7B022B04D1B868F4
:10C1E4007968FFF79BFF00BF07F11007BD4680BDCC
:10C1F40080B400AF40F67403C2F200031B881846F3
:10C20400BD4680BC704700BF80B483B000AF034616
:10C21400FB8040F67403C2F20003FA881A8007F127
:10C224000C07BD4680BC704780B500AF40F61030A7
:10C23400C2F2000006F056FD40F67203C2F200039B
:10C244004FF440421A804FF40070FFF779FB80BD31
:10C2540080B584B000AF034607F1040080E806000F
:10C26400FB8140F67203C2F20003FA891A8040F699
:10C274000C33C2F200034FF002021A704FF0200098
:10C28400FFF75EFB7B68002B09D040F61030C2F24A
:10C29400000007F1040393E8060006F0C3FC07F16D
:10C2A4001007BD4680BD00BF80B400AF40F67003E8
:10C2B400C2F200031B781846BD4680BC704700BF1D
:10C2C40080B500AF40F61D33C2F200031B78002B8B
:10C2D4000BD040F60C33C2F200034FF001021A7087
:10C2E4004FF02000FFF72CFB06E040F65003C2F2AB
:10C2F40000034FF040021A6080BD00BF80B500AF5C
:10C304004FF2010002F034F94FF00100FDF7E6F9B5
:10C3140040F67003C2F200034FF000021A704FF0AF
:10C324008000FFF70DFB80BD80B400AF40F62033E2
:10C33400C2F200034FF480621A6040F62433C2F262
:10C3440000034FF400521A6040F62033C2F2000397
:10C354001A6840F62833C2F200031A6040F6283304
:10C36400C2F200031A6840F62C33C2F200031A60CA
:10C37400BD4680BC704700BF80B400AF40F6283390
:10C38400C2F200031A6840F62C33C2F200031B68A1
:10C394009A420BD840F62C33C2F200031A6840F6D6
:10C3A4002833C2F200031B68D31A0AE040F628338C
:10C3B400C2F200031A6840F62C33C2F200031B6871
:10C3C400D31A1846BD4680BC704700BF80B5C8B0BC
:10C3D40000AF07F10C03186007F10803196007F1B7
:10C3E40004031A6040F62C33C2F200031B684FEAC0
:10C3F4000323C7F81C3140F62C33C2F200031B6838
:10C4040003F00F03002B53D107F11703D7F81C01D6
:10C4140019464FF0010206F061FF07F117031B787C
:10C42400FF2B05D006F0E6FED7F81C0106F0ECFE63
:10C4340040F62C33C2F200031A6840F62833C2F2E5
:10C4440000031B689A4233D240F62C33C2F2000335
:10C454001B6803F1100240F62833C2F200031B6884
:10C464009A4225D940F62833C2F200031B6803F12F
:10C4740010034FEA13134FEA031240F62833C2F2B3
:10C4840000031A6040F62833C2F200031A6840F62B
:10C494002433C2F200031B689A4209D340F62033C6
:10C4A400C2F200031A6840F62833C2F200031A608D
:10C4B40007F118031A464FF4807310464FF0000139
:10C4C4001A460FF0ABF807F118034FF001021A7087
:10C4D40007F104031B68DAB207F118035A7007F175
:10C4E4000C031B68DAB207F118031A7107F10C0385
:10C4F4001B684FEA1323DAB207F118035A7107F1E4
:10C504000C031B684FEA1343DAB207F118039A715C
:10C5140007F10C031B684FEA1363DAB207F118033F
:10C52400DA7107F1180303F1080107F1080207F1B2
:10C534000403084611681A680FF04CF807F1040365
:10C544001B6803F1040307F1180202F104024FF619
:10C55400FF7011461A4600F039F90346A7F81A315C
:10C56400B7F81A31DAB207F118039A70B7F81A312A
:10C574004FEA13239BB2DAB207F11803DA7006F01C
:10C5840039FE07F104031B6803F1080307F11802DD
:10C59400D7F81C0111461A4606F05AFE40F62C3311
:10C5A400C2F200031B6803F1010240F62C33C2F20D
:10C5B40000031A6040F62C33C2F200031A6840F6F6
:10C5C4002433C2F200031B689A4209D340F6203395
:10C5D400C2F200031A6840F62C33C2F200031A6058
:10C5E40040F62C33C2F200031A6840F62833C2F234
:10C5F40000031B689A4221D140F62833C2F200039B
:10C604001B6803F1010240F62833C2F200031A60EA
:10C6140040F62833C2F200031A6840F62433C2F20B
:10C6240000031B689A4209D340F62033C2F2000388
:10C634001A6840F62833C2F200031A6007F59077AF
:10C64400BD4680BD80B5C6B000AF07F10C031860CD
:10C6540007F10803196007F104031A6040F6283350
:10C66400C2F200031A6840F62C33C2F200031B68BE
:10C674009A4202D14FF000035BE040F62833C2F245
:10C6840000031A6807F10C031B681A6040F628338C
:10C69400C2F200031B684FEA0323C7F8103107F105
:10C6A4001003D7F8100119464FF4807206F016FEF5
:10C6B40007F110035B781A4607F10C031B689A8094
:10C6C40007F1100303F10203184600F0D5F80346FE
:10C6D4001A4607F10C031B68DA8007F1100303F113
:10C6E4000403184600F0DEF8024607F10C031B6849
:10C6F4009A6007F10C031B689B88C7F8143107F193
:10C7040004031A68D7F814319A4204D207F10403D7
:10C714001B68C7F8143107F1080207F1100303F18D
:10C72400080310681946D7F814210EF053FF4FF090
:10C734000103184607F58C77BD4680BD80B584B0EB
:10C7440000AF78607B681A6840F62833C2F20003B1
:10C754001B689A4236D140F62833C2F200031B68A4
:10C764004FEA0323FB6006F045FD4FF08103FB72A3
:10C7740007F10B03F86819464FF0010206F068FD53
:10C7840040F62833C2F200031B6803F1010240F6AD
:10C794002833C2F200031A6040F62833C2F20003C1
:10C7A4001A6840F62433C2F200031B689A4209D384
:10C7B40040F62033C2F200031A6840F62833C2F26E
:10C7C40000031A6007F11007BD4680BD80B487B02E
:10C7D40000AF0346B9607A60FB81FB89FB82BA68CB
:10C7E4007B68D3183B612FE0FB8A4FEA13239BB28B
:10C7F4009AB2FB8A4FEA03239BB213439BB2FB8298
:10C80400BB681B781A46FB8A5340FB82FB8ADBB267
:10C814004FEA23139AB2FB8A53409BB2FB82FB8AF2
:10C824004FEA03339AB2FB8A53409BB2FB82FB8AE2
:10C83400DBB24FEA43139AB2FB8A53409BB2FB82AA
:10C84400BB6803F10103BB60BA683B699A42CBD36E
:10C85400FB8A184607F11C07BD4680BC704700BF21
:10C8640080B483B000AF78607B681B78184607F10A
:10C874000C07BD4680BC704780B483B000AF7860BD
:10C884007B6803F101031B784FEA03239AB27B68A8
:10C894001B7813439BB29BB2184607F10C07BD46A5
:10C8A40080BC704780B483B000AF78607B6803F1CC
:10C8B40003031B784FEA03627B6803F102031B78CE
:10C8C4004FEA03431A437B6803F101031B784FEAE1
:10C8D40003231A437B681B781343184607F10C079C
:10C8E400BD4680BC704700BFB0B586B000AF78606D
:10C8F4007868FFF7D7FF01460A464FF00003C7E9FF
:10C9040004237B6803F108031846FFF7CBFF0146B5
:10C914000A464FF00003C7E90223BB681D464FF0E7
:10C924000004D7E9042342EA040243EA050310465B
:10C93400194607F11807BD46B0BD00BF80B584B0E5
:10C9440000AF78607868FFF7ADFF0346FB60FB68D3
:10C95400184607F11007BD4680BD00BF80B584B0FE
:10C9640000AF786039603868FFF79CFF0346BB600E
:10C974003B6803F104031846FFF794FF0346FB608A
:10C984007B6807F1080292E8030083E803007868F3
:10C9940007F11007BD4680BD80B483B000AF786056
:10C9A4000B46FB707B68FA781A7007F10C07BD46DA
:10C9B40080BC704780B483B000AF78600B467B8046
:10C9C4007B88DAB27B681A707B6803F101037A888A
:10C9D4004FEA122292B2D2B21A7007F10C07BD4686
:10C9E40080BC704780B483B000AF786039603B6826
:10C9F400DAB27B681A707B6803F101033A684FEA84
:10CA04001222D2B21A707B6803F102033A684FEA29
:10CA14001242D2B21A707B6803F103033A684FEAF8
:10CA24001262D2B21A7007F10C07BD4680BC70477F
:10CA3400B0B584B000AFF860C7E900233B68F8687C
:10CA44001946FFF7CFFFFB6803F104027B681C461D
:10CA54004FF00005234610461946FFF7C3FF07F1C0
:10CA64001007BD46B0BD00BF80B584B000AF78608C
:10CA740039603B68FB60FB6878681946FFF7B2FFD2
:10CA840007F11007BD4680BD80B584B000AFF860E3
:10CA940007F1040383E806007B68F8681946FFF78A
:10CAA400A1FFFB6803F10402BB6810461946FFF7B7
:10CAB40099FF07F11007BD4680BD00BF80B485B063
:10CAC40000AFF860B9607A60FB68BA681A60FB6806
:10CAD4007A685A60FB684FF000029A60FB684FF076
:10CAE4000002DA6007F11407BD4680BC704700BF3E
:10CAF40080B483B000AF78607B685A687B689B68B9
:10CB0400D31A184607F10C07BD4680BC704700BF16
:10CB140080B584B000AFF860B9607A60FB681A68C9
:10CB2400FB68DB68D318B86819467A680EF052FDC2
:10CB3400FB68DA687B68D218FB68DA6007F11007D3
:10CB4400BD4680BD80B584B000AF78607B681A684C
:10CB54007B68DB68D318FB607B68DB6803F1010248
:10CB64007B68DA60F868FFF77BFE0346184607F136
:10CB74001007BD4680BD00BF80B584B000AF7860AB
:10CB84007B681A687B68DB68D318FB607B68DB68AA
:10CB940003F102027B68DA60F868FFF76DFE034672
:10CBA400184607F11007BD4680BD00BF80B584B0AC
:10CBB40000AF78607B681A687B68DB68D318FB6019
:10CBC4007B68DB6803F104027B68DA60F868FFF7CE
:10CBD40069FE0346184607F11007BD4680BD00BF35
:10CBE40080B584B000AF78607B681A687B68DB68C6
:10CBF400D318FB607B68DB6803F104027B68DA60AE
:10CC0400F868FFF79BFE0346184607F11007BD4678
:10CC140080BD00BF80B584B000AF786039603B68E8
:10CC24001A683B68DB68D318FB603B68DB6803F178
:10CC340008023B68DA607B681846F968FFF78EFEE5
:10CC4400786807F11007BD4680BD00BF80B582B08B
:10CC540000AF786039607B689A683B68D2187B685B
:10CC64005B689A4202D84FF0010307E04BF6B450D8
:10CC7400C0F2010000F026F94FF00003184607F156
:10CC84000807BD4680BD00BF80B584B000AFF86022
:10CC9400B9607A60F8687968FFF7D8FF0346002B1B
:10CCA4000FD0FB681A68FB689B68D3181846B968EC
:10CCB4007A680EF08FFCFB689A687B68D218FB6870
:10CCC4009A6007F11007BD4680BD00BF80B584B0EF
:10CCD40000AF78600B46FB7078684FF00101FFF7F6
:10CCE400B5FF0346002B10D07B681A687B689B68ED
:10CCF400D318FB607B689B6803F101027B689A6030
:10CD0400FB78F8681946FFF747FE07F11007BD46A0
:10CD140080BD00BF80B584B000AF78600B467B80D7
:10CD240078684FF00201FFF791FF0346002B10D003
:10CD34007B681A687B689B68D318FB607B689B6878
:10CD440003F102027B689A607B88F8681946FFF752
:10CD540031FE07F11007BD4680BD00BF80B584B029
:10CD640000AF7860396078684FF00401FFF76EFF18
:10CD74000346002B0FD07B681A687B689B68D31826
:10CD8400FB607B689B6803F104027B689A60F86827
:10CD94003968FFF727FE07F11007BD4680BD00BFC5
:10CDA40080B586B000AFF860C7E90023F8684FF09B
:10CDB4000801FFF74BFF0346002B10D0FB681A68ED
:10CDC400FB689B68D3187B61FB689B6803F10802CE
:10CDD400FB689A607869D7E90023FFF729FE07F119
:10CDE4001807BD4680BD00BF80B584B000AF786031
:10CDF400396078684FF00401FFF728FF0346002BE1
:10CE04000FD07B681A687B689B68D318FB607B68CB
:10CE14009B6803F104027B689A60F8683968FFF73D
:10CE240023FE07F11007BD4680BD00BF80B586B064
:10CE340000AFF86007F1040383E80600F8684FF0D8
:10CE44000801FFF703FF0346002B12D0FB681A68A2
:10CE5400FB689B68D3187B61FB689B6803F108023D
:10CE6400FB689A60786907F1040393E80600FFF70A
:10CE74000BFE07F11807BD4680BD00BF80B400AFAC
:10CE840040F63033C2F200034FF000021A7040F64D
:10CE94003133C2F200034FF000021A70BD4680BC69
:10CEA400704700BF80B483B000AF786040F6303381
:10CEB400C2F200034FF001021A7007F10C07BD46DD
:10CEC40080BC704780B5C8B000AF07F10403186098
:10CED40040F63133C2F200031B78002B05D007F172
:10CEE40004031868FFF7DEFF4DE040F63033C2F26A
:10CEF40000034FF001021A7007F1080207F118034A
:10CF0400104619464FF0F802FFF7D8FD07F588736D
:10CF14001846FCF701FF07F10803184607F5887364
:10CF240093E80600FFF782FF07F1040318680EF088
:10CF3400ADFBC7F81C0107F108031846FFF7D8FD3D
:10CF4400C7F81801D7F81C21D7F818319A4203D929
:10CF5400D7F81831C7F81C3107F1080207F10403A8
:10CF640010461968D7F81C21FFF78EFE07F1080355
:10CF74009B6807F1180244F24640C4F64C7011460F
:10CF84001A46FFF723FA07F59077BD4680BD00BF28
:10CF940080B485B000AFF860B9607A60FB68BA68A5
:10CFA4001A60FB687A685A60FB684FF000021A72D4
:10CFB400FB684FF00002DA60FB684FF000021A6170
:10CFC400FB684FF000025A6107F11407BD4680BCAC
:10CFD400704700BF80B483B000AF78607B684FF0C7
:10CFE40000021A727B684FF00002DA607B684FF02F
:10CFF40000021A617B684FF000025A6107F10C07C6
:10D00400BD4680BC704700BF80B483B000AF786079
:10D014007B681B7A184607F10C07BD4680BC704735
:10D0240080B483B000AF78607B684FF003021A725B
:10D0340007F10C07BD4680BC704700BF80B586B0C1
:10D0440000AFF860B9607A60FB685A697B68D318EE
:10D054007B61FB68DA687B699A4205D2FB68DA680F
:10D06400FB685B69D31A7B60FB681A68FB685B69C1
:10D07400D3181846B9687A680EF0ACFAFB685A6996
:10D084007B68D218FB685A61FB685A69FB68DB68E5
:10D094009A4204D1FB684FF002021A7205E0FB6861
:10D0A4001B6903F10102FB681A6107F11807BD4609
:10D0B40080BD00BF80B584B000AFF860B9607A600D
:10D0C4007B68012B03D8F868FFF7AAFF27E0FB6809
:10D0D4004FF001021A72B868FFF7CEFB03461A46F6
:10D0E400FB68DA60FB684FF000021A61FB684FF0DE
:10D0F40000025A61FB68DA68FB685B689A4203D9EC
:10D10400F868FFF78DFF0AE0BB6803F102027B6851
:10D11400A3F10203F86811461A46FFF78FFF07F1DF
:10D124001007BD4680BD00BF80B586B000AFF86073
:10D13400B9607A607B68002B03D1F868FFF770FF51
:10D144002CE0BB681B78FB75FB7D002B12D1FB68C0
:10D154001B69002B02D0F868FFF762FFBB6803F17C
:10D1640001027B6803F1FF33F86811461A46FFF7A2
:10D17400A1FF13E0FA7DFB681B699A4203D0F868AB
:10D18400FFF74EFF0AE0BB6803F101027B6803F17D
:10D19400FF33F86811461A46FFF750FF07F11807E6
:10D1A400BD4680BD80B483B000AF78607B684FF02B
:10D1B40000021A607B684FF000021A717B684FF01E
:10D1C40000029A607B684FF00002DA607B684FF0DF
:10D1D40000021A6107F10C07BD4680BC704700BF0E
:10D1E40080B485B000AFF860B9607A60FB68BA6853
:10D1F4001A60FB684FF001021A71FB687A689A6042
:10D20400FB684FF00002DA60FB684FF000021A611D
:10D2140007F11407BD4680BC704700BF80B586B0D7
:10D2240000AFF860B9607A60FB681B79012B02D00B
:10D234004FF0000351E0FB68DB68DAB2BB681A7098
:10D244004FF001037B61FB68DB68002B12D1BB68E4
:10D2540003F10103FA689268D2B21A70BB6803F151
:10D264000203FA6892684FEA1222D2B21A704FF09F
:10D2740003037B61FB689A68FB681B69D31A3B61F3
:10D284007A687B69D21A3B699A4203D27A687B69CD
:10D29400D31A3B61FB681B68FA681169B8687A693C
:10D2A4008218084611463A699847FB681A693B692F
:10D2B400D218FB681A61FB68DB6803F10102FB68A2
:10D2C400DA60FB689A68FB681B699A4203D1FB68C1
:10D2D4004FF002021A714FF00103184607F11807C4
:10D2E400BD4680BD80B485B000AFF860B9607A6097
:10D2F4003B60FB68BA681A60FB687A685A60FB682E
:10D304003A689A60FB684FF00002DA6007F114078C
:10D31400BD4680BC704700BF80B582B000AF786066
:10D3240039607B68DA687B681B68D2187B689B6805
:10D334009A4206D94BF60060C0F20100FFF7C2FD25
:10D344001AE07B685A687B68DB68D2187B681B68C4
:10D35400386811461A46FFF761FF034683F001035C
:10D36400DBB2002B07D17B68DA687B681B68D218B4
:10D374007B68DA60D5E700BF07F10807BD4680BDCA
:10D3840080B582B000AF786039607B68DB68002BC1
:10D3940002D14FF000031FE07B685A687B681B686A
:10D3A400386811461A460EF015F97B68DA687B680E
:10D3B4001B68D21A7B68DA607B6859687B685A6894
:10D3C4007B681B68D2187B68DB68084611461A46DE
:10D3D4000EF000F94FF00103184607F10807BD46A7
:10D3E40080BD00BF80B400AFBFF34F8F4FF46D42D8
:10D3F400CEF200024FF46D43CEF20003DB6803F477
:10D40400E0614FF00403C0F2FA530B43D360BFF35F
:10D414004F8FFEE780B400AF72B641F29023C2F2A0
:10D4240000031B68B3F1FF3F0BD041F29023C2F21B
:10D4340000031B6803F1010241F29023C2F20003CE
:10D444001A6041F29023C2F200031B681846BD46DD
:10D4540080BC704780B483B000AF41F29023C2F225
:10D4640000031B68002B17D041F29023C2F2000383
:10D474001B6803F1FF3241F29023C2F200031A60E9
:10D4840041F29023C2F200031B687B607B68002B8F
:10D4940000D162B67B6801E04FF00003184607F143
:10D4A4000C07BD4680BC704780B500AF40F63430F1
:10D4B400C2F20000FFF776FE80BD00BF80B584B0E5
:10D4C40000AFF860B9607A60FA6840F64833C2F297
:10D4D4000003D318B86819467A680EF07BF807F190
:10D4E4001007BD4680BD00BF80B582B000AF786034
:10D4F4000B46FB7040F67440C2F2000040F648311F
:10D50400C2F200014FF49672FFF7D8FAFB7840F6A6
:10D514007440C2F200001946FFF7D8FB40F674438A
:10D52400C2F20003184607F10807BD4680BD00BFDC
:10D5340080B582B000AF786040F67443C2F2000355
:10D544009B6840F63430C2F200004DF2C141C0F293
:10D5540000011A46FFF744FE786840F63431C2F2FF
:10D564000001FFF7D9FE07F10807BD4680BD00BFE3
:10D5740080B58CB000AFF860B9607A6007F114032D
:10D584001846B9687A68FFF799FA07F11403184640
:10D59400FFF7F2FA0346FB857A693B6AD318BB624C
:10D5A400F8684FF00101FFF79FFF7862FB8D786AFE
:10D5B4001946FFF7AFFBFB8D786AB96A1A46FFF785
:10D5C40063FBF868FFF7B4FF07F13007BD4680BD81
:10D5D40080B483B000AF44F27F03C0F6E0737B6095
:10D5E4007B681B683B603B6803F00F030F2B0CBF89
:10D5F40000230123DBB2184607F10C07BD4680BCAB
:10D60400704700BF80B582B000AFFFF7E1FF03466B
:10D6140083F00103DBB2002B15D06FF00F037B60A6
:10D6240007F014FFFFF7F6FE07F1040344F27F004E
:10D63400C0F6E07019464FF004020EF087F8FFF7C9
:10D6440009FF07F087FF07F10807BD4680BD00BF4B
:10D6540080B58EB000AFF860B9607A6007F114034A
:10D664001846B9687A68FFF729FA07F114031846CF
:10D67400FFF79CFA786307F114031846FFF77CFA66
:10D6840003463B637A693B6AD318FB624FF07E63BF
:10D69400BB623B6B03F1030323F003037B6207F0DC
:10D6A400D5FE72B6B86A0EF059F87B6AB86AF96AA0
:10D6B4001A460EF04BF862B607F04CFF7B6B03F092
:10D6C4000103002B01D0FFF79DFF7B6B03F00203E6
:10D6D400002B01D0FFF786FE07F13807BD4680BD59
:10D6E40080B58AB000AFF860B9607A6007F11403BE
:10D6F4001846B9687A68FFF7E1F907F11403184688
:10D70400FFF720FA034687F8273097F827301846A2
:10D7140005F044FE07F12807BD4680BD80B582B000
:10D7240000AF786078684FF00101FFF7F3FA78688A
:10D734004FF00001FFF7EEFA78684FF00001FFF7B1
:10D74400E9FA78684FF00001FFF708FB786840F2C7
:10D75400C431C2F200014FF01402FFF795FA07F149
:10D764000807BD4680BD00BF80B582B000AF7860B9
:10D77400786800F0CBFD07F10807BD4680BD00BF07
:10D7840080B588B002AF78604FF07E637B6107F1AB
:10D79400100307F10E02009278694BF64C61C0F257
:10D7A40001014FF0010202F047FAFB89786819463B
:10D7B400FFF7B0FA3A69FB89786811461A46FFF711
:10D7C40063FA07F11807BD4680BD00BF80B582B07B
:10D7D40000AF786041F26423C2F200031B687868EA
:10D7E4001946FFF7BBFA41F26823C2F200037868D6
:10D7F40093E80600FFF71AFB07F10807BD4680BD52
:10D8040080B582B000AF7860FEF7B6FD0346786855
:10D814001946FFF7A3FA07F10807BD4680BD00BF0C
:10D8240080B582B000AF7860FFF7D2FE0346786817
:10D834001946FFF74BFA07F10807BD4680BD00BF44
:10D8440080B582B000AF7860FFF7DCFE07F108070F
:10D85400BD4680BD80B584B000AF786007F1080391
:10D864001846FCF739FA786807F1080393E80600CC
:10D87400FFF7DCFA07F11007BD4680BD80B584B020
:10D8840000AF786007F1080318467968FFF7C2F91A
:10D8940007F1080393E80300FCF7F8F907F1100710
:10D8A400BD4680BD80B588B000AF786007F10C0339
:10D8B400184602F071FCFB6878681946FFF794FA81
:10D8C4003B6978681946FFF78FFA3B7D78681946FB
:10D8D400FFF7FCF97B7D78681946FFF7F7F9BB6918
:10D8E40078681946FFF780FAFB6978681946FFF7EC
:10D8F4007BFA07F12007BD4680BD00BF80B584B028
:10D9040000AF78607868FFF76BF9F860F86802F0A8
:10D9140085FC07F11007BD4680BD00BF80B582B00D
:10D9240000AF7860FBF710F8034678681946FFF7F4
:10D93400CDF907F10807BD4680BD00BF80B584B0AE
:10D9440000AF78607868FFF7FDF80346FB73FB7B54
:10D954001846FAF7DBFF07F11007BD4680BD00BF8C
:10D9640080B58CB000AFF860B9607A6007F1140339
:10D974001846B9687A68FFF7A1F807F11403184646
:10D98400FFF714F9B862F8684FF00201FFF7ACFD35
:10D994007862786AB96AFFF7E1F94FF00103FB6234
:10D9A4004AE0FA6ABB6A1340002B41D0FB6A102B91
:10D9B4002AD0102B0BD8022B1AD0022B02D8012B01
:10D9C40012D035E0042B17D0082B19D030E0402BAF
:10D9D40022D0402B02D8202B1AD029E0802B1FD034
:10D9E400B3F5807F20D023E0786AFFF797FE1FE02D
:10D9F400786AFFF7B9FE1BE0786AFFF711FF17E0BA
:10DA0400786AFFF727FF13E0786AFFF74BFF0FE010
:10DA1400786AFFF7B5FE0BE0786AFFF7D7FE07E0F8
:10DA2400786AFFF7EDFE03E0786AFFF777FF00BF3F
:10DA3400FB6A4FEA4303FB62FB6A002BB1D1F8682F
:10DA4400FFF776FD07F13007BD4680BD80B58AB08B
:10DA540000AFF860B9607A6007F110031846B9683E
:10DA64007A68FFF72BF807F110031846FFF79EF8C2
:10DA740038624FF001037B622EE07A6A3B6A1340FE
:10DA8400002B25D07B6A082B10D0082B02D8042B3E
:10DA940006D01DE0102B0FD0B3F5807F12D017E015
:10DAA40007F110031846FFF7CBFE11E007F110034E
:10DAB4001846FFF7E3FE0BE007F110031846FFF7E3
:10DAC4001DFF05E007F110031846FFF737FF00BFFD
:10DAD4007B6A4FEA43037B627B6A002BCDD107F15B
